{
	"use_erc777_token_example.sol": {
		"ReceiveAndBurn": {
			"abi": [
				{
					"inputs": [
						{
							"internalType": "contract IERC777",
							"name": "token",
							"type": "address"
						}
					],
					"stateMutability": "nonpayable",
					"type": "constructor"
				},
				{
					"anonymous": false,
					"inputs": [
						{
							"indexed": true,
							"internalType": "address",
							"name": "operator",
							"type": "address"
						},
						{
							"indexed": true,
							"internalType": "address",
							"name": "from",
							"type": "address"
						},
						{
							"indexed": true,
							"internalType": "address",
							"name": "to",
							"type": "address"
						},
						{
							"indexed": false,
							"internalType": "uint256",
							"name": "amount",
							"type": "uint256"
						},
						{
							"indexed": false,
							"internalType": "string",
							"name": "log_text",
							"type": "string"
						}
					],
					"name": "TokensReceived",
					"type": "event"
				},
				{
					"anonymous": false,
					"inputs": [
						{
							"indexed": true,
							"internalType": "address",
							"name": "operator",
							"type": "address"
						},
						{
							"indexed": true,
							"internalType": "address",
							"name": "from",
							"type": "address"
						},
						{
							"indexed": true,
							"internalType": "address",
							"name": "to",
							"type": "address"
						},
						{
							"indexed": false,
							"internalType": "uint256",
							"name": "amount",
							"type": "uint256"
						},
						{
							"indexed": false,
							"internalType": "string",
							"name": "log_text",
							"type": "string"
						}
					],
					"name": "TokensToSend",
					"type": "event"
				},
				{
					"inputs": [],
					"name": "burn",
					"outputs": [],
					"stateMutability": "nonpayable",
					"type": "function"
				},
				{
					"inputs": [
						{
							"internalType": "address",
							"name": "",
							"type": "address"
						}
					],
					"name": "givers",
					"outputs": [
						{
							"internalType": "uint256",
							"name": "",
							"type": "uint256"
						}
					],
					"stateMutability": "view",
					"type": "function"
				},
				{
					"inputs": [
						{
							"internalType": "address",
							"name": "g",
							"type": "address"
						}
					],
					"name": "showGive",
					"outputs": [
						{
							"internalType": "uint256",
							"name": "",
							"type": "uint256"
						}
					],
					"stateMutability": "view",
					"type": "function"
				},
				{
					"inputs": [
						{
							"internalType": "address",
							"name": "operator",
							"type": "address"
						},
						{
							"internalType": "address",
							"name": "from",
							"type": "address"
						},
						{
							"internalType": "address",
							"name": "to",
							"type": "address"
						},
						{
							"internalType": "uint256",
							"name": "amount",
							"type": "uint256"
						},
						{
							"internalType": "bytes",
							"name": "userData",
							"type": "bytes"
						},
						{
							"internalType": "bytes",
							"name": "operatorData",
							"type": "bytes"
						}
					],
					"name": "tokensReceived",
					"outputs": [],
					"stateMutability": "nonpayable",
					"type": "function"
				},
				{
					"inputs": [
						{
							"internalType": "address",
							"name": "operator",
							"type": "address"
						},
						{
							"internalType": "address",
							"name": "from",
							"type": "address"
						},
						{
							"internalType": "address",
							"name": "to",
							"type": "address"
						},
						{
							"internalType": "uint256",
							"name": "amount",
							"type": "uint256"
						},
						{
							"internalType": "bytes",
							"name": "userData",
							"type": "bytes"
						},
						{
							"internalType": "bytes",
							"name": "operatorData",
							"type": "bytes"
						}
					],
					"name": "tokensToSend",
					"outputs": [],
					"stateMutability": "nonpayable",
					"type": "function"
				}
			],
			"devdoc": {
				"kind": "dev",
				"methods": {
					"tokensReceived(address,address,address,uint256,bytes,bytes)": {
						"details": "Called by an {IERC777} token contract whenever tokens are being moved or created into a registered account (`to`). The type of operation is conveyed by `from` being the zero address or not. This call occurs _after_ the token contract's state is updated, so {IERC777-balanceOf}, etc., can be used to query the post-operation state. This function may revert to prevent the operation from being executed."
					},
					"tokensToSend(address,address,address,uint256,bytes,bytes)": {
						"details": "Called by an {IERC777} token contract whenever a registered holder's (`from`) tokens are about to be moved or destroyed. The type of operation is conveyed by `to` being the zero address or not. This call occurs _before_ the token contract's state is updated, so {IERC777-balanceOf}, etc., can be used to query the pre-operation state. This function may revert to prevent the operation from being executed."
					}
				},
				"version": 1
			},
			"evm": {
				"assembly": "    /* \"use_erc777_token_example.sol\":352:2438  contract ReceiveAndBurn is IERC777Sender, IERC777Recipient {... */\n  mstore(0x40, 0x80)\n    /* \"use_erc777_token_example.sol\":1095:1410  constructor(IERC777 token) {... */\n  callvalue\n  dup1\n  iszero\n  tag_1\n  jumpi\n  0x00\n  dup1\n  revert\ntag_1:\n  pop\n  mload(0x40)\n  sub(codesize, bytecodeSize)\n  dup1\n  bytecodeSize\n  dup4\n  codecopy\n  dup2\n  dup2\n  add\n  0x40\n  mstore\n  dup2\n  add\n  swap1\n  tag_2\n  swap2\n  swap1\n  tag_3\n  jump\t// in\ntag_2:\n    /* \"use_erc777_token_example.sol\":850:892  0x1820a4B7618BdE71Dce8cdc73aAB6C95905faD24 */\n  0x1820a4b7618bde71dce8cdc73aab6c95905fad24\n    /* \"use_erc777_token_example.sol\":1132:1173  _ERC1820_REGISTRY.setInterfaceImplementer */\n  0xffffffffffffffffffffffffffffffffffffffff\n  and\n  0x29965a1d\n    /* \"use_erc777_token_example.sol\":1182:1186  this */\n  address\n    /* \"use_erc777_token_example.sol\":957:988  keccak256(\"ERC777TokensSender\") */\n  0x29ddb589b1fb5fc7cf394961c1adf5f8c6454761adf795e67fe149f658abe895\n    /* \"use_erc777_token_example.sol\":1228:1232  this */\n  address\n    /* \"use_erc777_token_example.sol\":1132:1234  _ERC1820_REGISTRY.setInterfaceImplementer(address(this), _TOKENS_SENDER_INTERFACE_HASH, address(this)) */\n  mload(0x40)\n  dup5\n  0xffffffff\n  and\n  0xe0\n  shl\n  dup2\n  mstore\n  0x04\n  add\n  tag_6\n  swap4\n  swap3\n  swap2\n  swap1\n  tag_7\n  jump\t// in\ntag_6:\n  0x00\n  mload(0x40)\n  dup1\n  dup4\n  sub\n  dup2\n  0x00\n  dup8\n  dup1\n  extcodesize\n  iszero\n  dup1\n  iszero\n  tag_8\n  jumpi\n  0x00\n  dup1\n  revert\ntag_8:\n  pop\n  gas\n  call\n  iszero\n  dup1\n  iszero\n  tag_10\n  jumpi\n  returndatasize\n  0x00\n  dup1\n  returndatacopy\n  revert(0x00, returndatasize)\ntag_10:\n  pop\n  pop\n  pop\n  pop\n    /* \"use_erc777_token_example.sol\":850:892  0x1820a4B7618BdE71Dce8cdc73aAB6C95905faD24 */\n  0x1820a4b7618bde71dce8cdc73aab6c95905fad24\n    /* \"use_erc777_token_example.sol\":1244:1285  _ERC1820_REGISTRY.setInterfaceImplementer */\n  0xffffffffffffffffffffffffffffffffffffffff\n  and\n  0x29965a1d\n    /* \"use_erc777_token_example.sol\":1294:1298  this */\n  address\n    /* \"use_erc777_token_example.sol\":1054:1088  keccak256(\"ERC777TokensRecipient\") */\n  0xb281fc8c12954d22544db45de3159a39272895b169a852b314f9cc762e44c53b\n    /* \"use_erc777_token_example.sol\":1343:1347  this */\n  address\n    /* \"use_erc777_token_example.sol\":1244:1349  _ERC1820_REGISTRY.setInterfaceImplementer(address(this), _TOKENS_RECIPIENT_INTERFACE_HASH, address(this)) */\n  mload(0x40)\n  dup5\n  0xffffffff\n  and\n  0xe0\n  shl\n  dup2\n  mstore\n  0x04\n  add\n  tag_11\n  swap4\n  swap3\n  swap2\n  swap1\n  tag_7\n  jump\t// in\ntag_11:\n  0x00\n  mload(0x40)\n  dup1\n  dup4\n  sub\n  dup2\n  0x00\n  dup8\n  dup1\n  extcodesize\n  iszero\n  dup1\n  iszero\n  tag_12\n  jumpi\n  0x00\n  dup1\n  revert\ntag_12:\n  pop\n  gas\n  call\n  iszero\n  dup1\n  iszero\n  tag_14\n  jumpi\n  returndatasize\n  0x00\n  dup1\n  returndatacopy\n  revert(0x00, returndatasize)\ntag_14:\n  pop\n  pop\n  pop\n  pop\n    /* \"use_erc777_token_example.sol\":1369:1379  msg.sender */\n  caller\n    /* \"use_erc777_token_example.sol\":1360:1366  _owner */\n  0x01\n  0x00\n    /* \"use_erc777_token_example.sol\":1360:1379  _owner = msg.sender */\n  0x0100\n  exp\n  dup2\n  sload\n  dup2\n  0xffffffffffffffffffffffffffffffffffffffff\n  mul\n  not\n  and\n  swap1\n  dup4\n  0xffffffffffffffffffffffffffffffffffffffff\n  and\n  mul\n  or\n  swap1\n  sstore\n  pop\n    /* \"use_erc777_token_example.sol\":1398:1403  token */\n  dup1\n    /* \"use_erc777_token_example.sol\":1389:1395  _token */\n  0x02\n  0x00\n    /* \"use_erc777_token_example.sol\":1389:1403  _token = token */\n  0x0100\n  exp\n  dup2\n  sload\n  dup2\n  0xffffffffffffffffffffffffffffffffffffffff\n  mul\n  not\n  and\n  swap1\n  dup4\n  0xffffffffffffffffffffffffffffffffffffffff\n  and\n  mul\n  or\n  swap1\n  sstore\n  pop\n    /* \"use_erc777_token_example.sol\":1095:1410  constructor(IERC777 token) {... */\n  pop\n    /* \"use_erc777_token_example.sol\":352:2438  contract ReceiveAndBurn is IERC777Sender, IERC777Recipient {... */\n  jump(tag_15)\n    /* \"#utility.yul\":88:205   */\ntag_17:\n    /* \"#utility.yul\":197:198   */\n  0x00\n    /* \"#utility.yul\":194:195   */\n  dup1\n    /* \"#utility.yul\":187:199   */\n  revert\n    /* \"#utility.yul\":334:460   */\ntag_19:\n    /* \"#utility.yul\":371:378   */\n  0x00\n    /* \"#utility.yul\":411:453   */\n  0xffffffffffffffffffffffffffffffffffffffff\n    /* \"#utility.yul\":404:409   */\n  dup3\n    /* \"#utility.yul\":400:454   */\n  and\n    /* \"#utility.yul\":389:454   */\n  swap1\n  pop\n    /* \"#utility.yul\":334:460   */\n  swap2\n  swap1\n  pop\n  jump\t// out\n    /* \"#utility.yul\":466:562   */\ntag_20:\n    /* \"#utility.yul\":503:510   */\n  0x00\n    /* \"#utility.yul\":532:556   */\n  tag_33\n    /* \"#utility.yul\":550:555   */\n  dup3\n    /* \"#utility.yul\":532:556   */\n  tag_19\n  jump\t// in\ntag_33:\n    /* \"#utility.yul\":521:556   */\n  swap1\n  pop\n    /* \"#utility.yul\":466:562   */\n  swap2\n  swap1\n  pop\n  jump\t// out\n    /* \"#utility.yul\":568:679   */\ntag_21:\n    /* \"#utility.yul\":620:627   */\n  0x00\n    /* \"#utility.yul\":649:673   */\n  tag_35\n    /* \"#utility.yul\":667:672   */\n  dup3\n    /* \"#utility.yul\":649:673   */\n  tag_20\n  jump\t// in\ntag_35:\n    /* \"#utility.yul\":638:673   */\n  swap1\n  pop\n    /* \"#utility.yul\":568:679   */\n  swap2\n  swap1\n  pop\n  jump\t// out\n    /* \"#utility.yul\":685:837   */\ntag_22:\n    /* \"#utility.yul\":773:812   */\n  tag_37\n    /* \"#utility.yul\":806:811   */\n  dup2\n    /* \"#utility.yul\":773:812   */\n  tag_21\n  jump\t// in\ntag_37:\n    /* \"#utility.yul\":766:771   */\n  dup2\n    /* \"#utility.yul\":763:813   */\n  eq\n    /* \"#utility.yul\":753:831   */\n  tag_38\n  jumpi\n    /* \"#utility.yul\":827:828   */\n  0x00\n    /* \"#utility.yul\":824:825   */\n  dup1\n    /* \"#utility.yul\":817:829   */\n  revert\n    /* \"#utility.yul\":753:831   */\ntag_38:\n    /* \"#utility.yul\":685:837   */\n  pop\n  jump\t// out\n    /* \"#utility.yul\":843:1016   */\ntag_23:\n    /* \"#utility.yul\":915:920   */\n  0x00\n    /* \"#utility.yul\":946:952   */\n  dup2\n    /* \"#utility.yul\":940:953   */\n  mload\n    /* \"#utility.yul\":931:953   */\n  swap1\n  pop\n    /* \"#utility.yul\":962:1010   */\n  tag_40\n    /* \"#utility.yul\":1004:1009   */\n  dup2\n    /* \"#utility.yul\":962:1010   */\n  tag_22\n  jump\t// in\ntag_40:\n    /* \"#utility.yul\":843:1016   */\n  swap3\n  swap2\n  pop\n  pop\n  jump\t// out\n    /* \"#utility.yul\":1022:1403   */\ntag_3:\n    /* \"#utility.yul\":1107:1113   */\n  0x00\n    /* \"#utility.yul\":1156:1158   */\n  0x20\n    /* \"#utility.yul\":1144:1153   */\n  dup3\n    /* \"#utility.yul\":1135:1142   */\n  dup5\n    /* \"#utility.yul\":1131:1154   */\n  sub\n    /* \"#utility.yul\":1127:1159   */\n  slt\n    /* \"#utility.yul\":1124:1243   */\n  iszero\n  tag_42\n  jumpi\n    /* \"#utility.yul\":1162:1241   */\n  tag_43\n  tag_17\n  jump\t// in\ntag_43:\n    /* \"#utility.yul\":1124:1243   */\ntag_42:\n    /* \"#utility.yul\":1282:1283   */\n  0x00\n    /* \"#utility.yul\":1307:1386   */\n  tag_44\n    /* \"#utility.yul\":1378:1385   */\n  dup5\n    /* \"#utility.yul\":1369:1375   */\n  dup3\n    /* \"#utility.yul\":1358:1367   */\n  dup6\n    /* \"#utility.yul\":1354:1376   */\n  add\n    /* \"#utility.yul\":1307:1386   */\n  tag_23\n  jump\t// in\ntag_44:\n    /* \"#utility.yul\":1297:1386   */\n  swap2\n  pop\n    /* \"#utility.yul\":1253:1396   */\n  pop\n    /* \"#utility.yul\":1022:1403   */\n  swap3\n  swap2\n  pop\n  pop\n  jump\t// out\n    /* \"#utility.yul\":1409:1527   */\ntag_24:\n    /* \"#utility.yul\":1496:1520   */\n  tag_46\n    /* \"#utility.yul\":1514:1519   */\n  dup2\n    /* \"#utility.yul\":1496:1520   */\n  tag_20\n  jump\t// in\ntag_46:\n    /* \"#utility.yul\":1491:1494   */\n  dup3\n    /* \"#utility.yul\":1484:1521   */\n  mstore\n    /* \"#utility.yul\":1409:1527   */\n  pop\n  pop\n  jump\t// out\n    /* \"#utility.yul\":1533:1610   */\ntag_25:\n    /* \"#utility.yul\":1570:1577   */\n  0x00\n    /* \"#utility.yul\":1599:1604   */\n  dup2\n    /* \"#utility.yul\":1588:1604   */\n  swap1\n  pop\n    /* \"#utility.yul\":1533:1610   */\n  swap2\n  swap1\n  pop\n  jump\t// out\n    /* \"#utility.yul\":1616:1734   */\ntag_26:\n    /* \"#utility.yul\":1703:1727   */\n  tag_49\n    /* \"#utility.yul\":1721:1726   */\n  dup2\n    /* \"#utility.yul\":1703:1727   */\n  tag_25\n  jump\t// in\ntag_49:\n    /* \"#utility.yul\":1698:1701   */\n  dup3\n    /* \"#utility.yul\":1691:1728   */\n  mstore\n    /* \"#utility.yul\":1616:1734   */\n  pop\n  pop\n  jump\t// out\n    /* \"#utility.yul\":1740:2182   */\ntag_7:\n    /* \"#utility.yul\":1889:1893   */\n  0x00\n    /* \"#utility.yul\":1927:1929   */\n  0x60\n    /* \"#utility.yul\":1916:1925   */\n  dup3\n    /* \"#utility.yul\":1912:1930   */\n  add\n    /* \"#utility.yul\":1904:1930   */\n  swap1\n  pop\n    /* \"#utility.yul\":1940:2011   */\n  tag_51\n    /* \"#utility.yul\":2008:2009   */\n  0x00\n    /* \"#utility.yul\":1997:2006   */\n  dup4\n    /* \"#utility.yul\":1993:2010   */\n  add\n    /* \"#utility.yul\":1984:1990   */\n  dup7\n    /* \"#utility.yul\":1940:2011   */\n  tag_24\n  jump\t// in\ntag_51:\n    /* \"#utility.yul\":2021:2093   */\n  tag_52\n    /* \"#utility.yul\":2089:2091   */\n  0x20\n    /* \"#utility.yul\":2078:2087   */\n  dup4\n    /* \"#utility.yul\":2074:2092   */\n  add\n    /* \"#utility.yul\":2065:2071   */\n  dup6\n    /* \"#utility.yul\":2021:2093   */\n  tag_26\n  jump\t// in\ntag_52:\n    /* \"#utility.yul\":2103:2175   */\n  tag_53\n    /* \"#utility.yul\":2171:2173   */\n  0x40\n    /* \"#utility.yul\":2160:2169   */\n  dup4\n    /* \"#utility.yul\":2156:2174   */\n  add\n    /* \"#utility.yul\":2147:2153   */\n  dup5\n    /* \"#utility.yul\":2103:2175   */\n  tag_24\n  jump\t// in\ntag_53:\n    /* \"#utility.yul\":1740:2182   */\n  swap5\n  swap4\n  pop\n  pop\n  pop\n  pop\n  jump\t// out\n    /* \"use_erc777_token_example.sol\":352:2438  contract ReceiveAndBurn is IERC777Sender, IERC777Recipient {... */\ntag_15:\n  dataSize(sub_0)\n  dup1\n  dataOffset(sub_0)\n  0x00\n  codecopy\n  0x00\n  return\nstop\n\nsub_0: assembly {\n        /* \"use_erc777_token_example.sol\":352:2438  contract ReceiveAndBurn is IERC777Sender, IERC777Recipient {... */\n      mstore(0x40, 0x80)\n      callvalue\n      dup1\n      iszero\n      tag_1\n      jumpi\n      0x00\n      dup1\n      revert\n    tag_1:\n      pop\n      jumpi(tag_2, lt(calldatasize, 0x04))\n      shr(0xe0, calldataload(0x00))\n      dup1\n      0x23de29\n      eq\n      tag_3\n      jumpi\n      dup1\n      0x44df8e70\n      eq\n      tag_4\n      jumpi\n      dup1\n      0x75ab9782\n      eq\n      tag_5\n      jumpi\n      dup1\n      0x8170eace\n      eq\n      tag_6\n      jumpi\n      dup1\n      0xe89081f8\n      eq\n      tag_7\n      jumpi\n    tag_2:\n      0x00\n      dup1\n      revert\n        /* \"use_erc777_token_example.sol\":1588:1903  function tokensReceived(... */\n    tag_3:\n      tag_8\n      0x04\n      dup1\n      calldatasize\n      sub\n      dup2\n      add\n      swap1\n      tag_9\n      swap2\n      swap1\n      tag_10\n      jump\t// in\n    tag_9:\n      tag_11\n      jump\t// in\n    tag_8:\n      stop\n        /* \"use_erc777_token_example.sol\":2256:2436  function burn() external {... */\n    tag_4:\n      tag_12\n      tag_13\n      jump\t// in\n    tag_12:\n      stop\n        /* \"use_erc777_token_example.sol\":1935:2213  function tokensToSend(... */\n    tag_5:\n      tag_14\n      0x04\n      dup1\n      calldatasize\n      sub\n      dup2\n      add\n      swap1\n      tag_15\n      swap2\n      swap1\n      tag_10\n      jump\t// in\n    tag_15:\n      tag_16\n      jump\t// in\n    tag_14:\n      stop\n        /* \"use_erc777_token_example.sol\":1456:1556  function showGive(address g) public view virtual returns (uint256) {... */\n    tag_6:\n      tag_17\n      0x04\n      dup1\n      calldatasize\n      sub\n      dup2\n      add\n      swap1\n      tag_18\n      swap2\n      swap1\n      tag_19\n      jump\t// in\n    tag_18:\n      tag_20\n      jump\t// in\n    tag_17:\n      mload(0x40)\n      tag_21\n      swap2\n      swap1\n      tag_22\n      jump\t// in\n    tag_21:\n      mload(0x40)\n      dup1\n      swap2\n      sub\n      swap1\n      return\n        /* \"use_erc777_token_example.sol\":674:715  mapping(address => uint256) public givers */\n    tag_7:\n      tag_23\n      0x04\n      dup1\n      calldatasize\n      sub\n      dup2\n      add\n      swap1\n      tag_24\n      swap2\n      swap1\n      tag_19\n      jump\t// in\n    tag_24:\n      tag_25\n      jump\t// in\n    tag_23:\n      mload(0x40)\n      tag_26\n      swap2\n      swap1\n      tag_22\n      jump\t// in\n    tag_26:\n      mload(0x40)\n      dup1\n      swap2\n      sub\n      swap1\n      return\n        /* \"use_erc777_token_example.sol\":1588:1903  function tokensReceived(... */\n    tag_11:\n        /* \"use_erc777_token_example.sol\":1815:1821  amount */\n      dup5\n        /* \"use_erc777_token_example.sol\":1799:1805  givers */\n      0x00\n        /* \"use_erc777_token_example.sol\":1799:1811  givers[from] */\n      dup1\n        /* \"use_erc777_token_example.sol\":1806:1810  from */\n      dup10\n        /* \"use_erc777_token_example.sol\":1799:1811  givers[from] */\n      0xffffffffffffffffffffffffffffffffffffffff\n      and\n      0xffffffffffffffffffffffffffffffffffffffff\n      and\n      dup2\n      mstore\n      0x20\n      add\n      swap1\n      dup2\n      mstore\n      0x20\n      add\n      0x00\n      keccak256\n      0x00\n        /* \"use_erc777_token_example.sol\":1799:1821  givers[from] += amount */\n      dup3\n      dup3\n      sload\n      tag_28\n      swap2\n      swap1\n      tag_29\n      jump\t// in\n    tag_28:\n      swap3\n      pop\n      pop\n      dup2\n      swap1\n      sstore\n      pop\n        /* \"use_erc777_token_example.sol\":1867:1869  to */\n      dup6\n        /* \"use_erc777_token_example.sol\":1836:1896  TokensReceived(operator, from, to, amount, \"token received\") */\n      0xffffffffffffffffffffffffffffffffffffffff\n      and\n        /* \"use_erc777_token_example.sol\":1861:1865  from */\n      dup8\n        /* \"use_erc777_token_example.sol\":1836:1896  TokensReceived(operator, from, to, amount, \"token received\") */\n      0xffffffffffffffffffffffffffffffffffffffff\n      and\n        /* \"use_erc777_token_example.sol\":1851:1859  operator */\n      dup10\n        /* \"use_erc777_token_example.sol\":1836:1896  TokensReceived(operator, from, to, amount, \"token received\") */\n      0xffffffffffffffffffffffffffffffffffffffff\n      and\n      0x40079291ab55cc19bc58cf71f199a7dbea42e6ae0a5df85085cfd005989882e1\n        /* \"use_erc777_token_example.sol\":1871:1877  amount */\n      dup9\n        /* \"use_erc777_token_example.sol\":1836:1896  TokensReceived(operator, from, to, amount, \"token received\") */\n      mload(0x40)\n      tag_30\n      swap2\n      swap1\n      tag_31\n      jump\t// in\n    tag_30:\n      mload(0x40)\n      dup1\n      swap2\n      sub\n      swap1\n      log4\n        /* \"use_erc777_token_example.sol\":1588:1903  function tokensReceived(... */\n      pop\n      pop\n      pop\n      pop\n      pop\n      pop\n      pop\n      pop\n      jump\t// out\n        /* \"use_erc777_token_example.sol\":2256:2436  function burn() external {... */\n    tag_13:\n        /* \"use_erc777_token_example.sol\":2313:2319  _owner */\n      0x01\n      0x00\n      swap1\n      sload\n      swap1\n      0x0100\n      exp\n      swap1\n      div\n      0xffffffffffffffffffffffffffffffffffffffff\n      and\n        /* \"use_erc777_token_example.sol\":2299:2319  msg.sender == _owner */\n      0xffffffffffffffffffffffffffffffffffffffff\n      and\n        /* \"use_erc777_token_example.sol\":2299:2309  msg.sender */\n      caller\n        /* \"use_erc777_token_example.sol\":2299:2319  msg.sender == _owner */\n      0xffffffffffffffffffffffffffffffffffffffff\n      and\n      eq\n        /* \"use_erc777_token_example.sol\":2291:2336  require(msg.sender == _owner, \"no permision\") */\n      tag_33\n      jumpi\n      mload(0x40)\n      0x08c379a000000000000000000000000000000000000000000000000000000000\n      dup2\n      mstore\n      0x04\n      add\n      tag_34\n      swap1\n      tag_35\n      jump\t// in\n    tag_34:\n      mload(0x40)\n      dup1\n      swap2\n      sub\n      swap1\n      revert\n    tag_33:\n        /* \"use_erc777_token_example.sol\":2346:2361  uint256 balance */\n      0x00\n        /* \"use_erc777_token_example.sol\":2364:2370  _token */\n      0x02\n      0x00\n      swap1\n      sload\n      swap1\n      0x0100\n      exp\n      swap1\n      div\n      0xffffffffffffffffffffffffffffffffffffffff\n      and\n        /* \"use_erc777_token_example.sol\":2364:2380  _token.balanceOf */\n      0xffffffffffffffffffffffffffffffffffffffff\n      and\n      0x70a08231\n        /* \"use_erc777_token_example.sol\":2389:2393  this */\n      address\n        /* \"use_erc777_token_example.sol\":2364:2395  _token.balanceOf(address(this)) */\n      mload(0x40)\n      dup3\n      0xffffffff\n      and\n      0xe0\n      shl\n      dup2\n      mstore\n      0x04\n      add\n      tag_36\n      swap2\n      swap1\n      tag_37\n      jump\t// in\n    tag_36:\n      0x20\n      mload(0x40)\n      dup1\n      dup4\n      sub\n      dup2\n      dup7\n      gas\n      staticcall\n      iszero\n      dup1\n      iszero\n      tag_39\n      jumpi\n      returndatasize\n      0x00\n      dup1\n      returndatacopy\n      revert(0x00, returndatasize)\n    tag_39:\n      pop\n      pop\n      pop\n      pop\n      mload(0x40)\n      returndatasize\n      not(0x1f)\n      0x1f\n      dup3\n      add\n      and\n      dup3\n      add\n      dup1\n      0x40\n      mstore\n      pop\n      dup2\n      add\n      swap1\n      tag_40\n      swap2\n      swap1\n      tag_41\n      jump\t// in\n    tag_40:\n        /* \"use_erc777_token_example.sol\":2346:2395  uint256 balance = _token.balanceOf(address(this)) */\n      swap1\n      pop\n        /* \"use_erc777_token_example.sol\":2405:2411  _token */\n      0x02\n      0x00\n      swap1\n      sload\n      swap1\n      0x0100\n      exp\n      swap1\n      div\n      0xffffffffffffffffffffffffffffffffffffffff\n      and\n        /* \"use_erc777_token_example.sol\":2405:2416  _token.burn */\n      0xffffffffffffffffffffffffffffffffffffffff\n      and\n      0xfe9d9303\n        /* \"use_erc777_token_example.sol\":2417:2424  balance */\n      dup3\n        /* \"use_erc777_token_example.sol\":2405:2429  _token.burn(balance, \"\") */\n      mload(0x40)\n      dup3\n      0xffffffff\n      and\n      0xe0\n      shl\n      dup2\n      mstore\n      0x04\n      add\n      tag_42\n      swap2\n      swap1\n      tag_43\n      jump\t// in\n    tag_42:\n      0x00\n      mload(0x40)\n      dup1\n      dup4\n      sub\n      dup2\n      0x00\n      dup8\n      dup1\n      extcodesize\n      iszero\n      dup1\n      iszero\n      tag_44\n      jumpi\n      0x00\n      dup1\n      revert\n    tag_44:\n      pop\n      gas\n      call\n      iszero\n      dup1\n      iszero\n      tag_46\n      jumpi\n      returndatasize\n      0x00\n      dup1\n      returndatacopy\n      revert(0x00, returndatasize)\n    tag_46:\n      pop\n      pop\n      pop\n      pop\n        /* \"use_erc777_token_example.sol\":2281:2436  {... */\n      pop\n        /* \"use_erc777_token_example.sol\":2256:2436  function burn() external {... */\n      jump\t// out\n        /* \"use_erc777_token_example.sol\":1935:2213  function tokensToSend(... */\n    tag_16:\n        /* \"use_erc777_token_example.sol\":2178:2180  to */\n      dup6\n        /* \"use_erc777_token_example.sol\":2149:2206  TokensToSend(operator, from, to, amount, \"token to send\") */\n      0xffffffffffffffffffffffffffffffffffffffff\n      and\n        /* \"use_erc777_token_example.sol\":2172:2176  from */\n      dup8\n        /* \"use_erc777_token_example.sol\":2149:2206  TokensToSend(operator, from, to, amount, \"token to send\") */\n      0xffffffffffffffffffffffffffffffffffffffff\n      and\n        /* \"use_erc777_token_example.sol\":2162:2170  operator */\n      dup10\n        /* \"use_erc777_token_example.sol\":2149:2206  TokensToSend(operator, from, to, amount, \"token to send\") */\n      0xffffffffffffffffffffffffffffffffffffffff\n      and\n      0x76a1164d576fc7c969d03ca591db9973dcf556dea68edfb7cc163fdce887d39b\n        /* \"use_erc777_token_example.sol\":2182:2188  amount */\n      dup9\n        /* \"use_erc777_token_example.sol\":2149:2206  TokensToSend(operator, from, to, amount, \"token to send\") */\n      mload(0x40)\n      tag_48\n      swap2\n      swap1\n      tag_49\n      jump\t// in\n    tag_48:\n      mload(0x40)\n      dup1\n      swap2\n      sub\n      swap1\n      log4\n        /* \"use_erc777_token_example.sol\":1935:2213  function tokensToSend(... */\n      pop\n      pop\n      pop\n      pop\n      pop\n      pop\n      pop\n      pop\n      jump\t// out\n        /* \"use_erc777_token_example.sol\":1456:1556  function showGive(address g) public view virtual returns (uint256) {... */\n    tag_20:\n        /* \"use_erc777_token_example.sol\":1514:1521  uint256 */\n      0x00\n        /* \"use_erc777_token_example.sol\":1540:1546  givers */\n      dup1\n        /* \"use_erc777_token_example.sol\":1540:1549  givers[g] */\n      0x00\n        /* \"use_erc777_token_example.sol\":1547:1548  g */\n      dup4\n        /* \"use_erc777_token_example.sol\":1540:1549  givers[g] */\n      0xffffffffffffffffffffffffffffffffffffffff\n      and\n      0xffffffffffffffffffffffffffffffffffffffff\n      and\n      dup2\n      mstore\n      0x20\n      add\n      swap1\n      dup2\n      mstore\n      0x20\n      add\n      0x00\n      keccak256\n      sload\n        /* \"use_erc777_token_example.sol\":1533:1549  return givers[g] */\n      swap1\n      pop\n        /* \"use_erc777_token_example.sol\":1456:1556  function showGive(address g) public view virtual returns (uint256) {... */\n      swap2\n      swap1\n      pop\n      jump\t// out\n        /* \"use_erc777_token_example.sol\":674:715  mapping(address => uint256) public givers */\n    tag_25:\n      mstore(0x20, 0x00)\n      dup1\n      0x00\n      mstore\n      keccak256(0x00, 0x40)\n      0x00\n      swap2\n      pop\n      swap1\n      pop\n      sload\n      dup2\n      jump\t// out\n        /* \"#utility.yul\":88:205   */\n    tag_52:\n        /* \"#utility.yul\":197:198   */\n      0x00\n        /* \"#utility.yul\":194:195   */\n      dup1\n        /* \"#utility.yul\":187:199   */\n      revert\n        /* \"#utility.yul\":211:328   */\n    tag_53:\n        /* \"#utility.yul\":320:321   */\n      0x00\n        /* \"#utility.yul\":317:318   */\n      dup1\n        /* \"#utility.yul\":310:322   */\n      revert\n        /* \"#utility.yul\":334:460   */\n    tag_54:\n        /* \"#utility.yul\":371:378   */\n      0x00\n        /* \"#utility.yul\":411:453   */\n      0xffffffffffffffffffffffffffffffffffffffff\n        /* \"#utility.yul\":404:409   */\n      dup3\n        /* \"#utility.yul\":400:454   */\n      and\n        /* \"#utility.yul\":389:454   */\n      swap1\n      pop\n        /* \"#utility.yul\":334:460   */\n      swap2\n      swap1\n      pop\n      jump\t// out\n        /* \"#utility.yul\":466:562   */\n    tag_55:\n        /* \"#utility.yul\":503:510   */\n      0x00\n        /* \"#utility.yul\":532:556   */\n      tag_85\n        /* \"#utility.yul\":550:555   */\n      dup3\n        /* \"#utility.yul\":532:556   */\n      tag_54\n      jump\t// in\n    tag_85:\n        /* \"#utility.yul\":521:556   */\n      swap1\n      pop\n        /* \"#utility.yul\":466:562   */\n      swap2\n      swap1\n      pop\n      jump\t// out\n        /* \"#utility.yul\":568:690   */\n    tag_56:\n        /* \"#utility.yul\":641:665   */\n      tag_87\n        /* \"#utility.yul\":659:664   */\n      dup2\n        /* \"#utility.yul\":641:665   */\n      tag_55\n      jump\t// in\n    tag_87:\n        /* \"#utility.yul\":634:639   */\n      dup2\n        /* \"#utility.yul\":631:666   */\n      eq\n        /* \"#utility.yul\":621:684   */\n      tag_88\n      jumpi\n        /* \"#utility.yul\":680:681   */\n      0x00\n        /* \"#utility.yul\":677:678   */\n      dup1\n        /* \"#utility.yul\":670:682   */\n      revert\n        /* \"#utility.yul\":621:684   */\n    tag_88:\n        /* \"#utility.yul\":568:690   */\n      pop\n      jump\t// out\n        /* \"#utility.yul\":696:835   */\n    tag_57:\n        /* \"#utility.yul\":742:747   */\n      0x00\n        /* \"#utility.yul\":780:786   */\n      dup2\n        /* \"#utility.yul\":767:787   */\n      calldataload\n        /* \"#utility.yul\":758:787   */\n      swap1\n      pop\n        /* \"#utility.yul\":796:829   */\n      tag_90\n        /* \"#utility.yul\":823:828   */\n      dup2\n        /* \"#utility.yul\":796:829   */\n      tag_56\n      jump\t// in\n    tag_90:\n        /* \"#utility.yul\":696:835   */\n      swap3\n      swap2\n      pop\n      pop\n      jump\t// out\n        /* \"#utility.yul\":841:918   */\n    tag_58:\n        /* \"#utility.yul\":878:885   */\n      0x00\n        /* \"#utility.yul\":907:912   */\n      dup2\n        /* \"#utility.yul\":896:912   */\n      swap1\n      pop\n        /* \"#utility.yul\":841:918   */\n      swap2\n      swap1\n      pop\n      jump\t// out\n        /* \"#utility.yul\":924:1046   */\n    tag_59:\n        /* \"#utility.yul\":997:1021   */\n      tag_93\n        /* \"#utility.yul\":1015:1020   */\n      dup2\n        /* \"#utility.yul\":997:1021   */\n      tag_58\n      jump\t// in\n    tag_93:\n        /* \"#utility.yul\":990:995   */\n      dup2\n        /* \"#utility.yul\":987:1022   */\n      eq\n        /* \"#utility.yul\":977:1040   */\n      tag_94\n      jumpi\n        /* \"#utility.yul\":1036:1037   */\n      0x00\n        /* \"#utility.yul\":1033:1034   */\n      dup1\n        /* \"#utility.yul\":1026:1038   */\n      revert\n        /* \"#utility.yul\":977:1040   */\n    tag_94:\n        /* \"#utility.yul\":924:1046   */\n      pop\n      jump\t// out\n        /* \"#utility.yul\":1052:1191   */\n    tag_60:\n        /* \"#utility.yul\":1098:1103   */\n      0x00\n        /* \"#utility.yul\":1136:1142   */\n      dup2\n        /* \"#utility.yul\":1123:1143   */\n      calldataload\n        /* \"#utility.yul\":1114:1143   */\n      swap1\n      pop\n        /* \"#utility.yul\":1152:1185   */\n      tag_96\n        /* \"#utility.yul\":1179:1184   */\n      dup2\n        /* \"#utility.yul\":1152:1185   */\n      tag_59\n      jump\t// in\n    tag_96:\n        /* \"#utility.yul\":1052:1191   */\n      swap3\n      swap2\n      pop\n      pop\n      jump\t// out\n        /* \"#utility.yul\":1197:1314   */\n    tag_61:\n        /* \"#utility.yul\":1306:1307   */\n      0x00\n        /* \"#utility.yul\":1303:1304   */\n      dup1\n        /* \"#utility.yul\":1296:1308   */\n      revert\n        /* \"#utility.yul\":1320:1437   */\n    tag_62:\n        /* \"#utility.yul\":1429:1430   */\n      0x00\n        /* \"#utility.yul\":1426:1427   */\n      dup1\n        /* \"#utility.yul\":1419:1431   */\n      revert\n        /* \"#utility.yul\":1443:1560   */\n    tag_63:\n        /* \"#utility.yul\":1552:1553   */\n      0x00\n        /* \"#utility.yul\":1549:1550   */\n      dup1\n        /* \"#utility.yul\":1542:1554   */\n      revert\n        /* \"#utility.yul\":1579:2131   */\n    tag_64:\n        /* \"#utility.yul\":1636:1644   */\n      0x00\n        /* \"#utility.yul\":1646:1652   */\n      dup1\n        /* \"#utility.yul\":1696:1699   */\n      dup4\n        /* \"#utility.yul\":1689:1693   */\n      0x1f\n        /* \"#utility.yul\":1681:1687   */\n      dup5\n        /* \"#utility.yul\":1677:1694   */\n      add\n        /* \"#utility.yul\":1673:1700   */\n      slt\n        /* \"#utility.yul\":1663:1785   */\n      tag_101\n      jumpi\n        /* \"#utility.yul\":1704:1783   */\n      tag_102\n      tag_61\n      jump\t// in\n    tag_102:\n        /* \"#utility.yul\":1663:1785   */\n    tag_101:\n        /* \"#utility.yul\":1817:1823   */\n      dup3\n        /* \"#utility.yul\":1804:1824   */\n      calldataload\n        /* \"#utility.yul\":1794:1824   */\n      swap1\n      pop\n        /* \"#utility.yul\":1847:1865   */\n      0xffffffffffffffff\n        /* \"#utility.yul\":1839:1845   */\n      dup2\n        /* \"#utility.yul\":1836:1866   */\n      gt\n        /* \"#utility.yul\":1833:1950   */\n      iszero\n      tag_103\n      jumpi\n        /* \"#utility.yul\":1869:1948   */\n      tag_104\n      tag_62\n      jump\t// in\n    tag_104:\n        /* \"#utility.yul\":1833:1950   */\n    tag_103:\n        /* \"#utility.yul\":1983:1987   */\n      0x20\n        /* \"#utility.yul\":1975:1981   */\n      dup4\n        /* \"#utility.yul\":1971:1988   */\n      add\n        /* \"#utility.yul\":1959:1988   */\n      swap2\n      pop\n        /* \"#utility.yul\":2037:2040   */\n      dup4\n        /* \"#utility.yul\":2029:2033   */\n      0x01\n        /* \"#utility.yul\":2021:2027   */\n      dup3\n        /* \"#utility.yul\":2017:2034   */\n      mul\n        /* \"#utility.yul\":2007:2015   */\n      dup4\n        /* \"#utility.yul\":2003:2035   */\n      add\n        /* \"#utility.yul\":2000:2041   */\n      gt\n        /* \"#utility.yul\":1997:2125   */\n      iszero\n      tag_105\n      jumpi\n        /* \"#utility.yul\":2044:2123   */\n      tag_106\n      tag_63\n      jump\t// in\n    tag_106:\n        /* \"#utility.yul\":1997:2125   */\n    tag_105:\n        /* \"#utility.yul\":1579:2131   */\n      swap3\n      pop\n      swap3\n      swap1\n      pop\n      jump\t// out\n        /* \"#utility.yul\":2137:3590   */\n    tag_10:\n        /* \"#utility.yul\":2263:2269   */\n      0x00\n        /* \"#utility.yul\":2271:2277   */\n      dup1\n        /* \"#utility.yul\":2279:2285   */\n      0x00\n        /* \"#utility.yul\":2287:2293   */\n      dup1\n        /* \"#utility.yul\":2295:2301   */\n      0x00\n        /* \"#utility.yul\":2303:2309   */\n      dup1\n        /* \"#utility.yul\":2311:2317   */\n      0x00\n        /* \"#utility.yul\":2319:2325   */\n      dup1\n        /* \"#utility.yul\":2368:2371   */\n      0xc0\n        /* \"#utility.yul\":2356:2365   */\n      dup10\n        /* \"#utility.yul\":2347:2354   */\n      dup12\n        /* \"#utility.yul\":2343:2366   */\n      sub\n        /* \"#utility.yul\":2339:2372   */\n      slt\n        /* \"#utility.yul\":2336:2456   */\n      iszero\n      tag_108\n      jumpi\n        /* \"#utility.yul\":2375:2454   */\n      tag_109\n      tag_52\n      jump\t// in\n    tag_109:\n        /* \"#utility.yul\":2336:2456   */\n    tag_108:\n        /* \"#utility.yul\":2495:2496   */\n      0x00\n        /* \"#utility.yul\":2520:2573   */\n      tag_110\n        /* \"#utility.yul\":2565:2572   */\n      dup12\n        /* \"#utility.yul\":2556:2562   */\n      dup3\n        /* \"#utility.yul\":2545:2554   */\n      dup13\n        /* \"#utility.yul\":2541:2563   */\n      add\n        /* \"#utility.yul\":2520:2573   */\n      tag_57\n      jump\t// in\n    tag_110:\n        /* \"#utility.yul\":2510:2573   */\n      swap9\n      pop\n        /* \"#utility.yul\":2466:2583   */\n      pop\n        /* \"#utility.yul\":2622:2624   */\n      0x20\n        /* \"#utility.yul\":2648:2701   */\n      tag_111\n        /* \"#utility.yul\":2693:2700   */\n      dup12\n        /* \"#utility.yul\":2684:2690   */\n      dup3\n        /* \"#utility.yul\":2673:2682   */\n      dup13\n        /* \"#utility.yul\":2669:2691   */\n      add\n        /* \"#utility.yul\":2648:2701   */\n      tag_57\n      jump\t// in\n    tag_111:\n        /* \"#utility.yul\":2638:2701   */\n      swap8\n      pop\n        /* \"#utility.yul\":2593:2711   */\n      pop\n        /* \"#utility.yul\":2750:2752   */\n      0x40\n        /* \"#utility.yul\":2776:2829   */\n      tag_112\n        /* \"#utility.yul\":2821:2828   */\n      dup12\n        /* \"#utility.yul\":2812:2818   */\n      dup3\n        /* \"#utility.yul\":2801:2810   */\n      dup13\n        /* \"#utility.yul\":2797:2819   */\n      add\n        /* \"#utility.yul\":2776:2829   */\n      tag_57\n      jump\t// in\n    tag_112:\n        /* \"#utility.yul\":2766:2829   */\n      swap7\n      pop\n        /* \"#utility.yul\":2721:2839   */\n      pop\n        /* \"#utility.yul\":2878:2880   */\n      0x60\n        /* \"#utility.yul\":2904:2957   */\n      tag_113\n        /* \"#utility.yul\":2949:2956   */\n      dup12\n        /* \"#utility.yul\":2940:2946   */\n      dup3\n        /* \"#utility.yul\":2929:2938   */\n      dup13\n        /* \"#utility.yul\":2925:2947   */\n      add\n        /* \"#utility.yul\":2904:2957   */\n      tag_60\n      jump\t// in\n    tag_113:\n        /* \"#utility.yul\":2894:2957   */\n      swap6\n      pop\n        /* \"#utility.yul\":2849:2967   */\n      pop\n        /* \"#utility.yul\":3034:3037   */\n      0x80\n        /* \"#utility.yul\":3023:3032   */\n      dup10\n        /* \"#utility.yul\":3019:3038   */\n      add\n        /* \"#utility.yul\":3006:3039   */\n      calldataload\n        /* \"#utility.yul\":3066:3084   */\n      0xffffffffffffffff\n        /* \"#utility.yul\":3058:3064   */\n      dup2\n        /* \"#utility.yul\":3055:3085   */\n      gt\n        /* \"#utility.yul\":3052:3169   */\n      iszero\n      tag_114\n      jumpi\n        /* \"#utility.yul\":3088:3167   */\n      tag_115\n      tag_53\n      jump\t// in\n    tag_115:\n        /* \"#utility.yul\":3052:3169   */\n    tag_114:\n        /* \"#utility.yul\":3201:3265   */\n      tag_116\n        /* \"#utility.yul\":3257:3264   */\n      dup12\n        /* \"#utility.yul\":3248:3254   */\n      dup3\n        /* \"#utility.yul\":3237:3246   */\n      dup13\n        /* \"#utility.yul\":3233:3255   */\n      add\n        /* \"#utility.yul\":3201:3265   */\n      tag_64\n      jump\t// in\n    tag_116:\n        /* \"#utility.yul\":3183:3265   */\n      swap5\n      pop\n      swap5\n      pop\n        /* \"#utility.yul\":2977:3275   */\n      pop\n        /* \"#utility.yul\":3342:3345   */\n      0xa0\n        /* \"#utility.yul\":3331:3340   */\n      dup10\n        /* \"#utility.yul\":3327:3346   */\n      add\n        /* \"#utility.yul\":3314:3347   */\n      calldataload\n        /* \"#utility.yul\":3374:3392   */\n      0xffffffffffffffff\n        /* \"#utility.yul\":3366:3372   */\n      dup2\n        /* \"#utility.yul\":3363:3393   */\n      gt\n        /* \"#utility.yul\":3360:3477   */\n      iszero\n      tag_117\n      jumpi\n        /* \"#utility.yul\":3396:3475   */\n      tag_118\n      tag_53\n      jump\t// in\n    tag_118:\n        /* \"#utility.yul\":3360:3477   */\n    tag_117:\n        /* \"#utility.yul\":3509:3573   */\n      tag_119\n        /* \"#utility.yul\":3565:3572   */\n      dup12\n        /* \"#utility.yul\":3556:3562   */\n      dup3\n        /* \"#utility.yul\":3545:3554   */\n      dup13\n        /* \"#utility.yul\":3541:3563   */\n      add\n        /* \"#utility.yul\":3509:3573   */\n      tag_64\n      jump\t// in\n    tag_119:\n        /* \"#utility.yul\":3491:3573   */\n      swap3\n      pop\n      swap3\n      pop\n        /* \"#utility.yul\":3285:3583   */\n      pop\n        /* \"#utility.yul\":2137:3590   */\n      swap3\n      swap6\n      swap9\n      pop\n      swap3\n      swap6\n      swap9\n      swap1\n      swap4\n      swap7\n      pop\n      jump\t// out\n        /* \"#utility.yul\":3596:3925   */\n    tag_19:\n        /* \"#utility.yul\":3655:3661   */\n      0x00\n        /* \"#utility.yul\":3704:3706   */\n      0x20\n        /* \"#utility.yul\":3692:3701   */\n      dup3\n        /* \"#utility.yul\":3683:3690   */\n      dup5\n        /* \"#utility.yul\":3679:3702   */\n      sub\n        /* \"#utility.yul\":3675:3707   */\n      slt\n        /* \"#utility.yul\":3672:3791   */\n      iszero\n      tag_121\n      jumpi\n        /* \"#utility.yul\":3710:3789   */\n      tag_122\n      tag_52\n      jump\t// in\n    tag_122:\n        /* \"#utility.yul\":3672:3791   */\n    tag_121:\n        /* \"#utility.yul\":3830:3831   */\n      0x00\n        /* \"#utility.yul\":3855:3908   */\n      tag_123\n        /* \"#utility.yul\":3900:3907   */\n      dup5\n        /* \"#utility.yul\":3891:3897   */\n      dup3\n        /* \"#utility.yul\":3880:3889   */\n      dup6\n        /* \"#utility.yul\":3876:3898   */\n      add\n        /* \"#utility.yul\":3855:3908   */\n      tag_57\n      jump\t// in\n    tag_123:\n        /* \"#utility.yul\":3845:3908   */\n      swap2\n      pop\n        /* \"#utility.yul\":3801:3918   */\n      pop\n        /* \"#utility.yul\":3596:3925   */\n      swap3\n      swap2\n      pop\n      pop\n      jump\t// out\n        /* \"#utility.yul\":3931:4049   */\n    tag_65:\n        /* \"#utility.yul\":4018:4042   */\n      tag_125\n        /* \"#utility.yul\":4036:4041   */\n      dup2\n        /* \"#utility.yul\":4018:4042   */\n      tag_58\n      jump\t// in\n    tag_125:\n        /* \"#utility.yul\":4013:4016   */\n      dup3\n        /* \"#utility.yul\":4006:4043   */\n      mstore\n        /* \"#utility.yul\":3931:4049   */\n      pop\n      pop\n      jump\t// out\n        /* \"#utility.yul\":4055:4277   */\n    tag_22:\n        /* \"#utility.yul\":4148:4152   */\n      0x00\n        /* \"#utility.yul\":4186:4188   */\n      0x20\n        /* \"#utility.yul\":4175:4184   */\n      dup3\n        /* \"#utility.yul\":4171:4189   */\n      add\n        /* \"#utility.yul\":4163:4189   */\n      swap1\n      pop\n        /* \"#utility.yul\":4199:4270   */\n      tag_127\n        /* \"#utility.yul\":4267:4268   */\n      0x00\n        /* \"#utility.yul\":4256:4265   */\n      dup4\n        /* \"#utility.yul\":4252:4269   */\n      add\n        /* \"#utility.yul\":4243:4249   */\n      dup5\n        /* \"#utility.yul\":4199:4270   */\n      tag_65\n      jump\t// in\n    tag_127:\n        /* \"#utility.yul\":4055:4277   */\n      swap3\n      swap2\n      pop\n      pop\n      jump\t// out\n        /* \"#utility.yul\":4283:4463   */\n    tag_66:\n        /* \"#utility.yul\":4331:4408   */\n      0x4e487b7100000000000000000000000000000000000000000000000000000000\n        /* \"#utility.yul\":4328:4329   */\n      0x00\n        /* \"#utility.yul\":4321:4409   */\n      mstore\n        /* \"#utility.yul\":4428:4432   */\n      0x11\n        /* \"#utility.yul\":4425:4426   */\n      0x04\n        /* \"#utility.yul\":4418:4433   */\n      mstore\n        /* \"#utility.yul\":4452:4456   */\n      0x24\n        /* \"#utility.yul\":4449:4450   */\n      0x00\n        /* \"#utility.yul\":4442:4457   */\n      revert\n        /* \"#utility.yul\":4469:4660   */\n    tag_29:\n        /* \"#utility.yul\":4509:4512   */\n      0x00\n        /* \"#utility.yul\":4528:4548   */\n      tag_130\n        /* \"#utility.yul\":4546:4547   */\n      dup3\n        /* \"#utility.yul\":4528:4548   */\n      tag_58\n      jump\t// in\n    tag_130:\n        /* \"#utility.yul\":4523:4548   */\n      swap2\n      pop\n        /* \"#utility.yul\":4562:4582   */\n      tag_131\n        /* \"#utility.yul\":4580:4581   */\n      dup4\n        /* \"#utility.yul\":4562:4582   */\n      tag_58\n      jump\t// in\n    tag_131:\n        /* \"#utility.yul\":4557:4582   */\n      swap3\n      pop\n        /* \"#utility.yul\":4605:4606   */\n      dup3\n        /* \"#utility.yul\":4602:4603   */\n      dup3\n        /* \"#utility.yul\":4598:4607   */\n      add\n        /* \"#utility.yul\":4591:4607   */\n      swap1\n      pop\n        /* \"#utility.yul\":4626:4629   */\n      dup1\n        /* \"#utility.yul\":4623:4624   */\n      dup3\n        /* \"#utility.yul\":4620:4630   */\n      gt\n        /* \"#utility.yul\":4617:4653   */\n      iszero\n      tag_132\n      jumpi\n        /* \"#utility.yul\":4633:4651   */\n      tag_133\n      tag_66\n      jump\t// in\n    tag_133:\n        /* \"#utility.yul\":4617:4653   */\n    tag_132:\n        /* \"#utility.yul\":4469:4660   */\n      swap3\n      swap2\n      pop\n      pop\n      jump\t// out\n        /* \"#utility.yul\":4666:4835   */\n    tag_67:\n        /* \"#utility.yul\":4750:4761   */\n      0x00\n        /* \"#utility.yul\":4784:4790   */\n      dup3\n        /* \"#utility.yul\":4779:4782   */\n      dup3\n        /* \"#utility.yul\":4772:4791   */\n      mstore\n        /* \"#utility.yul\":4824:4828   */\n      0x20\n        /* \"#utility.yul\":4819:4822   */\n      dup3\n        /* \"#utility.yul\":4815:4829   */\n      add\n        /* \"#utility.yul\":4800:4829   */\n      swap1\n      pop\n        /* \"#utility.yul\":4666:4835   */\n      swap3\n      swap2\n      pop\n      pop\n      jump\t// out\n        /* \"#utility.yul\":4841:5005   */\n    tag_68:\n        /* \"#utility.yul\":4981:4997   */\n      0x746f6b656e207265636569766564000000000000000000000000000000000000\n        /* \"#utility.yul\":4977:4978   */\n      0x00\n        /* \"#utility.yul\":4969:4975   */\n      dup3\n        /* \"#utility.yul\":4965:4979   */\n      add\n        /* \"#utility.yul\":4958:4998   */\n      mstore\n        /* \"#utility.yul\":4841:5005   */\n      pop\n      jump\t// out\n        /* \"#utility.yul\":5011:5377   */\n    tag_69:\n        /* \"#utility.yul\":5153:5156   */\n      0x00\n        /* \"#utility.yul\":5174:5241   */\n      tag_137\n        /* \"#utility.yul\":5238:5240   */\n      0x0e\n        /* \"#utility.yul\":5233:5236   */\n      dup4\n        /* \"#utility.yul\":5174:5241   */\n      tag_67\n      jump\t// in\n    tag_137:\n        /* \"#utility.yul\":5167:5241   */\n      swap2\n      pop\n        /* \"#utility.yul\":5250:5343   */\n      tag_138\n        /* \"#utility.yul\":5339:5342   */\n      dup3\n        /* \"#utility.yul\":5250:5343   */\n      tag_68\n      jump\t// in\n    tag_138:\n        /* \"#utility.yul\":5368:5370   */\n      0x20\n        /* \"#utility.yul\":5363:5366   */\n      dup3\n        /* \"#utility.yul\":5359:5371   */\n      add\n        /* \"#utility.yul\":5352:5371   */\n      swap1\n      pop\n        /* \"#utility.yul\":5011:5377   */\n      swap2\n      swap1\n      pop\n      jump\t// out\n        /* \"#utility.yul\":5383:5912   */\n    tag_31:\n        /* \"#utility.yul\":5577:5581   */\n      0x00\n        /* \"#utility.yul\":5615:5617   */\n      0x40\n        /* \"#utility.yul\":5604:5613   */\n      dup3\n        /* \"#utility.yul\":5600:5618   */\n      add\n        /* \"#utility.yul\":5592:5618   */\n      swap1\n      pop\n        /* \"#utility.yul\":5628:5699   */\n      tag_140\n        /* \"#utility.yul\":5696:5697   */\n      0x00\n        /* \"#utility.yul\":5685:5694   */\n      dup4\n        /* \"#utility.yul\":5681:5698   */\n      add\n        /* \"#utility.yul\":5672:5678   */\n      dup5\n        /* \"#utility.yul\":5628:5699   */\n      tag_65\n      jump\t// in\n    tag_140:\n        /* \"#utility.yul\":5746:5755   */\n      dup2\n        /* \"#utility.yul\":5740:5744   */\n      dup2\n        /* \"#utility.yul\":5736:5756   */\n      sub\n        /* \"#utility.yul\":5731:5733   */\n      0x20\n        /* \"#utility.yul\":5720:5729   */\n      dup4\n        /* \"#utility.yul\":5716:5734   */\n      add\n        /* \"#utility.yul\":5709:5757   */\n      mstore\n        /* \"#utility.yul\":5774:5905   */\n      tag_141\n        /* \"#utility.yul\":5900:5904   */\n      dup2\n        /* \"#utility.yul\":5774:5905   */\n      tag_69\n      jump\t// in\n    tag_141:\n        /* \"#utility.yul\":5766:5905   */\n      swap1\n      pop\n        /* \"#utility.yul\":5383:5912   */\n      swap3\n      swap2\n      pop\n      pop\n      jump\t// out\n        /* \"#utility.yul\":5918:6080   */\n    tag_70:\n        /* \"#utility.yul\":6058:6072   */\n      0x6e6f207065726d6973696f6e0000000000000000000000000000000000000000\n        /* \"#utility.yul\":6054:6055   */\n      0x00\n        /* \"#utility.yul\":6046:6052   */\n      dup3\n        /* \"#utility.yul\":6042:6056   */\n      add\n        /* \"#utility.yul\":6035:6073   */\n      mstore\n        /* \"#utility.yul\":5918:6080   */\n      pop\n      jump\t// out\n        /* \"#utility.yul\":6086:6452   */\n    tag_71:\n        /* \"#utility.yul\":6228:6231   */\n      0x00\n        /* \"#utility.yul\":6249:6316   */\n      tag_144\n        /* \"#utility.yul\":6313:6315   */\n      0x0c\n        /* \"#utility.yul\":6308:6311   */\n      dup4\n        /* \"#utility.yul\":6249:6316   */\n      tag_67\n      jump\t// in\n    tag_144:\n        /* \"#utility.yul\":6242:6316   */\n      swap2\n      pop\n        /* \"#utility.yul\":6325:6418   */\n      tag_145\n        /* \"#utility.yul\":6414:6417   */\n      dup3\n        /* \"#utility.yul\":6325:6418   */\n      tag_70\n      jump\t// in\n    tag_145:\n        /* \"#utility.yul\":6443:6445   */\n      0x20\n        /* \"#utility.yul\":6438:6441   */\n      dup3\n        /* \"#utility.yul\":6434:6446   */\n      add\n        /* \"#utility.yul\":6427:6446   */\n      swap1\n      pop\n        /* \"#utility.yul\":6086:6452   */\n      swap2\n      swap1\n      pop\n      jump\t// out\n        /* \"#utility.yul\":6458:6877   */\n    tag_35:\n        /* \"#utility.yul\":6624:6628   */\n      0x00\n        /* \"#utility.yul\":6662:6664   */\n      0x20\n        /* \"#utility.yul\":6651:6660   */\n      dup3\n        /* \"#utility.yul\":6647:6665   */\n      add\n        /* \"#utility.yul\":6639:6665   */\n      swap1\n      pop\n        /* \"#utility.yul\":6711:6720   */\n      dup2\n        /* \"#utility.yul\":6705:6709   */\n      dup2\n        /* \"#utility.yul\":6701:6721   */\n      sub\n        /* \"#utility.yul\":6697:6698   */\n      0x00\n        /* \"#utility.yul\":6686:6695   */\n      dup4\n        /* \"#utility.yul\":6682:6699   */\n      add\n        /* \"#utility.yul\":6675:6722   */\n      mstore\n        /* \"#utility.yul\":6739:6870   */\n      tag_147\n        /* \"#utility.yul\":6865:6869   */\n      dup2\n        /* \"#utility.yul\":6739:6870   */\n      tag_71\n      jump\t// in\n    tag_147:\n        /* \"#utility.yul\":6731:6870   */\n      swap1\n      pop\n        /* \"#utility.yul\":6458:6877   */\n      swap2\n      swap1\n      pop\n      jump\t// out\n        /* \"#utility.yul\":6883:7001   */\n    tag_72:\n        /* \"#utility.yul\":6970:6994   */\n      tag_149\n        /* \"#utility.yul\":6988:6993   */\n      dup2\n        /* \"#utility.yul\":6970:6994   */\n      tag_55\n      jump\t// in\n    tag_149:\n        /* \"#utility.yul\":6965:6968   */\n      dup3\n        /* \"#utility.yul\":6958:6995   */\n      mstore\n        /* \"#utility.yul\":6883:7001   */\n      pop\n      pop\n      jump\t// out\n        /* \"#utility.yul\":7007:7229   */\n    tag_37:\n        /* \"#utility.yul\":7100:7104   */\n      0x00\n        /* \"#utility.yul\":7138:7140   */\n      0x20\n        /* \"#utility.yul\":7127:7136   */\n      dup3\n        /* \"#utility.yul\":7123:7141   */\n      add\n        /* \"#utility.yul\":7115:7141   */\n      swap1\n      pop\n        /* \"#utility.yul\":7151:7222   */\n      tag_151\n        /* \"#utility.yul\":7219:7220   */\n      0x00\n        /* \"#utility.yul\":7208:7217   */\n      dup4\n        /* \"#utility.yul\":7204:7221   */\n      add\n        /* \"#utility.yul\":7195:7201   */\n      dup5\n        /* \"#utility.yul\":7151:7222   */\n      tag_72\n      jump\t// in\n    tag_151:\n        /* \"#utility.yul\":7007:7229   */\n      swap3\n      swap2\n      pop\n      pop\n      jump\t// out\n        /* \"#utility.yul\":7235:7378   */\n    tag_73:\n        /* \"#utility.yul\":7292:7297   */\n      0x00\n        /* \"#utility.yul\":7323:7329   */\n      dup2\n        /* \"#utility.yul\":7317:7330   */\n      mload\n        /* \"#utility.yul\":7308:7330   */\n      swap1\n      pop\n        /* \"#utility.yul\":7339:7372   */\n      tag_153\n        /* \"#utility.yul\":7366:7371   */\n      dup2\n        /* \"#utility.yul\":7339:7372   */\n      tag_59\n      jump\t// in\n    tag_153:\n        /* \"#utility.yul\":7235:7378   */\n      swap3\n      swap2\n      pop\n      pop\n      jump\t// out\n        /* \"#utility.yul\":7384:7735   */\n    tag_41:\n        /* \"#utility.yul\":7454:7460   */\n      0x00\n        /* \"#utility.yul\":7503:7505   */\n      0x20\n        /* \"#utility.yul\":7491:7500   */\n      dup3\n        /* \"#utility.yul\":7482:7489   */\n      dup5\n        /* \"#utility.yul\":7478:7501   */\n      sub\n        /* \"#utility.yul\":7474:7506   */\n      slt\n        /* \"#utility.yul\":7471:7590   */\n      iszero\n      tag_155\n      jumpi\n        /* \"#utility.yul\":7509:7588   */\n      tag_156\n      tag_52\n      jump\t// in\n    tag_156:\n        /* \"#utility.yul\":7471:7590   */\n    tag_155:\n        /* \"#utility.yul\":7629:7630   */\n      0x00\n        /* \"#utility.yul\":7654:7718   */\n      tag_157\n        /* \"#utility.yul\":7710:7717   */\n      dup5\n        /* \"#utility.yul\":7701:7707   */\n      dup3\n        /* \"#utility.yul\":7690:7699   */\n      dup6\n        /* \"#utility.yul\":7686:7708   */\n      add\n        /* \"#utility.yul\":7654:7718   */\n      tag_73\n      jump\t// in\n    tag_157:\n        /* \"#utility.yul\":7644:7718   */\n      swap2\n      pop\n        /* \"#utility.yul\":7600:7728   */\n      pop\n        /* \"#utility.yul\":7384:7735   */\n      swap3\n      swap2\n      pop\n      pop\n      jump\t// out\n        /* \"#utility.yul\":7741:7909   */\n    tag_74:\n        /* \"#utility.yul\":7824:7835   */\n      0x00\n        /* \"#utility.yul\":7858:7864   */\n      dup3\n        /* \"#utility.yul\":7853:7856   */\n      dup3\n        /* \"#utility.yul\":7846:7865   */\n      mstore\n        /* \"#utility.yul\":7898:7902   */\n      0x20\n        /* \"#utility.yul\":7893:7896   */\n      dup3\n        /* \"#utility.yul\":7889:7903   */\n      add\n        /* \"#utility.yul\":7874:7903   */\n      swap1\n      pop\n        /* \"#utility.yul\":7741:7909   */\n      swap3\n      swap2\n      pop\n      pop\n      jump\t// out\n        /* \"#utility.yul\":7915:8029   */\n    tag_75:\n      pop\n      jump\t// out\n        /* \"#utility.yul\":8035:8397   */\n    tag_76:\n        /* \"#utility.yul\":8176:8179   */\n      0x00\n        /* \"#utility.yul\":8197:8262   */\n      tag_161\n        /* \"#utility.yul\":8260:8261   */\n      0x00\n        /* \"#utility.yul\":8255:8258   */\n      dup4\n        /* \"#utility.yul\":8197:8262   */\n      tag_74\n      jump\t// in\n    tag_161:\n        /* \"#utility.yul\":8190:8262   */\n      swap2\n      pop\n        /* \"#utility.yul\":8271:8364   */\n      tag_162\n        /* \"#utility.yul\":8360:8363   */\n      dup3\n        /* \"#utility.yul\":8271:8364   */\n      tag_75\n      jump\t// in\n    tag_162:\n        /* \"#utility.yul\":8389:8390   */\n      0x00\n        /* \"#utility.yul\":8384:8387   */\n      dup3\n        /* \"#utility.yul\":8380:8391   */\n      add\n        /* \"#utility.yul\":8373:8391   */\n      swap1\n      pop\n        /* \"#utility.yul\":8035:8397   */\n      swap2\n      swap1\n      pop\n      jump\t// out\n        /* \"#utility.yul\":8403:8930   */\n    tag_43:\n        /* \"#utility.yul\":8596:8600   */\n      0x00\n        /* \"#utility.yul\":8634:8636   */\n      0x40\n        /* \"#utility.yul\":8623:8632   */\n      dup3\n        /* \"#utility.yul\":8619:8637   */\n      add\n        /* \"#utility.yul\":8611:8637   */\n      swap1\n      pop\n        /* \"#utility.yul\":8647:8718   */\n      tag_164\n        /* \"#utility.yul\":8715:8716   */\n      0x00\n        /* \"#utility.yul\":8704:8713   */\n      dup4\n        /* \"#utility.yul\":8700:8717   */\n      add\n        /* \"#utility.yul\":8691:8697   */\n      dup5\n        /* \"#utility.yul\":8647:8718   */\n      tag_65\n      jump\t// in\n    tag_164:\n        /* \"#utility.yul\":8765:8774   */\n      dup2\n        /* \"#utility.yul\":8759:8763   */\n      dup2\n        /* \"#utility.yul\":8755:8775   */\n      sub\n        /* \"#utility.yul\":8750:8752   */\n      0x20\n        /* \"#utility.yul\":8739:8748   */\n      dup4\n        /* \"#utility.yul\":8735:8753   */\n      add\n        /* \"#utility.yul\":8728:8776   */\n      mstore\n        /* \"#utility.yul\":8793:8923   */\n      tag_165\n        /* \"#utility.yul\":8918:8922   */\n      dup2\n        /* \"#utility.yul\":8793:8923   */\n      tag_76\n      jump\t// in\n    tag_165:\n        /* \"#utility.yul\":8785:8923   */\n      swap1\n      pop\n        /* \"#utility.yul\":8403:8930   */\n      swap3\n      swap2\n      pop\n      pop\n      jump\t// out\n        /* \"#utility.yul\":8936:9099   */\n    tag_77:\n        /* \"#utility.yul\":9076:9091   */\n      0x746f6b656e20746f2073656e6400000000000000000000000000000000000000\n        /* \"#utility.yul\":9072:9073   */\n      0x00\n        /* \"#utility.yul\":9064:9070   */\n      dup3\n        /* \"#utility.yul\":9060:9074   */\n      add\n        /* \"#utility.yul\":9053:9092   */\n      mstore\n        /* \"#utility.yul\":8936:9099   */\n      pop\n      jump\t// out\n        /* \"#utility.yul\":9105:9471   */\n    tag_78:\n        /* \"#utility.yul\":9247:9250   */\n      0x00\n        /* \"#utility.yul\":9268:9335   */\n      tag_168\n        /* \"#utility.yul\":9332:9334   */\n      0x0d\n        /* \"#utility.yul\":9327:9330   */\n      dup4\n        /* \"#utility.yul\":9268:9335   */\n      tag_67\n      jump\t// in\n    tag_168:\n        /* \"#utility.yul\":9261:9335   */\n      swap2\n      pop\n        /* \"#utility.yul\":9344:9437   */\n      tag_169\n        /* \"#utility.yul\":9433:9436   */\n      dup3\n        /* \"#utility.yul\":9344:9437   */\n      tag_77\n      jump\t// in\n    tag_169:\n        /* \"#utility.yul\":9462:9464   */\n      0x20\n        /* \"#utility.yul\":9457:9460   */\n      dup3\n        /* \"#utility.yul\":9453:9465   */\n      add\n        /* \"#utility.yul\":9446:9465   */\n      swap1\n      pop\n        /* \"#utility.yul\":9105:9471   */\n      swap2\n      swap1\n      pop\n      jump\t// out\n        /* \"#utility.yul\":9477:10006   */\n    tag_49:\n        /* \"#utility.yul\":9671:9675   */\n      0x00\n        /* \"#utility.yul\":9709:9711   */\n      0x40\n        /* \"#utility.yul\":9698:9707   */\n      dup3\n        /* \"#utility.yul\":9694:9712   */\n      add\n        /* \"#utility.yul\":9686:9712   */\n      swap1\n      pop\n        /* \"#utility.yul\":9722:9793   */\n      tag_171\n        /* \"#utility.yul\":9790:9791   */\n      0x00\n        /* \"#utility.yul\":9779:9788   */\n      dup4\n        /* \"#utility.yul\":9775:9792   */\n      add\n        /* \"#utility.yul\":9766:9772   */\n      dup5\n        /* \"#utility.yul\":9722:9793   */\n      tag_65\n      jump\t// in\n    tag_171:\n        /* \"#utility.yul\":9840:9849   */\n      dup2\n        /* \"#utility.yul\":9834:9838   */\n      dup2\n        /* \"#utility.yul\":9830:9850   */\n      sub\n        /* \"#utility.yul\":9825:9827   */\n      0x20\n        /* \"#utility.yul\":9814:9823   */\n      dup4\n        /* \"#utility.yul\":9810:9828   */\n      add\n        /* \"#utility.yul\":9803:9851   */\n      mstore\n        /* \"#utility.yul\":9868:9999   */\n      tag_172\n        /* \"#utility.yul\":9994:9998   */\n      dup2\n        /* \"#utility.yul\":9868:9999   */\n      tag_78\n      jump\t// in\n    tag_172:\n        /* \"#utility.yul\":9860:9999   */\n      swap1\n      pop\n        /* \"#utility.yul\":9477:10006   */\n      swap3\n      swap2\n      pop\n      pop\n      jump\t// out\n\n    auxdata: 0xa2646970667358221220d91ea7eb97eecf18c4dbe89503d7dfc6f25046d48d2effc6be61cf5d2ee12ce164736f6c63430008120033\n}\n",
				"bytecode": {
					"linkReferences": {},
					"object": "60806040523480156200001157600080fd5b5060405162000cb938038062000cb983398181016040528101906200003791906200028c565b731820a4b7618bde71dce8cdc73aab6c95905fad2473ffffffffffffffffffffffffffffffffffffffff166329965a1d307f29ddb589b1fb5fc7cf394961c1adf5f8c6454761adf795e67fe149f658abe895306040518463ffffffff1660e01b8152600401620000aa93929190620002ea565b600060405180830381600087803b158015620000c557600080fd5b505af1158015620000da573d6000803e3d6000fd5b50505050731820a4b7618bde71dce8cdc73aab6c95905fad2473ffffffffffffffffffffffffffffffffffffffff166329965a1d307fb281fc8c12954d22544db45de3159a39272895b169a852b314f9cc762e44c53b306040518463ffffffff1660e01b81526004016200015193929190620002ea565b600060405180830381600087803b1580156200016c57600080fd5b505af115801562000181573d6000803e3d6000fd5b5050505033600160006101000a81548173ffffffffffffffffffffffffffffffffffffffff021916908373ffffffffffffffffffffffffffffffffffffffff16021790555080600260006101000a81548173ffffffffffffffffffffffffffffffffffffffff021916908373ffffffffffffffffffffffffffffffffffffffff1602179055505062000327565b600080fd5b600073ffffffffffffffffffffffffffffffffffffffff82169050919050565b6000620002408262000213565b9050919050565b6000620002548262000233565b9050919050565b620002668162000247565b81146200027257600080fd5b50565b60008151905062000286816200025b565b92915050565b600060208284031215620002a557620002a46200020e565b5b6000620002b58482850162000275565b91505092915050565b620002c98162000233565b82525050565b6000819050919050565b620002e481620002cf565b82525050565b6000606082019050620003016000830186620002be565b620003106020830185620002d9565b6200031f6040830184620002be565b949350505050565b61098280620003376000396000f3fe608060405234801561001057600080fd5b50600436106100565760003560e01c806223de291461005b57806344df8e701461007757806375ab9782146100815780638170eace1461009d578063e89081f8146100cd575b600080fd5b61007560048036038101906100709190610581565b6100fd565b005b61007f6101d8565b005b61009b60048036038101906100969190610581565b610398565b005b6100b760048036038101906100b29190610650565b61041e565b6040516100c4919061068c565b60405180910390f35b6100e760048036038101906100e29190610650565b610466565b6040516100f4919061068c565b60405180910390f35b846000808973ffffffffffffffffffffffffffffffffffffffff1673ffffffffffffffffffffffffffffffffffffffff168152602001908152602001600020600082825461014b91906106d6565b925050819055508573ffffffffffffffffffffffffffffffffffffffff168773ffffffffffffffffffffffffffffffffffffffff168973ffffffffffffffffffffffffffffffffffffffff167f40079291ab55cc19bc58cf71f199a7dbea42e6ae0a5df85085cfd005989882e1886040516101c69190610767565b60405180910390a45050505050505050565b600160009054906101000a900473ffffffffffffffffffffffffffffffffffffffff1673ffffffffffffffffffffffffffffffffffffffff163373ffffffffffffffffffffffffffffffffffffffff1614610268576040517f08c379a000000000000000000000000000000000000000000000000000000000815260040161025f906107e1565b60405180910390fd5b6000600260009054906101000a900473ffffffffffffffffffffffffffffffffffffffff1673ffffffffffffffffffffffffffffffffffffffff166370a08231306040518263ffffffff1660e01b81526004016102c59190610810565b602060405180830381865afa1580156102e2573d6000803e3d6000fd5b505050506040513d601f19601f820116820180604052508101906103069190610840565b9050600260009054906101000a900473ffffffffffffffffffffffffffffffffffffffff1673ffffffffffffffffffffffffffffffffffffffff1663fe9d9303826040518263ffffffff1660e01b815260040161036391906108a4565b600060405180830381600087803b15801561037d57600080fd5b505af1158015610391573d6000803e3d6000fd5b5050505050565b8573ffffffffffffffffffffffffffffffffffffffff168773ffffffffffffffffffffffffffffffffffffffff168973ffffffffffffffffffffffffffffffffffffffff167f76a1164d576fc7c969d03ca591db9973dcf556dea68edfb7cc163fdce887d39b8860405161040c919061091e565b60405180910390a45050505050505050565b60008060008373ffffffffffffffffffffffffffffffffffffffff1673ffffffffffffffffffffffffffffffffffffffff168152602001908152602001600020549050919050565b60006020528060005260406000206000915090505481565b600080fd5b600080fd5b600073ffffffffffffffffffffffffffffffffffffffff82169050919050565b60006104b382610488565b9050919050565b6104c3816104a8565b81146104ce57600080fd5b50565b6000813590506104e0816104ba565b92915050565b6000819050919050565b6104f9816104e6565b811461050457600080fd5b50565b600081359050610516816104f0565b92915050565b600080fd5b600080fd5b600080fd5b60008083601f8401126105415761054061051c565b5b8235905067ffffffffffffffff81111561055e5761055d610521565b5b60208301915083600182028301111561057a57610579610526565b5b9250929050565b60008060008060008060008060c0898b0312156105a1576105a061047e565b5b60006105af8b828c016104d1565b98505060206105c08b828c016104d1565b97505060406105d18b828c016104d1565b96505060606105e28b828c01610507565b955050608089013567ffffffffffffffff81111561060357610602610483565b5b61060f8b828c0161052b565b945094505060a089013567ffffffffffffffff81111561063257610631610483565b5b61063e8b828c0161052b565b92509250509295985092959890939650565b6000602082840312156106665761066561047e565b5b6000610674848285016104d1565b91505092915050565b610686816104e6565b82525050565b60006020820190506106a1600083018461067d565b92915050565b7f4e487b7100000000000000000000000000000000000000000000000000000000600052601160045260246000fd5b60006106e1826104e6565b91506106ec836104e6565b9250828201905080821115610704576107036106a7565b5b92915050565b600082825260208201905092915050565b7f746f6b656e207265636569766564000000000000000000000000000000000000600082015250565b6000610751600e8361070a565b915061075c8261071b565b602082019050919050565b600060408201905061077c600083018461067d565b818103602083015261078d81610744565b905092915050565b7f6e6f207065726d6973696f6e0000000000000000000000000000000000000000600082015250565b60006107cb600c8361070a565b91506107d682610795565b602082019050919050565b600060208201905081810360008301526107fa816107be565b9050919050565b61080a816104a8565b82525050565b60006020820190506108256000830184610801565b92915050565b60008151905061083a816104f0565b92915050565b6000602082840312156108565761085561047e565b5b60006108648482850161082b565b91505092915050565b600082825260208201905092915050565b50565b600061088e60008361086d565b91506108998261087e565b600082019050919050565b60006040820190506108b9600083018461067d565b81810360208301526108ca81610881565b905092915050565b7f746f6b656e20746f2073656e6400000000000000000000000000000000000000600082015250565b6000610908600d8361070a565b9150610913826108d2565b602082019050919050565b6000604082019050610933600083018461067d565b8181036020830152610944816108fb565b90509291505056fea2646970667358221220d91ea7eb97eecf18c4dbe89503d7dfc6f25046d48d2effc6be61cf5d2ee12ce164736f6c63430008120033",
					"opcodes": "PUSH1 0x80 PUSH1 0x40 MSTORE CALLVALUE DUP1 ISZERO PUSH3 0x11 JUMPI PUSH1 0x0 DUP1 REVERT JUMPDEST POP PUSH1 0x40 MLOAD PUSH3 0xCB9 CODESIZE SUB DUP1 PUSH3 0xCB9 DUP4 CODECOPY DUP2 DUP2 ADD PUSH1 0x40 MSTORE DUP2 ADD SWAP1 PUSH3 0x37 SWAP2 SWAP1 PUSH3 0x28C JUMP JUMPDEST PUSH20 0x1820A4B7618BDE71DCE8CDC73AAB6C95905FAD24 PUSH20 0xFFFFFFFFFFFFFFFFFFFFFFFFFFFFFFFFFFFFFFFF AND PUSH4 0x29965A1D ADDRESS PUSH32 0x29DDB589B1FB5FC7CF394961C1ADF5F8C6454761ADF795E67FE149F658ABE895 ADDRESS PUSH1 0x40 MLOAD DUP5 PUSH4 0xFFFFFFFF AND PUSH1 0xE0 SHL DUP2 MSTORE PUSH1 0x4 ADD PUSH3 0xAA SWAP4 SWAP3 SWAP2 SWAP1 PUSH3 0x2EA JUMP JUMPDEST PUSH1 0x0 PUSH1 0x40 MLOAD DUP1 DUP4 SUB DUP2 PUSH1 0x0 DUP8 DUP1 EXTCODESIZE ISZERO DUP1 ISZERO PUSH3 0xC5 JUMPI PUSH1 0x0 DUP1 REVERT JUMPDEST POP GAS CALL ISZERO DUP1 ISZERO PUSH3 0xDA JUMPI RETURNDATASIZE PUSH1 0x0 DUP1 RETURNDATACOPY RETURNDATASIZE PUSH1 0x0 REVERT JUMPDEST POP POP POP POP PUSH20 0x1820A4B7618BDE71DCE8CDC73AAB6C95905FAD24 PUSH20 0xFFFFFFFFFFFFFFFFFFFFFFFFFFFFFFFFFFFFFFFF AND PUSH4 0x29965A1D ADDRESS PUSH32 0xB281FC8C12954D22544DB45DE3159A39272895B169A852B314F9CC762E44C53B ADDRESS PUSH1 0x40 MLOAD DUP5 PUSH4 0xFFFFFFFF AND PUSH1 0xE0 SHL DUP2 MSTORE PUSH1 0x4 ADD PUSH3 0x151 SWAP4 SWAP3 SWAP2 SWAP1 PUSH3 0x2EA JUMP JUMPDEST PUSH1 0x0 PUSH1 0x40 MLOAD DUP1 DUP4 SUB DUP2 PUSH1 0x0 DUP8 DUP1 EXTCODESIZE ISZERO DUP1 ISZERO PUSH3 0x16C JUMPI PUSH1 0x0 DUP1 REVERT JUMPDEST POP GAS CALL ISZERO DUP1 ISZERO PUSH3 0x181 JUMPI RETURNDATASIZE PUSH1 0x0 DUP1 RETURNDATACOPY RETURNDATASIZE PUSH1 0x0 REVERT JUMPDEST POP POP POP POP CALLER PUSH1 0x1 PUSH1 0x0 PUSH2 0x100 EXP DUP2 SLOAD DUP2 PUSH20 0xFFFFFFFFFFFFFFFFFFFFFFFFFFFFFFFFFFFFFFFF MUL NOT AND SWAP1 DUP4 PUSH20 0xFFFFFFFFFFFFFFFFFFFFFFFFFFFFFFFFFFFFFFFF AND MUL OR SWAP1 SSTORE POP DUP1 PUSH1 0x2 PUSH1 0x0 PUSH2 0x100 EXP DUP2 SLOAD DUP2 PUSH20 0xFFFFFFFFFFFFFFFFFFFFFFFFFFFFFFFFFFFFFFFF MUL NOT AND SWAP1 DUP4 PUSH20 0xFFFFFFFFFFFFFFFFFFFFFFFFFFFFFFFFFFFFFFFF AND MUL OR SWAP1 SSTORE POP POP PUSH3 0x327 JUMP JUMPDEST PUSH1 0x0 DUP1 REVERT JUMPDEST PUSH1 0x0 PUSH20 0xFFFFFFFFFFFFFFFFFFFFFFFFFFFFFFFFFFFFFFFF DUP3 AND SWAP1 POP SWAP2 SWAP1 POP JUMP JUMPDEST PUSH1 0x0 PUSH3 0x240 DUP3 PUSH3 0x213 JUMP JUMPDEST SWAP1 POP SWAP2 SWAP1 POP JUMP JUMPDEST PUSH1 0x0 PUSH3 0x254 DUP3 PUSH3 0x233 JUMP JUMPDEST SWAP1 POP SWAP2 SWAP1 POP JUMP JUMPDEST PUSH3 0x266 DUP2 PUSH3 0x247 JUMP JUMPDEST DUP2 EQ PUSH3 0x272 JUMPI PUSH1 0x0 DUP1 REVERT JUMPDEST POP JUMP JUMPDEST PUSH1 0x0 DUP2 MLOAD SWAP1 POP PUSH3 0x286 DUP2 PUSH3 0x25B JUMP JUMPDEST SWAP3 SWAP2 POP POP JUMP JUMPDEST PUSH1 0x0 PUSH1 0x20 DUP3 DUP5 SUB SLT ISZERO PUSH3 0x2A5 JUMPI PUSH3 0x2A4 PUSH3 0x20E JUMP JUMPDEST JUMPDEST PUSH1 0x0 PUSH3 0x2B5 DUP5 DUP3 DUP6 ADD PUSH3 0x275 JUMP JUMPDEST SWAP2 POP POP SWAP3 SWAP2 POP POP JUMP JUMPDEST PUSH3 0x2C9 DUP2 PUSH3 0x233 JUMP JUMPDEST DUP3 MSTORE POP POP JUMP JUMPDEST PUSH1 0x0 DUP2 SWAP1 POP SWAP2 SWAP1 POP JUMP JUMPDEST PUSH3 0x2E4 DUP2 PUSH3 0x2CF JUMP JUMPDEST DUP3 MSTORE POP POP JUMP JUMPDEST PUSH1 0x0 PUSH1 0x60 DUP3 ADD SWAP1 POP PUSH3 0x301 PUSH1 0x0 DUP4 ADD DUP7 PUSH3 0x2BE JUMP JUMPDEST PUSH3 0x310 PUSH1 0x20 DUP4 ADD DUP6 PUSH3 0x2D9 JUMP JUMPDEST PUSH3 0x31F PUSH1 0x40 DUP4 ADD DUP5 PUSH3 0x2BE JUMP JUMPDEST SWAP5 SWAP4 POP POP POP POP JUMP JUMPDEST PUSH2 0x982 DUP1 PUSH3 0x337 PUSH1 0x0 CODECOPY PUSH1 0x0 RETURN INVALID PUSH1 0x80 PUSH1 0x40 MSTORE CALLVALUE DUP1 ISZERO PUSH2 0x10 JUMPI PUSH1 0x0 DUP1 REVERT JUMPDEST POP PUSH1 0x4 CALLDATASIZE LT PUSH2 0x56 JUMPI PUSH1 0x0 CALLDATALOAD PUSH1 0xE0 SHR DUP1 PUSH3 0x23DE29 EQ PUSH2 0x5B JUMPI DUP1 PUSH4 0x44DF8E70 EQ PUSH2 0x77 JUMPI DUP1 PUSH4 0x75AB9782 EQ PUSH2 0x81 JUMPI DUP1 PUSH4 0x8170EACE EQ PUSH2 0x9D JUMPI DUP1 PUSH4 0xE89081F8 EQ PUSH2 0xCD JUMPI JUMPDEST PUSH1 0x0 DUP1 REVERT JUMPDEST PUSH2 0x75 PUSH1 0x4 DUP1 CALLDATASIZE SUB DUP2 ADD SWAP1 PUSH2 0x70 SWAP2 SWAP1 PUSH2 0x581 JUMP JUMPDEST PUSH2 0xFD JUMP JUMPDEST STOP JUMPDEST PUSH2 0x7F PUSH2 0x1D8 JUMP JUMPDEST STOP JUMPDEST PUSH2 0x9B PUSH1 0x4 DUP1 CALLDATASIZE SUB DUP2 ADD SWAP1 PUSH2 0x96 SWAP2 SWAP1 PUSH2 0x581 JUMP JUMPDEST PUSH2 0x398 JUMP JUMPDEST STOP JUMPDEST PUSH2 0xB7 PUSH1 0x4 DUP1 CALLDATASIZE SUB DUP2 ADD SWAP1 PUSH2 0xB2 SWAP2 SWAP1 PUSH2 0x650 JUMP JUMPDEST PUSH2 0x41E JUMP JUMPDEST PUSH1 0x40 MLOAD PUSH2 0xC4 SWAP2 SWAP1 PUSH2 0x68C JUMP JUMPDEST PUSH1 0x40 MLOAD DUP1 SWAP2 SUB SWAP1 RETURN JUMPDEST PUSH2 0xE7 PUSH1 0x4 DUP1 CALLDATASIZE SUB DUP2 ADD SWAP1 PUSH2 0xE2 SWAP2 SWAP1 PUSH2 0x650 JUMP JUMPDEST PUSH2 0x466 JUMP JUMPDEST PUSH1 0x40 MLOAD PUSH2 0xF4 SWAP2 SWAP1 PUSH2 0x68C JUMP JUMPDEST PUSH1 0x40 MLOAD DUP1 SWAP2 SUB SWAP1 RETURN JUMPDEST DUP5 PUSH1 0x0 DUP1 DUP10 PUSH20 0xFFFFFFFFFFFFFFFFFFFFFFFFFFFFFFFFFFFFFFFF AND PUSH20 0xFFFFFFFFFFFFFFFFFFFFFFFFFFFFFFFFFFFFFFFF AND DUP2 MSTORE PUSH1 0x20 ADD SWAP1 DUP2 MSTORE PUSH1 0x20 ADD PUSH1 0x0 KECCAK256 PUSH1 0x0 DUP3 DUP3 SLOAD PUSH2 0x14B SWAP2 SWAP1 PUSH2 0x6D6 JUMP JUMPDEST SWAP3 POP POP DUP2 SWAP1 SSTORE POP DUP6 PUSH20 0xFFFFFFFFFFFFFFFFFFFFFFFFFFFFFFFFFFFFFFFF AND DUP8 PUSH20 0xFFFFFFFFFFFFFFFFFFFFFFFFFFFFFFFFFFFFFFFF AND DUP10 PUSH20 0xFFFFFFFFFFFFFFFFFFFFFFFFFFFFFFFFFFFFFFFF AND PUSH32 0x40079291AB55CC19BC58CF71F199A7DBEA42E6AE0A5DF85085CFD005989882E1 DUP9 PUSH1 0x40 MLOAD PUSH2 0x1C6 SWAP2 SWAP1 PUSH2 0x767 JUMP JUMPDEST PUSH1 0x40 MLOAD DUP1 SWAP2 SUB SWAP1 LOG4 POP POP POP POP POP POP POP POP JUMP JUMPDEST PUSH1 0x1 PUSH1 0x0 SWAP1 SLOAD SWAP1 PUSH2 0x100 EXP SWAP1 DIV PUSH20 0xFFFFFFFFFFFFFFFFFFFFFFFFFFFFFFFFFFFFFFFF AND PUSH20 0xFFFFFFFFFFFFFFFFFFFFFFFFFFFFFFFFFFFFFFFF AND CALLER PUSH20 0xFFFFFFFFFFFFFFFFFFFFFFFFFFFFFFFFFFFFFFFF AND EQ PUSH2 0x268 JUMPI PUSH1 0x40 MLOAD PUSH32 0x8C379A000000000000000000000000000000000000000000000000000000000 DUP2 MSTORE PUSH1 0x4 ADD PUSH2 0x25F SWAP1 PUSH2 0x7E1 JUMP JUMPDEST PUSH1 0x40 MLOAD DUP1 SWAP2 SUB SWAP1 REVERT JUMPDEST PUSH1 0x0 PUSH1 0x2 PUSH1 0x0 SWAP1 SLOAD SWAP1 PUSH2 0x100 EXP SWAP1 DIV PUSH20 0xFFFFFFFFFFFFFFFFFFFFFFFFFFFFFFFFFFFFFFFF AND PUSH20 0xFFFFFFFFFFFFFFFFFFFFFFFFFFFFFFFFFFFFFFFF AND PUSH4 0x70A08231 ADDRESS PUSH1 0x40 MLOAD DUP3 PUSH4 0xFFFFFFFF AND PUSH1 0xE0 SHL DUP2 MSTORE PUSH1 0x4 ADD PUSH2 0x2C5 SWAP2 SWAP1 PUSH2 0x810 JUMP JUMPDEST PUSH1 0x20 PUSH1 0x40 MLOAD DUP1 DUP4 SUB DUP2 DUP7 GAS STATICCALL ISZERO DUP1 ISZERO PUSH2 0x2E2 JUMPI RETURNDATASIZE PUSH1 0x0 DUP1 RETURNDATACOPY RETURNDATASIZE PUSH1 0x0 REVERT JUMPDEST POP POP POP POP PUSH1 0x40 MLOAD RETURNDATASIZE PUSH1 0x1F NOT PUSH1 0x1F DUP3 ADD AND DUP3 ADD DUP1 PUSH1 0x40 MSTORE POP DUP2 ADD SWAP1 PUSH2 0x306 SWAP2 SWAP1 PUSH2 0x840 JUMP JUMPDEST SWAP1 POP PUSH1 0x2 PUSH1 0x0 SWAP1 SLOAD SWAP1 PUSH2 0x100 EXP SWAP1 DIV PUSH20 0xFFFFFFFFFFFFFFFFFFFFFFFFFFFFFFFFFFFFFFFF AND PUSH20 0xFFFFFFFFFFFFFFFFFFFFFFFFFFFFFFFFFFFFFFFF AND PUSH4 0xFE9D9303 DUP3 PUSH1 0x40 MLOAD DUP3 PUSH4 0xFFFFFFFF AND PUSH1 0xE0 SHL DUP2 MSTORE PUSH1 0x4 ADD PUSH2 0x363 SWAP2 SWAP1 PUSH2 0x8A4 JUMP JUMPDEST PUSH1 0x0 PUSH1 0x40 MLOAD DUP1 DUP4 SUB DUP2 PUSH1 0x0 DUP8 DUP1 EXTCODESIZE ISZERO DUP1 ISZERO PUSH2 0x37D JUMPI PUSH1 0x0 DUP1 REVERT JUMPDEST POP GAS CALL ISZERO DUP1 ISZERO PUSH2 0x391 JUMPI RETURNDATASIZE PUSH1 0x0 DUP1 RETURNDATACOPY RETURNDATASIZE PUSH1 0x0 REVERT JUMPDEST POP POP POP POP POP JUMP JUMPDEST DUP6 PUSH20 0xFFFFFFFFFFFFFFFFFFFFFFFFFFFFFFFFFFFFFFFF AND DUP8 PUSH20 0xFFFFFFFFFFFFFFFFFFFFFFFFFFFFFFFFFFFFFFFF AND DUP10 PUSH20 0xFFFFFFFFFFFFFFFFFFFFFFFFFFFFFFFFFFFFFFFF AND PUSH32 0x76A1164D576FC7C969D03CA591DB9973DCF556DEA68EDFB7CC163FDCE887D39B DUP9 PUSH1 0x40 MLOAD PUSH2 0x40C SWAP2 SWAP1 PUSH2 0x91E JUMP JUMPDEST PUSH1 0x40 MLOAD DUP1 SWAP2 SUB SWAP1 LOG4 POP POP POP POP POP POP POP POP JUMP JUMPDEST PUSH1 0x0 DUP1 PUSH1 0x0 DUP4 PUSH20 0xFFFFFFFFFFFFFFFFFFFFFFFFFFFFFFFFFFFFFFFF AND PUSH20 0xFFFFFFFFFFFFFFFFFFFFFFFFFFFFFFFFFFFFFFFF AND DUP2 MSTORE PUSH1 0x20 ADD SWAP1 DUP2 MSTORE PUSH1 0x20 ADD PUSH1 0x0 KECCAK256 SLOAD SWAP1 POP SWAP2 SWAP1 POP JUMP JUMPDEST PUSH1 0x0 PUSH1 0x20 MSTORE DUP1 PUSH1 0x0 MSTORE PUSH1 0x40 PUSH1 0x0 KECCAK256 PUSH1 0x0 SWAP2 POP SWAP1 POP SLOAD DUP2 JUMP JUMPDEST PUSH1 0x0 DUP1 REVERT JUMPDEST PUSH1 0x0 DUP1 REVERT JUMPDEST PUSH1 0x0 PUSH20 0xFFFFFFFFFFFFFFFFFFFFFFFFFFFFFFFFFFFFFFFF DUP3 AND SWAP1 POP SWAP2 SWAP1 POP JUMP JUMPDEST PUSH1 0x0 PUSH2 0x4B3 DUP3 PUSH2 0x488 JUMP JUMPDEST SWAP1 POP SWAP2 SWAP1 POP JUMP JUMPDEST PUSH2 0x4C3 DUP2 PUSH2 0x4A8 JUMP JUMPDEST DUP2 EQ PUSH2 0x4CE JUMPI PUSH1 0x0 DUP1 REVERT JUMPDEST POP JUMP JUMPDEST PUSH1 0x0 DUP2 CALLDATALOAD SWAP1 POP PUSH2 0x4E0 DUP2 PUSH2 0x4BA JUMP JUMPDEST SWAP3 SWAP2 POP POP JUMP JUMPDEST PUSH1 0x0 DUP2 SWAP1 POP SWAP2 SWAP1 POP JUMP JUMPDEST PUSH2 0x4F9 DUP2 PUSH2 0x4E6 JUMP JUMPDEST DUP2 EQ PUSH2 0x504 JUMPI PUSH1 0x0 DUP1 REVERT JUMPDEST POP JUMP JUMPDEST PUSH1 0x0 DUP2 CALLDATALOAD SWAP1 POP PUSH2 0x516 DUP2 PUSH2 0x4F0 JUMP JUMPDEST SWAP3 SWAP2 POP POP JUMP JUMPDEST PUSH1 0x0 DUP1 REVERT JUMPDEST PUSH1 0x0 DUP1 REVERT JUMPDEST PUSH1 0x0 DUP1 REVERT JUMPDEST PUSH1 0x0 DUP1 DUP4 PUSH1 0x1F DUP5 ADD SLT PUSH2 0x541 JUMPI PUSH2 0x540 PUSH2 0x51C JUMP JUMPDEST JUMPDEST DUP3 CALLDATALOAD SWAP1 POP PUSH8 0xFFFFFFFFFFFFFFFF DUP2 GT ISZERO PUSH2 0x55E JUMPI PUSH2 0x55D PUSH2 0x521 JUMP JUMPDEST JUMPDEST PUSH1 0x20 DUP4 ADD SWAP2 POP DUP4 PUSH1 0x1 DUP3 MUL DUP4 ADD GT ISZERO PUSH2 0x57A JUMPI PUSH2 0x579 PUSH2 0x526 JUMP JUMPDEST JUMPDEST SWAP3 POP SWAP3 SWAP1 POP JUMP JUMPDEST PUSH1 0x0 DUP1 PUSH1 0x0 DUP1 PUSH1 0x0 DUP1 PUSH1 0x0 DUP1 PUSH1 0xC0 DUP10 DUP12 SUB SLT ISZERO PUSH2 0x5A1 JUMPI PUSH2 0x5A0 PUSH2 0x47E JUMP JUMPDEST JUMPDEST PUSH1 0x0 PUSH2 0x5AF DUP12 DUP3 DUP13 ADD PUSH2 0x4D1 JUMP JUMPDEST SWAP9 POP POP PUSH1 0x20 PUSH2 0x5C0 DUP12 DUP3 DUP13 ADD PUSH2 0x4D1 JUMP JUMPDEST SWAP8 POP POP PUSH1 0x40 PUSH2 0x5D1 DUP12 DUP3 DUP13 ADD PUSH2 0x4D1 JUMP JUMPDEST SWAP7 POP POP PUSH1 0x60 PUSH2 0x5E2 DUP12 DUP3 DUP13 ADD PUSH2 0x507 JUMP JUMPDEST SWAP6 POP POP PUSH1 0x80 DUP10 ADD CALLDATALOAD PUSH8 0xFFFFFFFFFFFFFFFF DUP2 GT ISZERO PUSH2 0x603 JUMPI PUSH2 0x602 PUSH2 0x483 JUMP JUMPDEST JUMPDEST PUSH2 0x60F DUP12 DUP3 DUP13 ADD PUSH2 0x52B JUMP JUMPDEST SWAP5 POP SWAP5 POP POP PUSH1 0xA0 DUP10 ADD CALLDATALOAD PUSH8 0xFFFFFFFFFFFFFFFF DUP2 GT ISZERO PUSH2 0x632 JUMPI PUSH2 0x631 PUSH2 0x483 JUMP JUMPDEST JUMPDEST PUSH2 0x63E DUP12 DUP3 DUP13 ADD PUSH2 0x52B JUMP JUMPDEST SWAP3 POP SWAP3 POP POP SWAP3 SWAP6 SWAP9 POP SWAP3 SWAP6 SWAP9 SWAP1 SWAP4 SWAP7 POP JUMP JUMPDEST PUSH1 0x0 PUSH1 0x20 DUP3 DUP5 SUB SLT ISZERO PUSH2 0x666 JUMPI PUSH2 0x665 PUSH2 0x47E JUMP JUMPDEST JUMPDEST PUSH1 0x0 PUSH2 0x674 DUP5 DUP3 DUP6 ADD PUSH2 0x4D1 JUMP JUMPDEST SWAP2 POP POP SWAP3 SWAP2 POP POP JUMP JUMPDEST PUSH2 0x686 DUP2 PUSH2 0x4E6 JUMP JUMPDEST DUP3 MSTORE POP POP JUMP JUMPDEST PUSH1 0x0 PUSH1 0x20 DUP3 ADD SWAP1 POP PUSH2 0x6A1 PUSH1 0x0 DUP4 ADD DUP5 PUSH2 0x67D JUMP JUMPDEST SWAP3 SWAP2 POP POP JUMP JUMPDEST PUSH32 0x4E487B7100000000000000000000000000000000000000000000000000000000 PUSH1 0x0 MSTORE PUSH1 0x11 PUSH1 0x4 MSTORE PUSH1 0x24 PUSH1 0x0 REVERT JUMPDEST PUSH1 0x0 PUSH2 0x6E1 DUP3 PUSH2 0x4E6 JUMP JUMPDEST SWAP2 POP PUSH2 0x6EC DUP4 PUSH2 0x4E6 JUMP JUMPDEST SWAP3 POP DUP3 DUP3 ADD SWAP1 POP DUP1 DUP3 GT ISZERO PUSH2 0x704 JUMPI PUSH2 0x703 PUSH2 0x6A7 JUMP JUMPDEST JUMPDEST SWAP3 SWAP2 POP POP JUMP JUMPDEST PUSH1 0x0 DUP3 DUP3 MSTORE PUSH1 0x20 DUP3 ADD SWAP1 POP SWAP3 SWAP2 POP POP JUMP JUMPDEST PUSH32 0x746F6B656E207265636569766564000000000000000000000000000000000000 PUSH1 0x0 DUP3 ADD MSTORE POP JUMP JUMPDEST PUSH1 0x0 PUSH2 0x751 PUSH1 0xE DUP4 PUSH2 0x70A JUMP JUMPDEST SWAP2 POP PUSH2 0x75C DUP3 PUSH2 0x71B JUMP JUMPDEST PUSH1 0x20 DUP3 ADD SWAP1 POP SWAP2 SWAP1 POP JUMP JUMPDEST PUSH1 0x0 PUSH1 0x40 DUP3 ADD SWAP1 POP PUSH2 0x77C PUSH1 0x0 DUP4 ADD DUP5 PUSH2 0x67D JUMP JUMPDEST DUP2 DUP2 SUB PUSH1 0x20 DUP4 ADD MSTORE PUSH2 0x78D DUP2 PUSH2 0x744 JUMP JUMPDEST SWAP1 POP SWAP3 SWAP2 POP POP JUMP JUMPDEST PUSH32 0x6E6F207065726D6973696F6E0000000000000000000000000000000000000000 PUSH1 0x0 DUP3 ADD MSTORE POP JUMP JUMPDEST PUSH1 0x0 PUSH2 0x7CB PUSH1 0xC DUP4 PUSH2 0x70A JUMP JUMPDEST SWAP2 POP PUSH2 0x7D6 DUP3 PUSH2 0x795 JUMP JUMPDEST PUSH1 0x20 DUP3 ADD SWAP1 POP SWAP2 SWAP1 POP JUMP JUMPDEST PUSH1 0x0 PUSH1 0x20 DUP3 ADD SWAP1 POP DUP2 DUP2 SUB PUSH1 0x0 DUP4 ADD MSTORE PUSH2 0x7FA DUP2 PUSH2 0x7BE JUMP JUMPDEST SWAP1 POP SWAP2 SWAP1 POP JUMP JUMPDEST PUSH2 0x80A DUP2 PUSH2 0x4A8 JUMP JUMPDEST DUP3 MSTORE POP POP JUMP JUMPDEST PUSH1 0x0 PUSH1 0x20 DUP3 ADD SWAP1 POP PUSH2 0x825 PUSH1 0x0 DUP4 ADD DUP5 PUSH2 0x801 JUMP JUMPDEST SWAP3 SWAP2 POP POP JUMP JUMPDEST PUSH1 0x0 DUP2 MLOAD SWAP1 POP PUSH2 0x83A DUP2 PUSH2 0x4F0 JUMP JUMPDEST SWAP3 SWAP2 POP POP JUMP JUMPDEST PUSH1 0x0 PUSH1 0x20 DUP3 DUP5 SUB SLT ISZERO PUSH2 0x856 JUMPI PUSH2 0x855 PUSH2 0x47E JUMP JUMPDEST JUMPDEST PUSH1 0x0 PUSH2 0x864 DUP5 DUP3 DUP6 ADD PUSH2 0x82B JUMP JUMPDEST SWAP2 POP POP SWAP3 SWAP2 POP POP JUMP JUMPDEST PUSH1 0x0 DUP3 DUP3 MSTORE PUSH1 0x20 DUP3 ADD SWAP1 POP SWAP3 SWAP2 POP POP JUMP JUMPDEST POP JUMP JUMPDEST PUSH1 0x0 PUSH2 0x88E PUSH1 0x0 DUP4 PUSH2 0x86D JUMP JUMPDEST SWAP2 POP PUSH2 0x899 DUP3 PUSH2 0x87E JUMP JUMPDEST PUSH1 0x0 DUP3 ADD SWAP1 POP SWAP2 SWAP1 POP JUMP JUMPDEST PUSH1 0x0 PUSH1 0x40 DUP3 ADD SWAP1 POP PUSH2 0x8B9 PUSH1 0x0 DUP4 ADD DUP5 PUSH2 0x67D JUMP JUMPDEST DUP2 DUP2 SUB PUSH1 0x20 DUP4 ADD MSTORE PUSH2 0x8CA DUP2 PUSH2 0x881 JUMP JUMPDEST SWAP1 POP SWAP3 SWAP2 POP POP JUMP JUMPDEST PUSH32 0x746F6B656E20746F2073656E6400000000000000000000000000000000000000 PUSH1 0x0 DUP3 ADD MSTORE POP JUMP JUMPDEST PUSH1 0x0 PUSH2 0x908 PUSH1 0xD DUP4 PUSH2 0x70A JUMP JUMPDEST SWAP2 POP PUSH2 0x913 DUP3 PUSH2 0x8D2 JUMP JUMPDEST PUSH1 0x20 DUP3 ADD SWAP1 POP SWAP2 SWAP1 POP JUMP JUMPDEST PUSH1 0x0 PUSH1 0x40 DUP3 ADD SWAP1 POP PUSH2 0x933 PUSH1 0x0 DUP4 ADD DUP5 PUSH2 0x67D JUMP JUMPDEST DUP2 DUP2 SUB PUSH1 0x20 DUP4 ADD MSTORE PUSH2 0x944 DUP2 PUSH2 0x8FB JUMP JUMPDEST SWAP1 POP SWAP3 SWAP2 POP POP JUMP INVALID LOG2 PUSH5 0x6970667358 0x22 SLT KECCAK256 0xD9 0x1E 0xA7 0xEB SWAP8 0xEE 0xCF XOR 0xC4 0xDB 0xE8 SWAP6 SUB 0xD7 0xDF 0xC6 CALLCODE POP CHAINID 0xD4 DUP14 0x2E SELFDESTRUCT 0xC6 0xBE PUSH2 0xCF5D 0x2E 0xE1 0x2C 0xE1 PUSH5 0x736F6C6343 STOP ADDMOD SLT STOP CALLER "
				},
				"gasEstimates": {
					"creation": {
						"codeDepositCost": "486800",
						"executionCost": "infinite",
						"totalCost": "infinite"
					},
					"external": {
						"burn()": "infinite",
						"givers(address)": "2880",
						"showGive(address)": "2885",
						"tokensReceived(address,address,address,uint256,bytes,bytes)": "infinite",
						"tokensToSend(address,address,address,uint256,bytes,bytes)": "infinite"
					}
				},
				"methodIdentifiers": {
					"burn()": "44df8e70",
					"givers(address)": "e89081f8",
					"showGive(address)": "8170eace",
					"tokensReceived(address,address,address,uint256,bytes,bytes)": "0023de29",
					"tokensToSend(address,address,address,uint256,bytes,bytes)": "75ab9782"
				}
			},
			"storageLayout": {
				"storage": [
					{
						"astId": 330,
						"contract": "use_erc777_token_example.sol:ReceiveAndBurn",
						"label": "givers",
						"offset": 0,
						"slot": "0",
						"type": "t_mapping(t_address,t_uint256)"
					},
					{
						"astId": 332,
						"contract": "use_erc777_token_example.sol:ReceiveAndBurn",
						"label": "_owner",
						"offset": 0,
						"slot": "1",
						"type": "t_address"
					},
					{
						"astId": 335,
						"contract": "use_erc777_token_example.sol:ReceiveAndBurn",
						"label": "_token",
						"offset": 0,
						"slot": "2",
						"type": "t_contract(IERC777)162"
					}
				],
				"types": {
					"t_address": {
						"encoding": "inplace",
						"label": "address",
						"numberOfBytes": "20"
					},
					"t_contract(IERC777)162": {
						"encoding": "inplace",
						"label": "contract IERC777",
						"numberOfBytes": "20"
					},
					"t_mapping(t_address,t_uint256)": {
						"encoding": "mapping",
						"key": "t_address",
						"label": "mapping(address => uint256)",
						"numberOfBytes": "32",
						"value": "t_uint256"
					},
					"t_uint256": {
						"encoding": "inplace",
						"label": "uint256",
						"numberOfBytes": "32"
					}
				}
			},
			"userdoc": {
				"kind": "user",
				"methods": {},
				"version": 1
			}
		}
	}
}