{
	"degen/DegenTicketPrice.sol": {
		"DegenTicketPrice": {
			"abi": [
				{
					"inputs": [
						{
							"internalType": "uint256",
							"name": "ith",
							"type": "uint256"
						}
					],
					"name": "ticketPrice",
					"outputs": [
						{
							"internalType": "uint256",
							"name": "result",
							"type": "uint256"
						}
					],
					"stateMutability": "pure",
					"type": "function"
				}
			],
			"devdoc": {
				"kind": "dev",
				"methods": {},
				"version": 1
			},
			"evm": {
				"assembly": "    /* \"degen/DegenTicketPrice.sol\":123:1539  library DegenTicketPrice {... */\n  dataSize(sub_0)\n  dataOffset(sub_0)\n  0x0b\n  dup3\n  dup3\n  dup3\n  codecopy\n  dup1\n  mload\n  0x00\n  byte\n  0x73\n  eq\n  tag_1\n  jumpi\n  mstore(0x00, 0x4e487b7100000000000000000000000000000000000000000000000000000000)\n  mstore(0x04, 0x00)\n  revert(0x00, 0x24)\ntag_1:\n  mstore(0x00, address)\n  0x73\n  dup2\n  mstore8\n  dup3\n  dup2\n  return\nstop\n\nsub_0: assembly {\n        /* \"degen/DegenTicketPrice.sol\":123:1539  library DegenTicketPrice {... */\n      eq(address, deployTimeAddress())\n      mstore(0x40, 0x80)\n      jumpi(tag_1, lt(calldatasize, 0x04))\n      shr(0xe0, calldataload(0x00))\n      dup1\n      0x0d93e609\n      eq\n      tag_2\n      jumpi\n    tag_1:\n      0x00\n      dup1\n      revert\n        /* \"degen/DegenTicketPrice.sol\":435:1536  function ticketPrice(uint256 ith) public pure returns (uint256 result) {... */\n    tag_2:\n      tag_3\n      0x04\n      dup1\n      calldatasize\n      sub\n      dup2\n      add\n      swap1\n      tag_4\n      swap2\n      swap1\n      tag_5\n      jump\t// in\n    tag_4:\n      tag_6\n      jump\t// in\n    tag_3:\n      mload(0x40)\n      tag_7\n      swap2\n      swap1\n      tag_8\n      jump\t// in\n    tag_7:\n      mload(0x40)\n      dup1\n      swap2\n      sub\n      swap1\n      return\n    tag_6:\n        /* \"degen/DegenTicketPrice.sol\":490:504  uint256 result */\n      0x00\n        /* \"degen/DegenTicketPrice.sol\":535:536  5 */\n      0x05\n        /* \"degen/DegenTicketPrice.sol\":189:190  2 */\n      0x02\n        /* \"degen/DegenTicketPrice.sol\":525:536  _alpha <= 5 */\n      gt\n      iszero\n        /* \"degen/DegenTicketPrice.sol\":517:575  require(_alpha <= 5, \"To avoid overflow, alpha <= 5 only\") */\n      tag_10\n      jumpi\n      mload(0x40)\n      0x08c379a000000000000000000000000000000000000000000000000000000000\n      dup2\n      mstore\n      0x04\n      add\n      tag_11\n      swap1\n      tag_12\n      jump\t// in\n    tag_11:\n      mload(0x40)\n      dup1\n      swap2\n      sub\n      swap1\n      revert\n    tag_10:\n        /* \"degen/DegenTicketPrice.sol\":588:597  bool flag */\n      0x00\n        /* \"degen/DegenTicketPrice.sol\":600:604  true */\n      0x01\n        /* \"degen/DegenTicketPrice.sol\":588:604  bool flag = true */\n      swap1\n      pop\n        /* \"degen/DegenTicketPrice.sol\":615:625  uint256 tp */\n      0x00\n        /* \"degen/DegenTicketPrice.sol\":628:629  1 */\n      0x01\n        /* \"degen/DegenTicketPrice.sol\":615:629  uint256 tp = 1 */\n      swap1\n      pop\n        /* \"degen/DegenTicketPrice.sol\":655:661  uint i */\n      0x00\n        /* \"degen/DegenTicketPrice.sol\":650:842  for (uint i=0; i < _alpha; i++) {... */\n    tag_13:\n        /* \"degen/DegenTicketPrice.sol\":189:190  2 */\n      0x02\n        /* \"degen/DegenTicketPrice.sol\":665:666  i */\n      dup2\n        /* \"degen/DegenTicketPrice.sol\":665:675  i < _alpha */\n      lt\n        /* \"degen/DegenTicketPrice.sol\":650:842  for (uint i=0; i < _alpha; i++) {... */\n      iszero\n      tag_14\n      jumpi\n        /* \"degen/DegenTicketPrice.sol\":710:734  SafeMath.tryMul(tp, ith) */\n      tag_16\n        /* \"degen/DegenTicketPrice.sol\":726:728  tp */\n      dup3\n        /* \"degen/DegenTicketPrice.sol\":730:733  ith */\n      dup7\n        /* \"degen/DegenTicketPrice.sol\":710:725  SafeMath.tryMul */\n      tag_17\n        /* \"degen/DegenTicketPrice.sol\":710:734  SafeMath.tryMul(tp, ith) */\n      jump\t// in\n    tag_16:\n        /* \"degen/DegenTicketPrice.sol\":697:734  (flag, tp) = SafeMath.tryMul(tp, ith) */\n      dup1\n      swap4\n      pop\n      dup2\n      swap5\n      pop\n      pop\n      pop\n        /* \"degen/DegenTicketPrice.sol\":757:761  flag */\n      dup3\n        /* \"degen/DegenTicketPrice.sol\":749:830  require(flag, \"Number overflow occurs when calculate ticket price in i**_alpha.\") */\n      tag_18\n      jumpi\n      mload(0x40)\n      0x08c379a000000000000000000000000000000000000000000000000000000000\n      dup2\n      mstore\n      0x04\n      add\n      tag_19\n      swap1\n      tag_20\n      jump\t// in\n    tag_19:\n      mload(0x40)\n      dup1\n      swap2\n      sub\n      swap1\n      revert\n    tag_18:\n        /* \"degen/DegenTicketPrice.sol\":677:680  i++ */\n      dup1\n      dup1\n      tag_21\n      swap1\n      tag_22\n      jump\t// in\n    tag_21:\n      swap2\n      pop\n      pop\n        /* \"degen/DegenTicketPrice.sol\":650:842  for (uint i=0; i < _alpha; i++) {... */\n      jump(tag_13)\n    tag_14:\n      pop\n        /* \"degen/DegenTicketPrice.sol\":867:893  SafeMath.tryMul(tp, _beta) */\n      tag_23\n        /* \"degen/DegenTicketPrice.sol\":883:885  tp */\n      dup2\n        /* \"degen/DegenTicketPrice.sol\":230:233  100 */\n      0x64\n        /* \"degen/DegenTicketPrice.sol\":867:882  SafeMath.tryMul */\n      tag_17\n        /* \"degen/DegenTicketPrice.sol\":867:893  SafeMath.tryMul(tp, _beta) */\n      jump\t// in\n    tag_23:\n        /* \"degen/DegenTicketPrice.sol\":854:893  (flag, tp) = SafeMath.tryMul(tp, _beta) */\n      dup1\n      swap3\n      pop\n      dup2\n      swap4\n      pop\n      pop\n      pop\n        /* \"degen/DegenTicketPrice.sol\":912:916  flag */\n      dup2\n        /* \"degen/DegenTicketPrice.sol\":904:991  require(flag, \"Number overflow occurs when calculate ticket price in _beta*i**_alpha.\") */\n      tag_24\n      jumpi\n      mload(0x40)\n      0x08c379a000000000000000000000000000000000000000000000000000000000\n      dup2\n      mstore\n      0x04\n      add\n      tag_25\n      swap1\n      tag_26\n      jump\t// in\n    tag_25:\n      mload(0x40)\n      dup1\n      swap2\n      sub\n      swap1\n      revert\n    tag_24:\n        /* \"degen/DegenTicketPrice.sol\":1017:1050  SafeMath.tryDiv(tp, _denominator) */\n      tag_27\n        /* \"degen/DegenTicketPrice.sol\":1033:1035  tp */\n      dup2\n        /* \"degen/DegenTicketPrice.sol\":422:426  1000 */\n      0x03e8\n        /* \"degen/DegenTicketPrice.sol\":1017:1032  SafeMath.tryDiv */\n      tag_28\n        /* \"degen/DegenTicketPrice.sol\":1017:1050  SafeMath.tryDiv(tp, _denominator) */\n      jump\t// in\n    tag_27:\n        /* \"degen/DegenTicketPrice.sol\":1004:1050  (flag, tp) = SafeMath.tryDiv(tp, _denominator) */\n      dup1\n      swap3\n      pop\n      dup2\n      swap4\n      pop\n      pop\n      pop\n        /* \"degen/DegenTicketPrice.sol\":1069:1073  flag */\n      dup2\n        /* \"degen/DegenTicketPrice.sol\":1061:1161  require(flag, \"Number overflow occurs when calculate ticket price in _beta/_denominator*i**_alpha.\") */\n      tag_29\n      jumpi\n      mload(0x40)\n      0x08c379a000000000000000000000000000000000000000000000000000000000\n      dup2\n      mstore\n      0x04\n      add\n      tag_30\n      swap1\n      tag_31\n      jump\t// in\n    tag_30:\n      mload(0x40)\n      dup1\n      swap2\n      sub\n      swap1\n      revert\n    tag_29:\n        /* \"degen/DegenTicketPrice.sol\":1187:1214  SafeMath.tryMul(tp, 10**18) */\n      tag_32\n        /* \"degen/DegenTicketPrice.sol\":1203:1205  tp */\n      dup2\n        /* \"degen/DegenTicketPrice.sol\":1207:1213  10**18 */\n      0x0de0b6b3a7640000\n        /* \"degen/DegenTicketPrice.sol\":1187:1202  SafeMath.tryMul */\n      tag_17\n        /* \"degen/DegenTicketPrice.sol\":1187:1214  SafeMath.tryMul(tp, 10**18) */\n      jump\t// in\n    tag_32:\n        /* \"degen/DegenTicketPrice.sol\":1174:1214  (flag, tp) = SafeMath.tryMul(tp, 10**18) */\n      dup1\n      swap3\n      pop\n      dup2\n      swap4\n      pop\n      pop\n      pop\n        /* \"degen/DegenTicketPrice.sol\":1233:1237  flag */\n      dup2\n        /* \"degen/DegenTicketPrice.sol\":1225:1334  require(flag, \"Number overflow occurs when calculate ticket price in (_beta/_denominator*i**_alpha)*10**18.\") */\n      tag_33\n      jumpi\n      mload(0x40)\n      0x08c379a000000000000000000000000000000000000000000000000000000000\n      dup2\n      mstore\n      0x04\n      add\n      tag_34\n      swap1\n      tag_35\n      jump\t// in\n    tag_34:\n      mload(0x40)\n      dup1\n      swap2\n      sub\n      swap1\n      revert\n    tag_33:\n        /* \"degen/DegenTicketPrice.sol\":1360:1387  SafeMath.tryAdd(tp, _gamma) */\n      tag_36\n        /* \"degen/DegenTicketPrice.sol\":1376:1378  tp */\n      dup2\n        /* \"degen/DegenTicketPrice.sol\":319:332  0.01 * 10**18 */\n      0x2386f26fc10000\n        /* \"degen/DegenTicketPrice.sol\":1360:1375  SafeMath.tryAdd */\n      tag_37\n        /* \"degen/DegenTicketPrice.sol\":1360:1387  SafeMath.tryAdd(tp, _gamma) */\n      jump\t// in\n    tag_36:\n        /* \"degen/DegenTicketPrice.sol\":1347:1387  (flag, tp) = SafeMath.tryAdd(tp, _gamma) */\n      dup1\n      swap3\n      pop\n      dup2\n      swap4\n      pop\n      pop\n      pop\n        /* \"degen/DegenTicketPrice.sol\":1406:1410  flag */\n      dup2\n        /* \"degen/DegenTicketPrice.sol\":1398:1506  require(flag, \"Number overflow occurs when calculate ticket price in _beta/_denominator*i**_alpha + gamma.\") */\n      tag_38\n      jumpi\n      mload(0x40)\n      0x08c379a000000000000000000000000000000000000000000000000000000000\n      dup2\n      mstore\n      0x04\n      add\n      tag_39\n      swap1\n      tag_40\n      jump\t// in\n    tag_39:\n      mload(0x40)\n      dup1\n      swap2\n      sub\n      swap1\n      revert\n    tag_38:\n        /* \"degen/DegenTicketPrice.sol\":1526:1528  tp */\n      dup1\n        /* \"degen/DegenTicketPrice.sol\":1519:1528  return tp */\n      swap3\n      pop\n      pop\n      pop\n        /* \"degen/DegenTicketPrice.sol\":435:1536  function ticketPrice(uint256 ith) public pure returns (uint256 result) {... */\n      swap2\n      swap1\n      pop\n      jump\t// out\n        /* \"@openzeppelin/contracts/utils/math/SafeMath.sol\":1339:1832  function tryMul(uint256 a, uint256 b) internal pure returns (bool, uint256) {... */\n    tag_17:\n        /* \"@openzeppelin/contracts/utils/math/SafeMath.sol\":1400:1404  bool */\n      0x00\n        /* \"@openzeppelin/contracts/utils/math/SafeMath.sol\":1406:1413  uint256 */\n      dup1\n        /* \"@openzeppelin/contracts/utils/math/SafeMath.sol\":1688:1689  0 */\n      0x00\n        /* \"@openzeppelin/contracts/utils/math/SafeMath.sol\":1683:1684  a */\n      dup5\n        /* \"@openzeppelin/contracts/utils/math/SafeMath.sol\":1683:1689  a == 0 */\n      sub\n        /* \"@openzeppelin/contracts/utils/math/SafeMath.sol\":1679:1707  if (a == 0) return (true, 0) */\n      tag_42\n      jumpi\n        /* \"@openzeppelin/contracts/utils/math/SafeMath.sol\":1699:1703  true */\n      0x01\n        /* \"@openzeppelin/contracts/utils/math/SafeMath.sol\":1705:1706  0 */\n      0x00\n        /* \"@openzeppelin/contracts/utils/math/SafeMath.sol\":1691:1707  return (true, 0) */\n      swap2\n      pop\n      swap2\n      pop\n      jump(tag_41)\n        /* \"@openzeppelin/contracts/utils/math/SafeMath.sol\":1679:1707  if (a == 0) return (true, 0) */\n    tag_42:\n        /* \"@openzeppelin/contracts/utils/math/SafeMath.sol\":1721:1730  uint256 c */\n      0x00\n        /* \"@openzeppelin/contracts/utils/math/SafeMath.sol\":1737:1738  b */\n      dup4\n        /* \"@openzeppelin/contracts/utils/math/SafeMath.sol\":1733:1734  a */\n      dup6\n        /* \"@openzeppelin/contracts/utils/math/SafeMath.sol\":1733:1738  a * b */\n      mul\n        /* \"@openzeppelin/contracts/utils/math/SafeMath.sol\":1721:1738  uint256 c = a * b */\n      swap1\n      pop\n        /* \"@openzeppelin/contracts/utils/math/SafeMath.sol\":1765:1766  b */\n      dup4\n        /* \"@openzeppelin/contracts/utils/math/SafeMath.sol\":1760:1761  a */\n      dup6\n        /* \"@openzeppelin/contracts/utils/math/SafeMath.sol\":1756:1757  c */\n      dup3\n        /* \"@openzeppelin/contracts/utils/math/SafeMath.sol\":1756:1761  c / a */\n      dup2\n      tag_43\n      jumpi\n      tag_44\n      tag_45\n      jump\t// in\n    tag_44:\n    tag_43:\n      div\n        /* \"@openzeppelin/contracts/utils/math/SafeMath.sol\":1756:1766  c / a != b */\n      eq\n        /* \"@openzeppelin/contracts/utils/math/SafeMath.sol\":1752:1785  if (c / a != b) return (false, 0) */\n      tag_46\n      jumpi\n        /* \"@openzeppelin/contracts/utils/math/SafeMath.sol\":1776:1781  false */\n      0x00\n        /* \"@openzeppelin/contracts/utils/math/SafeMath.sol\":1783:1784  0 */\n      dup1\n        /* \"@openzeppelin/contracts/utils/math/SafeMath.sol\":1768:1785  return (false, 0) */\n      swap3\n      pop\n      swap3\n      pop\n      pop\n      jump(tag_41)\n        /* \"@openzeppelin/contracts/utils/math/SafeMath.sol\":1752:1785  if (c / a != b) return (false, 0) */\n    tag_46:\n        /* \"@openzeppelin/contracts/utils/math/SafeMath.sol\":1807:1811  true */\n      0x01\n        /* \"@openzeppelin/contracts/utils/math/SafeMath.sol\":1813:1814  c */\n      dup2\n        /* \"@openzeppelin/contracts/utils/math/SafeMath.sol\":1799:1815  return (true, c) */\n      swap3\n      pop\n      swap3\n      pop\n      pop\n        /* \"@openzeppelin/contracts/utils/math/SafeMath.sol\":1339:1832  function tryMul(uint256 a, uint256 b) internal pure returns (bool, uint256) {... */\n    tag_41:\n      swap3\n      pop\n      swap3\n      swap1\n      pop\n      jump\t// out\n        /* \"@openzeppelin/contracts/utils/math/SafeMath.sol\":1981:2171  function tryDiv(uint256 a, uint256 b) internal pure returns (bool, uint256) {... */\n    tag_28:\n        /* \"@openzeppelin/contracts/utils/math/SafeMath.sol\":2042:2046  bool */\n      0x00\n        /* \"@openzeppelin/contracts/utils/math/SafeMath.sol\":2048:2055  uint256 */\n      dup1\n        /* \"@openzeppelin/contracts/utils/math/SafeMath.sol\":2100:2101  0 */\n      0x00\n        /* \"@openzeppelin/contracts/utils/math/SafeMath.sol\":2095:2096  b */\n      dup4\n        /* \"@openzeppelin/contracts/utils/math/SafeMath.sol\":2095:2101  b == 0 */\n      sub\n        /* \"@openzeppelin/contracts/utils/math/SafeMath.sol\":2091:2120  if (b == 0) return (false, 0) */\n      tag_48\n      jumpi\n        /* \"@openzeppelin/contracts/utils/math/SafeMath.sol\":2111:2116  false */\n      0x00\n        /* \"@openzeppelin/contracts/utils/math/SafeMath.sol\":2118:2119  0 */\n      dup1\n        /* \"@openzeppelin/contracts/utils/math/SafeMath.sol\":2103:2120  return (false, 0) */\n      swap2\n      pop\n      swap2\n      pop\n      jump(tag_47)\n        /* \"@openzeppelin/contracts/utils/math/SafeMath.sol\":2091:2120  if (b == 0) return (false, 0) */\n    tag_48:\n        /* \"@openzeppelin/contracts/utils/math/SafeMath.sol\":2142:2146  true */\n      0x01\n        /* \"@openzeppelin/contracts/utils/math/SafeMath.sol\":2152:2153  b */\n      dup4\n        /* \"@openzeppelin/contracts/utils/math/SafeMath.sol\":2148:2149  a */\n      dup6\n        /* \"@openzeppelin/contracts/utils/math/SafeMath.sol\":2148:2153  a / b */\n      dup2\n      tag_49\n      jumpi\n      tag_50\n      tag_45\n      jump\t// in\n    tag_50:\n    tag_49:\n      div\n        /* \"@openzeppelin/contracts/utils/math/SafeMath.sol\":2134:2154  return (true, a / b) */\n      swap2\n      pop\n      swap2\n      pop\n        /* \"@openzeppelin/contracts/utils/math/SafeMath.sol\":1981:2171  function tryDiv(uint256 a, uint256 b) internal pure returns (bool, uint256) {... */\n    tag_47:\n      swap3\n      pop\n      swap3\n      swap1\n      pop\n      jump\t// out\n        /* \"@openzeppelin/contracts/utils/math/SafeMath.sol\":641:857  function tryAdd(uint256 a, uint256 b) internal pure returns (bool, uint256) {... */\n    tag_37:\n        /* \"@openzeppelin/contracts/utils/math/SafeMath.sol\":702:706  bool */\n      0x00\n        /* \"@openzeppelin/contracts/utils/math/SafeMath.sol\":708:715  uint256 */\n      dup1\n        /* \"@openzeppelin/contracts/utils/math/SafeMath.sol\":751:760  uint256 c */\n      0x00\n        /* \"@openzeppelin/contracts/utils/math/SafeMath.sol\":767:768  b */\n      dup4\n        /* \"@openzeppelin/contracts/utils/math/SafeMath.sol\":763:764  a */\n      dup6\n        /* \"@openzeppelin/contracts/utils/math/SafeMath.sol\":763:768  a + b */\n      add\n        /* \"@openzeppelin/contracts/utils/math/SafeMath.sol\":751:768  uint256 c = a + b */\n      swap1\n      pop\n        /* \"@openzeppelin/contracts/utils/math/SafeMath.sol\":790:791  a */\n      dup5\n        /* \"@openzeppelin/contracts/utils/math/SafeMath.sol\":786:787  c */\n      dup2\n        /* \"@openzeppelin/contracts/utils/math/SafeMath.sol\":786:791  c < a */\n      lt\n        /* \"@openzeppelin/contracts/utils/math/SafeMath.sol\":782:810  if (c < a) return (false, 0) */\n      iszero\n      tag_52\n      jumpi\n        /* \"@openzeppelin/contracts/utils/math/SafeMath.sol\":801:806  false */\n      0x00\n        /* \"@openzeppelin/contracts/utils/math/SafeMath.sol\":808:809  0 */\n      dup1\n        /* \"@openzeppelin/contracts/utils/math/SafeMath.sol\":793:810  return (false, 0) */\n      swap3\n      pop\n      swap3\n      pop\n      pop\n      jump(tag_51)\n        /* \"@openzeppelin/contracts/utils/math/SafeMath.sol\":782:810  if (c < a) return (false, 0) */\n    tag_52:\n        /* \"@openzeppelin/contracts/utils/math/SafeMath.sol\":832:836  true */\n      0x01\n        /* \"@openzeppelin/contracts/utils/math/SafeMath.sol\":838:839  c */\n      dup2\n        /* \"@openzeppelin/contracts/utils/math/SafeMath.sol\":824:840  return (true, c) */\n      swap3\n      pop\n      swap3\n      pop\n      pop\n        /* \"@openzeppelin/contracts/utils/math/SafeMath.sol\":641:857  function tryAdd(uint256 a, uint256 b) internal pure returns (bool, uint256) {... */\n    tag_51:\n      swap3\n      pop\n      swap3\n      swap1\n      pop\n      jump\t// out\n        /* \"#utility.yul\":88:205   */\n    tag_54:\n        /* \"#utility.yul\":197:198   */\n      0x00\n        /* \"#utility.yul\":194:195   */\n      dup1\n        /* \"#utility.yul\":187:199   */\n      revert\n        /* \"#utility.yul\":334:411   */\n    tag_56:\n        /* \"#utility.yul\":371:378   */\n      0x00\n        /* \"#utility.yul\":400:405   */\n      dup2\n        /* \"#utility.yul\":389:405   */\n      swap1\n      pop\n        /* \"#utility.yul\":334:411   */\n      swap2\n      swap1\n      pop\n      jump\t// out\n        /* \"#utility.yul\":417:539   */\n    tag_57:\n        /* \"#utility.yul\":490:514   */\n      tag_80\n        /* \"#utility.yul\":508:513   */\n      dup2\n        /* \"#utility.yul\":490:514   */\n      tag_56\n      jump\t// in\n    tag_80:\n        /* \"#utility.yul\":483:488   */\n      dup2\n        /* \"#utility.yul\":480:515   */\n      eq\n        /* \"#utility.yul\":470:533   */\n      tag_81\n      jumpi\n        /* \"#utility.yul\":529:530   */\n      0x00\n        /* \"#utility.yul\":526:527   */\n      dup1\n        /* \"#utility.yul\":519:531   */\n      revert\n        /* \"#utility.yul\":470:533   */\n    tag_81:\n        /* \"#utility.yul\":417:539   */\n      pop\n      jump\t// out\n        /* \"#utility.yul\":545:684   */\n    tag_58:\n        /* \"#utility.yul\":591:596   */\n      0x00\n        /* \"#utility.yul\":629:635   */\n      dup2\n        /* \"#utility.yul\":616:636   */\n      calldataload\n        /* \"#utility.yul\":607:636   */\n      swap1\n      pop\n        /* \"#utility.yul\":645:678   */\n      tag_83\n        /* \"#utility.yul\":672:677   */\n      dup2\n        /* \"#utility.yul\":645:678   */\n      tag_57\n      jump\t// in\n    tag_83:\n        /* \"#utility.yul\":545:684   */\n      swap3\n      swap2\n      pop\n      pop\n      jump\t// out\n        /* \"#utility.yul\":690:1019   */\n    tag_5:\n        /* \"#utility.yul\":749:755   */\n      0x00\n        /* \"#utility.yul\":798:800   */\n      0x20\n        /* \"#utility.yul\":786:795   */\n      dup3\n        /* \"#utility.yul\":777:784   */\n      dup5\n        /* \"#utility.yul\":773:796   */\n      sub\n        /* \"#utility.yul\":769:801   */\n      slt\n        /* \"#utility.yul\":766:885   */\n      iszero\n      tag_85\n      jumpi\n        /* \"#utility.yul\":804:883   */\n      tag_86\n      tag_54\n      jump\t// in\n    tag_86:\n        /* \"#utility.yul\":766:885   */\n    tag_85:\n        /* \"#utility.yul\":924:925   */\n      0x00\n        /* \"#utility.yul\":949:1002   */\n      tag_87\n        /* \"#utility.yul\":994:1001   */\n      dup5\n        /* \"#utility.yul\":985:991   */\n      dup3\n        /* \"#utility.yul\":974:983   */\n      dup6\n        /* \"#utility.yul\":970:992   */\n      add\n        /* \"#utility.yul\":949:1002   */\n      tag_58\n      jump\t// in\n    tag_87:\n        /* \"#utility.yul\":939:1002   */\n      swap2\n      pop\n        /* \"#utility.yul\":895:1012   */\n      pop\n        /* \"#utility.yul\":690:1019   */\n      swap3\n      swap2\n      pop\n      pop\n      jump\t// out\n        /* \"#utility.yul\":1025:1151   */\n    tag_59:\n        /* \"#utility.yul\":1120:1144   */\n      tag_89\n        /* \"#utility.yul\":1138:1143   */\n      dup2\n        /* \"#utility.yul\":1120:1144   */\n      tag_56\n      jump\t// in\n    tag_89:\n        /* \"#utility.yul\":1115:1118   */\n      dup3\n        /* \"#utility.yul\":1108:1145   */\n      mstore\n        /* \"#utility.yul\":1025:1151   */\n      pop\n      pop\n      jump\t// out\n        /* \"#utility.yul\":1157:1395   */\n    tag_8:\n        /* \"#utility.yul\":1258:1262   */\n      0x00\n        /* \"#utility.yul\":1296:1298   */\n      0x20\n        /* \"#utility.yul\":1285:1294   */\n      dup3\n        /* \"#utility.yul\":1281:1299   */\n      add\n        /* \"#utility.yul\":1273:1299   */\n      swap1\n      pop\n        /* \"#utility.yul\":1309:1388   */\n      tag_91\n        /* \"#utility.yul\":1385:1386   */\n      0x00\n        /* \"#utility.yul\":1374:1383   */\n      dup4\n        /* \"#utility.yul\":1370:1387   */\n      add\n        /* \"#utility.yul\":1361:1367   */\n      dup5\n        /* \"#utility.yul\":1309:1388   */\n      tag_59\n      jump\t// in\n    tag_91:\n        /* \"#utility.yul\":1157:1395   */\n      swap3\n      swap2\n      pop\n      pop\n      jump\t// out\n        /* \"#utility.yul\":1401:1570   */\n    tag_60:\n        /* \"#utility.yul\":1485:1496   */\n      0x00\n        /* \"#utility.yul\":1519:1525   */\n      dup3\n        /* \"#utility.yul\":1514:1517   */\n      dup3\n        /* \"#utility.yul\":1507:1526   */\n      mstore\n        /* \"#utility.yul\":1559:1563   */\n      0x20\n        /* \"#utility.yul\":1554:1557   */\n      dup3\n        /* \"#utility.yul\":1550:1564   */\n      add\n        /* \"#utility.yul\":1535:1564   */\n      swap1\n      pop\n        /* \"#utility.yul\":1401:1570   */\n      swap3\n      swap2\n      pop\n      pop\n      jump\t// out\n        /* \"#utility.yul\":1576:1797   */\n    tag_61:\n        /* \"#utility.yul\":1716:1750   */\n      0x546f2061766f6964206f766572666c6f772c20616c706861203c3d2035206f6e\n        /* \"#utility.yul\":1712:1713   */\n      0x00\n        /* \"#utility.yul\":1704:1710   */\n      dup3\n        /* \"#utility.yul\":1700:1714   */\n      add\n        /* \"#utility.yul\":1693:1751   */\n      mstore\n        /* \"#utility.yul\":1785:1789   */\n      0x6c79000000000000000000000000000000000000000000000000000000000000\n        /* \"#utility.yul\":1780:1782   */\n      0x20\n        /* \"#utility.yul\":1772:1778   */\n      dup3\n        /* \"#utility.yul\":1768:1783   */\n      add\n        /* \"#utility.yul\":1761:1790   */\n      mstore\n        /* \"#utility.yul\":1576:1797   */\n      pop\n      jump\t// out\n        /* \"#utility.yul\":1803:2169   */\n    tag_62:\n        /* \"#utility.yul\":1945:1948   */\n      0x00\n        /* \"#utility.yul\":1966:2033   */\n      tag_95\n        /* \"#utility.yul\":2030:2032   */\n      0x22\n        /* \"#utility.yul\":2025:2028   */\n      dup4\n        /* \"#utility.yul\":1966:2033   */\n      tag_60\n      jump\t// in\n    tag_95:\n        /* \"#utility.yul\":1959:2033   */\n      swap2\n      pop\n        /* \"#utility.yul\":2042:2135   */\n      tag_96\n        /* \"#utility.yul\":2131:2134   */\n      dup3\n        /* \"#utility.yul\":2042:2135   */\n      tag_61\n      jump\t// in\n    tag_96:\n        /* \"#utility.yul\":2160:2162   */\n      0x40\n        /* \"#utility.yul\":2155:2158   */\n      dup3\n        /* \"#utility.yul\":2151:2163   */\n      add\n        /* \"#utility.yul\":2144:2163   */\n      swap1\n      pop\n        /* \"#utility.yul\":1803:2169   */\n      swap2\n      swap1\n      pop\n      jump\t// out\n        /* \"#utility.yul\":2175:2594   */\n    tag_12:\n        /* \"#utility.yul\":2341:2345   */\n      0x00\n        /* \"#utility.yul\":2379:2381   */\n      0x20\n        /* \"#utility.yul\":2368:2377   */\n      dup3\n        /* \"#utility.yul\":2364:2382   */\n      add\n        /* \"#utility.yul\":2356:2382   */\n      swap1\n      pop\n        /* \"#utility.yul\":2428:2437   */\n      dup2\n        /* \"#utility.yul\":2422:2426   */\n      dup2\n        /* \"#utility.yul\":2418:2438   */\n      sub\n        /* \"#utility.yul\":2414:2415   */\n      0x00\n        /* \"#utility.yul\":2403:2412   */\n      dup4\n        /* \"#utility.yul\":2399:2416   */\n      add\n        /* \"#utility.yul\":2392:2439   */\n      mstore\n        /* \"#utility.yul\":2456:2587   */\n      tag_98\n        /* \"#utility.yul\":2582:2586   */\n      dup2\n        /* \"#utility.yul\":2456:2587   */\n      tag_62\n      jump\t// in\n    tag_98:\n        /* \"#utility.yul\":2448:2587   */\n      swap1\n      pop\n        /* \"#utility.yul\":2175:2594   */\n      swap2\n      swap1\n      pop\n      jump\t// out\n        /* \"#utility.yul\":2600:2851   */\n    tag_63:\n        /* \"#utility.yul\":2740:2774   */\n      0x4e756d626572206f766572666c6f77206f6363757273207768656e2063616c63\n        /* \"#utility.yul\":2736:2737   */\n      0x00\n        /* \"#utility.yul\":2728:2734   */\n      dup3\n        /* \"#utility.yul\":2724:2738   */\n      add\n        /* \"#utility.yul\":2717:2775   */\n      mstore\n        /* \"#utility.yul\":2809:2843   */\n      0x756c617465207469636b657420707269636520696e20692a2a5f616c7068612e\n        /* \"#utility.yul\":2804:2806   */\n      0x20\n        /* \"#utility.yul\":2796:2802   */\n      dup3\n        /* \"#utility.yul\":2792:2807   */\n      add\n        /* \"#utility.yul\":2785:2844   */\n      mstore\n        /* \"#utility.yul\":2600:2851   */\n      pop\n      jump\t// out\n        /* \"#utility.yul\":2857:3223   */\n    tag_64:\n        /* \"#utility.yul\":2999:3002   */\n      0x00\n        /* \"#utility.yul\":3020:3087   */\n      tag_101\n        /* \"#utility.yul\":3084:3086   */\n      0x40\n        /* \"#utility.yul\":3079:3082   */\n      dup4\n        /* \"#utility.yul\":3020:3087   */\n      tag_60\n      jump\t// in\n    tag_101:\n        /* \"#utility.yul\":3013:3087   */\n      swap2\n      pop\n        /* \"#utility.yul\":3096:3189   */\n      tag_102\n        /* \"#utility.yul\":3185:3188   */\n      dup3\n        /* \"#utility.yul\":3096:3189   */\n      tag_63\n      jump\t// in\n    tag_102:\n        /* \"#utility.yul\":3214:3216   */\n      0x40\n        /* \"#utility.yul\":3209:3212   */\n      dup3\n        /* \"#utility.yul\":3205:3217   */\n      add\n        /* \"#utility.yul\":3198:3217   */\n      swap1\n      pop\n        /* \"#utility.yul\":2857:3223   */\n      swap2\n      swap1\n      pop\n      jump\t// out\n        /* \"#utility.yul\":3229:3648   */\n    tag_20:\n        /* \"#utility.yul\":3395:3399   */\n      0x00\n        /* \"#utility.yul\":3433:3435   */\n      0x20\n        /* \"#utility.yul\":3422:3431   */\n      dup3\n        /* \"#utility.yul\":3418:3436   */\n      add\n        /* \"#utility.yul\":3410:3436   */\n      swap1\n      pop\n        /* \"#utility.yul\":3482:3491   */\n      dup2\n        /* \"#utility.yul\":3476:3480   */\n      dup2\n        /* \"#utility.yul\":3472:3492   */\n      sub\n        /* \"#utility.yul\":3468:3469   */\n      0x00\n        /* \"#utility.yul\":3457:3466   */\n      dup4\n        /* \"#utility.yul\":3453:3470   */\n      add\n        /* \"#utility.yul\":3446:3493   */\n      mstore\n        /* \"#utility.yul\":3510:3641   */\n      tag_104\n        /* \"#utility.yul\":3636:3640   */\n      dup2\n        /* \"#utility.yul\":3510:3641   */\n      tag_64\n      jump\t// in\n    tag_104:\n        /* \"#utility.yul\":3502:3641   */\n      swap1\n      pop\n        /* \"#utility.yul\":3229:3648   */\n      swap2\n      swap1\n      pop\n      jump\t// out\n        /* \"#utility.yul\":3654:3834   */\n    tag_65:\n        /* \"#utility.yul\":3702:3779   */\n      0x4e487b7100000000000000000000000000000000000000000000000000000000\n        /* \"#utility.yul\":3699:3700   */\n      0x00\n        /* \"#utility.yul\":3692:3780   */\n      mstore\n        /* \"#utility.yul\":3799:3803   */\n      0x11\n        /* \"#utility.yul\":3796:3797   */\n      0x04\n        /* \"#utility.yul\":3789:3804   */\n      mstore\n        /* \"#utility.yul\":3823:3827   */\n      0x24\n        /* \"#utility.yul\":3820:3821   */\n      0x00\n        /* \"#utility.yul\":3813:3828   */\n      revert\n        /* \"#utility.yul\":3840:4073   */\n    tag_22:\n        /* \"#utility.yul\":3879:3882   */\n      0x00\n        /* \"#utility.yul\":3902:3926   */\n      tag_107\n        /* \"#utility.yul\":3920:3925   */\n      dup3\n        /* \"#utility.yul\":3902:3926   */\n      tag_56\n      jump\t// in\n    tag_107:\n        /* \"#utility.yul\":3893:3926   */\n      swap2\n      pop\n        /* \"#utility.yul\":3948:4014   */\n      0xffffffffffffffffffffffffffffffffffffffffffffffffffffffffffffffff\n        /* \"#utility.yul\":3941:3946   */\n      dup3\n        /* \"#utility.yul\":3938:4015   */\n      sub\n        /* \"#utility.yul\":3935:4038   */\n      tag_108\n      jumpi\n        /* \"#utility.yul\":4018:4036   */\n      tag_109\n      tag_65\n      jump\t// in\n    tag_109:\n        /* \"#utility.yul\":3935:4038   */\n    tag_108:\n        /* \"#utility.yul\":4065:4066   */\n      0x01\n        /* \"#utility.yul\":4058:4063   */\n      dup3\n        /* \"#utility.yul\":4054:4067   */\n      add\n        /* \"#utility.yul\":4047:4067   */\n      swap1\n      pop\n        /* \"#utility.yul\":3840:4073   */\n      swap2\n      swap1\n      pop\n      jump\t// out\n        /* \"#utility.yul\":4079:4373   */\n    tag_66:\n        /* \"#utility.yul\":4219:4253   */\n      0x4e756d626572206f766572666c6f77206f6363757273207768656e2063616c63\n        /* \"#utility.yul\":4215:4216   */\n      0x00\n        /* \"#utility.yul\":4207:4213   */\n      dup3\n        /* \"#utility.yul\":4203:4217   */\n      add\n        /* \"#utility.yul\":4196:4254   */\n      mstore\n        /* \"#utility.yul\":4288:4322   */\n      0x756c617465207469636b657420707269636520696e205f626574612a692a2a5f\n        /* \"#utility.yul\":4283:4285   */\n      0x20\n        /* \"#utility.yul\":4275:4281   */\n      dup3\n        /* \"#utility.yul\":4271:4286   */\n      add\n        /* \"#utility.yul\":4264:4323   */\n      mstore\n        /* \"#utility.yul\":4357:4365   */\n      0x616c7068612e0000000000000000000000000000000000000000000000000000\n        /* \"#utility.yul\":4352:4354   */\n      0x40\n        /* \"#utility.yul\":4344:4350   */\n      dup3\n        /* \"#utility.yul\":4340:4355   */\n      add\n        /* \"#utility.yul\":4333:4366   */\n      mstore\n        /* \"#utility.yul\":4079:4373   */\n      pop\n      jump\t// out\n        /* \"#utility.yul\":4379:4745   */\n    tag_67:\n        /* \"#utility.yul\":4521:4524   */\n      0x00\n        /* \"#utility.yul\":4542:4609   */\n      tag_112\n        /* \"#utility.yul\":4606:4608   */\n      0x46\n        /* \"#utility.yul\":4601:4604   */\n      dup4\n        /* \"#utility.yul\":4542:4609   */\n      tag_60\n      jump\t// in\n    tag_112:\n        /* \"#utility.yul\":4535:4609   */\n      swap2\n      pop\n        /* \"#utility.yul\":4618:4711   */\n      tag_113\n        /* \"#utility.yul\":4707:4710   */\n      dup3\n        /* \"#utility.yul\":4618:4711   */\n      tag_66\n      jump\t// in\n    tag_113:\n        /* \"#utility.yul\":4736:4738   */\n      0x60\n        /* \"#utility.yul\":4731:4734   */\n      dup3\n        /* \"#utility.yul\":4727:4739   */\n      add\n        /* \"#utility.yul\":4720:4739   */\n      swap1\n      pop\n        /* \"#utility.yul\":4379:4745   */\n      swap2\n      swap1\n      pop\n      jump\t// out\n        /* \"#utility.yul\":4751:5170   */\n    tag_26:\n        /* \"#utility.yul\":4917:4921   */\n      0x00\n        /* \"#utility.yul\":4955:4957   */\n      0x20\n        /* \"#utility.yul\":4944:4953   */\n      dup3\n        /* \"#utility.yul\":4940:4958   */\n      add\n        /* \"#utility.yul\":4932:4958   */\n      swap1\n      pop\n        /* \"#utility.yul\":5004:5013   */\n      dup2\n        /* \"#utility.yul\":4998:5002   */\n      dup2\n        /* \"#utility.yul\":4994:5014   */\n      sub\n        /* \"#utility.yul\":4990:4991   */\n      0x00\n        /* \"#utility.yul\":4979:4988   */\n      dup4\n        /* \"#utility.yul\":4975:4992   */\n      add\n        /* \"#utility.yul\":4968:5015   */\n      mstore\n        /* \"#utility.yul\":5032:5163   */\n      tag_115\n        /* \"#utility.yul\":5158:5162   */\n      dup2\n        /* \"#utility.yul\":5032:5163   */\n      tag_67\n      jump\t// in\n    tag_115:\n        /* \"#utility.yul\":5024:5163   */\n      swap1\n      pop\n        /* \"#utility.yul\":4751:5170   */\n      swap2\n      swap1\n      pop\n      jump\t// out\n        /* \"#utility.yul\":5176:5483   */\n    tag_68:\n        /* \"#utility.yul\":5316:5350   */\n      0x4e756d626572206f766572666c6f77206f6363757273207768656e2063616c63\n        /* \"#utility.yul\":5312:5313   */\n      0x00\n        /* \"#utility.yul\":5304:5310   */\n      dup3\n        /* \"#utility.yul\":5300:5314   */\n      add\n        /* \"#utility.yul\":5293:5351   */\n      mstore\n        /* \"#utility.yul\":5385:5419   */\n      0x756c617465207469636b657420707269636520696e205f626574612f5f64656e\n        /* \"#utility.yul\":5380:5382   */\n      0x20\n        /* \"#utility.yul\":5372:5378   */\n      dup3\n        /* \"#utility.yul\":5368:5383   */\n      add\n        /* \"#utility.yul\":5361:5420   */\n      mstore\n        /* \"#utility.yul\":5454:5475   */\n      0x6f6d696e61746f722a692a2a5f616c7068612e00000000000000000000000000\n        /* \"#utility.yul\":5449:5451   */\n      0x40\n        /* \"#utility.yul\":5441:5447   */\n      dup3\n        /* \"#utility.yul\":5437:5452   */\n      add\n        /* \"#utility.yul\":5430:5476   */\n      mstore\n        /* \"#utility.yul\":5176:5483   */\n      pop\n      jump\t// out\n        /* \"#utility.yul\":5489:5855   */\n    tag_69:\n        /* \"#utility.yul\":5631:5634   */\n      0x00\n        /* \"#utility.yul\":5652:5719   */\n      tag_118\n        /* \"#utility.yul\":5716:5718   */\n      0x53\n        /* \"#utility.yul\":5711:5714   */\n      dup4\n        /* \"#utility.yul\":5652:5719   */\n      tag_60\n      jump\t// in\n    tag_118:\n        /* \"#utility.yul\":5645:5719   */\n      swap2\n      pop\n        /* \"#utility.yul\":5728:5821   */\n      tag_119\n        /* \"#utility.yul\":5817:5820   */\n      dup3\n        /* \"#utility.yul\":5728:5821   */\n      tag_68\n      jump\t// in\n    tag_119:\n        /* \"#utility.yul\":5846:5848   */\n      0x60\n        /* \"#utility.yul\":5841:5844   */\n      dup3\n        /* \"#utility.yul\":5837:5849   */\n      add\n        /* \"#utility.yul\":5830:5849   */\n      swap1\n      pop\n        /* \"#utility.yul\":5489:5855   */\n      swap2\n      swap1\n      pop\n      jump\t// out\n        /* \"#utility.yul\":5861:6280   */\n    tag_31:\n        /* \"#utility.yul\":6027:6031   */\n      0x00\n        /* \"#utility.yul\":6065:6067   */\n      0x20\n        /* \"#utility.yul\":6054:6063   */\n      dup3\n        /* \"#utility.yul\":6050:6068   */\n      add\n        /* \"#utility.yul\":6042:6068   */\n      swap1\n      pop\n        /* \"#utility.yul\":6114:6123   */\n      dup2\n        /* \"#utility.yul\":6108:6112   */\n      dup2\n        /* \"#utility.yul\":6104:6124   */\n      sub\n        /* \"#utility.yul\":6100:6101   */\n      0x00\n        /* \"#utility.yul\":6089:6098   */\n      dup4\n        /* \"#utility.yul\":6085:6102   */\n      add\n        /* \"#utility.yul\":6078:6125   */\n      mstore\n        /* \"#utility.yul\":6142:6273   */\n      tag_121\n        /* \"#utility.yul\":6268:6272   */\n      dup2\n        /* \"#utility.yul\":6142:6273   */\n      tag_69\n      jump\t// in\n    tag_121:\n        /* \"#utility.yul\":6134:6273   */\n      swap1\n      pop\n        /* \"#utility.yul\":5861:6280   */\n      swap2\n      swap1\n      pop\n      jump\t// out\n        /* \"#utility.yul\":6286:6602   */\n    tag_70:\n        /* \"#utility.yul\":6426:6460   */\n      0x4e756d626572206f766572666c6f77206f6363757273207768656e2063616c63\n        /* \"#utility.yul\":6422:6423   */\n      0x00\n        /* \"#utility.yul\":6414:6420   */\n      dup3\n        /* \"#utility.yul\":6410:6424   */\n      add\n        /* \"#utility.yul\":6403:6461   */\n      mstore\n        /* \"#utility.yul\":6495:6529   */\n      0x756c617465207469636b657420707269636520696e20285f626574612f5f6465\n        /* \"#utility.yul\":6490:6492   */\n      0x20\n        /* \"#utility.yul\":6482:6488   */\n      dup3\n        /* \"#utility.yul\":6478:6493   */\n      add\n        /* \"#utility.yul\":6471:6530   */\n      mstore\n        /* \"#utility.yul\":6564:6594   */\n      0x6e6f6d696e61746f722a692a2a5f616c706861292a31302a2a31382e00000000\n        /* \"#utility.yul\":6559:6561   */\n      0x40\n        /* \"#utility.yul\":6551:6557   */\n      dup3\n        /* \"#utility.yul\":6547:6562   */\n      add\n        /* \"#utility.yul\":6540:6595   */\n      mstore\n        /* \"#utility.yul\":6286:6602   */\n      pop\n      jump\t// out\n        /* \"#utility.yul\":6608:6974   */\n    tag_71:\n        /* \"#utility.yul\":6750:6753   */\n      0x00\n        /* \"#utility.yul\":6771:6838   */\n      tag_124\n        /* \"#utility.yul\":6835:6837   */\n      0x5c\n        /* \"#utility.yul\":6830:6833   */\n      dup4\n        /* \"#utility.yul\":6771:6838   */\n      tag_60\n      jump\t// in\n    tag_124:\n        /* \"#utility.yul\":6764:6838   */\n      swap2\n      pop\n        /* \"#utility.yul\":6847:6940   */\n      tag_125\n        /* \"#utility.yul\":6936:6939   */\n      dup3\n        /* \"#utility.yul\":6847:6940   */\n      tag_70\n      jump\t// in\n    tag_125:\n        /* \"#utility.yul\":6965:6967   */\n      0x60\n        /* \"#utility.yul\":6960:6963   */\n      dup3\n        /* \"#utility.yul\":6956:6968   */\n      add\n        /* \"#utility.yul\":6949:6968   */\n      swap1\n      pop\n        /* \"#utility.yul\":6608:6974   */\n      swap2\n      swap1\n      pop\n      jump\t// out\n        /* \"#utility.yul\":6980:7399   */\n    tag_35:\n        /* \"#utility.yul\":7146:7150   */\n      0x00\n        /* \"#utility.yul\":7184:7186   */\n      0x20\n        /* \"#utility.yul\":7173:7182   */\n      dup3\n        /* \"#utility.yul\":7169:7187   */\n      add\n        /* \"#utility.yul\":7161:7187   */\n      swap1\n      pop\n        /* \"#utility.yul\":7233:7242   */\n      dup2\n        /* \"#utility.yul\":7227:7231   */\n      dup2\n        /* \"#utility.yul\":7223:7243   */\n      sub\n        /* \"#utility.yul\":7219:7220   */\n      0x00\n        /* \"#utility.yul\":7208:7217   */\n      dup4\n        /* \"#utility.yul\":7204:7221   */\n      add\n        /* \"#utility.yul\":7197:7244   */\n      mstore\n        /* \"#utility.yul\":7261:7392   */\n      tag_127\n        /* \"#utility.yul\":7387:7391   */\n      dup2\n        /* \"#utility.yul\":7261:7392   */\n      tag_71\n      jump\t// in\n    tag_127:\n        /* \"#utility.yul\":7253:7392   */\n      swap1\n      pop\n        /* \"#utility.yul\":6980:7399   */\n      swap2\n      swap1\n      pop\n      jump\t// out\n        /* \"#utility.yul\":7405:7720   */\n    tag_72:\n        /* \"#utility.yul\":7545:7579   */\n      0x4e756d626572206f766572666c6f77206f6363757273207768656e2063616c63\n        /* \"#utility.yul\":7541:7542   */\n      0x00\n        /* \"#utility.yul\":7533:7539   */\n      dup3\n        /* \"#utility.yul\":7529:7543   */\n      add\n        /* \"#utility.yul\":7522:7580   */\n      mstore\n        /* \"#utility.yul\":7614:7648   */\n      0x756c617465207469636b657420707269636520696e205f626574612f5f64656e\n        /* \"#utility.yul\":7609:7611   */\n      0x20\n        /* \"#utility.yul\":7601:7607   */\n      dup3\n        /* \"#utility.yul\":7597:7612   */\n      add\n        /* \"#utility.yul\":7590:7649   */\n      mstore\n        /* \"#utility.yul\":7683:7712   */\n      0x6f6d696e61746f722a692a2a5f616c706861202b2067616d6d612e0000000000\n        /* \"#utility.yul\":7678:7680   */\n      0x40\n        /* \"#utility.yul\":7670:7676   */\n      dup3\n        /* \"#utility.yul\":7666:7681   */\n      add\n        /* \"#utility.yul\":7659:7713   */\n      mstore\n        /* \"#utility.yul\":7405:7720   */\n      pop\n      jump\t// out\n        /* \"#utility.yul\":7726:8092   */\n    tag_73:\n        /* \"#utility.yul\":7868:7871   */\n      0x00\n        /* \"#utility.yul\":7889:7956   */\n      tag_130\n        /* \"#utility.yul\":7953:7955   */\n      0x5b\n        /* \"#utility.yul\":7948:7951   */\n      dup4\n        /* \"#utility.yul\":7889:7956   */\n      tag_60\n      jump\t// in\n    tag_130:\n        /* \"#utility.yul\":7882:7956   */\n      swap2\n      pop\n        /* \"#utility.yul\":7965:8058   */\n      tag_131\n        /* \"#utility.yul\":8054:8057   */\n      dup3\n        /* \"#utility.yul\":7965:8058   */\n      tag_72\n      jump\t// in\n    tag_131:\n        /* \"#utility.yul\":8083:8085   */\n      0x60\n        /* \"#utility.yul\":8078:8081   */\n      dup3\n        /* \"#utility.yul\":8074:8086   */\n      add\n        /* \"#utility.yul\":8067:8086   */\n      swap1\n      pop\n        /* \"#utility.yul\":7726:8092   */\n      swap2\n      swap1\n      pop\n      jump\t// out\n        /* \"#utility.yul\":8098:8517   */\n    tag_40:\n        /* \"#utility.yul\":8264:8268   */\n      0x00\n        /* \"#utility.yul\":8302:8304   */\n      0x20\n        /* \"#utility.yul\":8291:8300   */\n      dup3\n        /* \"#utility.yul\":8287:8305   */\n      add\n        /* \"#utility.yul\":8279:8305   */\n      swap1\n      pop\n        /* \"#utility.yul\":8351:8360   */\n      dup2\n        /* \"#utility.yul\":8345:8349   */\n      dup2\n        /* \"#utility.yul\":8341:8361   */\n      sub\n        /* \"#utility.yul\":8337:8338   */\n      0x00\n        /* \"#utility.yul\":8326:8335   */\n      dup4\n        /* \"#utility.yul\":8322:8339   */\n      add\n        /* \"#utility.yul\":8315:8362   */\n      mstore\n        /* \"#utility.yul\":8379:8510   */\n      tag_133\n        /* \"#utility.yul\":8505:8509   */\n      dup2\n        /* \"#utility.yul\":8379:8510   */\n      tag_73\n      jump\t// in\n    tag_133:\n        /* \"#utility.yul\":8371:8510   */\n      swap1\n      pop\n        /* \"#utility.yul\":8098:8517   */\n      swap2\n      swap1\n      pop\n      jump\t// out\n        /* \"#utility.yul\":8523:8703   */\n    tag_45:\n        /* \"#utility.yul\":8571:8648   */\n      0x4e487b7100000000000000000000000000000000000000000000000000000000\n        /* \"#utility.yul\":8568:8569   */\n      0x00\n        /* \"#utility.yul\":8561:8649   */\n      mstore\n        /* \"#utility.yul\":8668:8672   */\n      0x12\n        /* \"#utility.yul\":8665:8666   */\n      0x04\n        /* \"#utility.yul\":8658:8673   */\n      mstore\n        /* \"#utility.yul\":8692:8696   */\n      0x24\n        /* \"#utility.yul\":8689:8690   */\n      0x00\n        /* \"#utility.yul\":8682:8697   */\n      revert\n\n    auxdata: 0xa2646970667358221220e9a8139cdcbdb6ceaab2fd96b2ab5291f02e031b434b8e5adb0bb54dc1b173bc64736f6c63430008120033\n}\n",
				"bytecode": {
					"linkReferences": {},
					"object": "6108ce610053600b82828239805160001a607314610046577f4e487b7100000000000000000000000000000000000000000000000000000000600052600060045260246000fd5b30600052607381538281f3fe73000000000000000000000000000000000000000030146080604052600436106100355760003560e01c80630d93e6091461003a575b600080fd5b610054600480360381019061004f9190610386565b61006a565b60405161006191906103c2565b60405180910390f35b60006005600211156100b1576040517f08c379a00000000000000000000000000000000000000000000000000000000081526004016100a890610460565b60405180910390fd5b60006001905060006001905060005b600281101561012e576100d38286610293565b80935081945050508261011b576040517f08c379a0000000000000000000000000000000000000000000000000000000008152600401610112906104f2565b60405180910390fd5b808061012690610541565b9150506100c0565b5061013a816064610293565b809250819350505081610182576040517f08c379a000000000000000000000000000000000000000000000000000000000815260040161017990610621565b60405180910390fd5b61018e816103e86102e6565b8092508193505050816101d6576040517f08c379a00000000000000000000000000000000000000000000000000000000081526004016101cd906106d9565b60405180910390fd5b6101e881670de0b6b3a7640000610293565b809250819350505081610230576040517f08c379a000000000000000000000000000000000000000000000000000000000815260040161022790610791565b60405180910390fd5b61024181662386f26fc1000061031c565b809250819350505081610289576040517f08c379a000000000000000000000000000000000000000000000000000000000815260040161028090610849565b60405180910390fd5b8092505050919050565b600080600084036102ab5760016000915091506102df565b60008385029050838582816102c3576102c2610869565b5b04146102d65760008092509250506102df565b60018192509250505b9250929050565b600080600083036102fd5760008091509150610315565b600183858161030f5761030e610869565b5b04915091505b9250929050565b600080600083850190508481101561033b576000809250925050610344565b60018192509250505b9250929050565b600080fd5b6000819050919050565b61036381610350565b811461036e57600080fd5b50565b6000813590506103808161035a565b92915050565b60006020828403121561039c5761039b61034b565b5b60006103aa84828501610371565b91505092915050565b6103bc81610350565b82525050565b60006020820190506103d760008301846103b3565b92915050565b600082825260208201905092915050565b7f546f2061766f6964206f766572666c6f772c20616c706861203c3d2035206f6e60008201527f6c79000000000000000000000000000000000000000000000000000000000000602082015250565b600061044a6022836103dd565b9150610455826103ee565b604082019050919050565b600060208201905081810360008301526104798161043d565b9050919050565b7f4e756d626572206f766572666c6f77206f6363757273207768656e2063616c6360008201527f756c617465207469636b657420707269636520696e20692a2a5f616c7068612e602082015250565b60006104dc6040836103dd565b91506104e782610480565b604082019050919050565b6000602082019050818103600083015261050b816104cf565b9050919050565b7f4e487b7100000000000000000000000000000000000000000000000000000000600052601160045260246000fd5b600061054c82610350565b91507fffffffffffffffffffffffffffffffffffffffffffffffffffffffffffffffff820361057e5761057d610512565b5b600182019050919050565b7f4e756d626572206f766572666c6f77206f6363757273207768656e2063616c6360008201527f756c617465207469636b657420707269636520696e205f626574612a692a2a5f60208201527f616c7068612e0000000000000000000000000000000000000000000000000000604082015250565b600061060b6046836103dd565b915061061682610589565b606082019050919050565b6000602082019050818103600083015261063a816105fe565b9050919050565b7f4e756d626572206f766572666c6f77206f6363757273207768656e2063616c6360008201527f756c617465207469636b657420707269636520696e205f626574612f5f64656e60208201527f6f6d696e61746f722a692a2a5f616c7068612e00000000000000000000000000604082015250565b60006106c36053836103dd565b91506106ce82610641565b606082019050919050565b600060208201905081810360008301526106f2816106b6565b9050919050565b7f4e756d626572206f766572666c6f77206f6363757273207768656e2063616c6360008201527f756c617465207469636b657420707269636520696e20285f626574612f5f646560208201527f6e6f6d696e61746f722a692a2a5f616c706861292a31302a2a31382e00000000604082015250565b600061077b605c836103dd565b9150610786826106f9565b606082019050919050565b600060208201905081810360008301526107aa8161076e565b9050919050565b7f4e756d626572206f766572666c6f77206f6363757273207768656e2063616c6360008201527f756c617465207469636b657420707269636520696e205f626574612f5f64656e60208201527f6f6d696e61746f722a692a2a5f616c706861202b2067616d6d612e0000000000604082015250565b6000610833605b836103dd565b915061083e826107b1565b606082019050919050565b6000602082019050818103600083015261086281610826565b9050919050565b7f4e487b7100000000000000000000000000000000000000000000000000000000600052601260045260246000fdfea2646970667358221220e9a8139cdcbdb6ceaab2fd96b2ab5291f02e031b434b8e5adb0bb54dc1b173bc64736f6c63430008120033",
					"opcodes": "PUSH2 0x8CE PUSH2 0x53 PUSH1 0xB DUP3 DUP3 DUP3 CODECOPY DUP1 MLOAD PUSH1 0x0 BYTE PUSH1 0x73 EQ PUSH2 0x46 JUMPI PUSH32 0x4E487B7100000000000000000000000000000000000000000000000000000000 PUSH1 0x0 MSTORE PUSH1 0x0 PUSH1 0x4 MSTORE PUSH1 0x24 PUSH1 0x0 REVERT JUMPDEST ADDRESS PUSH1 0x0 MSTORE PUSH1 0x73 DUP2 MSTORE8 DUP3 DUP2 RETURN INVALID PUSH20 0x0 ADDRESS EQ PUSH1 0x80 PUSH1 0x40 MSTORE PUSH1 0x4 CALLDATASIZE LT PUSH2 0x35 JUMPI PUSH1 0x0 CALLDATALOAD PUSH1 0xE0 SHR DUP1 PUSH4 0xD93E609 EQ PUSH2 0x3A JUMPI JUMPDEST PUSH1 0x0 DUP1 REVERT JUMPDEST PUSH2 0x54 PUSH1 0x4 DUP1 CALLDATASIZE SUB DUP2 ADD SWAP1 PUSH2 0x4F SWAP2 SWAP1 PUSH2 0x386 JUMP JUMPDEST PUSH2 0x6A JUMP JUMPDEST PUSH1 0x40 MLOAD PUSH2 0x61 SWAP2 SWAP1 PUSH2 0x3C2 JUMP JUMPDEST PUSH1 0x40 MLOAD DUP1 SWAP2 SUB SWAP1 RETURN JUMPDEST PUSH1 0x0 PUSH1 0x5 PUSH1 0x2 GT ISZERO PUSH2 0xB1 JUMPI PUSH1 0x40 MLOAD PUSH32 0x8C379A000000000000000000000000000000000000000000000000000000000 DUP2 MSTORE PUSH1 0x4 ADD PUSH2 0xA8 SWAP1 PUSH2 0x460 JUMP JUMPDEST PUSH1 0x40 MLOAD DUP1 SWAP2 SUB SWAP1 REVERT JUMPDEST PUSH1 0x0 PUSH1 0x1 SWAP1 POP PUSH1 0x0 PUSH1 0x1 SWAP1 POP PUSH1 0x0 JUMPDEST PUSH1 0x2 DUP2 LT ISZERO PUSH2 0x12E JUMPI PUSH2 0xD3 DUP3 DUP7 PUSH2 0x293 JUMP JUMPDEST DUP1 SWAP4 POP DUP2 SWAP5 POP POP POP DUP3 PUSH2 0x11B JUMPI PUSH1 0x40 MLOAD PUSH32 0x8C379A000000000000000000000000000000000000000000000000000000000 DUP2 MSTORE PUSH1 0x4 ADD PUSH2 0x112 SWAP1 PUSH2 0x4F2 JUMP JUMPDEST PUSH1 0x40 MLOAD DUP1 SWAP2 SUB SWAP1 REVERT JUMPDEST DUP1 DUP1 PUSH2 0x126 SWAP1 PUSH2 0x541 JUMP JUMPDEST SWAP2 POP POP PUSH2 0xC0 JUMP JUMPDEST POP PUSH2 0x13A DUP2 PUSH1 0x64 PUSH2 0x293 JUMP JUMPDEST DUP1 SWAP3 POP DUP2 SWAP4 POP POP POP DUP2 PUSH2 0x182 JUMPI PUSH1 0x40 MLOAD PUSH32 0x8C379A000000000000000000000000000000000000000000000000000000000 DUP2 MSTORE PUSH1 0x4 ADD PUSH2 0x179 SWAP1 PUSH2 0x621 JUMP JUMPDEST PUSH1 0x40 MLOAD DUP1 SWAP2 SUB SWAP1 REVERT JUMPDEST PUSH2 0x18E DUP2 PUSH2 0x3E8 PUSH2 0x2E6 JUMP JUMPDEST DUP1 SWAP3 POP DUP2 SWAP4 POP POP POP DUP2 PUSH2 0x1D6 JUMPI PUSH1 0x40 MLOAD PUSH32 0x8C379A000000000000000000000000000000000000000000000000000000000 DUP2 MSTORE PUSH1 0x4 ADD PUSH2 0x1CD SWAP1 PUSH2 0x6D9 JUMP JUMPDEST PUSH1 0x40 MLOAD DUP1 SWAP2 SUB SWAP1 REVERT JUMPDEST PUSH2 0x1E8 DUP2 PUSH8 0xDE0B6B3A7640000 PUSH2 0x293 JUMP JUMPDEST DUP1 SWAP3 POP DUP2 SWAP4 POP POP POP DUP2 PUSH2 0x230 JUMPI PUSH1 0x40 MLOAD PUSH32 0x8C379A000000000000000000000000000000000000000000000000000000000 DUP2 MSTORE PUSH1 0x4 ADD PUSH2 0x227 SWAP1 PUSH2 0x791 JUMP JUMPDEST PUSH1 0x40 MLOAD DUP1 SWAP2 SUB SWAP1 REVERT JUMPDEST PUSH2 0x241 DUP2 PUSH7 0x2386F26FC10000 PUSH2 0x31C JUMP JUMPDEST DUP1 SWAP3 POP DUP2 SWAP4 POP POP POP DUP2 PUSH2 0x289 JUMPI PUSH1 0x40 MLOAD PUSH32 0x8C379A000000000000000000000000000000000000000000000000000000000 DUP2 MSTORE PUSH1 0x4 ADD PUSH2 0x280 SWAP1 PUSH2 0x849 JUMP JUMPDEST PUSH1 0x40 MLOAD DUP1 SWAP2 SUB SWAP1 REVERT JUMPDEST DUP1 SWAP3 POP POP POP SWAP2 SWAP1 POP JUMP JUMPDEST PUSH1 0x0 DUP1 PUSH1 0x0 DUP5 SUB PUSH2 0x2AB JUMPI PUSH1 0x1 PUSH1 0x0 SWAP2 POP SWAP2 POP PUSH2 0x2DF JUMP JUMPDEST PUSH1 0x0 DUP4 DUP6 MUL SWAP1 POP DUP4 DUP6 DUP3 DUP2 PUSH2 0x2C3 JUMPI PUSH2 0x2C2 PUSH2 0x869 JUMP JUMPDEST JUMPDEST DIV EQ PUSH2 0x2D6 JUMPI PUSH1 0x0 DUP1 SWAP3 POP SWAP3 POP POP PUSH2 0x2DF JUMP JUMPDEST PUSH1 0x1 DUP2 SWAP3 POP SWAP3 POP POP JUMPDEST SWAP3 POP SWAP3 SWAP1 POP JUMP JUMPDEST PUSH1 0x0 DUP1 PUSH1 0x0 DUP4 SUB PUSH2 0x2FD JUMPI PUSH1 0x0 DUP1 SWAP2 POP SWAP2 POP PUSH2 0x315 JUMP JUMPDEST PUSH1 0x1 DUP4 DUP6 DUP2 PUSH2 0x30F JUMPI PUSH2 0x30E PUSH2 0x869 JUMP JUMPDEST JUMPDEST DIV SWAP2 POP SWAP2 POP JUMPDEST SWAP3 POP SWAP3 SWAP1 POP JUMP JUMPDEST PUSH1 0x0 DUP1 PUSH1 0x0 DUP4 DUP6 ADD SWAP1 POP DUP5 DUP2 LT ISZERO PUSH2 0x33B JUMPI PUSH1 0x0 DUP1 SWAP3 POP SWAP3 POP POP PUSH2 0x344 JUMP JUMPDEST PUSH1 0x1 DUP2 SWAP3 POP SWAP3 POP POP JUMPDEST SWAP3 POP SWAP3 SWAP1 POP JUMP JUMPDEST PUSH1 0x0 DUP1 REVERT JUMPDEST PUSH1 0x0 DUP2 SWAP1 POP SWAP2 SWAP1 POP JUMP JUMPDEST PUSH2 0x363 DUP2 PUSH2 0x350 JUMP JUMPDEST DUP2 EQ PUSH2 0x36E JUMPI PUSH1 0x0 DUP1 REVERT JUMPDEST POP JUMP JUMPDEST PUSH1 0x0 DUP2 CALLDATALOAD SWAP1 POP PUSH2 0x380 DUP2 PUSH2 0x35A JUMP JUMPDEST SWAP3 SWAP2 POP POP JUMP JUMPDEST PUSH1 0x0 PUSH1 0x20 DUP3 DUP5 SUB SLT ISZERO PUSH2 0x39C JUMPI PUSH2 0x39B PUSH2 0x34B JUMP JUMPDEST JUMPDEST PUSH1 0x0 PUSH2 0x3AA DUP5 DUP3 DUP6 ADD PUSH2 0x371 JUMP JUMPDEST SWAP2 POP POP SWAP3 SWAP2 POP POP JUMP JUMPDEST PUSH2 0x3BC DUP2 PUSH2 0x350 JUMP JUMPDEST DUP3 MSTORE POP POP JUMP JUMPDEST PUSH1 0x0 PUSH1 0x20 DUP3 ADD SWAP1 POP PUSH2 0x3D7 PUSH1 0x0 DUP4 ADD DUP5 PUSH2 0x3B3 JUMP JUMPDEST SWAP3 SWAP2 POP POP JUMP JUMPDEST PUSH1 0x0 DUP3 DUP3 MSTORE PUSH1 0x20 DUP3 ADD SWAP1 POP SWAP3 SWAP2 POP POP JUMP JUMPDEST PUSH32 0x546F2061766F6964206F766572666C6F772C20616C706861203C3D2035206F6E PUSH1 0x0 DUP3 ADD MSTORE PUSH32 0x6C79000000000000000000000000000000000000000000000000000000000000 PUSH1 0x20 DUP3 ADD MSTORE POP JUMP JUMPDEST PUSH1 0x0 PUSH2 0x44A PUSH1 0x22 DUP4 PUSH2 0x3DD JUMP JUMPDEST SWAP2 POP PUSH2 0x455 DUP3 PUSH2 0x3EE JUMP JUMPDEST PUSH1 0x40 DUP3 ADD SWAP1 POP SWAP2 SWAP1 POP JUMP JUMPDEST PUSH1 0x0 PUSH1 0x20 DUP3 ADD SWAP1 POP DUP2 DUP2 SUB PUSH1 0x0 DUP4 ADD MSTORE PUSH2 0x479 DUP2 PUSH2 0x43D JUMP JUMPDEST SWAP1 POP SWAP2 SWAP1 POP JUMP JUMPDEST PUSH32 0x4E756D626572206F766572666C6F77206F6363757273207768656E2063616C63 PUSH1 0x0 DUP3 ADD MSTORE PUSH32 0x756C617465207469636B657420707269636520696E20692A2A5F616C7068612E PUSH1 0x20 DUP3 ADD MSTORE POP JUMP JUMPDEST PUSH1 0x0 PUSH2 0x4DC PUSH1 0x40 DUP4 PUSH2 0x3DD JUMP JUMPDEST SWAP2 POP PUSH2 0x4E7 DUP3 PUSH2 0x480 JUMP JUMPDEST PUSH1 0x40 DUP3 ADD SWAP1 POP SWAP2 SWAP1 POP JUMP JUMPDEST PUSH1 0x0 PUSH1 0x20 DUP3 ADD SWAP1 POP DUP2 DUP2 SUB PUSH1 0x0 DUP4 ADD MSTORE PUSH2 0x50B DUP2 PUSH2 0x4CF JUMP JUMPDEST SWAP1 POP SWAP2 SWAP1 POP JUMP JUMPDEST PUSH32 0x4E487B7100000000000000000000000000000000000000000000000000000000 PUSH1 0x0 MSTORE PUSH1 0x11 PUSH1 0x4 MSTORE PUSH1 0x24 PUSH1 0x0 REVERT JUMPDEST PUSH1 0x0 PUSH2 0x54C DUP3 PUSH2 0x350 JUMP JUMPDEST SWAP2 POP PUSH32 0xFFFFFFFFFFFFFFFFFFFFFFFFFFFFFFFFFFFFFFFFFFFFFFFFFFFFFFFFFFFFFFFF DUP3 SUB PUSH2 0x57E JUMPI PUSH2 0x57D PUSH2 0x512 JUMP JUMPDEST JUMPDEST PUSH1 0x1 DUP3 ADD SWAP1 POP SWAP2 SWAP1 POP JUMP JUMPDEST PUSH32 0x4E756D626572206F766572666C6F77206F6363757273207768656E2063616C63 PUSH1 0x0 DUP3 ADD MSTORE PUSH32 0x756C617465207469636B657420707269636520696E205F626574612A692A2A5F PUSH1 0x20 DUP3 ADD MSTORE PUSH32 0x616C7068612E0000000000000000000000000000000000000000000000000000 PUSH1 0x40 DUP3 ADD MSTORE POP JUMP JUMPDEST PUSH1 0x0 PUSH2 0x60B PUSH1 0x46 DUP4 PUSH2 0x3DD JUMP JUMPDEST SWAP2 POP PUSH2 0x616 DUP3 PUSH2 0x589 JUMP JUMPDEST PUSH1 0x60 DUP3 ADD SWAP1 POP SWAP2 SWAP1 POP JUMP JUMPDEST PUSH1 0x0 PUSH1 0x20 DUP3 ADD SWAP1 POP DUP2 DUP2 SUB PUSH1 0x0 DUP4 ADD MSTORE PUSH2 0x63A DUP2 PUSH2 0x5FE JUMP JUMPDEST SWAP1 POP SWAP2 SWAP1 POP JUMP JUMPDEST PUSH32 0x4E756D626572206F766572666C6F77206F6363757273207768656E2063616C63 PUSH1 0x0 DUP3 ADD MSTORE PUSH32 0x756C617465207469636B657420707269636520696E205F626574612F5F64656E PUSH1 0x20 DUP3 ADD MSTORE PUSH32 0x6F6D696E61746F722A692A2A5F616C7068612E00000000000000000000000000 PUSH1 0x40 DUP3 ADD MSTORE POP JUMP JUMPDEST PUSH1 0x0 PUSH2 0x6C3 PUSH1 0x53 DUP4 PUSH2 0x3DD JUMP JUMPDEST SWAP2 POP PUSH2 0x6CE DUP3 PUSH2 0x641 JUMP JUMPDEST PUSH1 0x60 DUP3 ADD SWAP1 POP SWAP2 SWAP1 POP JUMP JUMPDEST PUSH1 0x0 PUSH1 0x20 DUP3 ADD SWAP1 POP DUP2 DUP2 SUB PUSH1 0x0 DUP4 ADD MSTORE PUSH2 0x6F2 DUP2 PUSH2 0x6B6 JUMP JUMPDEST SWAP1 POP SWAP2 SWAP1 POP JUMP JUMPDEST PUSH32 0x4E756D626572206F766572666C6F77206F6363757273207768656E2063616C63 PUSH1 0x0 DUP3 ADD MSTORE PUSH32 0x756C617465207469636B657420707269636520696E20285F626574612F5F6465 PUSH1 0x20 DUP3 ADD MSTORE PUSH32 0x6E6F6D696E61746F722A692A2A5F616C706861292A31302A2A31382E00000000 PUSH1 0x40 DUP3 ADD MSTORE POP JUMP JUMPDEST PUSH1 0x0 PUSH2 0x77B PUSH1 0x5C DUP4 PUSH2 0x3DD JUMP JUMPDEST SWAP2 POP PUSH2 0x786 DUP3 PUSH2 0x6F9 JUMP JUMPDEST PUSH1 0x60 DUP3 ADD SWAP1 POP SWAP2 SWAP1 POP JUMP JUMPDEST PUSH1 0x0 PUSH1 0x20 DUP3 ADD SWAP1 POP DUP2 DUP2 SUB PUSH1 0x0 DUP4 ADD MSTORE PUSH2 0x7AA DUP2 PUSH2 0x76E JUMP JUMPDEST SWAP1 POP SWAP2 SWAP1 POP JUMP JUMPDEST PUSH32 0x4E756D626572206F766572666C6F77206F6363757273207768656E2063616C63 PUSH1 0x0 DUP3 ADD MSTORE PUSH32 0x756C617465207469636B657420707269636520696E205F626574612F5F64656E PUSH1 0x20 DUP3 ADD MSTORE PUSH32 0x6F6D696E61746F722A692A2A5F616C706861202B2067616D6D612E0000000000 PUSH1 0x40 DUP3 ADD MSTORE POP JUMP JUMPDEST PUSH1 0x0 PUSH2 0x833 PUSH1 0x5B DUP4 PUSH2 0x3DD JUMP JUMPDEST SWAP2 POP PUSH2 0x83E DUP3 PUSH2 0x7B1 JUMP JUMPDEST PUSH1 0x60 DUP3 ADD SWAP1 POP SWAP2 SWAP1 POP JUMP JUMPDEST PUSH1 0x0 PUSH1 0x20 DUP3 ADD SWAP1 POP DUP2 DUP2 SUB PUSH1 0x0 DUP4 ADD MSTORE PUSH2 0x862 DUP2 PUSH2 0x826 JUMP JUMPDEST SWAP1 POP SWAP2 SWAP1 POP JUMP JUMPDEST PUSH32 0x4E487B7100000000000000000000000000000000000000000000000000000000 PUSH1 0x0 MSTORE PUSH1 0x12 PUSH1 0x4 MSTORE PUSH1 0x24 PUSH1 0x0 REVERT INVALID LOG2 PUSH5 0x6970667358 0x22 SLT KECCAK256 0xE9 0xA8 SGT SWAP13 0xDC 0xBD 0xB6 0xCE 0xAA 0xB2 REVERT SWAP7 0xB2 0xAB MSTORE SWAP2 CREATE 0x2E SUB SHL NUMBER 0x4B DUP15 GAS 0xDB SIGNEXTEND 0xB5 0x4D 0xC1 0xB1 PUSH20 0xBC64736F6C634300081200330000000000000000 "
				},
				"gasEstimates": {
					"creation": {
						"codeDepositCost": "450800",
						"executionCost": "511",
						"totalCost": "451311"
					},
					"external": {
						"ticketPrice(uint256)": "infinite"
					}
				},
				"methodIdentifiers": {
					"ticketPrice(uint256)": "0d93e609"
				}
			},
			"storageLayout": {
				"storage": [],
				"types": null
			},
			"userdoc": {
				"kind": "user",
				"methods": {},
				"version": 1
			}
		}
	}
}