{
	"degen/DegenMoneyLib.sol": {
		"DegenMoneyLib": {
			"abi": [
				{
					"inputs": [],
					"name": "groupCreateMinFee",
					"outputs": [
						{
							"internalType": "uint256",
							"name": "money",
							"type": "uint256"
						}
					],
					"stateMutability": "pure",
					"type": "function"
				},
				{
					"inputs": [],
					"name": "taskCreateMinFee",
					"outputs": [
						{
							"internalType": "uint256",
							"name": "money",
							"type": "uint256"
						}
					],
					"stateMutability": "pure",
					"type": "function"
				},
				{
					"inputs": [
						{
							"internalType": "uint256",
							"name": "ticketIncome",
							"type": "uint256"
						}
					],
					"name": "ticketIncome2GroupLeader",
					"outputs": [
						{
							"internalType": "uint256",
							"name": "money",
							"type": "uint256"
						}
					],
					"stateMutability": "pure",
					"type": "function"
				},
				{
					"inputs": [
						{
							"internalType": "uint256",
							"name": "ticketIncome",
							"type": "uint256"
						},
						{
							"internalType": "uint256",
							"name": "memNum",
							"type": "uint256"
						}
					],
					"name": "ticketIncome2GroupMember",
					"outputs": [
						{
							"internalType": "uint256",
							"name": "money",
							"type": "uint256"
						}
					],
					"stateMutability": "pure",
					"type": "function"
				},
				{
					"inputs": [
						{
							"internalType": "uint256",
							"name": "ticketIncome",
							"type": "uint256"
						}
					],
					"name": "ticketIncome2RewardPool",
					"outputs": [
						{
							"internalType": "uint256",
							"name": "money",
							"type": "uint256"
						}
					],
					"stateMutability": "pure",
					"type": "function"
				},
				{
					"inputs": [
						{
							"internalType": "uint256",
							"name": "ith",
							"type": "uint256"
						},
						{
							"internalType": "uint256",
							"name": "totalRewardPool",
							"type": "uint256"
						},
						{
							"internalType": "bool",
							"name": "isMonopolyPenalty",
							"type": "bool"
						}
					],
					"name": "ticketPrice",
					"outputs": [
						{
							"internalType": "uint256",
							"name": "price",
							"type": "uint256"
						}
					],
					"stateMutability": "pure",
					"type": "function"
				}
			],
			"devdoc": {
				"kind": "dev",
				"methods": {},
				"version": 1
			},
			"evm": {
				"assembly": "    /* \"degen/DegenMoneyLib.sol\":123:4392  library DegenMoneyLib {... */\n  dataSize(sub_0)\n  dataOffset(sub_0)\n  0x0b\n  dup3\n  dup3\n  dup3\n  codecopy\n  dup1\n  mload\n  0x00\n  byte\n  0x73\n  eq\n  tag_1\n  jumpi\n  mstore(0x00, shl(0xe0, 0x4e487b71))\n  mstore(0x04, 0x00)\n  revert(0x00, 0x24)\ntag_1:\n  mstore(0x00, address)\n  0x73\n  dup2\n  mstore8\n  dup3\n  dup2\n  return\nstop\n\nsub_0: assembly {\n        /* \"degen/DegenMoneyLib.sol\":123:4392  library DegenMoneyLib {... */\n      eq(address, deployTimeAddress())\n      mstore(0x40, 0x80)\n      jumpi(tag_1, lt(calldatasize, 0x04))\n      shr(0xe0, calldataload(0x00))\n      dup1\n      0x26d0a334\n      eq\n      tag_2\n      jumpi\n      dup1\n      0x2e26fb4a\n      eq\n      tag_3\n      jumpi\n      dup1\n      0x627ca922\n      eq\n      tag_4\n      jumpi\n      dup1\n      0x84105419\n      eq\n      tag_5\n      jumpi\n      dup1\n      0x91096a3c\n      eq\n      tag_6\n      jumpi\n      dup1\n      0xe6ca2a8d\n      eq\n      tag_7\n      jumpi\n    tag_1:\n      0x00\n      dup1\n      revert\n        /* \"degen/DegenMoneyLib.sol\":1077:1186  function groupCreateMinFee() public pure returns (uint256 money) {... */\n    tag_2:\n        /* \"degen/DegenMoneyLib.sol\":324:334  1 * 10**18 */\n      0x0de0b6b3a7640000\n        /* \"degen/DegenMoneyLib.sol\":1077:1186  function groupCreateMinFee() public pure returns (uint256 money) {... */\n    tag_8:\n      mload(0x40)\n        /* \"#utility.yul\":168:193   */\n      swap1\n      dup2\n      mstore\n        /* \"#utility.yul\":156:158   */\n      0x20\n        /* \"#utility.yul\":141:159   */\n      add\n        /* \"degen/DegenMoneyLib.sol\":1077:1186  function groupCreateMinFee() public pure returns (uint256 money) {... */\n      mload(0x40)\n      dup1\n      swap2\n      sub\n      swap1\n      return\n        /* \"degen/DegenMoneyLib.sol\":3382:3792  function ticketIncome2GroupLeader(uint256 ticketIncome) public pure returns (uint256 money) {... */\n    tag_3:\n      tag_8\n      tag_13\n      calldatasize\n      0x04\n      tag_14\n      jump\t// in\n    tag_13:\n      tag_15\n      jump\t// in\n        /* \"degen/DegenMoneyLib.sol\":1194:2959  function ticketPrice(uint256 ith, uint256 totalRewardPool, bool isMonopolyPenalty) public pure returns (uint256 price) {... */\n    tag_4:\n      tag_8\n      tag_18\n      calldatasize\n      0x04\n      tag_19\n      jump\t// in\n    tag_18:\n      tag_20\n      jump\t// in\n        /* \"degen/DegenMoneyLib.sol\":3800:4387  function ticketIncome2GroupMember(uint256 ticketIncome, uint256 memNum) public pure returns (uint256 money) {... */\n    tag_5:\n      tag_8\n      tag_23\n      calldatasize\n      0x04\n      tag_24\n      jump\t// in\n    tag_23:\n      tag_25\n      jump\t// in\n        /* \"degen/DegenMoneyLib.sol\":962:1069  function taskCreateMinFee() public pure returns (uint256 money) {... */\n    tag_6:\n        /* \"degen/DegenMoneyLib.sol\":260:271  10 * 10**18 */\n      0x8ac7230489e80000\n        /* \"degen/DegenMoneyLib.sol\":962:1069  function taskCreateMinFee() public pure returns (uint256 money) {... */\n      jump(tag_8)\n        /* \"degen/DegenMoneyLib.sol\":2967:3374  function ticketIncome2RewardPool(uint256 ticketIncome) public pure returns (uint256 money) {... */\n    tag_7:\n      tag_8\n      tag_31\n      calldatasize\n      0x04\n      tag_14\n      jump\t// in\n    tag_31:\n      tag_32\n      jump\t// in\n        /* \"degen/DegenMoneyLib.sol\":3382:3792  function ticketIncome2GroupLeader(uint256 ticketIncome) public pure returns (uint256 money) {... */\n    tag_15:\n        /* \"degen/DegenMoneyLib.sol\":3459:3472  uint256 money */\n      0x00\n      dup1\n      dup1\n        /* \"degen/DegenMoneyLib.sol\":3549:3582  SafeMath.tryMul(ticketIncome, _a) */\n      tag_36\n        /* \"degen/DegenMoneyLib.sol\":3565:3577  ticketIncome */\n      dup5\n        /* \"degen/DegenMoneyLib.sol\":371:372  3 */\n      0x03\n        /* \"degen/DegenMoneyLib.sol\":3549:3564  SafeMath.tryMul */\n      tag_37\n        /* \"degen/DegenMoneyLib.sol\":3549:3582  SafeMath.tryMul(ticketIncome, _a) */\n      jump\t// in\n    tag_36:\n        /* \"degen/DegenMoneyLib.sol\":3537:3582  (flag, m) = SafeMath.tryMul(ticketIncome, _a) */\n      swap1\n      swap3\n      pop\n      swap1\n      pop\n      dup2\n        /* \"degen/DegenMoneyLib.sol\":3593:3646  require(flag, \"[ticketIncome2GroupLeader] overflow.\") */\n      tag_38\n      jumpi\n      mload(0x40)\n      shl(0xe5, 0x461bcd)\n      dup2\n      mstore\n      0x04\n      add\n      tag_39\n      swap1\n      tag_40\n      jump\t// in\n    tag_39:\n      mload(0x40)\n      dup1\n      swap2\n      sub\n      swap1\n      revert\n    tag_38:\n        /* \"degen/DegenMoneyLib.sol\":3669:3701  SafeMath.tryDiv(m, _denominator) */\n      tag_41\n        /* \"degen/DegenMoneyLib.sol\":3685:3686  m */\n      dup2\n        /* \"degen/DegenMoneyLib.sol\":950:953  100 */\n      0x64\n        /* \"degen/DegenMoneyLib.sol\":3669:3684  SafeMath.tryDiv */\n      tag_42\n        /* \"degen/DegenMoneyLib.sol\":3669:3701  SafeMath.tryDiv(m, _denominator) */\n      jump\t// in\n    tag_41:\n        /* \"degen/DegenMoneyLib.sol\":3657:3701  (flag, m) = SafeMath.tryDiv(m, _denominator) */\n      swap1\n      swap3\n      pop\n      swap1\n      pop\n      dup2\n        /* \"degen/DegenMoneyLib.sol\":3712:3765  require(flag, \"[ticketIncome2GroupLeader] overflow.\") */\n      tag_43\n      jumpi\n      mload(0x40)\n      shl(0xe5, 0x461bcd)\n      dup2\n      mstore\n      0x04\n      add\n      tag_39\n      swap1\n      tag_40\n      jump\t// in\n    tag_43:\n        /* \"degen/DegenMoneyLib.sol\":3783:3784  m */\n      swap4\n        /* \"degen/DegenMoneyLib.sol\":3382:3792  function ticketIncome2GroupLeader(uint256 ticketIncome) public pure returns (uint256 money) {... */\n      swap3\n      pop\n      pop\n      pop\n      jump\t// out\n        /* \"degen/DegenMoneyLib.sol\":1194:2959  function ticketPrice(uint256 ith, uint256 totalRewardPool, bool isMonopolyPenalty) public pure returns (uint256 price) {... */\n    tag_20:\n        /* \"degen/DegenMoneyLib.sol\":1298:1311  uint256 price */\n      0x00\n        /* \"degen/DegenMoneyLib.sol\":1407:1411  true */\n      0x01\n      dup1\n        /* \"degen/DegenMoneyLib.sol\":1395:1404  bool flag */\n      0x00\n        /* \"degen/DegenMoneyLib.sol\":1457:1649  for (uint i=0; i < _alpha; i++) {... */\n    tag_49:\n        /* \"degen/DegenMoneyLib.sol\":718:719  2 */\n      0x02\n        /* \"degen/DegenMoneyLib.sol\":1472:1473  i */\n      dup2\n        /* \"degen/DegenMoneyLib.sol\":1472:1482  i < _alpha */\n      lt\n        /* \"degen/DegenMoneyLib.sol\":1457:1649  for (uint i=0; i < _alpha; i++) {... */\n      iszero\n      tag_50\n      jumpi\n        /* \"degen/DegenMoneyLib.sol\":1517:1541  SafeMath.tryMul(tp, ith) */\n      tag_52\n        /* \"degen/DegenMoneyLib.sol\":1533:1535  tp */\n      dup3\n        /* \"degen/DegenMoneyLib.sol\":1537:1540  ith */\n      dup9\n        /* \"degen/DegenMoneyLib.sol\":1517:1532  SafeMath.tryMul */\n      tag_37\n        /* \"degen/DegenMoneyLib.sol\":1517:1541  SafeMath.tryMul(tp, ith) */\n      jump\t// in\n    tag_52:\n        /* \"degen/DegenMoneyLib.sol\":1504:1541  (flag, tp) = SafeMath.tryMul(tp, ith) */\n      swap1\n      swap4\n      pop\n      swap2\n      pop\n      dup3\n        /* \"degen/DegenMoneyLib.sol\":1556:1637  require(flag, \"Number overflow occurs when calculate ticket price in i**_alpha.\") */\n      tag_53\n      jumpi\n      0x40\n      dup1\n      mload\n      shl(0xe5, 0x461bcd)\n      dup2\n      mstore\n        /* \"#utility.yul\":2066:2068   */\n      0x20\n        /* \"degen/DegenMoneyLib.sol\":1556:1637  require(flag, \"Number overflow occurs when calculate ticket price in i**_alpha.\") */\n      0x04\n      dup3\n      add\n        /* \"#utility.yul\":2048:2069   */\n      mstore\n        /* \"#utility.yul\":2085:2103   */\n      0x24\n      dup2\n      add\n        /* \"#utility.yul\":2078:2108   */\n      swap2\n      swap1\n      swap2\n      mstore\n      0x00\n      dup1\n      mload\n      0x20\n      data_3ea7e64d02bfa2ce3fc0ccd06ec6010a4af3c1c13862f1013ea695f2535f0f7a\n      dup4\n      codecopy\n      dup2\n      mload\n      swap2\n      mstore\n        /* \"#utility.yul\":2124:2142   */\n      0x44\n      dup3\n      add\n        /* \"#utility.yul\":2117:2179   */\n      mstore\n        /* \"#utility.yul\":2215:2249   */\n      0x756c617465207469636b657420707269636520696e20692a2a5f616c7068612e\n        /* \"#utility.yul\":2195:2213   */\n      0x64\n      dup3\n      add\n        /* \"#utility.yul\":2188:2250   */\n      mstore\n        /* \"#utility.yul\":2267:2286   */\n      0x84\n      add\n        /* \"degen/DegenMoneyLib.sol\":1556:1637  require(flag, \"Number overflow occurs when calculate ticket price in i**_alpha.\") */\n      tag_39\n        /* \"#utility.yul\":1864:2292   */\n      jump\n        /* \"degen/DegenMoneyLib.sol\":1556:1637  require(flag, \"Number overflow occurs when calculate ticket price in i**_alpha.\") */\n    tag_53:\n        /* \"degen/DegenMoneyLib.sol\":1484:1487  i++ */\n      dup1\n      tag_56\n      dup2\n      tag_57\n      jump\t// in\n    tag_56:\n      swap2\n      pop\n      pop\n        /* \"degen/DegenMoneyLib.sol\":1457:1649  for (uint i=0; i < _alpha; i++) {... */\n      jump(tag_49)\n    tag_50:\n      pop\n        /* \"degen/DegenMoneyLib.sol\":1674:1700  SafeMath.tryMul(tp, _beta) */\n      tag_58\n        /* \"degen/DegenMoneyLib.sol\":1690:1692  tp */\n      dup2\n        /* \"degen/DegenMoneyLib.sol\":759:761  10 */\n      0x0a\n        /* \"degen/DegenMoneyLib.sol\":1674:1689  SafeMath.tryMul */\n      tag_37\n        /* \"degen/DegenMoneyLib.sol\":1674:1700  SafeMath.tryMul(tp, _beta) */\n      jump\t// in\n    tag_58:\n        /* \"degen/DegenMoneyLib.sol\":1661:1700  (flag, tp) = SafeMath.tryMul(tp, _beta) */\n      swap1\n      swap3\n      pop\n      swap1\n      pop\n      dup2\n        /* \"degen/DegenMoneyLib.sol\":1711:1798  require(flag, \"Number overflow occurs when calculate ticket price in _beta*i**_alpha.\") */\n      tag_59\n      jumpi\n      mload(0x40)\n      shl(0xe5, 0x461bcd)\n      dup2\n      mstore\n        /* \"#utility.yul\":2771:2773   */\n      0x20\n        /* \"degen/DegenMoneyLib.sol\":1711:1798  require(flag, \"Number overflow occurs when calculate ticket price in _beta*i**_alpha.\") */\n      0x04\n      dup3\n      add\n        /* \"#utility.yul\":2753:2774   */\n      mstore\n        /* \"#utility.yul\":2810:2812   */\n      0x46\n        /* \"#utility.yul\":2790:2808   */\n      0x24\n      dup3\n      add\n        /* \"#utility.yul\":2783:2813   */\n      mstore\n      0x00\n      dup1\n      mload\n      0x20\n      data_3ea7e64d02bfa2ce3fc0ccd06ec6010a4af3c1c13862f1013ea695f2535f0f7a\n      dup4\n      codecopy\n      dup2\n      mload\n      swap2\n      mstore\n        /* \"#utility.yul\":2829:2847   */\n      0x44\n      dup3\n      add\n        /* \"#utility.yul\":2822:2884   */\n      mstore\n        /* \"#utility.yul\":2920:2954   */\n      0x756c617465207469636b657420707269636520696e205f626574612a692a2a5f\n        /* \"#utility.yul\":2900:2918   */\n      0x64\n      dup3\n      add\n        /* \"#utility.yul\":2893:2955   */\n      mstore\n      shl(0xd1, 0x30b638343097)\n        /* \"#utility.yul\":2971:2990   */\n      0x84\n      dup3\n      add\n        /* \"#utility.yul\":2964:3001   */\n      mstore\n        /* \"#utility.yul\":3018:3037   */\n      0xa4\n      add\n        /* \"degen/DegenMoneyLib.sol\":1711:1798  require(flag, \"Number overflow occurs when calculate ticket price in _beta*i**_alpha.\") */\n      tag_39\n        /* \"#utility.yul\":2569:3043   */\n      jump\n        /* \"degen/DegenMoneyLib.sol\":1711:1798  require(flag, \"Number overflow occurs when calculate ticket price in _beta*i**_alpha.\") */\n    tag_59:\n        /* \"degen/DegenMoneyLib.sol\":1824:1857  SafeMath.tryDiv(tp, _denominator) */\n      tag_62\n        /* \"degen/DegenMoneyLib.sol\":1840:1842  tp */\n      dup2\n        /* \"degen/DegenMoneyLib.sol\":950:953  100 */\n      0x64\n        /* \"degen/DegenMoneyLib.sol\":1824:1839  SafeMath.tryDiv */\n      tag_42\n        /* \"degen/DegenMoneyLib.sol\":1824:1857  SafeMath.tryDiv(tp, _denominator) */\n      jump\t// in\n    tag_62:\n        /* \"degen/DegenMoneyLib.sol\":1811:1857  (flag, tp) = SafeMath.tryDiv(tp, _denominator) */\n      swap1\n      swap3\n      pop\n      swap1\n      pop\n      dup2\n        /* \"degen/DegenMoneyLib.sol\":1868:1968  require(flag, \"Number overflow occurs when calculate ticket price in _beta/_denominator*i**_alpha.\") */\n      tag_63\n      jumpi\n      mload(0x40)\n      shl(0xe5, 0x461bcd)\n      dup2\n      mstore\n        /* \"#utility.yul\":3250:3252   */\n      0x20\n        /* \"degen/DegenMoneyLib.sol\":1868:1968  require(flag, \"Number overflow occurs when calculate ticket price in _beta/_denominator*i**_alpha.\") */\n      0x04\n      dup3\n      add\n        /* \"#utility.yul\":3232:3253   */\n      mstore\n        /* \"#utility.yul\":3289:3291   */\n      0x53\n        /* \"#utility.yul\":3269:3287   */\n      0x24\n      dup3\n      add\n        /* \"#utility.yul\":3262:3292   */\n      mstore\n      0x00\n      dup1\n      mload\n      0x20\n      data_3ea7e64d02bfa2ce3fc0ccd06ec6010a4af3c1c13862f1013ea695f2535f0f7a\n      dup4\n      codecopy\n      dup2\n      mload\n      swap2\n      mstore\n        /* \"#utility.yul\":3308:3326   */\n      0x44\n      dup3\n      add\n        /* \"#utility.yul\":3301:3363   */\n      mstore\n        /* \"#utility.yul\":3399:3433   */\n      0x756c617465207469636b657420707269636520696e205f626574612f5f64656e\n        /* \"#utility.yul\":3379:3397   */\n      0x64\n      dup3\n      add\n        /* \"#utility.yul\":3372:3434   */\n      mstore\n      shl(0x69, 0x37b6b4b730ba37b9153495152fb0b638343097)\n        /* \"#utility.yul\":3450:3469   */\n      0x84\n      dup3\n      add\n        /* \"#utility.yul\":3443:3493   */\n      mstore\n        /* \"#utility.yul\":3510:3529   */\n      0xa4\n      add\n        /* \"degen/DegenMoneyLib.sol\":1868:1968  require(flag, \"Number overflow occurs when calculate ticket price in _beta/_denominator*i**_alpha.\") */\n      tag_39\n        /* \"#utility.yul\":3048:3535   */\n      jump\n        /* \"degen/DegenMoneyLib.sol\":1868:1968  require(flag, \"Number overflow occurs when calculate ticket price in _beta/_denominator*i**_alpha.\") */\n    tag_63:\n        /* \"degen/DegenMoneyLib.sol\":1994:2021  SafeMath.tryMul(tp, 10**18) */\n      tag_66\n        /* \"degen/DegenMoneyLib.sol\":2010:2012  tp */\n      dup2\n        /* \"degen/DegenMoneyLib.sol\":2014:2020  10**18 */\n      0x0de0b6b3a7640000\n        /* \"degen/DegenMoneyLib.sol\":1994:2009  SafeMath.tryMul */\n      tag_37\n        /* \"degen/DegenMoneyLib.sol\":1994:2021  SafeMath.tryMul(tp, 10**18) */\n      jump\t// in\n    tag_66:\n        /* \"degen/DegenMoneyLib.sol\":1981:2021  (flag, tp) = SafeMath.tryMul(tp, 10**18) */\n      swap1\n      swap3\n      pop\n      swap1\n      pop\n      dup2\n        /* \"degen/DegenMoneyLib.sol\":2032:2141  require(flag, \"Number overflow occurs when calculate ticket price in (_beta/_denominator*i**_alpha)*10**18.\") */\n      tag_67\n      jumpi\n      mload(0x40)\n      shl(0xe5, 0x461bcd)\n      dup2\n      mstore\n        /* \"#utility.yul\":3742:3744   */\n      0x20\n        /* \"degen/DegenMoneyLib.sol\":2032:2141  require(flag, \"Number overflow occurs when calculate ticket price in (_beta/_denominator*i**_alpha)*10**18.\") */\n      0x04\n      dup3\n      add\n        /* \"#utility.yul\":3724:3745   */\n      mstore\n        /* \"#utility.yul\":3781:3783   */\n      0x5c\n        /* \"#utility.yul\":3761:3779   */\n      0x24\n      dup3\n      add\n        /* \"#utility.yul\":3754:3784   */\n      mstore\n      0x00\n      dup1\n      mload\n      0x20\n      data_3ea7e64d02bfa2ce3fc0ccd06ec6010a4af3c1c13862f1013ea695f2535f0f7a\n      dup4\n      codecopy\n      dup2\n      mload\n      swap2\n      mstore\n        /* \"#utility.yul\":3800:3818   */\n      0x44\n      dup3\n      add\n        /* \"#utility.yul\":3793:3855   */\n      mstore\n        /* \"#utility.yul\":3891:3925   */\n      0x756c617465207469636b657420707269636520696e20285f626574612f5f6465\n        /* \"#utility.yul\":3871:3889   */\n      0x64\n      dup3\n      add\n        /* \"#utility.yul\":3864:3926   */\n      mstore\n        /* \"#utility.yul\":3963:3993   */\n      0x6e6f6d696e61746f722a692a2a5f616c706861292a31302a2a31382e00000000\n        /* \"#utility.yul\":3942:3961   */\n      0x84\n      dup3\n      add\n        /* \"#utility.yul\":3935:3994   */\n      mstore\n        /* \"#utility.yul\":4011:4030   */\n      0xa4\n      add\n        /* \"degen/DegenMoneyLib.sol\":2032:2141  require(flag, \"Number overflow occurs when calculate ticket price in (_beta/_denominator*i**_alpha)*10**18.\") */\n      tag_39\n        /* \"#utility.yul\":3540:4036   */\n      jump\n        /* \"degen/DegenMoneyLib.sol\":2032:2141  require(flag, \"Number overflow occurs when calculate ticket price in (_beta/_denominator*i**_alpha)*10**18.\") */\n    tag_67:\n        /* \"degen/DegenMoneyLib.sol\":2167:2194  SafeMath.tryAdd(tp, _gamma) */\n      tag_70\n        /* \"degen/DegenMoneyLib.sol\":2183:2185  tp */\n      dup2\n        /* \"degen/DegenMoneyLib.sol\":847:860  0.01 * 10**18 */\n      0x2386f26fc10000\n        /* \"degen/DegenMoneyLib.sol\":2167:2182  SafeMath.tryAdd */\n      tag_71\n        /* \"degen/DegenMoneyLib.sol\":2167:2194  SafeMath.tryAdd(tp, _gamma) */\n      jump\t// in\n    tag_70:\n        /* \"degen/DegenMoneyLib.sol\":2154:2194  (flag, tp) = SafeMath.tryAdd(tp, _gamma) */\n      swap1\n      swap3\n      pop\n      swap1\n      pop\n      dup2\n        /* \"degen/DegenMoneyLib.sol\":2205:2313  require(flag, \"Number overflow occurs when calculate ticket price in _beta/_denominator*i**_alpha + gamma.\") */\n      tag_72\n      jumpi\n      mload(0x40)\n      shl(0xe5, 0x461bcd)\n      dup2\n      mstore\n        /* \"#utility.yul\":4243:4245   */\n      0x20\n        /* \"degen/DegenMoneyLib.sol\":2205:2313  require(flag, \"Number overflow occurs when calculate ticket price in _beta/_denominator*i**_alpha + gamma.\") */\n      0x04\n      dup3\n      add\n        /* \"#utility.yul\":4225:4246   */\n      mstore\n        /* \"#utility.yul\":4282:4284   */\n      0x5b\n        /* \"#utility.yul\":4262:4280   */\n      0x24\n      dup3\n      add\n        /* \"#utility.yul\":4255:4285   */\n      mstore\n      0x00\n      dup1\n      mload\n      0x20\n      data_3ea7e64d02bfa2ce3fc0ccd06ec6010a4af3c1c13862f1013ea695f2535f0f7a\n      dup4\n      codecopy\n      dup2\n      mload\n      swap2\n      mstore\n        /* \"#utility.yul\":4301:4319   */\n      0x44\n      dup3\n      add\n        /* \"#utility.yul\":4294:4356   */\n      mstore\n        /* \"#utility.yul\":4392:4426   */\n      0x756c617465207469636b657420707269636520696e205f626574612f5f64656e\n        /* \"#utility.yul\":4372:4390   */\n      0x64\n      dup3\n      add\n        /* \"#utility.yul\":4365:4427   */\n      mstore\n        /* \"#utility.yul\":4464:4493   */\n      0x6f6d696e61746f722a692a2a5f616c706861202b2067616d6d612e0000000000\n        /* \"#utility.yul\":4443:4462   */\n      0x84\n      dup3\n      add\n        /* \"#utility.yul\":4436:4494   */\n      mstore\n        /* \"#utility.yul\":4511:4530   */\n      0xa4\n      add\n        /* \"degen/DegenMoneyLib.sol\":2205:2313  require(flag, \"Number overflow occurs when calculate ticket price in _beta/_denominator*i**_alpha + gamma.\") */\n      tag_39\n        /* \"#utility.yul\":4041:4536   */\n      jump\n        /* \"degen/DegenMoneyLib.sol\":2205:2313  require(flag, \"Number overflow occurs when calculate ticket price in _beta/_denominator*i**_alpha + gamma.\") */\n    tag_72:\n        /* \"degen/DegenMoneyLib.sol\":2330:2347  isMonopolyPenalty */\n      dup4\n        /* \"degen/DegenMoneyLib.sol\":2326:2930  if (isMonopolyPenalty){... */\n      iszero\n      tag_75\n      jumpi\n        /* \"degen/DegenMoneyLib.sol\":2363:2379  uint256 extraFee */\n      0x00\n        /* \"degen/DegenMoneyLib.sol\":2417:2453  SafeMath.tryMul(totalRewardPool, _p) */\n      tag_76\n        /* \"degen/DegenMoneyLib.sol\":2433:2448  totalRewardPool */\n      dup7\n        /* \"degen/DegenMoneyLib.sol\":635:637  10 */\n      0x0a\n        /* \"degen/DegenMoneyLib.sol\":2417:2432  SafeMath.tryMul */\n      tag_37\n        /* \"degen/DegenMoneyLib.sol\":2417:2453  SafeMath.tryMul(totalRewardPool, _p) */\n      jump\t// in\n    tag_76:\n        /* \"degen/DegenMoneyLib.sol\":2398:2453  (flag, extraFee) = SafeMath.tryMul(totalRewardPool, _p) */\n      swap1\n      swap4\n      pop\n      swap1\n      pop\n      dup3\n        /* \"degen/DegenMoneyLib.sol\":2468:2568  require(flag, \"Number overflow occurs when (flag, extraFee) = SafeMath.tryMul(totalRewardPool, _p)\") */\n      tag_77\n      jumpi\n      mload(0x40)\n      shl(0xe5, 0x461bcd)\n      dup2\n      mstore\n        /* \"#utility.yul\":4743:4745   */\n      0x20\n        /* \"degen/DegenMoneyLib.sol\":2468:2568  require(flag, \"Number overflow occurs when (flag, extraFee) = SafeMath.tryMul(totalRewardPool, _p)\") */\n      0x04\n      dup3\n      add\n        /* \"#utility.yul\":4725:4746   */\n      mstore\n        /* \"#utility.yul\":4782:4784   */\n      0x53\n        /* \"#utility.yul\":4762:4780   */\n      0x24\n      dup3\n      add\n        /* \"#utility.yul\":4755:4785   */\n      mstore\n        /* \"#utility.yul\":4821:4855   */\n      0x4e756d626572206f766572666c6f77206f6363757273207768656e2028666c61\n        /* \"#utility.yul\":4801:4819   */\n      0x44\n      dup3\n      add\n        /* \"#utility.yul\":4794:4856   */\n      mstore\n        /* \"#utility.yul\":4892:4926   */\n      0x672c20657874726146656529203d20536166654d6174682e7472794d756c2874\n        /* \"#utility.yul\":4872:4890   */\n      0x64\n      dup3\n      add\n        /* \"#utility.yul\":4865:4927   */\n      mstore\n      shl(0x68, 0x6f74616c526577617264506f6f6c2c205f7029)\n        /* \"#utility.yul\":4943:4962   */\n      0x84\n      dup3\n      add\n        /* \"#utility.yul\":4936:4986   */\n      mstore\n        /* \"#utility.yul\":5003:5022   */\n      0xa4\n      add\n        /* \"degen/DegenMoneyLib.sol\":2468:2568  require(flag, \"Number overflow occurs when (flag, extraFee) = SafeMath.tryMul(totalRewardPool, _p)\") */\n      tag_39\n        /* \"#utility.yul\":4541:5028   */\n      jump\n        /* \"degen/DegenMoneyLib.sol\":2468:2568  require(flag, \"Number overflow occurs when (flag, extraFee) = SafeMath.tryMul(totalRewardPool, _p)\") */\n    tag_77:\n        /* \"degen/DegenMoneyLib.sol\":2602:2641  SafeMath.tryDiv(extraFee, _denominator) */\n      tag_80\n        /* \"degen/DegenMoneyLib.sol\":2618:2626  extraFee */\n      dup2\n        /* \"degen/DegenMoneyLib.sol\":950:953  100 */\n      0x64\n        /* \"degen/DegenMoneyLib.sol\":2602:2617  SafeMath.tryDiv */\n      tag_42\n        /* \"degen/DegenMoneyLib.sol\":2602:2641  SafeMath.tryDiv(extraFee, _denominator) */\n      jump\t// in\n    tag_80:\n        /* \"degen/DegenMoneyLib.sol\":2583:2641  (flag, extraFee) = SafeMath.tryDiv(extraFee, _denominator) */\n      swap1\n      swap4\n      pop\n      swap1\n      pop\n      dup3\n        /* \"degen/DegenMoneyLib.sol\":2656:2759  require(flag, \"Number overflow occurs when (flag, extraFee) = SafeMath.tryDiv(extraFee, _denominator)\") */\n      tag_81\n      jumpi\n      mload(0x40)\n      shl(0xe5, 0x461bcd)\n      dup2\n      mstore\n        /* \"#utility.yul\":5235:5237   */\n      0x20\n        /* \"degen/DegenMoneyLib.sol\":2656:2759  require(flag, \"Number overflow occurs when (flag, extraFee) = SafeMath.tryDiv(extraFee, _denominator)\") */\n      0x04\n      dup3\n      add\n        /* \"#utility.yul\":5217:5238   */\n      mstore\n        /* \"#utility.yul\":5274:5276   */\n      0x56\n        /* \"#utility.yul\":5254:5272   */\n      0x24\n      dup3\n      add\n        /* \"#utility.yul\":5247:5277   */\n      mstore\n        /* \"#utility.yul\":5313:5347   */\n      0x4e756d626572206f766572666c6f77206f6363757273207768656e2028666c61\n        /* \"#utility.yul\":5293:5311   */\n      0x44\n      dup3\n      add\n        /* \"#utility.yul\":5286:5348   */\n      mstore\n        /* \"#utility.yul\":5384:5418   */\n      0x672c20657874726146656529203d20536166654d6174682e7472794469762865\n        /* \"#utility.yul\":5364:5382   */\n      0x64\n      dup3\n      add\n        /* \"#utility.yul\":5357:5419   */\n      mstore\n      shl(0x50, 0x787472614665652c205f64656e6f6d696e61746f7229)\n        /* \"#utility.yul\":5435:5454   */\n      0x84\n      dup3\n      add\n        /* \"#utility.yul\":5428:5481   */\n      mstore\n        /* \"#utility.yul\":5498:5517   */\n      0xa4\n      add\n        /* \"degen/DegenMoneyLib.sol\":2656:2759  require(flag, \"Number overflow occurs when (flag, extraFee) = SafeMath.tryDiv(extraFee, _denominator)\") */\n      tag_39\n        /* \"#utility.yul\":5033:5523   */\n      jump\n        /* \"degen/DegenMoneyLib.sol\":2656:2759  require(flag, \"Number overflow occurs when (flag, extraFee) = SafeMath.tryDiv(extraFee, _denominator)\") */\n    tag_81:\n        /* \"degen/DegenMoneyLib.sol\":2787:2816  SafeMath.tryAdd(tp, extraFee) */\n      tag_84\n        /* \"degen/DegenMoneyLib.sol\":2803:2805  tp */\n      dup3\n        /* \"degen/DegenMoneyLib.sol\":2807:2815  extraFee */\n      dup3\n        /* \"degen/DegenMoneyLib.sol\":2787:2802  SafeMath.tryAdd */\n      tag_71\n        /* \"degen/DegenMoneyLib.sol\":2787:2816  SafeMath.tryAdd(tp, extraFee) */\n      jump\t// in\n    tag_84:\n        /* \"degen/DegenMoneyLib.sol\":2774:2816  (flag, tp) = SafeMath.tryAdd(tp, extraFee) */\n      swap1\n      swap4\n      pop\n      swap2\n      pop\n      dup3\n        /* \"degen/DegenMoneyLib.sol\":2831:2918  require(flag, \"Number overflow occurs when (flag, tp) = SafeMath.tryAdd(tp, extraFee)\") */\n      tag_85\n      jumpi\n      mload(0x40)\n      shl(0xe5, 0x461bcd)\n      dup2\n      mstore\n        /* \"#utility.yul\":5730:5732   */\n      0x20\n        /* \"degen/DegenMoneyLib.sol\":2831:2918  require(flag, \"Number overflow occurs when (flag, tp) = SafeMath.tryAdd(tp, extraFee)\") */\n      0x04\n      dup3\n      add\n        /* \"#utility.yul\":5712:5733   */\n      mstore\n        /* \"#utility.yul\":5769:5771   */\n      0x46\n        /* \"#utility.yul\":5749:5767   */\n      0x24\n      dup3\n      add\n        /* \"#utility.yul\":5742:5772   */\n      mstore\n        /* \"#utility.yul\":5808:5842   */\n      0x4e756d626572206f766572666c6f77206f6363757273207768656e2028666c61\n        /* \"#utility.yul\":5788:5806   */\n      0x44\n      dup3\n      add\n        /* \"#utility.yul\":5781:5843   */\n      mstore\n        /* \"#utility.yul\":5879:5913   */\n      0x672c20747029203d20536166654d6174682e7472794164642874702c20657874\n        /* \"#utility.yul\":5859:5877   */\n      0x64\n      dup3\n      add\n        /* \"#utility.yul\":5852:5914   */\n      mstore\n      shl(0xd0, 0x726146656529)\n        /* \"#utility.yul\":5930:5949   */\n      0x84\n      dup3\n      add\n        /* \"#utility.yul\":5923:5960   */\n      mstore\n        /* \"#utility.yul\":5977:5996   */\n      0xa4\n      add\n        /* \"degen/DegenMoneyLib.sol\":2831:2918  require(flag, \"Number overflow occurs when (flag, tp) = SafeMath.tryAdd(tp, extraFee)\") */\n      tag_39\n        /* \"#utility.yul\":5528:6002   */\n      jump\n        /* \"degen/DegenMoneyLib.sol\":2831:2918  require(flag, \"Number overflow occurs when (flag, tp) = SafeMath.tryAdd(tp, extraFee)\") */\n    tag_85:\n        /* \"degen/DegenMoneyLib.sol\":2348:2930  {... */\n      pop\n        /* \"degen/DegenMoneyLib.sol\":2326:2930  if (isMonopolyPenalty){... */\n    tag_75:\n        /* \"degen/DegenMoneyLib.sol\":2949:2951  tp */\n      swap6\n        /* \"degen/DegenMoneyLib.sol\":1194:2959  function ticketPrice(uint256 ith, uint256 totalRewardPool, bool isMonopolyPenalty) public pure returns (uint256 price) {... */\n      swap5\n      pop\n      pop\n      pop\n      pop\n      pop\n      jump\t// out\n        /* \"degen/DegenMoneyLib.sol\":3800:4387  function ticketIncome2GroupMember(uint256 ticketIncome, uint256 memNum) public pure returns (uint256 money) {... */\n    tag_25:\n        /* \"degen/DegenMoneyLib.sol\":3893:3906  uint256 money */\n      0x00\n      dup1\n        /* \"degen/DegenMoneyLib.sol\":457:459  50 */\n      0x32\n        /* \"degen/DegenMoneyLib.sol\":3931:3948  _denominator - _a */\n      tag_89\n        /* \"degen/DegenMoneyLib.sol\":371:372  3 */\n      0x03\n        /* \"degen/DegenMoneyLib.sol\":950:953  100 */\n      0x64\n        /* \"degen/DegenMoneyLib.sol\":3931:3948  _denominator - _a */\n      tag_90\n      jump\t// in\n    tag_89:\n        /* \"degen/DegenMoneyLib.sol\":3931:3953  _denominator - _a - _b */\n      tag_91\n      swap2\n      swap1\n      tag_90\n      jump\t// in\n    tag_91:\n        /* \"degen/DegenMoneyLib.sol\":3919:3953  uint256 c = _denominator - _a - _b */\n      swap1\n      pop\n        /* \"degen/DegenMoneyLib.sol\":3966:3975  bool flag */\n      0x00\n        /* \"degen/DegenMoneyLib.sol\":3994:4003  uint256 m */\n      dup1\n        /* \"degen/DegenMoneyLib.sol\":4030:4062  SafeMath.tryMul(ticketIncome, c) */\n      tag_92\n        /* \"degen/DegenMoneyLib.sol\":4046:4058  ticketIncome */\n      dup7\n        /* \"degen/DegenMoneyLib.sol\":4060:4061  c */\n      dup5\n        /* \"degen/DegenMoneyLib.sol\":4030:4045  SafeMath.tryMul */\n      tag_37\n        /* \"degen/DegenMoneyLib.sol\":4030:4062  SafeMath.tryMul(ticketIncome, c) */\n      jump\t// in\n    tag_92:\n        /* \"degen/DegenMoneyLib.sol\":4018:4062  (flag, m) = SafeMath.tryMul(ticketIncome, c) */\n      swap1\n      swap3\n      pop\n      swap1\n      pop\n      dup2\n        /* \"degen/DegenMoneyLib.sol\":4073:4126  require(flag, \"[ticketIncome2GroupMember] overflow.\") */\n      tag_93\n      jumpi\n      mload(0x40)\n      shl(0xe5, 0x461bcd)\n      dup2\n      mstore\n      0x04\n      add\n      tag_39\n      swap1\n      tag_95\n      jump\t// in\n    tag_93:\n        /* \"degen/DegenMoneyLib.sol\":4149:4181  SafeMath.tryDiv(m, _denominator) */\n      tag_96\n        /* \"degen/DegenMoneyLib.sol\":4165:4166  m */\n      dup2\n        /* \"degen/DegenMoneyLib.sol\":950:953  100 */\n      0x64\n        /* \"degen/DegenMoneyLib.sol\":4149:4164  SafeMath.tryDiv */\n      tag_42\n        /* \"degen/DegenMoneyLib.sol\":4149:4181  SafeMath.tryDiv(m, _denominator) */\n      jump\t// in\n    tag_96:\n        /* \"degen/DegenMoneyLib.sol\":4137:4181  (flag, m) = SafeMath.tryDiv(m, _denominator) */\n      swap1\n      swap3\n      pop\n      swap1\n      pop\n      dup2\n        /* \"degen/DegenMoneyLib.sol\":4192:4245  require(flag, \"[ticketIncome2GroupMember] overflow.\") */\n      tag_97\n      jumpi\n      mload(0x40)\n      shl(0xe5, 0x461bcd)\n      dup2\n      mstore\n      0x04\n      add\n      tag_39\n      swap1\n      tag_95\n      jump\t// in\n    tag_97:\n        /* \"degen/DegenMoneyLib.sol\":4268:4294  SafeMath.tryDiv(m, memNum) */\n      tag_99\n        /* \"degen/DegenMoneyLib.sol\":4284:4285  m */\n      dup2\n        /* \"degen/DegenMoneyLib.sol\":4287:4293  memNum */\n      dup7\n        /* \"degen/DegenMoneyLib.sol\":4268:4283  SafeMath.tryDiv */\n      tag_42\n        /* \"degen/DegenMoneyLib.sol\":4268:4294  SafeMath.tryDiv(m, memNum) */\n      jump\t// in\n    tag_99:\n        /* \"degen/DegenMoneyLib.sol\":4256:4294  (flag, m) = SafeMath.tryDiv(m, memNum) */\n      swap1\n      swap3\n      pop\n      swap1\n      pop\n      dup2\n        /* \"degen/DegenMoneyLib.sol\":4305:4358  require(flag, \"[ticketIncome2GroupMember] overflow.\") */\n      tag_100\n      jumpi\n      mload(0x40)\n      shl(0xe5, 0x461bcd)\n      dup2\n      mstore\n      0x04\n      add\n      tag_39\n      swap1\n      tag_95\n      jump\t// in\n    tag_100:\n        /* \"degen/DegenMoneyLib.sol\":4378:4379  m */\n      swap3\n      pop\n      pop\n      pop\n        /* \"degen/DegenMoneyLib.sol\":3800:4387  function ticketIncome2GroupMember(uint256 ticketIncome, uint256 memNum) public pure returns (uint256 money) {... */\n    tag_88:\n      swap3\n      swap2\n      pop\n      pop\n      jump\t// out\n        /* \"degen/DegenMoneyLib.sol\":2967:3374  function ticketIncome2RewardPool(uint256 ticketIncome) public pure returns (uint256 money) {... */\n    tag_32:\n        /* \"degen/DegenMoneyLib.sol\":3043:3056  uint256 money */\n      0x00\n      dup1\n      dup1\n        /* \"degen/DegenMoneyLib.sol\":3133:3166  SafeMath.tryMul(ticketIncome, _b) */\n      tag_104\n        /* \"degen/DegenMoneyLib.sol\":3149:3161  ticketIncome */\n      dup5\n        /* \"degen/DegenMoneyLib.sol\":457:459  50 */\n      0x32\n        /* \"degen/DegenMoneyLib.sol\":3133:3148  SafeMath.tryMul */\n      tag_37\n        /* \"degen/DegenMoneyLib.sol\":3133:3166  SafeMath.tryMul(ticketIncome, _b) */\n      jump\t// in\n    tag_104:\n        /* \"degen/DegenMoneyLib.sol\":3121:3166  (flag, m) = SafeMath.tryMul(ticketIncome, _b) */\n      swap1\n      swap3\n      pop\n      swap1\n      pop\n      dup2\n        /* \"degen/DegenMoneyLib.sol\":3177:3229  require(flag, \"[ticketIncome2RewardPool] overflow.\") */\n      tag_105\n      jumpi\n      mload(0x40)\n      shl(0xe5, 0x461bcd)\n      dup2\n      mstore\n      0x04\n      add\n      tag_39\n      swap1\n      tag_107\n      jump\t// in\n    tag_105:\n        /* \"degen/DegenMoneyLib.sol\":3252:3284  SafeMath.tryDiv(m, _denominator) */\n      tag_108\n        /* \"degen/DegenMoneyLib.sol\":3268:3269  m */\n      dup2\n        /* \"degen/DegenMoneyLib.sol\":950:953  100 */\n      0x64\n        /* \"degen/DegenMoneyLib.sol\":3252:3267  SafeMath.tryDiv */\n      tag_42\n        /* \"degen/DegenMoneyLib.sol\":3252:3284  SafeMath.tryDiv(m, _denominator) */\n      jump\t// in\n    tag_108:\n        /* \"degen/DegenMoneyLib.sol\":3240:3284  (flag, m) = SafeMath.tryDiv(m, _denominator) */\n      swap1\n      swap3\n      pop\n      swap1\n      pop\n      dup2\n        /* \"degen/DegenMoneyLib.sol\":3295:3347  require(flag, \"[ticketIncome2RewardPool] overflow.\") */\n      tag_43\n      jumpi\n      mload(0x40)\n      shl(0xe5, 0x461bcd)\n      dup2\n      mstore\n      0x04\n      add\n      tag_39\n      swap1\n      tag_107\n      jump\t// in\n        /* \"@openzeppelin/contracts/utils/math/SafeMath.sol\":1339:1832  function tryMul(uint256 a, uint256 b) internal pure returns (bool, uint256) {... */\n    tag_37:\n        /* \"@openzeppelin/contracts/utils/math/SafeMath.sol\":1400:1404  bool */\n      0x00\n        /* \"@openzeppelin/contracts/utils/math/SafeMath.sol\":1406:1413  uint256 */\n      dup1\n        /* \"@openzeppelin/contracts/utils/math/SafeMath.sol\":1683:1684  a */\n      dup4\n        /* \"@openzeppelin/contracts/utils/math/SafeMath.sol\":1688:1689  0 */\n      0x00\n        /* \"@openzeppelin/contracts/utils/math/SafeMath.sol\":1683:1689  a == 0 */\n      sub\n        /* \"@openzeppelin/contracts/utils/math/SafeMath.sol\":1679:1707  if (a == 0) return (true, 0) */\n      tag_112\n      jumpi\n      pop\n        /* \"@openzeppelin/contracts/utils/math/SafeMath.sol\":1699:1703  true */\n      0x01\n      swap1\n      pop\n        /* \"@openzeppelin/contracts/utils/math/SafeMath.sol\":1705:1706  0 */\n      0x00\n        /* \"@openzeppelin/contracts/utils/math/SafeMath.sol\":1691:1707  return (true, 0) */\n      jump(tag_111)\n        /* \"@openzeppelin/contracts/utils/math/SafeMath.sol\":1679:1707  if (a == 0) return (true, 0) */\n    tag_112:\n        /* \"@openzeppelin/contracts/utils/math/SafeMath.sol\":1733:1738  a * b */\n      dup4\n      dup4\n      mul\n        /* \"@openzeppelin/contracts/utils/math/SafeMath.sol\":1737:1738  b */\n      dup4\n        /* \"@openzeppelin/contracts/utils/math/SafeMath.sol\":1733:1734  a */\n      dup6\n        /* \"@openzeppelin/contracts/utils/math/SafeMath.sol\":1733:1738  a * b */\n      dup3\n        /* \"@openzeppelin/contracts/utils/math/SafeMath.sol\":1733:1734  a */\n      dup2\n        /* \"@openzeppelin/contracts/utils/math/SafeMath.sol\":1756:1761  c / a */\n      tag_114\n      jumpi\n      tag_114\n      tag_115\n      jump\t// in\n    tag_114:\n      div\n        /* \"@openzeppelin/contracts/utils/math/SafeMath.sol\":1756:1766  c / a != b */\n      eq\n        /* \"@openzeppelin/contracts/utils/math/SafeMath.sol\":1752:1785  if (c / a != b) return (false, 0) */\n      tag_116\n      jumpi\n        /* \"@openzeppelin/contracts/utils/math/SafeMath.sol\":1776:1781  false */\n      0x00\n        /* \"@openzeppelin/contracts/utils/math/SafeMath.sol\":1783:1784  0 */\n      dup1\n        /* \"@openzeppelin/contracts/utils/math/SafeMath.sol\":1768:1785  return (false, 0) */\n      swap3\n      pop\n      swap3\n      pop\n      pop\n      jump(tag_111)\n        /* \"@openzeppelin/contracts/utils/math/SafeMath.sol\":1752:1785  if (c / a != b) return (false, 0) */\n    tag_116:\n        /* \"@openzeppelin/contracts/utils/math/SafeMath.sol\":1807:1811  true */\n      0x01\n      swap3\n      pop\n        /* \"@openzeppelin/contracts/utils/math/SafeMath.sol\":1813:1814  c */\n      swap1\n      pop\n        /* \"@openzeppelin/contracts/utils/math/SafeMath.sol\":1339:1832  function tryMul(uint256 a, uint256 b) internal pure returns (bool, uint256) {... */\n    tag_111:\n      swap3\n      pop\n      swap3\n      swap1\n      pop\n      jump\t// out\n        /* \"@openzeppelin/contracts/utils/math/SafeMath.sol\":1981:2171  function tryDiv(uint256 a, uint256 b) internal pure returns (bool, uint256) {... */\n    tag_42:\n        /* \"@openzeppelin/contracts/utils/math/SafeMath.sol\":2042:2046  bool */\n      0x00\n        /* \"@openzeppelin/contracts/utils/math/SafeMath.sol\":2048:2055  uint256 */\n      dup1\n        /* \"@openzeppelin/contracts/utils/math/SafeMath.sol\":2095:2096  b */\n      dup3\n        /* \"@openzeppelin/contracts/utils/math/SafeMath.sol\":2100:2101  0 */\n      0x00\n        /* \"@openzeppelin/contracts/utils/math/SafeMath.sol\":2095:2101  b == 0 */\n      sub\n        /* \"@openzeppelin/contracts/utils/math/SafeMath.sol\":2091:2120  if (b == 0) return (false, 0) */\n      tag_118\n      jumpi\n      pop\n        /* \"@openzeppelin/contracts/utils/math/SafeMath.sol\":2111:2116  false */\n      0x00\n      swap1\n      pop\n      dup1\n        /* \"@openzeppelin/contracts/utils/math/SafeMath.sol\":2103:2120  return (false, 0) */\n      jump(tag_111)\n        /* \"@openzeppelin/contracts/utils/math/SafeMath.sol\":2091:2120  if (b == 0) return (false, 0) */\n    tag_118:\n        /* \"@openzeppelin/contracts/utils/math/SafeMath.sol\":2142:2146  true */\n      0x01\n        /* \"@openzeppelin/contracts/utils/math/SafeMath.sol\":2152:2153  b */\n      dup4\n        /* \"@openzeppelin/contracts/utils/math/SafeMath.sol\":2148:2149  a */\n      dup6\n        /* \"@openzeppelin/contracts/utils/math/SafeMath.sol\":2148:2153  a / b */\n      dup2\n      tag_120\n      jumpi\n      tag_120\n      tag_115\n      jump\t// in\n    tag_120:\n      div\n        /* \"@openzeppelin/contracts/utils/math/SafeMath.sol\":2134:2154  return (true, a / b) */\n      swap2\n      pop\n      swap2\n      pop\n        /* \"@openzeppelin/contracts/utils/math/SafeMath.sol\":1981:2171  function tryDiv(uint256 a, uint256 b) internal pure returns (bool, uint256) {... */\n      swap3\n      pop\n      swap3\n      swap1\n      pop\n      jump\t// out\n        /* \"@openzeppelin/contracts/utils/math/SafeMath.sol\":641:857  function tryAdd(uint256 a, uint256 b) internal pure returns (bool, uint256) {... */\n    tag_71:\n        /* \"@openzeppelin/contracts/utils/math/SafeMath.sol\":702:706  bool */\n      0x00\n      dup1\n        /* \"@openzeppelin/contracts/utils/math/SafeMath.sol\":763:768  a + b */\n      dup4\n      dup4\n      add\n        /* \"@openzeppelin/contracts/utils/math/SafeMath.sol\":786:791  c < a */\n      dup5\n      dup2\n      lt\n        /* \"@openzeppelin/contracts/utils/math/SafeMath.sol\":782:810  if (c < a) return (false, 0) */\n      iszero\n      tag_116\n      jumpi\n        /* \"@openzeppelin/contracts/utils/math/SafeMath.sol\":801:806  false */\n      0x00\n        /* \"@openzeppelin/contracts/utils/math/SafeMath.sol\":808:809  0 */\n      dup1\n        /* \"@openzeppelin/contracts/utils/math/SafeMath.sol\":793:810  return (false, 0) */\n      swap3\n      pop\n      swap3\n      pop\n      pop\n      jump(tag_111)\n        /* \"#utility.yul\":204:384   */\n    tag_14:\n        /* \"#utility.yul\":263:269   */\n      0x00\n        /* \"#utility.yul\":316:318   */\n      0x20\n        /* \"#utility.yul\":304:313   */\n      dup3\n        /* \"#utility.yul\":295:302   */\n      dup5\n        /* \"#utility.yul\":291:314   */\n      sub\n        /* \"#utility.yul\":287:319   */\n      slt\n        /* \"#utility.yul\":284:336   */\n      iszero\n      tag_127\n      jumpi\n        /* \"#utility.yul\":332:333   */\n      0x00\n        /* \"#utility.yul\":329:330   */\n      dup1\n        /* \"#utility.yul\":322:334   */\n      revert\n        /* \"#utility.yul\":284:336   */\n    tag_127:\n      pop\n        /* \"#utility.yul\":355:378   */\n      calldataload\n      swap2\n        /* \"#utility.yul\":204:384   */\n      swap1\n      pop\n      jump\t// out\n        /* \"#utility.yul\":389:798   */\n    tag_19:\n        /* \"#utility.yul\":463:469   */\n      0x00\n        /* \"#utility.yul\":471:477   */\n      dup1\n        /* \"#utility.yul\":479:485   */\n      0x00\n        /* \"#utility.yul\":532:534   */\n      0x60\n        /* \"#utility.yul\":520:529   */\n      dup5\n        /* \"#utility.yul\":511:518   */\n      dup7\n        /* \"#utility.yul\":507:530   */\n      sub\n        /* \"#utility.yul\":503:535   */\n      slt\n        /* \"#utility.yul\":500:552   */\n      iszero\n      tag_129\n      jumpi\n        /* \"#utility.yul\":548:549   */\n      0x00\n        /* \"#utility.yul\":545:546   */\n      dup1\n        /* \"#utility.yul\":538:550   */\n      revert\n        /* \"#utility.yul\":500:552   */\n    tag_129:\n        /* \"#utility.yul\":584:593   */\n      dup4\n        /* \"#utility.yul\":571:594   */\n      calldataload\n        /* \"#utility.yul\":561:594   */\n      swap3\n      pop\n        /* \"#utility.yul\":641:643   */\n      0x20\n        /* \"#utility.yul\":630:639   */\n      dup5\n        /* \"#utility.yul\":626:644   */\n      add\n        /* \"#utility.yul\":613:645   */\n      calldataload\n        /* \"#utility.yul\":603:645   */\n      swap2\n      pop\n        /* \"#utility.yul\":695:697   */\n      0x40\n        /* \"#utility.yul\":684:693   */\n      dup5\n        /* \"#utility.yul\":680:698   */\n      add\n        /* \"#utility.yul\":667:699   */\n      calldataload\n        /* \"#utility.yul\":742:747   */\n      dup1\n        /* \"#utility.yul\":735:748   */\n      iszero\n        /* \"#utility.yul\":728:749   */\n      iszero\n        /* \"#utility.yul\":721:726   */\n      dup2\n        /* \"#utility.yul\":718:750   */\n      eq\n        /* \"#utility.yul\":708:768   */\n      tag_130\n      jumpi\n        /* \"#utility.yul\":764:765   */\n      0x00\n        /* \"#utility.yul\":761:762   */\n      dup1\n        /* \"#utility.yul\":754:766   */\n      revert\n        /* \"#utility.yul\":708:768   */\n    tag_130:\n        /* \"#utility.yul\":787:792   */\n      dup1\n        /* \"#utility.yul\":777:792   */\n      swap2\n      pop\n      pop\n        /* \"#utility.yul\":389:798   */\n      swap3\n      pop\n      swap3\n      pop\n      swap3\n      jump\t// out\n        /* \"#utility.yul\":803:1051   */\n    tag_24:\n        /* \"#utility.yul\":871:877   */\n      0x00\n        /* \"#utility.yul\":879:885   */\n      dup1\n        /* \"#utility.yul\":932:934   */\n      0x40\n        /* \"#utility.yul\":920:929   */\n      dup4\n        /* \"#utility.yul\":911:918   */\n      dup6\n        /* \"#utility.yul\":907:930   */\n      sub\n        /* \"#utility.yul\":903:935   */\n      slt\n        /* \"#utility.yul\":900:952   */\n      iszero\n      tag_132\n      jumpi\n        /* \"#utility.yul\":948:949   */\n      0x00\n        /* \"#utility.yul\":945:946   */\n      dup1\n        /* \"#utility.yul\":938:950   */\n      revert\n        /* \"#utility.yul\":900:952   */\n    tag_132:\n      pop\n      pop\n        /* \"#utility.yul\":971:994   */\n      dup1\n      calldataload\n      swap3\n        /* \"#utility.yul\":1041:1043   */\n      0x20\n        /* \"#utility.yul\":1026:1044   */\n      swap1\n      swap2\n      add\n        /* \"#utility.yul\":1013:1045   */\n      calldataload\n      swap2\n      pop\n        /* \"#utility.yul\":803:1051   */\n      jump\t// out\n        /* \"#utility.yul\":1056:1456   */\n    tag_40:\n        /* \"#utility.yul\":1258:1260   */\n      0x20\n        /* \"#utility.yul\":1240:1261   */\n      dup1\n      dup3\n      mstore\n        /* \"#utility.yul\":1297:1299   */\n      0x24\n        /* \"#utility.yul\":1277:1295   */\n      swap1\n      dup3\n      add\n        /* \"#utility.yul\":1270:1300   */\n      mstore\n        /* \"#utility.yul\":1336:1370   */\n      0x5b7469636b6574496e636f6d653247726f75704c65616465725d206f76657266\n        /* \"#utility.yul\":1331:1333   */\n      0x40\n        /* \"#utility.yul\":1316:1334   */\n      dup3\n      add\n        /* \"#utility.yul\":1309:1371   */\n      mstore\n      shl(0xe1, 0x3637bb97)\n        /* \"#utility.yul\":1402:1404   */\n      0x60\n        /* \"#utility.yul\":1387:1405   */\n      dup3\n      add\n        /* \"#utility.yul\":1380:1414   */\n      mstore\n        /* \"#utility.yul\":1446:1449   */\n      0x80\n        /* \"#utility.yul\":1431:1450   */\n      add\n      swap1\n        /* \"#utility.yul\":1056:1456   */\n      jump\t// out\n        /* \"#utility.yul\":2297:2424   */\n    tag_123:\n        /* \"#utility.yul\":2358:2368   */\n      0x4e487b71\n        /* \"#utility.yul\":2353:2356   */\n      0xe0\n        /* \"#utility.yul\":2349:2369   */\n      shl\n        /* \"#utility.yul\":2346:2347   */\n      0x00\n        /* \"#utility.yul\":2339:2370   */\n      mstore\n        /* \"#utility.yul\":2389:2393   */\n      0x11\n        /* \"#utility.yul\":2386:2387   */\n      0x04\n        /* \"#utility.yul\":2379:2394   */\n      mstore\n        /* \"#utility.yul\":2413:2417   */\n      0x24\n        /* \"#utility.yul\":2410:2411   */\n      0x00\n        /* \"#utility.yul\":2403:2418   */\n      revert\n        /* \"#utility.yul\":2429:2564   */\n    tag_57:\n        /* \"#utility.yul\":2468:2471   */\n      0x00\n        /* \"#utility.yul\":2489:2506   */\n      0x01\n      dup3\n      add\n        /* \"#utility.yul\":2486:2529   */\n      tag_139\n      jumpi\n        /* \"#utility.yul\":2509:2527   */\n      tag_139\n      tag_123\n      jump\t// in\n    tag_139:\n      pop\n        /* \"#utility.yul\":2556:2557   */\n      0x01\n        /* \"#utility.yul\":2545:2558   */\n      add\n      swap1\n        /* \"#utility.yul\":2429:2564   */\n      jump\t// out\n        /* \"#utility.yul\":6007:6135   */\n    tag_90:\n        /* \"#utility.yul\":6074:6083   */\n      dup2\n      dup2\n      sub\n        /* \"#utility.yul\":6095:6106   */\n      dup2\n      dup2\n      gt\n        /* \"#utility.yul\":6092:6129   */\n      iszero\n      tag_88\n      jumpi\n        /* \"#utility.yul\":6109:6127   */\n      tag_88\n      tag_123\n      jump\t// in\n        /* \"#utility.yul\":6140:6540   */\n    tag_95:\n        /* \"#utility.yul\":6342:6344   */\n      0x20\n        /* \"#utility.yul\":6324:6345   */\n      dup1\n      dup3\n      mstore\n        /* \"#utility.yul\":6381:6383   */\n      0x24\n        /* \"#utility.yul\":6361:6379   */\n      swap1\n      dup3\n      add\n        /* \"#utility.yul\":6354:6384   */\n      mstore\n        /* \"#utility.yul\":6420:6454   */\n      0x5b7469636b6574496e636f6d653247726f75704d656d6265725d206f76657266\n        /* \"#utility.yul\":6415:6417   */\n      0x40\n        /* \"#utility.yul\":6400:6418   */\n      dup3\n      add\n        /* \"#utility.yul\":6393:6455   */\n      mstore\n      shl(0xe1, 0x3637bb97)\n        /* \"#utility.yul\":6486:6488   */\n      0x60\n        /* \"#utility.yul\":6471:6489   */\n      dup3\n      add\n        /* \"#utility.yul\":6464:6498   */\n      mstore\n        /* \"#utility.yul\":6530:6533   */\n      0x80\n        /* \"#utility.yul\":6515:6534   */\n      add\n      swap1\n        /* \"#utility.yul\":6140:6540   */\n      jump\t// out\n        /* \"#utility.yul\":6545:6944   */\n    tag_107:\n        /* \"#utility.yul\":6747:6749   */\n      0x20\n        /* \"#utility.yul\":6729:6750   */\n      dup1\n      dup3\n      mstore\n        /* \"#utility.yul\":6786:6788   */\n      0x23\n        /* \"#utility.yul\":6766:6784   */\n      swap1\n      dup3\n      add\n        /* \"#utility.yul\":6759:6789   */\n      mstore\n        /* \"#utility.yul\":6825:6859   */\n      0x5b7469636b6574496e636f6d6532526577617264506f6f6c5d206f766572666c\n        /* \"#utility.yul\":6820:6822   */\n      0x40\n        /* \"#utility.yul\":6805:6823   */\n      dup3\n      add\n        /* \"#utility.yul\":6798:6860   */\n      mstore\n      shl(0xe9, 0x37bb97)\n        /* \"#utility.yul\":6891:6893   */\n      0x60\n        /* \"#utility.yul\":6876:6894   */\n      dup3\n      add\n        /* \"#utility.yul\":6869:6902   */\n      mstore\n        /* \"#utility.yul\":6934:6937   */\n      0x80\n        /* \"#utility.yul\":6919:6938   */\n      add\n      swap1\n        /* \"#utility.yul\":6545:6944   */\n      jump\t// out\n        /* \"#utility.yul\":6949:7076   */\n    tag_115:\n        /* \"#utility.yul\":7010:7020   */\n      0x4e487b71\n        /* \"#utility.yul\":7005:7008   */\n      0xe0\n        /* \"#utility.yul\":7001:7021   */\n      shl\n        /* \"#utility.yul\":6998:6999   */\n      0x00\n        /* \"#utility.yul\":6991:7022   */\n      mstore\n        /* \"#utility.yul\":7041:7045   */\n      0x12\n        /* \"#utility.yul\":7038:7039   */\n      0x04\n        /* \"#utility.yul\":7031:7046   */\n      mstore\n        /* \"#utility.yul\":7065:7069   */\n      0x24\n        /* \"#utility.yul\":7062:7063   */\n      0x00\n        /* \"#utility.yul\":7055:7070   */\n      revert\n    stop\n    data_3ea7e64d02bfa2ce3fc0ccd06ec6010a4af3c1c13862f1013ea695f2535f0f7a 4e756d626572206f766572666c6f77206f6363757273207768656e2063616c63\n\n    auxdata: 0xa264697066735822122004252f745bece115bc63c40260c054f77dfb48935d01ae56b40bf744159c362064736f6c63430008120033\n}\n",
				"bytecode": {
					"linkReferences": {},
					"object": "6109b161003a600b82828239805160001a60731461002d57634e487b7160e01b600052600060045260246000fd5b30600052607381538281f3fe730000000000000000000000000000000000000000301460806040526004361061006c5760003560e01c806326d0a334146100715780632e26fb4a1461008d578063627ca922146100a057806384105419146100b357806391096a3c146100c6578063e6ca2a8d146100d4575b600080fd5b670de0b6b3a76400005b60405190815260200160405180910390f35b61007b61009b3660046107bf565b6100e7565b61007b6100ae3660046107d8565b610155565b61007b6100c1366004610816565b610618565b678ac7230489e8000061007b565b61007b6100e23660046107bf565b6106c8565b600080806100f6846003610726565b9092509050816101215760405162461bcd60e51b815260040161011890610838565b60405180910390fd5b61012c816064610771565b90925090508161014e5760405162461bcd60e51b815260040161011890610838565b9392505050565b600060018060005b60028110156101ea576101708288610726565b9093509150826101d8576040805162461bcd60e51b815260206004820152602481019190915260008051602061095c83398151915260448201527f756c617465207469636b657420707269636520696e20692a2a5f616c7068612e6064820152608401610118565b806101e281610892565b91505061015d565b506101f681600a610726565b90925090508161026b5760405162461bcd60e51b8152602060048201526046602482015260008051602061095c83398151915260448201527f756c617465207469636b657420707269636520696e205f626574612a692a2a5f60648201526530b63834309760d11b608482015260a401610118565b610276816064610771565b9092509050816102f85760405162461bcd60e51b8152602060048201526053602482015260008051602061095c83398151915260448201527f756c617465207469636b657420707269636520696e205f626574612f5f64656e60648201527237b6b4b730ba37b9153495152fb0b63834309760691b608482015260a401610118565b61030a81670de0b6b3a7640000610726565b9092509050816103965760405162461bcd60e51b815260206004820152605c602482015260008051602061095c83398151915260448201527f756c617465207469636b657420707269636520696e20285f626574612f5f646560648201527f6e6f6d696e61746f722a692a2a5f616c706861292a31302a2a31382e00000000608482015260a401610118565b6103a781662386f26fc100006107a4565b9092509050816104335760405162461bcd60e51b815260206004820152605b602482015260008051602061095c83398151915260448201527f756c617465207469636b657420707269636520696e205f626574612f5f64656e60648201527f6f6d696e61746f722a692a2a5f616c706861202b2067616d6d612e0000000000608482015260a401610118565b831561060f57600061044686600a610726565b9093509050826104da5760405162461bcd60e51b815260206004820152605360248201527f4e756d626572206f766572666c6f77206f6363757273207768656e2028666c6160448201527f672c20657874726146656529203d20536166654d6174682e7472794d756c28746064820152726f74616c526577617264506f6f6c2c205f702960681b608482015260a401610118565b6104e5816064610771565b90935090508261057c5760405162461bcd60e51b815260206004820152605660248201527f4e756d626572206f766572666c6f77206f6363757273207768656e2028666c6160448201527f672c20657874726146656529203d20536166654d6174682e7472794469762865606482015275787472614665652c205f64656e6f6d696e61746f722960501b608482015260a401610118565b61058682826107a4565b90935091508261060d5760405162461bcd60e51b815260206004820152604660248201527f4e756d626572206f766572666c6f77206f6363757273207768656e2028666c6160448201527f672c20747029203d20536166654d6174682e7472794164642874702c2065787460648201526572614665652960d01b608482015260a401610118565b505b95945050505050565b6000806032610629600360646108ab565b61063391906108ab565b90506000806106428684610726565b9092509050816106645760405162461bcd60e51b8152600401610118906108be565b61066f816064610771565b9092509050816106915760405162461bcd60e51b8152600401610118906108be565b61069b8186610771565b9092509050816106bd5760405162461bcd60e51b8152600401610118906108be565b925050505b92915050565b600080806106d7846032610726565b9092509050816106f95760405162461bcd60e51b815260040161011890610902565b610704816064610771565b90925090508161014e5760405162461bcd60e51b815260040161011890610902565b6000808360000361073d575060019050600061076a565b8383028385828161075057610750610945565b041461076357600080925092505061076a565b6001925090505b9250929050565b600080826000036107875750600090508061076a565b600183858161079857610798610945565b04915091509250929050565b6000808383018481101561076357600080925092505061076a565b6000602082840312156107d157600080fd5b5035919050565b6000806000606084860312156107ed57600080fd5b83359250602084013591506040840135801515811461080b57600080fd5b809150509250925092565b6000806040838503121561082957600080fd5b50508035926020909101359150565b60208082526024908201527f5b7469636b6574496e636f6d653247726f75704c65616465725d206f766572666040820152633637bb9760e11b606082015260800190565b634e487b7160e01b600052601160045260246000fd5b6000600182016108a4576108a461087c565b5060010190565b818103818111156106c2576106c261087c565b60208082526024908201527f5b7469636b6574496e636f6d653247726f75704d656d6265725d206f766572666040820152633637bb9760e11b606082015260800190565b60208082526023908201527f5b7469636b6574496e636f6d6532526577617264506f6f6c5d206f766572666c60408201526237bb9760e91b606082015260800190565b634e487b7160e01b600052601260045260246000fdfe4e756d626572206f766572666c6f77206f6363757273207768656e2063616c63a264697066735822122004252f745bece115bc63c40260c054f77dfb48935d01ae56b40bf744159c362064736f6c63430008120033",
					"opcodes": "PUSH2 0x9B1 PUSH2 0x3A PUSH1 0xB DUP3 DUP3 DUP3 CODECOPY DUP1 MLOAD PUSH1 0x0 BYTE PUSH1 0x73 EQ PUSH2 0x2D JUMPI PUSH4 0x4E487B71 PUSH1 0xE0 SHL PUSH1 0x0 MSTORE PUSH1 0x0 PUSH1 0x4 MSTORE PUSH1 0x24 PUSH1 0x0 REVERT JUMPDEST ADDRESS PUSH1 0x0 MSTORE PUSH1 0x73 DUP2 MSTORE8 DUP3 DUP2 RETURN INVALID PUSH20 0x0 ADDRESS EQ PUSH1 0x80 PUSH1 0x40 MSTORE PUSH1 0x4 CALLDATASIZE LT PUSH2 0x6C JUMPI PUSH1 0x0 CALLDATALOAD PUSH1 0xE0 SHR DUP1 PUSH4 0x26D0A334 EQ PUSH2 0x71 JUMPI DUP1 PUSH4 0x2E26FB4A EQ PUSH2 0x8D JUMPI DUP1 PUSH4 0x627CA922 EQ PUSH2 0xA0 JUMPI DUP1 PUSH4 0x84105419 EQ PUSH2 0xB3 JUMPI DUP1 PUSH4 0x91096A3C EQ PUSH2 0xC6 JUMPI DUP1 PUSH4 0xE6CA2A8D EQ PUSH2 0xD4 JUMPI JUMPDEST PUSH1 0x0 DUP1 REVERT JUMPDEST PUSH8 0xDE0B6B3A7640000 JUMPDEST PUSH1 0x40 MLOAD SWAP1 DUP2 MSTORE PUSH1 0x20 ADD PUSH1 0x40 MLOAD DUP1 SWAP2 SUB SWAP1 RETURN JUMPDEST PUSH2 0x7B PUSH2 0x9B CALLDATASIZE PUSH1 0x4 PUSH2 0x7BF JUMP JUMPDEST PUSH2 0xE7 JUMP JUMPDEST PUSH2 0x7B PUSH2 0xAE CALLDATASIZE PUSH1 0x4 PUSH2 0x7D8 JUMP JUMPDEST PUSH2 0x155 JUMP JUMPDEST PUSH2 0x7B PUSH2 0xC1 CALLDATASIZE PUSH1 0x4 PUSH2 0x816 JUMP JUMPDEST PUSH2 0x618 JUMP JUMPDEST PUSH8 0x8AC7230489E80000 PUSH2 0x7B JUMP JUMPDEST PUSH2 0x7B PUSH2 0xE2 CALLDATASIZE PUSH1 0x4 PUSH2 0x7BF JUMP JUMPDEST PUSH2 0x6C8 JUMP JUMPDEST PUSH1 0x0 DUP1 DUP1 PUSH2 0xF6 DUP5 PUSH1 0x3 PUSH2 0x726 JUMP JUMPDEST SWAP1 SWAP3 POP SWAP1 POP DUP2 PUSH2 0x121 JUMPI PUSH1 0x40 MLOAD PUSH3 0x461BCD PUSH1 0xE5 SHL DUP2 MSTORE PUSH1 0x4 ADD PUSH2 0x118 SWAP1 PUSH2 0x838 JUMP JUMPDEST PUSH1 0x40 MLOAD DUP1 SWAP2 SUB SWAP1 REVERT JUMPDEST PUSH2 0x12C DUP2 PUSH1 0x64 PUSH2 0x771 JUMP JUMPDEST SWAP1 SWAP3 POP SWAP1 POP DUP2 PUSH2 0x14E JUMPI PUSH1 0x40 MLOAD PUSH3 0x461BCD PUSH1 0xE5 SHL DUP2 MSTORE PUSH1 0x4 ADD PUSH2 0x118 SWAP1 PUSH2 0x838 JUMP JUMPDEST SWAP4 SWAP3 POP POP POP JUMP JUMPDEST PUSH1 0x0 PUSH1 0x1 DUP1 PUSH1 0x0 JUMPDEST PUSH1 0x2 DUP2 LT ISZERO PUSH2 0x1EA JUMPI PUSH2 0x170 DUP3 DUP9 PUSH2 0x726 JUMP JUMPDEST SWAP1 SWAP4 POP SWAP2 POP DUP3 PUSH2 0x1D8 JUMPI PUSH1 0x40 DUP1 MLOAD PUSH3 0x461BCD PUSH1 0xE5 SHL DUP2 MSTORE PUSH1 0x20 PUSH1 0x4 DUP3 ADD MSTORE PUSH1 0x24 DUP2 ADD SWAP2 SWAP1 SWAP2 MSTORE PUSH1 0x0 DUP1 MLOAD PUSH1 0x20 PUSH2 0x95C DUP4 CODECOPY DUP2 MLOAD SWAP2 MSTORE PUSH1 0x44 DUP3 ADD MSTORE PUSH32 0x756C617465207469636B657420707269636520696E20692A2A5F616C7068612E PUSH1 0x64 DUP3 ADD MSTORE PUSH1 0x84 ADD PUSH2 0x118 JUMP JUMPDEST DUP1 PUSH2 0x1E2 DUP2 PUSH2 0x892 JUMP JUMPDEST SWAP2 POP POP PUSH2 0x15D JUMP JUMPDEST POP PUSH2 0x1F6 DUP2 PUSH1 0xA PUSH2 0x726 JUMP JUMPDEST SWAP1 SWAP3 POP SWAP1 POP DUP2 PUSH2 0x26B JUMPI PUSH1 0x40 MLOAD PUSH3 0x461BCD PUSH1 0xE5 SHL DUP2 MSTORE PUSH1 0x20 PUSH1 0x4 DUP3 ADD MSTORE PUSH1 0x46 PUSH1 0x24 DUP3 ADD MSTORE PUSH1 0x0 DUP1 MLOAD PUSH1 0x20 PUSH2 0x95C DUP4 CODECOPY DUP2 MLOAD SWAP2 MSTORE PUSH1 0x44 DUP3 ADD MSTORE PUSH32 0x756C617465207469636B657420707269636520696E205F626574612A692A2A5F PUSH1 0x64 DUP3 ADD MSTORE PUSH6 0x30B638343097 PUSH1 0xD1 SHL PUSH1 0x84 DUP3 ADD MSTORE PUSH1 0xA4 ADD PUSH2 0x118 JUMP JUMPDEST PUSH2 0x276 DUP2 PUSH1 0x64 PUSH2 0x771 JUMP JUMPDEST SWAP1 SWAP3 POP SWAP1 POP DUP2 PUSH2 0x2F8 JUMPI PUSH1 0x40 MLOAD PUSH3 0x461BCD PUSH1 0xE5 SHL DUP2 MSTORE PUSH1 0x20 PUSH1 0x4 DUP3 ADD MSTORE PUSH1 0x53 PUSH1 0x24 DUP3 ADD MSTORE PUSH1 0x0 DUP1 MLOAD PUSH1 0x20 PUSH2 0x95C DUP4 CODECOPY DUP2 MLOAD SWAP2 MSTORE PUSH1 0x44 DUP3 ADD MSTORE PUSH32 0x756C617465207469636B657420707269636520696E205F626574612F5F64656E PUSH1 0x64 DUP3 ADD MSTORE PUSH19 0x37B6B4B730BA37B9153495152FB0B638343097 PUSH1 0x69 SHL PUSH1 0x84 DUP3 ADD MSTORE PUSH1 0xA4 ADD PUSH2 0x118 JUMP JUMPDEST PUSH2 0x30A DUP2 PUSH8 0xDE0B6B3A7640000 PUSH2 0x726 JUMP JUMPDEST SWAP1 SWAP3 POP SWAP1 POP DUP2 PUSH2 0x396 JUMPI PUSH1 0x40 MLOAD PUSH3 0x461BCD PUSH1 0xE5 SHL DUP2 MSTORE PUSH1 0x20 PUSH1 0x4 DUP3 ADD MSTORE PUSH1 0x5C PUSH1 0x24 DUP3 ADD MSTORE PUSH1 0x0 DUP1 MLOAD PUSH1 0x20 PUSH2 0x95C DUP4 CODECOPY DUP2 MLOAD SWAP2 MSTORE PUSH1 0x44 DUP3 ADD MSTORE PUSH32 0x756C617465207469636B657420707269636520696E20285F626574612F5F6465 PUSH1 0x64 DUP3 ADD MSTORE PUSH32 0x6E6F6D696E61746F722A692A2A5F616C706861292A31302A2A31382E00000000 PUSH1 0x84 DUP3 ADD MSTORE PUSH1 0xA4 ADD PUSH2 0x118 JUMP JUMPDEST PUSH2 0x3A7 DUP2 PUSH7 0x2386F26FC10000 PUSH2 0x7A4 JUMP JUMPDEST SWAP1 SWAP3 POP SWAP1 POP DUP2 PUSH2 0x433 JUMPI PUSH1 0x40 MLOAD PUSH3 0x461BCD PUSH1 0xE5 SHL DUP2 MSTORE PUSH1 0x20 PUSH1 0x4 DUP3 ADD MSTORE PUSH1 0x5B PUSH1 0x24 DUP3 ADD MSTORE PUSH1 0x0 DUP1 MLOAD PUSH1 0x20 PUSH2 0x95C DUP4 CODECOPY DUP2 MLOAD SWAP2 MSTORE PUSH1 0x44 DUP3 ADD MSTORE PUSH32 0x756C617465207469636B657420707269636520696E205F626574612F5F64656E PUSH1 0x64 DUP3 ADD MSTORE PUSH32 0x6F6D696E61746F722A692A2A5F616C706861202B2067616D6D612E0000000000 PUSH1 0x84 DUP3 ADD MSTORE PUSH1 0xA4 ADD PUSH2 0x118 JUMP JUMPDEST DUP4 ISZERO PUSH2 0x60F JUMPI PUSH1 0x0 PUSH2 0x446 DUP7 PUSH1 0xA PUSH2 0x726 JUMP JUMPDEST SWAP1 SWAP4 POP SWAP1 POP DUP3 PUSH2 0x4DA JUMPI PUSH1 0x40 MLOAD PUSH3 0x461BCD PUSH1 0xE5 SHL DUP2 MSTORE PUSH1 0x20 PUSH1 0x4 DUP3 ADD MSTORE PUSH1 0x53 PUSH1 0x24 DUP3 ADD MSTORE PUSH32 0x4E756D626572206F766572666C6F77206F6363757273207768656E2028666C61 PUSH1 0x44 DUP3 ADD MSTORE PUSH32 0x672C20657874726146656529203D20536166654D6174682E7472794D756C2874 PUSH1 0x64 DUP3 ADD MSTORE PUSH19 0x6F74616C526577617264506F6F6C2C205F7029 PUSH1 0x68 SHL PUSH1 0x84 DUP3 ADD MSTORE PUSH1 0xA4 ADD PUSH2 0x118 JUMP JUMPDEST PUSH2 0x4E5 DUP2 PUSH1 0x64 PUSH2 0x771 JUMP JUMPDEST SWAP1 SWAP4 POP SWAP1 POP DUP3 PUSH2 0x57C JUMPI PUSH1 0x40 MLOAD PUSH3 0x461BCD PUSH1 0xE5 SHL DUP2 MSTORE PUSH1 0x20 PUSH1 0x4 DUP3 ADD MSTORE PUSH1 0x56 PUSH1 0x24 DUP3 ADD MSTORE PUSH32 0x4E756D626572206F766572666C6F77206F6363757273207768656E2028666C61 PUSH1 0x44 DUP3 ADD MSTORE PUSH32 0x672C20657874726146656529203D20536166654D6174682E7472794469762865 PUSH1 0x64 DUP3 ADD MSTORE PUSH22 0x787472614665652C205F64656E6F6D696E61746F7229 PUSH1 0x50 SHL PUSH1 0x84 DUP3 ADD MSTORE PUSH1 0xA4 ADD PUSH2 0x118 JUMP JUMPDEST PUSH2 0x586 DUP3 DUP3 PUSH2 0x7A4 JUMP JUMPDEST SWAP1 SWAP4 POP SWAP2 POP DUP3 PUSH2 0x60D JUMPI PUSH1 0x40 MLOAD PUSH3 0x461BCD PUSH1 0xE5 SHL DUP2 MSTORE PUSH1 0x20 PUSH1 0x4 DUP3 ADD MSTORE PUSH1 0x46 PUSH1 0x24 DUP3 ADD MSTORE PUSH32 0x4E756D626572206F766572666C6F77206F6363757273207768656E2028666C61 PUSH1 0x44 DUP3 ADD MSTORE PUSH32 0x672C20747029203D20536166654D6174682E7472794164642874702C20657874 PUSH1 0x64 DUP3 ADD MSTORE PUSH6 0x726146656529 PUSH1 0xD0 SHL PUSH1 0x84 DUP3 ADD MSTORE PUSH1 0xA4 ADD PUSH2 0x118 JUMP JUMPDEST POP JUMPDEST SWAP6 SWAP5 POP POP POP POP POP JUMP JUMPDEST PUSH1 0x0 DUP1 PUSH1 0x32 PUSH2 0x629 PUSH1 0x3 PUSH1 0x64 PUSH2 0x8AB JUMP JUMPDEST PUSH2 0x633 SWAP2 SWAP1 PUSH2 0x8AB JUMP JUMPDEST SWAP1 POP PUSH1 0x0 DUP1 PUSH2 0x642 DUP7 DUP5 PUSH2 0x726 JUMP JUMPDEST SWAP1 SWAP3 POP SWAP1 POP DUP2 PUSH2 0x664 JUMPI PUSH1 0x40 MLOAD PUSH3 0x461BCD PUSH1 0xE5 SHL DUP2 MSTORE PUSH1 0x4 ADD PUSH2 0x118 SWAP1 PUSH2 0x8BE JUMP JUMPDEST PUSH2 0x66F DUP2 PUSH1 0x64 PUSH2 0x771 JUMP JUMPDEST SWAP1 SWAP3 POP SWAP1 POP DUP2 PUSH2 0x691 JUMPI PUSH1 0x40 MLOAD PUSH3 0x461BCD PUSH1 0xE5 SHL DUP2 MSTORE PUSH1 0x4 ADD PUSH2 0x118 SWAP1 PUSH2 0x8BE JUMP JUMPDEST PUSH2 0x69B DUP2 DUP7 PUSH2 0x771 JUMP JUMPDEST SWAP1 SWAP3 POP SWAP1 POP DUP2 PUSH2 0x6BD JUMPI PUSH1 0x40 MLOAD PUSH3 0x461BCD PUSH1 0xE5 SHL DUP2 MSTORE PUSH1 0x4 ADD PUSH2 0x118 SWAP1 PUSH2 0x8BE JUMP JUMPDEST SWAP3 POP POP POP JUMPDEST SWAP3 SWAP2 POP POP JUMP JUMPDEST PUSH1 0x0 DUP1 DUP1 PUSH2 0x6D7 DUP5 PUSH1 0x32 PUSH2 0x726 JUMP JUMPDEST SWAP1 SWAP3 POP SWAP1 POP DUP2 PUSH2 0x6F9 JUMPI PUSH1 0x40 MLOAD PUSH3 0x461BCD PUSH1 0xE5 SHL DUP2 MSTORE PUSH1 0x4 ADD PUSH2 0x118 SWAP1 PUSH2 0x902 JUMP JUMPDEST PUSH2 0x704 DUP2 PUSH1 0x64 PUSH2 0x771 JUMP JUMPDEST SWAP1 SWAP3 POP SWAP1 POP DUP2 PUSH2 0x14E JUMPI PUSH1 0x40 MLOAD PUSH3 0x461BCD PUSH1 0xE5 SHL DUP2 MSTORE PUSH1 0x4 ADD PUSH2 0x118 SWAP1 PUSH2 0x902 JUMP JUMPDEST PUSH1 0x0 DUP1 DUP4 PUSH1 0x0 SUB PUSH2 0x73D JUMPI POP PUSH1 0x1 SWAP1 POP PUSH1 0x0 PUSH2 0x76A JUMP JUMPDEST DUP4 DUP4 MUL DUP4 DUP6 DUP3 DUP2 PUSH2 0x750 JUMPI PUSH2 0x750 PUSH2 0x945 JUMP JUMPDEST DIV EQ PUSH2 0x763 JUMPI PUSH1 0x0 DUP1 SWAP3 POP SWAP3 POP POP PUSH2 0x76A JUMP JUMPDEST PUSH1 0x1 SWAP3 POP SWAP1 POP JUMPDEST SWAP3 POP SWAP3 SWAP1 POP JUMP JUMPDEST PUSH1 0x0 DUP1 DUP3 PUSH1 0x0 SUB PUSH2 0x787 JUMPI POP PUSH1 0x0 SWAP1 POP DUP1 PUSH2 0x76A JUMP JUMPDEST PUSH1 0x1 DUP4 DUP6 DUP2 PUSH2 0x798 JUMPI PUSH2 0x798 PUSH2 0x945 JUMP JUMPDEST DIV SWAP2 POP SWAP2 POP SWAP3 POP SWAP3 SWAP1 POP JUMP JUMPDEST PUSH1 0x0 DUP1 DUP4 DUP4 ADD DUP5 DUP2 LT ISZERO PUSH2 0x763 JUMPI PUSH1 0x0 DUP1 SWAP3 POP SWAP3 POP POP PUSH2 0x76A JUMP JUMPDEST PUSH1 0x0 PUSH1 0x20 DUP3 DUP5 SUB SLT ISZERO PUSH2 0x7D1 JUMPI PUSH1 0x0 DUP1 REVERT JUMPDEST POP CALLDATALOAD SWAP2 SWAP1 POP JUMP JUMPDEST PUSH1 0x0 DUP1 PUSH1 0x0 PUSH1 0x60 DUP5 DUP7 SUB SLT ISZERO PUSH2 0x7ED JUMPI PUSH1 0x0 DUP1 REVERT JUMPDEST DUP4 CALLDATALOAD SWAP3 POP PUSH1 0x20 DUP5 ADD CALLDATALOAD SWAP2 POP PUSH1 0x40 DUP5 ADD CALLDATALOAD DUP1 ISZERO ISZERO DUP2 EQ PUSH2 0x80B JUMPI PUSH1 0x0 DUP1 REVERT JUMPDEST DUP1 SWAP2 POP POP SWAP3 POP SWAP3 POP SWAP3 JUMP JUMPDEST PUSH1 0x0 DUP1 PUSH1 0x40 DUP4 DUP6 SUB SLT ISZERO PUSH2 0x829 JUMPI PUSH1 0x0 DUP1 REVERT JUMPDEST POP POP DUP1 CALLDATALOAD SWAP3 PUSH1 0x20 SWAP1 SWAP2 ADD CALLDATALOAD SWAP2 POP JUMP JUMPDEST PUSH1 0x20 DUP1 DUP3 MSTORE PUSH1 0x24 SWAP1 DUP3 ADD MSTORE PUSH32 0x5B7469636B6574496E636F6D653247726F75704C65616465725D206F76657266 PUSH1 0x40 DUP3 ADD MSTORE PUSH4 0x3637BB97 PUSH1 0xE1 SHL PUSH1 0x60 DUP3 ADD MSTORE PUSH1 0x80 ADD SWAP1 JUMP JUMPDEST PUSH4 0x4E487B71 PUSH1 0xE0 SHL PUSH1 0x0 MSTORE PUSH1 0x11 PUSH1 0x4 MSTORE PUSH1 0x24 PUSH1 0x0 REVERT JUMPDEST PUSH1 0x0 PUSH1 0x1 DUP3 ADD PUSH2 0x8A4 JUMPI PUSH2 0x8A4 PUSH2 0x87C JUMP JUMPDEST POP PUSH1 0x1 ADD SWAP1 JUMP JUMPDEST DUP2 DUP2 SUB DUP2 DUP2 GT ISZERO PUSH2 0x6C2 JUMPI PUSH2 0x6C2 PUSH2 0x87C JUMP JUMPDEST PUSH1 0x20 DUP1 DUP3 MSTORE PUSH1 0x24 SWAP1 DUP3 ADD MSTORE PUSH32 0x5B7469636B6574496E636F6D653247726F75704D656D6265725D206F76657266 PUSH1 0x40 DUP3 ADD MSTORE PUSH4 0x3637BB97 PUSH1 0xE1 SHL PUSH1 0x60 DUP3 ADD MSTORE PUSH1 0x80 ADD SWAP1 JUMP JUMPDEST PUSH1 0x20 DUP1 DUP3 MSTORE PUSH1 0x23 SWAP1 DUP3 ADD MSTORE PUSH32 0x5B7469636B6574496E636F6D6532526577617264506F6F6C5D206F766572666C PUSH1 0x40 DUP3 ADD MSTORE PUSH3 0x37BB97 PUSH1 0xE9 SHL PUSH1 0x60 DUP3 ADD MSTORE PUSH1 0x80 ADD SWAP1 JUMP JUMPDEST PUSH4 0x4E487B71 PUSH1 0xE0 SHL PUSH1 0x0 MSTORE PUSH1 0x12 PUSH1 0x4 MSTORE PUSH1 0x24 PUSH1 0x0 REVERT INVALID 0x4E PUSH22 0x6D626572206F766572666C6F77206F63637572732077 PUSH9 0x656E2063616C63A264 PUSH10 0x7066735822122004252F PUSH21 0x5BECE115BC63C40260C054F77DFB48935D01AE56B4 SIGNEXTEND 0xF7 PREVRANDAO ISZERO SWAP13 CALLDATASIZE KECCAK256 PUSH5 0x736F6C6343 STOP ADDMOD SLT STOP CALLER "
				},
				"gasEstimates": {
					"creation": {
						"codeDepositCost": "496200",
						"executionCost": "561",
						"totalCost": "496761"
					},
					"external": {
						"groupCreateMinFee()": "131",
						"taskCreateMinFee()": "230",
						"ticketIncome2GroupLeader(uint256)": "556",
						"ticketIncome2GroupMember(uint256,uint256)": "infinite",
						"ticketIncome2RewardPool(uint256)": "644",
						"ticketPrice(uint256,uint256,bool)": "infinite"
					}
				},
				"methodIdentifiers": {
					"groupCreateMinFee()": "26d0a334",
					"taskCreateMinFee()": "91096a3c",
					"ticketIncome2GroupLeader(uint256)": "2e26fb4a",
					"ticketIncome2GroupMember(uint256,uint256)": "84105419",
					"ticketIncome2RewardPool(uint256)": "e6ca2a8d",
					"ticketPrice(uint256,uint256,bool)": "627ca922"
				}
			},
			"storageLayout": {
				"storage": [],
				"types": null
			},
			"userdoc": {
				"kind": "user",
				"methods": {},
				"version": 1
			}
		}
	}
}