{
	"degen/DegenMoneyLib.sol": {
		"DegenMoneyLib": {
			"abi": [
				{
					"anonymous": false,
					"inputs": [
						{
							"indexed": false,
							"internalType": "string",
							"name": "",
							"type": "string"
						},
						{
							"indexed": false,
							"internalType": "uint256",
							"name": "",
							"type": "uint256"
						}
					],
					"name": "LogUint256",
					"type": "event"
				},
				{
					"inputs": [],
					"name": "groupCreateMinFee",
					"outputs": [
						{
							"internalType": "uint256",
							"name": "money",
							"type": "uint256"
						}
					],
					"stateMutability": "pure",
					"type": "function"
				},
				{
					"inputs": [
						{
							"internalType": "uint256",
							"name": "totalReward",
							"type": "uint256"
						}
					],
					"name": "rewardPool2GroupLeader",
					"outputs": [
						{
							"internalType": "uint256",
							"name": "money",
							"type": "uint256"
						}
					],
					"stateMutability": "pure",
					"type": "function"
				},
				{
					"inputs": [
						{
							"internalType": "uint256",
							"name": "totalReward",
							"type": "uint256"
						},
						{
							"internalType": "uint256",
							"name": "memNum",
							"type": "uint256"
						}
					],
					"name": "rewardPool2GroupMember",
					"outputs": [
						{
							"internalType": "uint256",
							"name": "money",
							"type": "uint256"
						}
					],
					"stateMutability": "pure",
					"type": "function"
				},
				{
					"inputs": [],
					"name": "taskCreateMinFee",
					"outputs": [
						{
							"internalType": "uint256",
							"name": "money",
							"type": "uint256"
						}
					],
					"stateMutability": "pure",
					"type": "function"
				},
				{
					"inputs": [
						{
							"internalType": "uint256",
							"name": "ticketIncome",
							"type": "uint256"
						}
					],
					"name": "ticketIncome2GroupLeader",
					"outputs": [
						{
							"internalType": "uint256",
							"name": "money",
							"type": "uint256"
						}
					],
					"stateMutability": "pure",
					"type": "function"
				},
				{
					"inputs": [
						{
							"internalType": "uint256",
							"name": "ticketIncome",
							"type": "uint256"
						},
						{
							"internalType": "uint256",
							"name": "memNum",
							"type": "uint256"
						}
					],
					"name": "ticketIncome2GroupMember",
					"outputs": [
						{
							"internalType": "uint256",
							"name": "money",
							"type": "uint256"
						}
					],
					"stateMutability": "pure",
					"type": "function"
				},
				{
					"inputs": [
						{
							"internalType": "uint256",
							"name": "ticketIncome",
							"type": "uint256"
						}
					],
					"name": "ticketIncome2RewardPool",
					"outputs": [
						{
							"internalType": "uint256",
							"name": "money",
							"type": "uint256"
						}
					],
					"stateMutability": "pure",
					"type": "function"
				},
				{
					"inputs": [
						{
							"internalType": "uint256",
							"name": "ith",
							"type": "uint256"
						},
						{
							"internalType": "uint256",
							"name": "totalRewardPool",
							"type": "uint256"
						},
						{
							"internalType": "int256",
							"name": "firstGrpId",
							"type": "int256"
						},
						{
							"internalType": "int256",
							"name": "SecondGrpId",
							"type": "int256"
						},
						{
							"internalType": "uint256",
							"name": "firstGrpPeopleNum",
							"type": "uint256"
						},
						{
							"internalType": "uint256",
							"name": "secondGrpPeopleNum",
							"type": "uint256"
						}
					],
					"name": "ticketPrice",
					"outputs": [
						{
							"internalType": "uint256",
							"name": "price",
							"type": "uint256"
						}
					],
					"stateMutability": "pure",
					"type": "function"
				}
			],
			"devdoc": {
				"kind": "dev",
				"methods": {},
				"version": 1
			},
			"evm": {
				"assembly": "    /* \"degen/DegenMoneyLib.sol\":123:7297  library DegenMoneyLib {... */\n  dataSize(sub_0)\n  dataOffset(sub_0)\n  0x0b\n  dup3\n  dup3\n  dup3\n  codecopy\n  dup1\n  mload\n  0x00\n  byte\n  0x73\n  eq\n  tag_1\n  jumpi\n  mstore(0x00, shl(0xe0, 0x4e487b71))\n  mstore(0x04, 0x00)\n  revert(0x00, 0x24)\ntag_1:\n  mstore(0x00, address)\n  0x73\n  dup2\n  mstore8\n  dup3\n  dup2\n  return\nstop\n\nsub_0: assembly {\n        /* \"degen/DegenMoneyLib.sol\":123:7297  library DegenMoneyLib {... */\n      eq(address, deployTimeAddress())\n      mstore(0x40, 0x80)\n      jumpi(tag_1, lt(calldatasize, 0x04))\n      shr(0xe0, calldataload(0x00))\n      dup1\n      0x91096a3c\n      gt\n      tag_10\n      jumpi\n      dup1\n      0x91096a3c\n      eq\n      tag_6\n      jumpi\n      dup1\n      0x9b49380b\n      eq\n      tag_7\n      jumpi\n      dup1\n      0xbeb19a21\n      eq\n      tag_8\n      jumpi\n      dup1\n      0xe6ca2a8d\n      eq\n      tag_9\n      jumpi\n      0x00\n      dup1\n      revert\n    tag_10:\n      dup1\n      0x26d0a334\n      eq\n      tag_2\n      jumpi\n      dup1\n      0x2e26fb4a\n      eq\n      tag_3\n      jumpi\n      dup1\n      0x3ed12ab7\n      eq\n      tag_4\n      jumpi\n      dup1\n      0x84105419\n      eq\n      tag_5\n      jumpi\n    tag_1:\n      0x00\n      dup1\n      revert\n        /* \"degen/DegenMoneyLib.sol\":1296:1405  function groupCreateMinFee() public pure returns (uint256 money) {... */\n    tag_2:\n        /* \"degen/DegenMoneyLib.sol\":421:432  100 * 10**6 */\n      0x05f5e100\n        /* \"degen/DegenMoneyLib.sol\":1296:1405  function groupCreateMinFee() public pure returns (uint256 money) {... */\n    tag_11:\n      mload(0x40)\n        /* \"#utility.yul\":168:193   */\n      swap1\n      dup2\n      mstore\n        /* \"#utility.yul\":156:158   */\n      0x20\n        /* \"#utility.yul\":141:159   */\n      add\n        /* \"degen/DegenMoneyLib.sol\":1296:1405  function groupCreateMinFee() public pure returns (uint256 money) {... */\n      mload(0x40)\n      dup1\n      swap2\n      sub\n      swap1\n      return\n        /* \"degen/DegenMoneyLib.sol\":4638:5103  function ticketIncome2GroupLeader(uint256 ticketIncome) public pure returns (uint256 money) {... */\n    tag_3:\n      tag_11\n      tag_16\n      calldatasize\n      0x04\n      tag_17\n      jump\t// in\n    tag_16:\n      tag_18\n      jump\t// in\n        /* \"degen/DegenMoneyLib.sol\":6541:7294  function rewardPool2GroupMember(uint256 totalReward, uint256 memNum) public pure returns (uint256 money) {... */\n    tag_4:\n      tag_11\n      tag_21\n      calldatasize\n      0x04\n      tag_22\n      jump\t// in\n    tag_21:\n      tag_23\n      jump\t// in\n        /* \"degen/DegenMoneyLib.sol\":5111:5990  function ticketIncome2GroupMember(uint256 ticketIncome, uint256 memNum) public pure returns (uint256 money) {... */\n    tag_5:\n      tag_11\n      tag_26\n      calldatasize\n      0x04\n      tag_22\n      jump\t// in\n    tag_26:\n      tag_27\n      jump\t// in\n        /* \"degen/DegenMoneyLib.sol\":1181:1288  function taskCreateMinFee() public pure returns (uint256 money) {... */\n    tag_6:\n        /* \"degen/DegenMoneyLib.sol\":356:368  1000 * 10**6 */\n      0x3b9aca00\n        /* \"degen/DegenMoneyLib.sol\":1181:1288  function taskCreateMinFee() public pure returns (uint256 money) {... */\n      jump(tag_11)\n        /* \"degen/DegenMoneyLib.sol\":1485:4160  function ticketPrice(... */\n    tag_7:\n      tag_11\n      tag_33\n      calldatasize\n      0x04\n      tag_34\n      jump\t// in\n    tag_33:\n      tag_35\n      jump\t// in\n        /* \"degen/DegenMoneyLib.sol\":6075:6533  function rewardPool2GroupLeader(uint256 totalReward) public pure returns (uint256 money) {... */\n    tag_8:\n      tag_11\n      tag_38\n      calldatasize\n      0x04\n      tag_17\n      jump\t// in\n    tag_38:\n      tag_39\n      jump\t// in\n        /* \"degen/DegenMoneyLib.sol\":4168:4630  function ticketIncome2RewardPool(uint256 ticketIncome) public pure returns (uint256 money) {... */\n    tag_9:\n      tag_11\n      tag_42\n      calldatasize\n      0x04\n      tag_17\n      jump\t// in\n    tag_42:\n      tag_43\n      jump\t// in\n        /* \"degen/DegenMoneyLib.sol\":4638:5103  function ticketIncome2GroupLeader(uint256 ticketIncome) public pure returns (uint256 money) {... */\n    tag_18:\n        /* \"degen/DegenMoneyLib.sol\":4715:4728  uint256 money */\n      0x00\n      dup1\n      dup1\n        /* \"degen/DegenMoneyLib.sol\":4860:4893  SafeMath.tryMul(ticketIncome, _a) */\n      tag_47\n        /* \"degen/DegenMoneyLib.sol\":4876:4888  ticketIncome */\n      dup5\n        /* \"degen/DegenMoneyLib.sol\":469:471  30 */\n      0x1e\n        /* \"degen/DegenMoneyLib.sol\":4860:4875  SafeMath.tryMul */\n      tag_48\n        /* \"degen/DegenMoneyLib.sol\":4860:4893  SafeMath.tryMul(ticketIncome, _a) */\n      jump\t// in\n    tag_47:\n        /* \"degen/DegenMoneyLib.sol\":4848:4893  (flag, m) = SafeMath.tryMul(ticketIncome, _a) */\n      swap1\n      swap3\n      pop\n      swap1\n      pop\n      dup2\n        /* \"degen/DegenMoneyLib.sol\":4904:4957  require(flag, \"[ticketIncome2GroupLeader] overflow.\") */\n      tag_49\n      jumpi\n      mload(0x40)\n      shl(0xe5, 0x461bcd)\n      dup2\n      mstore\n      0x04\n      add\n      tag_50\n      swap1\n      tag_51\n      jump\t// in\n    tag_50:\n      mload(0x40)\n      dup1\n      swap2\n      sub\n      swap1\n      revert\n    tag_49:\n        /* \"degen/DegenMoneyLib.sol\":4980:5012  SafeMath.tryDiv(m, _denominator) */\n      tag_52\n        /* \"degen/DegenMoneyLib.sol\":4996:4997  m */\n      dup2\n        /* \"degen/DegenMoneyLib.sol\":1168:1172  1000 */\n      0x03e8\n        /* \"degen/DegenMoneyLib.sol\":4980:4995  SafeMath.tryDiv */\n      tag_53\n        /* \"degen/DegenMoneyLib.sol\":4980:5012  SafeMath.tryDiv(m, _denominator) */\n      jump\t// in\n    tag_52:\n        /* \"degen/DegenMoneyLib.sol\":4968:5012  (flag, m) = SafeMath.tryDiv(m, _denominator) */\n      swap1\n      swap3\n      pop\n      swap1\n      pop\n      dup2\n        /* \"degen/DegenMoneyLib.sol\":5023:5076  require(flag, \"[ticketIncome2GroupLeader] overflow.\") */\n      tag_54\n      jumpi\n      mload(0x40)\n      shl(0xe5, 0x461bcd)\n      dup2\n      mstore\n      0x04\n      add\n      tag_50\n      swap1\n      tag_51\n      jump\t// in\n    tag_54:\n        /* \"degen/DegenMoneyLib.sol\":5094:5095  m */\n      swap4\n        /* \"degen/DegenMoneyLib.sol\":4638:5103  function ticketIncome2GroupLeader(uint256 ticketIncome) public pure returns (uint256 money) {... */\n      swap3\n      pop\n      pop\n      pop\n      jump\t// out\n        /* \"degen/DegenMoneyLib.sol\":6541:7294  function rewardPool2GroupMember(uint256 totalReward, uint256 memNum) public pure returns (uint256 money) {... */\n    tag_23:\n        /* \"degen/DegenMoneyLib.sol\":6631:6644  uint256 money */\n      0x00\n      dup1\n      dup1\n      dup1\n        /* \"degen/DegenMoneyLib.sol\":6826:6859  SafeMath.trySub(_denominator, _c) */\n      tag_57\n        /* \"degen/DegenMoneyLib.sol\":1168:1172  1000 */\n      0x03e8\n        /* \"degen/DegenMoneyLib.sol\":646:649  100 */\n      0x64\n        /* \"degen/DegenMoneyLib.sol\":6826:6841  SafeMath.trySub */\n      tag_58\n        /* \"degen/DegenMoneyLib.sol\":6826:6859  SafeMath.trySub(_denominator, _c) */\n      jump\t// in\n    tag_57:\n        /* \"degen/DegenMoneyLib.sol\":6814:6859  (flag, c) = SafeMath.trySub(_denominator, _c) */\n      swap1\n      swap4\n      pop\n      swap1\n      pop\n      dup3\n        /* \"degen/DegenMoneyLib.sol\":6870:6921  require(flag, \"[rewardPool2GroupMember] overflow.\") */\n      tag_59\n      jumpi\n      mload(0x40)\n      shl(0xe5, 0x461bcd)\n      dup2\n      mstore\n      0x04\n      add\n      tag_50\n      swap1\n      tag_61\n      jump\t// in\n    tag_59:\n        /* \"degen/DegenMoneyLib.sol\":6944:6975  SafeMath.tryMul(totalReward, c) */\n      tag_62\n        /* \"degen/DegenMoneyLib.sol\":6960:6971  totalReward */\n      dup7\n        /* \"degen/DegenMoneyLib.sol\":6973:6974  c */\n      dup3\n        /* \"degen/DegenMoneyLib.sol\":6944:6959  SafeMath.tryMul */\n      tag_48\n        /* \"degen/DegenMoneyLib.sol\":6944:6975  SafeMath.tryMul(totalReward, c) */\n      jump\t// in\n    tag_62:\n        /* \"degen/DegenMoneyLib.sol\":6932:6975  (flag, m) = SafeMath.tryMul(totalReward, c) */\n      swap1\n      swap4\n      pop\n      swap2\n      pop\n      dup3\n        /* \"degen/DegenMoneyLib.sol\":6986:7037  require(flag, \"[rewardPool2GroupMember] overflow.\") */\n      tag_63\n      jumpi\n      mload(0x40)\n      shl(0xe5, 0x461bcd)\n      dup2\n      mstore\n      0x04\n      add\n      tag_50\n      swap1\n      tag_61\n      jump\t// in\n    tag_63:\n        /* \"degen/DegenMoneyLib.sol\":7060:7092  SafeMath.tryDiv(m, _denominator) */\n      tag_65\n        /* \"degen/DegenMoneyLib.sol\":7076:7077  m */\n      dup3\n        /* \"degen/DegenMoneyLib.sol\":1168:1172  1000 */\n      0x03e8\n        /* \"degen/DegenMoneyLib.sol\":7060:7075  SafeMath.tryDiv */\n      tag_53\n        /* \"degen/DegenMoneyLib.sol\":7060:7092  SafeMath.tryDiv(m, _denominator) */\n      jump\t// in\n    tag_65:\n        /* \"degen/DegenMoneyLib.sol\":7048:7092  (flag, m) = SafeMath.tryDiv(m, _denominator) */\n      swap1\n      swap4\n      pop\n      swap2\n      pop\n      dup3\n        /* \"degen/DegenMoneyLib.sol\":7103:7154  require(flag, \"[rewardPool2GroupMember] overflow.\") */\n      tag_66\n      jumpi\n      mload(0x40)\n      shl(0xe5, 0x461bcd)\n      dup2\n      mstore\n      0x04\n      add\n      tag_50\n      swap1\n      tag_61\n      jump\t// in\n    tag_66:\n        /* \"degen/DegenMoneyLib.sol\":7177:7203  SafeMath.tryDiv(m, memNum) */\n      tag_68\n        /* \"degen/DegenMoneyLib.sol\":7193:7194  m */\n      dup3\n        /* \"degen/DegenMoneyLib.sol\":7196:7202  memNum */\n      dup7\n        /* \"degen/DegenMoneyLib.sol\":7177:7192  SafeMath.tryDiv */\n      tag_53\n        /* \"degen/DegenMoneyLib.sol\":7177:7203  SafeMath.tryDiv(m, memNum) */\n      jump\t// in\n    tag_68:\n        /* \"degen/DegenMoneyLib.sol\":7165:7203  (flag, m) = SafeMath.tryDiv(m, memNum) */\n      swap1\n      swap4\n      pop\n      swap2\n      pop\n      dup3\n        /* \"degen/DegenMoneyLib.sol\":7214:7265  require(flag, \"[rewardPool2GroupMember] overflow.\") */\n      tag_69\n      jumpi\n      mload(0x40)\n      shl(0xe5, 0x461bcd)\n      dup2\n      mstore\n      0x04\n      add\n      tag_50\n      swap1\n      tag_61\n      jump\t// in\n    tag_69:\n      pop\n        /* \"degen/DegenMoneyLib.sol\":7285:7286  m */\n      swap2\n      pop\n      pop\n        /* \"degen/DegenMoneyLib.sol\":6541:7294  function rewardPool2GroupMember(uint256 totalReward, uint256 memNum) public pure returns (uint256 money) {... */\n    tag_56:\n      swap3\n      swap2\n      pop\n      pop\n      jump\t// out\n        /* \"degen/DegenMoneyLib.sol\":5111:5990  function ticketIncome2GroupMember(uint256 ticketIncome, uint256 memNum) public pure returns (uint256 money) {... */\n    tag_27:\n        /* \"degen/DegenMoneyLib.sol\":5204:5217  uint256 money */\n      0x00\n      dup1\n      dup1\n      dup1\n        /* \"degen/DegenMoneyLib.sol\":5404:5437  SafeMath.trySub(_denominator, _a) */\n      tag_72\n        /* \"degen/DegenMoneyLib.sol\":1168:1172  1000 */\n      0x03e8\n        /* \"degen/DegenMoneyLib.sol\":469:471  30 */\n      0x1e\n        /* \"degen/DegenMoneyLib.sol\":5404:5419  SafeMath.trySub */\n      tag_58\n        /* \"degen/DegenMoneyLib.sol\":5404:5437  SafeMath.trySub(_denominator, _a) */\n      jump\t// in\n    tag_72:\n        /* \"degen/DegenMoneyLib.sol\":5392:5437  (flag, c) = SafeMath.trySub(_denominator, _a) */\n      swap1\n      swap4\n      pop\n      swap1\n      pop\n      dup3\n        /* \"degen/DegenMoneyLib.sol\":5448:5501  require(flag, \"[ticketIncome2GroupMember] overflow.\") */\n      tag_73\n      jumpi\n      mload(0x40)\n      shl(0xe5, 0x461bcd)\n      dup2\n      mstore\n      0x04\n      add\n      tag_50\n      swap1\n      tag_75\n      jump\t// in\n    tag_73:\n        /* \"degen/DegenMoneyLib.sol\":5524:5546  SafeMath.trySub(c, _b) */\n      tag_76\n        /* \"degen/DegenMoneyLib.sol\":5540:5541  c */\n      dup2\n        /* \"degen/DegenMoneyLib.sol\":556:559  500 */\n      0x01f4\n        /* \"degen/DegenMoneyLib.sol\":5524:5539  SafeMath.trySub */\n      tag_58\n        /* \"degen/DegenMoneyLib.sol\":5524:5546  SafeMath.trySub(c, _b) */\n      jump\t// in\n    tag_76:\n        /* \"degen/DegenMoneyLib.sol\":5512:5546  (flag, c) = SafeMath.trySub(c, _b) */\n      swap1\n      swap4\n      pop\n      swap1\n      pop\n      dup3\n        /* \"degen/DegenMoneyLib.sol\":5557:5610  require(flag, \"[ticketIncome2GroupMember] overflow.\") */\n      tag_77\n      jumpi\n      mload(0x40)\n      shl(0xe5, 0x461bcd)\n      dup2\n      mstore\n      0x04\n      add\n      tag_50\n      swap1\n      tag_75\n      jump\t// in\n    tag_77:\n        /* \"degen/DegenMoneyLib.sol\":5633:5665  SafeMath.tryMul(ticketIncome, c) */\n      tag_79\n        /* \"degen/DegenMoneyLib.sol\":5649:5661  ticketIncome */\n      dup7\n        /* \"degen/DegenMoneyLib.sol\":5663:5664  c */\n      dup3\n        /* \"degen/DegenMoneyLib.sol\":5633:5648  SafeMath.tryMul */\n      tag_48\n        /* \"degen/DegenMoneyLib.sol\":5633:5665  SafeMath.tryMul(ticketIncome, c) */\n      jump\t// in\n    tag_79:\n        /* \"degen/DegenMoneyLib.sol\":5621:5665  (flag, m) = SafeMath.tryMul(ticketIncome, c) */\n      swap1\n      swap4\n      pop\n      swap2\n      pop\n      dup3\n        /* \"degen/DegenMoneyLib.sol\":5676:5729  require(flag, \"[ticketIncome2GroupMember] overflow.\") */\n      tag_80\n      jumpi\n      mload(0x40)\n      shl(0xe5, 0x461bcd)\n      dup2\n      mstore\n      0x04\n      add\n      tag_50\n      swap1\n      tag_75\n      jump\t// in\n    tag_80:\n        /* \"degen/DegenMoneyLib.sol\":5752:5784  SafeMath.tryDiv(m, _denominator) */\n      tag_82\n        /* \"degen/DegenMoneyLib.sol\":5768:5769  m */\n      dup3\n        /* \"degen/DegenMoneyLib.sol\":1168:1172  1000 */\n      0x03e8\n        /* \"degen/DegenMoneyLib.sol\":5752:5767  SafeMath.tryDiv */\n      tag_53\n        /* \"degen/DegenMoneyLib.sol\":5752:5784  SafeMath.tryDiv(m, _denominator) */\n      jump\t// in\n    tag_82:\n        /* \"degen/DegenMoneyLib.sol\":5740:5784  (flag, m) = SafeMath.tryDiv(m, _denominator) */\n      swap1\n      swap4\n      pop\n      swap2\n      pop\n      dup3\n        /* \"degen/DegenMoneyLib.sol\":5795:5848  require(flag, \"[ticketIncome2GroupMember] overflow.\") */\n      tag_83\n      jumpi\n      mload(0x40)\n      shl(0xe5, 0x461bcd)\n      dup2\n      mstore\n      0x04\n      add\n      tag_50\n      swap1\n      tag_75\n      jump\t// in\n    tag_83:\n        /* \"degen/DegenMoneyLib.sol\":5871:5897  SafeMath.tryDiv(m, memNum) */\n      tag_85\n        /* \"degen/DegenMoneyLib.sol\":5887:5888  m */\n      dup3\n        /* \"degen/DegenMoneyLib.sol\":5890:5896  memNum */\n      dup7\n        /* \"degen/DegenMoneyLib.sol\":5871:5886  SafeMath.tryDiv */\n      tag_53\n        /* \"degen/DegenMoneyLib.sol\":5871:5897  SafeMath.tryDiv(m, memNum) */\n      jump\t// in\n    tag_85:\n        /* \"degen/DegenMoneyLib.sol\":5859:5897  (flag, m) = SafeMath.tryDiv(m, memNum) */\n      swap1\n      swap4\n      pop\n      swap2\n      pop\n      dup3\n        /* \"degen/DegenMoneyLib.sol\":5908:5961  require(flag, \"[ticketIncome2GroupMember] overflow.\") */\n      tag_69\n      jumpi\n      mload(0x40)\n      shl(0xe5, 0x461bcd)\n      dup2\n      mstore\n      0x04\n      add\n      tag_50\n      swap1\n      tag_75\n      jump\t// in\n        /* \"degen/DegenMoneyLib.sol\":1485:4160  function ticketPrice(... */\n    tag_35:\n        /* \"degen/DegenMoneyLib.sol\":1727:1740  uint256 price */\n      0x00\n        /* \"degen/DegenMoneyLib.sol\":1842:1846  true */\n      0x01\n      dup1\n        /* \"degen/DegenMoneyLib.sol\":1830:1839  bool flag */\n      0x00\n        /* \"degen/DegenMoneyLib.sol\":1892:2084  for (uint i=0; i < _alpha; i++) {... */\n    tag_93:\n        /* \"degen/DegenMoneyLib.sol\":940:941  2 */\n      0x02\n        /* \"degen/DegenMoneyLib.sol\":1907:1908  i */\n      dup2\n        /* \"degen/DegenMoneyLib.sol\":1907:1917  i < _alpha */\n      lt\n        /* \"degen/DegenMoneyLib.sol\":1892:2084  for (uint i=0; i < _alpha; i++) {... */\n      iszero\n      tag_94\n      jumpi\n        /* \"degen/DegenMoneyLib.sol\":1952:1976  SafeMath.tryMul(tp, ith) */\n      tag_96\n        /* \"degen/DegenMoneyLib.sol\":1968:1970  tp */\n      dup3\n        /* \"degen/DegenMoneyLib.sol\":1972:1975  ith */\n      dup12\n        /* \"degen/DegenMoneyLib.sol\":1952:1967  SafeMath.tryMul */\n      tag_48\n        /* \"degen/DegenMoneyLib.sol\":1952:1976  SafeMath.tryMul(tp, ith) */\n      jump\t// in\n    tag_96:\n        /* \"degen/DegenMoneyLib.sol\":1939:1976  (flag, tp) = SafeMath.tryMul(tp, ith) */\n      swap1\n      swap4\n      pop\n      swap2\n      pop\n      dup3\n        /* \"degen/DegenMoneyLib.sol\":1991:2072  require(flag, \"Number overflow occurs when calculate ticket price in i**_alpha.\") */\n      tag_97\n      jumpi\n      0x40\n      dup1\n      mload\n      shl(0xe5, 0x461bcd)\n      dup2\n      mstore\n        /* \"#utility.yul\":2986:2988   */\n      0x20\n        /* \"degen/DegenMoneyLib.sol\":1991:2072  require(flag, \"Number overflow occurs when calculate ticket price in i**_alpha.\") */\n      0x04\n      dup3\n      add\n        /* \"#utility.yul\":2968:2989   */\n      mstore\n        /* \"#utility.yul\":3005:3023   */\n      0x24\n      dup2\n      add\n        /* \"#utility.yul\":2998:3028   */\n      swap2\n      swap1\n      swap2\n      mstore\n      0x00\n      dup1\n      mload\n      0x20\n      data_3ea7e64d02bfa2ce3fc0ccd06ec6010a4af3c1c13862f1013ea695f2535f0f7a\n      dup4\n      codecopy\n      dup2\n      mload\n      swap2\n      mstore\n        /* \"#utility.yul\":3044:3062   */\n      0x44\n      dup3\n      add\n        /* \"#utility.yul\":3037:3099   */\n      mstore\n        /* \"#utility.yul\":3135:3169   */\n      0x756c617465207469636b657420707269636520696e20692a2a5f616c7068612e\n        /* \"#utility.yul\":3115:3133   */\n      0x64\n      dup3\n      add\n        /* \"#utility.yul\":3108:3170   */\n      mstore\n        /* \"#utility.yul\":3187:3206   */\n      0x84\n      add\n        /* \"degen/DegenMoneyLib.sol\":1991:2072  require(flag, \"Number overflow occurs when calculate ticket price in i**_alpha.\") */\n      tag_50\n        /* \"#utility.yul\":2784:3212   */\n      jump\n        /* \"degen/DegenMoneyLib.sol\":1991:2072  require(flag, \"Number overflow occurs when calculate ticket price in i**_alpha.\") */\n    tag_97:\n        /* \"degen/DegenMoneyLib.sol\":1919:1922  i++ */\n      dup1\n      tag_100\n      dup2\n      tag_101\n      jump\t// in\n    tag_100:\n      swap2\n      pop\n      pop\n        /* \"degen/DegenMoneyLib.sol\":1892:2084  for (uint i=0; i < _alpha; i++) {... */\n      jump(tag_93)\n    tag_94:\n      pop\n        /* \"degen/DegenMoneyLib.sol\":2109:2135  SafeMath.tryMul(tp, _beta) */\n      tag_102\n        /* \"degen/DegenMoneyLib.sol\":2125:2127  tp */\n      dup2\n        /* \"degen/DegenMoneyLib.sol\":981:983  10 */\n      0x0a\n        /* \"degen/DegenMoneyLib.sol\":2109:2124  SafeMath.tryMul */\n      tag_48\n        /* \"degen/DegenMoneyLib.sol\":2109:2135  SafeMath.tryMul(tp, _beta) */\n      jump\t// in\n    tag_102:\n        /* \"degen/DegenMoneyLib.sol\":2096:2135  (flag, tp) = SafeMath.tryMul(tp, _beta) */\n      swap1\n      swap3\n      pop\n      swap1\n      pop\n      dup2\n        /* \"degen/DegenMoneyLib.sol\":2146:2233  require(flag, \"Number overflow occurs when calculate ticket price in _beta*i**_alpha.\") */\n      tag_103\n      jumpi\n      mload(0x40)\n      shl(0xe5, 0x461bcd)\n      dup2\n      mstore\n        /* \"#utility.yul\":3691:3693   */\n      0x20\n        /* \"degen/DegenMoneyLib.sol\":2146:2233  require(flag, \"Number overflow occurs when calculate ticket price in _beta*i**_alpha.\") */\n      0x04\n      dup3\n      add\n        /* \"#utility.yul\":3673:3694   */\n      mstore\n        /* \"#utility.yul\":3730:3732   */\n      0x46\n        /* \"#utility.yul\":3710:3728   */\n      0x24\n      dup3\n      add\n        /* \"#utility.yul\":3703:3733   */\n      mstore\n      0x00\n      dup1\n      mload\n      0x20\n      data_3ea7e64d02bfa2ce3fc0ccd06ec6010a4af3c1c13862f1013ea695f2535f0f7a\n      dup4\n      codecopy\n      dup2\n      mload\n      swap2\n      mstore\n        /* \"#utility.yul\":3749:3767   */\n      0x44\n      dup3\n      add\n        /* \"#utility.yul\":3742:3804   */\n      mstore\n        /* \"#utility.yul\":3840:3874   */\n      0x756c617465207469636b657420707269636520696e205f626574612a692a2a5f\n        /* \"#utility.yul\":3820:3838   */\n      0x64\n      dup3\n      add\n        /* \"#utility.yul\":3813:3875   */\n      mstore\n      shl(0xd1, 0x30b638343097)\n        /* \"#utility.yul\":3891:3910   */\n      0x84\n      dup3\n      add\n        /* \"#utility.yul\":3884:3921   */\n      mstore\n        /* \"#utility.yul\":3938:3957   */\n      0xa4\n      add\n        /* \"degen/DegenMoneyLib.sol\":2146:2233  require(flag, \"Number overflow occurs when calculate ticket price in _beta*i**_alpha.\") */\n      tag_50\n        /* \"#utility.yul\":3489:3963   */\n      jump\n        /* \"degen/DegenMoneyLib.sol\":2146:2233  require(flag, \"Number overflow occurs when calculate ticket price in _beta*i**_alpha.\") */\n    tag_103:\n        /* \"degen/DegenMoneyLib.sol\":2259:2288  SafeMath.tryMul(tp, _decimal) */\n      tag_106\n        /* \"degen/DegenMoneyLib.sol\":2275:2277  tp */\n      dup2\n        /* \"degen/DegenMoneyLib.sol\":230:235  10**6 */\n      0x0f4240\n        /* \"degen/DegenMoneyLib.sol\":2259:2274  SafeMath.tryMul */\n      tag_48\n        /* \"degen/DegenMoneyLib.sol\":2259:2288  SafeMath.tryMul(tp, _decimal) */\n      jump\t// in\n    tag_106:\n        /* \"degen/DegenMoneyLib.sol\":2246:2288  (flag, tp) = SafeMath.tryMul(tp, _decimal) */\n      swap1\n      swap3\n      pop\n      swap1\n      pop\n      dup2\n        /* \"degen/DegenMoneyLib.sol\":2299:2410  require(flag, \"Number overflow occurs when calculate ticket price in (_beta/_denominator*i**_alpha)*_decimal.\") */\n      tag_107\n      jumpi\n      mload(0x40)\n      shl(0xe5, 0x461bcd)\n      dup2\n      mstore\n        /* \"#utility.yul\":4170:4172   */\n      0x20\n        /* \"degen/DegenMoneyLib.sol\":2299:2410  require(flag, \"Number overflow occurs when calculate ticket price in (_beta/_denominator*i**_alpha)*_decimal.\") */\n      0x04\n      dup3\n      add\n        /* \"#utility.yul\":4152:4173   */\n      mstore\n        /* \"#utility.yul\":4209:4211   */\n      0x5e\n        /* \"#utility.yul\":4189:4207   */\n      0x24\n      dup3\n      add\n        /* \"#utility.yul\":4182:4212   */\n      mstore\n      0x00\n      dup1\n      mload\n      0x20\n      data_3ea7e64d02bfa2ce3fc0ccd06ec6010a4af3c1c13862f1013ea695f2535f0f7a\n      dup4\n      codecopy\n      dup2\n      mload\n      swap2\n      mstore\n        /* \"#utility.yul\":4228:4246   */\n      0x44\n      dup3\n      add\n        /* \"#utility.yul\":4221:4283   */\n      mstore\n        /* \"#utility.yul\":4319:4353   */\n      0x756c617465207469636b657420707269636520696e20285f626574612f5f6465\n        /* \"#utility.yul\":4299:4317   */\n      0x64\n      dup3\n      add\n        /* \"#utility.yul\":4292:4354   */\n      mstore\n        /* \"#utility.yul\":4391:4423   */\n      0x6e6f6d696e61746f722a692a2a5f616c706861292a5f646563696d616c2e0000\n        /* \"#utility.yul\":4370:4389   */\n      0x84\n      dup3\n      add\n        /* \"#utility.yul\":4363:4424   */\n      mstore\n        /* \"#utility.yul\":4441:4460   */\n      0xa4\n      add\n        /* \"degen/DegenMoneyLib.sol\":2299:2410  require(flag, \"Number overflow occurs when calculate ticket price in (_beta/_denominator*i**_alpha)*_decimal.\") */\n      tag_50\n        /* \"#utility.yul\":3968:4466   */\n      jump\n        /* \"degen/DegenMoneyLib.sol\":2299:2410  require(flag, \"Number overflow occurs when calculate ticket price in (_beta/_denominator*i**_alpha)*_decimal.\") */\n    tag_107:\n        /* \"degen/DegenMoneyLib.sol\":2436:2469  SafeMath.tryDiv(tp, _denominator) */\n      tag_110\n        /* \"degen/DegenMoneyLib.sol\":2452:2454  tp */\n      dup2\n        /* \"degen/DegenMoneyLib.sol\":1168:1172  1000 */\n      0x03e8\n        /* \"degen/DegenMoneyLib.sol\":2436:2451  SafeMath.tryDiv */\n      tag_53\n        /* \"degen/DegenMoneyLib.sol\":2436:2469  SafeMath.tryDiv(tp, _denominator) */\n      jump\t// in\n    tag_110:\n        /* \"degen/DegenMoneyLib.sol\":2423:2469  (flag, tp) = SafeMath.tryDiv(tp, _denominator) */\n      swap1\n      swap3\n      pop\n      swap1\n      pop\n      dup2\n        /* \"degen/DegenMoneyLib.sol\":2480:2580  require(flag, \"Number overflow occurs when calculate ticket price in _beta/_denominator*i**_alpha.\") */\n      tag_111\n      jumpi\n      mload(0x40)\n      shl(0xe5, 0x461bcd)\n      dup2\n      mstore\n        /* \"#utility.yul\":4673:4675   */\n      0x20\n        /* \"degen/DegenMoneyLib.sol\":2480:2580  require(flag, \"Number overflow occurs when calculate ticket price in _beta/_denominator*i**_alpha.\") */\n      0x04\n      dup3\n      add\n        /* \"#utility.yul\":4655:4676   */\n      mstore\n        /* \"#utility.yul\":4712:4714   */\n      0x53\n        /* \"#utility.yul\":4692:4710   */\n      0x24\n      dup3\n      add\n        /* \"#utility.yul\":4685:4715   */\n      mstore\n      0x00\n      dup1\n      mload\n      0x20\n      data_3ea7e64d02bfa2ce3fc0ccd06ec6010a4af3c1c13862f1013ea695f2535f0f7a\n      dup4\n      codecopy\n      dup2\n      mload\n      swap2\n      mstore\n        /* \"#utility.yul\":4731:4749   */\n      0x44\n      dup3\n      add\n        /* \"#utility.yul\":4724:4786   */\n      mstore\n        /* \"#utility.yul\":4822:4856   */\n      0x756c617465207469636b657420707269636520696e205f626574612f5f64656e\n        /* \"#utility.yul\":4802:4820   */\n      0x64\n      dup3\n      add\n        /* \"#utility.yul\":4795:4857   */\n      mstore\n      shl(0x69, 0x37b6b4b730ba37b9153495152fb0b638343097)\n        /* \"#utility.yul\":4873:4892   */\n      0x84\n      dup3\n      add\n        /* \"#utility.yul\":4866:4916   */\n      mstore\n        /* \"#utility.yul\":4933:4952   */\n      0xa4\n      add\n        /* \"degen/DegenMoneyLib.sol\":2480:2580  require(flag, \"Number overflow occurs when calculate ticket price in _beta/_denominator*i**_alpha.\") */\n      tag_50\n        /* \"#utility.yul\":4471:4958   */\n      jump\n        /* \"degen/DegenMoneyLib.sol\":2480:2580  require(flag, \"Number overflow occurs when calculate ticket price in _beta/_denominator*i**_alpha.\") */\n    tag_111:\n        /* \"degen/DegenMoneyLib.sol\":2614:2641  SafeMath.tryAdd(tp, _gamma) */\n      tag_114\n        /* \"degen/DegenMoneyLib.sol\":2630:2632  tp */\n      dup2\n        /* \"degen/DegenMoneyLib.sol\":1069:1078  5 * 10**6 */\n      0x4c4b40\n        /* \"degen/DegenMoneyLib.sol\":2614:2629  SafeMath.tryAdd */\n      tag_115\n        /* \"degen/DegenMoneyLib.sol\":2614:2641  SafeMath.tryAdd(tp, _gamma) */\n      jump\t// in\n    tag_114:\n        /* \"degen/DegenMoneyLib.sol\":2601:2641  (flag, tp) = SafeMath.tryAdd(tp, _gamma) */\n      swap1\n      swap3\n      pop\n      swap1\n      pop\n      dup2\n        /* \"degen/DegenMoneyLib.sol\":2652:2760  require(flag, \"Number overflow occurs when calculate ticket price in _beta/_denominator*i**_alpha + gamma.\") */\n      tag_116\n      jumpi\n      mload(0x40)\n      shl(0xe5, 0x461bcd)\n      dup2\n      mstore\n        /* \"#utility.yul\":5165:5167   */\n      0x20\n        /* \"degen/DegenMoneyLib.sol\":2652:2760  require(flag, \"Number overflow occurs when calculate ticket price in _beta/_denominator*i**_alpha + gamma.\") */\n      0x04\n      dup3\n      add\n        /* \"#utility.yul\":5147:5168   */\n      mstore\n        /* \"#utility.yul\":5204:5206   */\n      0x5b\n        /* \"#utility.yul\":5184:5202   */\n      0x24\n      dup3\n      add\n        /* \"#utility.yul\":5177:5207   */\n      mstore\n      0x00\n      dup1\n      mload\n      0x20\n      data_3ea7e64d02bfa2ce3fc0ccd06ec6010a4af3c1c13862f1013ea695f2535f0f7a\n      dup4\n      codecopy\n      dup2\n      mload\n      swap2\n      mstore\n        /* \"#utility.yul\":5223:5241   */\n      0x44\n      dup3\n      add\n        /* \"#utility.yul\":5216:5278   */\n      mstore\n        /* \"#utility.yul\":5314:5348   */\n      0x756c617465207469636b657420707269636520696e205f626574612f5f64656e\n        /* \"#utility.yul\":5294:5312   */\n      0x64\n      dup3\n      add\n        /* \"#utility.yul\":5287:5349   */\n      mstore\n        /* \"#utility.yul\":5386:5415   */\n      0x6f6d696e61746f722a692a2a5f616c706861202b2067616d6d612e0000000000\n        /* \"#utility.yul\":5365:5384   */\n      0x84\n      dup3\n      add\n        /* \"#utility.yul\":5358:5416   */\n      mstore\n        /* \"#utility.yul\":5433:5452   */\n      0xa4\n      add\n        /* \"degen/DegenMoneyLib.sol\":2652:2760  require(flag, \"Number overflow occurs when calculate ticket price in _beta/_denominator*i**_alpha + gamma.\") */\n      tag_50\n        /* \"#utility.yul\":4963:5458   */\n      jump\n        /* \"degen/DegenMoneyLib.sol\":2652:2760  require(flag, \"Number overflow occurs when calculate ticket price in _beta/_denominator*i**_alpha + gamma.\") */\n    tag_116:\n        /* \"degen/DegenMoneyLib.sol\":2860:2882  bool isMonopolyPenalty */\n      0x00\n        /* \"degen/DegenMoneyLib.sol\":2910:2911  0 */\n      dup1\n        /* \"degen/DegenMoneyLib.sol\":2896:2906  firstGrpId */\n      dup9\n        /* \"degen/DegenMoneyLib.sol\":2896:2911  firstGrpId >= 0 */\n      slt\n      iszero\n        /* \"degen/DegenMoneyLib.sol\":2896:2931  firstGrpId >= 0 && SecondGrpId >= 0 */\n      dup1\n      iszero\n      tag_119\n      jumpi\n      pop\n        /* \"degen/DegenMoneyLib.sol\":2930:2931  0 */\n      0x00\n        /* \"degen/DegenMoneyLib.sol\":2915:2926  SecondGrpId */\n      dup8\n        /* \"degen/DegenMoneyLib.sol\":2915:2931  SecondGrpId >= 0 */\n      slt\n      iszero\n        /* \"degen/DegenMoneyLib.sol\":2896:2931  firstGrpId >= 0 && SecondGrpId >= 0 */\n    tag_119:\n        /* \"degen/DegenMoneyLib.sol\":2893:3454  if(firstGrpId >= 0 && SecondGrpId >= 0){... */\n      iszero\n      tag_120\n      jumpi\n        /* \"degen/DegenMoneyLib.sol\":814:816  10 */\n      0x0a\n        /* \"degen/DegenMoneyLib.sol\":2950:2988  firstGrpPeopleNum - secondGrpPeopleNum */\n      tag_121\n        /* \"degen/DegenMoneyLib.sol\":2970:2988  secondGrpPeopleNum */\n      dup7\n        /* \"degen/DegenMoneyLib.sol\":2950:2967  firstGrpPeopleNum */\n      dup9\n        /* \"degen/DegenMoneyLib.sol\":2950:2988  firstGrpPeopleNum - secondGrpPeopleNum */\n      tag_122\n      jump\t// in\n    tag_121:\n        /* \"degen/DegenMoneyLib.sol\":2950:2993  firstGrpPeopleNum - secondGrpPeopleNum > _v */\n      gt\n        /* \"degen/DegenMoneyLib.sol\":2947:3132  if(firstGrpPeopleNum - secondGrpPeopleNum > _v){... */\n      iszero\n      tag_123\n      jumpi\n      pop\n        /* \"degen/DegenMoneyLib.sol\":3033:3037  true */\n      0x01\n        /* \"degen/DegenMoneyLib.sol\":2893:3454  if(firstGrpId >= 0 && SecondGrpId >= 0){... */\n      jump(tag_130)\n        /* \"degen/DegenMoneyLib.sol\":2947:3132  if(firstGrpPeopleNum - secondGrpPeopleNum > _v){... */\n    tag_123:\n      pop\n        /* \"degen/DegenMoneyLib.sol\":3111:3116  false */\n      0x00\n        /* \"degen/DegenMoneyLib.sol\":2893:3454  if(firstGrpId >= 0 && SecondGrpId >= 0){... */\n      jump(tag_130)\n    tag_120:\n        /* \"degen/DegenMoneyLib.sol\":3176:3177  0 */\n      0x00\n        /* \"degen/DegenMoneyLib.sol\":3162:3172  firstGrpId */\n      dup9\n        /* \"degen/DegenMoneyLib.sol\":3162:3177  firstGrpId >= 0 */\n      slt\n      iszero\n        /* \"degen/DegenMoneyLib.sol\":3162:3196  firstGrpId >= 0 && SecondGrpId < 0 */\n      dup1\n      iszero\n      tag_126\n      jumpi\n      pop\n        /* \"degen/DegenMoneyLib.sol\":3195:3196  0 */\n      0x00\n        /* \"degen/DegenMoneyLib.sol\":3181:3192  SecondGrpId */\n      dup8\n        /* \"degen/DegenMoneyLib.sol\":3181:3196  SecondGrpId < 0 */\n      slt\n        /* \"degen/DegenMoneyLib.sol\":3162:3196  firstGrpId >= 0 && SecondGrpId < 0 */\n    tag_126:\n        /* \"degen/DegenMoneyLib.sol\":3158:3454  if (firstGrpId >= 0 && SecondGrpId < 0){... */\n      iszero\n      tag_127\n      jumpi\n        /* \"degen/DegenMoneyLib.sol\":814:816  10 */\n      0x0a\n        /* \"degen/DegenMoneyLib.sol\":3215:3232  firstGrpPeopleNum */\n      dup7\n        /* \"degen/DegenMoneyLib.sol\":3215:3237  firstGrpPeopleNum > _v */\n      gt\n        /* \"degen/DegenMoneyLib.sol\":3212:3377  if(firstGrpPeopleNum > _v) {... */\n      iszero\n      tag_123\n      jumpi\n      pop\n        /* \"degen/DegenMoneyLib.sol\":3278:3282  true */\n      0x01\n        /* \"degen/DegenMoneyLib.sol\":3158:3454  if (firstGrpId >= 0 && SecondGrpId < 0){... */\n      jump(tag_130)\n    tag_127:\n      pop\n        /* \"degen/DegenMoneyLib.sol\":3437:3442  false */\n      0x00\n        /* \"degen/DegenMoneyLib.sol\":3158:3454  if (firstGrpId >= 0 && SecondGrpId < 0){... */\n    tag_130:\n        /* \"degen/DegenMoneyLib.sol\":3470:3487  isMonopolyPenalty */\n      dup1\n        /* \"degen/DegenMoneyLib.sol\":3466:4131  if (isMonopolyPenalty){... */\n      iszero\n      tag_131\n      jumpi\n        /* \"degen/DegenMoneyLib.sol\":3503:3519  uint256 extraFee */\n      0x00\n        /* \"degen/DegenMoneyLib.sol\":3557:3593  SafeMath.tryMul(totalRewardPool, _p) */\n      tag_132\n        /* \"degen/DegenMoneyLib.sol\":3573:3588  totalRewardPool */\n      dup11\n        /* \"degen/DegenMoneyLib.sol\":736:739  100 */\n      0x64\n        /* \"degen/DegenMoneyLib.sol\":3557:3572  SafeMath.tryMul */\n      tag_48\n        /* \"degen/DegenMoneyLib.sol\":3557:3593  SafeMath.tryMul(totalRewardPool, _p) */\n      jump\t// in\n    tag_132:\n        /* \"degen/DegenMoneyLib.sol\":3538:3593  (flag, extraFee) = SafeMath.tryMul(totalRewardPool, _p) */\n      swap1\n      swap5\n      pop\n      swap1\n      pop\n      dup4\n        /* \"degen/DegenMoneyLib.sol\":3608:3708  require(flag, \"Number overflow occurs when (flag, extraFee) = SafeMath.tryMul(totalRewardPool, _p)\") */\n      tag_133\n      jumpi\n      mload(0x40)\n      shl(0xe5, 0x461bcd)\n      dup2\n      mstore\n        /* \"#utility.yul\":5798:5800   */\n      0x20\n        /* \"degen/DegenMoneyLib.sol\":3608:3708  require(flag, \"Number overflow occurs when (flag, extraFee) = SafeMath.tryMul(totalRewardPool, _p)\") */\n      0x04\n      dup3\n      add\n        /* \"#utility.yul\":5780:5801   */\n      mstore\n        /* \"#utility.yul\":5837:5839   */\n      0x53\n        /* \"#utility.yul\":5817:5835   */\n      0x24\n      dup3\n      add\n        /* \"#utility.yul\":5810:5840   */\n      mstore\n        /* \"#utility.yul\":5876:5910   */\n      0x4e756d626572206f766572666c6f77206f6363757273207768656e2028666c61\n        /* \"#utility.yul\":5856:5874   */\n      0x44\n      dup3\n      add\n        /* \"#utility.yul\":5849:5911   */\n      mstore\n        /* \"#utility.yul\":5947:5981   */\n      0x672c20657874726146656529203d20536166654d6174682e7472794d756c2874\n        /* \"#utility.yul\":5927:5945   */\n      0x64\n      dup3\n      add\n        /* \"#utility.yul\":5920:5982   */\n      mstore\n      shl(0x68, 0x6f74616c526577617264506f6f6c2c205f7029)\n        /* \"#utility.yul\":5998:6017   */\n      0x84\n      dup3\n      add\n        /* \"#utility.yul\":5991:6041   */\n      mstore\n        /* \"#utility.yul\":6058:6077   */\n      0xa4\n      add\n        /* \"degen/DegenMoneyLib.sol\":3608:3708  require(flag, \"Number overflow occurs when (flag, extraFee) = SafeMath.tryMul(totalRewardPool, _p)\") */\n      tag_50\n        /* \"#utility.yul\":5596:6083   */\n      jump\n        /* \"degen/DegenMoneyLib.sol\":3608:3708  require(flag, \"Number overflow occurs when (flag, extraFee) = SafeMath.tryMul(totalRewardPool, _p)\") */\n    tag_133:\n        /* \"degen/DegenMoneyLib.sol\":3742:3781  SafeMath.tryDiv(extraFee, _denominator) */\n      tag_136\n        /* \"degen/DegenMoneyLib.sol\":3758:3766  extraFee */\n      dup2\n        /* \"degen/DegenMoneyLib.sol\":1168:1172  1000 */\n      0x03e8\n        /* \"degen/DegenMoneyLib.sol\":3742:3757  SafeMath.tryDiv */\n      tag_53\n        /* \"degen/DegenMoneyLib.sol\":3742:3781  SafeMath.tryDiv(extraFee, _denominator) */\n      jump\t// in\n    tag_136:\n        /* \"degen/DegenMoneyLib.sol\":3723:3781  (flag, extraFee) = SafeMath.tryDiv(extraFee, _denominator) */\n      swap1\n      swap5\n      pop\n      swap1\n      pop\n      dup4\n        /* \"degen/DegenMoneyLib.sol\":3796:3899  require(flag, \"Number overflow occurs when (flag, extraFee) = SafeMath.tryDiv(extraFee, _denominator)\") */\n      tag_137\n      jumpi\n      mload(0x40)\n      shl(0xe5, 0x461bcd)\n      dup2\n      mstore\n        /* \"#utility.yul\":6290:6292   */\n      0x20\n        /* \"degen/DegenMoneyLib.sol\":3796:3899  require(flag, \"Number overflow occurs when (flag, extraFee) = SafeMath.tryDiv(extraFee, _denominator)\") */\n      0x04\n      dup3\n      add\n        /* \"#utility.yul\":6272:6293   */\n      mstore\n        /* \"#utility.yul\":6329:6331   */\n      0x56\n        /* \"#utility.yul\":6309:6327   */\n      0x24\n      dup3\n      add\n        /* \"#utility.yul\":6302:6332   */\n      mstore\n        /* \"#utility.yul\":6368:6402   */\n      0x4e756d626572206f766572666c6f77206f6363757273207768656e2028666c61\n        /* \"#utility.yul\":6348:6366   */\n      0x44\n      dup3\n      add\n        /* \"#utility.yul\":6341:6403   */\n      mstore\n        /* \"#utility.yul\":6439:6473   */\n      0x672c20657874726146656529203d20536166654d6174682e7472794469762865\n        /* \"#utility.yul\":6419:6437   */\n      0x64\n      dup3\n      add\n        /* \"#utility.yul\":6412:6474   */\n      mstore\n      shl(0x50, 0x787472614665652c205f64656e6f6d696e61746f7229)\n        /* \"#utility.yul\":6490:6509   */\n      0x84\n      dup3\n      add\n        /* \"#utility.yul\":6483:6536   */\n      mstore\n        /* \"#utility.yul\":6553:6572   */\n      0xa4\n      add\n        /* \"degen/DegenMoneyLib.sol\":3796:3899  require(flag, \"Number overflow occurs when (flag, extraFee) = SafeMath.tryDiv(extraFee, _denominator)\") */\n      tag_50\n        /* \"#utility.yul\":6088:6578   */\n      jump\n        /* \"degen/DegenMoneyLib.sol\":3796:3899  require(flag, \"Number overflow occurs when (flag, extraFee) = SafeMath.tryDiv(extraFee, _denominator)\") */\n    tag_137:\n        /* \"degen/DegenMoneyLib.sol\":3927:3956  SafeMath.tryAdd(tp, extraFee) */\n      tag_140\n        /* \"degen/DegenMoneyLib.sol\":3943:3945  tp */\n      dup4\n        /* \"degen/DegenMoneyLib.sol\":3947:3955  extraFee */\n      dup3\n        /* \"degen/DegenMoneyLib.sol\":3927:3942  SafeMath.tryAdd */\n      tag_115\n        /* \"degen/DegenMoneyLib.sol\":3927:3956  SafeMath.tryAdd(tp, extraFee) */\n      jump\t// in\n    tag_140:\n        /* \"degen/DegenMoneyLib.sol\":3914:3956  (flag, tp) = SafeMath.tryAdd(tp, extraFee) */\n      swap1\n      swap5\n      pop\n      swap3\n      pop\n      dup4\n        /* \"degen/DegenMoneyLib.sol\":3971:4058  require(flag, \"Number overflow occurs when (flag, tp) = SafeMath.tryAdd(tp, extraFee)\") */\n      tag_141\n      jumpi\n      mload(0x40)\n      shl(0xe5, 0x461bcd)\n      dup2\n      mstore\n        /* \"#utility.yul\":6785:6787   */\n      0x20\n        /* \"degen/DegenMoneyLib.sol\":3971:4058  require(flag, \"Number overflow occurs when (flag, tp) = SafeMath.tryAdd(tp, extraFee)\") */\n      0x04\n      dup3\n      add\n        /* \"#utility.yul\":6767:6788   */\n      mstore\n        /* \"#utility.yul\":6824:6826   */\n      0x46\n        /* \"#utility.yul\":6804:6822   */\n      0x24\n      dup3\n      add\n        /* \"#utility.yul\":6797:6827   */\n      mstore\n        /* \"#utility.yul\":6863:6897   */\n      0x4e756d626572206f766572666c6f77206f6363757273207768656e2028666c61\n        /* \"#utility.yul\":6843:6861   */\n      0x44\n      dup3\n      add\n        /* \"#utility.yul\":6836:6898   */\n      mstore\n        /* \"#utility.yul\":6934:6968   */\n      0x672c20747029203d20536166654d6174682e7472794164642874702c20657874\n        /* \"#utility.yul\":6914:6932   */\n      0x64\n      dup3\n      add\n        /* \"#utility.yul\":6907:6969   */\n      mstore\n      shl(0xd0, 0x726146656529)\n        /* \"#utility.yul\":6985:7004   */\n      0x84\n      dup3\n      add\n        /* \"#utility.yul\":6978:7015   */\n      mstore\n        /* \"#utility.yul\":7032:7051   */\n      0xa4\n      add\n        /* \"degen/DegenMoneyLib.sol\":3971:4058  require(flag, \"Number overflow occurs when (flag, tp) = SafeMath.tryAdd(tp, extraFee)\") */\n      tag_50\n        /* \"#utility.yul\":6583:7057   */\n      jump\n        /* \"degen/DegenMoneyLib.sol\":3971:4058  require(flag, \"Number overflow occurs when (flag, tp) = SafeMath.tryAdd(tp, extraFee)\") */\n    tag_141:\n        /* \"degen/DegenMoneyLib.sol\":3488:4131  {... */\n      pop\n        /* \"degen/DegenMoneyLib.sol\":3466:4131  if (isMonopolyPenalty){... */\n    tag_131:\n      pop\n        /* \"degen/DegenMoneyLib.sol\":4150:4152  tp */\n      swap9\n        /* \"degen/DegenMoneyLib.sol\":1485:4160  function ticketPrice(... */\n      swap8\n      pop\n      pop\n      pop\n      pop\n      pop\n      pop\n      pop\n      pop\n      jump\t// out\n        /* \"degen/DegenMoneyLib.sol\":6075:6533  function rewardPool2GroupLeader(uint256 totalReward) public pure returns (uint256 money) {... */\n    tag_39:\n        /* \"degen/DegenMoneyLib.sol\":6149:6162  uint256 money */\n      0x00\n      dup1\n      dup1\n        /* \"degen/DegenMoneyLib.sol\":6293:6325  SafeMath.tryMul(totalReward, _c) */\n      tag_145\n        /* \"degen/DegenMoneyLib.sol\":6309:6320  totalReward */\n      dup5\n        /* \"degen/DegenMoneyLib.sol\":646:649  100 */\n      0x64\n        /* \"degen/DegenMoneyLib.sol\":6293:6308  SafeMath.tryMul */\n      tag_48\n        /* \"degen/DegenMoneyLib.sol\":6293:6325  SafeMath.tryMul(totalReward, _c) */\n      jump\t// in\n    tag_145:\n        /* \"degen/DegenMoneyLib.sol\":6281:6325  (flag, m) = SafeMath.tryMul(totalReward, _c) */\n      swap1\n      swap3\n      pop\n      swap1\n      pop\n      dup2\n        /* \"degen/DegenMoneyLib.sol\":6336:6387  require(flag, \"[rewardPool2GroupLeader] overflow.\") */\n      tag_146\n      jumpi\n      mload(0x40)\n      shl(0xe5, 0x461bcd)\n      dup2\n      mstore\n      0x04\n      add\n      tag_50\n      swap1\n      tag_148\n      jump\t// in\n    tag_146:\n        /* \"degen/DegenMoneyLib.sol\":6410:6442  SafeMath.tryDiv(m, _denominator) */\n      tag_149\n        /* \"degen/DegenMoneyLib.sol\":6426:6427  m */\n      dup2\n        /* \"degen/DegenMoneyLib.sol\":1168:1172  1000 */\n      0x03e8\n        /* \"degen/DegenMoneyLib.sol\":6410:6425  SafeMath.tryDiv */\n      tag_53\n        /* \"degen/DegenMoneyLib.sol\":6410:6442  SafeMath.tryDiv(m, _denominator) */\n      jump\t// in\n    tag_149:\n        /* \"degen/DegenMoneyLib.sol\":6398:6442  (flag, m) = SafeMath.tryDiv(m, _denominator) */\n      swap1\n      swap3\n      pop\n      swap1\n      pop\n      dup2\n        /* \"degen/DegenMoneyLib.sol\":6453:6504  require(flag, \"[rewardPool2GroupLeader] overflow.\") */\n      tag_54\n      jumpi\n      mload(0x40)\n      shl(0xe5, 0x461bcd)\n      dup2\n      mstore\n      0x04\n      add\n      tag_50\n      swap1\n      tag_148\n      jump\t// in\n        /* \"degen/DegenMoneyLib.sol\":4168:4630  function ticketIncome2RewardPool(uint256 ticketIncome) public pure returns (uint256 money) {... */\n    tag_43:\n        /* \"degen/DegenMoneyLib.sol\":4244:4257  uint256 money */\n      0x00\n      dup1\n      dup1\n        /* \"degen/DegenMoneyLib.sol\":4389:4422  SafeMath.tryMul(ticketIncome, _b) */\n      tag_153\n        /* \"degen/DegenMoneyLib.sol\":4405:4417  ticketIncome */\n      dup5\n        /* \"degen/DegenMoneyLib.sol\":556:559  500 */\n      0x01f4\n        /* \"degen/DegenMoneyLib.sol\":4389:4404  SafeMath.tryMul */\n      tag_48\n        /* \"degen/DegenMoneyLib.sol\":4389:4422  SafeMath.tryMul(ticketIncome, _b) */\n      jump\t// in\n    tag_153:\n        /* \"degen/DegenMoneyLib.sol\":4377:4422  (flag, m) = SafeMath.tryMul(ticketIncome, _b) */\n      swap1\n      swap3\n      pop\n      swap1\n      pop\n      dup2\n        /* \"degen/DegenMoneyLib.sol\":4433:4485  require(flag, \"[ticketIncome2RewardPool] overflow.\") */\n      tag_154\n      jumpi\n      mload(0x40)\n      shl(0xe5, 0x461bcd)\n      dup2\n      mstore\n      0x04\n      add\n      tag_50\n      swap1\n      tag_156\n      jump\t// in\n    tag_154:\n        /* \"degen/DegenMoneyLib.sol\":4508:4540  SafeMath.tryDiv(m, _denominator) */\n      tag_157\n        /* \"degen/DegenMoneyLib.sol\":4524:4525  m */\n      dup2\n        /* \"degen/DegenMoneyLib.sol\":1168:1172  1000 */\n      0x03e8\n        /* \"degen/DegenMoneyLib.sol\":4508:4523  SafeMath.tryDiv */\n      tag_53\n        /* \"degen/DegenMoneyLib.sol\":4508:4540  SafeMath.tryDiv(m, _denominator) */\n      jump\t// in\n    tag_157:\n        /* \"degen/DegenMoneyLib.sol\":4496:4540  (flag, m) = SafeMath.tryDiv(m, _denominator) */\n      swap1\n      swap3\n      pop\n      swap1\n      pop\n      dup2\n        /* \"degen/DegenMoneyLib.sol\":4551:4603  require(flag, \"[ticketIncome2RewardPool] overflow.\") */\n      tag_54\n      jumpi\n      mload(0x40)\n      shl(0xe5, 0x461bcd)\n      dup2\n      mstore\n      0x04\n      add\n      tag_50\n      swap1\n      tag_156\n      jump\t// in\n        /* \"@openzeppelin/contracts/utils/math/SafeMath.sol\":1339:1832  function tryMul(uint256 a, uint256 b) internal pure returns (bool, uint256) {... */\n    tag_48:\n        /* \"@openzeppelin/contracts/utils/math/SafeMath.sol\":1400:1404  bool */\n      0x00\n        /* \"@openzeppelin/contracts/utils/math/SafeMath.sol\":1406:1413  uint256 */\n      dup1\n        /* \"@openzeppelin/contracts/utils/math/SafeMath.sol\":1683:1684  a */\n      dup4\n        /* \"@openzeppelin/contracts/utils/math/SafeMath.sol\":1688:1689  0 */\n      0x00\n        /* \"@openzeppelin/contracts/utils/math/SafeMath.sol\":1683:1689  a == 0 */\n      sub\n        /* \"@openzeppelin/contracts/utils/math/SafeMath.sol\":1679:1707  if (a == 0) return (true, 0) */\n      tag_161\n      jumpi\n      pop\n        /* \"@openzeppelin/contracts/utils/math/SafeMath.sol\":1699:1703  true */\n      0x01\n      swap1\n      pop\n        /* \"@openzeppelin/contracts/utils/math/SafeMath.sol\":1705:1706  0 */\n      0x00\n        /* \"@openzeppelin/contracts/utils/math/SafeMath.sol\":1691:1707  return (true, 0) */\n      jump(tag_160)\n        /* \"@openzeppelin/contracts/utils/math/SafeMath.sol\":1679:1707  if (a == 0) return (true, 0) */\n    tag_161:\n        /* \"@openzeppelin/contracts/utils/math/SafeMath.sol\":1733:1738  a * b */\n      dup4\n      dup4\n      mul\n        /* \"@openzeppelin/contracts/utils/math/SafeMath.sol\":1737:1738  b */\n      dup4\n        /* \"@openzeppelin/contracts/utils/math/SafeMath.sol\":1733:1734  a */\n      dup6\n        /* \"@openzeppelin/contracts/utils/math/SafeMath.sol\":1733:1738  a * b */\n      dup3\n        /* \"@openzeppelin/contracts/utils/math/SafeMath.sol\":1733:1734  a */\n      dup2\n        /* \"@openzeppelin/contracts/utils/math/SafeMath.sol\":1756:1761  c / a */\n      tag_163\n      jumpi\n      tag_163\n      tag_164\n      jump\t// in\n    tag_163:\n      div\n        /* \"@openzeppelin/contracts/utils/math/SafeMath.sol\":1756:1766  c / a != b */\n      eq\n        /* \"@openzeppelin/contracts/utils/math/SafeMath.sol\":1752:1785  if (c / a != b) return (false, 0) */\n      tag_165\n      jumpi\n        /* \"@openzeppelin/contracts/utils/math/SafeMath.sol\":1776:1781  false */\n      0x00\n        /* \"@openzeppelin/contracts/utils/math/SafeMath.sol\":1783:1784  0 */\n      dup1\n        /* \"@openzeppelin/contracts/utils/math/SafeMath.sol\":1768:1785  return (false, 0) */\n      swap3\n      pop\n      swap3\n      pop\n      pop\n      jump(tag_160)\n        /* \"@openzeppelin/contracts/utils/math/SafeMath.sol\":1752:1785  if (c / a != b) return (false, 0) */\n    tag_165:\n        /* \"@openzeppelin/contracts/utils/math/SafeMath.sol\":1807:1811  true */\n      0x01\n      swap3\n      pop\n        /* \"@openzeppelin/contracts/utils/math/SafeMath.sol\":1813:1814  c */\n      swap1\n      pop\n        /* \"@openzeppelin/contracts/utils/math/SafeMath.sol\":1339:1832  function tryMul(uint256 a, uint256 b) internal pure returns (bool, uint256) {... */\n    tag_160:\n      swap3\n      pop\n      swap3\n      swap1\n      pop\n      jump\t// out\n        /* \"@openzeppelin/contracts/utils/math/SafeMath.sol\":1981:2171  function tryDiv(uint256 a, uint256 b) internal pure returns (bool, uint256) {... */\n    tag_53:\n        /* \"@openzeppelin/contracts/utils/math/SafeMath.sol\":2042:2046  bool */\n      0x00\n        /* \"@openzeppelin/contracts/utils/math/SafeMath.sol\":2048:2055  uint256 */\n      dup1\n        /* \"@openzeppelin/contracts/utils/math/SafeMath.sol\":2095:2096  b */\n      dup3\n        /* \"@openzeppelin/contracts/utils/math/SafeMath.sol\":2100:2101  0 */\n      0x00\n        /* \"@openzeppelin/contracts/utils/math/SafeMath.sol\":2095:2101  b == 0 */\n      sub\n        /* \"@openzeppelin/contracts/utils/math/SafeMath.sol\":2091:2120  if (b == 0) return (false, 0) */\n      tag_167\n      jumpi\n      pop\n        /* \"@openzeppelin/contracts/utils/math/SafeMath.sol\":2111:2116  false */\n      0x00\n      swap1\n      pop\n      dup1\n        /* \"@openzeppelin/contracts/utils/math/SafeMath.sol\":2103:2120  return (false, 0) */\n      jump(tag_160)\n        /* \"@openzeppelin/contracts/utils/math/SafeMath.sol\":2091:2120  if (b == 0) return (false, 0) */\n    tag_167:\n        /* \"@openzeppelin/contracts/utils/math/SafeMath.sol\":2142:2146  true */\n      0x01\n        /* \"@openzeppelin/contracts/utils/math/SafeMath.sol\":2152:2153  b */\n      dup4\n        /* \"@openzeppelin/contracts/utils/math/SafeMath.sol\":2148:2149  a */\n      dup6\n        /* \"@openzeppelin/contracts/utils/math/SafeMath.sol\":2148:2153  a / b */\n      dup2\n      tag_169\n      jumpi\n      tag_169\n      tag_164\n      jump\t// in\n    tag_169:\n      div\n        /* \"@openzeppelin/contracts/utils/math/SafeMath.sol\":2134:2154  return (true, a / b) */\n      swap2\n      pop\n      swap2\n      pop\n        /* \"@openzeppelin/contracts/utils/math/SafeMath.sol\":1981:2171  function tryDiv(uint256 a, uint256 b) internal pure returns (bool, uint256) {... */\n      swap3\n      pop\n      swap3\n      swap1\n      pop\n      jump\t// out\n        /* \"@openzeppelin/contracts/utils/math/SafeMath.sol\":1002:1191  function trySub(uint256 a, uint256 b) internal pure returns (bool, uint256) {... */\n    tag_58:\n        /* \"@openzeppelin/contracts/utils/math/SafeMath.sol\":1063:1067  bool */\n      0x00\n        /* \"@openzeppelin/contracts/utils/math/SafeMath.sol\":1069:1076  uint256 */\n      dup1\n        /* \"@openzeppelin/contracts/utils/math/SafeMath.sol\":1120:1121  a */\n      dup4\n        /* \"@openzeppelin/contracts/utils/math/SafeMath.sol\":1116:1117  b */\n      dup4\n        /* \"@openzeppelin/contracts/utils/math/SafeMath.sol\":1116:1121  b > a */\n      gt\n        /* \"@openzeppelin/contracts/utils/math/SafeMath.sol\":1112:1140  if (b > a) return (false, 0) */\n      iszero\n      tag_171\n      jumpi\n      pop\n        /* \"@openzeppelin/contracts/utils/math/SafeMath.sol\":1131:1136  false */\n      0x00\n      swap1\n      pop\n      dup1\n        /* \"@openzeppelin/contracts/utils/math/SafeMath.sol\":1123:1140  return (false, 0) */\n      jump(tag_160)\n        /* \"@openzeppelin/contracts/utils/math/SafeMath.sol\":1112:1140  if (b > a) return (false, 0) */\n    tag_171:\n      pop\n        /* \"@openzeppelin/contracts/utils/math/SafeMath.sol\":1162:1166  true */\n      0x01\n      swap4\n        /* \"@openzeppelin/contracts/utils/math/SafeMath.sol\":1168:1173  a - b */\n      swap2\n      swap1\n      swap3\n      sub\n      swap2\n      pop\n        /* \"@openzeppelin/contracts/utils/math/SafeMath.sol\":1002:1191  function trySub(uint256 a, uint256 b) internal pure returns (bool, uint256) {... */\n      jump\t// out\n        /* \"@openzeppelin/contracts/utils/math/SafeMath.sol\":641:857  function tryAdd(uint256 a, uint256 b) internal pure returns (bool, uint256) {... */\n    tag_115:\n        /* \"@openzeppelin/contracts/utils/math/SafeMath.sol\":702:706  bool */\n      0x00\n      dup1\n        /* \"@openzeppelin/contracts/utils/math/SafeMath.sol\":763:768  a + b */\n      dup4\n      dup4\n      add\n        /* \"@openzeppelin/contracts/utils/math/SafeMath.sol\":786:791  c < a */\n      dup5\n      dup2\n      lt\n        /* \"@openzeppelin/contracts/utils/math/SafeMath.sol\":782:810  if (c < a) return (false, 0) */\n      iszero\n      tag_165\n      jumpi\n        /* \"@openzeppelin/contracts/utils/math/SafeMath.sol\":801:806  false */\n      0x00\n        /* \"@openzeppelin/contracts/utils/math/SafeMath.sol\":808:809  0 */\n      dup1\n        /* \"@openzeppelin/contracts/utils/math/SafeMath.sol\":793:810  return (false, 0) */\n      swap3\n      pop\n      swap3\n      pop\n      pop\n      jump(tag_160)\n        /* \"#utility.yul\":204:384   */\n    tag_17:\n        /* \"#utility.yul\":263:269   */\n      0x00\n        /* \"#utility.yul\":316:318   */\n      0x20\n        /* \"#utility.yul\":304:313   */\n      dup3\n        /* \"#utility.yul\":295:302   */\n      dup5\n        /* \"#utility.yul\":291:314   */\n      sub\n        /* \"#utility.yul\":287:319   */\n      slt\n        /* \"#utility.yul\":284:336   */\n      iszero\n      tag_178\n      jumpi\n        /* \"#utility.yul\":332:333   */\n      0x00\n        /* \"#utility.yul\":329:330   */\n      dup1\n        /* \"#utility.yul\":322:334   */\n      revert\n        /* \"#utility.yul\":284:336   */\n    tag_178:\n      pop\n        /* \"#utility.yul\":355:378   */\n      calldataload\n      swap2\n        /* \"#utility.yul\":204:384   */\n      swap1\n      pop\n      jump\t// out\n        /* \"#utility.yul\":389:637   */\n    tag_22:\n        /* \"#utility.yul\":457:463   */\n      0x00\n        /* \"#utility.yul\":465:471   */\n      dup1\n        /* \"#utility.yul\":518:520   */\n      0x40\n        /* \"#utility.yul\":506:515   */\n      dup4\n        /* \"#utility.yul\":497:504   */\n      dup6\n        /* \"#utility.yul\":493:516   */\n      sub\n        /* \"#utility.yul\":489:521   */\n      slt\n        /* \"#utility.yul\":486:538   */\n      iszero\n      tag_180\n      jumpi\n        /* \"#utility.yul\":534:535   */\n      0x00\n        /* \"#utility.yul\":531:532   */\n      dup1\n        /* \"#utility.yul\":524:536   */\n      revert\n        /* \"#utility.yul\":486:538   */\n    tag_180:\n      pop\n      pop\n        /* \"#utility.yul\":557:580   */\n      dup1\n      calldataload\n      swap3\n        /* \"#utility.yul\":627:629   */\n      0x20\n        /* \"#utility.yul\":612:630   */\n      swap1\n      swap2\n      add\n        /* \"#utility.yul\":599:631   */\n      calldataload\n      swap2\n      pop\n        /* \"#utility.yul\":389:637   */\n      jump\t// out\n        /* \"#utility.yul\":642:1163   */\n    tag_34:\n        /* \"#utility.yul\":744:750   */\n      0x00\n        /* \"#utility.yul\":752:758   */\n      dup1\n        /* \"#utility.yul\":760:766   */\n      0x00\n        /* \"#utility.yul\":768:774   */\n      dup1\n        /* \"#utility.yul\":776:782   */\n      0x00\n        /* \"#utility.yul\":784:790   */\n      dup1\n        /* \"#utility.yul\":837:840   */\n      0xc0\n        /* \"#utility.yul\":825:834   */\n      dup8\n        /* \"#utility.yul\":816:823   */\n      dup10\n        /* \"#utility.yul\":812:835   */\n      sub\n        /* \"#utility.yul\":808:841   */\n      slt\n        /* \"#utility.yul\":805:858   */\n      iszero\n      tag_182\n      jumpi\n        /* \"#utility.yul\":854:855   */\n      0x00\n        /* \"#utility.yul\":851:852   */\n      dup1\n        /* \"#utility.yul\":844:856   */\n      revert\n        /* \"#utility.yul\":805:858   */\n    tag_182:\n      pop\n      pop\n        /* \"#utility.yul\":877:900   */\n      dup5\n      calldataload\n      swap7\n        /* \"#utility.yul\":947:949   */\n      0x20\n        /* \"#utility.yul\":932:950   */\n      dup7\n      add\n        /* \"#utility.yul\":919:951   */\n      calldataload\n      swap7\n      pop\n        /* \"#utility.yul\":998:1000   */\n      0x40\n        /* \"#utility.yul\":983:1001   */\n      dup7\n      add\n        /* \"#utility.yul\":970:1002   */\n      calldataload\n      swap6\n        /* \"#utility.yul\":1049:1051   */\n      0x60\n        /* \"#utility.yul\":1034:1052   */\n      dup2\n      add\n        /* \"#utility.yul\":1021:1053   */\n      calldataload\n      swap6\n      pop\n        /* \"#utility.yul\":1100:1103   */\n      0x80\n        /* \"#utility.yul\":1085:1104   */\n      dup2\n      add\n        /* \"#utility.yul\":1072:1105   */\n      calldataload\n      swap5\n      pop\n        /* \"#utility.yul\":1152:1155   */\n      0xa0\n        /* \"#utility.yul\":1137:1156   */\n      add\n        /* \"#utility.yul\":1124:1157   */\n      calldataload\n      swap3\n      pop\n        /* \"#utility.yul\":642:1163   */\n      swap1\n      pop\n      jump\t// out\n        /* \"#utility.yul\":1168:1568   */\n    tag_51:\n        /* \"#utility.yul\":1370:1372   */\n      0x20\n        /* \"#utility.yul\":1352:1373   */\n      dup1\n      dup3\n      mstore\n        /* \"#utility.yul\":1409:1411   */\n      0x24\n        /* \"#utility.yul\":1389:1407   */\n      swap1\n      dup3\n      add\n        /* \"#utility.yul\":1382:1412   */\n      mstore\n        /* \"#utility.yul\":1448:1482   */\n      0x5b7469636b6574496e636f6d653247726f75704c65616465725d206f76657266\n        /* \"#utility.yul\":1443:1445   */\n      0x40\n        /* \"#utility.yul\":1428:1446   */\n      dup3\n      add\n        /* \"#utility.yul\":1421:1483   */\n      mstore\n      shl(0xe1, 0x3637bb97)\n        /* \"#utility.yul\":1514:1516   */\n      0x60\n        /* \"#utility.yul\":1499:1517   */\n      dup3\n      add\n        /* \"#utility.yul\":1492:1526   */\n      mstore\n        /* \"#utility.yul\":1558:1561   */\n      0x80\n        /* \"#utility.yul\":1543:1562   */\n      add\n      swap1\n        /* \"#utility.yul\":1168:1568   */\n      jump\t// out\n        /* \"#utility.yul\":1573:1971   */\n    tag_61:\n        /* \"#utility.yul\":1775:1777   */\n      0x20\n        /* \"#utility.yul\":1757:1778   */\n      dup1\n      dup3\n      mstore\n        /* \"#utility.yul\":1814:1816   */\n      0x22\n        /* \"#utility.yul\":1794:1812   */\n      swap1\n      dup3\n      add\n        /* \"#utility.yul\":1787:1817   */\n      mstore\n        /* \"#utility.yul\":1853:1887   */\n      0x5b726577617264506f6f6c3247726f75704d656d6265725d206f766572666c6f\n        /* \"#utility.yul\":1848:1850   */\n      0x40\n        /* \"#utility.yul\":1833:1851   */\n      dup3\n      add\n        /* \"#utility.yul\":1826:1888   */\n      mstore\n      shl(0xf1, 0x3b97)\n        /* \"#utility.yul\":1919:1921   */\n      0x60\n        /* \"#utility.yul\":1904:1922   */\n      dup3\n      add\n        /* \"#utility.yul\":1897:1929   */\n      mstore\n        /* \"#utility.yul\":1961:1964   */\n      0x80\n        /* \"#utility.yul\":1946:1965   */\n      add\n      swap1\n        /* \"#utility.yul\":1573:1971   */\n      jump\t// out\n        /* \"#utility.yul\":1976:2376   */\n    tag_75:\n        /* \"#utility.yul\":2178:2180   */\n      0x20\n        /* \"#utility.yul\":2160:2181   */\n      dup1\n      dup3\n      mstore\n        /* \"#utility.yul\":2217:2219   */\n      0x24\n        /* \"#utility.yul\":2197:2215   */\n      swap1\n      dup3\n      add\n        /* \"#utility.yul\":2190:2220   */\n      mstore\n        /* \"#utility.yul\":2256:2290   */\n      0x5b7469636b6574496e636f6d653247726f75704d656d6265725d206f76657266\n        /* \"#utility.yul\":2251:2253   */\n      0x40\n        /* \"#utility.yul\":2236:2254   */\n      dup3\n      add\n        /* \"#utility.yul\":2229:2291   */\n      mstore\n      shl(0xe1, 0x3637bb97)\n        /* \"#utility.yul\":2322:2324   */\n      0x60\n        /* \"#utility.yul\":2307:2325   */\n      dup3\n      add\n        /* \"#utility.yul\":2300:2334   */\n      mstore\n        /* \"#utility.yul\":2366:2369   */\n      0x80\n        /* \"#utility.yul\":2351:2370   */\n      add\n      swap1\n        /* \"#utility.yul\":1976:2376   */\n      jump\t// out\n        /* \"#utility.yul\":3217:3344   */\n    tag_174:\n        /* \"#utility.yul\":3278:3288   */\n      0x4e487b71\n        /* \"#utility.yul\":3273:3276   */\n      0xe0\n        /* \"#utility.yul\":3269:3289   */\n      shl\n        /* \"#utility.yul\":3266:3267   */\n      0x00\n        /* \"#utility.yul\":3259:3290   */\n      mstore\n        /* \"#utility.yul\":3309:3313   */\n      0x11\n        /* \"#utility.yul\":3306:3307   */\n      0x04\n        /* \"#utility.yul\":3299:3314   */\n      mstore\n        /* \"#utility.yul\":3333:3337   */\n      0x24\n        /* \"#utility.yul\":3330:3331   */\n      0x00\n        /* \"#utility.yul\":3323:3338   */\n      revert\n        /* \"#utility.yul\":3349:3484   */\n    tag_101:\n        /* \"#utility.yul\":3388:3391   */\n      0x00\n        /* \"#utility.yul\":3409:3426   */\n      0x01\n      dup3\n      add\n        /* \"#utility.yul\":3406:3449   */\n      tag_191\n      jumpi\n        /* \"#utility.yul\":3429:3447   */\n      tag_191\n      tag_174\n      jump\t// in\n    tag_191:\n      pop\n        /* \"#utility.yul\":3476:3477   */\n      0x01\n        /* \"#utility.yul\":3465:3478   */\n      add\n      swap1\n        /* \"#utility.yul\":3349:3484   */\n      jump\t// out\n        /* \"#utility.yul\":5463:5591   */\n    tag_122:\n        /* \"#utility.yul\":5530:5539   */\n      dup2\n      dup2\n      sub\n        /* \"#utility.yul\":5551:5562   */\n      dup2\n      dup2\n      gt\n        /* \"#utility.yul\":5548:5585   */\n      iszero\n      tag_56\n      jumpi\n        /* \"#utility.yul\":5565:5583   */\n      tag_56\n      tag_174\n      jump\t// in\n        /* \"#utility.yul\":7062:7460   */\n    tag_148:\n        /* \"#utility.yul\":7264:7266   */\n      0x20\n        /* \"#utility.yul\":7246:7267   */\n      dup1\n      dup3\n      mstore\n        /* \"#utility.yul\":7303:7305   */\n      0x22\n        /* \"#utility.yul\":7283:7301   */\n      swap1\n      dup3\n      add\n        /* \"#utility.yul\":7276:7306   */\n      mstore\n        /* \"#utility.yul\":7342:7376   */\n      0x5b726577617264506f6f6c3247726f75704c65616465725d206f766572666c6f\n        /* \"#utility.yul\":7337:7339   */\n      0x40\n        /* \"#utility.yul\":7322:7340   */\n      dup3\n      add\n        /* \"#utility.yul\":7315:7377   */\n      mstore\n      shl(0xf1, 0x3b97)\n        /* \"#utility.yul\":7408:7410   */\n      0x60\n        /* \"#utility.yul\":7393:7411   */\n      dup3\n      add\n        /* \"#utility.yul\":7386:7418   */\n      mstore\n        /* \"#utility.yul\":7450:7453   */\n      0x80\n        /* \"#utility.yul\":7435:7454   */\n      add\n      swap1\n        /* \"#utility.yul\":7062:7460   */\n      jump\t// out\n        /* \"#utility.yul\":7465:7864   */\n    tag_156:\n        /* \"#utility.yul\":7667:7669   */\n      0x20\n        /* \"#utility.yul\":7649:7670   */\n      dup1\n      dup3\n      mstore\n        /* \"#utility.yul\":7706:7708   */\n      0x23\n        /* \"#utility.yul\":7686:7704   */\n      swap1\n      dup3\n      add\n        /* \"#utility.yul\":7679:7709   */\n      mstore\n        /* \"#utility.yul\":7745:7779   */\n      0x5b7469636b6574496e636f6d6532526577617264506f6f6c5d206f766572666c\n        /* \"#utility.yul\":7740:7742   */\n      0x40\n        /* \"#utility.yul\":7725:7743   */\n      dup3\n      add\n        /* \"#utility.yul\":7718:7780   */\n      mstore\n      shl(0xe9, 0x37bb97)\n        /* \"#utility.yul\":7811:7813   */\n      0x60\n        /* \"#utility.yul\":7796:7814   */\n      dup3\n      add\n        /* \"#utility.yul\":7789:7822   */\n      mstore\n        /* \"#utility.yul\":7854:7857   */\n      0x80\n        /* \"#utility.yul\":7839:7858   */\n      add\n      swap1\n        /* \"#utility.yul\":7465:7864   */\n      jump\t// out\n        /* \"#utility.yul\":7869:7996   */\n    tag_164:\n        /* \"#utility.yul\":7930:7940   */\n      0x4e487b71\n        /* \"#utility.yul\":7925:7928   */\n      0xe0\n        /* \"#utility.yul\":7921:7941   */\n      shl\n        /* \"#utility.yul\":7918:7919   */\n      0x00\n        /* \"#utility.yul\":7911:7942   */\n      mstore\n        /* \"#utility.yul\":7961:7965   */\n      0x12\n        /* \"#utility.yul\":7958:7959   */\n      0x04\n        /* \"#utility.yul\":7951:7966   */\n      mstore\n        /* \"#utility.yul\":7985:7989   */\n      0x24\n        /* \"#utility.yul\":7982:7983   */\n      0x00\n        /* \"#utility.yul\":7975:7990   */\n      revert\n    stop\n    data_3ea7e64d02bfa2ce3fc0ccd06ec6010a4af3c1c13862f1013ea695f2535f0f7a 4e756d626572206f766572666c6f77206f6363757273207768656e2063616c63\n\n    auxdata: 0xa2646970667358221220ea64bc8966038257df4cafe0d8e715bd9eacef565aa7fd59866ea5b5d1e3a95b64736f6c63430008120033\n}\n",
				"bytecode": {
					"linkReferences": {},
					"object": "610c6161003a600b82828239805160001a60731461002d57634e487b7160e01b600052600060045260246000fd5b30600052607381538281f3fe73000000000000000000000000000000000000000030146080604052600436106100925760003560e01c806391096a3c1161006557806391096a3c146100e85780639b49380b146100f2578063beb19a2114610105578063e6ca2a8d1461011857600080fd5b806326d0a334146100975780632e26fb4a146100af5780633ed12ab7146100c257806384105419146100d5575b600080fd5b6305f5e1005b60405190815260200160405180910390f35b61009d6100bd3660046109e6565b61012b565b61009d6100d03660046109ff565b61019a565b61009d6100e33660046109ff565b61025f565b633b9aca0061009d565b61009d610100366004610a21565b610347565b61009d6101133660046109e6565b61086c565b61009d6101263660046109e6565b6108cb565b6000808061013a84601e61092b565b9092509050816101655760405162461bcd60e51b815260040161015c90610a64565b60405180910390fd5b610171816103e8610976565b9092509050816101935760405162461bcd60e51b815260040161015c90610a64565b9392505050565b60008080806101ac6103e860646109a9565b9093509050826101ce5760405162461bcd60e51b815260040161015c90610aa8565b6101d8868261092b565b9093509150826101fa5760405162461bcd60e51b815260040161015c90610aa8565b610206826103e8610976565b9093509150826102285760405162461bcd60e51b815260040161015c90610aa8565b6102328286610976565b9093509150826102545760405162461bcd60e51b815260040161015c90610aa8565b509150505b92915050565b60008080806102716103e8601e6109a9565b9093509050826102935760405162461bcd60e51b815260040161015c90610aea565b61029f816101f46109a9565b9093509050826102c15760405162461bcd60e51b815260040161015c90610aea565b6102cb868261092b565b9093509150826102ed5760405162461bcd60e51b815260040161015c90610aea565b6102f9826103e8610976565b90935091508261031b5760405162461bcd60e51b815260040161015c90610aea565b6103258286610976565b9093509150826102545760405162461bcd60e51b815260040161015c90610aea565b600060018060005b60028110156103dc57610362828b61092b565b9093509150826103ca576040805162461bcd60e51b8152602060048201526024810191909152600080516020610c0c83398151915260448201527f756c617465207469636b657420707269636520696e20692a2a5f616c7068612e606482015260840161015c565b806103d481610b44565b91505061034f565b506103e881600a61092b565b90925090508161045d5760405162461bcd60e51b81526020600482015260466024820152600080516020610c0c83398151915260448201527f756c617465207469636b657420707269636520696e205f626574612a692a2a5f60648201526530b63834309760d11b608482015260a40161015c565b61046a81620f424061092b565b9092509050816104f65760405162461bcd60e51b815260206004820152605e6024820152600080516020610c0c83398151915260448201527f756c617465207469636b657420707269636520696e20285f626574612f5f646560648201527f6e6f6d696e61746f722a692a2a5f616c706861292a5f646563696d616c2e0000608482015260a40161015c565b610502816103e8610976565b9092509050816105845760405162461bcd60e51b81526020600482015260536024820152600080516020610c0c83398151915260448201527f756c617465207469636b657420707269636520696e205f626574612f5f64656e60648201527237b6b4b730ba37b9153495152fb0b63834309760691b608482015260a40161015c565b61059181624c4b406109cb565b90925090508161061d5760405162461bcd60e51b815260206004820152605b6024820152600080516020610c0c83398151915260448201527f756c617465207469636b657420707269636520696e205f626574612f5f64656e60648201527f6f6d696e61746f722a692a2a5f616c706861202b2067616d6d612e0000000000608482015260a40161015c565b6000808812158015610630575060008712155b1561065757600a6106418688610b5d565b111561064f57506001610682565b506000610682565b600088121580156106685750600087125b1561067e57600a86111561064f57506001610682565b5060005b801561085f5760006106958a606461092b565b9094509050836107295760405162461bcd60e51b815260206004820152605360248201527f4e756d626572206f766572666c6f77206f6363757273207768656e2028666c6160448201527f672c20657874726146656529203d20536166654d6174682e7472794d756c28746064820152726f74616c526577617264506f6f6c2c205f702960681b608482015260a40161015c565b610735816103e8610976565b9094509050836107cc5760405162461bcd60e51b815260206004820152605660248201527f4e756d626572206f766572666c6f77206f6363757273207768656e2028666c6160448201527f672c20657874726146656529203d20536166654d6174682e7472794469762865606482015275787472614665652c205f64656e6f6d696e61746f722960501b608482015260a40161015c565b6107d683826109cb565b90945092508361085d5760405162461bcd60e51b815260206004820152604660248201527f4e756d626572206f766572666c6f77206f6363757273207768656e2028666c6160448201527f672c20747029203d20536166654d6174682e7472794164642874702c2065787460648201526572614665652960d01b608482015260a40161015c565b505b5098975050505050505050565b6000808061087b84606461092b565b90925090508161089d5760405162461bcd60e51b815260040161015c90610b70565b6108a9816103e8610976565b9092509050816101935760405162461bcd60e51b815260040161015c90610b70565b600080806108db846101f461092b565b9092509050816108fd5760405162461bcd60e51b815260040161015c90610bb2565b610909816103e8610976565b9092509050816101935760405162461bcd60e51b815260040161015c90610bb2565b60008083600003610942575060019050600061096f565b8383028385828161095557610955610bf5565b041461096857600080925092505061096f565b6001925090505b9250929050565b6000808260000361098c5750600090508061096f565b600183858161099d5761099d610bf5565b04915091509250929050565b600080838311156109bf5750600090508061096f565b50600193919092039150565b6000808383018481101561096857600080925092505061096f565b6000602082840312156109f857600080fd5b5035919050565b60008060408385031215610a1257600080fd5b50508035926020909101359150565b60008060008060008060c08789031215610a3a57600080fd5b505084359660208601359650604086013595606081013595506080810135945060a0013592509050565b60208082526024908201527f5b7469636b6574496e636f6d653247726f75704c65616465725d206f766572666040820152633637bb9760e11b606082015260800190565b60208082526022908201527f5b726577617264506f6f6c3247726f75704d656d6265725d206f766572666c6f6040820152613b9760f11b606082015260800190565b60208082526024908201527f5b7469636b6574496e636f6d653247726f75704d656d6265725d206f766572666040820152633637bb9760e11b606082015260800190565b634e487b7160e01b600052601160045260246000fd5b600060018201610b5657610b56610b2e565b5060010190565b8181038181111561025957610259610b2e565b60208082526022908201527f5b726577617264506f6f6c3247726f75704c65616465725d206f766572666c6f6040820152613b9760f11b606082015260800190565b60208082526023908201527f5b7469636b6574496e636f6d6532526577617264506f6f6c5d206f766572666c60408201526237bb9760e91b606082015260800190565b634e487b7160e01b600052601260045260246000fdfe4e756d626572206f766572666c6f77206f6363757273207768656e2063616c63a2646970667358221220ea64bc8966038257df4cafe0d8e715bd9eacef565aa7fd59866ea5b5d1e3a95b64736f6c63430008120033",
					"opcodes": "PUSH2 0xC61 PUSH2 0x3A PUSH1 0xB DUP3 DUP3 DUP3 CODECOPY DUP1 MLOAD PUSH1 0x0 BYTE PUSH1 0x73 EQ PUSH2 0x2D JUMPI PUSH4 0x4E487B71 PUSH1 0xE0 SHL PUSH1 0x0 MSTORE PUSH1 0x0 PUSH1 0x4 MSTORE PUSH1 0x24 PUSH1 0x0 REVERT JUMPDEST ADDRESS PUSH1 0x0 MSTORE PUSH1 0x73 DUP2 MSTORE8 DUP3 DUP2 RETURN INVALID PUSH20 0x0 ADDRESS EQ PUSH1 0x80 PUSH1 0x40 MSTORE PUSH1 0x4 CALLDATASIZE LT PUSH2 0x92 JUMPI PUSH1 0x0 CALLDATALOAD PUSH1 0xE0 SHR DUP1 PUSH4 0x91096A3C GT PUSH2 0x65 JUMPI DUP1 PUSH4 0x91096A3C EQ PUSH2 0xE8 JUMPI DUP1 PUSH4 0x9B49380B EQ PUSH2 0xF2 JUMPI DUP1 PUSH4 0xBEB19A21 EQ PUSH2 0x105 JUMPI DUP1 PUSH4 0xE6CA2A8D EQ PUSH2 0x118 JUMPI PUSH1 0x0 DUP1 REVERT JUMPDEST DUP1 PUSH4 0x26D0A334 EQ PUSH2 0x97 JUMPI DUP1 PUSH4 0x2E26FB4A EQ PUSH2 0xAF JUMPI DUP1 PUSH4 0x3ED12AB7 EQ PUSH2 0xC2 JUMPI DUP1 PUSH4 0x84105419 EQ PUSH2 0xD5 JUMPI JUMPDEST PUSH1 0x0 DUP1 REVERT JUMPDEST PUSH4 0x5F5E100 JUMPDEST PUSH1 0x40 MLOAD SWAP1 DUP2 MSTORE PUSH1 0x20 ADD PUSH1 0x40 MLOAD DUP1 SWAP2 SUB SWAP1 RETURN JUMPDEST PUSH2 0x9D PUSH2 0xBD CALLDATASIZE PUSH1 0x4 PUSH2 0x9E6 JUMP JUMPDEST PUSH2 0x12B JUMP JUMPDEST PUSH2 0x9D PUSH2 0xD0 CALLDATASIZE PUSH1 0x4 PUSH2 0x9FF JUMP JUMPDEST PUSH2 0x19A JUMP JUMPDEST PUSH2 0x9D PUSH2 0xE3 CALLDATASIZE PUSH1 0x4 PUSH2 0x9FF JUMP JUMPDEST PUSH2 0x25F JUMP JUMPDEST PUSH4 0x3B9ACA00 PUSH2 0x9D JUMP JUMPDEST PUSH2 0x9D PUSH2 0x100 CALLDATASIZE PUSH1 0x4 PUSH2 0xA21 JUMP JUMPDEST PUSH2 0x347 JUMP JUMPDEST PUSH2 0x9D PUSH2 0x113 CALLDATASIZE PUSH1 0x4 PUSH2 0x9E6 JUMP JUMPDEST PUSH2 0x86C JUMP JUMPDEST PUSH2 0x9D PUSH2 0x126 CALLDATASIZE PUSH1 0x4 PUSH2 0x9E6 JUMP JUMPDEST PUSH2 0x8CB JUMP JUMPDEST PUSH1 0x0 DUP1 DUP1 PUSH2 0x13A DUP5 PUSH1 0x1E PUSH2 0x92B JUMP JUMPDEST SWAP1 SWAP3 POP SWAP1 POP DUP2 PUSH2 0x165 JUMPI PUSH1 0x40 MLOAD PUSH3 0x461BCD PUSH1 0xE5 SHL DUP2 MSTORE PUSH1 0x4 ADD PUSH2 0x15C SWAP1 PUSH2 0xA64 JUMP JUMPDEST PUSH1 0x40 MLOAD DUP1 SWAP2 SUB SWAP1 REVERT JUMPDEST PUSH2 0x171 DUP2 PUSH2 0x3E8 PUSH2 0x976 JUMP JUMPDEST SWAP1 SWAP3 POP SWAP1 POP DUP2 PUSH2 0x193 JUMPI PUSH1 0x40 MLOAD PUSH3 0x461BCD PUSH1 0xE5 SHL DUP2 MSTORE PUSH1 0x4 ADD PUSH2 0x15C SWAP1 PUSH2 0xA64 JUMP JUMPDEST SWAP4 SWAP3 POP POP POP JUMP JUMPDEST PUSH1 0x0 DUP1 DUP1 DUP1 PUSH2 0x1AC PUSH2 0x3E8 PUSH1 0x64 PUSH2 0x9A9 JUMP JUMPDEST SWAP1 SWAP4 POP SWAP1 POP DUP3 PUSH2 0x1CE JUMPI PUSH1 0x40 MLOAD PUSH3 0x461BCD PUSH1 0xE5 SHL DUP2 MSTORE PUSH1 0x4 ADD PUSH2 0x15C SWAP1 PUSH2 0xAA8 JUMP JUMPDEST PUSH2 0x1D8 DUP7 DUP3 PUSH2 0x92B JUMP JUMPDEST SWAP1 SWAP4 POP SWAP2 POP DUP3 PUSH2 0x1FA JUMPI PUSH1 0x40 MLOAD PUSH3 0x461BCD PUSH1 0xE5 SHL DUP2 MSTORE PUSH1 0x4 ADD PUSH2 0x15C SWAP1 PUSH2 0xAA8 JUMP JUMPDEST PUSH2 0x206 DUP3 PUSH2 0x3E8 PUSH2 0x976 JUMP JUMPDEST SWAP1 SWAP4 POP SWAP2 POP DUP3 PUSH2 0x228 JUMPI PUSH1 0x40 MLOAD PUSH3 0x461BCD PUSH1 0xE5 SHL DUP2 MSTORE PUSH1 0x4 ADD PUSH2 0x15C SWAP1 PUSH2 0xAA8 JUMP JUMPDEST PUSH2 0x232 DUP3 DUP7 PUSH2 0x976 JUMP JUMPDEST SWAP1 SWAP4 POP SWAP2 POP DUP3 PUSH2 0x254 JUMPI PUSH1 0x40 MLOAD PUSH3 0x461BCD PUSH1 0xE5 SHL DUP2 MSTORE PUSH1 0x4 ADD PUSH2 0x15C SWAP1 PUSH2 0xAA8 JUMP JUMPDEST POP SWAP2 POP POP JUMPDEST SWAP3 SWAP2 POP POP JUMP JUMPDEST PUSH1 0x0 DUP1 DUP1 DUP1 PUSH2 0x271 PUSH2 0x3E8 PUSH1 0x1E PUSH2 0x9A9 JUMP JUMPDEST SWAP1 SWAP4 POP SWAP1 POP DUP3 PUSH2 0x293 JUMPI PUSH1 0x40 MLOAD PUSH3 0x461BCD PUSH1 0xE5 SHL DUP2 MSTORE PUSH1 0x4 ADD PUSH2 0x15C SWAP1 PUSH2 0xAEA JUMP JUMPDEST PUSH2 0x29F DUP2 PUSH2 0x1F4 PUSH2 0x9A9 JUMP JUMPDEST SWAP1 SWAP4 POP SWAP1 POP DUP3 PUSH2 0x2C1 JUMPI PUSH1 0x40 MLOAD PUSH3 0x461BCD PUSH1 0xE5 SHL DUP2 MSTORE PUSH1 0x4 ADD PUSH2 0x15C SWAP1 PUSH2 0xAEA JUMP JUMPDEST PUSH2 0x2CB DUP7 DUP3 PUSH2 0x92B JUMP JUMPDEST SWAP1 SWAP4 POP SWAP2 POP DUP3 PUSH2 0x2ED JUMPI PUSH1 0x40 MLOAD PUSH3 0x461BCD PUSH1 0xE5 SHL DUP2 MSTORE PUSH1 0x4 ADD PUSH2 0x15C SWAP1 PUSH2 0xAEA JUMP JUMPDEST PUSH2 0x2F9 DUP3 PUSH2 0x3E8 PUSH2 0x976 JUMP JUMPDEST SWAP1 SWAP4 POP SWAP2 POP DUP3 PUSH2 0x31B JUMPI PUSH1 0x40 MLOAD PUSH3 0x461BCD PUSH1 0xE5 SHL DUP2 MSTORE PUSH1 0x4 ADD PUSH2 0x15C SWAP1 PUSH2 0xAEA JUMP JUMPDEST PUSH2 0x325 DUP3 DUP7 PUSH2 0x976 JUMP JUMPDEST SWAP1 SWAP4 POP SWAP2 POP DUP3 PUSH2 0x254 JUMPI PUSH1 0x40 MLOAD PUSH3 0x461BCD PUSH1 0xE5 SHL DUP2 MSTORE PUSH1 0x4 ADD PUSH2 0x15C SWAP1 PUSH2 0xAEA JUMP JUMPDEST PUSH1 0x0 PUSH1 0x1 DUP1 PUSH1 0x0 JUMPDEST PUSH1 0x2 DUP2 LT ISZERO PUSH2 0x3DC JUMPI PUSH2 0x362 DUP3 DUP12 PUSH2 0x92B JUMP JUMPDEST SWAP1 SWAP4 POP SWAP2 POP DUP3 PUSH2 0x3CA JUMPI PUSH1 0x40 DUP1 MLOAD PUSH3 0x461BCD PUSH1 0xE5 SHL DUP2 MSTORE PUSH1 0x20 PUSH1 0x4 DUP3 ADD MSTORE PUSH1 0x24 DUP2 ADD SWAP2 SWAP1 SWAP2 MSTORE PUSH1 0x0 DUP1 MLOAD PUSH1 0x20 PUSH2 0xC0C DUP4 CODECOPY DUP2 MLOAD SWAP2 MSTORE PUSH1 0x44 DUP3 ADD MSTORE PUSH32 0x756C617465207469636B657420707269636520696E20692A2A5F616C7068612E PUSH1 0x64 DUP3 ADD MSTORE PUSH1 0x84 ADD PUSH2 0x15C JUMP JUMPDEST DUP1 PUSH2 0x3D4 DUP2 PUSH2 0xB44 JUMP JUMPDEST SWAP2 POP POP PUSH2 0x34F JUMP JUMPDEST POP PUSH2 0x3E8 DUP2 PUSH1 0xA PUSH2 0x92B JUMP JUMPDEST SWAP1 SWAP3 POP SWAP1 POP DUP2 PUSH2 0x45D JUMPI PUSH1 0x40 MLOAD PUSH3 0x461BCD PUSH1 0xE5 SHL DUP2 MSTORE PUSH1 0x20 PUSH1 0x4 DUP3 ADD MSTORE PUSH1 0x46 PUSH1 0x24 DUP3 ADD MSTORE PUSH1 0x0 DUP1 MLOAD PUSH1 0x20 PUSH2 0xC0C DUP4 CODECOPY DUP2 MLOAD SWAP2 MSTORE PUSH1 0x44 DUP3 ADD MSTORE PUSH32 0x756C617465207469636B657420707269636520696E205F626574612A692A2A5F PUSH1 0x64 DUP3 ADD MSTORE PUSH6 0x30B638343097 PUSH1 0xD1 SHL PUSH1 0x84 DUP3 ADD MSTORE PUSH1 0xA4 ADD PUSH2 0x15C JUMP JUMPDEST PUSH2 0x46A DUP2 PUSH3 0xF4240 PUSH2 0x92B JUMP JUMPDEST SWAP1 SWAP3 POP SWAP1 POP DUP2 PUSH2 0x4F6 JUMPI PUSH1 0x40 MLOAD PUSH3 0x461BCD PUSH1 0xE5 SHL DUP2 MSTORE PUSH1 0x20 PUSH1 0x4 DUP3 ADD MSTORE PUSH1 0x5E PUSH1 0x24 DUP3 ADD MSTORE PUSH1 0x0 DUP1 MLOAD PUSH1 0x20 PUSH2 0xC0C DUP4 CODECOPY DUP2 MLOAD SWAP2 MSTORE PUSH1 0x44 DUP3 ADD MSTORE PUSH32 0x756C617465207469636B657420707269636520696E20285F626574612F5F6465 PUSH1 0x64 DUP3 ADD MSTORE PUSH32 0x6E6F6D696E61746F722A692A2A5F616C706861292A5F646563696D616C2E0000 PUSH1 0x84 DUP3 ADD MSTORE PUSH1 0xA4 ADD PUSH2 0x15C JUMP JUMPDEST PUSH2 0x502 DUP2 PUSH2 0x3E8 PUSH2 0x976 JUMP JUMPDEST SWAP1 SWAP3 POP SWAP1 POP DUP2 PUSH2 0x584 JUMPI PUSH1 0x40 MLOAD PUSH3 0x461BCD PUSH1 0xE5 SHL DUP2 MSTORE PUSH1 0x20 PUSH1 0x4 DUP3 ADD MSTORE PUSH1 0x53 PUSH1 0x24 DUP3 ADD MSTORE PUSH1 0x0 DUP1 MLOAD PUSH1 0x20 PUSH2 0xC0C DUP4 CODECOPY DUP2 MLOAD SWAP2 MSTORE PUSH1 0x44 DUP3 ADD MSTORE PUSH32 0x756C617465207469636B657420707269636520696E205F626574612F5F64656E PUSH1 0x64 DUP3 ADD MSTORE PUSH19 0x37B6B4B730BA37B9153495152FB0B638343097 PUSH1 0x69 SHL PUSH1 0x84 DUP3 ADD MSTORE PUSH1 0xA4 ADD PUSH2 0x15C JUMP JUMPDEST PUSH2 0x591 DUP2 PUSH3 0x4C4B40 PUSH2 0x9CB JUMP JUMPDEST SWAP1 SWAP3 POP SWAP1 POP DUP2 PUSH2 0x61D JUMPI PUSH1 0x40 MLOAD PUSH3 0x461BCD PUSH1 0xE5 SHL DUP2 MSTORE PUSH1 0x20 PUSH1 0x4 DUP3 ADD MSTORE PUSH1 0x5B PUSH1 0x24 DUP3 ADD MSTORE PUSH1 0x0 DUP1 MLOAD PUSH1 0x20 PUSH2 0xC0C DUP4 CODECOPY DUP2 MLOAD SWAP2 MSTORE PUSH1 0x44 DUP3 ADD MSTORE PUSH32 0x756C617465207469636B657420707269636520696E205F626574612F5F64656E PUSH1 0x64 DUP3 ADD MSTORE PUSH32 0x6F6D696E61746F722A692A2A5F616C706861202B2067616D6D612E0000000000 PUSH1 0x84 DUP3 ADD MSTORE PUSH1 0xA4 ADD PUSH2 0x15C JUMP JUMPDEST PUSH1 0x0 DUP1 DUP9 SLT ISZERO DUP1 ISZERO PUSH2 0x630 JUMPI POP PUSH1 0x0 DUP8 SLT ISZERO JUMPDEST ISZERO PUSH2 0x657 JUMPI PUSH1 0xA PUSH2 0x641 DUP7 DUP9 PUSH2 0xB5D JUMP JUMPDEST GT ISZERO PUSH2 0x64F JUMPI POP PUSH1 0x1 PUSH2 0x682 JUMP JUMPDEST POP PUSH1 0x0 PUSH2 0x682 JUMP JUMPDEST PUSH1 0x0 DUP9 SLT ISZERO DUP1 ISZERO PUSH2 0x668 JUMPI POP PUSH1 0x0 DUP8 SLT JUMPDEST ISZERO PUSH2 0x67E JUMPI PUSH1 0xA DUP7 GT ISZERO PUSH2 0x64F JUMPI POP PUSH1 0x1 PUSH2 0x682 JUMP JUMPDEST POP PUSH1 0x0 JUMPDEST DUP1 ISZERO PUSH2 0x85F JUMPI PUSH1 0x0 PUSH2 0x695 DUP11 PUSH1 0x64 PUSH2 0x92B JUMP JUMPDEST SWAP1 SWAP5 POP SWAP1 POP DUP4 PUSH2 0x729 JUMPI PUSH1 0x40 MLOAD PUSH3 0x461BCD PUSH1 0xE5 SHL DUP2 MSTORE PUSH1 0x20 PUSH1 0x4 DUP3 ADD MSTORE PUSH1 0x53 PUSH1 0x24 DUP3 ADD MSTORE PUSH32 0x4E756D626572206F766572666C6F77206F6363757273207768656E2028666C61 PUSH1 0x44 DUP3 ADD MSTORE PUSH32 0x672C20657874726146656529203D20536166654D6174682E7472794D756C2874 PUSH1 0x64 DUP3 ADD MSTORE PUSH19 0x6F74616C526577617264506F6F6C2C205F7029 PUSH1 0x68 SHL PUSH1 0x84 DUP3 ADD MSTORE PUSH1 0xA4 ADD PUSH2 0x15C JUMP JUMPDEST PUSH2 0x735 DUP2 PUSH2 0x3E8 PUSH2 0x976 JUMP JUMPDEST SWAP1 SWAP5 POP SWAP1 POP DUP4 PUSH2 0x7CC JUMPI PUSH1 0x40 MLOAD PUSH3 0x461BCD PUSH1 0xE5 SHL DUP2 MSTORE PUSH1 0x20 PUSH1 0x4 DUP3 ADD MSTORE PUSH1 0x56 PUSH1 0x24 DUP3 ADD MSTORE PUSH32 0x4E756D626572206F766572666C6F77206F6363757273207768656E2028666C61 PUSH1 0x44 DUP3 ADD MSTORE PUSH32 0x672C20657874726146656529203D20536166654D6174682E7472794469762865 PUSH1 0x64 DUP3 ADD MSTORE PUSH22 0x787472614665652C205F64656E6F6D696E61746F7229 PUSH1 0x50 SHL PUSH1 0x84 DUP3 ADD MSTORE PUSH1 0xA4 ADD PUSH2 0x15C JUMP JUMPDEST PUSH2 0x7D6 DUP4 DUP3 PUSH2 0x9CB JUMP JUMPDEST SWAP1 SWAP5 POP SWAP3 POP DUP4 PUSH2 0x85D JUMPI PUSH1 0x40 MLOAD PUSH3 0x461BCD PUSH1 0xE5 SHL DUP2 MSTORE PUSH1 0x20 PUSH1 0x4 DUP3 ADD MSTORE PUSH1 0x46 PUSH1 0x24 DUP3 ADD MSTORE PUSH32 0x4E756D626572206F766572666C6F77206F6363757273207768656E2028666C61 PUSH1 0x44 DUP3 ADD MSTORE PUSH32 0x672C20747029203D20536166654D6174682E7472794164642874702C20657874 PUSH1 0x64 DUP3 ADD MSTORE PUSH6 0x726146656529 PUSH1 0xD0 SHL PUSH1 0x84 DUP3 ADD MSTORE PUSH1 0xA4 ADD PUSH2 0x15C JUMP JUMPDEST POP JUMPDEST POP SWAP9 SWAP8 POP POP POP POP POP POP POP POP JUMP JUMPDEST PUSH1 0x0 DUP1 DUP1 PUSH2 0x87B DUP5 PUSH1 0x64 PUSH2 0x92B JUMP JUMPDEST SWAP1 SWAP3 POP SWAP1 POP DUP2 PUSH2 0x89D JUMPI PUSH1 0x40 MLOAD PUSH3 0x461BCD PUSH1 0xE5 SHL DUP2 MSTORE PUSH1 0x4 ADD PUSH2 0x15C SWAP1 PUSH2 0xB70 JUMP JUMPDEST PUSH2 0x8A9 DUP2 PUSH2 0x3E8 PUSH2 0x976 JUMP JUMPDEST SWAP1 SWAP3 POP SWAP1 POP DUP2 PUSH2 0x193 JUMPI PUSH1 0x40 MLOAD PUSH3 0x461BCD PUSH1 0xE5 SHL DUP2 MSTORE PUSH1 0x4 ADD PUSH2 0x15C SWAP1 PUSH2 0xB70 JUMP JUMPDEST PUSH1 0x0 DUP1 DUP1 PUSH2 0x8DB DUP5 PUSH2 0x1F4 PUSH2 0x92B JUMP JUMPDEST SWAP1 SWAP3 POP SWAP1 POP DUP2 PUSH2 0x8FD JUMPI PUSH1 0x40 MLOAD PUSH3 0x461BCD PUSH1 0xE5 SHL DUP2 MSTORE PUSH1 0x4 ADD PUSH2 0x15C SWAP1 PUSH2 0xBB2 JUMP JUMPDEST PUSH2 0x909 DUP2 PUSH2 0x3E8 PUSH2 0x976 JUMP JUMPDEST SWAP1 SWAP3 POP SWAP1 POP DUP2 PUSH2 0x193 JUMPI PUSH1 0x40 MLOAD PUSH3 0x461BCD PUSH1 0xE5 SHL DUP2 MSTORE PUSH1 0x4 ADD PUSH2 0x15C SWAP1 PUSH2 0xBB2 JUMP JUMPDEST PUSH1 0x0 DUP1 DUP4 PUSH1 0x0 SUB PUSH2 0x942 JUMPI POP PUSH1 0x1 SWAP1 POP PUSH1 0x0 PUSH2 0x96F JUMP JUMPDEST DUP4 DUP4 MUL DUP4 DUP6 DUP3 DUP2 PUSH2 0x955 JUMPI PUSH2 0x955 PUSH2 0xBF5 JUMP JUMPDEST DIV EQ PUSH2 0x968 JUMPI PUSH1 0x0 DUP1 SWAP3 POP SWAP3 POP POP PUSH2 0x96F JUMP JUMPDEST PUSH1 0x1 SWAP3 POP SWAP1 POP JUMPDEST SWAP3 POP SWAP3 SWAP1 POP JUMP JUMPDEST PUSH1 0x0 DUP1 DUP3 PUSH1 0x0 SUB PUSH2 0x98C JUMPI POP PUSH1 0x0 SWAP1 POP DUP1 PUSH2 0x96F JUMP JUMPDEST PUSH1 0x1 DUP4 DUP6 DUP2 PUSH2 0x99D JUMPI PUSH2 0x99D PUSH2 0xBF5 JUMP JUMPDEST DIV SWAP2 POP SWAP2 POP SWAP3 POP SWAP3 SWAP1 POP JUMP JUMPDEST PUSH1 0x0 DUP1 DUP4 DUP4 GT ISZERO PUSH2 0x9BF JUMPI POP PUSH1 0x0 SWAP1 POP DUP1 PUSH2 0x96F JUMP JUMPDEST POP PUSH1 0x1 SWAP4 SWAP2 SWAP1 SWAP3 SUB SWAP2 POP JUMP JUMPDEST PUSH1 0x0 DUP1 DUP4 DUP4 ADD DUP5 DUP2 LT ISZERO PUSH2 0x968 JUMPI PUSH1 0x0 DUP1 SWAP3 POP SWAP3 POP POP PUSH2 0x96F JUMP JUMPDEST PUSH1 0x0 PUSH1 0x20 DUP3 DUP5 SUB SLT ISZERO PUSH2 0x9F8 JUMPI PUSH1 0x0 DUP1 REVERT JUMPDEST POP CALLDATALOAD SWAP2 SWAP1 POP JUMP JUMPDEST PUSH1 0x0 DUP1 PUSH1 0x40 DUP4 DUP6 SUB SLT ISZERO PUSH2 0xA12 JUMPI PUSH1 0x0 DUP1 REVERT JUMPDEST POP POP DUP1 CALLDATALOAD SWAP3 PUSH1 0x20 SWAP1 SWAP2 ADD CALLDATALOAD SWAP2 POP JUMP JUMPDEST PUSH1 0x0 DUP1 PUSH1 0x0 DUP1 PUSH1 0x0 DUP1 PUSH1 0xC0 DUP8 DUP10 SUB SLT ISZERO PUSH2 0xA3A JUMPI PUSH1 0x0 DUP1 REVERT JUMPDEST POP POP DUP5 CALLDATALOAD SWAP7 PUSH1 0x20 DUP7 ADD CALLDATALOAD SWAP7 POP PUSH1 0x40 DUP7 ADD CALLDATALOAD SWAP6 PUSH1 0x60 DUP2 ADD CALLDATALOAD SWAP6 POP PUSH1 0x80 DUP2 ADD CALLDATALOAD SWAP5 POP PUSH1 0xA0 ADD CALLDATALOAD SWAP3 POP SWAP1 POP JUMP JUMPDEST PUSH1 0x20 DUP1 DUP3 MSTORE PUSH1 0x24 SWAP1 DUP3 ADD MSTORE PUSH32 0x5B7469636B6574496E636F6D653247726F75704C65616465725D206F76657266 PUSH1 0x40 DUP3 ADD MSTORE PUSH4 0x3637BB97 PUSH1 0xE1 SHL PUSH1 0x60 DUP3 ADD MSTORE PUSH1 0x80 ADD SWAP1 JUMP JUMPDEST PUSH1 0x20 DUP1 DUP3 MSTORE PUSH1 0x22 SWAP1 DUP3 ADD MSTORE PUSH32 0x5B726577617264506F6F6C3247726F75704D656D6265725D206F766572666C6F PUSH1 0x40 DUP3 ADD MSTORE PUSH2 0x3B97 PUSH1 0xF1 SHL PUSH1 0x60 DUP3 ADD MSTORE PUSH1 0x80 ADD SWAP1 JUMP JUMPDEST PUSH1 0x20 DUP1 DUP3 MSTORE PUSH1 0x24 SWAP1 DUP3 ADD MSTORE PUSH32 0x5B7469636B6574496E636F6D653247726F75704D656D6265725D206F76657266 PUSH1 0x40 DUP3 ADD MSTORE PUSH4 0x3637BB97 PUSH1 0xE1 SHL PUSH1 0x60 DUP3 ADD MSTORE PUSH1 0x80 ADD SWAP1 JUMP JUMPDEST PUSH4 0x4E487B71 PUSH1 0xE0 SHL PUSH1 0x0 MSTORE PUSH1 0x11 PUSH1 0x4 MSTORE PUSH1 0x24 PUSH1 0x0 REVERT JUMPDEST PUSH1 0x0 PUSH1 0x1 DUP3 ADD PUSH2 0xB56 JUMPI PUSH2 0xB56 PUSH2 0xB2E JUMP JUMPDEST POP PUSH1 0x1 ADD SWAP1 JUMP JUMPDEST DUP2 DUP2 SUB DUP2 DUP2 GT ISZERO PUSH2 0x259 JUMPI PUSH2 0x259 PUSH2 0xB2E JUMP JUMPDEST PUSH1 0x20 DUP1 DUP3 MSTORE PUSH1 0x22 SWAP1 DUP3 ADD MSTORE PUSH32 0x5B726577617264506F6F6C3247726F75704C65616465725D206F766572666C6F PUSH1 0x40 DUP3 ADD MSTORE PUSH2 0x3B97 PUSH1 0xF1 SHL PUSH1 0x60 DUP3 ADD MSTORE PUSH1 0x80 ADD SWAP1 JUMP JUMPDEST PUSH1 0x20 DUP1 DUP3 MSTORE PUSH1 0x23 SWAP1 DUP3 ADD MSTORE PUSH32 0x5B7469636B6574496E636F6D6532526577617264506F6F6C5D206F766572666C PUSH1 0x40 DUP3 ADD MSTORE PUSH3 0x37BB97 PUSH1 0xE9 SHL PUSH1 0x60 DUP3 ADD MSTORE PUSH1 0x80 ADD SWAP1 JUMP JUMPDEST PUSH4 0x4E487B71 PUSH1 0xE0 SHL PUSH1 0x0 MSTORE PUSH1 0x12 PUSH1 0x4 MSTORE PUSH1 0x24 PUSH1 0x0 REVERT INVALID 0x4E PUSH22 0x6D626572206F766572666C6F77206F63637572732077 PUSH9 0x656E2063616C63A264 PUSH10 0x70667358221220EA64BC DUP10 PUSH7 0x38257DF4CAFE0 0xD8 0xE7 ISZERO 0xBD SWAP15 0xAC 0xEF JUMP GAS 0xA7 REVERT MSIZE DUP7 PUSH15 0xA5B5D1E3A95B64736F6C6343000812 STOP CALLER "
				},
				"gasEstimates": {
					"creation": {
						"codeDepositCost": "633800",
						"executionCost": "701",
						"totalCost": "634501"
					},
					"external": {
						"groupCreateMinFee()": "154",
						"rewardPool2GroupLeader(uint256)": "600",
						"rewardPool2GroupMember(uint256,uint256)": "744",
						"taskCreateMinFee()": "164",
						"ticketIncome2GroupLeader(uint256)": "579",
						"ticketIncome2GroupMember(uint256,uint256)": "infinite",
						"ticketIncome2RewardPool(uint256)": "622",
						"ticketPrice(uint256,uint256,int256,int256,uint256,uint256)": "infinite"
					}
				},
				"methodIdentifiers": {
					"groupCreateMinFee()": "26d0a334",
					"rewardPool2GroupLeader(uint256)": "beb19a21",
					"rewardPool2GroupMember(uint256,uint256)": "3ed12ab7",
					"taskCreateMinFee()": "91096a3c",
					"ticketIncome2GroupLeader(uint256)": "2e26fb4a",
					"ticketIncome2GroupMember(uint256,uint256)": "84105419",
					"ticketIncome2RewardPool(uint256)": "e6ca2a8d",
					"ticketPrice(uint256,uint256,int256,int256,uint256,uint256)": "9b49380b"
				}
			},
			"storageLayout": {
				"storage": [],
				"types": null
			},
			"userdoc": {
				"kind": "user",
				"methods": {},
				"version": 1
			}
		}
	}
}