{
	"degen/DegenMoneyLib.sol": {
		"DegenMoneyLib": {
			"abi": [
				{
					"inputs": [],
					"name": "groupCreateMinFee",
					"outputs": [
						{
							"internalType": "uint256",
							"name": "money",
							"type": "uint256"
						}
					],
					"stateMutability": "pure",
					"type": "function"
				},
				{
					"inputs": [],
					"name": "taskCreateMinFee",
					"outputs": [
						{
							"internalType": "uint256",
							"name": "money",
							"type": "uint256"
						}
					],
					"stateMutability": "pure",
					"type": "function"
				},
				{
					"inputs": [
						{
							"internalType": "uint256",
							"name": "ticketIncome",
							"type": "uint256"
						}
					],
					"name": "ticketIncome2GroupLeader",
					"outputs": [
						{
							"internalType": "uint256",
							"name": "money",
							"type": "uint256"
						}
					],
					"stateMutability": "pure",
					"type": "function"
				},
				{
					"inputs": [
						{
							"internalType": "uint256",
							"name": "ticketIncome",
							"type": "uint256"
						},
						{
							"internalType": "uint256",
							"name": "memNum",
							"type": "uint256"
						}
					],
					"name": "ticketIncome2GroupMember",
					"outputs": [
						{
							"internalType": "uint256",
							"name": "money",
							"type": "uint256"
						}
					],
					"stateMutability": "pure",
					"type": "function"
				},
				{
					"inputs": [
						{
							"internalType": "uint256",
							"name": "ticketIncome",
							"type": "uint256"
						}
					],
					"name": "ticketIncome2RewardPool",
					"outputs": [
						{
							"internalType": "uint256",
							"name": "money",
							"type": "uint256"
						}
					],
					"stateMutability": "pure",
					"type": "function"
				},
				{
					"inputs": [
						{
							"internalType": "uint256",
							"name": "ith",
							"type": "uint256"
						},
						{
							"internalType": "uint256",
							"name": "totalRewardPool",
							"type": "uint256"
						},
						{
							"internalType": "int256",
							"name": "firstGrpId",
							"type": "int256"
						},
						{
							"internalType": "int256",
							"name": "SecondGrpId",
							"type": "int256"
						},
						{
							"internalType": "uint256",
							"name": "firstGrpPeopleNum",
							"type": "uint256"
						},
						{
							"internalType": "uint256",
							"name": "secondGrpPeopleNum",
							"type": "uint256"
						}
					],
					"name": "ticketPrice",
					"outputs": [
						{
							"internalType": "uint256",
							"name": "price",
							"type": "uint256"
						}
					],
					"stateMutability": "pure",
					"type": "function"
				}
			],
			"devdoc": {
				"kind": "dev",
				"methods": {},
				"version": 1
			},
			"evm": {
				"assembly": "    /* \"degen/DegenMoneyLib.sol\":123:5262  library DegenMoneyLib {... */\n  dataSize(sub_0)\n  dataOffset(sub_0)\n  0x0b\n  dup3\n  dup3\n  dup3\n  codecopy\n  dup1\n  mload\n  0x00\n  byte\n  0x73\n  eq\n  tag_1\n  jumpi\n  mstore(0x00, shl(0xe0, 0x4e487b71))\n  mstore(0x04, 0x00)\n  revert(0x00, 0x24)\ntag_1:\n  mstore(0x00, address)\n  0x73\n  dup2\n  mstore8\n  dup3\n  dup2\n  return\nstop\n\nsub_0: assembly {\n        /* \"degen/DegenMoneyLib.sol\":123:5262  library DegenMoneyLib {... */\n      eq(address, deployTimeAddress())\n      mstore(0x40, 0x80)\n      jumpi(tag_1, lt(calldatasize, 0x04))\n      shr(0xe0, calldataload(0x00))\n      dup1\n      0x26d0a334\n      eq\n      tag_2\n      jumpi\n      dup1\n      0x2e26fb4a\n      eq\n      tag_3\n      jumpi\n      dup1\n      0x84105419\n      eq\n      tag_4\n      jumpi\n      dup1\n      0x91096a3c\n      eq\n      tag_5\n      jumpi\n      dup1\n      0x9b49380b\n      eq\n      tag_6\n      jumpi\n      dup1\n      0xe6ca2a8d\n      eq\n      tag_7\n      jumpi\n    tag_1:\n      0x00\n      dup1\n      revert\n        /* \"degen/DegenMoneyLib.sol\":1197:1306  function groupCreateMinFee() public pure returns (uint256 money) {... */\n    tag_2:\n        /* \"degen/DegenMoneyLib.sol\":324:334  1 * 10**18 */\n      0x0de0b6b3a7640000\n        /* \"degen/DegenMoneyLib.sol\":1197:1306  function groupCreateMinFee() public pure returns (uint256 money) {... */\n    tag_8:\n      mload(0x40)\n        /* \"#utility.yul\":168:193   */\n      swap1\n      dup2\n      mstore\n        /* \"#utility.yul\":156:158   */\n      0x20\n        /* \"#utility.yul\":141:159   */\n      add\n        /* \"degen/DegenMoneyLib.sol\":1197:1306  function groupCreateMinFee() public pure returns (uint256 money) {... */\n      mload(0x40)\n      dup1\n      swap2\n      sub\n      swap1\n      return\n        /* \"degen/DegenMoneyLib.sol\":4252:4662  function ticketIncome2GroupLeader(uint256 ticketIncome) public pure returns (uint256 money) {... */\n    tag_3:\n      tag_8\n      tag_13\n      calldatasize\n      0x04\n      tag_14\n      jump\t// in\n    tag_13:\n      tag_15\n      jump\t// in\n        /* \"degen/DegenMoneyLib.sol\":4670:5257  function ticketIncome2GroupMember(uint256 ticketIncome, uint256 memNum) public pure returns (uint256 money) {... */\n    tag_4:\n      tag_8\n      tag_18\n      calldatasize\n      0x04\n      tag_19\n      jump\t// in\n    tag_18:\n      tag_20\n      jump\t// in\n        /* \"degen/DegenMoneyLib.sol\":1082:1189  function taskCreateMinFee() public pure returns (uint256 money) {... */\n    tag_5:\n        /* \"degen/DegenMoneyLib.sol\":260:271  10 * 10**18 */\n      0x8ac7230489e80000\n        /* \"degen/DegenMoneyLib.sol\":1082:1189  function taskCreateMinFee() public pure returns (uint256 money) {... */\n      jump(tag_8)\n        /* \"degen/DegenMoneyLib.sol\":1314:3829  function ticketPrice(... */\n    tag_6:\n      tag_8\n      tag_26\n      calldatasize\n      0x04\n      tag_27\n      jump\t// in\n    tag_26:\n      tag_28\n      jump\t// in\n        /* \"degen/DegenMoneyLib.sol\":3837:4244  function ticketIncome2RewardPool(uint256 ticketIncome) public pure returns (uint256 money) {... */\n    tag_7:\n      tag_8\n      tag_31\n      calldatasize\n      0x04\n      tag_14\n      jump\t// in\n    tag_31:\n      tag_32\n      jump\t// in\n        /* \"degen/DegenMoneyLib.sol\":4252:4662  function ticketIncome2GroupLeader(uint256 ticketIncome) public pure returns (uint256 money) {... */\n    tag_15:\n        /* \"degen/DegenMoneyLib.sol\":4329:4342  uint256 money */\n      0x00\n      dup1\n      dup1\n        /* \"degen/DegenMoneyLib.sol\":4419:4452  SafeMath.tryMul(ticketIncome, _a) */\n      tag_36\n        /* \"degen/DegenMoneyLib.sol\":4435:4447  ticketIncome */\n      dup5\n        /* \"degen/DegenMoneyLib.sol\":371:372  3 */\n      0x03\n        /* \"degen/DegenMoneyLib.sol\":4419:4434  SafeMath.tryMul */\n      tag_37\n        /* \"degen/DegenMoneyLib.sol\":4419:4452  SafeMath.tryMul(ticketIncome, _a) */\n      jump\t// in\n    tag_36:\n        /* \"degen/DegenMoneyLib.sol\":4407:4452  (flag, m) = SafeMath.tryMul(ticketIncome, _a) */\n      swap1\n      swap3\n      pop\n      swap1\n      pop\n      dup2\n        /* \"degen/DegenMoneyLib.sol\":4463:4516  require(flag, \"[ticketIncome2GroupLeader] overflow.\") */\n      tag_38\n      jumpi\n      mload(0x40)\n      shl(0xe5, 0x461bcd)\n      dup2\n      mstore\n      0x04\n      add\n      tag_39\n      swap1\n      tag_40\n      jump\t// in\n    tag_39:\n      mload(0x40)\n      dup1\n      swap2\n      sub\n      swap1\n      revert\n    tag_38:\n        /* \"degen/DegenMoneyLib.sol\":4539:4571  SafeMath.tryDiv(m, _denominator) */\n      tag_41\n        /* \"degen/DegenMoneyLib.sol\":4555:4556  m */\n      dup2\n        /* \"degen/DegenMoneyLib.sol\":1070:1073  100 */\n      0x64\n        /* \"degen/DegenMoneyLib.sol\":4539:4554  SafeMath.tryDiv */\n      tag_42\n        /* \"degen/DegenMoneyLib.sol\":4539:4571  SafeMath.tryDiv(m, _denominator) */\n      jump\t// in\n    tag_41:\n        /* \"degen/DegenMoneyLib.sol\":4527:4571  (flag, m) = SafeMath.tryDiv(m, _denominator) */\n      swap1\n      swap3\n      pop\n      swap1\n      pop\n      dup2\n        /* \"degen/DegenMoneyLib.sol\":4582:4635  require(flag, \"[ticketIncome2GroupLeader] overflow.\") */\n      tag_43\n      jumpi\n      mload(0x40)\n      shl(0xe5, 0x461bcd)\n      dup2\n      mstore\n      0x04\n      add\n      tag_39\n      swap1\n      tag_40\n      jump\t// in\n    tag_43:\n        /* \"degen/DegenMoneyLib.sol\":4653:4654  m */\n      swap4\n        /* \"degen/DegenMoneyLib.sol\":4252:4662  function ticketIncome2GroupLeader(uint256 ticketIncome) public pure returns (uint256 money) {... */\n      swap3\n      pop\n      pop\n      pop\n      jump\t// out\n        /* \"degen/DegenMoneyLib.sol\":4670:5257  function ticketIncome2GroupMember(uint256 ticketIncome, uint256 memNum) public pure returns (uint256 money) {... */\n    tag_20:\n        /* \"degen/DegenMoneyLib.sol\":4763:4776  uint256 money */\n      0x00\n      dup1\n        /* \"degen/DegenMoneyLib.sol\":457:459  50 */\n      0x32\n        /* \"degen/DegenMoneyLib.sol\":4801:4818  _denominator - _a */\n      tag_46\n        /* \"degen/DegenMoneyLib.sol\":371:372  3 */\n      0x03\n        /* \"degen/DegenMoneyLib.sol\":1070:1073  100 */\n      0x64\n        /* \"degen/DegenMoneyLib.sol\":4801:4818  _denominator - _a */\n      tag_47\n      jump\t// in\n    tag_46:\n        /* \"degen/DegenMoneyLib.sol\":4801:4823  _denominator - _a - _b */\n      tag_48\n      swap2\n      swap1\n      tag_47\n      jump\t// in\n    tag_48:\n        /* \"degen/DegenMoneyLib.sol\":4789:4823  uint256 c = _denominator - _a - _b */\n      swap1\n      pop\n        /* \"degen/DegenMoneyLib.sol\":4836:4845  bool flag */\n      0x00\n        /* \"degen/DegenMoneyLib.sol\":4864:4873  uint256 m */\n      dup1\n        /* \"degen/DegenMoneyLib.sol\":4900:4932  SafeMath.tryMul(ticketIncome, c) */\n      tag_49\n        /* \"degen/DegenMoneyLib.sol\":4916:4928  ticketIncome */\n      dup7\n        /* \"degen/DegenMoneyLib.sol\":4930:4931  c */\n      dup5\n        /* \"degen/DegenMoneyLib.sol\":4900:4915  SafeMath.tryMul */\n      tag_37\n        /* \"degen/DegenMoneyLib.sol\":4900:4932  SafeMath.tryMul(ticketIncome, c) */\n      jump\t// in\n    tag_49:\n        /* \"degen/DegenMoneyLib.sol\":4888:4932  (flag, m) = SafeMath.tryMul(ticketIncome, c) */\n      swap1\n      swap3\n      pop\n      swap1\n      pop\n      dup2\n        /* \"degen/DegenMoneyLib.sol\":4943:4996  require(flag, \"[ticketIncome2GroupMember] overflow.\") */\n      tag_50\n      jumpi\n      mload(0x40)\n      shl(0xe5, 0x461bcd)\n      dup2\n      mstore\n      0x04\n      add\n      tag_39\n      swap1\n      tag_52\n      jump\t// in\n    tag_50:\n        /* \"degen/DegenMoneyLib.sol\":5019:5051  SafeMath.tryDiv(m, _denominator) */\n      tag_53\n        /* \"degen/DegenMoneyLib.sol\":5035:5036  m */\n      dup2\n        /* \"degen/DegenMoneyLib.sol\":1070:1073  100 */\n      0x64\n        /* \"degen/DegenMoneyLib.sol\":5019:5034  SafeMath.tryDiv */\n      tag_42\n        /* \"degen/DegenMoneyLib.sol\":5019:5051  SafeMath.tryDiv(m, _denominator) */\n      jump\t// in\n    tag_53:\n        /* \"degen/DegenMoneyLib.sol\":5007:5051  (flag, m) = SafeMath.tryDiv(m, _denominator) */\n      swap1\n      swap3\n      pop\n      swap1\n      pop\n      dup2\n        /* \"degen/DegenMoneyLib.sol\":5062:5115  require(flag, \"[ticketIncome2GroupMember] overflow.\") */\n      tag_54\n      jumpi\n      mload(0x40)\n      shl(0xe5, 0x461bcd)\n      dup2\n      mstore\n      0x04\n      add\n      tag_39\n      swap1\n      tag_52\n      jump\t// in\n    tag_54:\n        /* \"degen/DegenMoneyLib.sol\":5138:5164  SafeMath.tryDiv(m, memNum) */\n      tag_56\n        /* \"degen/DegenMoneyLib.sol\":5154:5155  m */\n      dup2\n        /* \"degen/DegenMoneyLib.sol\":5157:5163  memNum */\n      dup7\n        /* \"degen/DegenMoneyLib.sol\":5138:5153  SafeMath.tryDiv */\n      tag_42\n        /* \"degen/DegenMoneyLib.sol\":5138:5164  SafeMath.tryDiv(m, memNum) */\n      jump\t// in\n    tag_56:\n        /* \"degen/DegenMoneyLib.sol\":5126:5164  (flag, m) = SafeMath.tryDiv(m, memNum) */\n      swap1\n      swap3\n      pop\n      swap1\n      pop\n      dup2\n        /* \"degen/DegenMoneyLib.sol\":5175:5228  require(flag, \"[ticketIncome2GroupMember] overflow.\") */\n      tag_57\n      jumpi\n      mload(0x40)\n      shl(0xe5, 0x461bcd)\n      dup2\n      mstore\n      0x04\n      add\n      tag_39\n      swap1\n      tag_52\n      jump\t// in\n    tag_57:\n        /* \"degen/DegenMoneyLib.sol\":5248:5249  m */\n      swap3\n      pop\n      pop\n      pop\n        /* \"degen/DegenMoneyLib.sol\":4670:5257  function ticketIncome2GroupMember(uint256 ticketIncome, uint256 memNum) public pure returns (uint256 money) {... */\n    tag_45:\n      swap3\n      swap2\n      pop\n      pop\n      jump\t// out\n        /* \"degen/DegenMoneyLib.sol\":1314:3829  function ticketPrice(... */\n    tag_28:\n        /* \"degen/DegenMoneyLib.sol\":1556:1569  uint256 price */\n      0x00\n        /* \"degen/DegenMoneyLib.sol\":1671:1675  true */\n      0x01\n      dup1\n        /* \"degen/DegenMoneyLib.sol\":1659:1668  bool flag */\n      0x00\n        /* \"degen/DegenMoneyLib.sol\":1721:1913  for (uint i=0; i < _alpha; i++) {... */\n    tag_64:\n        /* \"degen/DegenMoneyLib.sol\":838:839  2 */\n      0x02\n        /* \"degen/DegenMoneyLib.sol\":1736:1737  i */\n      dup2\n        /* \"degen/DegenMoneyLib.sol\":1736:1746  i < _alpha */\n      lt\n        /* \"degen/DegenMoneyLib.sol\":1721:1913  for (uint i=0; i < _alpha; i++) {... */\n      iszero\n      tag_65\n      jumpi\n        /* \"degen/DegenMoneyLib.sol\":1781:1805  SafeMath.tryMul(tp, ith) */\n      tag_67\n        /* \"degen/DegenMoneyLib.sol\":1797:1799  tp */\n      dup3\n        /* \"degen/DegenMoneyLib.sol\":1801:1804  ith */\n      dup12\n        /* \"degen/DegenMoneyLib.sol\":1781:1796  SafeMath.tryMul */\n      tag_37\n        /* \"degen/DegenMoneyLib.sol\":1781:1805  SafeMath.tryMul(tp, ith) */\n      jump\t// in\n    tag_67:\n        /* \"degen/DegenMoneyLib.sol\":1768:1805  (flag, tp) = SafeMath.tryMul(tp, ith) */\n      swap1\n      swap4\n      pop\n      swap2\n      pop\n      dup3\n        /* \"degen/DegenMoneyLib.sol\":1820:1901  require(flag, \"Number overflow occurs when calculate ticket price in i**_alpha.\") */\n      tag_68\n      jumpi\n      0x40\n      dup1\n      mload\n      shl(0xe5, 0x461bcd)\n      dup2\n      mstore\n        /* \"#utility.yul\":2848:2850   */\n      0x20\n        /* \"degen/DegenMoneyLib.sol\":1820:1901  require(flag, \"Number overflow occurs when calculate ticket price in i**_alpha.\") */\n      0x04\n      dup3\n      add\n        /* \"#utility.yul\":2830:2851   */\n      mstore\n        /* \"#utility.yul\":2867:2885   */\n      0x24\n      dup2\n      add\n        /* \"#utility.yul\":2860:2890   */\n      swap2\n      swap1\n      swap2\n      mstore\n      0x00\n      dup1\n      mload\n      0x20\n      data_3ea7e64d02bfa2ce3fc0ccd06ec6010a4af3c1c13862f1013ea695f2535f0f7a\n      dup4\n      codecopy\n      dup2\n      mload\n      swap2\n      mstore\n        /* \"#utility.yul\":2906:2924   */\n      0x44\n      dup3\n      add\n        /* \"#utility.yul\":2899:2961   */\n      mstore\n        /* \"#utility.yul\":2997:3031   */\n      0x756c617465207469636b657420707269636520696e20692a2a5f616c7068612e\n        /* \"#utility.yul\":2977:2995   */\n      0x64\n      dup3\n      add\n        /* \"#utility.yul\":2970:3032   */\n      mstore\n        /* \"#utility.yul\":3049:3068   */\n      0x84\n      add\n        /* \"degen/DegenMoneyLib.sol\":1820:1901  require(flag, \"Number overflow occurs when calculate ticket price in i**_alpha.\") */\n      tag_39\n        /* \"#utility.yul\":2646:3074   */\n      jump\n        /* \"degen/DegenMoneyLib.sol\":1820:1901  require(flag, \"Number overflow occurs when calculate ticket price in i**_alpha.\") */\n    tag_68:\n        /* \"degen/DegenMoneyLib.sol\":1748:1751  i++ */\n      dup1\n      tag_71\n      dup2\n      tag_72\n      jump\t// in\n    tag_71:\n      swap2\n      pop\n      pop\n        /* \"degen/DegenMoneyLib.sol\":1721:1913  for (uint i=0; i < _alpha; i++) {... */\n      jump(tag_64)\n    tag_65:\n      pop\n        /* \"degen/DegenMoneyLib.sol\":1938:1964  SafeMath.tryMul(tp, _beta) */\n      tag_73\n        /* \"degen/DegenMoneyLib.sol\":1954:1956  tp */\n      dup2\n        /* \"degen/DegenMoneyLib.sol\":879:881  10 */\n      0x0a\n        /* \"degen/DegenMoneyLib.sol\":1938:1953  SafeMath.tryMul */\n      tag_37\n        /* \"degen/DegenMoneyLib.sol\":1938:1964  SafeMath.tryMul(tp, _beta) */\n      jump\t// in\n    tag_73:\n        /* \"degen/DegenMoneyLib.sol\":1925:1964  (flag, tp) = SafeMath.tryMul(tp, _beta) */\n      swap1\n      swap3\n      pop\n      swap1\n      pop\n      dup2\n        /* \"degen/DegenMoneyLib.sol\":1975:2062  require(flag, \"Number overflow occurs when calculate ticket price in _beta*i**_alpha.\") */\n      tag_74\n      jumpi\n      mload(0x40)\n      shl(0xe5, 0x461bcd)\n      dup2\n      mstore\n        /* \"#utility.yul\":3421:3423   */\n      0x20\n        /* \"degen/DegenMoneyLib.sol\":1975:2062  require(flag, \"Number overflow occurs when calculate ticket price in _beta*i**_alpha.\") */\n      0x04\n      dup3\n      add\n        /* \"#utility.yul\":3403:3424   */\n      mstore\n        /* \"#utility.yul\":3460:3462   */\n      0x46\n        /* \"#utility.yul\":3440:3458   */\n      0x24\n      dup3\n      add\n        /* \"#utility.yul\":3433:3463   */\n      mstore\n      0x00\n      dup1\n      mload\n      0x20\n      data_3ea7e64d02bfa2ce3fc0ccd06ec6010a4af3c1c13862f1013ea695f2535f0f7a\n      dup4\n      codecopy\n      dup2\n      mload\n      swap2\n      mstore\n        /* \"#utility.yul\":3479:3497   */\n      0x44\n      dup3\n      add\n        /* \"#utility.yul\":3472:3534   */\n      mstore\n        /* \"#utility.yul\":3570:3604   */\n      0x756c617465207469636b657420707269636520696e205f626574612a692a2a5f\n        /* \"#utility.yul\":3550:3568   */\n      0x64\n      dup3\n      add\n        /* \"#utility.yul\":3543:3605   */\n      mstore\n      shl(0xd1, 0x30b638343097)\n        /* \"#utility.yul\":3621:3640   */\n      0x84\n      dup3\n      add\n        /* \"#utility.yul\":3614:3651   */\n      mstore\n        /* \"#utility.yul\":3668:3687   */\n      0xa4\n      add\n        /* \"degen/DegenMoneyLib.sol\":1975:2062  require(flag, \"Number overflow occurs when calculate ticket price in _beta*i**_alpha.\") */\n      tag_39\n        /* \"#utility.yul\":3219:3693   */\n      jump\n        /* \"degen/DegenMoneyLib.sol\":1975:2062  require(flag, \"Number overflow occurs when calculate ticket price in _beta*i**_alpha.\") */\n    tag_74:\n        /* \"degen/DegenMoneyLib.sol\":2088:2121  SafeMath.tryDiv(tp, _denominator) */\n      tag_77\n        /* \"degen/DegenMoneyLib.sol\":2104:2106  tp */\n      dup2\n        /* \"degen/DegenMoneyLib.sol\":1070:1073  100 */\n      0x64\n        /* \"degen/DegenMoneyLib.sol\":2088:2103  SafeMath.tryDiv */\n      tag_42\n        /* \"degen/DegenMoneyLib.sol\":2088:2121  SafeMath.tryDiv(tp, _denominator) */\n      jump\t// in\n    tag_77:\n        /* \"degen/DegenMoneyLib.sol\":2075:2121  (flag, tp) = SafeMath.tryDiv(tp, _denominator) */\n      swap1\n      swap3\n      pop\n      swap1\n      pop\n      dup2\n        /* \"degen/DegenMoneyLib.sol\":2132:2232  require(flag, \"Number overflow occurs when calculate ticket price in _beta/_denominator*i**_alpha.\") */\n      tag_78\n      jumpi\n      mload(0x40)\n      shl(0xe5, 0x461bcd)\n      dup2\n      mstore\n        /* \"#utility.yul\":3900:3902   */\n      0x20\n        /* \"degen/DegenMoneyLib.sol\":2132:2232  require(flag, \"Number overflow occurs when calculate ticket price in _beta/_denominator*i**_alpha.\") */\n      0x04\n      dup3\n      add\n        /* \"#utility.yul\":3882:3903   */\n      mstore\n        /* \"#utility.yul\":3939:3941   */\n      0x53\n        /* \"#utility.yul\":3919:3937   */\n      0x24\n      dup3\n      add\n        /* \"#utility.yul\":3912:3942   */\n      mstore\n      0x00\n      dup1\n      mload\n      0x20\n      data_3ea7e64d02bfa2ce3fc0ccd06ec6010a4af3c1c13862f1013ea695f2535f0f7a\n      dup4\n      codecopy\n      dup2\n      mload\n      swap2\n      mstore\n        /* \"#utility.yul\":3958:3976   */\n      0x44\n      dup3\n      add\n        /* \"#utility.yul\":3951:4013   */\n      mstore\n        /* \"#utility.yul\":4049:4083   */\n      0x756c617465207469636b657420707269636520696e205f626574612f5f64656e\n        /* \"#utility.yul\":4029:4047   */\n      0x64\n      dup3\n      add\n        /* \"#utility.yul\":4022:4084   */\n      mstore\n      shl(0x69, 0x37b6b4b730ba37b9153495152fb0b638343097)\n        /* \"#utility.yul\":4100:4119   */\n      0x84\n      dup3\n      add\n        /* \"#utility.yul\":4093:4143   */\n      mstore\n        /* \"#utility.yul\":4160:4179   */\n      0xa4\n      add\n        /* \"degen/DegenMoneyLib.sol\":2132:2232  require(flag, \"Number overflow occurs when calculate ticket price in _beta/_denominator*i**_alpha.\") */\n      tag_39\n        /* \"#utility.yul\":3698:4185   */\n      jump\n        /* \"degen/DegenMoneyLib.sol\":2132:2232  require(flag, \"Number overflow occurs when calculate ticket price in _beta/_denominator*i**_alpha.\") */\n    tag_78:\n        /* \"degen/DegenMoneyLib.sol\":2258:2285  SafeMath.tryMul(tp, 10**18) */\n      tag_81\n        /* \"degen/DegenMoneyLib.sol\":2274:2276  tp */\n      dup2\n        /* \"degen/DegenMoneyLib.sol\":2278:2284  10**18 */\n      0x0de0b6b3a7640000\n        /* \"degen/DegenMoneyLib.sol\":2258:2273  SafeMath.tryMul */\n      tag_37\n        /* \"degen/DegenMoneyLib.sol\":2258:2285  SafeMath.tryMul(tp, 10**18) */\n      jump\t// in\n    tag_81:\n        /* \"degen/DegenMoneyLib.sol\":2245:2285  (flag, tp) = SafeMath.tryMul(tp, 10**18) */\n      swap1\n      swap3\n      pop\n      swap1\n      pop\n      dup2\n        /* \"degen/DegenMoneyLib.sol\":2296:2405  require(flag, \"Number overflow occurs when calculate ticket price in (_beta/_denominator*i**_alpha)*10**18.\") */\n      tag_82\n      jumpi\n      mload(0x40)\n      shl(0xe5, 0x461bcd)\n      dup2\n      mstore\n        /* \"#utility.yul\":4392:4394   */\n      0x20\n        /* \"degen/DegenMoneyLib.sol\":2296:2405  require(flag, \"Number overflow occurs when calculate ticket price in (_beta/_denominator*i**_alpha)*10**18.\") */\n      0x04\n      dup3\n      add\n        /* \"#utility.yul\":4374:4395   */\n      mstore\n        /* \"#utility.yul\":4431:4433   */\n      0x5c\n        /* \"#utility.yul\":4411:4429   */\n      0x24\n      dup3\n      add\n        /* \"#utility.yul\":4404:4434   */\n      mstore\n      0x00\n      dup1\n      mload\n      0x20\n      data_3ea7e64d02bfa2ce3fc0ccd06ec6010a4af3c1c13862f1013ea695f2535f0f7a\n      dup4\n      codecopy\n      dup2\n      mload\n      swap2\n      mstore\n        /* \"#utility.yul\":4450:4468   */\n      0x44\n      dup3\n      add\n        /* \"#utility.yul\":4443:4505   */\n      mstore\n        /* \"#utility.yul\":4541:4575   */\n      0x756c617465207469636b657420707269636520696e20285f626574612f5f6465\n        /* \"#utility.yul\":4521:4539   */\n      0x64\n      dup3\n      add\n        /* \"#utility.yul\":4514:4576   */\n      mstore\n        /* \"#utility.yul\":4613:4643   */\n      0x6e6f6d696e61746f722a692a2a5f616c706861292a31302a2a31382e00000000\n        /* \"#utility.yul\":4592:4611   */\n      0x84\n      dup3\n      add\n        /* \"#utility.yul\":4585:4644   */\n      mstore\n        /* \"#utility.yul\":4661:4680   */\n      0xa4\n      add\n        /* \"degen/DegenMoneyLib.sol\":2296:2405  require(flag, \"Number overflow occurs when calculate ticket price in (_beta/_denominator*i**_alpha)*10**18.\") */\n      tag_39\n        /* \"#utility.yul\":4190:4686   */\n      jump\n        /* \"degen/DegenMoneyLib.sol\":2296:2405  require(flag, \"Number overflow occurs when calculate ticket price in (_beta/_denominator*i**_alpha)*10**18.\") */\n    tag_82:\n        /* \"degen/DegenMoneyLib.sol\":2431:2458  SafeMath.tryAdd(tp, _gamma) */\n      tag_85\n        /* \"degen/DegenMoneyLib.sol\":2447:2449  tp */\n      dup2\n        /* \"degen/DegenMoneyLib.sol\":967:980  0.01 * 10**18 */\n      0x2386f26fc10000\n        /* \"degen/DegenMoneyLib.sol\":2431:2446  SafeMath.tryAdd */\n      tag_86\n        /* \"degen/DegenMoneyLib.sol\":2431:2458  SafeMath.tryAdd(tp, _gamma) */\n      jump\t// in\n    tag_85:\n        /* \"degen/DegenMoneyLib.sol\":2418:2458  (flag, tp) = SafeMath.tryAdd(tp, _gamma) */\n      swap1\n      swap3\n      pop\n      swap1\n      pop\n      dup2\n        /* \"degen/DegenMoneyLib.sol\":2469:2577  require(flag, \"Number overflow occurs when calculate ticket price in _beta/_denominator*i**_alpha + gamma.\") */\n      tag_87\n      jumpi\n      mload(0x40)\n      shl(0xe5, 0x461bcd)\n      dup2\n      mstore\n        /* \"#utility.yul\":4893:4895   */\n      0x20\n        /* \"degen/DegenMoneyLib.sol\":2469:2577  require(flag, \"Number overflow occurs when calculate ticket price in _beta/_denominator*i**_alpha + gamma.\") */\n      0x04\n      dup3\n      add\n        /* \"#utility.yul\":4875:4896   */\n      mstore\n        /* \"#utility.yul\":4932:4934   */\n      0x5b\n        /* \"#utility.yul\":4912:4930   */\n      0x24\n      dup3\n      add\n        /* \"#utility.yul\":4905:4935   */\n      mstore\n      0x00\n      dup1\n      mload\n      0x20\n      data_3ea7e64d02bfa2ce3fc0ccd06ec6010a4af3c1c13862f1013ea695f2535f0f7a\n      dup4\n      codecopy\n      dup2\n      mload\n      swap2\n      mstore\n        /* \"#utility.yul\":4951:4969   */\n      0x44\n      dup3\n      add\n        /* \"#utility.yul\":4944:5006   */\n      mstore\n        /* \"#utility.yul\":5042:5076   */\n      0x756c617465207469636b657420707269636520696e205f626574612f5f64656e\n        /* \"#utility.yul\":5022:5040   */\n      0x64\n      dup3\n      add\n        /* \"#utility.yul\":5015:5077   */\n      mstore\n        /* \"#utility.yul\":5114:5143   */\n      0x6f6d696e61746f722a692a2a5f616c706861202b2067616d6d612e0000000000\n        /* \"#utility.yul\":5093:5112   */\n      0x84\n      dup3\n      add\n        /* \"#utility.yul\":5086:5144   */\n      mstore\n        /* \"#utility.yul\":5161:5180   */\n      0xa4\n      add\n        /* \"degen/DegenMoneyLib.sol\":2469:2577  require(flag, \"Number overflow occurs when calculate ticket price in _beta/_denominator*i**_alpha + gamma.\") */\n      tag_39\n        /* \"#utility.yul\":4691:5186   */\n      jump\n        /* \"degen/DegenMoneyLib.sol\":2469:2577  require(flag, \"Number overflow occurs when calculate ticket price in _beta/_denominator*i**_alpha + gamma.\") */\n    tag_87:\n        /* \"degen/DegenMoneyLib.sol\":2590:2612  bool isMonopolyPenalty */\n      0x00\n        /* \"degen/DegenMoneyLib.sol\":2640:2641  0 */\n      dup1\n        /* \"degen/DegenMoneyLib.sol\":2626:2636  firstGrpId */\n      dup9\n        /* \"degen/DegenMoneyLib.sol\":2626:2641  firstGrpId >= 0 */\n      slt\n      iszero\n        /* \"degen/DegenMoneyLib.sol\":2626:2661  firstGrpId >= 0 && SecondGrpId >= 0 */\n      dup1\n      iszero\n      tag_90\n      jumpi\n      pop\n        /* \"degen/DegenMoneyLib.sol\":2660:2661  0 */\n      0x00\n        /* \"degen/DegenMoneyLib.sol\":2645:2656  SecondGrpId */\n      dup8\n        /* \"degen/DegenMoneyLib.sol\":2645:2661  SecondGrpId >= 0 */\n      slt\n      iszero\n        /* \"degen/DegenMoneyLib.sol\":2626:2661  firstGrpId >= 0 && SecondGrpId >= 0 */\n    tag_90:\n        /* \"degen/DegenMoneyLib.sol\":2623:3184  if(firstGrpId >= 0 && SecondGrpId >= 0){... */\n      iszero\n      tag_91\n      jumpi\n        /* \"degen/DegenMoneyLib.sol\":712:714  10 */\n      0x0a\n        /* \"degen/DegenMoneyLib.sol\":2680:2718  firstGrpPeopleNum - secondGrpPeopleNum */\n      tag_92\n        /* \"degen/DegenMoneyLib.sol\":2700:2718  secondGrpPeopleNum */\n      dup7\n        /* \"degen/DegenMoneyLib.sol\":2680:2697  firstGrpPeopleNum */\n      dup9\n        /* \"degen/DegenMoneyLib.sol\":2680:2718  firstGrpPeopleNum - secondGrpPeopleNum */\n      tag_47\n      jump\t// in\n    tag_92:\n        /* \"degen/DegenMoneyLib.sol\":2680:2723  firstGrpPeopleNum - secondGrpPeopleNum > _v */\n      gt\n        /* \"degen/DegenMoneyLib.sol\":2677:2862  if(firstGrpPeopleNum - secondGrpPeopleNum > _v){... */\n      iszero\n      tag_93\n      jumpi\n      pop\n        /* \"degen/DegenMoneyLib.sol\":2763:2767  true */\n      0x01\n        /* \"degen/DegenMoneyLib.sol\":2623:3184  if(firstGrpId >= 0 && SecondGrpId >= 0){... */\n      jump(tag_100)\n        /* \"degen/DegenMoneyLib.sol\":2677:2862  if(firstGrpPeopleNum - secondGrpPeopleNum > _v){... */\n    tag_93:\n      pop\n        /* \"degen/DegenMoneyLib.sol\":2841:2846  false */\n      0x00\n        /* \"degen/DegenMoneyLib.sol\":2623:3184  if(firstGrpId >= 0 && SecondGrpId >= 0){... */\n      jump(tag_100)\n    tag_91:\n        /* \"degen/DegenMoneyLib.sol\":2906:2907  0 */\n      0x00\n        /* \"degen/DegenMoneyLib.sol\":2892:2902  firstGrpId */\n      dup9\n        /* \"degen/DegenMoneyLib.sol\":2892:2907  firstGrpId >= 0 */\n      slt\n      iszero\n        /* \"degen/DegenMoneyLib.sol\":2892:2926  firstGrpId >= 0 && SecondGrpId < 0 */\n      dup1\n      iszero\n      tag_96\n      jumpi\n      pop\n        /* \"degen/DegenMoneyLib.sol\":2925:2926  0 */\n      0x00\n        /* \"degen/DegenMoneyLib.sol\":2911:2922  SecondGrpId */\n      dup8\n        /* \"degen/DegenMoneyLib.sol\":2911:2926  SecondGrpId < 0 */\n      slt\n        /* \"degen/DegenMoneyLib.sol\":2892:2926  firstGrpId >= 0 && SecondGrpId < 0 */\n    tag_96:\n        /* \"degen/DegenMoneyLib.sol\":2888:3184  if (firstGrpId >= 0 && SecondGrpId < 0){... */\n      iszero\n      tag_97\n      jumpi\n        /* \"degen/DegenMoneyLib.sol\":712:714  10 */\n      0x0a\n        /* \"degen/DegenMoneyLib.sol\":2945:2962  firstGrpPeopleNum */\n      dup7\n        /* \"degen/DegenMoneyLib.sol\":2945:2967  firstGrpPeopleNum > _v */\n      gt\n        /* \"degen/DegenMoneyLib.sol\":2942:3107  if(firstGrpPeopleNum > _v) {... */\n      iszero\n      tag_93\n      jumpi\n      pop\n        /* \"degen/DegenMoneyLib.sol\":3008:3012  true */\n      0x01\n        /* \"degen/DegenMoneyLib.sol\":2888:3184  if (firstGrpId >= 0 && SecondGrpId < 0){... */\n      jump(tag_100)\n    tag_97:\n      pop\n        /* \"degen/DegenMoneyLib.sol\":3167:3172  false */\n      0x00\n        /* \"degen/DegenMoneyLib.sol\":2888:3184  if (firstGrpId >= 0 && SecondGrpId < 0){... */\n    tag_100:\n        /* \"degen/DegenMoneyLib.sol\":3200:3217  isMonopolyPenalty */\n      dup1\n        /* \"degen/DegenMoneyLib.sol\":3196:3800  if (isMonopolyPenalty){... */\n      iszero\n      tag_101\n      jumpi\n        /* \"degen/DegenMoneyLib.sol\":3233:3249  uint256 extraFee */\n      0x00\n        /* \"degen/DegenMoneyLib.sol\":3287:3323  SafeMath.tryMul(totalRewardPool, _p) */\n      tag_102\n        /* \"degen/DegenMoneyLib.sol\":3303:3318  totalRewardPool */\n      dup11\n        /* \"degen/DegenMoneyLib.sol\":635:637  10 */\n      0x0a\n        /* \"degen/DegenMoneyLib.sol\":3287:3302  SafeMath.tryMul */\n      tag_37\n        /* \"degen/DegenMoneyLib.sol\":3287:3323  SafeMath.tryMul(totalRewardPool, _p) */\n      jump\t// in\n    tag_102:\n        /* \"degen/DegenMoneyLib.sol\":3268:3323  (flag, extraFee) = SafeMath.tryMul(totalRewardPool, _p) */\n      swap1\n      swap5\n      pop\n      swap1\n      pop\n      dup4\n        /* \"degen/DegenMoneyLib.sol\":3338:3438  require(flag, \"Number overflow occurs when (flag, extraFee) = SafeMath.tryMul(totalRewardPool, _p)\") */\n      tag_103\n      jumpi\n      mload(0x40)\n      shl(0xe5, 0x461bcd)\n      dup2\n      mstore\n        /* \"#utility.yul\":5393:5395   */\n      0x20\n        /* \"degen/DegenMoneyLib.sol\":3338:3438  require(flag, \"Number overflow occurs when (flag, extraFee) = SafeMath.tryMul(totalRewardPool, _p)\") */\n      0x04\n      dup3\n      add\n        /* \"#utility.yul\":5375:5396   */\n      mstore\n        /* \"#utility.yul\":5432:5434   */\n      0x53\n        /* \"#utility.yul\":5412:5430   */\n      0x24\n      dup3\n      add\n        /* \"#utility.yul\":5405:5435   */\n      mstore\n        /* \"#utility.yul\":5471:5505   */\n      0x4e756d626572206f766572666c6f77206f6363757273207768656e2028666c61\n        /* \"#utility.yul\":5451:5469   */\n      0x44\n      dup3\n      add\n        /* \"#utility.yul\":5444:5506   */\n      mstore\n        /* \"#utility.yul\":5542:5576   */\n      0x672c20657874726146656529203d20536166654d6174682e7472794d756c2874\n        /* \"#utility.yul\":5522:5540   */\n      0x64\n      dup3\n      add\n        /* \"#utility.yul\":5515:5577   */\n      mstore\n      shl(0x68, 0x6f74616c526577617264506f6f6c2c205f7029)\n        /* \"#utility.yul\":5593:5612   */\n      0x84\n      dup3\n      add\n        /* \"#utility.yul\":5586:5636   */\n      mstore\n        /* \"#utility.yul\":5653:5672   */\n      0xa4\n      add\n        /* \"degen/DegenMoneyLib.sol\":3338:3438  require(flag, \"Number overflow occurs when (flag, extraFee) = SafeMath.tryMul(totalRewardPool, _p)\") */\n      tag_39\n        /* \"#utility.yul\":5191:5678   */\n      jump\n        /* \"degen/DegenMoneyLib.sol\":3338:3438  require(flag, \"Number overflow occurs when (flag, extraFee) = SafeMath.tryMul(totalRewardPool, _p)\") */\n    tag_103:\n        /* \"degen/DegenMoneyLib.sol\":3472:3511  SafeMath.tryDiv(extraFee, _denominator) */\n      tag_106\n        /* \"degen/DegenMoneyLib.sol\":3488:3496  extraFee */\n      dup2\n        /* \"degen/DegenMoneyLib.sol\":1070:1073  100 */\n      0x64\n        /* \"degen/DegenMoneyLib.sol\":3472:3487  SafeMath.tryDiv */\n      tag_42\n        /* \"degen/DegenMoneyLib.sol\":3472:3511  SafeMath.tryDiv(extraFee, _denominator) */\n      jump\t// in\n    tag_106:\n        /* \"degen/DegenMoneyLib.sol\":3453:3511  (flag, extraFee) = SafeMath.tryDiv(extraFee, _denominator) */\n      swap1\n      swap5\n      pop\n      swap1\n      pop\n      dup4\n        /* \"degen/DegenMoneyLib.sol\":3526:3629  require(flag, \"Number overflow occurs when (flag, extraFee) = SafeMath.tryDiv(extraFee, _denominator)\") */\n      tag_107\n      jumpi\n      mload(0x40)\n      shl(0xe5, 0x461bcd)\n      dup2\n      mstore\n        /* \"#utility.yul\":5885:5887   */\n      0x20\n        /* \"degen/DegenMoneyLib.sol\":3526:3629  require(flag, \"Number overflow occurs when (flag, extraFee) = SafeMath.tryDiv(extraFee, _denominator)\") */\n      0x04\n      dup3\n      add\n        /* \"#utility.yul\":5867:5888   */\n      mstore\n        /* \"#utility.yul\":5924:5926   */\n      0x56\n        /* \"#utility.yul\":5904:5922   */\n      0x24\n      dup3\n      add\n        /* \"#utility.yul\":5897:5927   */\n      mstore\n        /* \"#utility.yul\":5963:5997   */\n      0x4e756d626572206f766572666c6f77206f6363757273207768656e2028666c61\n        /* \"#utility.yul\":5943:5961   */\n      0x44\n      dup3\n      add\n        /* \"#utility.yul\":5936:5998   */\n      mstore\n        /* \"#utility.yul\":6034:6068   */\n      0x672c20657874726146656529203d20536166654d6174682e7472794469762865\n        /* \"#utility.yul\":6014:6032   */\n      0x64\n      dup3\n      add\n        /* \"#utility.yul\":6007:6069   */\n      mstore\n      shl(0x50, 0x787472614665652c205f64656e6f6d696e61746f7229)\n        /* \"#utility.yul\":6085:6104   */\n      0x84\n      dup3\n      add\n        /* \"#utility.yul\":6078:6131   */\n      mstore\n        /* \"#utility.yul\":6148:6167   */\n      0xa4\n      add\n        /* \"degen/DegenMoneyLib.sol\":3526:3629  require(flag, \"Number overflow occurs when (flag, extraFee) = SafeMath.tryDiv(extraFee, _denominator)\") */\n      tag_39\n        /* \"#utility.yul\":5683:6173   */\n      jump\n        /* \"degen/DegenMoneyLib.sol\":3526:3629  require(flag, \"Number overflow occurs when (flag, extraFee) = SafeMath.tryDiv(extraFee, _denominator)\") */\n    tag_107:\n        /* \"degen/DegenMoneyLib.sol\":3657:3686  SafeMath.tryAdd(tp, extraFee) */\n      tag_110\n        /* \"degen/DegenMoneyLib.sol\":3673:3675  tp */\n      dup4\n        /* \"degen/DegenMoneyLib.sol\":3677:3685  extraFee */\n      dup3\n        /* \"degen/DegenMoneyLib.sol\":3657:3672  SafeMath.tryAdd */\n      tag_86\n        /* \"degen/DegenMoneyLib.sol\":3657:3686  SafeMath.tryAdd(tp, extraFee) */\n      jump\t// in\n    tag_110:\n        /* \"degen/DegenMoneyLib.sol\":3644:3686  (flag, tp) = SafeMath.tryAdd(tp, extraFee) */\n      swap1\n      swap5\n      pop\n      swap3\n      pop\n      dup4\n        /* \"degen/DegenMoneyLib.sol\":3701:3788  require(flag, \"Number overflow occurs when (flag, tp) = SafeMath.tryAdd(tp, extraFee)\") */\n      tag_111\n      jumpi\n      mload(0x40)\n      shl(0xe5, 0x461bcd)\n      dup2\n      mstore\n        /* \"#utility.yul\":6380:6382   */\n      0x20\n        /* \"degen/DegenMoneyLib.sol\":3701:3788  require(flag, \"Number overflow occurs when (flag, tp) = SafeMath.tryAdd(tp, extraFee)\") */\n      0x04\n      dup3\n      add\n        /* \"#utility.yul\":6362:6383   */\n      mstore\n        /* \"#utility.yul\":6419:6421   */\n      0x46\n        /* \"#utility.yul\":6399:6417   */\n      0x24\n      dup3\n      add\n        /* \"#utility.yul\":6392:6422   */\n      mstore\n        /* \"#utility.yul\":6458:6492   */\n      0x4e756d626572206f766572666c6f77206f6363757273207768656e2028666c61\n        /* \"#utility.yul\":6438:6456   */\n      0x44\n      dup3\n      add\n        /* \"#utility.yul\":6431:6493   */\n      mstore\n        /* \"#utility.yul\":6529:6563   */\n      0x672c20747029203d20536166654d6174682e7472794164642874702c20657874\n        /* \"#utility.yul\":6509:6527   */\n      0x64\n      dup3\n      add\n        /* \"#utility.yul\":6502:6564   */\n      mstore\n      shl(0xd0, 0x726146656529)\n        /* \"#utility.yul\":6580:6599   */\n      0x84\n      dup3\n      add\n        /* \"#utility.yul\":6573:6610   */\n      mstore\n        /* \"#utility.yul\":6627:6646   */\n      0xa4\n      add\n        /* \"degen/DegenMoneyLib.sol\":3701:3788  require(flag, \"Number overflow occurs when (flag, tp) = SafeMath.tryAdd(tp, extraFee)\") */\n      tag_39\n        /* \"#utility.yul\":6178:6652   */\n      jump\n        /* \"degen/DegenMoneyLib.sol\":3701:3788  require(flag, \"Number overflow occurs when (flag, tp) = SafeMath.tryAdd(tp, extraFee)\") */\n    tag_111:\n        /* \"degen/DegenMoneyLib.sol\":3218:3800  {... */\n      pop\n        /* \"degen/DegenMoneyLib.sol\":3196:3800  if (isMonopolyPenalty){... */\n    tag_101:\n      pop\n        /* \"degen/DegenMoneyLib.sol\":3819:3821  tp */\n      swap9\n        /* \"degen/DegenMoneyLib.sol\":1314:3829  function ticketPrice(... */\n      swap8\n      pop\n      pop\n      pop\n      pop\n      pop\n      pop\n      pop\n      pop\n      jump\t// out\n        /* \"degen/DegenMoneyLib.sol\":3837:4244  function ticketIncome2RewardPool(uint256 ticketIncome) public pure returns (uint256 money) {... */\n    tag_32:\n        /* \"degen/DegenMoneyLib.sol\":3913:3926  uint256 money */\n      0x00\n      dup1\n      dup1\n        /* \"degen/DegenMoneyLib.sol\":4003:4036  SafeMath.tryMul(ticketIncome, _b) */\n      tag_115\n        /* \"degen/DegenMoneyLib.sol\":4019:4031  ticketIncome */\n      dup5\n        /* \"degen/DegenMoneyLib.sol\":457:459  50 */\n      0x32\n        /* \"degen/DegenMoneyLib.sol\":4003:4018  SafeMath.tryMul */\n      tag_37\n        /* \"degen/DegenMoneyLib.sol\":4003:4036  SafeMath.tryMul(ticketIncome, _b) */\n      jump\t// in\n    tag_115:\n        /* \"degen/DegenMoneyLib.sol\":3991:4036  (flag, m) = SafeMath.tryMul(ticketIncome, _b) */\n      swap1\n      swap3\n      pop\n      swap1\n      pop\n      dup2\n        /* \"degen/DegenMoneyLib.sol\":4047:4099  require(flag, \"[ticketIncome2RewardPool] overflow.\") */\n      tag_116\n      jumpi\n      mload(0x40)\n      shl(0xe5, 0x461bcd)\n      dup2\n      mstore\n      0x04\n      add\n      tag_39\n      swap1\n      tag_118\n      jump\t// in\n    tag_116:\n        /* \"degen/DegenMoneyLib.sol\":4122:4154  SafeMath.tryDiv(m, _denominator) */\n      tag_119\n        /* \"degen/DegenMoneyLib.sol\":4138:4139  m */\n      dup2\n        /* \"degen/DegenMoneyLib.sol\":1070:1073  100 */\n      0x64\n        /* \"degen/DegenMoneyLib.sol\":4122:4137  SafeMath.tryDiv */\n      tag_42\n        /* \"degen/DegenMoneyLib.sol\":4122:4154  SafeMath.tryDiv(m, _denominator) */\n      jump\t// in\n    tag_119:\n        /* \"degen/DegenMoneyLib.sol\":4110:4154  (flag, m) = SafeMath.tryDiv(m, _denominator) */\n      swap1\n      swap3\n      pop\n      swap1\n      pop\n      dup2\n        /* \"degen/DegenMoneyLib.sol\":4165:4217  require(flag, \"[ticketIncome2RewardPool] overflow.\") */\n      tag_43\n      jumpi\n      mload(0x40)\n      shl(0xe5, 0x461bcd)\n      dup2\n      mstore\n      0x04\n      add\n      tag_39\n      swap1\n      tag_118\n      jump\t// in\n        /* \"@openzeppelin/contracts/utils/math/SafeMath.sol\":1339:1832  function tryMul(uint256 a, uint256 b) internal pure returns (bool, uint256) {... */\n    tag_37:\n        /* \"@openzeppelin/contracts/utils/math/SafeMath.sol\":1400:1404  bool */\n      0x00\n        /* \"@openzeppelin/contracts/utils/math/SafeMath.sol\":1406:1413  uint256 */\n      dup1\n        /* \"@openzeppelin/contracts/utils/math/SafeMath.sol\":1683:1684  a */\n      dup4\n        /* \"@openzeppelin/contracts/utils/math/SafeMath.sol\":1688:1689  0 */\n      0x00\n        /* \"@openzeppelin/contracts/utils/math/SafeMath.sol\":1683:1689  a == 0 */\n      sub\n        /* \"@openzeppelin/contracts/utils/math/SafeMath.sol\":1679:1707  if (a == 0) return (true, 0) */\n      tag_123\n      jumpi\n      pop\n        /* \"@openzeppelin/contracts/utils/math/SafeMath.sol\":1699:1703  true */\n      0x01\n      swap1\n      pop\n        /* \"@openzeppelin/contracts/utils/math/SafeMath.sol\":1705:1706  0 */\n      0x00\n        /* \"@openzeppelin/contracts/utils/math/SafeMath.sol\":1691:1707  return (true, 0) */\n      jump(tag_122)\n        /* \"@openzeppelin/contracts/utils/math/SafeMath.sol\":1679:1707  if (a == 0) return (true, 0) */\n    tag_123:\n        /* \"@openzeppelin/contracts/utils/math/SafeMath.sol\":1733:1738  a * b */\n      dup4\n      dup4\n      mul\n        /* \"@openzeppelin/contracts/utils/math/SafeMath.sol\":1737:1738  b */\n      dup4\n        /* \"@openzeppelin/contracts/utils/math/SafeMath.sol\":1733:1734  a */\n      dup6\n        /* \"@openzeppelin/contracts/utils/math/SafeMath.sol\":1733:1738  a * b */\n      dup3\n        /* \"@openzeppelin/contracts/utils/math/SafeMath.sol\":1733:1734  a */\n      dup2\n        /* \"@openzeppelin/contracts/utils/math/SafeMath.sol\":1756:1761  c / a */\n      tag_125\n      jumpi\n      tag_125\n      tag_126\n      jump\t// in\n    tag_125:\n      div\n        /* \"@openzeppelin/contracts/utils/math/SafeMath.sol\":1756:1766  c / a != b */\n      eq\n        /* \"@openzeppelin/contracts/utils/math/SafeMath.sol\":1752:1785  if (c / a != b) return (false, 0) */\n      tag_127\n      jumpi\n        /* \"@openzeppelin/contracts/utils/math/SafeMath.sol\":1776:1781  false */\n      0x00\n        /* \"@openzeppelin/contracts/utils/math/SafeMath.sol\":1783:1784  0 */\n      dup1\n        /* \"@openzeppelin/contracts/utils/math/SafeMath.sol\":1768:1785  return (false, 0) */\n      swap3\n      pop\n      swap3\n      pop\n      pop\n      jump(tag_122)\n        /* \"@openzeppelin/contracts/utils/math/SafeMath.sol\":1752:1785  if (c / a != b) return (false, 0) */\n    tag_127:\n        /* \"@openzeppelin/contracts/utils/math/SafeMath.sol\":1807:1811  true */\n      0x01\n      swap3\n      pop\n        /* \"@openzeppelin/contracts/utils/math/SafeMath.sol\":1813:1814  c */\n      swap1\n      pop\n        /* \"@openzeppelin/contracts/utils/math/SafeMath.sol\":1339:1832  function tryMul(uint256 a, uint256 b) internal pure returns (bool, uint256) {... */\n    tag_122:\n      swap3\n      pop\n      swap3\n      swap1\n      pop\n      jump\t// out\n        /* \"@openzeppelin/contracts/utils/math/SafeMath.sol\":1981:2171  function tryDiv(uint256 a, uint256 b) internal pure returns (bool, uint256) {... */\n    tag_42:\n        /* \"@openzeppelin/contracts/utils/math/SafeMath.sol\":2042:2046  bool */\n      0x00\n        /* \"@openzeppelin/contracts/utils/math/SafeMath.sol\":2048:2055  uint256 */\n      dup1\n        /* \"@openzeppelin/contracts/utils/math/SafeMath.sol\":2095:2096  b */\n      dup3\n        /* \"@openzeppelin/contracts/utils/math/SafeMath.sol\":2100:2101  0 */\n      0x00\n        /* \"@openzeppelin/contracts/utils/math/SafeMath.sol\":2095:2101  b == 0 */\n      sub\n        /* \"@openzeppelin/contracts/utils/math/SafeMath.sol\":2091:2120  if (b == 0) return (false, 0) */\n      tag_129\n      jumpi\n      pop\n        /* \"@openzeppelin/contracts/utils/math/SafeMath.sol\":2111:2116  false */\n      0x00\n      swap1\n      pop\n      dup1\n        /* \"@openzeppelin/contracts/utils/math/SafeMath.sol\":2103:2120  return (false, 0) */\n      jump(tag_122)\n        /* \"@openzeppelin/contracts/utils/math/SafeMath.sol\":2091:2120  if (b == 0) return (false, 0) */\n    tag_129:\n        /* \"@openzeppelin/contracts/utils/math/SafeMath.sol\":2142:2146  true */\n      0x01\n        /* \"@openzeppelin/contracts/utils/math/SafeMath.sol\":2152:2153  b */\n      dup4\n        /* \"@openzeppelin/contracts/utils/math/SafeMath.sol\":2148:2149  a */\n      dup6\n        /* \"@openzeppelin/contracts/utils/math/SafeMath.sol\":2148:2153  a / b */\n      dup2\n      tag_131\n      jumpi\n      tag_131\n      tag_126\n      jump\t// in\n    tag_131:\n      div\n        /* \"@openzeppelin/contracts/utils/math/SafeMath.sol\":2134:2154  return (true, a / b) */\n      swap2\n      pop\n      swap2\n      pop\n        /* \"@openzeppelin/contracts/utils/math/SafeMath.sol\":1981:2171  function tryDiv(uint256 a, uint256 b) internal pure returns (bool, uint256) {... */\n      swap3\n      pop\n      swap3\n      swap1\n      pop\n      jump\t// out\n        /* \"@openzeppelin/contracts/utils/math/SafeMath.sol\":641:857  function tryAdd(uint256 a, uint256 b) internal pure returns (bool, uint256) {... */\n    tag_86:\n        /* \"@openzeppelin/contracts/utils/math/SafeMath.sol\":702:706  bool */\n      0x00\n      dup1\n        /* \"@openzeppelin/contracts/utils/math/SafeMath.sol\":763:768  a + b */\n      dup4\n      dup4\n      add\n        /* \"@openzeppelin/contracts/utils/math/SafeMath.sol\":786:791  c < a */\n      dup5\n      dup2\n      lt\n        /* \"@openzeppelin/contracts/utils/math/SafeMath.sol\":782:810  if (c < a) return (false, 0) */\n      iszero\n      tag_127\n      jumpi\n        /* \"@openzeppelin/contracts/utils/math/SafeMath.sol\":801:806  false */\n      0x00\n        /* \"@openzeppelin/contracts/utils/math/SafeMath.sol\":808:809  0 */\n      dup1\n        /* \"@openzeppelin/contracts/utils/math/SafeMath.sol\":793:810  return (false, 0) */\n      swap3\n      pop\n      swap3\n      pop\n      pop\n      jump(tag_122)\n        /* \"#utility.yul\":204:384   */\n    tag_14:\n        /* \"#utility.yul\":263:269   */\n      0x00\n        /* \"#utility.yul\":316:318   */\n      0x20\n        /* \"#utility.yul\":304:313   */\n      dup3\n        /* \"#utility.yul\":295:302   */\n      dup5\n        /* \"#utility.yul\":291:314   */\n      sub\n        /* \"#utility.yul\":287:319   */\n      slt\n        /* \"#utility.yul\":284:336   */\n      iszero\n      tag_138\n      jumpi\n        /* \"#utility.yul\":332:333   */\n      0x00\n        /* \"#utility.yul\":329:330   */\n      dup1\n        /* \"#utility.yul\":322:334   */\n      revert\n        /* \"#utility.yul\":284:336   */\n    tag_138:\n      pop\n        /* \"#utility.yul\":355:378   */\n      calldataload\n      swap2\n        /* \"#utility.yul\":204:384   */\n      swap1\n      pop\n      jump\t// out\n        /* \"#utility.yul\":389:637   */\n    tag_19:\n        /* \"#utility.yul\":457:463   */\n      0x00\n        /* \"#utility.yul\":465:471   */\n      dup1\n        /* \"#utility.yul\":518:520   */\n      0x40\n        /* \"#utility.yul\":506:515   */\n      dup4\n        /* \"#utility.yul\":497:504   */\n      dup6\n        /* \"#utility.yul\":493:516   */\n      sub\n        /* \"#utility.yul\":489:521   */\n      slt\n        /* \"#utility.yul\":486:538   */\n      iszero\n      tag_140\n      jumpi\n        /* \"#utility.yul\":534:535   */\n      0x00\n        /* \"#utility.yul\":531:532   */\n      dup1\n        /* \"#utility.yul\":524:536   */\n      revert\n        /* \"#utility.yul\":486:538   */\n    tag_140:\n      pop\n      pop\n        /* \"#utility.yul\":557:580   */\n      dup1\n      calldataload\n      swap3\n        /* \"#utility.yul\":627:629   */\n      0x20\n        /* \"#utility.yul\":612:630   */\n      swap1\n      swap2\n      add\n        /* \"#utility.yul\":599:631   */\n      calldataload\n      swap2\n      pop\n        /* \"#utility.yul\":389:637   */\n      jump\t// out\n        /* \"#utility.yul\":642:1163   */\n    tag_27:\n        /* \"#utility.yul\":744:750   */\n      0x00\n        /* \"#utility.yul\":752:758   */\n      dup1\n        /* \"#utility.yul\":760:766   */\n      0x00\n        /* \"#utility.yul\":768:774   */\n      dup1\n        /* \"#utility.yul\":776:782   */\n      0x00\n        /* \"#utility.yul\":784:790   */\n      dup1\n        /* \"#utility.yul\":837:840   */\n      0xc0\n        /* \"#utility.yul\":825:834   */\n      dup8\n        /* \"#utility.yul\":816:823   */\n      dup10\n        /* \"#utility.yul\":812:835   */\n      sub\n        /* \"#utility.yul\":808:841   */\n      slt\n        /* \"#utility.yul\":805:858   */\n      iszero\n      tag_142\n      jumpi\n        /* \"#utility.yul\":854:855   */\n      0x00\n        /* \"#utility.yul\":851:852   */\n      dup1\n        /* \"#utility.yul\":844:856   */\n      revert\n        /* \"#utility.yul\":805:858   */\n    tag_142:\n      pop\n      pop\n        /* \"#utility.yul\":877:900   */\n      dup5\n      calldataload\n      swap7\n        /* \"#utility.yul\":947:949   */\n      0x20\n        /* \"#utility.yul\":932:950   */\n      dup7\n      add\n        /* \"#utility.yul\":919:951   */\n      calldataload\n      swap7\n      pop\n        /* \"#utility.yul\":998:1000   */\n      0x40\n        /* \"#utility.yul\":983:1001   */\n      dup7\n      add\n        /* \"#utility.yul\":970:1002   */\n      calldataload\n      swap6\n        /* \"#utility.yul\":1049:1051   */\n      0x60\n        /* \"#utility.yul\":1034:1052   */\n      dup2\n      add\n        /* \"#utility.yul\":1021:1053   */\n      calldataload\n      swap6\n      pop\n        /* \"#utility.yul\":1100:1103   */\n      0x80\n        /* \"#utility.yul\":1085:1104   */\n      dup2\n      add\n        /* \"#utility.yul\":1072:1105   */\n      calldataload\n      swap5\n      pop\n        /* \"#utility.yul\":1152:1155   */\n      0xa0\n        /* \"#utility.yul\":1137:1156   */\n      add\n        /* \"#utility.yul\":1124:1157   */\n      calldataload\n      swap3\n      pop\n        /* \"#utility.yul\":642:1163   */\n      swap1\n      pop\n      jump\t// out\n        /* \"#utility.yul\":1168:1568   */\n    tag_40:\n        /* \"#utility.yul\":1370:1372   */\n      0x20\n        /* \"#utility.yul\":1352:1373   */\n      dup1\n      dup3\n      mstore\n        /* \"#utility.yul\":1409:1411   */\n      0x24\n        /* \"#utility.yul\":1389:1407   */\n      swap1\n      dup3\n      add\n        /* \"#utility.yul\":1382:1412   */\n      mstore\n        /* \"#utility.yul\":1448:1482   */\n      0x5b7469636b6574496e636f6d653247726f75704c65616465725d206f76657266\n        /* \"#utility.yul\":1443:1445   */\n      0x40\n        /* \"#utility.yul\":1428:1446   */\n      dup3\n      add\n        /* \"#utility.yul\":1421:1483   */\n      mstore\n      shl(0xe1, 0x3637bb97)\n        /* \"#utility.yul\":1514:1516   */\n      0x60\n        /* \"#utility.yul\":1499:1517   */\n      dup3\n      add\n        /* \"#utility.yul\":1492:1526   */\n      mstore\n        /* \"#utility.yul\":1558:1561   */\n      0x80\n        /* \"#utility.yul\":1543:1562   */\n      add\n      swap1\n        /* \"#utility.yul\":1168:1568   */\n      jump\t// out\n        /* \"#utility.yul\":1573:1700   */\n    tag_134:\n        /* \"#utility.yul\":1634:1644   */\n      0x4e487b71\n        /* \"#utility.yul\":1629:1632   */\n      0xe0\n        /* \"#utility.yul\":1625:1645   */\n      shl\n        /* \"#utility.yul\":1622:1623   */\n      0x00\n        /* \"#utility.yul\":1615:1646   */\n      mstore\n        /* \"#utility.yul\":1665:1669   */\n      0x11\n        /* \"#utility.yul\":1662:1663   */\n      0x04\n        /* \"#utility.yul\":1655:1670   */\n      mstore\n        /* \"#utility.yul\":1689:1693   */\n      0x24\n        /* \"#utility.yul\":1686:1687   */\n      0x00\n        /* \"#utility.yul\":1679:1694   */\n      revert\n        /* \"#utility.yul\":1705:1833   */\n    tag_47:\n        /* \"#utility.yul\":1772:1781   */\n      dup2\n      dup2\n      sub\n        /* \"#utility.yul\":1793:1804   */\n      dup2\n      dup2\n      gt\n        /* \"#utility.yul\":1790:1827   */\n      iszero\n      tag_45\n      jumpi\n        /* \"#utility.yul\":1807:1825   */\n      tag_45\n      tag_134\n      jump\t// in\n        /* \"#utility.yul\":1838:2238   */\n    tag_52:\n        /* \"#utility.yul\":2040:2042   */\n      0x20\n        /* \"#utility.yul\":2022:2043   */\n      dup1\n      dup3\n      mstore\n        /* \"#utility.yul\":2079:2081   */\n      0x24\n        /* \"#utility.yul\":2059:2077   */\n      swap1\n      dup3\n      add\n        /* \"#utility.yul\":2052:2082   */\n      mstore\n        /* \"#utility.yul\":2118:2152   */\n      0x5b7469636b6574496e636f6d653247726f75704d656d6265725d206f76657266\n        /* \"#utility.yul\":2113:2115   */\n      0x40\n        /* \"#utility.yul\":2098:2116   */\n      dup3\n      add\n        /* \"#utility.yul\":2091:2153   */\n      mstore\n      shl(0xe1, 0x3637bb97)\n        /* \"#utility.yul\":2184:2186   */\n      0x60\n        /* \"#utility.yul\":2169:2187   */\n      dup3\n      add\n        /* \"#utility.yul\":2162:2196   */\n      mstore\n        /* \"#utility.yul\":2228:2231   */\n      0x80\n        /* \"#utility.yul\":2213:2232   */\n      add\n      swap1\n        /* \"#utility.yul\":1838:2238   */\n      jump\t// out\n        /* \"#utility.yul\":3079:3214   */\n    tag_72:\n        /* \"#utility.yul\":3118:3121   */\n      0x00\n        /* \"#utility.yul\":3139:3156   */\n      0x01\n      dup3\n      add\n        /* \"#utility.yul\":3136:3179   */\n      tag_153\n      jumpi\n        /* \"#utility.yul\":3159:3177   */\n      tag_153\n      tag_134\n      jump\t// in\n    tag_153:\n      pop\n        /* \"#utility.yul\":3206:3207   */\n      0x01\n        /* \"#utility.yul\":3195:3208   */\n      add\n      swap1\n        /* \"#utility.yul\":3079:3214   */\n      jump\t// out\n        /* \"#utility.yul\":6657:7056   */\n    tag_118:\n        /* \"#utility.yul\":6859:6861   */\n      0x20\n        /* \"#utility.yul\":6841:6862   */\n      dup1\n      dup3\n      mstore\n        /* \"#utility.yul\":6898:6900   */\n      0x23\n        /* \"#utility.yul\":6878:6896   */\n      swap1\n      dup3\n      add\n        /* \"#utility.yul\":6871:6901   */\n      mstore\n        /* \"#utility.yul\":6937:6971   */\n      0x5b7469636b6574496e636f6d6532526577617264506f6f6c5d206f766572666c\n        /* \"#utility.yul\":6932:6934   */\n      0x40\n        /* \"#utility.yul\":6917:6935   */\n      dup3\n      add\n        /* \"#utility.yul\":6910:6972   */\n      mstore\n      shl(0xe9, 0x37bb97)\n        /* \"#utility.yul\":7003:7005   */\n      0x60\n        /* \"#utility.yul\":6988:7006   */\n      dup3\n      add\n        /* \"#utility.yul\":6981:7014   */\n      mstore\n        /* \"#utility.yul\":7046:7049   */\n      0x80\n        /* \"#utility.yul\":7031:7050   */\n      add\n      swap1\n        /* \"#utility.yul\":6657:7056   */\n      jump\t// out\n        /* \"#utility.yul\":7061:7188   */\n    tag_126:\n        /* \"#utility.yul\":7122:7132   */\n      0x4e487b71\n        /* \"#utility.yul\":7117:7120   */\n      0xe0\n        /* \"#utility.yul\":7113:7133   */\n      shl\n        /* \"#utility.yul\":7110:7111   */\n      0x00\n        /* \"#utility.yul\":7103:7134   */\n      mstore\n        /* \"#utility.yul\":7153:7157   */\n      0x12\n        /* \"#utility.yul\":7150:7151   */\n      0x04\n        /* \"#utility.yul\":7143:7158   */\n      mstore\n        /* \"#utility.yul\":7177:7181   */\n      0x24\n        /* \"#utility.yul\":7174:7175   */\n      0x00\n        /* \"#utility.yul\":7167:7182   */\n      revert\n    stop\n    data_3ea7e64d02bfa2ce3fc0ccd06ec6010a4af3c1c13862f1013ea695f2535f0f7a 4e756d626572206f766572666c6f77206f6363757273207768656e2063616c63\n\n    auxdata: 0xa26469706673582212206f4e58dbbb0146e3b4bcf7935f5df6d0c2c7c802d0838512b63e111ec98e657364736f6c63430008120033\n}\n",
				"bytecode": {
					"linkReferences": {},
					"object": "610a1f61003a600b82828239805160001a60731461002d57634e487b7160e01b600052600060045260246000fd5b30600052607381538281f3fe730000000000000000000000000000000000000000301460806040526004361061006c5760003560e01c806326d0a334146100715780632e26fb4a1461008d57806384105419146100a057806391096a3c146100b35780639b49380b146100c1578063e6ca2a8d146100d4575b600080fd5b670de0b6b3a76400005b60405190815260200160405180910390f35b61007b61009b366004610828565b6100e7565b61007b6100ae366004610841565b610155565b678ac7230489e8000061007b565b61007b6100cf366004610863565b610205565b61007b6100e2366004610828565b610731565b600080806100f684600361078f565b9092509050816101215760405162461bcd60e51b8152600401610118906108a6565b60405180910390fd5b61012c8160646107da565b90925090508161014e5760405162461bcd60e51b8152600401610118906108a6565b9392505050565b600080603261016660036064610900565b6101709190610900565b905060008061017f868461078f565b9092509050816101a15760405162461bcd60e51b815260040161011890610913565b6101ac8160646107da565b9092509050816101ce5760405162461bcd60e51b815260040161011890610913565b6101d881866107da565b9092509050816101fa5760405162461bcd60e51b815260040161011890610913565b925050505b92915050565b600060018060005b600281101561029a57610220828b61078f565b909350915082610288576040805162461bcd60e51b81526020600482015260248101919091526000805160206109ca83398151915260448201527f756c617465207469636b657420707269636520696e20692a2a5f616c7068612e6064820152608401610118565b8061029281610957565b91505061020d565b506102a681600a61078f565b90925090508161031b5760405162461bcd60e51b815260206004820152604660248201526000805160206109ca83398151915260448201527f756c617465207469636b657420707269636520696e205f626574612a692a2a5f60648201526530b63834309760d11b608482015260a401610118565b6103268160646107da565b9092509050816103a85760405162461bcd60e51b815260206004820152605360248201526000805160206109ca83398151915260448201527f756c617465207469636b657420707269636520696e205f626574612f5f64656e60648201527237b6b4b730ba37b9153495152fb0b63834309760691b608482015260a401610118565b6103ba81670de0b6b3a764000061078f565b9092509050816104465760405162461bcd60e51b815260206004820152605c60248201526000805160206109ca83398151915260448201527f756c617465207469636b657420707269636520696e20285f626574612f5f646560648201527f6e6f6d696e61746f722a692a2a5f616c706861292a31302a2a31382e00000000608482015260a401610118565b61045781662386f26fc1000061080d565b9092509050816104e35760405162461bcd60e51b815260206004820152605b60248201526000805160206109ca83398151915260448201527f756c617465207469636b657420707269636520696e205f626574612f5f64656e60648201527f6f6d696e61746f722a692a2a5f616c706861202b2067616d6d612e0000000000608482015260a401610118565b60008088121580156104f6575060008712155b1561051d57600a6105078688610900565b111561051557506001610548565b506000610548565b6000881215801561052e5750600087125b1561054457600a86111561051557506001610548565b5060005b801561072457600061055b8a600a61078f565b9094509050836105ef5760405162461bcd60e51b815260206004820152605360248201527f4e756d626572206f766572666c6f77206f6363757273207768656e2028666c6160448201527f672c20657874726146656529203d20536166654d6174682e7472794d756c28746064820152726f74616c526577617264506f6f6c2c205f702960681b608482015260a401610118565b6105fa8160646107da565b9094509050836106915760405162461bcd60e51b815260206004820152605660248201527f4e756d626572206f766572666c6f77206f6363757273207768656e2028666c6160448201527f672c20657874726146656529203d20536166654d6174682e7472794469762865606482015275787472614665652c205f64656e6f6d696e61746f722960501b608482015260a401610118565b61069b838261080d565b9094509250836107225760405162461bcd60e51b815260206004820152604660248201527f4e756d626572206f766572666c6f77206f6363757273207768656e2028666c6160448201527f672c20747029203d20536166654d6174682e7472794164642874702c2065787460648201526572614665652960d01b608482015260a401610118565b505b5098975050505050505050565b6000808061074084603261078f565b9092509050816107625760405162461bcd60e51b815260040161011890610970565b61076d8160646107da565b90925090508161014e5760405162461bcd60e51b815260040161011890610970565b600080836000036107a657506001905060006107d3565b838302838582816107b9576107b96109b3565b04146107cc5760008092509250506107d3565b6001925090505b9250929050565b600080826000036107f0575060009050806107d3565b6001838581610801576108016109b3565b04915091509250929050565b600080838301848110156107cc5760008092509250506107d3565b60006020828403121561083a57600080fd5b5035919050565b6000806040838503121561085457600080fd5b50508035926020909101359150565b60008060008060008060c0878903121561087c57600080fd5b505084359660208601359650604086013595606081013595506080810135945060a0013592509050565b60208082526024908201527f5b7469636b6574496e636f6d653247726f75704c65616465725d206f766572666040820152633637bb9760e11b606082015260800190565b634e487b7160e01b600052601160045260246000fd5b818103818111156101ff576101ff6108ea565b60208082526024908201527f5b7469636b6574496e636f6d653247726f75704d656d6265725d206f766572666040820152633637bb9760e11b606082015260800190565b600060018201610969576109696108ea565b5060010190565b60208082526023908201527f5b7469636b6574496e636f6d6532526577617264506f6f6c5d206f766572666c60408201526237bb9760e91b606082015260800190565b634e487b7160e01b600052601260045260246000fdfe4e756d626572206f766572666c6f77206f6363757273207768656e2063616c63a26469706673582212206f4e58dbbb0146e3b4bcf7935f5df6d0c2c7c802d0838512b63e111ec98e657364736f6c63430008120033",
					"opcodes": "PUSH2 0xA1F PUSH2 0x3A PUSH1 0xB DUP3 DUP3 DUP3 CODECOPY DUP1 MLOAD PUSH1 0x0 BYTE PUSH1 0x73 EQ PUSH2 0x2D JUMPI PUSH4 0x4E487B71 PUSH1 0xE0 SHL PUSH1 0x0 MSTORE PUSH1 0x0 PUSH1 0x4 MSTORE PUSH1 0x24 PUSH1 0x0 REVERT JUMPDEST ADDRESS PUSH1 0x0 MSTORE PUSH1 0x73 DUP2 MSTORE8 DUP3 DUP2 RETURN INVALID PUSH20 0x0 ADDRESS EQ PUSH1 0x80 PUSH1 0x40 MSTORE PUSH1 0x4 CALLDATASIZE LT PUSH2 0x6C JUMPI PUSH1 0x0 CALLDATALOAD PUSH1 0xE0 SHR DUP1 PUSH4 0x26D0A334 EQ PUSH2 0x71 JUMPI DUP1 PUSH4 0x2E26FB4A EQ PUSH2 0x8D JUMPI DUP1 PUSH4 0x84105419 EQ PUSH2 0xA0 JUMPI DUP1 PUSH4 0x91096A3C EQ PUSH2 0xB3 JUMPI DUP1 PUSH4 0x9B49380B EQ PUSH2 0xC1 JUMPI DUP1 PUSH4 0xE6CA2A8D EQ PUSH2 0xD4 JUMPI JUMPDEST PUSH1 0x0 DUP1 REVERT JUMPDEST PUSH8 0xDE0B6B3A7640000 JUMPDEST PUSH1 0x40 MLOAD SWAP1 DUP2 MSTORE PUSH1 0x20 ADD PUSH1 0x40 MLOAD DUP1 SWAP2 SUB SWAP1 RETURN JUMPDEST PUSH2 0x7B PUSH2 0x9B CALLDATASIZE PUSH1 0x4 PUSH2 0x828 JUMP JUMPDEST PUSH2 0xE7 JUMP JUMPDEST PUSH2 0x7B PUSH2 0xAE CALLDATASIZE PUSH1 0x4 PUSH2 0x841 JUMP JUMPDEST PUSH2 0x155 JUMP JUMPDEST PUSH8 0x8AC7230489E80000 PUSH2 0x7B JUMP JUMPDEST PUSH2 0x7B PUSH2 0xCF CALLDATASIZE PUSH1 0x4 PUSH2 0x863 JUMP JUMPDEST PUSH2 0x205 JUMP JUMPDEST PUSH2 0x7B PUSH2 0xE2 CALLDATASIZE PUSH1 0x4 PUSH2 0x828 JUMP JUMPDEST PUSH2 0x731 JUMP JUMPDEST PUSH1 0x0 DUP1 DUP1 PUSH2 0xF6 DUP5 PUSH1 0x3 PUSH2 0x78F JUMP JUMPDEST SWAP1 SWAP3 POP SWAP1 POP DUP2 PUSH2 0x121 JUMPI PUSH1 0x40 MLOAD PUSH3 0x461BCD PUSH1 0xE5 SHL DUP2 MSTORE PUSH1 0x4 ADD PUSH2 0x118 SWAP1 PUSH2 0x8A6 JUMP JUMPDEST PUSH1 0x40 MLOAD DUP1 SWAP2 SUB SWAP1 REVERT JUMPDEST PUSH2 0x12C DUP2 PUSH1 0x64 PUSH2 0x7DA JUMP JUMPDEST SWAP1 SWAP3 POP SWAP1 POP DUP2 PUSH2 0x14E JUMPI PUSH1 0x40 MLOAD PUSH3 0x461BCD PUSH1 0xE5 SHL DUP2 MSTORE PUSH1 0x4 ADD PUSH2 0x118 SWAP1 PUSH2 0x8A6 JUMP JUMPDEST SWAP4 SWAP3 POP POP POP JUMP JUMPDEST PUSH1 0x0 DUP1 PUSH1 0x32 PUSH2 0x166 PUSH1 0x3 PUSH1 0x64 PUSH2 0x900 JUMP JUMPDEST PUSH2 0x170 SWAP2 SWAP1 PUSH2 0x900 JUMP JUMPDEST SWAP1 POP PUSH1 0x0 DUP1 PUSH2 0x17F DUP7 DUP5 PUSH2 0x78F JUMP JUMPDEST SWAP1 SWAP3 POP SWAP1 POP DUP2 PUSH2 0x1A1 JUMPI PUSH1 0x40 MLOAD PUSH3 0x461BCD PUSH1 0xE5 SHL DUP2 MSTORE PUSH1 0x4 ADD PUSH2 0x118 SWAP1 PUSH2 0x913 JUMP JUMPDEST PUSH2 0x1AC DUP2 PUSH1 0x64 PUSH2 0x7DA JUMP JUMPDEST SWAP1 SWAP3 POP SWAP1 POP DUP2 PUSH2 0x1CE JUMPI PUSH1 0x40 MLOAD PUSH3 0x461BCD PUSH1 0xE5 SHL DUP2 MSTORE PUSH1 0x4 ADD PUSH2 0x118 SWAP1 PUSH2 0x913 JUMP JUMPDEST PUSH2 0x1D8 DUP2 DUP7 PUSH2 0x7DA JUMP JUMPDEST SWAP1 SWAP3 POP SWAP1 POP DUP2 PUSH2 0x1FA JUMPI PUSH1 0x40 MLOAD PUSH3 0x461BCD PUSH1 0xE5 SHL DUP2 MSTORE PUSH1 0x4 ADD PUSH2 0x118 SWAP1 PUSH2 0x913 JUMP JUMPDEST SWAP3 POP POP POP JUMPDEST SWAP3 SWAP2 POP POP JUMP JUMPDEST PUSH1 0x0 PUSH1 0x1 DUP1 PUSH1 0x0 JUMPDEST PUSH1 0x2 DUP2 LT ISZERO PUSH2 0x29A JUMPI PUSH2 0x220 DUP3 DUP12 PUSH2 0x78F JUMP JUMPDEST SWAP1 SWAP4 POP SWAP2 POP DUP3 PUSH2 0x288 JUMPI PUSH1 0x40 DUP1 MLOAD PUSH3 0x461BCD PUSH1 0xE5 SHL DUP2 MSTORE PUSH1 0x20 PUSH1 0x4 DUP3 ADD MSTORE PUSH1 0x24 DUP2 ADD SWAP2 SWAP1 SWAP2 MSTORE PUSH1 0x0 DUP1 MLOAD PUSH1 0x20 PUSH2 0x9CA DUP4 CODECOPY DUP2 MLOAD SWAP2 MSTORE PUSH1 0x44 DUP3 ADD MSTORE PUSH32 0x756C617465207469636B657420707269636520696E20692A2A5F616C7068612E PUSH1 0x64 DUP3 ADD MSTORE PUSH1 0x84 ADD PUSH2 0x118 JUMP JUMPDEST DUP1 PUSH2 0x292 DUP2 PUSH2 0x957 JUMP JUMPDEST SWAP2 POP POP PUSH2 0x20D JUMP JUMPDEST POP PUSH2 0x2A6 DUP2 PUSH1 0xA PUSH2 0x78F JUMP JUMPDEST SWAP1 SWAP3 POP SWAP1 POP DUP2 PUSH2 0x31B JUMPI PUSH1 0x40 MLOAD PUSH3 0x461BCD PUSH1 0xE5 SHL DUP2 MSTORE PUSH1 0x20 PUSH1 0x4 DUP3 ADD MSTORE PUSH1 0x46 PUSH1 0x24 DUP3 ADD MSTORE PUSH1 0x0 DUP1 MLOAD PUSH1 0x20 PUSH2 0x9CA DUP4 CODECOPY DUP2 MLOAD SWAP2 MSTORE PUSH1 0x44 DUP3 ADD MSTORE PUSH32 0x756C617465207469636B657420707269636520696E205F626574612A692A2A5F PUSH1 0x64 DUP3 ADD MSTORE PUSH6 0x30B638343097 PUSH1 0xD1 SHL PUSH1 0x84 DUP3 ADD MSTORE PUSH1 0xA4 ADD PUSH2 0x118 JUMP JUMPDEST PUSH2 0x326 DUP2 PUSH1 0x64 PUSH2 0x7DA JUMP JUMPDEST SWAP1 SWAP3 POP SWAP1 POP DUP2 PUSH2 0x3A8 JUMPI PUSH1 0x40 MLOAD PUSH3 0x461BCD PUSH1 0xE5 SHL DUP2 MSTORE PUSH1 0x20 PUSH1 0x4 DUP3 ADD MSTORE PUSH1 0x53 PUSH1 0x24 DUP3 ADD MSTORE PUSH1 0x0 DUP1 MLOAD PUSH1 0x20 PUSH2 0x9CA DUP4 CODECOPY DUP2 MLOAD SWAP2 MSTORE PUSH1 0x44 DUP3 ADD MSTORE PUSH32 0x756C617465207469636B657420707269636520696E205F626574612F5F64656E PUSH1 0x64 DUP3 ADD MSTORE PUSH19 0x37B6B4B730BA37B9153495152FB0B638343097 PUSH1 0x69 SHL PUSH1 0x84 DUP3 ADD MSTORE PUSH1 0xA4 ADD PUSH2 0x118 JUMP JUMPDEST PUSH2 0x3BA DUP2 PUSH8 0xDE0B6B3A7640000 PUSH2 0x78F JUMP JUMPDEST SWAP1 SWAP3 POP SWAP1 POP DUP2 PUSH2 0x446 JUMPI PUSH1 0x40 MLOAD PUSH3 0x461BCD PUSH1 0xE5 SHL DUP2 MSTORE PUSH1 0x20 PUSH1 0x4 DUP3 ADD MSTORE PUSH1 0x5C PUSH1 0x24 DUP3 ADD MSTORE PUSH1 0x0 DUP1 MLOAD PUSH1 0x20 PUSH2 0x9CA DUP4 CODECOPY DUP2 MLOAD SWAP2 MSTORE PUSH1 0x44 DUP3 ADD MSTORE PUSH32 0x756C617465207469636B657420707269636520696E20285F626574612F5F6465 PUSH1 0x64 DUP3 ADD MSTORE PUSH32 0x6E6F6D696E61746F722A692A2A5F616C706861292A31302A2A31382E00000000 PUSH1 0x84 DUP3 ADD MSTORE PUSH1 0xA4 ADD PUSH2 0x118 JUMP JUMPDEST PUSH2 0x457 DUP2 PUSH7 0x2386F26FC10000 PUSH2 0x80D JUMP JUMPDEST SWAP1 SWAP3 POP SWAP1 POP DUP2 PUSH2 0x4E3 JUMPI PUSH1 0x40 MLOAD PUSH3 0x461BCD PUSH1 0xE5 SHL DUP2 MSTORE PUSH1 0x20 PUSH1 0x4 DUP3 ADD MSTORE PUSH1 0x5B PUSH1 0x24 DUP3 ADD MSTORE PUSH1 0x0 DUP1 MLOAD PUSH1 0x20 PUSH2 0x9CA DUP4 CODECOPY DUP2 MLOAD SWAP2 MSTORE PUSH1 0x44 DUP3 ADD MSTORE PUSH32 0x756C617465207469636B657420707269636520696E205F626574612F5F64656E PUSH1 0x64 DUP3 ADD MSTORE PUSH32 0x6F6D696E61746F722A692A2A5F616C706861202B2067616D6D612E0000000000 PUSH1 0x84 DUP3 ADD MSTORE PUSH1 0xA4 ADD PUSH2 0x118 JUMP JUMPDEST PUSH1 0x0 DUP1 DUP9 SLT ISZERO DUP1 ISZERO PUSH2 0x4F6 JUMPI POP PUSH1 0x0 DUP8 SLT ISZERO JUMPDEST ISZERO PUSH2 0x51D JUMPI PUSH1 0xA PUSH2 0x507 DUP7 DUP9 PUSH2 0x900 JUMP JUMPDEST GT ISZERO PUSH2 0x515 JUMPI POP PUSH1 0x1 PUSH2 0x548 JUMP JUMPDEST POP PUSH1 0x0 PUSH2 0x548 JUMP JUMPDEST PUSH1 0x0 DUP9 SLT ISZERO DUP1 ISZERO PUSH2 0x52E JUMPI POP PUSH1 0x0 DUP8 SLT JUMPDEST ISZERO PUSH2 0x544 JUMPI PUSH1 0xA DUP7 GT ISZERO PUSH2 0x515 JUMPI POP PUSH1 0x1 PUSH2 0x548 JUMP JUMPDEST POP PUSH1 0x0 JUMPDEST DUP1 ISZERO PUSH2 0x724 JUMPI PUSH1 0x0 PUSH2 0x55B DUP11 PUSH1 0xA PUSH2 0x78F JUMP JUMPDEST SWAP1 SWAP5 POP SWAP1 POP DUP4 PUSH2 0x5EF JUMPI PUSH1 0x40 MLOAD PUSH3 0x461BCD PUSH1 0xE5 SHL DUP2 MSTORE PUSH1 0x20 PUSH1 0x4 DUP3 ADD MSTORE PUSH1 0x53 PUSH1 0x24 DUP3 ADD MSTORE PUSH32 0x4E756D626572206F766572666C6F77206F6363757273207768656E2028666C61 PUSH1 0x44 DUP3 ADD MSTORE PUSH32 0x672C20657874726146656529203D20536166654D6174682E7472794D756C2874 PUSH1 0x64 DUP3 ADD MSTORE PUSH19 0x6F74616C526577617264506F6F6C2C205F7029 PUSH1 0x68 SHL PUSH1 0x84 DUP3 ADD MSTORE PUSH1 0xA4 ADD PUSH2 0x118 JUMP JUMPDEST PUSH2 0x5FA DUP2 PUSH1 0x64 PUSH2 0x7DA JUMP JUMPDEST SWAP1 SWAP5 POP SWAP1 POP DUP4 PUSH2 0x691 JUMPI PUSH1 0x40 MLOAD PUSH3 0x461BCD PUSH1 0xE5 SHL DUP2 MSTORE PUSH1 0x20 PUSH1 0x4 DUP3 ADD MSTORE PUSH1 0x56 PUSH1 0x24 DUP3 ADD MSTORE PUSH32 0x4E756D626572206F766572666C6F77206F6363757273207768656E2028666C61 PUSH1 0x44 DUP3 ADD MSTORE PUSH32 0x672C20657874726146656529203D20536166654D6174682E7472794469762865 PUSH1 0x64 DUP3 ADD MSTORE PUSH22 0x787472614665652C205F64656E6F6D696E61746F7229 PUSH1 0x50 SHL PUSH1 0x84 DUP3 ADD MSTORE PUSH1 0xA4 ADD PUSH2 0x118 JUMP JUMPDEST PUSH2 0x69B DUP4 DUP3 PUSH2 0x80D JUMP JUMPDEST SWAP1 SWAP5 POP SWAP3 POP DUP4 PUSH2 0x722 JUMPI PUSH1 0x40 MLOAD PUSH3 0x461BCD PUSH1 0xE5 SHL DUP2 MSTORE PUSH1 0x20 PUSH1 0x4 DUP3 ADD MSTORE PUSH1 0x46 PUSH1 0x24 DUP3 ADD MSTORE PUSH32 0x4E756D626572206F766572666C6F77206F6363757273207768656E2028666C61 PUSH1 0x44 DUP3 ADD MSTORE PUSH32 0x672C20747029203D20536166654D6174682E7472794164642874702C20657874 PUSH1 0x64 DUP3 ADD MSTORE PUSH6 0x726146656529 PUSH1 0xD0 SHL PUSH1 0x84 DUP3 ADD MSTORE PUSH1 0xA4 ADD PUSH2 0x118 JUMP JUMPDEST POP JUMPDEST POP SWAP9 SWAP8 POP POP POP POP POP POP POP POP JUMP JUMPDEST PUSH1 0x0 DUP1 DUP1 PUSH2 0x740 DUP5 PUSH1 0x32 PUSH2 0x78F JUMP JUMPDEST SWAP1 SWAP3 POP SWAP1 POP DUP2 PUSH2 0x762 JUMPI PUSH1 0x40 MLOAD PUSH3 0x461BCD PUSH1 0xE5 SHL DUP2 MSTORE PUSH1 0x4 ADD PUSH2 0x118 SWAP1 PUSH2 0x970 JUMP JUMPDEST PUSH2 0x76D DUP2 PUSH1 0x64 PUSH2 0x7DA JUMP JUMPDEST SWAP1 SWAP3 POP SWAP1 POP DUP2 PUSH2 0x14E JUMPI PUSH1 0x40 MLOAD PUSH3 0x461BCD PUSH1 0xE5 SHL DUP2 MSTORE PUSH1 0x4 ADD PUSH2 0x118 SWAP1 PUSH2 0x970 JUMP JUMPDEST PUSH1 0x0 DUP1 DUP4 PUSH1 0x0 SUB PUSH2 0x7A6 JUMPI POP PUSH1 0x1 SWAP1 POP PUSH1 0x0 PUSH2 0x7D3 JUMP JUMPDEST DUP4 DUP4 MUL DUP4 DUP6 DUP3 DUP2 PUSH2 0x7B9 JUMPI PUSH2 0x7B9 PUSH2 0x9B3 JUMP JUMPDEST DIV EQ PUSH2 0x7CC JUMPI PUSH1 0x0 DUP1 SWAP3 POP SWAP3 POP POP PUSH2 0x7D3 JUMP JUMPDEST PUSH1 0x1 SWAP3 POP SWAP1 POP JUMPDEST SWAP3 POP SWAP3 SWAP1 POP JUMP JUMPDEST PUSH1 0x0 DUP1 DUP3 PUSH1 0x0 SUB PUSH2 0x7F0 JUMPI POP PUSH1 0x0 SWAP1 POP DUP1 PUSH2 0x7D3 JUMP JUMPDEST PUSH1 0x1 DUP4 DUP6 DUP2 PUSH2 0x801 JUMPI PUSH2 0x801 PUSH2 0x9B3 JUMP JUMPDEST DIV SWAP2 POP SWAP2 POP SWAP3 POP SWAP3 SWAP1 POP JUMP JUMPDEST PUSH1 0x0 DUP1 DUP4 DUP4 ADD DUP5 DUP2 LT ISZERO PUSH2 0x7CC JUMPI PUSH1 0x0 DUP1 SWAP3 POP SWAP3 POP POP PUSH2 0x7D3 JUMP JUMPDEST PUSH1 0x0 PUSH1 0x20 DUP3 DUP5 SUB SLT ISZERO PUSH2 0x83A JUMPI PUSH1 0x0 DUP1 REVERT JUMPDEST POP CALLDATALOAD SWAP2 SWAP1 POP JUMP JUMPDEST PUSH1 0x0 DUP1 PUSH1 0x40 DUP4 DUP6 SUB SLT ISZERO PUSH2 0x854 JUMPI PUSH1 0x0 DUP1 REVERT JUMPDEST POP POP DUP1 CALLDATALOAD SWAP3 PUSH1 0x20 SWAP1 SWAP2 ADD CALLDATALOAD SWAP2 POP JUMP JUMPDEST PUSH1 0x0 DUP1 PUSH1 0x0 DUP1 PUSH1 0x0 DUP1 PUSH1 0xC0 DUP8 DUP10 SUB SLT ISZERO PUSH2 0x87C JUMPI PUSH1 0x0 DUP1 REVERT JUMPDEST POP POP DUP5 CALLDATALOAD SWAP7 PUSH1 0x20 DUP7 ADD CALLDATALOAD SWAP7 POP PUSH1 0x40 DUP7 ADD CALLDATALOAD SWAP6 PUSH1 0x60 DUP2 ADD CALLDATALOAD SWAP6 POP PUSH1 0x80 DUP2 ADD CALLDATALOAD SWAP5 POP PUSH1 0xA0 ADD CALLDATALOAD SWAP3 POP SWAP1 POP JUMP JUMPDEST PUSH1 0x20 DUP1 DUP3 MSTORE PUSH1 0x24 SWAP1 DUP3 ADD MSTORE PUSH32 0x5B7469636B6574496E636F6D653247726F75704C65616465725D206F76657266 PUSH1 0x40 DUP3 ADD MSTORE PUSH4 0x3637BB97 PUSH1 0xE1 SHL PUSH1 0x60 DUP3 ADD MSTORE PUSH1 0x80 ADD SWAP1 JUMP JUMPDEST PUSH4 0x4E487B71 PUSH1 0xE0 SHL PUSH1 0x0 MSTORE PUSH1 0x11 PUSH1 0x4 MSTORE PUSH1 0x24 PUSH1 0x0 REVERT JUMPDEST DUP2 DUP2 SUB DUP2 DUP2 GT ISZERO PUSH2 0x1FF JUMPI PUSH2 0x1FF PUSH2 0x8EA JUMP JUMPDEST PUSH1 0x20 DUP1 DUP3 MSTORE PUSH1 0x24 SWAP1 DUP3 ADD MSTORE PUSH32 0x5B7469636B6574496E636F6D653247726F75704D656D6265725D206F76657266 PUSH1 0x40 DUP3 ADD MSTORE PUSH4 0x3637BB97 PUSH1 0xE1 SHL PUSH1 0x60 DUP3 ADD MSTORE PUSH1 0x80 ADD SWAP1 JUMP JUMPDEST PUSH1 0x0 PUSH1 0x1 DUP3 ADD PUSH2 0x969 JUMPI PUSH2 0x969 PUSH2 0x8EA JUMP JUMPDEST POP PUSH1 0x1 ADD SWAP1 JUMP JUMPDEST PUSH1 0x20 DUP1 DUP3 MSTORE PUSH1 0x23 SWAP1 DUP3 ADD MSTORE PUSH32 0x5B7469636B6574496E636F6D6532526577617264506F6F6C5D206F766572666C PUSH1 0x40 DUP3 ADD MSTORE PUSH3 0x37BB97 PUSH1 0xE9 SHL PUSH1 0x60 DUP3 ADD MSTORE PUSH1 0x80 ADD SWAP1 JUMP JUMPDEST PUSH4 0x4E487B71 PUSH1 0xE0 SHL PUSH1 0x0 MSTORE PUSH1 0x12 PUSH1 0x4 MSTORE PUSH1 0x24 PUSH1 0x0 REVERT INVALID 0x4E PUSH22 0x6D626572206F766572666C6F77206F63637572732077 PUSH9 0x656E2063616C63A264 PUSH10 0x706673582212206F4E58 0xDB 0xBB ADD CHAINID 0xE3 0xB4 0xBC 0xF7 SWAP4 0x5F 0x5D 0xF6 0xD0 0xC2 0xC7 0xC8 MUL 0xD0 DUP4 DUP6 SLT 0xB6 RETURNDATACOPY GT 0x1E 0xC9 DUP15 PUSH6 0x7364736F6C63 NUMBER STOP ADDMOD SLT STOP CALLER "
				},
				"gasEstimates": {
					"creation": {
						"codeDepositCost": "518200",
						"executionCost": "584",
						"totalCost": "518784"
					},
					"external": {
						"groupCreateMinFee()": "131",
						"taskCreateMinFee()": "208",
						"ticketIncome2GroupLeader(uint256)": "556",
						"ticketIncome2GroupMember(uint256,uint256)": "infinite",
						"ticketIncome2RewardPool(uint256)": "644",
						"ticketPrice(uint256,uint256,int256,int256,uint256,uint256)": "infinite"
					}
				},
				"methodIdentifiers": {
					"groupCreateMinFee()": "26d0a334",
					"taskCreateMinFee()": "91096a3c",
					"ticketIncome2GroupLeader(uint256)": "2e26fb4a",
					"ticketIncome2GroupMember(uint256,uint256)": "84105419",
					"ticketIncome2RewardPool(uint256)": "e6ca2a8d",
					"ticketPrice(uint256,uint256,int256,int256,uint256,uint256)": "9b49380b"
				}
			},
			"storageLayout": {
				"storage": [],
				"types": null
			},
			"userdoc": {
				"kind": "user",
				"methods": {},
				"version": 1
			}
		}
	}
}