{
	"data": {
		"bytecode": {
			"linkReferences": {},
			"object": "610e3061003a600b82828239805160001a60731461002d57634e487b7160e01b600052600060045260246000fd5b30600052607381538281f3fe73000000000000000000000000000000000000000030146080604052600436106100b35760003560e01c806391096a3c1161007b57806391096a3c1461011c5780639b49380b146101275780639c8294661461013a578063beb19a211461014d578063c060093f14610160578063e6ca2a8d1461016857600080fd5b806326d0a334146100b85780632e26fb4a146100d05780633ed12ab7146100e35780636bc7b5fc146100f65780638410541914610109575b600080fd5b6302faf0805b60405190815260200160405180910390f35b6100be6100de366004610b7c565b61017b565b6100be6100f1366004610b95565b6101ea565b6100be610104366004610bb7565b6102dc565b6100be610117366004610b95565b610313565b6406fc23ac006100be565b6100be610135366004610bb7565b6103fb565b6100be610148366004610b7c565b610920565b6100be61015b366004610b7c565b6109df565b6100be610a3e565b6100be610176366004610b7c565b610a61565b6000808061018a846032610ac1565b9092509050816101b55760405162461bcd60e51b81526004016101ac90610bfa565b60405180910390fd5b6101c1816103e8610b0c565b9092509050816101e35760405162461bcd60e51b81526004016101ac90610bfa565b9392505050565b60008080806101fc6103e860c8610b3f565b90935090508261021e5760405162461bcd60e51b81526004016101ac90610c3e565b61022981604b610b3f565b90935090508261024b5760405162461bcd60e51b81526004016101ac90610c3e565b6102558682610ac1565b9093509150826102775760405162461bcd60e51b81526004016101ac90610c3e565b610283826103e8610b0c565b9093509150826102a55760405162461bcd60e51b81526004016101ac90610c3e565b6102af8286610b0c565b9093509150826102d15760405162461bcd60e51b81526004016101ac90610c3e565b509150505b92915050565b6000806102ed8888888888886103fb565b90506103e86102fd602d83610c96565b6103079190610cc3565b98975050505050505050565b60008080806103256103e86032610b3f565b9093509050826103475760405162461bcd60e51b81526004016101ac90610ce5565b61035381610258610b3f565b9093509050826103755760405162461bcd60e51b81526004016101ac90610ce5565b61037f8682610ac1565b9093509150826103a15760405162461bcd60e51b81526004016101ac90610ce5565b6103ad826103e8610b0c565b9093509150826103cf5760405162461bcd60e51b81526004016101ac90610ce5565b6103d98286610b0c565b9093509150826102d15760405162461bcd60e51b81526004016101ac90610ce5565b600060018060005b600281101561049057610416828b610ac1565b90935091508261047e576040805162461bcd60e51b8152602060048201526024810191909152600080516020610ddb83398151915260448201527f756c617465207469636b657420707269636520696e20692a2a5f616c7068612e60648201526084016101ac565b8061048881610d29565b915050610403565b5061049c81600a610ac1565b9092509050816105115760405162461bcd60e51b81526020600482015260466024820152600080516020610ddb83398151915260448201527f756c617465207469636b657420707269636520696e205f626574612a692a2a5f60648201526530b63834309760d11b608482015260a4016101ac565b61051e81620f4240610ac1565b9092509050816105aa5760405162461bcd60e51b815260206004820152605e6024820152600080516020610ddb83398151915260448201527f756c617465207469636b657420707269636520696e20285f626574612f5f646560648201527f6e6f6d696e61746f722a692a2a5f616c706861292a5f646563696d616c2e0000608482015260a4016101ac565b6105b6816103e8610b0c565b9092509050816106385760405162461bcd60e51b81526020600482015260536024820152600080516020610ddb83398151915260448201527f756c617465207469636b657420707269636520696e205f626574612f5f64656e60648201527237b6b4b730ba37b9153495152fb0b63834309760691b608482015260a4016101ac565b61064581624c4b40610b61565b9092509050816106d15760405162461bcd60e51b815260206004820152605b6024820152600080516020610ddb83398151915260448201527f756c617465207469636b657420707269636520696e205f626574612f5f64656e60648201527f6f6d696e61746f722a692a2a5f616c706861202b2067616d6d612e0000000000608482015260a4016101ac565b60008088121580156106e4575060008712155b1561070b57600a6106f58688610d42565b111561070357506001610736565b506000610736565b6000881215801561071c5750600087125b1561073257600a86111561070357506001610736565b5060005b80156109135760006107498a600a610ac1565b9094509050836107dd5760405162461bcd60e51b815260206004820152605360248201527f4e756d626572206f766572666c6f77206f6363757273207768656e2028666c6160448201527f672c20657874726146656529203d20536166654d6174682e7472794d756c28746064820152726f74616c526577617264506f6f6c2c205f702960681b608482015260a4016101ac565b6107e9816103e8610b0c565b9094509050836108805760405162461bcd60e51b815260206004820152605660248201527f4e756d626572206f766572666c6f77206f6363757273207768656e2028666c6160448201527f672c20657874726146656529203d20536166654d6174682e7472794469762865606482015275787472614665652c205f64656e6f6d696e61746f722960501b608482015260a4016101ac565b61088a8382610b61565b9094509250836109115760405162461bcd60e51b815260206004820152604660248201527f4e756d626572206f766572666c6f77206f6363757273207768656e2028666c6160448201527f672c20747029203d20536166654d6174682e7472794164642874702c2065787460648201526572614665652960d01b608482015260a4016101ac565b505b5098975050505050505050565b6000808061092f84604b610ac1565b9092509050816109815760405162461bcd60e51b815260206004820152601a60248201527f5b726577617264506f6f6c324144335d206f766572666c6f772e00000000000060448201526064016101ac565b61098d816103e8610b0c565b9092509050816101e35760405162461bcd60e51b815260206004820152601a60248201527f5b726577617264506f6f6c324144335d206f766572666c6f772e00000000000060448201526064016101ac565b600080806109ee8460c8610ac1565b909250905081610a105760405162461bcd60e51b81526004016101ac90610d55565b610a1c816103e8610b0c565b9092509050816101e35760405162461bcd60e51b81526004016101ac90610d55565b60006103e8610a52602d6302faf080610c96565b610a5c9190610cc3565b905090565b60008080610a7184610258610ac1565b909250905081610a935760405162461bcd60e51b81526004016101ac90610d97565b610a9f816103e8610b0c565b9092509050816101e35760405162461bcd60e51b81526004016101ac90610d97565b60008083600003610ad85750600190506000610b05565b83830283858281610aeb57610aeb610cad565b0414610afe576000809250925050610b05565b6001925090505b9250929050565b60008082600003610b2257506000905080610b05565b6001838581610b3357610b33610cad565b04915091509250929050565b60008083831115610b5557506000905080610b05565b50600193919092039150565b60008083830184811015610afe576000809250925050610b05565b600060208284031215610b8e57600080fd5b5035919050565b60008060408385031215610ba857600080fd5b50508035926020909101359150565b60008060008060008060c08789031215610bd057600080fd5b505084359660208601359650604086013595606081013595506080810135945060a0013592509050565b60208082526024908201527f5b7469636b6574496e636f6d653247726f75704c65616465725d206f766572666040820152633637bb9760e11b606082015260800190565b60208082526022908201527f5b726577617264506f6f6c3247726f75704d656d6265725d206f766572666c6f6040820152613b9760f11b606082015260800190565b634e487b7160e01b600052601160045260246000fd5b80820281158282048414176102d6576102d6610c80565b634e487b7160e01b600052601260045260246000fd5b600082610ce057634e487b7160e01b600052601260045260246000fd5b500490565b60208082526024908201527f5b7469636b6574496e636f6d653247726f75704d656d6265725d206f766572666040820152633637bb9760e11b606082015260800190565b600060018201610d3b57610d3b610c80565b5060010190565b818103818111156102d6576102d6610c80565b60208082526022908201527f5b726577617264506f6f6c3247726f75704c65616465725d206f766572666c6f6040820152613b9760f11b606082015260800190565b60208082526023908201527f5b7469636b6574496e636f6d6532526577617264506f6f6c5d206f766572666c60408201526237bb9760e91b60608201526080019056fe4e756d626572206f766572666c6f77206f6363757273207768656e2063616c63a2646970667358221220361325dce2b2f7f081249c0495e5ffafc2599b26e2cf114abd6a1c664bcce85764736f6c63430008120033",
			"opcodes": "PUSH2 0xE30 PUSH2 0x3A PUSH1 0xB DUP3 DUP3 DUP3 CODECOPY DUP1 MLOAD PUSH1 0x0 BYTE PUSH1 0x73 EQ PUSH2 0x2D JUMPI PUSH4 0x4E487B71 PUSH1 0xE0 SHL PUSH1 0x0 MSTORE PUSH1 0x0 PUSH1 0x4 MSTORE PUSH1 0x24 PUSH1 0x0 REVERT JUMPDEST ADDRESS PUSH1 0x0 MSTORE PUSH1 0x73 DUP2 MSTORE8 DUP3 DUP2 RETURN INVALID PUSH20 0x0 ADDRESS EQ PUSH1 0x80 PUSH1 0x40 MSTORE PUSH1 0x4 CALLDATASIZE LT PUSH2 0xB3 JUMPI PUSH1 0x0 CALLDATALOAD PUSH1 0xE0 SHR DUP1 PUSH4 0x91096A3C GT PUSH2 0x7B JUMPI DUP1 PUSH4 0x91096A3C EQ PUSH2 0x11C JUMPI DUP1 PUSH4 0x9B49380B EQ PUSH2 0x127 JUMPI DUP1 PUSH4 0x9C829466 EQ PUSH2 0x13A JUMPI DUP1 PUSH4 0xBEB19A21 EQ PUSH2 0x14D JUMPI DUP1 PUSH4 0xC060093F EQ PUSH2 0x160 JUMPI DUP1 PUSH4 0xE6CA2A8D EQ PUSH2 0x168 JUMPI PUSH1 0x0 DUP1 REVERT JUMPDEST DUP1 PUSH4 0x26D0A334 EQ PUSH2 0xB8 JUMPI DUP1 PUSH4 0x2E26FB4A EQ PUSH2 0xD0 JUMPI DUP1 PUSH4 0x3ED12AB7 EQ PUSH2 0xE3 JUMPI DUP1 PUSH4 0x6BC7B5FC EQ PUSH2 0xF6 JUMPI DUP1 PUSH4 0x84105419 EQ PUSH2 0x109 JUMPI JUMPDEST PUSH1 0x0 DUP1 REVERT JUMPDEST PUSH4 0x2FAF080 JUMPDEST PUSH1 0x40 MLOAD SWAP1 DUP2 MSTORE PUSH1 0x20 ADD PUSH1 0x40 MLOAD DUP1 SWAP2 SUB SWAP1 RETURN JUMPDEST PUSH2 0xBE PUSH2 0xDE CALLDATASIZE PUSH1 0x4 PUSH2 0xB7C JUMP JUMPDEST PUSH2 0x17B JUMP JUMPDEST PUSH2 0xBE PUSH2 0xF1 CALLDATASIZE PUSH1 0x4 PUSH2 0xB95 JUMP JUMPDEST PUSH2 0x1EA JUMP JUMPDEST PUSH2 0xBE PUSH2 0x104 CALLDATASIZE PUSH1 0x4 PUSH2 0xBB7 JUMP JUMPDEST PUSH2 0x2DC JUMP JUMPDEST PUSH2 0xBE PUSH2 0x117 CALLDATASIZE PUSH1 0x4 PUSH2 0xB95 JUMP JUMPDEST PUSH2 0x313 JUMP JUMPDEST PUSH5 0x6FC23AC00 PUSH2 0xBE JUMP JUMPDEST PUSH2 0xBE PUSH2 0x135 CALLDATASIZE PUSH1 0x4 PUSH2 0xBB7 JUMP JUMPDEST PUSH2 0x3FB JUMP JUMPDEST PUSH2 0xBE PUSH2 0x148 CALLDATASIZE PUSH1 0x4 PUSH2 0xB7C JUMP JUMPDEST PUSH2 0x920 JUMP JUMPDEST PUSH2 0xBE PUSH2 0x15B CALLDATASIZE PUSH1 0x4 PUSH2 0xB7C JUMP JUMPDEST PUSH2 0x9DF JUMP JUMPDEST PUSH2 0xBE PUSH2 0xA3E JUMP JUMPDEST PUSH2 0xBE PUSH2 0x176 CALLDATASIZE PUSH1 0x4 PUSH2 0xB7C JUMP JUMPDEST PUSH2 0xA61 JUMP JUMPDEST PUSH1 0x0 DUP1 DUP1 PUSH2 0x18A DUP5 PUSH1 0x32 PUSH2 0xAC1 JUMP JUMPDEST SWAP1 SWAP3 POP SWAP1 POP DUP2 PUSH2 0x1B5 JUMPI PUSH1 0x40 MLOAD PUSH3 0x461BCD PUSH1 0xE5 SHL DUP2 MSTORE PUSH1 0x4 ADD PUSH2 0x1AC SWAP1 PUSH2 0xBFA JUMP JUMPDEST PUSH1 0x40 MLOAD DUP1 SWAP2 SUB SWAP1 REVERT JUMPDEST PUSH2 0x1C1 DUP2 PUSH2 0x3E8 PUSH2 0xB0C JUMP JUMPDEST SWAP1 SWAP3 POP SWAP1 POP DUP2 PUSH2 0x1E3 JUMPI PUSH1 0x40 MLOAD PUSH3 0x461BCD PUSH1 0xE5 SHL DUP2 MSTORE PUSH1 0x4 ADD PUSH2 0x1AC SWAP1 PUSH2 0xBFA JUMP JUMPDEST SWAP4 SWAP3 POP POP POP JUMP JUMPDEST PUSH1 0x0 DUP1 DUP1 DUP1 PUSH2 0x1FC PUSH2 0x3E8 PUSH1 0xC8 PUSH2 0xB3F JUMP JUMPDEST SWAP1 SWAP4 POP SWAP1 POP DUP3 PUSH2 0x21E JUMPI PUSH1 0x40 MLOAD PUSH3 0x461BCD PUSH1 0xE5 SHL DUP2 MSTORE PUSH1 0x4 ADD PUSH2 0x1AC SWAP1 PUSH2 0xC3E JUMP JUMPDEST PUSH2 0x229 DUP2 PUSH1 0x4B PUSH2 0xB3F JUMP JUMPDEST SWAP1 SWAP4 POP SWAP1 POP DUP3 PUSH2 0x24B JUMPI PUSH1 0x40 MLOAD PUSH3 0x461BCD PUSH1 0xE5 SHL DUP2 MSTORE PUSH1 0x4 ADD PUSH2 0x1AC SWAP1 PUSH2 0xC3E JUMP JUMPDEST PUSH2 0x255 DUP7 DUP3 PUSH2 0xAC1 JUMP JUMPDEST SWAP1 SWAP4 POP SWAP2 POP DUP3 PUSH2 0x277 JUMPI PUSH1 0x40 MLOAD PUSH3 0x461BCD PUSH1 0xE5 SHL DUP2 MSTORE PUSH1 0x4 ADD PUSH2 0x1AC SWAP1 PUSH2 0xC3E JUMP JUMPDEST PUSH2 0x283 DUP3 PUSH2 0x3E8 PUSH2 0xB0C JUMP JUMPDEST SWAP1 SWAP4 POP SWAP2 POP DUP3 PUSH2 0x2A5 JUMPI PUSH1 0x40 MLOAD PUSH3 0x461BCD PUSH1 0xE5 SHL DUP2 MSTORE PUSH1 0x4 ADD PUSH2 0x1AC SWAP1 PUSH2 0xC3E JUMP JUMPDEST PUSH2 0x2AF DUP3 DUP7 PUSH2 0xB0C JUMP JUMPDEST SWAP1 SWAP4 POP SWAP2 POP DUP3 PUSH2 0x2D1 JUMPI PUSH1 0x40 MLOAD PUSH3 0x461BCD PUSH1 0xE5 SHL DUP2 MSTORE PUSH1 0x4 ADD PUSH2 0x1AC SWAP1 PUSH2 0xC3E JUMP JUMPDEST POP SWAP2 POP POP JUMPDEST SWAP3 SWAP2 POP POP JUMP JUMPDEST PUSH1 0x0 DUP1 PUSH2 0x2ED DUP9 DUP9 DUP9 DUP9 DUP9 DUP9 PUSH2 0x3FB JUMP JUMPDEST SWAP1 POP PUSH2 0x3E8 PUSH2 0x2FD PUSH1 0x2D DUP4 PUSH2 0xC96 JUMP JUMPDEST PUSH2 0x307 SWAP2 SWAP1 PUSH2 0xCC3 JUMP JUMPDEST SWAP9 SWAP8 POP POP POP POP POP POP POP POP JUMP JUMPDEST PUSH1 0x0 DUP1 DUP1 DUP1 PUSH2 0x325 PUSH2 0x3E8 PUSH1 0x32 PUSH2 0xB3F JUMP JUMPDEST SWAP1 SWAP4 POP SWAP1 POP DUP3 PUSH2 0x347 JUMPI PUSH1 0x40 MLOAD PUSH3 0x461BCD PUSH1 0xE5 SHL DUP2 MSTORE PUSH1 0x4 ADD PUSH2 0x1AC SWAP1 PUSH2 0xCE5 JUMP JUMPDEST PUSH2 0x353 DUP2 PUSH2 0x258 PUSH2 0xB3F JUMP JUMPDEST SWAP1 SWAP4 POP SWAP1 POP DUP3 PUSH2 0x375 JUMPI PUSH1 0x40 MLOAD PUSH3 0x461BCD PUSH1 0xE5 SHL DUP2 MSTORE PUSH1 0x4 ADD PUSH2 0x1AC SWAP1 PUSH2 0xCE5 JUMP JUMPDEST PUSH2 0x37F DUP7 DUP3 PUSH2 0xAC1 JUMP JUMPDEST SWAP1 SWAP4 POP SWAP2 POP DUP3 PUSH2 0x3A1 JUMPI PUSH1 0x40 MLOAD PUSH3 0x461BCD PUSH1 0xE5 SHL DUP2 MSTORE PUSH1 0x4 ADD PUSH2 0x1AC SWAP1 PUSH2 0xCE5 JUMP JUMPDEST PUSH2 0x3AD DUP3 PUSH2 0x3E8 PUSH2 0xB0C JUMP JUMPDEST SWAP1 SWAP4 POP SWAP2 POP DUP3 PUSH2 0x3CF JUMPI PUSH1 0x40 MLOAD PUSH3 0x461BCD PUSH1 0xE5 SHL DUP2 MSTORE PUSH1 0x4 ADD PUSH2 0x1AC SWAP1 PUSH2 0xCE5 JUMP JUMPDEST PUSH2 0x3D9 DUP3 DUP7 PUSH2 0xB0C JUMP JUMPDEST SWAP1 SWAP4 POP SWAP2 POP DUP3 PUSH2 0x2D1 JUMPI PUSH1 0x40 MLOAD PUSH3 0x461BCD PUSH1 0xE5 SHL DUP2 MSTORE PUSH1 0x4 ADD PUSH2 0x1AC SWAP1 PUSH2 0xCE5 JUMP JUMPDEST PUSH1 0x0 PUSH1 0x1 DUP1 PUSH1 0x0 JUMPDEST PUSH1 0x2 DUP2 LT ISZERO PUSH2 0x490 JUMPI PUSH2 0x416 DUP3 DUP12 PUSH2 0xAC1 JUMP JUMPDEST SWAP1 SWAP4 POP SWAP2 POP DUP3 PUSH2 0x47E JUMPI PUSH1 0x40 DUP1 MLOAD PUSH3 0x461BCD PUSH1 0xE5 SHL DUP2 MSTORE PUSH1 0x20 PUSH1 0x4 DUP3 ADD MSTORE PUSH1 0x24 DUP2 ADD SWAP2 SWAP1 SWAP2 MSTORE PUSH1 0x0 DUP1 MLOAD PUSH1 0x20 PUSH2 0xDDB DUP4 CODECOPY DUP2 MLOAD SWAP2 MSTORE PUSH1 0x44 DUP3 ADD MSTORE PUSH32 0x756C617465207469636B657420707269636520696E20692A2A5F616C7068612E PUSH1 0x64 DUP3 ADD MSTORE PUSH1 0x84 ADD PUSH2 0x1AC JUMP JUMPDEST DUP1 PUSH2 0x488 DUP2 PUSH2 0xD29 JUMP JUMPDEST SWAP2 POP POP PUSH2 0x403 JUMP JUMPDEST POP PUSH2 0x49C DUP2 PUSH1 0xA PUSH2 0xAC1 JUMP JUMPDEST SWAP1 SWAP3 POP SWAP1 POP DUP2 PUSH2 0x511 JUMPI PUSH1 0x40 MLOAD PUSH3 0x461BCD PUSH1 0xE5 SHL DUP2 MSTORE PUSH1 0x20 PUSH1 0x4 DUP3 ADD MSTORE PUSH1 0x46 PUSH1 0x24 DUP3 ADD MSTORE PUSH1 0x0 DUP1 MLOAD PUSH1 0x20 PUSH2 0xDDB DUP4 CODECOPY DUP2 MLOAD SWAP2 MSTORE PUSH1 0x44 DUP3 ADD MSTORE PUSH32 0x756C617465207469636B657420707269636520696E205F626574612A692A2A5F PUSH1 0x64 DUP3 ADD MSTORE PUSH6 0x30B638343097 PUSH1 0xD1 SHL PUSH1 0x84 DUP3 ADD MSTORE PUSH1 0xA4 ADD PUSH2 0x1AC JUMP JUMPDEST PUSH2 0x51E DUP2 PUSH3 0xF4240 PUSH2 0xAC1 JUMP JUMPDEST SWAP1 SWAP3 POP SWAP1 POP DUP2 PUSH2 0x5AA JUMPI PUSH1 0x40 MLOAD PUSH3 0x461BCD PUSH1 0xE5 SHL DUP2 MSTORE PUSH1 0x20 PUSH1 0x4 DUP3 ADD MSTORE PUSH1 0x5E PUSH1 0x24 DUP3 ADD MSTORE PUSH1 0x0 DUP1 MLOAD PUSH1 0x20 PUSH2 0xDDB DUP4 CODECOPY DUP2 MLOAD SWAP2 MSTORE PUSH1 0x44 DUP3 ADD MSTORE PUSH32 0x756C617465207469636B657420707269636520696E20285F626574612F5F6465 PUSH1 0x64 DUP3 ADD MSTORE PUSH32 0x6E6F6D696E61746F722A692A2A5F616C706861292A5F646563696D616C2E0000 PUSH1 0x84 DUP3 ADD MSTORE PUSH1 0xA4 ADD PUSH2 0x1AC JUMP JUMPDEST PUSH2 0x5B6 DUP2 PUSH2 0x3E8 PUSH2 0xB0C JUMP JUMPDEST SWAP1 SWAP3 POP SWAP1 POP DUP2 PUSH2 0x638 JUMPI PUSH1 0x40 MLOAD PUSH3 0x461BCD PUSH1 0xE5 SHL DUP2 MSTORE PUSH1 0x20 PUSH1 0x4 DUP3 ADD MSTORE PUSH1 0x53 PUSH1 0x24 DUP3 ADD MSTORE PUSH1 0x0 DUP1 MLOAD PUSH1 0x20 PUSH2 0xDDB DUP4 CODECOPY DUP2 MLOAD SWAP2 MSTORE PUSH1 0x44 DUP3 ADD MSTORE PUSH32 0x756C617465207469636B657420707269636520696E205F626574612F5F64656E PUSH1 0x64 DUP3 ADD MSTORE PUSH19 0x37B6B4B730BA37B9153495152FB0B638343097 PUSH1 0x69 SHL PUSH1 0x84 DUP3 ADD MSTORE PUSH1 0xA4 ADD PUSH2 0x1AC JUMP JUMPDEST PUSH2 0x645 DUP2 PUSH3 0x4C4B40 PUSH2 0xB61 JUMP JUMPDEST SWAP1 SWAP3 POP SWAP1 POP DUP2 PUSH2 0x6D1 JUMPI PUSH1 0x40 MLOAD PUSH3 0x461BCD PUSH1 0xE5 SHL DUP2 MSTORE PUSH1 0x20 PUSH1 0x4 DUP3 ADD MSTORE PUSH1 0x5B PUSH1 0x24 DUP3 ADD MSTORE PUSH1 0x0 DUP1 MLOAD PUSH1 0x20 PUSH2 0xDDB DUP4 CODECOPY DUP2 MLOAD SWAP2 MSTORE PUSH1 0x44 DUP3 ADD MSTORE PUSH32 0x756C617465207469636B657420707269636520696E205F626574612F5F64656E PUSH1 0x64 DUP3 ADD MSTORE PUSH32 0x6F6D696E61746F722A692A2A5F616C706861202B2067616D6D612E0000000000 PUSH1 0x84 DUP3 ADD MSTORE PUSH1 0xA4 ADD PUSH2 0x1AC JUMP JUMPDEST PUSH1 0x0 DUP1 DUP9 SLT ISZERO DUP1 ISZERO PUSH2 0x6E4 JUMPI POP PUSH1 0x0 DUP8 SLT ISZERO JUMPDEST ISZERO PUSH2 0x70B JUMPI PUSH1 0xA PUSH2 0x6F5 DUP7 DUP9 PUSH2 0xD42 JUMP JUMPDEST GT ISZERO PUSH2 0x703 JUMPI POP PUSH1 0x1 PUSH2 0x736 JUMP JUMPDEST POP PUSH1 0x0 PUSH2 0x736 JUMP JUMPDEST PUSH1 0x0 DUP9 SLT ISZERO DUP1 ISZERO PUSH2 0x71C JUMPI POP PUSH1 0x0 DUP8 SLT JUMPDEST ISZERO PUSH2 0x732 JUMPI PUSH1 0xA DUP7 GT ISZERO PUSH2 0x703 JUMPI POP PUSH1 0x1 PUSH2 0x736 JUMP JUMPDEST POP PUSH1 0x0 JUMPDEST DUP1 ISZERO PUSH2 0x913 JUMPI PUSH1 0x0 PUSH2 0x749 DUP11 PUSH1 0xA PUSH2 0xAC1 JUMP JUMPDEST SWAP1 SWAP5 POP SWAP1 POP DUP4 PUSH2 0x7DD JUMPI PUSH1 0x40 MLOAD PUSH3 0x461BCD PUSH1 0xE5 SHL DUP2 MSTORE PUSH1 0x20 PUSH1 0x4 DUP3 ADD MSTORE PUSH1 0x53 PUSH1 0x24 DUP3 ADD MSTORE PUSH32 0x4E756D626572206F766572666C6F77206F6363757273207768656E2028666C61 PUSH1 0x44 DUP3 ADD MSTORE PUSH32 0x672C20657874726146656529203D20536166654D6174682E7472794D756C2874 PUSH1 0x64 DUP3 ADD MSTORE PUSH19 0x6F74616C526577617264506F6F6C2C205F7029 PUSH1 0x68 SHL PUSH1 0x84 DUP3 ADD MSTORE PUSH1 0xA4 ADD PUSH2 0x1AC JUMP JUMPDEST PUSH2 0x7E9 DUP2 PUSH2 0x3E8 PUSH2 0xB0C JUMP JUMPDEST SWAP1 SWAP5 POP SWAP1 POP DUP4 PUSH2 0x880 JUMPI PUSH1 0x40 MLOAD PUSH3 0x461BCD PUSH1 0xE5 SHL DUP2 MSTORE PUSH1 0x20 PUSH1 0x4 DUP3 ADD MSTORE PUSH1 0x56 PUSH1 0x24 DUP3 ADD MSTORE PUSH32 0x4E756D626572206F766572666C6F77206F6363757273207768656E2028666C61 PUSH1 0x44 DUP3 ADD MSTORE PUSH32 0x672C20657874726146656529203D20536166654D6174682E7472794469762865 PUSH1 0x64 DUP3 ADD MSTORE PUSH22 0x787472614665652C205F64656E6F6D696E61746F7229 PUSH1 0x50 SHL PUSH1 0x84 DUP3 ADD MSTORE PUSH1 0xA4 ADD PUSH2 0x1AC JUMP JUMPDEST PUSH2 0x88A DUP4 DUP3 PUSH2 0xB61 JUMP JUMPDEST SWAP1 SWAP5 POP SWAP3 POP DUP4 PUSH2 0x911 JUMPI PUSH1 0x40 MLOAD PUSH3 0x461BCD PUSH1 0xE5 SHL DUP2 MSTORE PUSH1 0x20 PUSH1 0x4 DUP3 ADD MSTORE PUSH1 0x46 PUSH1 0x24 DUP3 ADD MSTORE PUSH32 0x4E756D626572206F766572666C6F77206F6363757273207768656E2028666C61 PUSH1 0x44 DUP3 ADD MSTORE PUSH32 0x672C20747029203D20536166654D6174682E7472794164642874702C20657874 PUSH1 0x64 DUP3 ADD MSTORE PUSH6 0x726146656529 PUSH1 0xD0 SHL PUSH1 0x84 DUP3 ADD MSTORE PUSH1 0xA4 ADD PUSH2 0x1AC JUMP JUMPDEST POP JUMPDEST POP SWAP9 SWAP8 POP POP POP POP POP POP POP POP JUMP JUMPDEST PUSH1 0x0 DUP1 DUP1 PUSH2 0x92F DUP5 PUSH1 0x4B PUSH2 0xAC1 JUMP JUMPDEST SWAP1 SWAP3 POP SWAP1 POP DUP2 PUSH2 0x981 JUMPI PUSH1 0x40 MLOAD PUSH3 0x461BCD PUSH1 0xE5 SHL DUP2 MSTORE PUSH1 0x20 PUSH1 0x4 DUP3 ADD MSTORE PUSH1 0x1A PUSH1 0x24 DUP3 ADD MSTORE PUSH32 0x5B726577617264506F6F6C324144335D206F766572666C6F772E000000000000 PUSH1 0x44 DUP3 ADD MSTORE PUSH1 0x64 ADD PUSH2 0x1AC JUMP JUMPDEST PUSH2 0x98D DUP2 PUSH2 0x3E8 PUSH2 0xB0C JUMP JUMPDEST SWAP1 SWAP3 POP SWAP1 POP DUP2 PUSH2 0x1E3 JUMPI PUSH1 0x40 MLOAD PUSH3 0x461BCD PUSH1 0xE5 SHL DUP2 MSTORE PUSH1 0x20 PUSH1 0x4 DUP3 ADD MSTORE PUSH1 0x1A PUSH1 0x24 DUP3 ADD MSTORE PUSH32 0x5B726577617264506F6F6C324144335D206F766572666C6F772E000000000000 PUSH1 0x44 DUP3 ADD MSTORE PUSH1 0x64 ADD PUSH2 0x1AC JUMP JUMPDEST PUSH1 0x0 DUP1 DUP1 PUSH2 0x9EE DUP5 PUSH1 0xC8 PUSH2 0xAC1 JUMP JUMPDEST SWAP1 SWAP3 POP SWAP1 POP DUP2 PUSH2 0xA10 JUMPI PUSH1 0x40 MLOAD PUSH3 0x461BCD PUSH1 0xE5 SHL DUP2 MSTORE PUSH1 0x4 ADD PUSH2 0x1AC SWAP1 PUSH2 0xD55 JUMP JUMPDEST PUSH2 0xA1C DUP2 PUSH2 0x3E8 PUSH2 0xB0C JUMP JUMPDEST SWAP1 SWAP3 POP SWAP1 POP DUP2 PUSH2 0x1E3 JUMPI PUSH1 0x40 MLOAD PUSH3 0x461BCD PUSH1 0xE5 SHL DUP2 MSTORE PUSH1 0x4 ADD PUSH2 0x1AC SWAP1 PUSH2 0xD55 JUMP JUMPDEST PUSH1 0x0 PUSH2 0x3E8 PUSH2 0xA52 PUSH1 0x2D PUSH4 0x2FAF080 PUSH2 0xC96 JUMP JUMPDEST PUSH2 0xA5C SWAP2 SWAP1 PUSH2 0xCC3 JUMP JUMPDEST SWAP1 POP SWAP1 JUMP JUMPDEST PUSH1 0x0 DUP1 DUP1 PUSH2 0xA71 DUP5 PUSH2 0x258 PUSH2 0xAC1 JUMP JUMPDEST SWAP1 SWAP3 POP SWAP1 POP DUP2 PUSH2 0xA93 JUMPI PUSH1 0x40 MLOAD PUSH3 0x461BCD PUSH1 0xE5 SHL DUP2 MSTORE PUSH1 0x4 ADD PUSH2 0x1AC SWAP1 PUSH2 0xD97 JUMP JUMPDEST PUSH2 0xA9F DUP2 PUSH2 0x3E8 PUSH2 0xB0C JUMP JUMPDEST SWAP1 SWAP3 POP SWAP1 POP DUP2 PUSH2 0x1E3 JUMPI PUSH1 0x40 MLOAD PUSH3 0x461BCD PUSH1 0xE5 SHL DUP2 MSTORE PUSH1 0x4 ADD PUSH2 0x1AC SWAP1 PUSH2 0xD97 JUMP JUMPDEST PUSH1 0x0 DUP1 DUP4 PUSH1 0x0 SUB PUSH2 0xAD8 JUMPI POP PUSH1 0x1 SWAP1 POP PUSH1 0x0 PUSH2 0xB05 JUMP JUMPDEST DUP4 DUP4 MUL DUP4 DUP6 DUP3 DUP2 PUSH2 0xAEB JUMPI PUSH2 0xAEB PUSH2 0xCAD JUMP JUMPDEST DIV EQ PUSH2 0xAFE JUMPI PUSH1 0x0 DUP1 SWAP3 POP SWAP3 POP POP PUSH2 0xB05 JUMP JUMPDEST PUSH1 0x1 SWAP3 POP SWAP1 POP JUMPDEST SWAP3 POP SWAP3 SWAP1 POP JUMP JUMPDEST PUSH1 0x0 DUP1 DUP3 PUSH1 0x0 SUB PUSH2 0xB22 JUMPI POP PUSH1 0x0 SWAP1 POP DUP1 PUSH2 0xB05 JUMP JUMPDEST PUSH1 0x1 DUP4 DUP6 DUP2 PUSH2 0xB33 JUMPI PUSH2 0xB33 PUSH2 0xCAD JUMP JUMPDEST DIV SWAP2 POP SWAP2 POP SWAP3 POP SWAP3 SWAP1 POP JUMP JUMPDEST PUSH1 0x0 DUP1 DUP4 DUP4 GT ISZERO PUSH2 0xB55 JUMPI POP PUSH1 0x0 SWAP1 POP DUP1 PUSH2 0xB05 JUMP JUMPDEST POP PUSH1 0x1 SWAP4 SWAP2 SWAP1 SWAP3 SUB SWAP2 POP JUMP JUMPDEST PUSH1 0x0 DUP1 DUP4 DUP4 ADD DUP5 DUP2 LT ISZERO PUSH2 0xAFE JUMPI PUSH1 0x0 DUP1 SWAP3 POP SWAP3 POP POP PUSH2 0xB05 JUMP JUMPDEST PUSH1 0x0 PUSH1 0x20 DUP3 DUP5 SUB SLT ISZERO PUSH2 0xB8E JUMPI PUSH1 0x0 DUP1 REVERT JUMPDEST POP CALLDATALOAD SWAP2 SWAP1 POP JUMP JUMPDEST PUSH1 0x0 DUP1 PUSH1 0x40 DUP4 DUP6 SUB SLT ISZERO PUSH2 0xBA8 JUMPI PUSH1 0x0 DUP1 REVERT JUMPDEST POP POP DUP1 CALLDATALOAD SWAP3 PUSH1 0x20 SWAP1 SWAP2 ADD CALLDATALOAD SWAP2 POP JUMP JUMPDEST PUSH1 0x0 DUP1 PUSH1 0x0 DUP1 PUSH1 0x0 DUP1 PUSH1 0xC0 DUP8 DUP10 SUB SLT ISZERO PUSH2 0xBD0 JUMPI PUSH1 0x0 DUP1 REVERT JUMPDEST POP POP DUP5 CALLDATALOAD SWAP7 PUSH1 0x20 DUP7 ADD CALLDATALOAD SWAP7 POP PUSH1 0x40 DUP7 ADD CALLDATALOAD SWAP6 PUSH1 0x60 DUP2 ADD CALLDATALOAD SWAP6 POP PUSH1 0x80 DUP2 ADD CALLDATALOAD SWAP5 POP PUSH1 0xA0 ADD CALLDATALOAD SWAP3 POP SWAP1 POP JUMP JUMPDEST PUSH1 0x20 DUP1 DUP3 MSTORE PUSH1 0x24 SWAP1 DUP3 ADD MSTORE PUSH32 0x5B7469636B6574496E636F6D653247726F75704C65616465725D206F76657266 PUSH1 0x40 DUP3 ADD MSTORE PUSH4 0x3637BB97 PUSH1 0xE1 SHL PUSH1 0x60 DUP3 ADD MSTORE PUSH1 0x80 ADD SWAP1 JUMP JUMPDEST PUSH1 0x20 DUP1 DUP3 MSTORE PUSH1 0x22 SWAP1 DUP3 ADD MSTORE PUSH32 0x5B726577617264506F6F6C3247726F75704D656D6265725D206F766572666C6F PUSH1 0x40 DUP3 ADD MSTORE PUSH2 0x3B97 PUSH1 0xF1 SHL PUSH1 0x60 DUP3 ADD MSTORE PUSH1 0x80 ADD SWAP1 JUMP JUMPDEST PUSH4 0x4E487B71 PUSH1 0xE0 SHL PUSH1 0x0 MSTORE PUSH1 0x11 PUSH1 0x4 MSTORE PUSH1 0x24 PUSH1 0x0 REVERT JUMPDEST DUP1 DUP3 MUL DUP2 ISZERO DUP3 DUP3 DIV DUP5 EQ OR PUSH2 0x2D6 JUMPI PUSH2 0x2D6 PUSH2 0xC80 JUMP JUMPDEST PUSH4 0x4E487B71 PUSH1 0xE0 SHL PUSH1 0x0 MSTORE PUSH1 0x12 PUSH1 0x4 MSTORE PUSH1 0x24 PUSH1 0x0 REVERT JUMPDEST PUSH1 0x0 DUP3 PUSH2 0xCE0 JUMPI PUSH4 0x4E487B71 PUSH1 0xE0 SHL PUSH1 0x0 MSTORE PUSH1 0x12 PUSH1 0x4 MSTORE PUSH1 0x24 PUSH1 0x0 REVERT JUMPDEST POP DIV SWAP1 JUMP JUMPDEST PUSH1 0x20 DUP1 DUP3 MSTORE PUSH1 0x24 SWAP1 DUP3 ADD MSTORE PUSH32 0x5B7469636B6574496E636F6D653247726F75704D656D6265725D206F76657266 PUSH1 0x40 DUP3 ADD MSTORE PUSH4 0x3637BB97 PUSH1 0xE1 SHL PUSH1 0x60 DUP3 ADD MSTORE PUSH1 0x80 ADD SWAP1 JUMP JUMPDEST PUSH1 0x0 PUSH1 0x1 DUP3 ADD PUSH2 0xD3B JUMPI PUSH2 0xD3B PUSH2 0xC80 JUMP JUMPDEST POP PUSH1 0x1 ADD SWAP1 JUMP JUMPDEST DUP2 DUP2 SUB DUP2 DUP2 GT ISZERO PUSH2 0x2D6 JUMPI PUSH2 0x2D6 PUSH2 0xC80 JUMP JUMPDEST PUSH1 0x20 DUP1 DUP3 MSTORE PUSH1 0x22 SWAP1 DUP3 ADD MSTORE PUSH32 0x5B726577617264506F6F6C3247726F75704C65616465725D206F766572666C6F PUSH1 0x40 DUP3 ADD MSTORE PUSH2 0x3B97 PUSH1 0xF1 SHL PUSH1 0x60 DUP3 ADD MSTORE PUSH1 0x80 ADD SWAP1 JUMP JUMPDEST PUSH1 0x20 DUP1 DUP3 MSTORE PUSH1 0x23 SWAP1 DUP3 ADD MSTORE PUSH32 0x5B7469636B6574496E636F6D6532526577617264506F6F6C5D206F766572666C PUSH1 0x40 DUP3 ADD MSTORE PUSH3 0x37BB97 PUSH1 0xE9 SHL PUSH1 0x60 DUP3 ADD MSTORE PUSH1 0x80 ADD SWAP1 JUMP INVALID 0x4E PUSH22 0x6D626572206F766572666C6F77206F63637572732077 PUSH9 0x656E2063616C63A264 PUSH10 0x70667358221220361325 0xDC 0xE2 0xB2 0xF7 CREATE DUP2 0x24 SWAP13 DIV SWAP6 0xE5 SELFDESTRUCT 0xAF 0xC2 MSIZE SWAP12 0x26 0xE2 0xCF GT 0x4A 0xBD PUSH11 0x1C664BCCE85764736F6C63 NUMBER STOP ADDMOD SLT STOP CALLER "
		},
		"gasEstimates": {
			"creation": {
				"codeDepositCost": "726400",
				"executionCost": "791",
				"totalCost": "727191"
			},
			"external": {
				"groupCreateMinFee()": "154",
				"groupCreateNFTMintFee()": "426",
				"joinGroupNFTMintFee(uint256,uint256,int256,int256,uint256,uint256)": "infinite",
				"rewardPool2AD3(uint256)": "555",
				"rewardPool2GroupLeader(uint256)": "622",
				"rewardPool2GroupMember(uint256,uint256)": "infinite",
				"taskCreateMinFee()": "164",
				"ticketIncome2GroupLeader(uint256)": "579",
				"ticketIncome2GroupMember(uint256,uint256)": "infinite",
				"ticketIncome2RewardPool(uint256)": "666",
				"ticketPrice(uint256,uint256,int256,int256,uint256,uint256)": "infinite"
			}
		},
		"methodIdentifiers": {
			"groupCreateMinFee()": "26d0a334",
			"groupCreateNFTMintFee()": "c060093f",
			"joinGroupNFTMintFee(uint256,uint256,int256,int256,uint256,uint256)": "6bc7b5fc",
			"rewardPool2AD3(uint256)": "9c829466",
			"rewardPool2GroupLeader(uint256)": "beb19a21",
			"rewardPool2GroupMember(uint256,uint256)": "3ed12ab7",
			"taskCreateMinFee()": "91096a3c",
			"ticketIncome2GroupLeader(uint256)": "2e26fb4a",
			"ticketIncome2GroupMember(uint256,uint256)": "84105419",
			"ticketIncome2RewardPool(uint256)": "e6ca2a8d",
			"ticketPrice(uint256,uint256,int256,int256,uint256,uint256)": "9b49380b"
		}
	},
	"abi": [
		{
			"anonymous": false,
			"inputs": [
				{
					"indexed": false,
					"internalType": "string",
					"name": "",
					"type": "string"
				},
				{
					"indexed": false,
					"internalType": "uint256",
					"name": "",
					"type": "uint256"
				}
			],
			"name": "LogUint256",
			"type": "event"
		},
		{
			"inputs": [],
			"name": "groupCreateMinFee",
			"outputs": [
				{
					"internalType": "uint256",
					"name": "money",
					"type": "uint256"
				}
			],
			"stateMutability": "pure",
			"type": "function"
		},
		{
			"inputs": [],
			"name": "groupCreateNFTMintFee",
			"outputs": [
				{
					"internalType": "uint256",
					"name": "money",
					"type": "uint256"
				}
			],
			"stateMutability": "pure",
			"type": "function"
		},
		{
			"inputs": [
				{
					"internalType": "uint256",
					"name": "ith",
					"type": "uint256"
				},
				{
					"internalType": "uint256",
					"name": "totalRewardPool",
					"type": "uint256"
				},
				{
					"internalType": "int256",
					"name": "firstGrpId",
					"type": "int256"
				},
				{
					"internalType": "int256",
					"name": "secondGrpId",
					"type": "int256"
				},
				{
					"internalType": "uint256",
					"name": "firstGrpPeopleNum",
					"type": "uint256"
				},
				{
					"internalType": "uint256",
					"name": "secondGrpPeopleNum",
					"type": "uint256"
				}
			],
			"name": "joinGroupNFTMintFee",
			"outputs": [
				{
					"internalType": "uint256",
					"name": "price",
					"type": "uint256"
				}
			],
			"stateMutability": "pure",
			"type": "function"
		},
		{
			"inputs": [
				{
					"internalType": "uint256",
					"name": "totalReward",
					"type": "uint256"
				}
			],
			"name": "rewardPool2AD3",
			"outputs": [
				{
					"internalType": "uint256",
					"name": "money",
					"type": "uint256"
				}
			],
			"stateMutability": "pure",
			"type": "function"
		},
		{
			"inputs": [
				{
					"internalType": "uint256",
					"name": "totalReward",
					"type": "uint256"
				}
			],
			"name": "rewardPool2GroupLeader",
			"outputs": [
				{
					"internalType": "uint256",
					"name": "money",
					"type": "uint256"
				}
			],
			"stateMutability": "pure",
			"type": "function"
		},
		{
			"inputs": [
				{
					"internalType": "uint256",
					"name": "totalReward",
					"type": "uint256"
				},
				{
					"internalType": "uint256",
					"name": "memNum",
					"type": "uint256"
				}
			],
			"name": "rewardPool2GroupMember",
			"outputs": [
				{
					"internalType": "uint256",
					"name": "money",
					"type": "uint256"
				}
			],
			"stateMutability": "pure",
			"type": "function"
		},
		{
			"inputs": [],
			"name": "taskCreateMinFee",
			"outputs": [
				{
					"internalType": "uint256",
					"name": "money",
					"type": "uint256"
				}
			],
			"stateMutability": "pure",
			"type": "function"
		},
		{
			"inputs": [
				{
					"internalType": "uint256",
					"name": "ticketIncome",
					"type": "uint256"
				}
			],
			"name": "ticketIncome2GroupLeader",
			"outputs": [
				{
					"internalType": "uint256",
					"name": "money",
					"type": "uint256"
				}
			],
			"stateMutability": "pure",
			"type": "function"
		},
		{
			"inputs": [
				{
					"internalType": "uint256",
					"name": "ticketIncome",
					"type": "uint256"
				},
				{
					"internalType": "uint256",
					"name": "memNum",
					"type": "uint256"
				}
			],
			"name": "ticketIncome2GroupMember",
			"outputs": [
				{
					"internalType": "uint256",
					"name": "money",
					"type": "uint256"
				}
			],
			"stateMutability": "pure",
			"type": "function"
		},
		{
			"inputs": [
				{
					"internalType": "uint256",
					"name": "ticketIncome",
					"type": "uint256"
				}
			],
			"name": "ticketIncome2RewardPool",
			"outputs": [
				{
					"internalType": "uint256",
					"name": "money",
					"type": "uint256"
				}
			],
			"stateMutability": "pure",
			"type": "function"
		},
		{
			"inputs": [
				{
					"internalType": "uint256",
					"name": "ith",
					"type": "uint256"
				},
				{
					"internalType": "uint256",
					"name": "totalRewardPool",
					"type": "uint256"
				},
				{
					"internalType": "int256",
					"name": "firstGrpId",
					"type": "int256"
				},
				{
					"internalType": "int256",
					"name": "secondGrpId",
					"type": "int256"
				},
				{
					"internalType": "uint256",
					"name": "firstGrpPeopleNum",
					"type": "uint256"
				},
				{
					"internalType": "uint256",
					"name": "secondGrpPeopleNum",
					"type": "uint256"
				}
			],
			"name": "ticketPrice",
			"outputs": [
				{
					"internalType": "uint256",
					"name": "price",
					"type": "uint256"
				}
			],
			"stateMutability": "pure",
			"type": "function"
		}
	]
}