{
	"data": {
		"bytecode": {
			"linkReferences": {},
			"object": "6109b161003a600b82828239805160001a60731461002d57634e487b7160e01b600052600060045260246000fd5b30600052607381538281f3fe730000000000000000000000000000000000000000301460806040526004361061006c5760003560e01c806326d0a334146100715780632e26fb4a1461008d578063627ca922146100a057806384105419146100b357806391096a3c146100c6578063e6ca2a8d146100d4575b600080fd5b670de0b6b3a76400005b60405190815260200160405180910390f35b61007b61009b3660046107bf565b6100e7565b61007b6100ae3660046107d8565b610155565b61007b6100c1366004610816565b610618565b678ac7230489e8000061007b565b61007b6100e23660046107bf565b6106c8565b600080806100f6846003610726565b9092509050816101215760405162461bcd60e51b815260040161011890610838565b60405180910390fd5b61012c816064610771565b90925090508161014e5760405162461bcd60e51b815260040161011890610838565b9392505050565b600060018060005b60028110156101ea576101708288610726565b9093509150826101d8576040805162461bcd60e51b815260206004820152602481019190915260008051602061095c83398151915260448201527f756c617465207469636b657420707269636520696e20692a2a5f616c7068612e6064820152608401610118565b806101e281610892565b91505061015d565b506101f681600a610726565b90925090508161026b5760405162461bcd60e51b8152602060048201526046602482015260008051602061095c83398151915260448201527f756c617465207469636b657420707269636520696e205f626574612a692a2a5f60648201526530b63834309760d11b608482015260a401610118565b610276816064610771565b9092509050816102f85760405162461bcd60e51b8152602060048201526053602482015260008051602061095c83398151915260448201527f756c617465207469636b657420707269636520696e205f626574612f5f64656e60648201527237b6b4b730ba37b9153495152fb0b63834309760691b608482015260a401610118565b61030a81670de0b6b3a7640000610726565b9092509050816103965760405162461bcd60e51b815260206004820152605c602482015260008051602061095c83398151915260448201527f756c617465207469636b657420707269636520696e20285f626574612f5f646560648201527f6e6f6d696e61746f722a692a2a5f616c706861292a31302a2a31382e00000000608482015260a401610118565b6103a781662386f26fc100006107a4565b9092509050816104335760405162461bcd60e51b815260206004820152605b602482015260008051602061095c83398151915260448201527f756c617465207469636b657420707269636520696e205f626574612f5f64656e60648201527f6f6d696e61746f722a692a2a5f616c706861202b2067616d6d612e0000000000608482015260a401610118565b831561060f57600061044686600a610726565b9093509050826104da5760405162461bcd60e51b815260206004820152605360248201527f4e756d626572206f766572666c6f77206f6363757273207768656e2028666c6160448201527f672c20657874726146656529203d20536166654d6174682e7472794d756c28746064820152726f74616c526577617264506f6f6c2c205f702960681b608482015260a401610118565b6104e5816064610771565b90935090508261057c5760405162461bcd60e51b815260206004820152605660248201527f4e756d626572206f766572666c6f77206f6363757273207768656e2028666c6160448201527f672c20657874726146656529203d20536166654d6174682e7472794469762865606482015275787472614665652c205f64656e6f6d696e61746f722960501b608482015260a401610118565b61058682826107a4565b90935091508261060d5760405162461bcd60e51b815260206004820152604660248201527f4e756d626572206f766572666c6f77206f6363757273207768656e2028666c6160448201527f672c20747029203d20536166654d6174682e7472794164642874702c2065787460648201526572614665652960d01b608482015260a401610118565b505b95945050505050565b6000806032610629600360646108ab565b61063391906108ab565b90506000806106428684610726565b9092509050816106645760405162461bcd60e51b8152600401610118906108be565b61066f816064610771565b9092509050816106915760405162461bcd60e51b8152600401610118906108be565b61069b8186610771565b9092509050816106bd5760405162461bcd60e51b8152600401610118906108be565b925050505b92915050565b600080806106d7846032610726565b9092509050816106f95760405162461bcd60e51b815260040161011890610902565b610704816064610771565b90925090508161014e5760405162461bcd60e51b815260040161011890610902565b6000808360000361073d575060019050600061076a565b8383028385828161075057610750610945565b041461076357600080925092505061076a565b6001925090505b9250929050565b600080826000036107875750600090508061076a565b600183858161079857610798610945565b04915091509250929050565b6000808383018481101561076357600080925092505061076a565b6000602082840312156107d157600080fd5b5035919050565b6000806000606084860312156107ed57600080fd5b83359250602084013591506040840135801515811461080b57600080fd5b809150509250925092565b6000806040838503121561082957600080fd5b50508035926020909101359150565b60208082526024908201527f5b7469636b6574496e636f6d653247726f75704c65616465725d206f766572666040820152633637bb9760e11b606082015260800190565b634e487b7160e01b600052601160045260246000fd5b6000600182016108a4576108a461087c565b5060010190565b818103818111156106c2576106c261087c565b60208082526024908201527f5b7469636b6574496e636f6d653247726f75704d656d6265725d206f766572666040820152633637bb9760e11b606082015260800190565b60208082526023908201527f5b7469636b6574496e636f6d6532526577617264506f6f6c5d206f766572666c60408201526237bb9760e91b606082015260800190565b634e487b7160e01b600052601260045260246000fdfe4e756d626572206f766572666c6f77206f6363757273207768656e2063616c63a264697066735822122004252f745bece115bc63c40260c054f77dfb48935d01ae56b40bf744159c362064736f6c63430008120033",
			"opcodes": "PUSH2 0x9B1 PUSH2 0x3A PUSH1 0xB DUP3 DUP3 DUP3 CODECOPY DUP1 MLOAD PUSH1 0x0 BYTE PUSH1 0x73 EQ PUSH2 0x2D JUMPI PUSH4 0x4E487B71 PUSH1 0xE0 SHL PUSH1 0x0 MSTORE PUSH1 0x0 PUSH1 0x4 MSTORE PUSH1 0x24 PUSH1 0x0 REVERT JUMPDEST ADDRESS PUSH1 0x0 MSTORE PUSH1 0x73 DUP2 MSTORE8 DUP3 DUP2 RETURN INVALID PUSH20 0x0 ADDRESS EQ PUSH1 0x80 PUSH1 0x40 MSTORE PUSH1 0x4 CALLDATASIZE LT PUSH2 0x6C JUMPI PUSH1 0x0 CALLDATALOAD PUSH1 0xE0 SHR DUP1 PUSH4 0x26D0A334 EQ PUSH2 0x71 JUMPI DUP1 PUSH4 0x2E26FB4A EQ PUSH2 0x8D JUMPI DUP1 PUSH4 0x627CA922 EQ PUSH2 0xA0 JUMPI DUP1 PUSH4 0x84105419 EQ PUSH2 0xB3 JUMPI DUP1 PUSH4 0x91096A3C EQ PUSH2 0xC6 JUMPI DUP1 PUSH4 0xE6CA2A8D EQ PUSH2 0xD4 JUMPI JUMPDEST PUSH1 0x0 DUP1 REVERT JUMPDEST PUSH8 0xDE0B6B3A7640000 JUMPDEST PUSH1 0x40 MLOAD SWAP1 DUP2 MSTORE PUSH1 0x20 ADD PUSH1 0x40 MLOAD DUP1 SWAP2 SUB SWAP1 RETURN JUMPDEST PUSH2 0x7B PUSH2 0x9B CALLDATASIZE PUSH1 0x4 PUSH2 0x7BF JUMP JUMPDEST PUSH2 0xE7 JUMP JUMPDEST PUSH2 0x7B PUSH2 0xAE CALLDATASIZE PUSH1 0x4 PUSH2 0x7D8 JUMP JUMPDEST PUSH2 0x155 JUMP JUMPDEST PUSH2 0x7B PUSH2 0xC1 CALLDATASIZE PUSH1 0x4 PUSH2 0x816 JUMP JUMPDEST PUSH2 0x618 JUMP JUMPDEST PUSH8 0x8AC7230489E80000 PUSH2 0x7B JUMP JUMPDEST PUSH2 0x7B PUSH2 0xE2 CALLDATASIZE PUSH1 0x4 PUSH2 0x7BF JUMP JUMPDEST PUSH2 0x6C8 JUMP JUMPDEST PUSH1 0x0 DUP1 DUP1 PUSH2 0xF6 DUP5 PUSH1 0x3 PUSH2 0x726 JUMP JUMPDEST SWAP1 SWAP3 POP SWAP1 POP DUP2 PUSH2 0x121 JUMPI PUSH1 0x40 MLOAD PUSH3 0x461BCD PUSH1 0xE5 SHL DUP2 MSTORE PUSH1 0x4 ADD PUSH2 0x118 SWAP1 PUSH2 0x838 JUMP JUMPDEST PUSH1 0x40 MLOAD DUP1 SWAP2 SUB SWAP1 REVERT JUMPDEST PUSH2 0x12C DUP2 PUSH1 0x64 PUSH2 0x771 JUMP JUMPDEST SWAP1 SWAP3 POP SWAP1 POP DUP2 PUSH2 0x14E JUMPI PUSH1 0x40 MLOAD PUSH3 0x461BCD PUSH1 0xE5 SHL DUP2 MSTORE PUSH1 0x4 ADD PUSH2 0x118 SWAP1 PUSH2 0x838 JUMP JUMPDEST SWAP4 SWAP3 POP POP POP JUMP JUMPDEST PUSH1 0x0 PUSH1 0x1 DUP1 PUSH1 0x0 JUMPDEST PUSH1 0x2 DUP2 LT ISZERO PUSH2 0x1EA JUMPI PUSH2 0x170 DUP3 DUP9 PUSH2 0x726 JUMP JUMPDEST SWAP1 SWAP4 POP SWAP2 POP DUP3 PUSH2 0x1D8 JUMPI PUSH1 0x40 DUP1 MLOAD PUSH3 0x461BCD PUSH1 0xE5 SHL DUP2 MSTORE PUSH1 0x20 PUSH1 0x4 DUP3 ADD MSTORE PUSH1 0x24 DUP2 ADD SWAP2 SWAP1 SWAP2 MSTORE PUSH1 0x0 DUP1 MLOAD PUSH1 0x20 PUSH2 0x95C DUP4 CODECOPY DUP2 MLOAD SWAP2 MSTORE PUSH1 0x44 DUP3 ADD MSTORE PUSH32 0x756C617465207469636B657420707269636520696E20692A2A5F616C7068612E PUSH1 0x64 DUP3 ADD MSTORE PUSH1 0x84 ADD PUSH2 0x118 JUMP JUMPDEST DUP1 PUSH2 0x1E2 DUP2 PUSH2 0x892 JUMP JUMPDEST SWAP2 POP POP PUSH2 0x15D JUMP JUMPDEST POP PUSH2 0x1F6 DUP2 PUSH1 0xA PUSH2 0x726 JUMP JUMPDEST SWAP1 SWAP3 POP SWAP1 POP DUP2 PUSH2 0x26B JUMPI PUSH1 0x40 MLOAD PUSH3 0x461BCD PUSH1 0xE5 SHL DUP2 MSTORE PUSH1 0x20 PUSH1 0x4 DUP3 ADD MSTORE PUSH1 0x46 PUSH1 0x24 DUP3 ADD MSTORE PUSH1 0x0 DUP1 MLOAD PUSH1 0x20 PUSH2 0x95C DUP4 CODECOPY DUP2 MLOAD SWAP2 MSTORE PUSH1 0x44 DUP3 ADD MSTORE PUSH32 0x756C617465207469636B657420707269636520696E205F626574612A692A2A5F PUSH1 0x64 DUP3 ADD MSTORE PUSH6 0x30B638343097 PUSH1 0xD1 SHL PUSH1 0x84 DUP3 ADD MSTORE PUSH1 0xA4 ADD PUSH2 0x118 JUMP JUMPDEST PUSH2 0x276 DUP2 PUSH1 0x64 PUSH2 0x771 JUMP JUMPDEST SWAP1 SWAP3 POP SWAP1 POP DUP2 PUSH2 0x2F8 JUMPI PUSH1 0x40 MLOAD PUSH3 0x461BCD PUSH1 0xE5 SHL DUP2 MSTORE PUSH1 0x20 PUSH1 0x4 DUP3 ADD MSTORE PUSH1 0x53 PUSH1 0x24 DUP3 ADD MSTORE PUSH1 0x0 DUP1 MLOAD PUSH1 0x20 PUSH2 0x95C DUP4 CODECOPY DUP2 MLOAD SWAP2 MSTORE PUSH1 0x44 DUP3 ADD MSTORE PUSH32 0x756C617465207469636B657420707269636520696E205F626574612F5F64656E PUSH1 0x64 DUP3 ADD MSTORE PUSH19 0x37B6B4B730BA37B9153495152FB0B638343097 PUSH1 0x69 SHL PUSH1 0x84 DUP3 ADD MSTORE PUSH1 0xA4 ADD PUSH2 0x118 JUMP JUMPDEST PUSH2 0x30A DUP2 PUSH8 0xDE0B6B3A7640000 PUSH2 0x726 JUMP JUMPDEST SWAP1 SWAP3 POP SWAP1 POP DUP2 PUSH2 0x396 JUMPI PUSH1 0x40 MLOAD PUSH3 0x461BCD PUSH1 0xE5 SHL DUP2 MSTORE PUSH1 0x20 PUSH1 0x4 DUP3 ADD MSTORE PUSH1 0x5C PUSH1 0x24 DUP3 ADD MSTORE PUSH1 0x0 DUP1 MLOAD PUSH1 0x20 PUSH2 0x95C DUP4 CODECOPY DUP2 MLOAD SWAP2 MSTORE PUSH1 0x44 DUP3 ADD MSTORE PUSH32 0x756C617465207469636B657420707269636520696E20285F626574612F5F6465 PUSH1 0x64 DUP3 ADD MSTORE PUSH32 0x6E6F6D696E61746F722A692A2A5F616C706861292A31302A2A31382E00000000 PUSH1 0x84 DUP3 ADD MSTORE PUSH1 0xA4 ADD PUSH2 0x118 JUMP JUMPDEST PUSH2 0x3A7 DUP2 PUSH7 0x2386F26FC10000 PUSH2 0x7A4 JUMP JUMPDEST SWAP1 SWAP3 POP SWAP1 POP DUP2 PUSH2 0x433 JUMPI PUSH1 0x40 MLOAD PUSH3 0x461BCD PUSH1 0xE5 SHL DUP2 MSTORE PUSH1 0x20 PUSH1 0x4 DUP3 ADD MSTORE PUSH1 0x5B PUSH1 0x24 DUP3 ADD MSTORE PUSH1 0x0 DUP1 MLOAD PUSH1 0x20 PUSH2 0x95C DUP4 CODECOPY DUP2 MLOAD SWAP2 MSTORE PUSH1 0x44 DUP3 ADD MSTORE PUSH32 0x756C617465207469636B657420707269636520696E205F626574612F5F64656E PUSH1 0x64 DUP3 ADD MSTORE PUSH32 0x6F6D696E61746F722A692A2A5F616C706861202B2067616D6D612E0000000000 PUSH1 0x84 DUP3 ADD MSTORE PUSH1 0xA4 ADD PUSH2 0x118 JUMP JUMPDEST DUP4 ISZERO PUSH2 0x60F JUMPI PUSH1 0x0 PUSH2 0x446 DUP7 PUSH1 0xA PUSH2 0x726 JUMP JUMPDEST SWAP1 SWAP4 POP SWAP1 POP DUP3 PUSH2 0x4DA JUMPI PUSH1 0x40 MLOAD PUSH3 0x461BCD PUSH1 0xE5 SHL DUP2 MSTORE PUSH1 0x20 PUSH1 0x4 DUP3 ADD MSTORE PUSH1 0x53 PUSH1 0x24 DUP3 ADD MSTORE PUSH32 0x4E756D626572206F766572666C6F77206F6363757273207768656E2028666C61 PUSH1 0x44 DUP3 ADD MSTORE PUSH32 0x672C20657874726146656529203D20536166654D6174682E7472794D756C2874 PUSH1 0x64 DUP3 ADD MSTORE PUSH19 0x6F74616C526577617264506F6F6C2C205F7029 PUSH1 0x68 SHL PUSH1 0x84 DUP3 ADD MSTORE PUSH1 0xA4 ADD PUSH2 0x118 JUMP JUMPDEST PUSH2 0x4E5 DUP2 PUSH1 0x64 PUSH2 0x771 JUMP JUMPDEST SWAP1 SWAP4 POP SWAP1 POP DUP3 PUSH2 0x57C JUMPI PUSH1 0x40 MLOAD PUSH3 0x461BCD PUSH1 0xE5 SHL DUP2 MSTORE PUSH1 0x20 PUSH1 0x4 DUP3 ADD MSTORE PUSH1 0x56 PUSH1 0x24 DUP3 ADD MSTORE PUSH32 0x4E756D626572206F766572666C6F77206F6363757273207768656E2028666C61 PUSH1 0x44 DUP3 ADD MSTORE PUSH32 0x672C20657874726146656529203D20536166654D6174682E7472794469762865 PUSH1 0x64 DUP3 ADD MSTORE PUSH22 0x787472614665652C205F64656E6F6D696E61746F7229 PUSH1 0x50 SHL PUSH1 0x84 DUP3 ADD MSTORE PUSH1 0xA4 ADD PUSH2 0x118 JUMP JUMPDEST PUSH2 0x586 DUP3 DUP3 PUSH2 0x7A4 JUMP JUMPDEST SWAP1 SWAP4 POP SWAP2 POP DUP3 PUSH2 0x60D JUMPI PUSH1 0x40 MLOAD PUSH3 0x461BCD PUSH1 0xE5 SHL DUP2 MSTORE PUSH1 0x20 PUSH1 0x4 DUP3 ADD MSTORE PUSH1 0x46 PUSH1 0x24 DUP3 ADD MSTORE PUSH32 0x4E756D626572206F766572666C6F77206F6363757273207768656E2028666C61 PUSH1 0x44 DUP3 ADD MSTORE PUSH32 0x672C20747029203D20536166654D6174682E7472794164642874702C20657874 PUSH1 0x64 DUP3 ADD MSTORE PUSH6 0x726146656529 PUSH1 0xD0 SHL PUSH1 0x84 DUP3 ADD MSTORE PUSH1 0xA4 ADD PUSH2 0x118 JUMP JUMPDEST POP JUMPDEST SWAP6 SWAP5 POP POP POP POP POP JUMP JUMPDEST PUSH1 0x0 DUP1 PUSH1 0x32 PUSH2 0x629 PUSH1 0x3 PUSH1 0x64 PUSH2 0x8AB JUMP JUMPDEST PUSH2 0x633 SWAP2 SWAP1 PUSH2 0x8AB JUMP JUMPDEST SWAP1 POP PUSH1 0x0 DUP1 PUSH2 0x642 DUP7 DUP5 PUSH2 0x726 JUMP JUMPDEST SWAP1 SWAP3 POP SWAP1 POP DUP2 PUSH2 0x664 JUMPI PUSH1 0x40 MLOAD PUSH3 0x461BCD PUSH1 0xE5 SHL DUP2 MSTORE PUSH1 0x4 ADD PUSH2 0x118 SWAP1 PUSH2 0x8BE JUMP JUMPDEST PUSH2 0x66F DUP2 PUSH1 0x64 PUSH2 0x771 JUMP JUMPDEST SWAP1 SWAP3 POP SWAP1 POP DUP2 PUSH2 0x691 JUMPI PUSH1 0x40 MLOAD PUSH3 0x461BCD PUSH1 0xE5 SHL DUP2 MSTORE PUSH1 0x4 ADD PUSH2 0x118 SWAP1 PUSH2 0x8BE JUMP JUMPDEST PUSH2 0x69B DUP2 DUP7 PUSH2 0x771 JUMP JUMPDEST SWAP1 SWAP3 POP SWAP1 POP DUP2 PUSH2 0x6BD JUMPI PUSH1 0x40 MLOAD PUSH3 0x461BCD PUSH1 0xE5 SHL DUP2 MSTORE PUSH1 0x4 ADD PUSH2 0x118 SWAP1 PUSH2 0x8BE JUMP JUMPDEST SWAP3 POP POP POP JUMPDEST SWAP3 SWAP2 POP POP JUMP JUMPDEST PUSH1 0x0 DUP1 DUP1 PUSH2 0x6D7 DUP5 PUSH1 0x32 PUSH2 0x726 JUMP JUMPDEST SWAP1 SWAP3 POP SWAP1 POP DUP2 PUSH2 0x6F9 JUMPI PUSH1 0x40 MLOAD PUSH3 0x461BCD PUSH1 0xE5 SHL DUP2 MSTORE PUSH1 0x4 ADD PUSH2 0x118 SWAP1 PUSH2 0x902 JUMP JUMPDEST PUSH2 0x704 DUP2 PUSH1 0x64 PUSH2 0x771 JUMP JUMPDEST SWAP1 SWAP3 POP SWAP1 POP DUP2 PUSH2 0x14E JUMPI PUSH1 0x40 MLOAD PUSH3 0x461BCD PUSH1 0xE5 SHL DUP2 MSTORE PUSH1 0x4 ADD PUSH2 0x118 SWAP1 PUSH2 0x902 JUMP JUMPDEST PUSH1 0x0 DUP1 DUP4 PUSH1 0x0 SUB PUSH2 0x73D JUMPI POP PUSH1 0x1 SWAP1 POP PUSH1 0x0 PUSH2 0x76A JUMP JUMPDEST DUP4 DUP4 MUL DUP4 DUP6 DUP3 DUP2 PUSH2 0x750 JUMPI PUSH2 0x750 PUSH2 0x945 JUMP JUMPDEST DIV EQ PUSH2 0x763 JUMPI PUSH1 0x0 DUP1 SWAP3 POP SWAP3 POP POP PUSH2 0x76A JUMP JUMPDEST PUSH1 0x1 SWAP3 POP SWAP1 POP JUMPDEST SWAP3 POP SWAP3 SWAP1 POP JUMP JUMPDEST PUSH1 0x0 DUP1 DUP3 PUSH1 0x0 SUB PUSH2 0x787 JUMPI POP PUSH1 0x0 SWAP1 POP DUP1 PUSH2 0x76A JUMP JUMPDEST PUSH1 0x1 DUP4 DUP6 DUP2 PUSH2 0x798 JUMPI PUSH2 0x798 PUSH2 0x945 JUMP JUMPDEST DIV SWAP2 POP SWAP2 POP SWAP3 POP SWAP3 SWAP1 POP JUMP JUMPDEST PUSH1 0x0 DUP1 DUP4 DUP4 ADD DUP5 DUP2 LT ISZERO PUSH2 0x763 JUMPI PUSH1 0x0 DUP1 SWAP3 POP SWAP3 POP POP PUSH2 0x76A JUMP JUMPDEST PUSH1 0x0 PUSH1 0x20 DUP3 DUP5 SUB SLT ISZERO PUSH2 0x7D1 JUMPI PUSH1 0x0 DUP1 REVERT JUMPDEST POP CALLDATALOAD SWAP2 SWAP1 POP JUMP JUMPDEST PUSH1 0x0 DUP1 PUSH1 0x0 PUSH1 0x60 DUP5 DUP7 SUB SLT ISZERO PUSH2 0x7ED JUMPI PUSH1 0x0 DUP1 REVERT JUMPDEST DUP4 CALLDATALOAD SWAP3 POP PUSH1 0x20 DUP5 ADD CALLDATALOAD SWAP2 POP PUSH1 0x40 DUP5 ADD CALLDATALOAD DUP1 ISZERO ISZERO DUP2 EQ PUSH2 0x80B JUMPI PUSH1 0x0 DUP1 REVERT JUMPDEST DUP1 SWAP2 POP POP SWAP3 POP SWAP3 POP SWAP3 JUMP JUMPDEST PUSH1 0x0 DUP1 PUSH1 0x40 DUP4 DUP6 SUB SLT ISZERO PUSH2 0x829 JUMPI PUSH1 0x0 DUP1 REVERT JUMPDEST POP POP DUP1 CALLDATALOAD SWAP3 PUSH1 0x20 SWAP1 SWAP2 ADD CALLDATALOAD SWAP2 POP JUMP JUMPDEST PUSH1 0x20 DUP1 DUP3 MSTORE PUSH1 0x24 SWAP1 DUP3 ADD MSTORE PUSH32 0x5B7469636B6574496E636F6D653247726F75704C65616465725D206F76657266 PUSH1 0x40 DUP3 ADD MSTORE PUSH4 0x3637BB97 PUSH1 0xE1 SHL PUSH1 0x60 DUP3 ADD MSTORE PUSH1 0x80 ADD SWAP1 JUMP JUMPDEST PUSH4 0x4E487B71 PUSH1 0xE0 SHL PUSH1 0x0 MSTORE PUSH1 0x11 PUSH1 0x4 MSTORE PUSH1 0x24 PUSH1 0x0 REVERT JUMPDEST PUSH1 0x0 PUSH1 0x1 DUP3 ADD PUSH2 0x8A4 JUMPI PUSH2 0x8A4 PUSH2 0x87C JUMP JUMPDEST POP PUSH1 0x1 ADD SWAP1 JUMP JUMPDEST DUP2 DUP2 SUB DUP2 DUP2 GT ISZERO PUSH2 0x6C2 JUMPI PUSH2 0x6C2 PUSH2 0x87C JUMP JUMPDEST PUSH1 0x20 DUP1 DUP3 MSTORE PUSH1 0x24 SWAP1 DUP3 ADD MSTORE PUSH32 0x5B7469636B6574496E636F6D653247726F75704D656D6265725D206F76657266 PUSH1 0x40 DUP3 ADD MSTORE PUSH4 0x3637BB97 PUSH1 0xE1 SHL PUSH1 0x60 DUP3 ADD MSTORE PUSH1 0x80 ADD SWAP1 JUMP JUMPDEST PUSH1 0x20 DUP1 DUP3 MSTORE PUSH1 0x23 SWAP1 DUP3 ADD MSTORE PUSH32 0x5B7469636B6574496E636F6D6532526577617264506F6F6C5D206F766572666C PUSH1 0x40 DUP3 ADD MSTORE PUSH3 0x37BB97 PUSH1 0xE9 SHL PUSH1 0x60 DUP3 ADD MSTORE PUSH1 0x80 ADD SWAP1 JUMP JUMPDEST PUSH4 0x4E487B71 PUSH1 0xE0 SHL PUSH1 0x0 MSTORE PUSH1 0x12 PUSH1 0x4 MSTORE PUSH1 0x24 PUSH1 0x0 REVERT INVALID 0x4E PUSH22 0x6D626572206F766572666C6F77206F63637572732077 PUSH9 0x656E2063616C63A264 PUSH10 0x7066735822122004252F PUSH21 0x5BECE115BC63C40260C054F77DFB48935D01AE56B4 SIGNEXTEND 0xF7 PREVRANDAO ISZERO SWAP13 CALLDATASIZE KECCAK256 PUSH5 0x736F6C6343 STOP ADDMOD SLT STOP CALLER "
		},
		"gasEstimates": {
			"creation": {
				"codeDepositCost": "496200",
				"executionCost": "561",
				"totalCost": "496761"
			},
			"external": {
				"groupCreateMinFee()": "131",
				"taskCreateMinFee()": "230",
				"ticketIncome2GroupLeader(uint256)": "556",
				"ticketIncome2GroupMember(uint256,uint256)": "infinite",
				"ticketIncome2RewardPool(uint256)": "644",
				"ticketPrice(uint256,uint256,bool)": "infinite"
			}
		},
		"methodIdentifiers": {
			"groupCreateMinFee()": "26d0a334",
			"taskCreateMinFee()": "91096a3c",
			"ticketIncome2GroupLeader(uint256)": "2e26fb4a",
			"ticketIncome2GroupMember(uint256,uint256)": "84105419",
			"ticketIncome2RewardPool(uint256)": "e6ca2a8d",
			"ticketPrice(uint256,uint256,bool)": "627ca922"
		}
	},
	"abi": [
		{
			"inputs": [],
			"name": "groupCreateMinFee",
			"outputs": [
				{
					"internalType": "uint256",
					"name": "money",
					"type": "uint256"
				}
			],
			"stateMutability": "pure",
			"type": "function"
		},
		{
			"inputs": [],
			"name": "taskCreateMinFee",
			"outputs": [
				{
					"internalType": "uint256",
					"name": "money",
					"type": "uint256"
				}
			],
			"stateMutability": "pure",
			"type": "function"
		},
		{
			"inputs": [
				{
					"internalType": "uint256",
					"name": "ticketIncome",
					"type": "uint256"
				}
			],
			"name": "ticketIncome2GroupLeader",
			"outputs": [
				{
					"internalType": "uint256",
					"name": "money",
					"type": "uint256"
				}
			],
			"stateMutability": "pure",
			"type": "function"
		},
		{
			"inputs": [
				{
					"internalType": "uint256",
					"name": "ticketIncome",
					"type": "uint256"
				},
				{
					"internalType": "uint256",
					"name": "memNum",
					"type": "uint256"
				}
			],
			"name": "ticketIncome2GroupMember",
			"outputs": [
				{
					"internalType": "uint256",
					"name": "money",
					"type": "uint256"
				}
			],
			"stateMutability": "pure",
			"type": "function"
		},
		{
			"inputs": [
				{
					"internalType": "uint256",
					"name": "ticketIncome",
					"type": "uint256"
				}
			],
			"name": "ticketIncome2RewardPool",
			"outputs": [
				{
					"internalType": "uint256",
					"name": "money",
					"type": "uint256"
				}
			],
			"stateMutability": "pure",
			"type": "function"
		},
		{
			"inputs": [
				{
					"internalType": "uint256",
					"name": "ith",
					"type": "uint256"
				},
				{
					"internalType": "uint256",
					"name": "totalRewardPool",
					"type": "uint256"
				},
				{
					"internalType": "bool",
					"name": "isMonopolyPenalty",
					"type": "bool"
				}
			],
			"name": "ticketPrice",
			"outputs": [
				{
					"internalType": "uint256",
					"name": "price",
					"type": "uint256"
				}
			],
			"stateMutability": "pure",
			"type": "function"
		}
	]
}