{
	"data": {
		"bytecode": {
			"linkReferences": {
				"degen/DegenMoneyLib.sol": {
					"DegenMoneyLib": [
						{
							"length": 20,
							"start": 2346
						},
						{
							"length": 20,
							"start": 2478
						},
						{
							"length": 20,
							"start": 4597
						},
						{
							"length": 20,
							"start": 4778
						},
						{
							"length": 20,
							"start": 5075
						},
						{
							"length": 20,
							"start": 5429
						},
						{
							"length": 20,
							"start": 5618
						},
						{
							"length": 20,
							"start": 6703
						},
						{
							"length": 20,
							"start": 7043
						},
						{
							"length": 20,
							"start": 7340
						},
						{
							"length": 20,
							"start": 7538
						},
						{
							"length": 20,
							"start": 8856
						},
						{
							"length": 20,
							"start": 9611
						},
						{
							"length": 20,
							"start": 10037
						},
						{
							"length": 20,
							"start": 10112
						},
						{
							"length": 20,
							"start": 10369
						},
						{
							"length": 20,
							"start": 11988
						}
					]
				}
			},
			"object": "60806040523480156200001157600080fd5b5030604051620000219062000105565b6060808252600c908201526b111959d95b95185cdad3919560a21b608082015260a06020820181905260039082015262222a2760e91b60c08201526001600160a01b03909116604082015260e001604051809103906000f0801580156200008c573d6000803e3d6000fd5b50600280546001600160a01b03929092166001600160a01b0319928316811790915560018054831673d9145cce52d386f254917e481eb44e9943f39138179055600080549092163317825560405190917f36e0cecd47d60048a7940b163beb84f5eb86cfe9589e5f2ab049790ce90f08f091a262000113565b611ba98062003c3783390190565b613b1480620001236000396000f3fe6080604052600436106101c25760003560e01c80637c88b116116100f7578063cc9a13d111610095578063e55756f411610064578063e55756f41461058b578063e8779f87146105c6578063ef91626f146105e6578063f2e99c521461060657600080fd5b8063cc9a13d114610513578063ce523bb414610528578063df05cb9514610558578063e367fc6a1461057857600080fd5b8063a4ea8cb9116100d1578063a4ea8cb914610479578063a4ed117214610499578063aba67111146104c6578063ac763f3a146104db57600080fd5b80637c88b116146104095780638596206e146104295780638c9463c81461045957600080fd5b80635de274f611610164578063643944961161013e57806364394496146103405780636515d6c11461036d57806365919f621461038d5780636927718a146103e957600080fd5b80635de274f6146102cb5780636115786d146102e0578063631411771461030057600080fd5b80633461fa18116101a05780633461fa181461022f5780633fabc7601461024f5780634965f5251461027c57806356755b131461029e57600080fd5b8063059378ea146101c757806311e3f178146101ed5780631a0c750c1461021c575b600080fd5b6101da6101d5366004613206565b610636565b6040519081526020015b60405180910390f35b3480156101f957600080fd5b5061020d610208366004613270565b610a5f565b6040516101e4939291906132c6565b6101da61022a366004613309565b610cab565b34801561023b57600080fd5b506101da61024a366004613309565b6113a5565b34801561025b57600080fd5b506101da61026a36600461332b565b60009081526005602052604090205490565b34801561028857600080fd5b5061029c610297366004613344565b611568565b005b3480156102aa57600080fd5b506102be6102b936600461332b565b611866565b6040516101e491906133d0565b3480156102d757600080fd5b506101da611908565b3480156102ec57600080fd5b5061029c6102fb36600461332b565b61197c565b34801561030c57600080fd5b5061032061031b36600461332b565b611e05565b6040805194855260208501939093529183015260608201526080016101e4565b34801561034c57600080fd5b506101da61035b36600461332b565b6000908152600b602052604090205490565b34801561037957600080fd5b5061029c6103883660046133e3565b611f2f565b34801561039957600080fd5b506103d16103a8366004613309565b6000918252600c602090815260408084209284529190529020600301546001600160a01b031690565b6040516001600160a01b0390911681526020016101e4565b3480156103f557600080fd5b506101da61040436600461332b565b61215a565b34801561041557600080fd5b506102be610424366004613309565b6121da565b34801561043557600080fd5b506101da61044436600461332b565b6000908152600a602052604090206009015490565b34801561046557600080fd5b506101da61047436600461332b565b612288565b34801561048557600080fd5b506101da610494366004613309565b6123fb565b3480156104a557600080fd5b506104b96104b436600461332b565b61252c565b6040516101e4919061340f565b3480156104d257600080fd5b506101da61260e565b3480156104e757600080fd5b506101da6104f6366004613309565b6000918252600d6020908152604080842092845291905290205490565b34801561051f57600080fd5b506101da612659565b34801561053457600080fd5b5061054861054336600461332b565b6126a4565b60405190151581526020016101e4565b34801561056457600080fd5b506101da610573366004613309565b61270a565b6101da610586366004613422565b6127f9565b34801561059757600080fd5b506101da6105a6366004613309565b6000918252600c6020908152604080842092845291905290206005015490565b3480156105d257600080fd5b506105486105e1366004613309565b612ecb565b3480156105f257600080fd5b506101da61060136600461332b565b612f1b565b34801561061257600080fd5b506101da61062136600461332b565b6000908152600a602052604090206008015490565b600033803b80156106625760405162461bcd60e51b815260040161065990613467565b60405180910390fd5b6001546001600160a01b03166323b872dd333061067d61260e565b6040518463ffffffff1660e01b815260040161069b93929190613492565b6020604051808303816000875af11580156106ba573d6000803e3d6000fd5b505050506040513d601f19601f820116820180604052508101906106de91906134b6565b6106ee6106e961260e565b612fc4565b6040516020016106fe91906134d8565b6040516020818303038152906040529061072b5760405162461bcd60e51b815260040161065991906133d0565b50600061073760095490565b9050610747600980546001019055565b604080516101608101825288815260208082018490523382840181905260009081526007909152918220805460608301919061078290613529565b80601f01602080910402602001604051908101604052809291908181526020018280546107ae90613529565b80156107fb5780601f106107d0576101008083540402835291602001916107fb565b820191906000526020600020905b8154815290600101906020018083116107de57829003601f168201915b5050505050815260200173__$1b02779ce4c7319347a3ba86362535d9c3$__6391096a3c6040518163ffffffff1660e01b8152600401602060405180830381865af415801561084e573d6000803e3d6000fd5b505050506040513d601f19601f820116820180604052508101906108729190613563565b815260200142815260200188815260200187815260200173__$1b02779ce4c7319347a3ba86362535d9c3$__6391096a3c6040518163ffffffff1660e01b8152600401602060405180830381865af41580156108d2573d6000803e3d6000fd5b505050506040513d601f19601f820116820180604052508101906108f69190613563565b8152600060208083018290526040928301829052858252600a90522081519192508291819061092590826135ca565b506020820151600182015560408201516002820180546001600160a01b0319166001600160a01b039092169190911790556060820151600382019061096a90826135ca565b506080820151600482015560a0820151600582015560c0820151600682015560e082015160078201556101008201516008820155610120820151600982015561014090910151600a909101805460ff191691151591909117905560608101516040516109d6919061368a565b604051809103902081604001516001600160a01b031682602001517f476d61a9a3f67126b2084f6f60470bf31711253f8f316559bbd1e5b06713d88884608001518560a001518660c001518760e00151604051610a4c949392919093845260208401929092526040830152606082015260800190565b60405180910390a4509695505050505050565b6001600160a01b038116600090815260086020526040812054606091829182919067ffffffffffffffff811115610a9857610a98613163565b604051908082528060200260200182016040528015610ac1578160200160208202803683370190505b506001600160a01b0386166000908152600860205260408120549192509067ffffffffffffffff811115610af757610af7613163565b604051908082528060200260200182016040528015610b20578160200160208202803683370190505b50905060005b6001600160a01b038716600090815260086020526040902054811015610c30576001600160a01b03871660009081526008602052604081208054600392919084908110610b7557610b756136a6565b9060005260206000200154815260200190815260200160002054838281518110610ba157610ba16136a6565b60200260200101818152505060046000600860008a6001600160a01b03166001600160a01b031681526020019081526020016000208381548110610be757610be76136a6565b9060005260206000200154815260200190815260200160002054828281518110610c1357610c136136a6565b602090810291909101015280610c28816136d2565b915050610b26565b506001600160a01b03861660009081526008602090815260409182902080548351818402810184019094528084528593859390918391830182828015610c9557602002820191906000526020600020905b815481526020019060010190808311610c81575b5050505050905094509450945050509193909250565b600033803b8015610cce5760405162461bcd60e51b815260040161065990613467565b836000805b33600090815260086020526040902054811015610d8a573360009081526008602052604081208054600391839185908110610d1057610d106136a6565b90600052602060002001548152602001908152602001600020549050838103610d77576000848152601060205260408120805460019290610d529084906136eb565b9091555050600084815260106020526040902054600311610d77576001925050610d8a565b5080610d82816136d2565b915050610cd3565b506000828152601060205260408120558015610da66003612fc4565b610daf84612fc4565b604051602001610dc09291906136fe565b60405160208183030381529060405290610ded5760405162461bcd60e51b815260040161065991906133d0565b50610df88688612ecb565b610e145760405162461bcd60e51b81526004016106599061376d565b6000610e2087896123fb565b6001546040516323b872dd60e01b81529192506001600160a01b0316906323b872dd90610e5590339030908690600401613492565b6020604051808303816000875af1158015610e74573d6000803e3d6000fd5b505050506040513d601f19601f82011682018060405250810190610e9891906134b6565b610ea182612fc4565b604051602001610eb1919061379b565b60405160208183030381529060405290610ede5760405162461bcd60e51b815260040161065991906133d0565b506001546000546001600160a01b03918216916323b872dd91339116610f038561215a565b6040518463ffffffff1660e01b8152600401610f2193929190613492565b6020604051808303816000875af1158015610f40573d6000803e3d6000fd5b505050506040513d601f19601f82011682018060405250810190610f6491906134b6565b610f706106e98361215a565b604051602001610f8091906137eb565b60405160208183030381529060405290610fad5760405162461bcd60e51b815260040161065991906133d0565b506002546040516340d097c360e01b81523360048201526000916001600160a01b0316906340d097c3906024016020604051808303816000875af1158015610ff9573d6000803e3d6000fd5b505050506040513d601f19601f8201168201806040525081019061101d9190613563565b60008181526003602090815260408083208c905560048083528184208e9055600583528184208490556006835281842080546001600160a01b03191633908117909155845260088352818420805460018181018355918652848620018690558d8552600b845282852080548083018255908652848620018690558d8552600d84528285208f86528452828520805491820181558552929093209091018390555163e6ca2a8d60e01b815290810184905290915073__$1b02779ce4c7319347a3ba86362535d9c3$__9063e6ca2a8d90602401602060405180830381865af415801561110c573d6000803e3d6000fd5b505050506040513d601f19601f820116820180604052508101906111309190613563565b6000898152600a6020526040812060080180549091906111519084906136eb565b90915550506000888152600e602090815260408083208c8452909152908190205490516317137da560e11b81526004810184905273__$1b02779ce4c7319347a3ba86362535d9c3$__90632e26fb4a90602401602060405180830381865af41580156111c1573d6000803e3d6000fd5b505050506040513d601f19601f820116820180604052508101906111e59190613563565b600082815260056020526040812080549091906112039084906136eb565b90915550506000898152600d602090815260408083208d845290915281205461122e90600190613842565b905060005b60008b8152600d602090815260408083208f84529091529020548110156113455760008b8152600d602090815260408083208f8452909152812080548390811061127f5761127f6136a6565b9060005260206000200154905083811461133257604051638410541960e01b8152600481018790526024810184905273__$1b02779ce4c7319347a3ba86362535d9c3$__90638410541990604401602060405180830381865af41580156112ea573d6000803e3d6000fd5b505050506040513d601f19601f8201168201806040525081019061130e9190613563565b6000828152600560205260408120805490919061132c9084906136eb565b90915550505b508061133d816136d2565b915050611233565b50336000818152600760205260409081902090518d928d927ffdb613eedf8eacc2a1e8f1156aba4865a8bc02e3bb90482976aed6b559faa57c9261138e9291908a904290613855565b60405180910390a350989998505050505050505050565b60006113b18383612ecb565b6113cd5760405162461bcd60e51b81526004016106599061376d565b6000838152600d602090815260408083208584529091528120546113f390600190613842565b905060008060008061140488611e05565b92965090945092509050600073__$1b02779ce4c7319347a3ba86362535d9c3$__639b49380b6114358860026136eb565b60008c8152600a60205260409081902060080154905160e084901b6001600160e01b03191681526004810192909252602482015260448101889052606481018790526084810186905260a4810185905260c401602060405180830381865af41580156114a5573d6000803e3d6000fd5b505050506040513d601f19601f820116820180604052508101906114c99190613563565b9050600073__$1b02779ce4c7319347a3ba86362535d9c3$__6384105419836114f38a60026136eb565b6040516001600160e01b031960e085901b16815260048101929092526024820152604401602060405180830381865af4158015611534573d6000803e3d6000fd5b505050506040513d601f19601f820116820180604052508101906115589190613563565b9750505050505050505b92915050565b6002546001600160a01b031633146115c25760405162461bcd60e51b815260206004820152601a60248201527f6f6e6c7920696e7465726e616c204e465420636f6e74726163740000000000006044820152606401610659565b600081815260066020526040812080546001600160a01b0319166001600160a01b0385161790555b6001600160a01b03841660009081526008602052604090205481101561171c576001600160a01b0384166000908152600860205260409020805483919083908110611637576116376136a6565b90600052602060002001540361170a576001600160a01b0384166000908152600860205260409020805461166d90600190613842565b8154811061167d5761167d6136a6565b906000526020600020015460086000866001600160a01b03166001600160a01b0316815260200190815260200160002082815481106116be576116be6136a6565b60009182526020808320909101929092556001600160a01b03861681526008909152604090208054806116f3576116f36138fa565b600190038181906000526020600020016000905590555b80611714816136d2565b9150506115ea565b506001600160a01b038216600090815260086020908152604080832080546001810182559084528284200184905583835260038252808320548352600e8252808320848452600483528184205484529091529020548190036117f457600081815260036020818152604080842080548552600c80845282862087875260048086528488208054895291865284882090960180546001600160a01b0319166001600160a01b038b16908117909155875260078552838720925487529084528286209054865290925290922001906117f29082613910565b505b60008181526004602090815260408083205460038352928190205481516001600160a01b038089168252871693810193909352908201849052426060830152907fb04ff09e4856cf929ad6b25a29b1a5392c2a84b848b58b86c712f18dd1e0de219060800160405180910390a3505050565b6000818152600a6020526040902080546060919061188390613529565b80601f01602080910402602001604051908101604052809291908181526020018280546118af90613529565b80156118fc5780601f106118d1576101008083540402835291602001916118fc565b820191906000526020600020905b8154815290600101906020018083116118df57829003601f168201915b50505050509050919050565b600073__$1b02779ce4c7319347a3ba86362535d9c3$__63c060093f6040518163ffffffff1660e01b8152600401602060405180830381865af4158015611953573d6000803e3d6000fd5b505050506040513d601f19601f820116820180604052508101906119779190613563565b905090565b6000818152600a602052604090206002015481906001600160a01b03163314806119b057506000546001600160a01b031633145b611a0e5760405162461bcd60e51b815260206004820152602960248201527f5468652063616c6c6572206d757374206265207461736b206f776e6572206f726044820152681036b0b730b3b2b91760b91b6064820152608401610659565b6000611a1983611e05565b5050506000848152600a6020908152604080832060080154600e835281842085855283529281902054815163beb19a2160e01b81526004810185905291519495508594909273__$1b02779ce4c7319347a3ba86362535d9c3$__9263beb19a2192602480830193928290030181865af4158015611a9a573d6000803e3d6000fd5b505050506040513d601f19601f82011682018060405250810190611abe9190613563565b60008281526005602052604081208054909190611adc9084906136eb565b90915550506000868152600d60209081526040808320868452909152812054611b0790600190613842565b905060005b6000888152600d60209081526040808320888452909152902054811015611c1e576000888152600d602090815260408083208884529091528120805483908110611b5857611b586136a6565b90600052602060002001549050838114611c0b57604051633ed12ab760e01b8152600481018690526024810184905273__$1b02779ce4c7319347a3ba86362535d9c3$__90633ed12ab790604401602060405180830381865af4158015611bc3573d6000803e3d6000fd5b505050506040513d601f19601f82011682018060405250810190611be79190613563565b60008281526005602052604081208054909190611c059084906136eb565b90915550505b5080611c16816136d2565b915050611b0c565b50600154600054604051634e414a3360e11b8152600481018690526001600160a01b039283169263a9059cbb92169073__$1b02779ce4c7319347a3ba86362535d9c3$__90639c82946690602401602060405180830381865af4158015611c89573d6000803e3d6000fd5b505050506040513d601f19601f82011682018060405250810190611cad9190613563565b6040516001600160e01b031960e085901b1681526001600160a01b03909216600483015260248201526044016020604051808303816000875af1158015611cf8573d6000803e3d6000fd5b505050506040513d601f19601f82011682018060405250810190611d1c91906134b6565b506000878152600a6020819052604082206008810183905501805460ff191660011790555b6000888152600b6020526040902054811015611dfb576002546000898152600b6020526040902080546001600160a01b039092169163aeb9326c919084908110611d8d57611d8d6136a6565b90600052602060002001546040518263ffffffff1660e01b8152600401611db691815260200190565b600060405180830381600087803b158015611dd057600080fd5b505af1158015611de4573d6000803e3d6000fd5b505050508080611df3906136d2565b915050611d41565b5050505050505050565b600019806000806402540be3ff80825b6000888152600b6020526040902054811015611f25576000888152600b602052604081208054600491839185908110611e5057611e506136a6565b906000526020600020015481526020019081526020016000205490506000611e908a836000918252600d6020908152604080842092845291905290205490565b60008b8152600c6020908152604080832086845290915290206005015490915089831480611ebd57508883145b15611eca57505050611f13565b6000611ed889888585613057565b90508015611ef0575091989750959450929150611f13565b611efc88878585613057565b90508015611f0e578399508297508195505b505050505b80611f1d816136d2565b915050611e15565b5050509193509193565b6002546001600160a01b03163314611f895760405162461bcd60e51b815260206004820152601a60248201527f6f6e6c7920696e7465726e616c204e465420636f6e74726163740000000000006044820152606401610659565b6001546000838152600560205260409081902054905163a9059cbb60e01b81526001600160a01b038481166004830152602482019290925291169063a9059cbb906044016020604051808303816000875af1158015611fec573d6000803e3d6000fd5b505050506040513d601f19601f8201168201806040525081019061201091906134b6565b5060008281526005602052604081208190555b6001600160a01b038216600090815260086020526040902054811015612155576001600160a01b0382166000908152600860205260409020805484919083908110612070576120706136a6565b906000526020600020015403612143576001600160a01b038216600090815260086020526040902080546120a690600190613842565b815481106120b6576120b66136a6565b906000526020600020015460086000846001600160a01b03166001600160a01b0316815260200190815260200160002082815481106120f7576120f76136a6565b60009182526020808320909101929092556001600160a01b038416815260089091526040902080548061212c5761212c6138fa565b600190038181906000526020600020016000905590555b8061214d816136d2565b915050612023565b505050565b604051631eec9f0760e31b815260048101829052600090819073__$1b02779ce4c7319347a3ba86362535d9c3$__9063f764f83890602401602060405180830381865af41580156121af573d6000803e3d6000fd5b505050506040513d601f19601f820116820180604052508101906121d39190613563565b9392505050565b6000828152600c60209081526040808320848452909152902080546060919061220290613529565b80601f016020809104026020016040519081016040528092919081815260200182805461222e90613529565b801561227b5780601f106122505761010080835404028352916020019161227b565b820191906000526020600020905b81548152906001019060200180831161225e57829003601f168201915b5050505050905092915050565b6000818152600b60205260408120546122a357506000919050565b6000805b6000848152600b6020526040902054811015612369576000848152600b6020526040812080546006918391859081106122e2576122e26136a6565b600091825260208083209091015483528281019390935260409182018120546001600160a01b0316808252600f909352205490915060ff16156123255750612357565b6001600160a01b0381166000908152600f60205260409020805460ff1916600117905582612352816136d2565b935050505b80612361816136d2565b9150506122a7565b5060005b6000848152600b60205260409020548110156123f4576000848152600b6020526040812080546006918391859081106123a8576123a86136a6565b600091825260208083209091015483528281019390935260409182018120546001600160a01b03168152600f9092529020805460ff1916905550806123ec816136d2565b91505061236d565b5092915050565b60006124078383612ecb565b6124235760405162461bcd60e51b81526004016106599061376d565b6000838152600d6020908152604080832085845290915281205461244990600190613842565b905060008060008061245a88611e05565b92965090945092509050600073__$1b02779ce4c7319347a3ba86362535d9c3$__639b49380b61248b8860016136eb565b60008c8152600a60205260409081902060080154905160e084901b6001600160e01b03191681526004810192909252602482015260448101889052606481018790526084810186905260a4810185905260c401602060405180830381865af41580156124fb573d6000803e3d6000fd5b505050506040513d601f19601f8201168201806040525081019061251f9190613563565b9998505050505050505050565b6000818152600b60205260408120546060919067ffffffffffffffff81111561255757612557613163565b604051908082528060200260200182016040528015612580578160200160208202803683370190505b50905060005b6000848152600b60205260409020548110156123f4576000848152600b6020526040812080546004918391859081106125c1576125c16136a6565b90600052602060002001548152602001908152602001600020549050808383815181106125f0576125f06136a6565b60209081029190910101525080612606816136d2565b915050612586565b600073__$1b02779ce4c7319347a3ba86362535d9c3$__6391096a3c6040518163ffffffff1660e01b8152600401602060405180830381865af4158015611953573d6000803e3d6000fd5b600073__$1b02779ce4c7319347a3ba86362535d9c3$__6326d0a3346040518163ffffffff1660e01b8152600401602060405180830381865af4158015611953573d6000803e3d6000fd5b6000818152600a602081905260408220015460ff16156126c657506000919050565b6000828152600a60205260409020600701544211806126f557506000828152600a602052604090206006015442105b1561270257506000919050565b506001919050565b60006127168383612ecb565b6127325760405162461bcd60e51b81526004016106599061376d565b6000838152600d6020908152604080832085845290915281205461275890600190613842565b9050600073__$1b02779ce4c7319347a3ba86362535d9c3$__638410541961278087876123fb565b61278b8560016136eb565b6040516001600160e01b031960e085901b16815260048101929092526024820152604401602060405180830381865af41580156127cc573d6000803e3d6000fd5b505050506040513d601f19601f820116820180604052508101906127f09190613563565b95945050505050565b600033803b801561281c5760405162461bcd60e51b815260040161065990613467565b836000805b336000908152600860205260409020548110156128d857336000908152600860205260408120805460039183918590811061285e5761285e6136a6565b906000526020600020015481526020019081526020016000205490508381036128c55760008481526010602052604081208054600192906128a09084906136eb565b90915550506000848152601060205260409020546003116128c55760019250506128d8565b50806128d0816136d2565b915050612821565b5060008281526010602052604081205580156128f46003612fc4565b6128fd84612fc4565b60405160200161290e9291906136fe565b6040516020818303038152906040529061293b5760405162461bcd60e51b815260040161065991906133d0565b50612945866126a4565b6129875760405162461bcd60e51b81526020600482015260136024820152727461736b206d7573742062652061637469766560681b6044820152606401610659565b6001546001600160a01b03166323b872dd33306129a2612659565b6040518463ffffffff1660e01b81526004016129c093929190613492565b6020604051808303816000875af11580156129df573d6000803e3d6000fd5b505050506040513d601f19601f82011682018060405250810190612a0391906134b6565b612a0e6106e9612659565b604051602001612a1e91906139eb565b60405160208183030381529060405290612a4b5760405162461bcd60e51b815260040161065991906133d0565b506001546000546001600160a01b03918216916323b872dd91339116612a6f611908565b6040518463ffffffff1660e01b8152600401612a8d93929190613492565b6020604051808303816000875af1158015612aac573d6000803e3d6000fd5b505050506040513d601f19601f82011682018060405250810190612ad091906134b6565b612adb6106e9611908565b604051602001612aeb9190613a3d565b60405160208183030381529060405290612b185760405162461bcd60e51b815260040161065991906133d0565b506000868152600a60205260408120600901546002546040516340d097c360e01b81523360048201529192506000916001600160a01b03909116906340d097c3906024016020604051808303816000875af1158015612b7b573d6000803e3d6000fd5b505050506040513d601f19601f82011682018060405250810190612b9f9190613563565b60008181526003602090815260408083208c905560048252808320869055600582528083208390556006825280832080546001600160a01b0319163390811790915580845260088352818420805460018101825590855283852001859055815160c0810183528e81528084018e905280830188905260608101829052908452600790925282208054939450919290916080830191612c3c90613529565b80601f0160208091040260200160405190810160405280929190818152602001828054612c6890613529565b8015612cb55780601f10612c8a57610100808354040283529160200191612cb5565b820191906000526020600020905b815481529060010190602001808311612c9857829003601f168201915b50505091835250504260209182015260008b8152600c8252604080822087835290925220815191925082918190612cec90826135ca565b50602082015160018201556040820151600282015560608201516003820180546001600160a01b0319166001600160a01b0390921691909117905560808201516004820190612d3b90826135ca565b5060a091909101516005909101556000898152600d602090815260408083208684528252808320805460018181018355918552838520018690558c8452600e835281842087855283528184208690558c8452600a9092528220600901805491929091612da89084906136eb565b9250508190555073__$1b02779ce4c7319347a3ba86362535d9c3$__6326d0a3346040518163ffffffff1660e01b8152600401602060405180830381865af4158015612df8573d6000803e3d6000fd5b505050506040513d601f19601f82011682018060405250810190612e1c9190613563565b60008a8152600a602052604081206008018054909190612e3d9084906136eb565b90915550506000898152600b60209081526040808320805460018101825590845292829020909201849055828201519083015160608401518451608086015160a08701519551949593947f0398b0caa1a3067fe4b117e6de075363f5bf1e284053cf53be078fd48f8252b794612eb594939291613a96565b60405180910390a3509098975050505050505050565b6000612ed6836126a4565b1515600003612ee757506000611562565b6000838152600c602090815260408083208584529091528120600501549003612f1257506000611562565b50600192915050565b6000806402540be3ff815b6000858152600b6020526040902054811015612fbb576000858152600b602052604081208054600491839185908110612f6157612f616136a6565b60009182526020808320909101548352828101939093526040918201812054898252600c8452828220818352909352206005015490915083811015612fa65750925082825b50508080612fb3906136d2565b915050612f26565b50909392505050565b60606000612fd18361308b565b600101905060008167ffffffffffffffff811115612ff157612ff1613163565b6040519080825280601f01601f19166020018201604052801561301b576020820181803683370190505b5090508181016020015b600019016f181899199a1a9b1b9c1cb0b131b232b360811b600a86061a8153600a850494508461302557509392505050565b60008285111561306957506000613083565b82850361307f5781841161307f57506000613083565b5060015b949350505050565b60008072184f03e93ff9f4daa797ed6e38ed64bf6a1f0160401b83106130ca5772184f03e93ff9f4daa797ed6e38ed64bf6a1f0160401b830492506040015b6d04ee2d6d415b85acef810000000083106130f6576d04ee2d6d415b85acef8100000000830492506020015b662386f26fc10000831061311457662386f26fc10000830492506010015b6305f5e100831061312c576305f5e100830492506008015b612710831061314057612710830492506004015b60648310613152576064830492506002015b600a83106115625760010192915050565b634e487b7160e01b600052604160045260246000fd5b600082601f83011261318a57600080fd5b813567ffffffffffffffff808211156131a5576131a5613163565b604051601f8301601f19908116603f011681019082821181831017156131cd576131cd613163565b816040528381528660208588010111156131e657600080fd5b836020870160208301376000602085830101528094505050505092915050565b60008060006060848603121561321b57600080fd5b833567ffffffffffffffff81111561323257600080fd5b61323e86828701613179565b9660208601359650604090950135949350505050565b80356001600160a01b038116811461326b57600080fd5b919050565b60006020828403121561328257600080fd5b6121d382613254565b600081518084526020808501945080840160005b838110156132bb5781518752958201959082019060010161329f565b509495945050505050565b6060815260006132d9606083018661328b565b82810360208401526132eb818661328b565b905082810360408401526132ff818561328b565b9695505050505050565b6000806040838503121561331c57600080fd5b50508035926020909101359150565b60006020828403121561333d57600080fd5b5035919050565b60008060006060848603121561335957600080fd5b61336284613254565b925061337060208501613254565b9150604084013590509250925092565b60005b8381101561339b578181015183820152602001613383565b50506000910152565b600081518084526133bc816020860160208601613380565b601f01601f19169290920160200192915050565b6020815260006121d360208301846133a4565b600080604083850312156133f657600080fd5b8235915061340660208401613254565b90509250929050565b6020815260006121d3602083018461328b565b6000806040838503121561343557600080fd5b823567ffffffffffffffff81111561344c57600080fd5b61345885828601613179565b95602094909401359450505050565b602080825260119082015270736f7272792068756d616e73206f6e6c7960781b604082015260600190565b6001600160a01b039384168152919092166020820152604081019190915260600190565b6000602082840312156134c857600080fd5b815180151581146121d357600080fd5b7f6372656174655461736b4665652073686f756c64206265206c61726765207468815262030b7160ed1b60208201526000825161351c816023850160208701613380565b9190910160230192915050565b600181811c9082168061353d57607f821691505b60208210810361355d57634e487b7160e01b600052602260045260246000fd5b50919050565b60006020828403121561357557600080fd5b5051919050565b601f82111561215557600081815260208120601f850160051c810160208610156135a35750805b601f850160051c820191505b818110156135c2578281556001016135af565b505050505050565b815167ffffffffffffffff8111156135e4576135e4613163565b6135f8816135f28454613529565b8461357c565b602080601f83116001811461362d57600084156136155750858301515b600019600386901b1c1916600185901b1785556135c2565b600085815260208120601f198616915b8281101561365c5788860151825594840194600190910190840161363d565b508582101561367a5787850151600019600388901b60f8161c191681555b5050505050600190811b01905550565b6000825161369c818460208701613380565b9190910192915050565b634e487b7160e01b600052603260045260246000fd5b634e487b7160e01b600052601160045260246000fd5b6000600182016136e4576136e46136bc565b5060010190565b80820180821115611562576115626136bc565b7f486f6c64204e4654206e756d626572206973206c61726765207468616e20000081526000835161373681601e850160208801613380565b6a01034b7103a30b9b5a4b2160ad1b601e918401918201528351613761816029840160208801613380565b01602901949350505050565b60208082526014908201527367726f7570206d7573742062652061637469766560601b604082015260600190565b7f6a6f696e47726f75704665652073686f756c64206265206c6172676520746861815261037160f51b6020820152600082516137de816022850160208701613380565b9190910160220192915050565b7f6a6f696e47726f75704e46544d696e744665652073686f756c64206265206c6181526803933b2903a3430b7160bd1b602082015260008251613835816029850160208701613380565b9190910160290192915050565b81810381811115611562576115626136bc565b60018060a01b0385168152600060206080818401526000865461387781613529565b80608087015260a060018084166000811461389957600181146138b3576138e1565b60ff1985168984015283151560051b8901830195506138e1565b8b6000528660002060005b858110156138d95781548b82018601529083019088016138be565b8a0184019650505b5050505050604084019590955250506060015292915050565b634e487b7160e01b600052603160045260246000fd5b81810361391b575050565b6139258254613529565b67ffffffffffffffff81111561393d5761393d613163565b61394b816135f28454613529565b6000601f82116001811461397f57600083156139675750848201545b600019600385901b1c1916600184901b1784556139e4565b600085815260209020601f19841690600086815260209020845b838110156139b95782860154825560019586019590910190602001613999565b50858310156139d75781850154600019600388901b60f8161c191681555b50505060018360011b0184555b5050505050565b7f63726561746547726f75704665652073686f756c64206265206c61726765207481526303430b7160e51b602082015260008251613a30816024850160208701613380565b9190910160240192915050565b7f63726561746547726f75704e46544d696e744665652073686f756c642062652081526a03630b933b2903a3430b7160ad1b602082015260008251613a8981602b850160208701613380565b91909101602b0192915050565b6001600160a01b0385168152608060208201819052600090613aba908301866133a4565b8281036040840152613acc81866133a4565b9150508260608301529594505050505056fea26469706673582212207fdd56cff0884c5c88b05f7ecc429217b3e075ceaf23debb141667bdf644f0e764736f6c63430008120033610160604052602e61010081815260809182919062001af16101203981526020016040518060600160405280602e815260200162001b4d602e913981526020016040518060600160405280602e815260200162001b7b602e913981526020016040518060600160405280602e815260200162001b1f602e913990526200008a90600690600462000107565b503480156200009857600080fd5b5060405162001ba938038062001ba9833981016040819052620000bb91620002a3565b82826000620000cb8382620003bf565b506001620000da8282620003bf565b5050600980546001600160a01b0319166001600160a01b039390931692909217909155506200048b915050565b82805482825590600052602060002090810192821562000152579160200282015b82811115620001525782518290620001419082620003bf565b509160200191906001019062000128565b506200016092915062000164565b5090565b80821115620001605760006200017b828262000185565b5060010162000164565b508054620001939062000330565b6000825580601f10620001a4575050565b601f016020900490600052602060002090810190620001c49190620001c7565b50565b5b80821115620001605760008155600101620001c8565b634e487b7160e01b600052604160045260246000fd5b600082601f8301126200020657600080fd5b81516001600160401b0380821115620002235762000223620001de565b604051601f8301601f19908116603f011681019082821181831017156200024e576200024e620001de565b816040528381526020925086838588010111156200026b57600080fd5b600091505b838210156200028f578582018301518183018401529082019062000270565b600093810190920192909252949350505050565b600080600060608486031215620002b957600080fd5b83516001600160401b0380821115620002d157600080fd5b620002df87838801620001f4565b94506020860151915080821115620002f657600080fd5b506200030586828701620001f4565b604086015190935090506001600160a01b03811681146200032557600080fd5b809150509250925092565b600181811c908216806200034557607f821691505b6020821081036200036657634e487b7160e01b600052602260045260246000fd5b50919050565b601f821115620003ba57600081815260208120601f850160051c81016020861015620003955750805b601f850160051c820191505b81811015620003b657828155600101620003a1565b5050505b505050565b81516001600160401b03811115620003db57620003db620001de565b620003f381620003ec845462000330565b846200036c565b602080601f8311600181146200042b5760008415620004125750858301515b600019600386901b1c1916600185901b178555620003b6565b600085815260208120601f198616915b828110156200045c578886015182559484019460019091019084016200043b565b50858210156200047b5787850151600019600388901b60f8161c191681555b5050505050600190811b01905550565b611656806200049b6000396000f3fe608060405234801561001057600080fd5b506004361061010b5760003560e01c80636352211e116100a2578063aeb9326c11610071578063aeb9326c14610228578063b88d4fde1461023b578063c87b56dd1461024e578063d283b5cb14610261578063e985e9c51461028457600080fd5b80636352211e146101e757806370a08231146101fa57806395d89b411461020d578063a22cb4651461021557600080fd5b806323b872dd116100de57806323b872dd1461018d57806340d097c3146101a057806342842e0e146101c157806342966c68146101d457600080fd5b806301ffc9a71461011057806306fdde0314610138578063081812fc1461014d578063095ea7b314610178575b600080fd5b61012361011e366004611161565b6102c0565b60405190151581526020015b60405180910390f35b610140610312565b60405161012f91906111d5565b61016061015b3660046111e8565b6103a4565b6040516001600160a01b03909116815260200161012f565b61018b610186366004611218565b6103cb565b005b61018b61019b366004611242565b6104e5565b6101b36101ae36600461127e565b610517565b60405190815260200161012f565b61018b6101cf366004611242565b610571565b61018b6101e23660046111e8565b61058c565b6101606101f53660046111e8565b610639565b6101b361020836600461127e565b610699565b61014061071f565b61018b610223366004611299565b61072e565b61018b6102363660046111e8565b61073d565b61018b6102493660046112eb565b610782565b61014061025c3660046111e8565b6107ba565b61012361026f3660046111e8565b60009081526007602052604090205460ff1690565b6101236102923660046113c7565b6001600160a01b03918216600090815260056020908152604080832093909416825291909152205460ff1690565b60006001600160e01b031982166380ac58cd60e01b14806102f157506001600160e01b03198216635b5e139f60e01b145b8061030c57506301ffc9a760e01b6001600160e01b03198316145b92915050565b606060008054610321906113fa565b80601f016020809104026020016040519081016040528092919081815260200182805461034d906113fa565b801561039a5780601f1061036f5761010080835404028352916020019161039a565b820191906000526020600020905b81548152906001019060200180831161037d57829003601f168201915b5050505050905090565b60006103af826108ed565b506000908152600460205260409020546001600160a01b031690565b60006103d682610639565b9050806001600160a01b0316836001600160a01b0316036104485760405162461bcd60e51b815260206004820152602160248201527f4552433732313a20617070726f76616c20746f2063757272656e74206f776e656044820152603960f91b60648201526084015b60405180910390fd5b336001600160a01b038216148061046457506104648133610292565b6104d65760405162461bcd60e51b815260206004820152603d60248201527f4552433732313a20617070726f76652063616c6c6572206973206e6f7420746f60448201527f6b656e206f776e6572206f7220617070726f76656420666f7220616c6c000000606482015260840161043f565b6104e0838361094c565b505050565b6104f0335b826109ba565b61050c5760405162461bcd60e51b815260040161043f90611434565b6104e0838383610a38565b6009546000906001600160a01b031633146105445760405162461bcd60e51b815260040161043f90611481565b600061054f60085490565b905061055f600880546001019055565b6105698382610ba4565b90505b919050565b6104e083838360405180602001604052806000815250610782565b60008181526007602052604090205460ff166106085760405162461bcd60e51b815260206004820152603560248201527f54686973204e465420646f6573206e6f7420616c6c6f7720746f206275726e2c604482015274081c1b19585cd9481dd85a5d081d185cdac8195b99605a1b606482015260840161043f565b610611336104ea565b61062d5760405162461bcd60e51b815260040161043f90611434565b61063681610bbe565b50565b6000818152600260205260408120546001600160a01b0316806105695760405162461bcd60e51b8152602060048201526018602482015277115490cdcc8c4e881a5b9d985b1a59081d1bdad95b88125160421b604482015260640161043f565b60006001600160a01b0382166107035760405162461bcd60e51b815260206004820152602960248201527f4552433732313a2061646472657373207a65726f206973206e6f7420612076616044820152683634b21037bbb732b960b91b606482015260840161043f565b506001600160a01b031660009081526003602052604090205490565b606060018054610321906113fa565b610739338383610c5d565b5050565b6009546001600160a01b031633146107675760405162461bcd60e51b815260040161043f90611481565b6000908152600760205260409020805460ff19166001179055565b61078c33836109ba565b6107a85760405162461bcd60e51b815260040161043f90611434565b6107b484848484610d2b565b50505050565b60606107c5826108ed565b60006107eb604080518082019091526007815266697066733a2f2f60c81b602082015290565b600680549192506000916107ff90866114c8565b8154811061080f5761080f6114ea565b906000526020600020018054610824906113fa565b80601f0160208091040260200160405190810160405280929190818152602001828054610850906113fa565b801561089d5780601f106108725761010080835404028352916020019161089d565b820191906000526020600020905b81548152906001019060200180831161088057829003601f168201915b5050505050905060008251116108c257604051806020016040528060008152506108e5565b81816040516020016108d5929190611500565b6040516020818303038152906040525b949350505050565b6000818152600260205260409020546001600160a01b03166106365760405162461bcd60e51b8152602060048201526018602482015277115490cdcc8c4e881a5b9d985b1a59081d1bdad95b88125160421b604482015260640161043f565b600081815260046020526040902080546001600160a01b0319166001600160a01b038416908117909155819061098182610639565b6001600160a01b03167f8c5be1e5ebec7d5bd14f71427d1e84f3dd0314c0f7b2291e5b200ac8c7c3b92560405160405180910390a45050565b6000806109c683610639565b9050806001600160a01b0316846001600160a01b03161480610a0d57506001600160a01b0380821660009081526005602090815260408083209388168352929052205460ff165b806108e55750836001600160a01b0316610a26846103a4565b6001600160a01b031614949350505050565b826001600160a01b0316610a4b82610639565b6001600160a01b031614610a715760405162461bcd60e51b815260040161043f9061152f565b6001600160a01b038216610ad35760405162461bcd60e51b8152602060048201526024808201527f4552433732313a207472616e7366657220746f20746865207a65726f206164646044820152637265737360e01b606482015260840161043f565b826001600160a01b0316610ae682610639565b6001600160a01b031614610b0c5760405162461bcd60e51b815260040161043f9061152f565b600081815260046020908152604080832080546001600160a01b03199081169091556001600160a01b0387811680865260038552838620805460001901905590871680865283862080546001019055868652600290945282852080549092168417909155905184937fddf252ad1be2c89b69c2b068fc378daa952ba7f163c4a11628f55a4df523b3ef91a46104e08383836001610d5e565b610739828260405180602001604052806000815250610e82565b6000610bc982610639565b9050610bd482610639565b600083815260046020908152604080832080546001600160a01b03199081169091556001600160a01b0385168085526003845282852080546000190190558785526002909352818420805490911690555192935084927fddf252ad1be2c89b69c2b068fc378daa952ba7f163c4a11628f55a4df523b3ef908390a4610739816000846001610d5e565b816001600160a01b0316836001600160a01b031603610cbe5760405162461bcd60e51b815260206004820152601960248201527f4552433732313a20617070726f766520746f2063616c6c657200000000000000604482015260640161043f565b6001600160a01b03838116600081815260056020908152604080832094871680845294825291829020805460ff191686151590811790915591519182527f17307eab39ab6107e8899845ad3d59bd9653f200f220920489ca2b5937696c31910160405180910390a3505050565b610d36848484610a38565b610d4284848484610eb5565b6107b45760405162461bcd60e51b815260040161043f90611574565b6001600160a01b03841615801590610d7e57506001600160a01b03831615155b15610df257600954604051634965f52560e01b81526001600160a01b03868116600483015285811660248301526044820185905290911690634965f52590606401600060405180830381600087803b158015610dd957600080fd5b505af1158015610ded573d6000803e3d6000fd5b505050505b6001600160a01b03841615801590610e1157506001600160a01b038316155b156107b457600954604051636515d6c160e01b8152600481018490526001600160a01b03868116602483015290911690636515d6c190604401600060405180830381600087803b158015610e6457600080fd5b505af1158015610e78573d6000803e3d6000fd5b5050505050505050565b610e8c8383610fb6565b610e996000848484610eb5565b6104e05760405162461bcd60e51b815260040161043f90611574565b60006001600160a01b0384163b15610fab57604051630a85bd0160e11b81526001600160a01b0385169063150b7a0290610ef99033908990889088906004016115c6565b6020604051808303816000875af1925050508015610f34575060408051601f3d908101601f19168201909252610f3191810190611603565b60015b610f91573d808015610f62576040519150601f19603f3d011682016040523d82523d6000602084013e610f67565b606091505b508051600003610f895760405162461bcd60e51b815260040161043f90611574565b805181602001fd5b6001600160e01b031916630a85bd0160e11b1490506108e5565b506001949350505050565b6001600160a01b03821661100c5760405162461bcd60e51b815260206004820181905260248201527f4552433732313a206d696e7420746f20746865207a65726f2061646472657373604482015260640161043f565b6000818152600260205260409020546001600160a01b0316156110715760405162461bcd60e51b815260206004820152601c60248201527f4552433732313a20746f6b656e20616c7265616479206d696e74656400000000604482015260640161043f565b6000818152600260205260409020546001600160a01b0316156110d65760405162461bcd60e51b815260206004820152601c60248201527f4552433732313a20746f6b656e20616c7265616479206d696e74656400000000604482015260640161043f565b6001600160a01b038216600081815260036020908152604080832080546001019055848352600290915280822080546001600160a01b0319168417905551839291907fddf252ad1be2c89b69c2b068fc378daa952ba7f163c4a11628f55a4df523b3ef908290a4610739600083836001610d5e565b6001600160e01b03198116811461063657600080fd5b60006020828403121561117357600080fd5b813561117e8161114b565b9392505050565b60005b838110156111a0578181015183820152602001611188565b50506000910152565b600081518084526111c1816020860160208601611185565b601f01601f19169290920160200192915050565b60208152600061117e60208301846111a9565b6000602082840312156111fa57600080fd5b5035919050565b80356001600160a01b038116811461056c57600080fd5b6000806040838503121561122b57600080fd5b61123483611201565b946020939093013593505050565b60008060006060848603121561125757600080fd5b61126084611201565b925061126e60208501611201565b9150604084013590509250925092565b60006020828403121561129057600080fd5b61117e82611201565b600080604083850312156112ac57600080fd5b6112b583611201565b9150602083013580151581146112ca57600080fd5b809150509250929050565b634e487b7160e01b600052604160045260246000fd5b6000806000806080858703121561130157600080fd5b61130a85611201565b935061131860208601611201565b925060408501359150606085013567ffffffffffffffff8082111561133c57600080fd5b818701915087601f83011261135057600080fd5b813581811115611362576113626112d5565b604051601f8201601f19908116603f0116810190838211818310171561138a5761138a6112d5565b816040528281528a60208487010111156113a357600080fd5b82602086016020830137600060208483010152809550505050505092959194509250565b600080604083850312156113da57600080fd5b6113e383611201565b91506113f160208401611201565b90509250929050565b600181811c9082168061140e57607f821691505b60208210810361142e57634e487b7160e01b600052602260045260246000fd5b50919050565b6020808252602d908201527f4552433732313a2063616c6c6572206973206e6f7420746f6b656e206f776e6560408201526c1c881bdc88185c1c1c9bdd9959609a1b606082015260800190565b60208082526027908201527f4f776e61626c653a2063616c6c6572206d7573742062652074686520446567656040820152663726b0b9ba32b960c91b606082015260800190565b6000826114e557634e487b7160e01b600052601260045260246000fd5b500690565b634e487b7160e01b600052603260045260246000fd5b60008351611512818460208801611185565b835190830190611526818360208801611185565b01949350505050565b60208082526025908201527f4552433732313a207472616e736665722066726f6d20696e636f72726563742060408201526437bbb732b960d91b606082015260800190565b60208082526032908201527f4552433732313a207472616e7366657220746f206e6f6e20455243373231526560408201527131b2b4bb32b91034b6b83632b6b2b73a32b960711b606082015260800190565b6001600160a01b03858116825284166020820152604081018390526080606082018190526000906115f9908301846111a9565b9695505050505050565b60006020828403121561161557600080fd5b815161117e8161114b56fea26469706673582212201cb23a0b75b7f85ccefc8dce4917c526a20e5323e2ad5328de6de1f8689caf6f64736f6c63430008120033516d5737376144784e696251733741536f44554d4a725545446833426f575955334154647459394377515a596362516d567844374c4b536e4475673747446b546e6d4e74366a6b5a7341377a5a50486d684e64695a6473436f6d356e516d586b7942534a51433832656d675a596d6e354e736f74635732564d39704e6d4359426a4b534b70437446514c516d5265325264716e4c6e564c5933527a5067323346504544744d35446a5a53384c4d6237566b455877594b3558",
			"opcodes": "PUSH1 0x80 PUSH1 0x40 MSTORE CALLVALUE DUP1 ISZERO PUSH3 0x11 JUMPI PUSH1 0x0 DUP1 REVERT JUMPDEST POP ADDRESS PUSH1 0x40 MLOAD PUSH3 0x21 SWAP1 PUSH3 0x105 JUMP JUMPDEST PUSH1 0x60 DUP1 DUP3 MSTORE PUSH1 0xC SWAP1 DUP3 ADD MSTORE PUSH12 0x111959D95B95185CDAD39195 PUSH1 0xA2 SHL PUSH1 0x80 DUP3 ADD MSTORE PUSH1 0xA0 PUSH1 0x20 DUP3 ADD DUP2 SWAP1 MSTORE PUSH1 0x3 SWAP1 DUP3 ADD MSTORE PUSH3 0x222A27 PUSH1 0xE9 SHL PUSH1 0xC0 DUP3 ADD MSTORE PUSH1 0x1 PUSH1 0x1 PUSH1 0xA0 SHL SUB SWAP1 SWAP2 AND PUSH1 0x40 DUP3 ADD MSTORE PUSH1 0xE0 ADD PUSH1 0x40 MLOAD DUP1 SWAP2 SUB SWAP1 PUSH1 0x0 CREATE DUP1 ISZERO DUP1 ISZERO PUSH3 0x8C JUMPI RETURNDATASIZE PUSH1 0x0 DUP1 RETURNDATACOPY RETURNDATASIZE PUSH1 0x0 REVERT JUMPDEST POP PUSH1 0x2 DUP1 SLOAD PUSH1 0x1 PUSH1 0x1 PUSH1 0xA0 SHL SUB SWAP3 SWAP1 SWAP3 AND PUSH1 0x1 PUSH1 0x1 PUSH1 0xA0 SHL SUB NOT SWAP3 DUP4 AND DUP2 OR SWAP1 SWAP2 SSTORE PUSH1 0x1 DUP1 SLOAD DUP4 AND PUSH20 0xD9145CCE52D386F254917E481EB44E9943F39138 OR SWAP1 SSTORE PUSH1 0x0 DUP1 SLOAD SWAP1 SWAP3 AND CALLER OR DUP3 SSTORE PUSH1 0x40 MLOAD SWAP1 SWAP2 PUSH32 0x36E0CECD47D60048A7940B163BEB84F5EB86CFE9589E5F2AB049790CE90F08F0 SWAP2 LOG2 PUSH3 0x113 JUMP JUMPDEST PUSH2 0x1BA9 DUP1 PUSH3 0x3C37 DUP4 CODECOPY ADD SWAP1 JUMP JUMPDEST PUSH2 0x3B14 DUP1 PUSH3 0x123 PUSH1 0x0 CODECOPY PUSH1 0x0 RETURN INVALID PUSH1 0x80 PUSH1 0x40 MSTORE PUSH1 0x4 CALLDATASIZE LT PUSH2 0x1C2 JUMPI PUSH1 0x0 CALLDATALOAD PUSH1 0xE0 SHR DUP1 PUSH4 0x7C88B116 GT PUSH2 0xF7 JUMPI DUP1 PUSH4 0xCC9A13D1 GT PUSH2 0x95 JUMPI DUP1 PUSH4 0xE55756F4 GT PUSH2 0x64 JUMPI DUP1 PUSH4 0xE55756F4 EQ PUSH2 0x58B JUMPI DUP1 PUSH4 0xE8779F87 EQ PUSH2 0x5C6 JUMPI DUP1 PUSH4 0xEF91626F EQ PUSH2 0x5E6 JUMPI DUP1 PUSH4 0xF2E99C52 EQ PUSH2 0x606 JUMPI PUSH1 0x0 DUP1 REVERT JUMPDEST DUP1 PUSH4 0xCC9A13D1 EQ PUSH2 0x513 JUMPI DUP1 PUSH4 0xCE523BB4 EQ PUSH2 0x528 JUMPI DUP1 PUSH4 0xDF05CB95 EQ PUSH2 0x558 JUMPI DUP1 PUSH4 0xE367FC6A EQ PUSH2 0x578 JUMPI PUSH1 0x0 DUP1 REVERT JUMPDEST DUP1 PUSH4 0xA4EA8CB9 GT PUSH2 0xD1 JUMPI DUP1 PUSH4 0xA4EA8CB9 EQ PUSH2 0x479 JUMPI DUP1 PUSH4 0xA4ED1172 EQ PUSH2 0x499 JUMPI DUP1 PUSH4 0xABA67111 EQ PUSH2 0x4C6 JUMPI DUP1 PUSH4 0xAC763F3A EQ PUSH2 0x4DB JUMPI PUSH1 0x0 DUP1 REVERT JUMPDEST DUP1 PUSH4 0x7C88B116 EQ PUSH2 0x409 JUMPI DUP1 PUSH4 0x8596206E EQ PUSH2 0x429 JUMPI DUP1 PUSH4 0x8C9463C8 EQ PUSH2 0x459 JUMPI PUSH1 0x0 DUP1 REVERT JUMPDEST DUP1 PUSH4 0x5DE274F6 GT PUSH2 0x164 JUMPI DUP1 PUSH4 0x64394496 GT PUSH2 0x13E JUMPI DUP1 PUSH4 0x64394496 EQ PUSH2 0x340 JUMPI DUP1 PUSH4 0x6515D6C1 EQ PUSH2 0x36D JUMPI DUP1 PUSH4 0x65919F62 EQ PUSH2 0x38D JUMPI DUP1 PUSH4 0x6927718A EQ PUSH2 0x3E9 JUMPI PUSH1 0x0 DUP1 REVERT JUMPDEST DUP1 PUSH4 0x5DE274F6 EQ PUSH2 0x2CB JUMPI DUP1 PUSH4 0x6115786D EQ PUSH2 0x2E0 JUMPI DUP1 PUSH4 0x63141177 EQ PUSH2 0x300 JUMPI PUSH1 0x0 DUP1 REVERT JUMPDEST DUP1 PUSH4 0x3461FA18 GT PUSH2 0x1A0 JUMPI DUP1 PUSH4 0x3461FA18 EQ PUSH2 0x22F JUMPI DUP1 PUSH4 0x3FABC760 EQ PUSH2 0x24F JUMPI DUP1 PUSH4 0x4965F525 EQ PUSH2 0x27C JUMPI DUP1 PUSH4 0x56755B13 EQ PUSH2 0x29E JUMPI PUSH1 0x0 DUP1 REVERT JUMPDEST DUP1 PUSH4 0x59378EA EQ PUSH2 0x1C7 JUMPI DUP1 PUSH4 0x11E3F178 EQ PUSH2 0x1ED JUMPI DUP1 PUSH4 0x1A0C750C EQ PUSH2 0x21C JUMPI JUMPDEST PUSH1 0x0 DUP1 REVERT JUMPDEST PUSH2 0x1DA PUSH2 0x1D5 CALLDATASIZE PUSH1 0x4 PUSH2 0x3206 JUMP JUMPDEST PUSH2 0x636 JUMP JUMPDEST PUSH1 0x40 MLOAD SWAP1 DUP2 MSTORE PUSH1 0x20 ADD JUMPDEST PUSH1 0x40 MLOAD DUP1 SWAP2 SUB SWAP1 RETURN JUMPDEST CALLVALUE DUP1 ISZERO PUSH2 0x1F9 JUMPI PUSH1 0x0 DUP1 REVERT JUMPDEST POP PUSH2 0x20D PUSH2 0x208 CALLDATASIZE PUSH1 0x4 PUSH2 0x3270 JUMP JUMPDEST PUSH2 0xA5F JUMP JUMPDEST PUSH1 0x40 MLOAD PUSH2 0x1E4 SWAP4 SWAP3 SWAP2 SWAP1 PUSH2 0x32C6 JUMP JUMPDEST PUSH2 0x1DA PUSH2 0x22A CALLDATASIZE PUSH1 0x4 PUSH2 0x3309 JUMP JUMPDEST PUSH2 0xCAB JUMP JUMPDEST CALLVALUE DUP1 ISZERO PUSH2 0x23B JUMPI PUSH1 0x0 DUP1 REVERT JUMPDEST POP PUSH2 0x1DA PUSH2 0x24A CALLDATASIZE PUSH1 0x4 PUSH2 0x3309 JUMP JUMPDEST PUSH2 0x13A5 JUMP JUMPDEST CALLVALUE DUP1 ISZERO PUSH2 0x25B JUMPI PUSH1 0x0 DUP1 REVERT JUMPDEST POP PUSH2 0x1DA PUSH2 0x26A CALLDATASIZE PUSH1 0x4 PUSH2 0x332B JUMP JUMPDEST PUSH1 0x0 SWAP1 DUP2 MSTORE PUSH1 0x5 PUSH1 0x20 MSTORE PUSH1 0x40 SWAP1 KECCAK256 SLOAD SWAP1 JUMP JUMPDEST CALLVALUE DUP1 ISZERO PUSH2 0x288 JUMPI PUSH1 0x0 DUP1 REVERT JUMPDEST POP PUSH2 0x29C PUSH2 0x297 CALLDATASIZE PUSH1 0x4 PUSH2 0x3344 JUMP JUMPDEST PUSH2 0x1568 JUMP JUMPDEST STOP JUMPDEST CALLVALUE DUP1 ISZERO PUSH2 0x2AA JUMPI PUSH1 0x0 DUP1 REVERT JUMPDEST POP PUSH2 0x2BE PUSH2 0x2B9 CALLDATASIZE PUSH1 0x4 PUSH2 0x332B JUMP JUMPDEST PUSH2 0x1866 JUMP JUMPDEST PUSH1 0x40 MLOAD PUSH2 0x1E4 SWAP2 SWAP1 PUSH2 0x33D0 JUMP JUMPDEST CALLVALUE DUP1 ISZERO PUSH2 0x2D7 JUMPI PUSH1 0x0 DUP1 REVERT JUMPDEST POP PUSH2 0x1DA PUSH2 0x1908 JUMP JUMPDEST CALLVALUE DUP1 ISZERO PUSH2 0x2EC JUMPI PUSH1 0x0 DUP1 REVERT JUMPDEST POP PUSH2 0x29C PUSH2 0x2FB CALLDATASIZE PUSH1 0x4 PUSH2 0x332B JUMP JUMPDEST PUSH2 0x197C JUMP JUMPDEST CALLVALUE DUP1 ISZERO PUSH2 0x30C JUMPI PUSH1 0x0 DUP1 REVERT JUMPDEST POP PUSH2 0x320 PUSH2 0x31B CALLDATASIZE PUSH1 0x4 PUSH2 0x332B JUMP JUMPDEST PUSH2 0x1E05 JUMP JUMPDEST PUSH1 0x40 DUP1 MLOAD SWAP5 DUP6 MSTORE PUSH1 0x20 DUP6 ADD SWAP4 SWAP1 SWAP4 MSTORE SWAP2 DUP4 ADD MSTORE PUSH1 0x60 DUP3 ADD MSTORE PUSH1 0x80 ADD PUSH2 0x1E4 JUMP JUMPDEST CALLVALUE DUP1 ISZERO PUSH2 0x34C JUMPI PUSH1 0x0 DUP1 REVERT JUMPDEST POP PUSH2 0x1DA PUSH2 0x35B CALLDATASIZE PUSH1 0x4 PUSH2 0x332B JUMP JUMPDEST PUSH1 0x0 SWAP1 DUP2 MSTORE PUSH1 0xB PUSH1 0x20 MSTORE PUSH1 0x40 SWAP1 KECCAK256 SLOAD SWAP1 JUMP JUMPDEST CALLVALUE DUP1 ISZERO PUSH2 0x379 JUMPI PUSH1 0x0 DUP1 REVERT JUMPDEST POP PUSH2 0x29C PUSH2 0x388 CALLDATASIZE PUSH1 0x4 PUSH2 0x33E3 JUMP JUMPDEST PUSH2 0x1F2F JUMP JUMPDEST CALLVALUE DUP1 ISZERO PUSH2 0x399 JUMPI PUSH1 0x0 DUP1 REVERT JUMPDEST POP PUSH2 0x3D1 PUSH2 0x3A8 CALLDATASIZE PUSH1 0x4 PUSH2 0x3309 JUMP JUMPDEST PUSH1 0x0 SWAP2 DUP3 MSTORE PUSH1 0xC PUSH1 0x20 SWAP1 DUP2 MSTORE PUSH1 0x40 DUP1 DUP5 KECCAK256 SWAP3 DUP5 MSTORE SWAP2 SWAP1 MSTORE SWAP1 KECCAK256 PUSH1 0x3 ADD SLOAD PUSH1 0x1 PUSH1 0x1 PUSH1 0xA0 SHL SUB AND SWAP1 JUMP JUMPDEST PUSH1 0x40 MLOAD PUSH1 0x1 PUSH1 0x1 PUSH1 0xA0 SHL SUB SWAP1 SWAP2 AND DUP2 MSTORE PUSH1 0x20 ADD PUSH2 0x1E4 JUMP JUMPDEST CALLVALUE DUP1 ISZERO PUSH2 0x3F5 JUMPI PUSH1 0x0 DUP1 REVERT JUMPDEST POP PUSH2 0x1DA PUSH2 0x404 CALLDATASIZE PUSH1 0x4 PUSH2 0x332B JUMP JUMPDEST PUSH2 0x215A JUMP JUMPDEST CALLVALUE DUP1 ISZERO PUSH2 0x415 JUMPI PUSH1 0x0 DUP1 REVERT JUMPDEST POP PUSH2 0x2BE PUSH2 0x424 CALLDATASIZE PUSH1 0x4 PUSH2 0x3309 JUMP JUMPDEST PUSH2 0x21DA JUMP JUMPDEST CALLVALUE DUP1 ISZERO PUSH2 0x435 JUMPI PUSH1 0x0 DUP1 REVERT JUMPDEST POP PUSH2 0x1DA PUSH2 0x444 CALLDATASIZE PUSH1 0x4 PUSH2 0x332B JUMP JUMPDEST PUSH1 0x0 SWAP1 DUP2 MSTORE PUSH1 0xA PUSH1 0x20 MSTORE PUSH1 0x40 SWAP1 KECCAK256 PUSH1 0x9 ADD SLOAD SWAP1 JUMP JUMPDEST CALLVALUE DUP1 ISZERO PUSH2 0x465 JUMPI PUSH1 0x0 DUP1 REVERT JUMPDEST POP PUSH2 0x1DA PUSH2 0x474 CALLDATASIZE PUSH1 0x4 PUSH2 0x332B JUMP JUMPDEST PUSH2 0x2288 JUMP JUMPDEST CALLVALUE DUP1 ISZERO PUSH2 0x485 JUMPI PUSH1 0x0 DUP1 REVERT JUMPDEST POP PUSH2 0x1DA PUSH2 0x494 CALLDATASIZE PUSH1 0x4 PUSH2 0x3309 JUMP JUMPDEST PUSH2 0x23FB JUMP JUMPDEST CALLVALUE DUP1 ISZERO PUSH2 0x4A5 JUMPI PUSH1 0x0 DUP1 REVERT JUMPDEST POP PUSH2 0x4B9 PUSH2 0x4B4 CALLDATASIZE PUSH1 0x4 PUSH2 0x332B JUMP JUMPDEST PUSH2 0x252C JUMP JUMPDEST PUSH1 0x40 MLOAD PUSH2 0x1E4 SWAP2 SWAP1 PUSH2 0x340F JUMP JUMPDEST CALLVALUE DUP1 ISZERO PUSH2 0x4D2 JUMPI PUSH1 0x0 DUP1 REVERT JUMPDEST POP PUSH2 0x1DA PUSH2 0x260E JUMP JUMPDEST CALLVALUE DUP1 ISZERO PUSH2 0x4E7 JUMPI PUSH1 0x0 DUP1 REVERT JUMPDEST POP PUSH2 0x1DA PUSH2 0x4F6 CALLDATASIZE PUSH1 0x4 PUSH2 0x3309 JUMP JUMPDEST PUSH1 0x0 SWAP2 DUP3 MSTORE PUSH1 0xD PUSH1 0x20 SWAP1 DUP2 MSTORE PUSH1 0x40 DUP1 DUP5 KECCAK256 SWAP3 DUP5 MSTORE SWAP2 SWAP1 MSTORE SWAP1 KECCAK256 SLOAD SWAP1 JUMP JUMPDEST CALLVALUE DUP1 ISZERO PUSH2 0x51F JUMPI PUSH1 0x0 DUP1 REVERT JUMPDEST POP PUSH2 0x1DA PUSH2 0x2659 JUMP JUMPDEST CALLVALUE DUP1 ISZERO PUSH2 0x534 JUMPI PUSH1 0x0 DUP1 REVERT JUMPDEST POP PUSH2 0x548 PUSH2 0x543 CALLDATASIZE PUSH1 0x4 PUSH2 0x332B JUMP JUMPDEST PUSH2 0x26A4 JUMP JUMPDEST PUSH1 0x40 MLOAD SWAP1 ISZERO ISZERO DUP2 MSTORE PUSH1 0x20 ADD PUSH2 0x1E4 JUMP JUMPDEST CALLVALUE DUP1 ISZERO PUSH2 0x564 JUMPI PUSH1 0x0 DUP1 REVERT JUMPDEST POP PUSH2 0x1DA PUSH2 0x573 CALLDATASIZE PUSH1 0x4 PUSH2 0x3309 JUMP JUMPDEST PUSH2 0x270A JUMP JUMPDEST PUSH2 0x1DA PUSH2 0x586 CALLDATASIZE PUSH1 0x4 PUSH2 0x3422 JUMP JUMPDEST PUSH2 0x27F9 JUMP JUMPDEST CALLVALUE DUP1 ISZERO PUSH2 0x597 JUMPI PUSH1 0x0 DUP1 REVERT JUMPDEST POP PUSH2 0x1DA PUSH2 0x5A6 CALLDATASIZE PUSH1 0x4 PUSH2 0x3309 JUMP JUMPDEST PUSH1 0x0 SWAP2 DUP3 MSTORE PUSH1 0xC PUSH1 0x20 SWAP1 DUP2 MSTORE PUSH1 0x40 DUP1 DUP5 KECCAK256 SWAP3 DUP5 MSTORE SWAP2 SWAP1 MSTORE SWAP1 KECCAK256 PUSH1 0x5 ADD SLOAD SWAP1 JUMP JUMPDEST CALLVALUE DUP1 ISZERO PUSH2 0x5D2 JUMPI PUSH1 0x0 DUP1 REVERT JUMPDEST POP PUSH2 0x548 PUSH2 0x5E1 CALLDATASIZE PUSH1 0x4 PUSH2 0x3309 JUMP JUMPDEST PUSH2 0x2ECB JUMP JUMPDEST CALLVALUE DUP1 ISZERO PUSH2 0x5F2 JUMPI PUSH1 0x0 DUP1 REVERT JUMPDEST POP PUSH2 0x1DA PUSH2 0x601 CALLDATASIZE PUSH1 0x4 PUSH2 0x332B JUMP JUMPDEST PUSH2 0x2F1B JUMP JUMPDEST CALLVALUE DUP1 ISZERO PUSH2 0x612 JUMPI PUSH1 0x0 DUP1 REVERT JUMPDEST POP PUSH2 0x1DA PUSH2 0x621 CALLDATASIZE PUSH1 0x4 PUSH2 0x332B JUMP JUMPDEST PUSH1 0x0 SWAP1 DUP2 MSTORE PUSH1 0xA PUSH1 0x20 MSTORE PUSH1 0x40 SWAP1 KECCAK256 PUSH1 0x8 ADD SLOAD SWAP1 JUMP JUMPDEST PUSH1 0x0 CALLER DUP1 EXTCODESIZE DUP1 ISZERO PUSH2 0x662 JUMPI PUSH1 0x40 MLOAD PUSH3 0x461BCD PUSH1 0xE5 SHL DUP2 MSTORE PUSH1 0x4 ADD PUSH2 0x659 SWAP1 PUSH2 0x3467 JUMP JUMPDEST PUSH1 0x40 MLOAD DUP1 SWAP2 SUB SWAP1 REVERT JUMPDEST PUSH1 0x1 SLOAD PUSH1 0x1 PUSH1 0x1 PUSH1 0xA0 SHL SUB AND PUSH4 0x23B872DD CALLER ADDRESS PUSH2 0x67D PUSH2 0x260E JUMP JUMPDEST PUSH1 0x40 MLOAD DUP5 PUSH4 0xFFFFFFFF AND PUSH1 0xE0 SHL DUP2 MSTORE PUSH1 0x4 ADD PUSH2 0x69B SWAP4 SWAP3 SWAP2 SWAP1 PUSH2 0x3492 JUMP JUMPDEST PUSH1 0x20 PUSH1 0x40 MLOAD DUP1 DUP4 SUB DUP2 PUSH1 0x0 DUP8 GAS CALL ISZERO DUP1 ISZERO PUSH2 0x6BA JUMPI RETURNDATASIZE PUSH1 0x0 DUP1 RETURNDATACOPY RETURNDATASIZE PUSH1 0x0 REVERT JUMPDEST POP POP POP POP PUSH1 0x40 MLOAD RETURNDATASIZE PUSH1 0x1F NOT PUSH1 0x1F DUP3 ADD AND DUP3 ADD DUP1 PUSH1 0x40 MSTORE POP DUP2 ADD SWAP1 PUSH2 0x6DE SWAP2 SWAP1 PUSH2 0x34B6 JUMP JUMPDEST PUSH2 0x6EE PUSH2 0x6E9 PUSH2 0x260E JUMP JUMPDEST PUSH2 0x2FC4 JUMP JUMPDEST PUSH1 0x40 MLOAD PUSH1 0x20 ADD PUSH2 0x6FE SWAP2 SWAP1 PUSH2 0x34D8 JUMP JUMPDEST PUSH1 0x40 MLOAD PUSH1 0x20 DUP2 DUP4 SUB SUB DUP2 MSTORE SWAP1 PUSH1 0x40 MSTORE SWAP1 PUSH2 0x72B JUMPI PUSH1 0x40 MLOAD PUSH3 0x461BCD PUSH1 0xE5 SHL DUP2 MSTORE PUSH1 0x4 ADD PUSH2 0x659 SWAP2 SWAP1 PUSH2 0x33D0 JUMP JUMPDEST POP PUSH1 0x0 PUSH2 0x737 PUSH1 0x9 SLOAD SWAP1 JUMP JUMPDEST SWAP1 POP PUSH2 0x747 PUSH1 0x9 DUP1 SLOAD PUSH1 0x1 ADD SWAP1 SSTORE JUMP JUMPDEST PUSH1 0x40 DUP1 MLOAD PUSH2 0x160 DUP2 ADD DUP3 MSTORE DUP9 DUP2 MSTORE PUSH1 0x20 DUP1 DUP3 ADD DUP5 SWAP1 MSTORE CALLER DUP3 DUP5 ADD DUP2 SWAP1 MSTORE PUSH1 0x0 SWAP1 DUP2 MSTORE PUSH1 0x7 SWAP1 SWAP2 MSTORE SWAP2 DUP3 KECCAK256 DUP1 SLOAD PUSH1 0x60 DUP4 ADD SWAP2 SWAP1 PUSH2 0x782 SWAP1 PUSH2 0x3529 JUMP JUMPDEST DUP1 PUSH1 0x1F ADD PUSH1 0x20 DUP1 SWAP2 DIV MUL PUSH1 0x20 ADD PUSH1 0x40 MLOAD SWAP1 DUP2 ADD PUSH1 0x40 MSTORE DUP1 SWAP3 SWAP2 SWAP1 DUP2 DUP2 MSTORE PUSH1 0x20 ADD DUP3 DUP1 SLOAD PUSH2 0x7AE SWAP1 PUSH2 0x3529 JUMP JUMPDEST DUP1 ISZERO PUSH2 0x7FB JUMPI DUP1 PUSH1 0x1F LT PUSH2 0x7D0 JUMPI PUSH2 0x100 DUP1 DUP4 SLOAD DIV MUL DUP4 MSTORE SWAP2 PUSH1 0x20 ADD SWAP2 PUSH2 0x7FB JUMP JUMPDEST DUP3 ADD SWAP2 SWAP1 PUSH1 0x0 MSTORE PUSH1 0x20 PUSH1 0x0 KECCAK256 SWAP1 JUMPDEST DUP2 SLOAD DUP2 MSTORE SWAP1 PUSH1 0x1 ADD SWAP1 PUSH1 0x20 ADD DUP1 DUP4 GT PUSH2 0x7DE JUMPI DUP3 SWAP1 SUB PUSH1 0x1F AND DUP3 ADD SWAP2 JUMPDEST POP POP POP POP POP DUP2 MSTORE PUSH1 0x20 ADD PUSH20 0x0 PUSH4 0x91096A3C PUSH1 0x40 MLOAD DUP2 PUSH4 0xFFFFFFFF AND PUSH1 0xE0 SHL DUP2 MSTORE PUSH1 0x4 ADD PUSH1 0x20 PUSH1 0x40 MLOAD DUP1 DUP4 SUB DUP2 DUP7 GAS DELEGATECALL ISZERO DUP1 ISZERO PUSH2 0x84E JUMPI RETURNDATASIZE PUSH1 0x0 DUP1 RETURNDATACOPY RETURNDATASIZE PUSH1 0x0 REVERT JUMPDEST POP POP POP POP PUSH1 0x40 MLOAD RETURNDATASIZE PUSH1 0x1F NOT PUSH1 0x1F DUP3 ADD AND DUP3 ADD DUP1 PUSH1 0x40 MSTORE POP DUP2 ADD SWAP1 PUSH2 0x872 SWAP2 SWAP1 PUSH2 0x3563 JUMP JUMPDEST DUP2 MSTORE PUSH1 0x20 ADD TIMESTAMP DUP2 MSTORE PUSH1 0x20 ADD DUP9 DUP2 MSTORE PUSH1 0x20 ADD DUP8 DUP2 MSTORE PUSH1 0x20 ADD PUSH20 0x0 PUSH4 0x91096A3C PUSH1 0x40 MLOAD DUP2 PUSH4 0xFFFFFFFF AND PUSH1 0xE0 SHL DUP2 MSTORE PUSH1 0x4 ADD PUSH1 0x20 PUSH1 0x40 MLOAD DUP1 DUP4 SUB DUP2 DUP7 GAS DELEGATECALL ISZERO DUP1 ISZERO PUSH2 0x8D2 JUMPI RETURNDATASIZE PUSH1 0x0 DUP1 RETURNDATACOPY RETURNDATASIZE PUSH1 0x0 REVERT JUMPDEST POP POP POP POP PUSH1 0x40 MLOAD RETURNDATASIZE PUSH1 0x1F NOT PUSH1 0x1F DUP3 ADD AND DUP3 ADD DUP1 PUSH1 0x40 MSTORE POP DUP2 ADD SWAP1 PUSH2 0x8F6 SWAP2 SWAP1 PUSH2 0x3563 JUMP JUMPDEST DUP2 MSTORE PUSH1 0x0 PUSH1 0x20 DUP1 DUP4 ADD DUP3 SWAP1 MSTORE PUSH1 0x40 SWAP3 DUP4 ADD DUP3 SWAP1 MSTORE DUP6 DUP3 MSTORE PUSH1 0xA SWAP1 MSTORE KECCAK256 DUP2 MLOAD SWAP2 SWAP3 POP DUP3 SWAP2 DUP2 SWAP1 PUSH2 0x925 SWAP1 DUP3 PUSH2 0x35CA JUMP JUMPDEST POP PUSH1 0x20 DUP3 ADD MLOAD PUSH1 0x1 DUP3 ADD SSTORE PUSH1 0x40 DUP3 ADD MLOAD PUSH1 0x2 DUP3 ADD DUP1 SLOAD PUSH1 0x1 PUSH1 0x1 PUSH1 0xA0 SHL SUB NOT AND PUSH1 0x1 PUSH1 0x1 PUSH1 0xA0 SHL SUB SWAP1 SWAP3 AND SWAP2 SWAP1 SWAP2 OR SWAP1 SSTORE PUSH1 0x60 DUP3 ADD MLOAD PUSH1 0x3 DUP3 ADD SWAP1 PUSH2 0x96A SWAP1 DUP3 PUSH2 0x35CA JUMP JUMPDEST POP PUSH1 0x80 DUP3 ADD MLOAD PUSH1 0x4 DUP3 ADD SSTORE PUSH1 0xA0 DUP3 ADD MLOAD PUSH1 0x5 DUP3 ADD SSTORE PUSH1 0xC0 DUP3 ADD MLOAD PUSH1 0x6 DUP3 ADD SSTORE PUSH1 0xE0 DUP3 ADD MLOAD PUSH1 0x7 DUP3 ADD SSTORE PUSH2 0x100 DUP3 ADD MLOAD PUSH1 0x8 DUP3 ADD SSTORE PUSH2 0x120 DUP3 ADD MLOAD PUSH1 0x9 DUP3 ADD SSTORE PUSH2 0x140 SWAP1 SWAP2 ADD MLOAD PUSH1 0xA SWAP1 SWAP2 ADD DUP1 SLOAD PUSH1 0xFF NOT AND SWAP2 ISZERO ISZERO SWAP2 SWAP1 SWAP2 OR SWAP1 SSTORE PUSH1 0x60 DUP2 ADD MLOAD PUSH1 0x40 MLOAD PUSH2 0x9D6 SWAP2 SWAP1 PUSH2 0x368A JUMP JUMPDEST PUSH1 0x40 MLOAD DUP1 SWAP2 SUB SWAP1 KECCAK256 DUP2 PUSH1 0x40 ADD MLOAD PUSH1 0x1 PUSH1 0x1 PUSH1 0xA0 SHL SUB AND DUP3 PUSH1 0x20 ADD MLOAD PUSH32 0x476D61A9A3F67126B2084F6F60470BF31711253F8F316559BBD1E5B06713D888 DUP5 PUSH1 0x80 ADD MLOAD DUP6 PUSH1 0xA0 ADD MLOAD DUP7 PUSH1 0xC0 ADD MLOAD DUP8 PUSH1 0xE0 ADD MLOAD PUSH1 0x40 MLOAD PUSH2 0xA4C SWAP5 SWAP4 SWAP3 SWAP2 SWAP1 SWAP4 DUP5 MSTORE PUSH1 0x20 DUP5 ADD SWAP3 SWAP1 SWAP3 MSTORE PUSH1 0x40 DUP4 ADD MSTORE PUSH1 0x60 DUP3 ADD MSTORE PUSH1 0x80 ADD SWAP1 JUMP JUMPDEST PUSH1 0x40 MLOAD DUP1 SWAP2 SUB SWAP1 LOG4 POP SWAP7 SWAP6 POP POP POP POP POP POP JUMP JUMPDEST PUSH1 0x1 PUSH1 0x1 PUSH1 0xA0 SHL SUB DUP2 AND PUSH1 0x0 SWAP1 DUP2 MSTORE PUSH1 0x8 PUSH1 0x20 MSTORE PUSH1 0x40 DUP2 KECCAK256 SLOAD PUSH1 0x60 SWAP2 DUP3 SWAP2 DUP3 SWAP2 SWAP1 PUSH8 0xFFFFFFFFFFFFFFFF DUP2 GT ISZERO PUSH2 0xA98 JUMPI PUSH2 0xA98 PUSH2 0x3163 JUMP JUMPDEST PUSH1 0x40 MLOAD SWAP1 DUP1 DUP3 MSTORE DUP1 PUSH1 0x20 MUL PUSH1 0x20 ADD DUP3 ADD PUSH1 0x40 MSTORE DUP1 ISZERO PUSH2 0xAC1 JUMPI DUP2 PUSH1 0x20 ADD PUSH1 0x20 DUP3 MUL DUP1 CALLDATASIZE DUP4 CALLDATACOPY ADD SWAP1 POP JUMPDEST POP PUSH1 0x1 PUSH1 0x1 PUSH1 0xA0 SHL SUB DUP7 AND PUSH1 0x0 SWAP1 DUP2 MSTORE PUSH1 0x8 PUSH1 0x20 MSTORE PUSH1 0x40 DUP2 KECCAK256 SLOAD SWAP2 SWAP3 POP SWAP1 PUSH8 0xFFFFFFFFFFFFFFFF DUP2 GT ISZERO PUSH2 0xAF7 JUMPI PUSH2 0xAF7 PUSH2 0x3163 JUMP JUMPDEST PUSH1 0x40 MLOAD SWAP1 DUP1 DUP3 MSTORE DUP1 PUSH1 0x20 MUL PUSH1 0x20 ADD DUP3 ADD PUSH1 0x40 MSTORE DUP1 ISZERO PUSH2 0xB20 JUMPI DUP2 PUSH1 0x20 ADD PUSH1 0x20 DUP3 MUL DUP1 CALLDATASIZE DUP4 CALLDATACOPY ADD SWAP1 POP JUMPDEST POP SWAP1 POP PUSH1 0x0 JUMPDEST PUSH1 0x1 PUSH1 0x1 PUSH1 0xA0 SHL SUB DUP8 AND PUSH1 0x0 SWAP1 DUP2 MSTORE PUSH1 0x8 PUSH1 0x20 MSTORE PUSH1 0x40 SWAP1 KECCAK256 SLOAD DUP2 LT ISZERO PUSH2 0xC30 JUMPI PUSH1 0x1 PUSH1 0x1 PUSH1 0xA0 SHL SUB DUP8 AND PUSH1 0x0 SWAP1 DUP2 MSTORE PUSH1 0x8 PUSH1 0x20 MSTORE PUSH1 0x40 DUP2 KECCAK256 DUP1 SLOAD PUSH1 0x3 SWAP3 SWAP2 SWAP1 DUP5 SWAP1 DUP2 LT PUSH2 0xB75 JUMPI PUSH2 0xB75 PUSH2 0x36A6 JUMP JUMPDEST SWAP1 PUSH1 0x0 MSTORE PUSH1 0x20 PUSH1 0x0 KECCAK256 ADD SLOAD DUP2 MSTORE PUSH1 0x20 ADD SWAP1 DUP2 MSTORE PUSH1 0x20 ADD PUSH1 0x0 KECCAK256 SLOAD DUP4 DUP3 DUP2 MLOAD DUP2 LT PUSH2 0xBA1 JUMPI PUSH2 0xBA1 PUSH2 0x36A6 JUMP JUMPDEST PUSH1 0x20 MUL PUSH1 0x20 ADD ADD DUP2 DUP2 MSTORE POP POP PUSH1 0x4 PUSH1 0x0 PUSH1 0x8 PUSH1 0x0 DUP11 PUSH1 0x1 PUSH1 0x1 PUSH1 0xA0 SHL SUB AND PUSH1 0x1 PUSH1 0x1 PUSH1 0xA0 SHL SUB AND DUP2 MSTORE PUSH1 0x20 ADD SWAP1 DUP2 MSTORE PUSH1 0x20 ADD PUSH1 0x0 KECCAK256 DUP4 DUP2 SLOAD DUP2 LT PUSH2 0xBE7 JUMPI PUSH2 0xBE7 PUSH2 0x36A6 JUMP JUMPDEST SWAP1 PUSH1 0x0 MSTORE PUSH1 0x20 PUSH1 0x0 KECCAK256 ADD SLOAD DUP2 MSTORE PUSH1 0x20 ADD SWAP1 DUP2 MSTORE PUSH1 0x20 ADD PUSH1 0x0 KECCAK256 SLOAD DUP3 DUP3 DUP2 MLOAD DUP2 LT PUSH2 0xC13 JUMPI PUSH2 0xC13 PUSH2 0x36A6 JUMP JUMPDEST PUSH1 0x20 SWAP1 DUP2 MUL SWAP2 SWAP1 SWAP2 ADD ADD MSTORE DUP1 PUSH2 0xC28 DUP2 PUSH2 0x36D2 JUMP JUMPDEST SWAP2 POP POP PUSH2 0xB26 JUMP JUMPDEST POP PUSH1 0x1 PUSH1 0x1 PUSH1 0xA0 SHL SUB DUP7 AND PUSH1 0x0 SWAP1 DUP2 MSTORE PUSH1 0x8 PUSH1 0x20 SWAP1 DUP2 MSTORE PUSH1 0x40 SWAP2 DUP3 SWAP1 KECCAK256 DUP1 SLOAD DUP4 MLOAD DUP2 DUP5 MUL DUP2 ADD DUP5 ADD SWAP1 SWAP5 MSTORE DUP1 DUP5 MSTORE DUP6 SWAP4 DUP6 SWAP4 SWAP1 SWAP2 DUP4 SWAP2 DUP4 ADD DUP3 DUP3 DUP1 ISZERO PUSH2 0xC95 JUMPI PUSH1 0x20 MUL DUP3 ADD SWAP2 SWAP1 PUSH1 0x0 MSTORE PUSH1 0x20 PUSH1 0x0 KECCAK256 SWAP1 JUMPDEST DUP2 SLOAD DUP2 MSTORE PUSH1 0x20 ADD SWAP1 PUSH1 0x1 ADD SWAP1 DUP1 DUP4 GT PUSH2 0xC81 JUMPI JUMPDEST POP POP POP POP POP SWAP1 POP SWAP5 POP SWAP5 POP SWAP5 POP POP POP SWAP2 SWAP4 SWAP1 SWAP3 POP JUMP JUMPDEST PUSH1 0x0 CALLER DUP1 EXTCODESIZE DUP1 ISZERO PUSH2 0xCCE JUMPI PUSH1 0x40 MLOAD PUSH3 0x461BCD PUSH1 0xE5 SHL DUP2 MSTORE PUSH1 0x4 ADD PUSH2 0x659 SWAP1 PUSH2 0x3467 JUMP JUMPDEST DUP4 PUSH1 0x0 DUP1 JUMPDEST CALLER PUSH1 0x0 SWAP1 DUP2 MSTORE PUSH1 0x8 PUSH1 0x20 MSTORE PUSH1 0x40 SWAP1 KECCAK256 SLOAD DUP2 LT ISZERO PUSH2 0xD8A JUMPI CALLER PUSH1 0x0 SWAP1 DUP2 MSTORE PUSH1 0x8 PUSH1 0x20 MSTORE PUSH1 0x40 DUP2 KECCAK256 DUP1 SLOAD PUSH1 0x3 SWAP2 DUP4 SWAP2 DUP6 SWAP1 DUP2 LT PUSH2 0xD10 JUMPI PUSH2 0xD10 PUSH2 0x36A6 JUMP JUMPDEST SWAP1 PUSH1 0x0 MSTORE PUSH1 0x20 PUSH1 0x0 KECCAK256 ADD SLOAD DUP2 MSTORE PUSH1 0x20 ADD SWAP1 DUP2 MSTORE PUSH1 0x20 ADD PUSH1 0x0 KECCAK256 SLOAD SWAP1 POP DUP4 DUP2 SUB PUSH2 0xD77 JUMPI PUSH1 0x0 DUP5 DUP2 MSTORE PUSH1 0x10 PUSH1 0x20 MSTORE PUSH1 0x40 DUP2 KECCAK256 DUP1 SLOAD PUSH1 0x1 SWAP3 SWAP1 PUSH2 0xD52 SWAP1 DUP5 SWAP1 PUSH2 0x36EB JUMP JUMPDEST SWAP1 SWAP2 SSTORE POP POP PUSH1 0x0 DUP5 DUP2 MSTORE PUSH1 0x10 PUSH1 0x20 MSTORE PUSH1 0x40 SWAP1 KECCAK256 SLOAD PUSH1 0x3 GT PUSH2 0xD77 JUMPI PUSH1 0x1 SWAP3 POP POP PUSH2 0xD8A JUMP JUMPDEST POP DUP1 PUSH2 0xD82 DUP2 PUSH2 0x36D2 JUMP JUMPDEST SWAP2 POP POP PUSH2 0xCD3 JUMP JUMPDEST POP PUSH1 0x0 DUP3 DUP2 MSTORE PUSH1 0x10 PUSH1 0x20 MSTORE PUSH1 0x40 DUP2 KECCAK256 SSTORE DUP1 ISZERO PUSH2 0xDA6 PUSH1 0x3 PUSH2 0x2FC4 JUMP JUMPDEST PUSH2 0xDAF DUP5 PUSH2 0x2FC4 JUMP JUMPDEST PUSH1 0x40 MLOAD PUSH1 0x20 ADD PUSH2 0xDC0 SWAP3 SWAP2 SWAP1 PUSH2 0x36FE JUMP JUMPDEST PUSH1 0x40 MLOAD PUSH1 0x20 DUP2 DUP4 SUB SUB DUP2 MSTORE SWAP1 PUSH1 0x40 MSTORE SWAP1 PUSH2 0xDED JUMPI PUSH1 0x40 MLOAD PUSH3 0x461BCD PUSH1 0xE5 SHL DUP2 MSTORE PUSH1 0x4 ADD PUSH2 0x659 SWAP2 SWAP1 PUSH2 0x33D0 JUMP JUMPDEST POP PUSH2 0xDF8 DUP7 DUP9 PUSH2 0x2ECB JUMP JUMPDEST PUSH2 0xE14 JUMPI PUSH1 0x40 MLOAD PUSH3 0x461BCD PUSH1 0xE5 SHL DUP2 MSTORE PUSH1 0x4 ADD PUSH2 0x659 SWAP1 PUSH2 0x376D JUMP JUMPDEST PUSH1 0x0 PUSH2 0xE20 DUP8 DUP10 PUSH2 0x23FB JUMP JUMPDEST PUSH1 0x1 SLOAD PUSH1 0x40 MLOAD PUSH4 0x23B872DD PUSH1 0xE0 SHL DUP2 MSTORE SWAP2 SWAP3 POP PUSH1 0x1 PUSH1 0x1 PUSH1 0xA0 SHL SUB AND SWAP1 PUSH4 0x23B872DD SWAP1 PUSH2 0xE55 SWAP1 CALLER SWAP1 ADDRESS SWAP1 DUP7 SWAP1 PUSH1 0x4 ADD PUSH2 0x3492 JUMP JUMPDEST PUSH1 0x20 PUSH1 0x40 MLOAD DUP1 DUP4 SUB DUP2 PUSH1 0x0 DUP8 GAS CALL ISZERO DUP1 ISZERO PUSH2 0xE74 JUMPI RETURNDATASIZE PUSH1 0x0 DUP1 RETURNDATACOPY RETURNDATASIZE PUSH1 0x0 REVERT JUMPDEST POP POP POP POP PUSH1 0x40 MLOAD RETURNDATASIZE PUSH1 0x1F NOT PUSH1 0x1F DUP3 ADD AND DUP3 ADD DUP1 PUSH1 0x40 MSTORE POP DUP2 ADD SWAP1 PUSH2 0xE98 SWAP2 SWAP1 PUSH2 0x34B6 JUMP JUMPDEST PUSH2 0xEA1 DUP3 PUSH2 0x2FC4 JUMP JUMPDEST PUSH1 0x40 MLOAD PUSH1 0x20 ADD PUSH2 0xEB1 SWAP2 SWAP1 PUSH2 0x379B JUMP JUMPDEST PUSH1 0x40 MLOAD PUSH1 0x20 DUP2 DUP4 SUB SUB DUP2 MSTORE SWAP1 PUSH1 0x40 MSTORE SWAP1 PUSH2 0xEDE JUMPI PUSH1 0x40 MLOAD PUSH3 0x461BCD PUSH1 0xE5 SHL DUP2 MSTORE PUSH1 0x4 ADD PUSH2 0x659 SWAP2 SWAP1 PUSH2 0x33D0 JUMP JUMPDEST POP PUSH1 0x1 SLOAD PUSH1 0x0 SLOAD PUSH1 0x1 PUSH1 0x1 PUSH1 0xA0 SHL SUB SWAP2 DUP3 AND SWAP2 PUSH4 0x23B872DD SWAP2 CALLER SWAP2 AND PUSH2 0xF03 DUP6 PUSH2 0x215A JUMP JUMPDEST PUSH1 0x40 MLOAD DUP5 PUSH4 0xFFFFFFFF AND PUSH1 0xE0 SHL DUP2 MSTORE PUSH1 0x4 ADD PUSH2 0xF21 SWAP4 SWAP3 SWAP2 SWAP1 PUSH2 0x3492 JUMP JUMPDEST PUSH1 0x20 PUSH1 0x40 MLOAD DUP1 DUP4 SUB DUP2 PUSH1 0x0 DUP8 GAS CALL ISZERO DUP1 ISZERO PUSH2 0xF40 JUMPI RETURNDATASIZE PUSH1 0x0 DUP1 RETURNDATACOPY RETURNDATASIZE PUSH1 0x0 REVERT JUMPDEST POP POP POP POP PUSH1 0x40 MLOAD RETURNDATASIZE PUSH1 0x1F NOT PUSH1 0x1F DUP3 ADD AND DUP3 ADD DUP1 PUSH1 0x40 MSTORE POP DUP2 ADD SWAP1 PUSH2 0xF64 SWAP2 SWAP1 PUSH2 0x34B6 JUMP JUMPDEST PUSH2 0xF70 PUSH2 0x6E9 DUP4 PUSH2 0x215A JUMP JUMPDEST PUSH1 0x40 MLOAD PUSH1 0x20 ADD PUSH2 0xF80 SWAP2 SWAP1 PUSH2 0x37EB JUMP JUMPDEST PUSH1 0x40 MLOAD PUSH1 0x20 DUP2 DUP4 SUB SUB DUP2 MSTORE SWAP1 PUSH1 0x40 MSTORE SWAP1 PUSH2 0xFAD JUMPI PUSH1 0x40 MLOAD PUSH3 0x461BCD PUSH1 0xE5 SHL DUP2 MSTORE PUSH1 0x4 ADD PUSH2 0x659 SWAP2 SWAP1 PUSH2 0x33D0 JUMP JUMPDEST POP PUSH1 0x2 SLOAD PUSH1 0x40 MLOAD PUSH4 0x40D097C3 PUSH1 0xE0 SHL DUP2 MSTORE CALLER PUSH1 0x4 DUP3 ADD MSTORE PUSH1 0x0 SWAP2 PUSH1 0x1 PUSH1 0x1 PUSH1 0xA0 SHL SUB AND SWAP1 PUSH4 0x40D097C3 SWAP1 PUSH1 0x24 ADD PUSH1 0x20 PUSH1 0x40 MLOAD DUP1 DUP4 SUB DUP2 PUSH1 0x0 DUP8 GAS CALL ISZERO DUP1 ISZERO PUSH2 0xFF9 JUMPI RETURNDATASIZE PUSH1 0x0 DUP1 RETURNDATACOPY RETURNDATASIZE PUSH1 0x0 REVERT JUMPDEST POP POP POP POP PUSH1 0x40 MLOAD RETURNDATASIZE PUSH1 0x1F NOT PUSH1 0x1F DUP3 ADD AND DUP3 ADD DUP1 PUSH1 0x40 MSTORE POP DUP2 ADD SWAP1 PUSH2 0x101D SWAP2 SWAP1 PUSH2 0x3563 JUMP JUMPDEST PUSH1 0x0 DUP2 DUP2 MSTORE PUSH1 0x3 PUSH1 0x20 SWAP1 DUP2 MSTORE PUSH1 0x40 DUP1 DUP4 KECCAK256 DUP13 SWAP1 SSTORE PUSH1 0x4 DUP1 DUP4 MSTORE DUP2 DUP5 KECCAK256 DUP15 SWAP1 SSTORE PUSH1 0x5 DUP4 MSTORE DUP2 DUP5 KECCAK256 DUP5 SWAP1 SSTORE PUSH1 0x6 DUP4 MSTORE DUP2 DUP5 KECCAK256 DUP1 SLOAD PUSH1 0x1 PUSH1 0x1 PUSH1 0xA0 SHL SUB NOT AND CALLER SWAP1 DUP2 OR SWAP1 SWAP2 SSTORE DUP5 MSTORE PUSH1 0x8 DUP4 MSTORE DUP2 DUP5 KECCAK256 DUP1 SLOAD PUSH1 0x1 DUP2 DUP2 ADD DUP4 SSTORE SWAP2 DUP7 MSTORE DUP5 DUP7 KECCAK256 ADD DUP7 SWAP1 SSTORE DUP14 DUP6 MSTORE PUSH1 0xB DUP5 MSTORE DUP3 DUP6 KECCAK256 DUP1 SLOAD DUP1 DUP4 ADD DUP3 SSTORE SWAP1 DUP7 MSTORE DUP5 DUP7 KECCAK256 ADD DUP7 SWAP1 SSTORE DUP14 DUP6 MSTORE PUSH1 0xD DUP5 MSTORE DUP3 DUP6 KECCAK256 DUP16 DUP7 MSTORE DUP5 MSTORE DUP3 DUP6 KECCAK256 DUP1 SLOAD SWAP2 DUP3 ADD DUP2 SSTORE DUP6 MSTORE SWAP3 SWAP1 SWAP4 KECCAK256 SWAP1 SWAP2 ADD DUP4 SWAP1 SSTORE MLOAD PUSH4 0xE6CA2A8D PUSH1 0xE0 SHL DUP2 MSTORE SWAP1 DUP2 ADD DUP5 SWAP1 MSTORE SWAP1 SWAP2 POP PUSH20 0x0 SWAP1 PUSH4 0xE6CA2A8D SWAP1 PUSH1 0x24 ADD PUSH1 0x20 PUSH1 0x40 MLOAD DUP1 DUP4 SUB DUP2 DUP7 GAS DELEGATECALL ISZERO DUP1 ISZERO PUSH2 0x110C JUMPI RETURNDATASIZE PUSH1 0x0 DUP1 RETURNDATACOPY RETURNDATASIZE PUSH1 0x0 REVERT JUMPDEST POP POP POP POP PUSH1 0x40 MLOAD RETURNDATASIZE PUSH1 0x1F NOT PUSH1 0x1F DUP3 ADD AND DUP3 ADD DUP1 PUSH1 0x40 MSTORE POP DUP2 ADD SWAP1 PUSH2 0x1130 SWAP2 SWAP1 PUSH2 0x3563 JUMP JUMPDEST PUSH1 0x0 DUP10 DUP2 MSTORE PUSH1 0xA PUSH1 0x20 MSTORE PUSH1 0x40 DUP2 KECCAK256 PUSH1 0x8 ADD DUP1 SLOAD SWAP1 SWAP2 SWAP1 PUSH2 0x1151 SWAP1 DUP5 SWAP1 PUSH2 0x36EB JUMP JUMPDEST SWAP1 SWAP2 SSTORE POP POP PUSH1 0x0 DUP9 DUP2 MSTORE PUSH1 0xE PUSH1 0x20 SWAP1 DUP2 MSTORE PUSH1 0x40 DUP1 DUP4 KECCAK256 DUP13 DUP5 MSTORE SWAP1 SWAP2 MSTORE SWAP1 DUP2 SWAP1 KECCAK256 SLOAD SWAP1 MLOAD PUSH4 0x17137DA5 PUSH1 0xE1 SHL DUP2 MSTORE PUSH1 0x4 DUP2 ADD DUP5 SWAP1 MSTORE PUSH20 0x0 SWAP1 PUSH4 0x2E26FB4A SWAP1 PUSH1 0x24 ADD PUSH1 0x20 PUSH1 0x40 MLOAD DUP1 DUP4 SUB DUP2 DUP7 GAS DELEGATECALL ISZERO DUP1 ISZERO PUSH2 0x11C1 JUMPI RETURNDATASIZE PUSH1 0x0 DUP1 RETURNDATACOPY RETURNDATASIZE PUSH1 0x0 REVERT JUMPDEST POP POP POP POP PUSH1 0x40 MLOAD RETURNDATASIZE PUSH1 0x1F NOT PUSH1 0x1F DUP3 ADD AND DUP3 ADD DUP1 PUSH1 0x40 MSTORE POP DUP2 ADD SWAP1 PUSH2 0x11E5 SWAP2 SWAP1 PUSH2 0x3563 JUMP JUMPDEST PUSH1 0x0 DUP3 DUP2 MSTORE PUSH1 0x5 PUSH1 0x20 MSTORE PUSH1 0x40 DUP2 KECCAK256 DUP1 SLOAD SWAP1 SWAP2 SWAP1 PUSH2 0x1203 SWAP1 DUP5 SWAP1 PUSH2 0x36EB JUMP JUMPDEST SWAP1 SWAP2 SSTORE POP POP PUSH1 0x0 DUP10 DUP2 MSTORE PUSH1 0xD PUSH1 0x20 SWAP1 DUP2 MSTORE PUSH1 0x40 DUP1 DUP4 KECCAK256 DUP14 DUP5 MSTORE SWAP1 SWAP2 MSTORE DUP2 KECCAK256 SLOAD PUSH2 0x122E SWAP1 PUSH1 0x1 SWAP1 PUSH2 0x3842 JUMP JUMPDEST SWAP1 POP PUSH1 0x0 JUMPDEST PUSH1 0x0 DUP12 DUP2 MSTORE PUSH1 0xD PUSH1 0x20 SWAP1 DUP2 MSTORE PUSH1 0x40 DUP1 DUP4 KECCAK256 DUP16 DUP5 MSTORE SWAP1 SWAP2 MSTORE SWAP1 KECCAK256 SLOAD DUP2 LT ISZERO PUSH2 0x1345 JUMPI PUSH1 0x0 DUP12 DUP2 MSTORE PUSH1 0xD PUSH1 0x20 SWAP1 DUP2 MSTORE PUSH1 0x40 DUP1 DUP4 KECCAK256 DUP16 DUP5 MSTORE SWAP1 SWAP2 MSTORE DUP2 KECCAK256 DUP1 SLOAD DUP4 SWAP1 DUP2 LT PUSH2 0x127F JUMPI PUSH2 0x127F PUSH2 0x36A6 JUMP JUMPDEST SWAP1 PUSH1 0x0 MSTORE PUSH1 0x20 PUSH1 0x0 KECCAK256 ADD SLOAD SWAP1 POP DUP4 DUP2 EQ PUSH2 0x1332 JUMPI PUSH1 0x40 MLOAD PUSH4 0x84105419 PUSH1 0xE0 SHL DUP2 MSTORE PUSH1 0x4 DUP2 ADD DUP8 SWAP1 MSTORE PUSH1 0x24 DUP2 ADD DUP5 SWAP1 MSTORE PUSH20 0x0 SWAP1 PUSH4 0x84105419 SWAP1 PUSH1 0x44 ADD PUSH1 0x20 PUSH1 0x40 MLOAD DUP1 DUP4 SUB DUP2 DUP7 GAS DELEGATECALL ISZERO DUP1 ISZERO PUSH2 0x12EA JUMPI RETURNDATASIZE PUSH1 0x0 DUP1 RETURNDATACOPY RETURNDATASIZE PUSH1 0x0 REVERT JUMPDEST POP POP POP POP PUSH1 0x40 MLOAD RETURNDATASIZE PUSH1 0x1F NOT PUSH1 0x1F DUP3 ADD AND DUP3 ADD DUP1 PUSH1 0x40 MSTORE POP DUP2 ADD SWAP1 PUSH2 0x130E SWAP2 SWAP1 PUSH2 0x3563 JUMP JUMPDEST PUSH1 0x0 DUP3 DUP2 MSTORE PUSH1 0x5 PUSH1 0x20 MSTORE PUSH1 0x40 DUP2 KECCAK256 DUP1 SLOAD SWAP1 SWAP2 SWAP1 PUSH2 0x132C SWAP1 DUP5 SWAP1 PUSH2 0x36EB JUMP JUMPDEST SWAP1 SWAP2 SSTORE POP POP JUMPDEST POP DUP1 PUSH2 0x133D DUP2 PUSH2 0x36D2 JUMP JUMPDEST SWAP2 POP POP PUSH2 0x1233 JUMP JUMPDEST POP CALLER PUSH1 0x0 DUP2 DUP2 MSTORE PUSH1 0x7 PUSH1 0x20 MSTORE PUSH1 0x40 SWAP1 DUP2 SWAP1 KECCAK256 SWAP1 MLOAD DUP14 SWAP3 DUP14 SWAP3 PUSH32 0xFDB613EEDF8EACC2A1E8F1156ABA4865A8BC02E3BB90482976AED6B559FAA57C SWAP3 PUSH2 0x138E SWAP3 SWAP2 SWAP1 DUP11 SWAP1 TIMESTAMP SWAP1 PUSH2 0x3855 JUMP JUMPDEST PUSH1 0x40 MLOAD DUP1 SWAP2 SUB SWAP1 LOG3 POP SWAP9 SWAP10 SWAP9 POP POP POP POP POP POP POP POP POP JUMP JUMPDEST PUSH1 0x0 PUSH2 0x13B1 DUP4 DUP4 PUSH2 0x2ECB JUMP JUMPDEST PUSH2 0x13CD JUMPI PUSH1 0x40 MLOAD PUSH3 0x461BCD PUSH1 0xE5 SHL DUP2 MSTORE PUSH1 0x4 ADD PUSH2 0x659 SWAP1 PUSH2 0x376D JUMP JUMPDEST PUSH1 0x0 DUP4 DUP2 MSTORE PUSH1 0xD PUSH1 0x20 SWAP1 DUP2 MSTORE PUSH1 0x40 DUP1 DUP4 KECCAK256 DUP6 DUP5 MSTORE SWAP1 SWAP2 MSTORE DUP2 KECCAK256 SLOAD PUSH2 0x13F3 SWAP1 PUSH1 0x1 SWAP1 PUSH2 0x3842 JUMP JUMPDEST SWAP1 POP PUSH1 0x0 DUP1 PUSH1 0x0 DUP1 PUSH2 0x1404 DUP9 PUSH2 0x1E05 JUMP JUMPDEST SWAP3 SWAP7 POP SWAP1 SWAP5 POP SWAP3 POP SWAP1 POP PUSH1 0x0 PUSH20 0x0 PUSH4 0x9B49380B PUSH2 0x1435 DUP9 PUSH1 0x2 PUSH2 0x36EB JUMP JUMPDEST PUSH1 0x0 DUP13 DUP2 MSTORE PUSH1 0xA PUSH1 0x20 MSTORE PUSH1 0x40 SWAP1 DUP2 SWAP1 KECCAK256 PUSH1 0x8 ADD SLOAD SWAP1 MLOAD PUSH1 0xE0 DUP5 SWAP1 SHL PUSH1 0x1 PUSH1 0x1 PUSH1 0xE0 SHL SUB NOT AND DUP2 MSTORE PUSH1 0x4 DUP2 ADD SWAP3 SWAP1 SWAP3 MSTORE PUSH1 0x24 DUP3 ADD MSTORE PUSH1 0x44 DUP2 ADD DUP9 SWAP1 MSTORE PUSH1 0x64 DUP2 ADD DUP8 SWAP1 MSTORE PUSH1 0x84 DUP2 ADD DUP7 SWAP1 MSTORE PUSH1 0xA4 DUP2 ADD DUP6 SWAP1 MSTORE PUSH1 0xC4 ADD PUSH1 0x20 PUSH1 0x40 MLOAD DUP1 DUP4 SUB DUP2 DUP7 GAS DELEGATECALL ISZERO DUP1 ISZERO PUSH2 0x14A5 JUMPI RETURNDATASIZE PUSH1 0x0 DUP1 RETURNDATACOPY RETURNDATASIZE PUSH1 0x0 REVERT JUMPDEST POP POP POP POP PUSH1 0x40 MLOAD RETURNDATASIZE PUSH1 0x1F NOT PUSH1 0x1F DUP3 ADD AND DUP3 ADD DUP1 PUSH1 0x40 MSTORE POP DUP2 ADD SWAP1 PUSH2 0x14C9 SWAP2 SWAP1 PUSH2 0x3563 JUMP JUMPDEST SWAP1 POP PUSH1 0x0 PUSH20 0x0 PUSH4 0x84105419 DUP4 PUSH2 0x14F3 DUP11 PUSH1 0x2 PUSH2 0x36EB JUMP JUMPDEST PUSH1 0x40 MLOAD PUSH1 0x1 PUSH1 0x1 PUSH1 0xE0 SHL SUB NOT PUSH1 0xE0 DUP6 SWAP1 SHL AND DUP2 MSTORE PUSH1 0x4 DUP2 ADD SWAP3 SWAP1 SWAP3 MSTORE PUSH1 0x24 DUP3 ADD MSTORE PUSH1 0x44 ADD PUSH1 0x20 PUSH1 0x40 MLOAD DUP1 DUP4 SUB DUP2 DUP7 GAS DELEGATECALL ISZERO DUP1 ISZERO PUSH2 0x1534 JUMPI RETURNDATASIZE PUSH1 0x0 DUP1 RETURNDATACOPY RETURNDATASIZE PUSH1 0x0 REVERT JUMPDEST POP POP POP POP PUSH1 0x40 MLOAD RETURNDATASIZE PUSH1 0x1F NOT PUSH1 0x1F DUP3 ADD AND DUP3 ADD DUP1 PUSH1 0x40 MSTORE POP DUP2 ADD SWAP1 PUSH2 0x1558 SWAP2 SWAP1 PUSH2 0x3563 JUMP JUMPDEST SWAP8 POP POP POP POP POP POP POP POP JUMPDEST SWAP3 SWAP2 POP POP JUMP JUMPDEST PUSH1 0x2 SLOAD PUSH1 0x1 PUSH1 0x1 PUSH1 0xA0 SHL SUB AND CALLER EQ PUSH2 0x15C2 JUMPI PUSH1 0x40 MLOAD PUSH3 0x461BCD PUSH1 0xE5 SHL DUP2 MSTORE PUSH1 0x20 PUSH1 0x4 DUP3 ADD MSTORE PUSH1 0x1A PUSH1 0x24 DUP3 ADD MSTORE PUSH32 0x6F6E6C7920696E7465726E616C204E465420636F6E7472616374000000000000 PUSH1 0x44 DUP3 ADD MSTORE PUSH1 0x64 ADD PUSH2 0x659 JUMP JUMPDEST PUSH1 0x0 DUP2 DUP2 MSTORE PUSH1 0x6 PUSH1 0x20 MSTORE PUSH1 0x40 DUP2 KECCAK256 DUP1 SLOAD PUSH1 0x1 PUSH1 0x1 PUSH1 0xA0 SHL SUB NOT AND PUSH1 0x1 PUSH1 0x1 PUSH1 0xA0 SHL SUB DUP6 AND OR SWAP1 SSTORE JUMPDEST PUSH1 0x1 PUSH1 0x1 PUSH1 0xA0 SHL SUB DUP5 AND PUSH1 0x0 SWAP1 DUP2 MSTORE PUSH1 0x8 PUSH1 0x20 MSTORE PUSH1 0x40 SWAP1 KECCAK256 SLOAD DUP2 LT ISZERO PUSH2 0x171C JUMPI PUSH1 0x1 PUSH1 0x1 PUSH1 0xA0 SHL SUB DUP5 AND PUSH1 0x0 SWAP1 DUP2 MSTORE PUSH1 0x8 PUSH1 0x20 MSTORE PUSH1 0x40 SWAP1 KECCAK256 DUP1 SLOAD DUP4 SWAP2 SWAP1 DUP4 SWAP1 DUP2 LT PUSH2 0x1637 JUMPI PUSH2 0x1637 PUSH2 0x36A6 JUMP JUMPDEST SWAP1 PUSH1 0x0 MSTORE PUSH1 0x20 PUSH1 0x0 KECCAK256 ADD SLOAD SUB PUSH2 0x170A JUMPI PUSH1 0x1 PUSH1 0x1 PUSH1 0xA0 SHL SUB DUP5 AND PUSH1 0x0 SWAP1 DUP2 MSTORE PUSH1 0x8 PUSH1 0x20 MSTORE PUSH1 0x40 SWAP1 KECCAK256 DUP1 SLOAD PUSH2 0x166D SWAP1 PUSH1 0x1 SWAP1 PUSH2 0x3842 JUMP JUMPDEST DUP2 SLOAD DUP2 LT PUSH2 0x167D JUMPI PUSH2 0x167D PUSH2 0x36A6 JUMP JUMPDEST SWAP1 PUSH1 0x0 MSTORE PUSH1 0x20 PUSH1 0x0 KECCAK256 ADD SLOAD PUSH1 0x8 PUSH1 0x0 DUP7 PUSH1 0x1 PUSH1 0x1 PUSH1 0xA0 SHL SUB AND PUSH1 0x1 PUSH1 0x1 PUSH1 0xA0 SHL SUB AND DUP2 MSTORE PUSH1 0x20 ADD SWAP1 DUP2 MSTORE PUSH1 0x20 ADD PUSH1 0x0 KECCAK256 DUP3 DUP2 SLOAD DUP2 LT PUSH2 0x16BE JUMPI PUSH2 0x16BE PUSH2 0x36A6 JUMP JUMPDEST PUSH1 0x0 SWAP2 DUP3 MSTORE PUSH1 0x20 DUP1 DUP4 KECCAK256 SWAP1 SWAP2 ADD SWAP3 SWAP1 SWAP3 SSTORE PUSH1 0x1 PUSH1 0x1 PUSH1 0xA0 SHL SUB DUP7 AND DUP2 MSTORE PUSH1 0x8 SWAP1 SWAP2 MSTORE PUSH1 0x40 SWAP1 KECCAK256 DUP1 SLOAD DUP1 PUSH2 0x16F3 JUMPI PUSH2 0x16F3 PUSH2 0x38FA JUMP JUMPDEST PUSH1 0x1 SWAP1 SUB DUP2 DUP2 SWAP1 PUSH1 0x0 MSTORE PUSH1 0x20 PUSH1 0x0 KECCAK256 ADD PUSH1 0x0 SWAP1 SSTORE SWAP1 SSTORE JUMPDEST DUP1 PUSH2 0x1714 DUP2 PUSH2 0x36D2 JUMP JUMPDEST SWAP2 POP POP PUSH2 0x15EA JUMP JUMPDEST POP PUSH1 0x1 PUSH1 0x1 PUSH1 0xA0 SHL SUB DUP3 AND PUSH1 0x0 SWAP1 DUP2 MSTORE PUSH1 0x8 PUSH1 0x20 SWAP1 DUP2 MSTORE PUSH1 0x40 DUP1 DUP4 KECCAK256 DUP1 SLOAD PUSH1 0x1 DUP2 ADD DUP3 SSTORE SWAP1 DUP5 MSTORE DUP3 DUP5 KECCAK256 ADD DUP5 SWAP1 SSTORE DUP4 DUP4 MSTORE PUSH1 0x3 DUP3 MSTORE DUP1 DUP4 KECCAK256 SLOAD DUP4 MSTORE PUSH1 0xE DUP3 MSTORE DUP1 DUP4 KECCAK256 DUP5 DUP5 MSTORE PUSH1 0x4 DUP4 MSTORE DUP2 DUP5 KECCAK256 SLOAD DUP5 MSTORE SWAP1 SWAP2 MSTORE SWAP1 KECCAK256 SLOAD DUP2 SWAP1 SUB PUSH2 0x17F4 JUMPI PUSH1 0x0 DUP2 DUP2 MSTORE PUSH1 0x3 PUSH1 0x20 DUP2 DUP2 MSTORE PUSH1 0x40 DUP1 DUP5 KECCAK256 DUP1 SLOAD DUP6 MSTORE PUSH1 0xC DUP1 DUP5 MSTORE DUP3 DUP7 KECCAK256 DUP8 DUP8 MSTORE PUSH1 0x4 DUP1 DUP7 MSTORE DUP5 DUP9 KECCAK256 DUP1 SLOAD DUP10 MSTORE SWAP2 DUP7 MSTORE DUP5 DUP9 KECCAK256 SWAP1 SWAP7 ADD DUP1 SLOAD PUSH1 0x1 PUSH1 0x1 PUSH1 0xA0 SHL SUB NOT AND PUSH1 0x1 PUSH1 0x1 PUSH1 0xA0 SHL SUB DUP12 AND SWAP1 DUP2 OR SWAP1 SWAP2 SSTORE DUP8 MSTORE PUSH1 0x7 DUP6 MSTORE DUP4 DUP8 KECCAK256 SWAP3 SLOAD DUP8 MSTORE SWAP1 DUP5 MSTORE DUP3 DUP7 KECCAK256 SWAP1 SLOAD DUP7 MSTORE SWAP1 SWAP3 MSTORE SWAP1 SWAP3 KECCAK256 ADD SWAP1 PUSH2 0x17F2 SWAP1 DUP3 PUSH2 0x3910 JUMP JUMPDEST POP JUMPDEST PUSH1 0x0 DUP2 DUP2 MSTORE PUSH1 0x4 PUSH1 0x20 SWAP1 DUP2 MSTORE PUSH1 0x40 DUP1 DUP4 KECCAK256 SLOAD PUSH1 0x3 DUP4 MSTORE SWAP3 DUP2 SWAP1 KECCAK256 SLOAD DUP2 MLOAD PUSH1 0x1 PUSH1 0x1 PUSH1 0xA0 SHL SUB DUP1 DUP10 AND DUP3 MSTORE DUP8 AND SWAP4 DUP2 ADD SWAP4 SWAP1 SWAP4 MSTORE SWAP1 DUP3 ADD DUP5 SWAP1 MSTORE TIMESTAMP PUSH1 0x60 DUP4 ADD MSTORE SWAP1 PUSH32 0xB04FF09E4856CF929AD6B25A29B1A5392C2A84B848B58B86C712F18DD1E0DE21 SWAP1 PUSH1 0x80 ADD PUSH1 0x40 MLOAD DUP1 SWAP2 SUB SWAP1 LOG3 POP POP POP JUMP JUMPDEST PUSH1 0x0 DUP2 DUP2 MSTORE PUSH1 0xA PUSH1 0x20 MSTORE PUSH1 0x40 SWAP1 KECCAK256 DUP1 SLOAD PUSH1 0x60 SWAP2 SWAP1 PUSH2 0x1883 SWAP1 PUSH2 0x3529 JUMP JUMPDEST DUP1 PUSH1 0x1F ADD PUSH1 0x20 DUP1 SWAP2 DIV MUL PUSH1 0x20 ADD PUSH1 0x40 MLOAD SWAP1 DUP2 ADD PUSH1 0x40 MSTORE DUP1 SWAP3 SWAP2 SWAP1 DUP2 DUP2 MSTORE PUSH1 0x20 ADD DUP3 DUP1 SLOAD PUSH2 0x18AF SWAP1 PUSH2 0x3529 JUMP JUMPDEST DUP1 ISZERO PUSH2 0x18FC JUMPI DUP1 PUSH1 0x1F LT PUSH2 0x18D1 JUMPI PUSH2 0x100 DUP1 DUP4 SLOAD DIV MUL DUP4 MSTORE SWAP2 PUSH1 0x20 ADD SWAP2 PUSH2 0x18FC JUMP JUMPDEST DUP3 ADD SWAP2 SWAP1 PUSH1 0x0 MSTORE PUSH1 0x20 PUSH1 0x0 KECCAK256 SWAP1 JUMPDEST DUP2 SLOAD DUP2 MSTORE SWAP1 PUSH1 0x1 ADD SWAP1 PUSH1 0x20 ADD DUP1 DUP4 GT PUSH2 0x18DF JUMPI DUP3 SWAP1 SUB PUSH1 0x1F AND DUP3 ADD SWAP2 JUMPDEST POP POP POP POP POP SWAP1 POP SWAP2 SWAP1 POP JUMP JUMPDEST PUSH1 0x0 PUSH20 0x0 PUSH4 0xC060093F PUSH1 0x40 MLOAD DUP2 PUSH4 0xFFFFFFFF AND PUSH1 0xE0 SHL DUP2 MSTORE PUSH1 0x4 ADD PUSH1 0x20 PUSH1 0x40 MLOAD DUP1 DUP4 SUB DUP2 DUP7 GAS DELEGATECALL ISZERO DUP1 ISZERO PUSH2 0x1953 JUMPI RETURNDATASIZE PUSH1 0x0 DUP1 RETURNDATACOPY RETURNDATASIZE PUSH1 0x0 REVERT JUMPDEST POP POP POP POP PUSH1 0x40 MLOAD RETURNDATASIZE PUSH1 0x1F NOT PUSH1 0x1F DUP3 ADD AND DUP3 ADD DUP1 PUSH1 0x40 MSTORE POP DUP2 ADD SWAP1 PUSH2 0x1977 SWAP2 SWAP1 PUSH2 0x3563 JUMP JUMPDEST SWAP1 POP SWAP1 JUMP JUMPDEST PUSH1 0x0 DUP2 DUP2 MSTORE PUSH1 0xA PUSH1 0x20 MSTORE PUSH1 0x40 SWAP1 KECCAK256 PUSH1 0x2 ADD SLOAD DUP2 SWAP1 PUSH1 0x1 PUSH1 0x1 PUSH1 0xA0 SHL SUB AND CALLER EQ DUP1 PUSH2 0x19B0 JUMPI POP PUSH1 0x0 SLOAD PUSH1 0x1 PUSH1 0x1 PUSH1 0xA0 SHL SUB AND CALLER EQ JUMPDEST PUSH2 0x1A0E JUMPI PUSH1 0x40 MLOAD PUSH3 0x461BCD PUSH1 0xE5 SHL DUP2 MSTORE PUSH1 0x20 PUSH1 0x4 DUP3 ADD MSTORE PUSH1 0x29 PUSH1 0x24 DUP3 ADD MSTORE PUSH32 0x5468652063616C6C6572206D757374206265207461736B206F776E6572206F72 PUSH1 0x44 DUP3 ADD MSTORE PUSH9 0x1036B0B730B3B2B917 PUSH1 0xB9 SHL PUSH1 0x64 DUP3 ADD MSTORE PUSH1 0x84 ADD PUSH2 0x659 JUMP JUMPDEST PUSH1 0x0 PUSH2 0x1A19 DUP4 PUSH2 0x1E05 JUMP JUMPDEST POP POP POP PUSH1 0x0 DUP5 DUP2 MSTORE PUSH1 0xA PUSH1 0x20 SWAP1 DUP2 MSTORE PUSH1 0x40 DUP1 DUP4 KECCAK256 PUSH1 0x8 ADD SLOAD PUSH1 0xE DUP4 MSTORE DUP2 DUP5 KECCAK256 DUP6 DUP6 MSTORE DUP4 MSTORE SWAP3 DUP2 SWAP1 KECCAK256 SLOAD DUP2 MLOAD PUSH4 0xBEB19A21 PUSH1 0xE0 SHL DUP2 MSTORE PUSH1 0x4 DUP2 ADD DUP6 SWAP1 MSTORE SWAP2 MLOAD SWAP5 SWAP6 POP DUP6 SWAP5 SWAP1 SWAP3 PUSH20 0x0 SWAP3 PUSH4 0xBEB19A21 SWAP3 PUSH1 0x24 DUP1 DUP4 ADD SWAP4 SWAP3 DUP3 SWAP1 SUB ADD DUP2 DUP7 GAS DELEGATECALL ISZERO DUP1 ISZERO PUSH2 0x1A9A JUMPI RETURNDATASIZE PUSH1 0x0 DUP1 RETURNDATACOPY RETURNDATASIZE PUSH1 0x0 REVERT JUMPDEST POP POP POP POP PUSH1 0x40 MLOAD RETURNDATASIZE PUSH1 0x1F NOT PUSH1 0x1F DUP3 ADD AND DUP3 ADD DUP1 PUSH1 0x40 MSTORE POP DUP2 ADD SWAP1 PUSH2 0x1ABE SWAP2 SWAP1 PUSH2 0x3563 JUMP JUMPDEST PUSH1 0x0 DUP3 DUP2 MSTORE PUSH1 0x5 PUSH1 0x20 MSTORE PUSH1 0x40 DUP2 KECCAK256 DUP1 SLOAD SWAP1 SWAP2 SWAP1 PUSH2 0x1ADC SWAP1 DUP5 SWAP1 PUSH2 0x36EB JUMP JUMPDEST SWAP1 SWAP2 SSTORE POP POP PUSH1 0x0 DUP7 DUP2 MSTORE PUSH1 0xD PUSH1 0x20 SWAP1 DUP2 MSTORE PUSH1 0x40 DUP1 DUP4 KECCAK256 DUP7 DUP5 MSTORE SWAP1 SWAP2 MSTORE DUP2 KECCAK256 SLOAD PUSH2 0x1B07 SWAP1 PUSH1 0x1 SWAP1 PUSH2 0x3842 JUMP JUMPDEST SWAP1 POP PUSH1 0x0 JUMPDEST PUSH1 0x0 DUP9 DUP2 MSTORE PUSH1 0xD PUSH1 0x20 SWAP1 DUP2 MSTORE PUSH1 0x40 DUP1 DUP4 KECCAK256 DUP9 DUP5 MSTORE SWAP1 SWAP2 MSTORE SWAP1 KECCAK256 SLOAD DUP2 LT ISZERO PUSH2 0x1C1E JUMPI PUSH1 0x0 DUP9 DUP2 MSTORE PUSH1 0xD PUSH1 0x20 SWAP1 DUP2 MSTORE PUSH1 0x40 DUP1 DUP4 KECCAK256 DUP9 DUP5 MSTORE SWAP1 SWAP2 MSTORE DUP2 KECCAK256 DUP1 SLOAD DUP4 SWAP1 DUP2 LT PUSH2 0x1B58 JUMPI PUSH2 0x1B58 PUSH2 0x36A6 JUMP JUMPDEST SWAP1 PUSH1 0x0 MSTORE PUSH1 0x20 PUSH1 0x0 KECCAK256 ADD SLOAD SWAP1 POP DUP4 DUP2 EQ PUSH2 0x1C0B JUMPI PUSH1 0x40 MLOAD PUSH4 0x3ED12AB7 PUSH1 0xE0 SHL DUP2 MSTORE PUSH1 0x4 DUP2 ADD DUP7 SWAP1 MSTORE PUSH1 0x24 DUP2 ADD DUP5 SWAP1 MSTORE PUSH20 0x0 SWAP1 PUSH4 0x3ED12AB7 SWAP1 PUSH1 0x44 ADD PUSH1 0x20 PUSH1 0x40 MLOAD DUP1 DUP4 SUB DUP2 DUP7 GAS DELEGATECALL ISZERO DUP1 ISZERO PUSH2 0x1BC3 JUMPI RETURNDATASIZE PUSH1 0x0 DUP1 RETURNDATACOPY RETURNDATASIZE PUSH1 0x0 REVERT JUMPDEST POP POP POP POP PUSH1 0x40 MLOAD RETURNDATASIZE PUSH1 0x1F NOT PUSH1 0x1F DUP3 ADD AND DUP3 ADD DUP1 PUSH1 0x40 MSTORE POP DUP2 ADD SWAP1 PUSH2 0x1BE7 SWAP2 SWAP1 PUSH2 0x3563 JUMP JUMPDEST PUSH1 0x0 DUP3 DUP2 MSTORE PUSH1 0x5 PUSH1 0x20 MSTORE PUSH1 0x40 DUP2 KECCAK256 DUP1 SLOAD SWAP1 SWAP2 SWAP1 PUSH2 0x1C05 SWAP1 DUP5 SWAP1 PUSH2 0x36EB JUMP JUMPDEST SWAP1 SWAP2 SSTORE POP POP JUMPDEST POP DUP1 PUSH2 0x1C16 DUP2 PUSH2 0x36D2 JUMP JUMPDEST SWAP2 POP POP PUSH2 0x1B0C JUMP JUMPDEST POP PUSH1 0x1 SLOAD PUSH1 0x0 SLOAD PUSH1 0x40 MLOAD PUSH4 0x4E414A33 PUSH1 0xE1 SHL DUP2 MSTORE PUSH1 0x4 DUP2 ADD DUP7 SWAP1 MSTORE PUSH1 0x1 PUSH1 0x1 PUSH1 0xA0 SHL SUB SWAP3 DUP4 AND SWAP3 PUSH4 0xA9059CBB SWAP3 AND SWAP1 PUSH20 0x0 SWAP1 PUSH4 0x9C829466 SWAP1 PUSH1 0x24 ADD PUSH1 0x20 PUSH1 0x40 MLOAD DUP1 DUP4 SUB DUP2 DUP7 GAS DELEGATECALL ISZERO DUP1 ISZERO PUSH2 0x1C89 JUMPI RETURNDATASIZE PUSH1 0x0 DUP1 RETURNDATACOPY RETURNDATASIZE PUSH1 0x0 REVERT JUMPDEST POP POP POP POP PUSH1 0x40 MLOAD RETURNDATASIZE PUSH1 0x1F NOT PUSH1 0x1F DUP3 ADD AND DUP3 ADD DUP1 PUSH1 0x40 MSTORE POP DUP2 ADD SWAP1 PUSH2 0x1CAD SWAP2 SWAP1 PUSH2 0x3563 JUMP JUMPDEST PUSH1 0x40 MLOAD PUSH1 0x1 PUSH1 0x1 PUSH1 0xE0 SHL SUB NOT PUSH1 0xE0 DUP6 SWAP1 SHL AND DUP2 MSTORE PUSH1 0x1 PUSH1 0x1 PUSH1 0xA0 SHL SUB SWAP1 SWAP3 AND PUSH1 0x4 DUP4 ADD MSTORE PUSH1 0x24 DUP3 ADD MSTORE PUSH1 0x44 ADD PUSH1 0x20 PUSH1 0x40 MLOAD DUP1 DUP4 SUB DUP2 PUSH1 0x0 DUP8 GAS CALL ISZERO DUP1 ISZERO PUSH2 0x1CF8 JUMPI RETURNDATASIZE PUSH1 0x0 DUP1 RETURNDATACOPY RETURNDATASIZE PUSH1 0x0 REVERT JUMPDEST POP POP POP POP PUSH1 0x40 MLOAD RETURNDATASIZE PUSH1 0x1F NOT PUSH1 0x1F DUP3 ADD AND DUP3 ADD DUP1 PUSH1 0x40 MSTORE POP DUP2 ADD SWAP1 PUSH2 0x1D1C SWAP2 SWAP1 PUSH2 0x34B6 JUMP JUMPDEST POP PUSH1 0x0 DUP8 DUP2 MSTORE PUSH1 0xA PUSH1 0x20 DUP2 SWAP1 MSTORE PUSH1 0x40 DUP3 KECCAK256 PUSH1 0x8 DUP2 ADD DUP4 SWAP1 SSTORE ADD DUP1 SLOAD PUSH1 0xFF NOT AND PUSH1 0x1 OR SWAP1 SSTORE JUMPDEST PUSH1 0x0 DUP9 DUP2 MSTORE PUSH1 0xB PUSH1 0x20 MSTORE PUSH1 0x40 SWAP1 KECCAK256 SLOAD DUP2 LT ISZERO PUSH2 0x1DFB JUMPI PUSH1 0x2 SLOAD PUSH1 0x0 DUP10 DUP2 MSTORE PUSH1 0xB PUSH1 0x20 MSTORE PUSH1 0x40 SWAP1 KECCAK256 DUP1 SLOAD PUSH1 0x1 PUSH1 0x1 PUSH1 0xA0 SHL SUB SWAP1 SWAP3 AND SWAP2 PUSH4 0xAEB9326C SWAP2 SWAP1 DUP5 SWAP1 DUP2 LT PUSH2 0x1D8D JUMPI PUSH2 0x1D8D PUSH2 0x36A6 JUMP JUMPDEST SWAP1 PUSH1 0x0 MSTORE PUSH1 0x20 PUSH1 0x0 KECCAK256 ADD SLOAD PUSH1 0x40 MLOAD DUP3 PUSH4 0xFFFFFFFF AND PUSH1 0xE0 SHL DUP2 MSTORE PUSH1 0x4 ADD PUSH2 0x1DB6 SWAP2 DUP2 MSTORE PUSH1 0x20 ADD SWAP1 JUMP JUMPDEST PUSH1 0x0 PUSH1 0x40 MLOAD DUP1 DUP4 SUB DUP2 PUSH1 0x0 DUP8 DUP1 EXTCODESIZE ISZERO DUP1 ISZERO PUSH2 0x1DD0 JUMPI PUSH1 0x0 DUP1 REVERT JUMPDEST POP GAS CALL ISZERO DUP1 ISZERO PUSH2 0x1DE4 JUMPI RETURNDATASIZE PUSH1 0x0 DUP1 RETURNDATACOPY RETURNDATASIZE PUSH1 0x0 REVERT JUMPDEST POP POP POP POP DUP1 DUP1 PUSH2 0x1DF3 SWAP1 PUSH2 0x36D2 JUMP JUMPDEST SWAP2 POP POP PUSH2 0x1D41 JUMP JUMPDEST POP POP POP POP POP POP POP POP JUMP JUMPDEST PUSH1 0x0 NOT DUP1 PUSH1 0x0 DUP1 PUSH5 0x2540BE3FF DUP1 DUP3 JUMPDEST PUSH1 0x0 DUP9 DUP2 MSTORE PUSH1 0xB PUSH1 0x20 MSTORE PUSH1 0x40 SWAP1 KECCAK256 SLOAD DUP2 LT ISZERO PUSH2 0x1F25 JUMPI PUSH1 0x0 DUP9 DUP2 MSTORE PUSH1 0xB PUSH1 0x20 MSTORE PUSH1 0x40 DUP2 KECCAK256 DUP1 SLOAD PUSH1 0x4 SWAP2 DUP4 SWAP2 DUP6 SWAP1 DUP2 LT PUSH2 0x1E50 JUMPI PUSH2 0x1E50 PUSH2 0x36A6 JUMP JUMPDEST SWAP1 PUSH1 0x0 MSTORE PUSH1 0x20 PUSH1 0x0 KECCAK256 ADD SLOAD DUP2 MSTORE PUSH1 0x20 ADD SWAP1 DUP2 MSTORE PUSH1 0x20 ADD PUSH1 0x0 KECCAK256 SLOAD SWAP1 POP PUSH1 0x0 PUSH2 0x1E90 DUP11 DUP4 PUSH1 0x0 SWAP2 DUP3 MSTORE PUSH1 0xD PUSH1 0x20 SWAP1 DUP2 MSTORE PUSH1 0x40 DUP1 DUP5 KECCAK256 SWAP3 DUP5 MSTORE SWAP2 SWAP1 MSTORE SWAP1 KECCAK256 SLOAD SWAP1 JUMP JUMPDEST PUSH1 0x0 DUP12 DUP2 MSTORE PUSH1 0xC PUSH1 0x20 SWAP1 DUP2 MSTORE PUSH1 0x40 DUP1 DUP4 KECCAK256 DUP7 DUP5 MSTORE SWAP1 SWAP2 MSTORE SWAP1 KECCAK256 PUSH1 0x5 ADD SLOAD SWAP1 SWAP2 POP DUP10 DUP4 EQ DUP1 PUSH2 0x1EBD JUMPI POP DUP9 DUP4 EQ JUMPDEST ISZERO PUSH2 0x1ECA JUMPI POP POP POP PUSH2 0x1F13 JUMP JUMPDEST PUSH1 0x0 PUSH2 0x1ED8 DUP10 DUP9 DUP6 DUP6 PUSH2 0x3057 JUMP JUMPDEST SWAP1 POP DUP1 ISZERO PUSH2 0x1EF0 JUMPI POP SWAP2 SWAP9 SWAP8 POP SWAP6 SWAP5 POP SWAP3 SWAP2 POP PUSH2 0x1F13 JUMP JUMPDEST PUSH2 0x1EFC DUP9 DUP8 DUP6 DUP6 PUSH2 0x3057 JUMP JUMPDEST SWAP1 POP DUP1 ISZERO PUSH2 0x1F0E JUMPI DUP4 SWAP10 POP DUP3 SWAP8 POP DUP2 SWAP6 POP JUMPDEST POP POP POP POP JUMPDEST DUP1 PUSH2 0x1F1D DUP2 PUSH2 0x36D2 JUMP JUMPDEST SWAP2 POP POP PUSH2 0x1E15 JUMP JUMPDEST POP POP POP SWAP2 SWAP4 POP SWAP2 SWAP4 JUMP JUMPDEST PUSH1 0x2 SLOAD PUSH1 0x1 PUSH1 0x1 PUSH1 0xA0 SHL SUB AND CALLER EQ PUSH2 0x1F89 JUMPI PUSH1 0x40 MLOAD PUSH3 0x461BCD PUSH1 0xE5 SHL DUP2 MSTORE PUSH1 0x20 PUSH1 0x4 DUP3 ADD MSTORE PUSH1 0x1A PUSH1 0x24 DUP3 ADD MSTORE PUSH32 0x6F6E6C7920696E7465726E616C204E465420636F6E7472616374000000000000 PUSH1 0x44 DUP3 ADD MSTORE PUSH1 0x64 ADD PUSH2 0x659 JUMP JUMPDEST PUSH1 0x1 SLOAD PUSH1 0x0 DUP4 DUP2 MSTORE PUSH1 0x5 PUSH1 0x20 MSTORE PUSH1 0x40 SWAP1 DUP2 SWAP1 KECCAK256 SLOAD SWAP1 MLOAD PUSH4 0xA9059CBB PUSH1 0xE0 SHL DUP2 MSTORE PUSH1 0x1 PUSH1 0x1 PUSH1 0xA0 SHL SUB DUP5 DUP2 AND PUSH1 0x4 DUP4 ADD MSTORE PUSH1 0x24 DUP3 ADD SWAP3 SWAP1 SWAP3 MSTORE SWAP2 AND SWAP1 PUSH4 0xA9059CBB SWAP1 PUSH1 0x44 ADD PUSH1 0x20 PUSH1 0x40 MLOAD DUP1 DUP4 SUB DUP2 PUSH1 0x0 DUP8 GAS CALL ISZERO DUP1 ISZERO PUSH2 0x1FEC JUMPI RETURNDATASIZE PUSH1 0x0 DUP1 RETURNDATACOPY RETURNDATASIZE PUSH1 0x0 REVERT JUMPDEST POP POP POP POP PUSH1 0x40 MLOAD RETURNDATASIZE PUSH1 0x1F NOT PUSH1 0x1F DUP3 ADD AND DUP3 ADD DUP1 PUSH1 0x40 MSTORE POP DUP2 ADD SWAP1 PUSH2 0x2010 SWAP2 SWAP1 PUSH2 0x34B6 JUMP JUMPDEST POP PUSH1 0x0 DUP3 DUP2 MSTORE PUSH1 0x5 PUSH1 0x20 MSTORE PUSH1 0x40 DUP2 KECCAK256 DUP2 SWAP1 SSTORE JUMPDEST PUSH1 0x1 PUSH1 0x1 PUSH1 0xA0 SHL SUB DUP3 AND PUSH1 0x0 SWAP1 DUP2 MSTORE PUSH1 0x8 PUSH1 0x20 MSTORE PUSH1 0x40 SWAP1 KECCAK256 SLOAD DUP2 LT ISZERO PUSH2 0x2155 JUMPI PUSH1 0x1 PUSH1 0x1 PUSH1 0xA0 SHL SUB DUP3 AND PUSH1 0x0 SWAP1 DUP2 MSTORE PUSH1 0x8 PUSH1 0x20 MSTORE PUSH1 0x40 SWAP1 KECCAK256 DUP1 SLOAD DUP5 SWAP2 SWAP1 DUP4 SWAP1 DUP2 LT PUSH2 0x2070 JUMPI PUSH2 0x2070 PUSH2 0x36A6 JUMP JUMPDEST SWAP1 PUSH1 0x0 MSTORE PUSH1 0x20 PUSH1 0x0 KECCAK256 ADD SLOAD SUB PUSH2 0x2143 JUMPI PUSH1 0x1 PUSH1 0x1 PUSH1 0xA0 SHL SUB DUP3 AND PUSH1 0x0 SWAP1 DUP2 MSTORE PUSH1 0x8 PUSH1 0x20 MSTORE PUSH1 0x40 SWAP1 KECCAK256 DUP1 SLOAD PUSH2 0x20A6 SWAP1 PUSH1 0x1 SWAP1 PUSH2 0x3842 JUMP JUMPDEST DUP2 SLOAD DUP2 LT PUSH2 0x20B6 JUMPI PUSH2 0x20B6 PUSH2 0x36A6 JUMP JUMPDEST SWAP1 PUSH1 0x0 MSTORE PUSH1 0x20 PUSH1 0x0 KECCAK256 ADD SLOAD PUSH1 0x8 PUSH1 0x0 DUP5 PUSH1 0x1 PUSH1 0x1 PUSH1 0xA0 SHL SUB AND PUSH1 0x1 PUSH1 0x1 PUSH1 0xA0 SHL SUB AND DUP2 MSTORE PUSH1 0x20 ADD SWAP1 DUP2 MSTORE PUSH1 0x20 ADD PUSH1 0x0 KECCAK256 DUP3 DUP2 SLOAD DUP2 LT PUSH2 0x20F7 JUMPI PUSH2 0x20F7 PUSH2 0x36A6 JUMP JUMPDEST PUSH1 0x0 SWAP2 DUP3 MSTORE PUSH1 0x20 DUP1 DUP4 KECCAK256 SWAP1 SWAP2 ADD SWAP3 SWAP1 SWAP3 SSTORE PUSH1 0x1 PUSH1 0x1 PUSH1 0xA0 SHL SUB DUP5 AND DUP2 MSTORE PUSH1 0x8 SWAP1 SWAP2 MSTORE PUSH1 0x40 SWAP1 KECCAK256 DUP1 SLOAD DUP1 PUSH2 0x212C JUMPI PUSH2 0x212C PUSH2 0x38FA JUMP JUMPDEST PUSH1 0x1 SWAP1 SUB DUP2 DUP2 SWAP1 PUSH1 0x0 MSTORE PUSH1 0x20 PUSH1 0x0 KECCAK256 ADD PUSH1 0x0 SWAP1 SSTORE SWAP1 SSTORE JUMPDEST DUP1 PUSH2 0x214D DUP2 PUSH2 0x36D2 JUMP JUMPDEST SWAP2 POP POP PUSH2 0x2023 JUMP JUMPDEST POP POP POP JUMP JUMPDEST PUSH1 0x40 MLOAD PUSH4 0x1EEC9F07 PUSH1 0xE3 SHL DUP2 MSTORE PUSH1 0x4 DUP2 ADD DUP3 SWAP1 MSTORE PUSH1 0x0 SWAP1 DUP2 SWAP1 PUSH20 0x0 SWAP1 PUSH4 0xF764F838 SWAP1 PUSH1 0x24 ADD PUSH1 0x20 PUSH1 0x40 MLOAD DUP1 DUP4 SUB DUP2 DUP7 GAS DELEGATECALL ISZERO DUP1 ISZERO PUSH2 0x21AF JUMPI RETURNDATASIZE PUSH1 0x0 DUP1 RETURNDATACOPY RETURNDATASIZE PUSH1 0x0 REVERT JUMPDEST POP POP POP POP PUSH1 0x40 MLOAD RETURNDATASIZE PUSH1 0x1F NOT PUSH1 0x1F DUP3 ADD AND DUP3 ADD DUP1 PUSH1 0x40 MSTORE POP DUP2 ADD SWAP1 PUSH2 0x21D3 SWAP2 SWAP1 PUSH2 0x3563 JUMP JUMPDEST SWAP4 SWAP3 POP POP POP JUMP JUMPDEST PUSH1 0x0 DUP3 DUP2 MSTORE PUSH1 0xC PUSH1 0x20 SWAP1 DUP2 MSTORE PUSH1 0x40 DUP1 DUP4 KECCAK256 DUP5 DUP5 MSTORE SWAP1 SWAP2 MSTORE SWAP1 KECCAK256 DUP1 SLOAD PUSH1 0x60 SWAP2 SWAP1 PUSH2 0x2202 SWAP1 PUSH2 0x3529 JUMP JUMPDEST DUP1 PUSH1 0x1F ADD PUSH1 0x20 DUP1 SWAP2 DIV MUL PUSH1 0x20 ADD PUSH1 0x40 MLOAD SWAP1 DUP2 ADD PUSH1 0x40 MSTORE DUP1 SWAP3 SWAP2 SWAP1 DUP2 DUP2 MSTORE PUSH1 0x20 ADD DUP3 DUP1 SLOAD PUSH2 0x222E SWAP1 PUSH2 0x3529 JUMP JUMPDEST DUP1 ISZERO PUSH2 0x227B JUMPI DUP1 PUSH1 0x1F LT PUSH2 0x2250 JUMPI PUSH2 0x100 DUP1 DUP4 SLOAD DIV MUL DUP4 MSTORE SWAP2 PUSH1 0x20 ADD SWAP2 PUSH2 0x227B JUMP JUMPDEST DUP3 ADD SWAP2 SWAP1 PUSH1 0x0 MSTORE PUSH1 0x20 PUSH1 0x0 KECCAK256 SWAP1 JUMPDEST DUP2 SLOAD DUP2 MSTORE SWAP1 PUSH1 0x1 ADD SWAP1 PUSH1 0x20 ADD DUP1 DUP4 GT PUSH2 0x225E JUMPI DUP3 SWAP1 SUB PUSH1 0x1F AND DUP3 ADD SWAP2 JUMPDEST POP POP POP POP POP SWAP1 POP SWAP3 SWAP2 POP POP JUMP JUMPDEST PUSH1 0x0 DUP2 DUP2 MSTORE PUSH1 0xB PUSH1 0x20 MSTORE PUSH1 0x40 DUP2 KECCAK256 SLOAD PUSH2 0x22A3 JUMPI POP PUSH1 0x0 SWAP2 SWAP1 POP JUMP JUMPDEST PUSH1 0x0 DUP1 JUMPDEST PUSH1 0x0 DUP5 DUP2 MSTORE PUSH1 0xB PUSH1 0x20 MSTORE PUSH1 0x40 SWAP1 KECCAK256 SLOAD DUP2 LT ISZERO PUSH2 0x2369 JUMPI PUSH1 0x0 DUP5 DUP2 MSTORE PUSH1 0xB PUSH1 0x20 MSTORE PUSH1 0x40 DUP2 KECCAK256 DUP1 SLOAD PUSH1 0x6 SWAP2 DUP4 SWAP2 DUP6 SWAP1 DUP2 LT PUSH2 0x22E2 JUMPI PUSH2 0x22E2 PUSH2 0x36A6 JUMP JUMPDEST PUSH1 0x0 SWAP2 DUP3 MSTORE PUSH1 0x20 DUP1 DUP4 KECCAK256 SWAP1 SWAP2 ADD SLOAD DUP4 MSTORE DUP3 DUP2 ADD SWAP4 SWAP1 SWAP4 MSTORE PUSH1 0x40 SWAP2 DUP3 ADD DUP2 KECCAK256 SLOAD PUSH1 0x1 PUSH1 0x1 PUSH1 0xA0 SHL SUB AND DUP1 DUP3 MSTORE PUSH1 0xF SWAP1 SWAP4 MSTORE KECCAK256 SLOAD SWAP1 SWAP2 POP PUSH1 0xFF AND ISZERO PUSH2 0x2325 JUMPI POP PUSH2 0x2357 JUMP JUMPDEST PUSH1 0x1 PUSH1 0x1 PUSH1 0xA0 SHL SUB DUP2 AND PUSH1 0x0 SWAP1 DUP2 MSTORE PUSH1 0xF PUSH1 0x20 MSTORE PUSH1 0x40 SWAP1 KECCAK256 DUP1 SLOAD PUSH1 0xFF NOT AND PUSH1 0x1 OR SWAP1 SSTORE DUP3 PUSH2 0x2352 DUP2 PUSH2 0x36D2 JUMP JUMPDEST SWAP4 POP POP POP JUMPDEST DUP1 PUSH2 0x2361 DUP2 PUSH2 0x36D2 JUMP JUMPDEST SWAP2 POP POP PUSH2 0x22A7 JUMP JUMPDEST POP PUSH1 0x0 JUMPDEST PUSH1 0x0 DUP5 DUP2 MSTORE PUSH1 0xB PUSH1 0x20 MSTORE PUSH1 0x40 SWAP1 KECCAK256 SLOAD DUP2 LT ISZERO PUSH2 0x23F4 JUMPI PUSH1 0x0 DUP5 DUP2 MSTORE PUSH1 0xB PUSH1 0x20 MSTORE PUSH1 0x40 DUP2 KECCAK256 DUP1 SLOAD PUSH1 0x6 SWAP2 DUP4 SWAP2 DUP6 SWAP1 DUP2 LT PUSH2 0x23A8 JUMPI PUSH2 0x23A8 PUSH2 0x36A6 JUMP JUMPDEST PUSH1 0x0 SWAP2 DUP3 MSTORE PUSH1 0x20 DUP1 DUP4 KECCAK256 SWAP1 SWAP2 ADD SLOAD DUP4 MSTORE DUP3 DUP2 ADD SWAP4 SWAP1 SWAP4 MSTORE PUSH1 0x40 SWAP2 DUP3 ADD DUP2 KECCAK256 SLOAD PUSH1 0x1 PUSH1 0x1 PUSH1 0xA0 SHL SUB AND DUP2 MSTORE PUSH1 0xF SWAP1 SWAP3 MSTORE SWAP1 KECCAK256 DUP1 SLOAD PUSH1 0xFF NOT AND SWAP1 SSTORE POP DUP1 PUSH2 0x23EC DUP2 PUSH2 0x36D2 JUMP JUMPDEST SWAP2 POP POP PUSH2 0x236D JUMP JUMPDEST POP SWAP3 SWAP2 POP POP JUMP JUMPDEST PUSH1 0x0 PUSH2 0x2407 DUP4 DUP4 PUSH2 0x2ECB JUMP JUMPDEST PUSH2 0x2423 JUMPI PUSH1 0x40 MLOAD PUSH3 0x461BCD PUSH1 0xE5 SHL DUP2 MSTORE PUSH1 0x4 ADD PUSH2 0x659 SWAP1 PUSH2 0x376D JUMP JUMPDEST PUSH1 0x0 DUP4 DUP2 MSTORE PUSH1 0xD PUSH1 0x20 SWAP1 DUP2 MSTORE PUSH1 0x40 DUP1 DUP4 KECCAK256 DUP6 DUP5 MSTORE SWAP1 SWAP2 MSTORE DUP2 KECCAK256 SLOAD PUSH2 0x2449 SWAP1 PUSH1 0x1 SWAP1 PUSH2 0x3842 JUMP JUMPDEST SWAP1 POP PUSH1 0x0 DUP1 PUSH1 0x0 DUP1 PUSH2 0x245A DUP9 PUSH2 0x1E05 JUMP JUMPDEST SWAP3 SWAP7 POP SWAP1 SWAP5 POP SWAP3 POP SWAP1 POP PUSH1 0x0 PUSH20 0x0 PUSH4 0x9B49380B PUSH2 0x248B DUP9 PUSH1 0x1 PUSH2 0x36EB JUMP JUMPDEST PUSH1 0x0 DUP13 DUP2 MSTORE PUSH1 0xA PUSH1 0x20 MSTORE PUSH1 0x40 SWAP1 DUP2 SWAP1 KECCAK256 PUSH1 0x8 ADD SLOAD SWAP1 MLOAD PUSH1 0xE0 DUP5 SWAP1 SHL PUSH1 0x1 PUSH1 0x1 PUSH1 0xE0 SHL SUB NOT AND DUP2 MSTORE PUSH1 0x4 DUP2 ADD SWAP3 SWAP1 SWAP3 MSTORE PUSH1 0x24 DUP3 ADD MSTORE PUSH1 0x44 DUP2 ADD DUP9 SWAP1 MSTORE PUSH1 0x64 DUP2 ADD DUP8 SWAP1 MSTORE PUSH1 0x84 DUP2 ADD DUP7 SWAP1 MSTORE PUSH1 0xA4 DUP2 ADD DUP6 SWAP1 MSTORE PUSH1 0xC4 ADD PUSH1 0x20 PUSH1 0x40 MLOAD DUP1 DUP4 SUB DUP2 DUP7 GAS DELEGATECALL ISZERO DUP1 ISZERO PUSH2 0x24FB JUMPI RETURNDATASIZE PUSH1 0x0 DUP1 RETURNDATACOPY RETURNDATASIZE PUSH1 0x0 REVERT JUMPDEST POP POP POP POP PUSH1 0x40 MLOAD RETURNDATASIZE PUSH1 0x1F NOT PUSH1 0x1F DUP3 ADD AND DUP3 ADD DUP1 PUSH1 0x40 MSTORE POP DUP2 ADD SWAP1 PUSH2 0x251F SWAP2 SWAP1 PUSH2 0x3563 JUMP JUMPDEST SWAP10 SWAP9 POP POP POP POP POP POP POP POP POP JUMP JUMPDEST PUSH1 0x0 DUP2 DUP2 MSTORE PUSH1 0xB PUSH1 0x20 MSTORE PUSH1 0x40 DUP2 KECCAK256 SLOAD PUSH1 0x60 SWAP2 SWAP1 PUSH8 0xFFFFFFFFFFFFFFFF DUP2 GT ISZERO PUSH2 0x2557 JUMPI PUSH2 0x2557 PUSH2 0x3163 JUMP JUMPDEST PUSH1 0x40 MLOAD SWAP1 DUP1 DUP3 MSTORE DUP1 PUSH1 0x20 MUL PUSH1 0x20 ADD DUP3 ADD PUSH1 0x40 MSTORE DUP1 ISZERO PUSH2 0x2580 JUMPI DUP2 PUSH1 0x20 ADD PUSH1 0x20 DUP3 MUL DUP1 CALLDATASIZE DUP4 CALLDATACOPY ADD SWAP1 POP JUMPDEST POP SWAP1 POP PUSH1 0x0 JUMPDEST PUSH1 0x0 DUP5 DUP2 MSTORE PUSH1 0xB PUSH1 0x20 MSTORE PUSH1 0x40 SWAP1 KECCAK256 SLOAD DUP2 LT ISZERO PUSH2 0x23F4 JUMPI PUSH1 0x0 DUP5 DUP2 MSTORE PUSH1 0xB PUSH1 0x20 MSTORE PUSH1 0x40 DUP2 KECCAK256 DUP1 SLOAD PUSH1 0x4 SWAP2 DUP4 SWAP2 DUP6 SWAP1 DUP2 LT PUSH2 0x25C1 JUMPI PUSH2 0x25C1 PUSH2 0x36A6 JUMP JUMPDEST SWAP1 PUSH1 0x0 MSTORE PUSH1 0x20 PUSH1 0x0 KECCAK256 ADD SLOAD DUP2 MSTORE PUSH1 0x20 ADD SWAP1 DUP2 MSTORE PUSH1 0x20 ADD PUSH1 0x0 KECCAK256 SLOAD SWAP1 POP DUP1 DUP4 DUP4 DUP2 MLOAD DUP2 LT PUSH2 0x25F0 JUMPI PUSH2 0x25F0 PUSH2 0x36A6 JUMP JUMPDEST PUSH1 0x20 SWAP1 DUP2 MUL SWAP2 SWAP1 SWAP2 ADD ADD MSTORE POP DUP1 PUSH2 0x2606 DUP2 PUSH2 0x36D2 JUMP JUMPDEST SWAP2 POP POP PUSH2 0x2586 JUMP JUMPDEST PUSH1 0x0 PUSH20 0x0 PUSH4 0x91096A3C PUSH1 0x40 MLOAD DUP2 PUSH4 0xFFFFFFFF AND PUSH1 0xE0 SHL DUP2 MSTORE PUSH1 0x4 ADD PUSH1 0x20 PUSH1 0x40 MLOAD DUP1 DUP4 SUB DUP2 DUP7 GAS DELEGATECALL ISZERO DUP1 ISZERO PUSH2 0x1953 JUMPI RETURNDATASIZE PUSH1 0x0 DUP1 RETURNDATACOPY RETURNDATASIZE PUSH1 0x0 REVERT JUMPDEST PUSH1 0x0 PUSH20 0x0 PUSH4 0x26D0A334 PUSH1 0x40 MLOAD DUP2 PUSH4 0xFFFFFFFF AND PUSH1 0xE0 SHL DUP2 MSTORE PUSH1 0x4 ADD PUSH1 0x20 PUSH1 0x40 MLOAD DUP1 DUP4 SUB DUP2 DUP7 GAS DELEGATECALL ISZERO DUP1 ISZERO PUSH2 0x1953 JUMPI RETURNDATASIZE PUSH1 0x0 DUP1 RETURNDATACOPY RETURNDATASIZE PUSH1 0x0 REVERT JUMPDEST PUSH1 0x0 DUP2 DUP2 MSTORE PUSH1 0xA PUSH1 0x20 DUP2 SWAP1 MSTORE PUSH1 0x40 DUP3 KECCAK256 ADD SLOAD PUSH1 0xFF AND ISZERO PUSH2 0x26C6 JUMPI POP PUSH1 0x0 SWAP2 SWAP1 POP JUMP JUMPDEST PUSH1 0x0 DUP3 DUP2 MSTORE PUSH1 0xA PUSH1 0x20 MSTORE PUSH1 0x40 SWAP1 KECCAK256 PUSH1 0x7 ADD SLOAD TIMESTAMP GT DUP1 PUSH2 0x26F5 JUMPI POP PUSH1 0x0 DUP3 DUP2 MSTORE PUSH1 0xA PUSH1 0x20 MSTORE PUSH1 0x40 SWAP1 KECCAK256 PUSH1 0x6 ADD SLOAD TIMESTAMP LT JUMPDEST ISZERO PUSH2 0x2702 JUMPI POP PUSH1 0x0 SWAP2 SWAP1 POP JUMP JUMPDEST POP PUSH1 0x1 SWAP2 SWAP1 POP JUMP JUMPDEST PUSH1 0x0 PUSH2 0x2716 DUP4 DUP4 PUSH2 0x2ECB JUMP JUMPDEST PUSH2 0x2732 JUMPI PUSH1 0x40 MLOAD PUSH3 0x461BCD PUSH1 0xE5 SHL DUP2 MSTORE PUSH1 0x4 ADD PUSH2 0x659 SWAP1 PUSH2 0x376D JUMP JUMPDEST PUSH1 0x0 DUP4 DUP2 MSTORE PUSH1 0xD PUSH1 0x20 SWAP1 DUP2 MSTORE PUSH1 0x40 DUP1 DUP4 KECCAK256 DUP6 DUP5 MSTORE SWAP1 SWAP2 MSTORE DUP2 KECCAK256 SLOAD PUSH2 0x2758 SWAP1 PUSH1 0x1 SWAP1 PUSH2 0x3842 JUMP JUMPDEST SWAP1 POP PUSH1 0x0 PUSH20 0x0 PUSH4 0x84105419 PUSH2 0x2780 DUP8 DUP8 PUSH2 0x23FB JUMP JUMPDEST PUSH2 0x278B DUP6 PUSH1 0x1 PUSH2 0x36EB JUMP JUMPDEST PUSH1 0x40 MLOAD PUSH1 0x1 PUSH1 0x1 PUSH1 0xE0 SHL SUB NOT PUSH1 0xE0 DUP6 SWAP1 SHL AND DUP2 MSTORE PUSH1 0x4 DUP2 ADD SWAP3 SWAP1 SWAP3 MSTORE PUSH1 0x24 DUP3 ADD MSTORE PUSH1 0x44 ADD PUSH1 0x20 PUSH1 0x40 MLOAD DUP1 DUP4 SUB DUP2 DUP7 GAS DELEGATECALL ISZERO DUP1 ISZERO PUSH2 0x27CC JUMPI RETURNDATASIZE PUSH1 0x0 DUP1 RETURNDATACOPY RETURNDATASIZE PUSH1 0x0 REVERT JUMPDEST POP POP POP POP PUSH1 0x40 MLOAD RETURNDATASIZE PUSH1 0x1F NOT PUSH1 0x1F DUP3 ADD AND DUP3 ADD DUP1 PUSH1 0x40 MSTORE POP DUP2 ADD SWAP1 PUSH2 0x27F0 SWAP2 SWAP1 PUSH2 0x3563 JUMP JUMPDEST SWAP6 SWAP5 POP POP POP POP POP JUMP JUMPDEST PUSH1 0x0 CALLER DUP1 EXTCODESIZE DUP1 ISZERO PUSH2 0x281C JUMPI PUSH1 0x40 MLOAD PUSH3 0x461BCD PUSH1 0xE5 SHL DUP2 MSTORE PUSH1 0x4 ADD PUSH2 0x659 SWAP1 PUSH2 0x3467 JUMP JUMPDEST DUP4 PUSH1 0x0 DUP1 JUMPDEST CALLER PUSH1 0x0 SWAP1 DUP2 MSTORE PUSH1 0x8 PUSH1 0x20 MSTORE PUSH1 0x40 SWAP1 KECCAK256 SLOAD DUP2 LT ISZERO PUSH2 0x28D8 JUMPI CALLER PUSH1 0x0 SWAP1 DUP2 MSTORE PUSH1 0x8 PUSH1 0x20 MSTORE PUSH1 0x40 DUP2 KECCAK256 DUP1 SLOAD PUSH1 0x3 SWAP2 DUP4 SWAP2 DUP6 SWAP1 DUP2 LT PUSH2 0x285E JUMPI PUSH2 0x285E PUSH2 0x36A6 JUMP JUMPDEST SWAP1 PUSH1 0x0 MSTORE PUSH1 0x20 PUSH1 0x0 KECCAK256 ADD SLOAD DUP2 MSTORE PUSH1 0x20 ADD SWAP1 DUP2 MSTORE PUSH1 0x20 ADD PUSH1 0x0 KECCAK256 SLOAD SWAP1 POP DUP4 DUP2 SUB PUSH2 0x28C5 JUMPI PUSH1 0x0 DUP5 DUP2 MSTORE PUSH1 0x10 PUSH1 0x20 MSTORE PUSH1 0x40 DUP2 KECCAK256 DUP1 SLOAD PUSH1 0x1 SWAP3 SWAP1 PUSH2 0x28A0 SWAP1 DUP5 SWAP1 PUSH2 0x36EB JUMP JUMPDEST SWAP1 SWAP2 SSTORE POP POP PUSH1 0x0 DUP5 DUP2 MSTORE PUSH1 0x10 PUSH1 0x20 MSTORE PUSH1 0x40 SWAP1 KECCAK256 SLOAD PUSH1 0x3 GT PUSH2 0x28C5 JUMPI PUSH1 0x1 SWAP3 POP POP PUSH2 0x28D8 JUMP JUMPDEST POP DUP1 PUSH2 0x28D0 DUP2 PUSH2 0x36D2 JUMP JUMPDEST SWAP2 POP POP PUSH2 0x2821 JUMP JUMPDEST POP PUSH1 0x0 DUP3 DUP2 MSTORE PUSH1 0x10 PUSH1 0x20 MSTORE PUSH1 0x40 DUP2 KECCAK256 SSTORE DUP1 ISZERO PUSH2 0x28F4 PUSH1 0x3 PUSH2 0x2FC4 JUMP JUMPDEST PUSH2 0x28FD DUP5 PUSH2 0x2FC4 JUMP JUMPDEST PUSH1 0x40 MLOAD PUSH1 0x20 ADD PUSH2 0x290E SWAP3 SWAP2 SWAP1 PUSH2 0x36FE JUMP JUMPDEST PUSH1 0x40 MLOAD PUSH1 0x20 DUP2 DUP4 SUB SUB DUP2 MSTORE SWAP1 PUSH1 0x40 MSTORE SWAP1 PUSH2 0x293B JUMPI PUSH1 0x40 MLOAD PUSH3 0x461BCD PUSH1 0xE5 SHL DUP2 MSTORE PUSH1 0x4 ADD PUSH2 0x659 SWAP2 SWAP1 PUSH2 0x33D0 JUMP JUMPDEST POP PUSH2 0x2945 DUP7 PUSH2 0x26A4 JUMP JUMPDEST PUSH2 0x2987 JUMPI PUSH1 0x40 MLOAD PUSH3 0x461BCD PUSH1 0xE5 SHL DUP2 MSTORE PUSH1 0x20 PUSH1 0x4 DUP3 ADD MSTORE PUSH1 0x13 PUSH1 0x24 DUP3 ADD MSTORE PUSH19 0x7461736B206D75737420626520616374697665 PUSH1 0x68 SHL PUSH1 0x44 DUP3 ADD MSTORE PUSH1 0x64 ADD PUSH2 0x659 JUMP JUMPDEST PUSH1 0x1 SLOAD PUSH1 0x1 PUSH1 0x1 PUSH1 0xA0 SHL SUB AND PUSH4 0x23B872DD CALLER ADDRESS PUSH2 0x29A2 PUSH2 0x2659 JUMP JUMPDEST PUSH1 0x40 MLOAD DUP5 PUSH4 0xFFFFFFFF AND PUSH1 0xE0 SHL DUP2 MSTORE PUSH1 0x4 ADD PUSH2 0x29C0 SWAP4 SWAP3 SWAP2 SWAP1 PUSH2 0x3492 JUMP JUMPDEST PUSH1 0x20 PUSH1 0x40 MLOAD DUP1 DUP4 SUB DUP2 PUSH1 0x0 DUP8 GAS CALL ISZERO DUP1 ISZERO PUSH2 0x29DF JUMPI RETURNDATASIZE PUSH1 0x0 DUP1 RETURNDATACOPY RETURNDATASIZE PUSH1 0x0 REVERT JUMPDEST POP POP POP POP PUSH1 0x40 MLOAD RETURNDATASIZE PUSH1 0x1F NOT PUSH1 0x1F DUP3 ADD AND DUP3 ADD DUP1 PUSH1 0x40 MSTORE POP DUP2 ADD SWAP1 PUSH2 0x2A03 SWAP2 SWAP1 PUSH2 0x34B6 JUMP JUMPDEST PUSH2 0x2A0E PUSH2 0x6E9 PUSH2 0x2659 JUMP JUMPDEST PUSH1 0x40 MLOAD PUSH1 0x20 ADD PUSH2 0x2A1E SWAP2 SWAP1 PUSH2 0x39EB JUMP JUMPDEST PUSH1 0x40 MLOAD PUSH1 0x20 DUP2 DUP4 SUB SUB DUP2 MSTORE SWAP1 PUSH1 0x40 MSTORE SWAP1 PUSH2 0x2A4B JUMPI PUSH1 0x40 MLOAD PUSH3 0x461BCD PUSH1 0xE5 SHL DUP2 MSTORE PUSH1 0x4 ADD PUSH2 0x659 SWAP2 SWAP1 PUSH2 0x33D0 JUMP JUMPDEST POP PUSH1 0x1 SLOAD PUSH1 0x0 SLOAD PUSH1 0x1 PUSH1 0x1 PUSH1 0xA0 SHL SUB SWAP2 DUP3 AND SWAP2 PUSH4 0x23B872DD SWAP2 CALLER SWAP2 AND PUSH2 0x2A6F PUSH2 0x1908 JUMP JUMPDEST PUSH1 0x40 MLOAD DUP5 PUSH4 0xFFFFFFFF AND PUSH1 0xE0 SHL DUP2 MSTORE PUSH1 0x4 ADD PUSH2 0x2A8D SWAP4 SWAP3 SWAP2 SWAP1 PUSH2 0x3492 JUMP JUMPDEST PUSH1 0x20 PUSH1 0x40 MLOAD DUP1 DUP4 SUB DUP2 PUSH1 0x0 DUP8 GAS CALL ISZERO DUP1 ISZERO PUSH2 0x2AAC JUMPI RETURNDATASIZE PUSH1 0x0 DUP1 RETURNDATACOPY RETURNDATASIZE PUSH1 0x0 REVERT JUMPDEST POP POP POP POP PUSH1 0x40 MLOAD RETURNDATASIZE PUSH1 0x1F NOT PUSH1 0x1F DUP3 ADD AND DUP3 ADD DUP1 PUSH1 0x40 MSTORE POP DUP2 ADD SWAP1 PUSH2 0x2AD0 SWAP2 SWAP1 PUSH2 0x34B6 JUMP JUMPDEST PUSH2 0x2ADB PUSH2 0x6E9 PUSH2 0x1908 JUMP JUMPDEST PUSH1 0x40 MLOAD PUSH1 0x20 ADD PUSH2 0x2AEB SWAP2 SWAP1 PUSH2 0x3A3D JUMP JUMPDEST PUSH1 0x40 MLOAD PUSH1 0x20 DUP2 DUP4 SUB SUB DUP2 MSTORE SWAP1 PUSH1 0x40 MSTORE SWAP1 PUSH2 0x2B18 JUMPI PUSH1 0x40 MLOAD PUSH3 0x461BCD PUSH1 0xE5 SHL DUP2 MSTORE PUSH1 0x4 ADD PUSH2 0x659 SWAP2 SWAP1 PUSH2 0x33D0 JUMP JUMPDEST POP PUSH1 0x0 DUP7 DUP2 MSTORE PUSH1 0xA PUSH1 0x20 MSTORE PUSH1 0x40 DUP2 KECCAK256 PUSH1 0x9 ADD SLOAD PUSH1 0x2 SLOAD PUSH1 0x40 MLOAD PUSH4 0x40D097C3 PUSH1 0xE0 SHL DUP2 MSTORE CALLER PUSH1 0x4 DUP3 ADD MSTORE SWAP2 SWAP3 POP PUSH1 0x0 SWAP2 PUSH1 0x1 PUSH1 0x1 PUSH1 0xA0 SHL SUB SWAP1 SWAP2 AND SWAP1 PUSH4 0x40D097C3 SWAP1 PUSH1 0x24 ADD PUSH1 0x20 PUSH1 0x40 MLOAD DUP1 DUP4 SUB DUP2 PUSH1 0x0 DUP8 GAS CALL ISZERO DUP1 ISZERO PUSH2 0x2B7B JUMPI RETURNDATASIZE PUSH1 0x0 DUP1 RETURNDATACOPY RETURNDATASIZE PUSH1 0x0 REVERT JUMPDEST POP POP POP POP PUSH1 0x40 MLOAD RETURNDATASIZE PUSH1 0x1F NOT PUSH1 0x1F DUP3 ADD AND DUP3 ADD DUP1 PUSH1 0x40 MSTORE POP DUP2 ADD SWAP1 PUSH2 0x2B9F SWAP2 SWAP1 PUSH2 0x3563 JUMP JUMPDEST PUSH1 0x0 DUP2 DUP2 MSTORE PUSH1 0x3 PUSH1 0x20 SWAP1 DUP2 MSTORE PUSH1 0x40 DUP1 DUP4 KECCAK256 DUP13 SWAP1 SSTORE PUSH1 0x4 DUP3 MSTORE DUP1 DUP4 KECCAK256 DUP7 SWAP1 SSTORE PUSH1 0x5 DUP3 MSTORE DUP1 DUP4 KECCAK256 DUP4 SWAP1 SSTORE PUSH1 0x6 DUP3 MSTORE DUP1 DUP4 KECCAK256 DUP1 SLOAD PUSH1 0x1 PUSH1 0x1 PUSH1 0xA0 SHL SUB NOT AND CALLER SWAP1 DUP2 OR SWAP1 SWAP2 SSTORE DUP1 DUP5 MSTORE PUSH1 0x8 DUP4 MSTORE DUP2 DUP5 KECCAK256 DUP1 SLOAD PUSH1 0x1 DUP2 ADD DUP3 SSTORE SWAP1 DUP6 MSTORE DUP4 DUP6 KECCAK256 ADD DUP6 SWAP1 SSTORE DUP2 MLOAD PUSH1 0xC0 DUP2 ADD DUP4 MSTORE DUP15 DUP2 MSTORE DUP1 DUP5 ADD DUP15 SWAP1 MSTORE DUP1 DUP4 ADD DUP9 SWAP1 MSTORE PUSH1 0x60 DUP2 ADD DUP3 SWAP1 MSTORE SWAP1 DUP5 MSTORE PUSH1 0x7 SWAP1 SWAP3 MSTORE DUP3 KECCAK256 DUP1 SLOAD SWAP4 SWAP5 POP SWAP2 SWAP3 SWAP1 SWAP2 PUSH1 0x80 DUP4 ADD SWAP2 PUSH2 0x2C3C SWAP1 PUSH2 0x3529 JUMP JUMPDEST DUP1 PUSH1 0x1F ADD PUSH1 0x20 DUP1 SWAP2 DIV MUL PUSH1 0x20 ADD PUSH1 0x40 MLOAD SWAP1 DUP2 ADD PUSH1 0x40 MSTORE DUP1 SWAP3 SWAP2 SWAP1 DUP2 DUP2 MSTORE PUSH1 0x20 ADD DUP3 DUP1 SLOAD PUSH2 0x2C68 SWAP1 PUSH2 0x3529 JUMP JUMPDEST DUP1 ISZERO PUSH2 0x2CB5 JUMPI DUP1 PUSH1 0x1F LT PUSH2 0x2C8A JUMPI PUSH2 0x100 DUP1 DUP4 SLOAD DIV MUL DUP4 MSTORE SWAP2 PUSH1 0x20 ADD SWAP2 PUSH2 0x2CB5 JUMP JUMPDEST DUP3 ADD SWAP2 SWAP1 PUSH1 0x0 MSTORE PUSH1 0x20 PUSH1 0x0 KECCAK256 SWAP1 JUMPDEST DUP2 SLOAD DUP2 MSTORE SWAP1 PUSH1 0x1 ADD SWAP1 PUSH1 0x20 ADD DUP1 DUP4 GT PUSH2 0x2C98 JUMPI DUP3 SWAP1 SUB PUSH1 0x1F AND DUP3 ADD SWAP2 JUMPDEST POP POP POP SWAP2 DUP4 MSTORE POP POP TIMESTAMP PUSH1 0x20 SWAP2 DUP3 ADD MSTORE PUSH1 0x0 DUP12 DUP2 MSTORE PUSH1 0xC DUP3 MSTORE PUSH1 0x40 DUP1 DUP3 KECCAK256 DUP8 DUP4 MSTORE SWAP1 SWAP3 MSTORE KECCAK256 DUP2 MLOAD SWAP2 SWAP3 POP DUP3 SWAP2 DUP2 SWAP1 PUSH2 0x2CEC SWAP1 DUP3 PUSH2 0x35CA JUMP JUMPDEST POP PUSH1 0x20 DUP3 ADD MLOAD PUSH1 0x1 DUP3 ADD SSTORE PUSH1 0x40 DUP3 ADD MLOAD PUSH1 0x2 DUP3 ADD SSTORE PUSH1 0x60 DUP3 ADD MLOAD PUSH1 0x3 DUP3 ADD DUP1 SLOAD PUSH1 0x1 PUSH1 0x1 PUSH1 0xA0 SHL SUB NOT AND PUSH1 0x1 PUSH1 0x1 PUSH1 0xA0 SHL SUB SWAP1 SWAP3 AND SWAP2 SWAP1 SWAP2 OR SWAP1 SSTORE PUSH1 0x80 DUP3 ADD MLOAD PUSH1 0x4 DUP3 ADD SWAP1 PUSH2 0x2D3B SWAP1 DUP3 PUSH2 0x35CA JUMP JUMPDEST POP PUSH1 0xA0 SWAP2 SWAP1 SWAP2 ADD MLOAD PUSH1 0x5 SWAP1 SWAP2 ADD SSTORE PUSH1 0x0 DUP10 DUP2 MSTORE PUSH1 0xD PUSH1 0x20 SWAP1 DUP2 MSTORE PUSH1 0x40 DUP1 DUP4 KECCAK256 DUP7 DUP5 MSTORE DUP3 MSTORE DUP1 DUP4 KECCAK256 DUP1 SLOAD PUSH1 0x1 DUP2 DUP2 ADD DUP4 SSTORE SWAP2 DUP6 MSTORE DUP4 DUP6 KECCAK256 ADD DUP7 SWAP1 SSTORE DUP13 DUP5 MSTORE PUSH1 0xE DUP4 MSTORE DUP2 DUP5 KECCAK256 DUP8 DUP6 MSTORE DUP4 MSTORE DUP2 DUP5 KECCAK256 DUP7 SWAP1 SSTORE DUP13 DUP5 MSTORE PUSH1 0xA SWAP1 SWAP3 MSTORE DUP3 KECCAK256 PUSH1 0x9 ADD DUP1 SLOAD SWAP2 SWAP3 SWAP1 SWAP2 PUSH2 0x2DA8 SWAP1 DUP5 SWAP1 PUSH2 0x36EB JUMP JUMPDEST SWAP3 POP POP DUP2 SWAP1 SSTORE POP PUSH20 0x0 PUSH4 0x26D0A334 PUSH1 0x40 MLOAD DUP2 PUSH4 0xFFFFFFFF AND PUSH1 0xE0 SHL DUP2 MSTORE PUSH1 0x4 ADD PUSH1 0x20 PUSH1 0x40 MLOAD DUP1 DUP4 SUB DUP2 DUP7 GAS DELEGATECALL ISZERO DUP1 ISZERO PUSH2 0x2DF8 JUMPI RETURNDATASIZE PUSH1 0x0 DUP1 RETURNDATACOPY RETURNDATASIZE PUSH1 0x0 REVERT JUMPDEST POP POP POP POP PUSH1 0x40 MLOAD RETURNDATASIZE PUSH1 0x1F NOT PUSH1 0x1F DUP3 ADD AND DUP3 ADD DUP1 PUSH1 0x40 MSTORE POP DUP2 ADD SWAP1 PUSH2 0x2E1C SWAP2 SWAP1 PUSH2 0x3563 JUMP JUMPDEST PUSH1 0x0 DUP11 DUP2 MSTORE PUSH1 0xA PUSH1 0x20 MSTORE PUSH1 0x40 DUP2 KECCAK256 PUSH1 0x8 ADD DUP1 SLOAD SWAP1 SWAP2 SWAP1 PUSH2 0x2E3D SWAP1 DUP5 SWAP1 PUSH2 0x36EB JUMP JUMPDEST SWAP1 SWAP2 SSTORE POP POP PUSH1 0x0 DUP10 DUP2 MSTORE PUSH1 0xB PUSH1 0x20 SWAP1 DUP2 MSTORE PUSH1 0x40 DUP1 DUP4 KECCAK256 DUP1 SLOAD PUSH1 0x1 DUP2 ADD DUP3 SSTORE SWAP1 DUP5 MSTORE SWAP3 DUP3 SWAP1 KECCAK256 SWAP1 SWAP3 ADD DUP5 SWAP1 SSTORE DUP3 DUP3 ADD MLOAD SWAP1 DUP4 ADD MLOAD PUSH1 0x60 DUP5 ADD MLOAD DUP5 MLOAD PUSH1 0x80 DUP7 ADD MLOAD PUSH1 0xA0 DUP8 ADD MLOAD SWAP6 MLOAD SWAP5 SWAP6 SWAP4 SWAP5 PUSH32 0x398B0CAA1A3067FE4B117E6DE075363F5BF1E284053CF53BE078FD48F8252B7 SWAP5 PUSH2 0x2EB5 SWAP5 SWAP4 SWAP3 SWAP2 PUSH2 0x3A96 JUMP JUMPDEST PUSH1 0x40 MLOAD DUP1 SWAP2 SUB SWAP1 LOG3 POP SWAP1 SWAP9 SWAP8 POP POP POP POP POP POP POP POP JUMP JUMPDEST PUSH1 0x0 PUSH2 0x2ED6 DUP4 PUSH2 0x26A4 JUMP JUMPDEST ISZERO ISZERO PUSH1 0x0 SUB PUSH2 0x2EE7 JUMPI POP PUSH1 0x0 PUSH2 0x1562 JUMP JUMPDEST PUSH1 0x0 DUP4 DUP2 MSTORE PUSH1 0xC PUSH1 0x20 SWAP1 DUP2 MSTORE PUSH1 0x40 DUP1 DUP4 KECCAK256 DUP6 DUP5 MSTORE SWAP1 SWAP2 MSTORE DUP2 KECCAK256 PUSH1 0x5 ADD SLOAD SWAP1 SUB PUSH2 0x2F12 JUMPI POP PUSH1 0x0 PUSH2 0x1562 JUMP JUMPDEST POP PUSH1 0x1 SWAP3 SWAP2 POP POP JUMP JUMPDEST PUSH1 0x0 DUP1 PUSH5 0x2540BE3FF DUP2 JUMPDEST PUSH1 0x0 DUP6 DUP2 MSTORE PUSH1 0xB PUSH1 0x20 MSTORE PUSH1 0x40 SWAP1 KECCAK256 SLOAD DUP2 LT ISZERO PUSH2 0x2FBB JUMPI PUSH1 0x0 DUP6 DUP2 MSTORE PUSH1 0xB PUSH1 0x20 MSTORE PUSH1 0x40 DUP2 KECCAK256 DUP1 SLOAD PUSH1 0x4 SWAP2 DUP4 SWAP2 DUP6 SWAP1 DUP2 LT PUSH2 0x2F61 JUMPI PUSH2 0x2F61 PUSH2 0x36A6 JUMP JUMPDEST PUSH1 0x0 SWAP2 DUP3 MSTORE PUSH1 0x20 DUP1 DUP4 KECCAK256 SWAP1 SWAP2 ADD SLOAD DUP4 MSTORE DUP3 DUP2 ADD SWAP4 SWAP1 SWAP4 MSTORE PUSH1 0x40 SWAP2 DUP3 ADD DUP2 KECCAK256 SLOAD DUP10 DUP3 MSTORE PUSH1 0xC DUP5 MSTORE DUP3 DUP3 KECCAK256 DUP2 DUP4 MSTORE SWAP1 SWAP4 MSTORE KECCAK256 PUSH1 0x5 ADD SLOAD SWAP1 SWAP2 POP DUP4 DUP2 LT ISZERO PUSH2 0x2FA6 JUMPI POP SWAP3 POP DUP3 DUP3 JUMPDEST POP POP DUP1 DUP1 PUSH2 0x2FB3 SWAP1 PUSH2 0x36D2 JUMP JUMPDEST SWAP2 POP POP PUSH2 0x2F26 JUMP JUMPDEST POP SWAP1 SWAP4 SWAP3 POP POP POP JUMP JUMPDEST PUSH1 0x60 PUSH1 0x0 PUSH2 0x2FD1 DUP4 PUSH2 0x308B JUMP JUMPDEST PUSH1 0x1 ADD SWAP1 POP PUSH1 0x0 DUP2 PUSH8 0xFFFFFFFFFFFFFFFF DUP2 GT ISZERO PUSH2 0x2FF1 JUMPI PUSH2 0x2FF1 PUSH2 0x3163 JUMP JUMPDEST PUSH1 0x40 MLOAD SWAP1 DUP1 DUP3 MSTORE DUP1 PUSH1 0x1F ADD PUSH1 0x1F NOT AND PUSH1 0x20 ADD DUP3 ADD PUSH1 0x40 MSTORE DUP1 ISZERO PUSH2 0x301B JUMPI PUSH1 0x20 DUP3 ADD DUP2 DUP1 CALLDATASIZE DUP4 CALLDATACOPY ADD SWAP1 POP JUMPDEST POP SWAP1 POP DUP2 DUP2 ADD PUSH1 0x20 ADD JUMPDEST PUSH1 0x0 NOT ADD PUSH16 0x181899199A1A9B1B9C1CB0B131B232B3 PUSH1 0x81 SHL PUSH1 0xA DUP7 MOD BYTE DUP2 MSTORE8 PUSH1 0xA DUP6 DIV SWAP5 POP DUP5 PUSH2 0x3025 JUMPI POP SWAP4 SWAP3 POP POP POP JUMP JUMPDEST PUSH1 0x0 DUP3 DUP6 GT ISZERO PUSH2 0x3069 JUMPI POP PUSH1 0x0 PUSH2 0x3083 JUMP JUMPDEST DUP3 DUP6 SUB PUSH2 0x307F JUMPI DUP2 DUP5 GT PUSH2 0x307F JUMPI POP PUSH1 0x0 PUSH2 0x3083 JUMP JUMPDEST POP PUSH1 0x1 JUMPDEST SWAP5 SWAP4 POP POP POP POP JUMP JUMPDEST PUSH1 0x0 DUP1 PUSH19 0x184F03E93FF9F4DAA797ED6E38ED64BF6A1F01 PUSH1 0x40 SHL DUP4 LT PUSH2 0x30CA JUMPI PUSH19 0x184F03E93FF9F4DAA797ED6E38ED64BF6A1F01 PUSH1 0x40 SHL DUP4 DIV SWAP3 POP PUSH1 0x40 ADD JUMPDEST PUSH14 0x4EE2D6D415B85ACEF8100000000 DUP4 LT PUSH2 0x30F6 JUMPI PUSH14 0x4EE2D6D415B85ACEF8100000000 DUP4 DIV SWAP3 POP PUSH1 0x20 ADD JUMPDEST PUSH7 0x2386F26FC10000 DUP4 LT PUSH2 0x3114 JUMPI PUSH7 0x2386F26FC10000 DUP4 DIV SWAP3 POP PUSH1 0x10 ADD JUMPDEST PUSH4 0x5F5E100 DUP4 LT PUSH2 0x312C JUMPI PUSH4 0x5F5E100 DUP4 DIV SWAP3 POP PUSH1 0x8 ADD JUMPDEST PUSH2 0x2710 DUP4 LT PUSH2 0x3140 JUMPI PUSH2 0x2710 DUP4 DIV SWAP3 POP PUSH1 0x4 ADD JUMPDEST PUSH1 0x64 DUP4 LT PUSH2 0x3152 JUMPI PUSH1 0x64 DUP4 DIV SWAP3 POP PUSH1 0x2 ADD JUMPDEST PUSH1 0xA DUP4 LT PUSH2 0x1562 JUMPI PUSH1 0x1 ADD SWAP3 SWAP2 POP POP JUMP JUMPDEST PUSH4 0x4E487B71 PUSH1 0xE0 SHL PUSH1 0x0 MSTORE PUSH1 0x41 PUSH1 0x4 MSTORE PUSH1 0x24 PUSH1 0x0 REVERT JUMPDEST PUSH1 0x0 DUP3 PUSH1 0x1F DUP4 ADD SLT PUSH2 0x318A JUMPI PUSH1 0x0 DUP1 REVERT JUMPDEST DUP2 CALLDATALOAD PUSH8 0xFFFFFFFFFFFFFFFF DUP1 DUP3 GT ISZERO PUSH2 0x31A5 JUMPI PUSH2 0x31A5 PUSH2 0x3163 JUMP JUMPDEST PUSH1 0x40 MLOAD PUSH1 0x1F DUP4 ADD PUSH1 0x1F NOT SWAP1 DUP2 AND PUSH1 0x3F ADD AND DUP2 ADD SWAP1 DUP3 DUP3 GT DUP2 DUP4 LT OR ISZERO PUSH2 0x31CD JUMPI PUSH2 0x31CD PUSH2 0x3163 JUMP JUMPDEST DUP2 PUSH1 0x40 MSTORE DUP4 DUP2 MSTORE DUP7 PUSH1 0x20 DUP6 DUP9 ADD ADD GT ISZERO PUSH2 0x31E6 JUMPI PUSH1 0x0 DUP1 REVERT JUMPDEST DUP4 PUSH1 0x20 DUP8 ADD PUSH1 0x20 DUP4 ADD CALLDATACOPY PUSH1 0x0 PUSH1 0x20 DUP6 DUP4 ADD ADD MSTORE DUP1 SWAP5 POP POP POP POP POP SWAP3 SWAP2 POP POP JUMP JUMPDEST PUSH1 0x0 DUP1 PUSH1 0x0 PUSH1 0x60 DUP5 DUP7 SUB SLT ISZERO PUSH2 0x321B JUMPI PUSH1 0x0 DUP1 REVERT JUMPDEST DUP4 CALLDATALOAD PUSH8 0xFFFFFFFFFFFFFFFF DUP2 GT ISZERO PUSH2 0x3232 JUMPI PUSH1 0x0 DUP1 REVERT JUMPDEST PUSH2 0x323E DUP7 DUP3 DUP8 ADD PUSH2 0x3179 JUMP JUMPDEST SWAP7 PUSH1 0x20 DUP7 ADD CALLDATALOAD SWAP7 POP PUSH1 0x40 SWAP1 SWAP6 ADD CALLDATALOAD SWAP5 SWAP4 POP POP POP POP JUMP JUMPDEST DUP1 CALLDATALOAD PUSH1 0x1 PUSH1 0x1 PUSH1 0xA0 SHL SUB DUP2 AND DUP2 EQ PUSH2 0x326B JUMPI PUSH1 0x0 DUP1 REVERT JUMPDEST SWAP2 SWAP1 POP JUMP JUMPDEST PUSH1 0x0 PUSH1 0x20 DUP3 DUP5 SUB SLT ISZERO PUSH2 0x3282 JUMPI PUSH1 0x0 DUP1 REVERT JUMPDEST PUSH2 0x21D3 DUP3 PUSH2 0x3254 JUMP JUMPDEST PUSH1 0x0 DUP2 MLOAD DUP1 DUP5 MSTORE PUSH1 0x20 DUP1 DUP6 ADD SWAP5 POP DUP1 DUP5 ADD PUSH1 0x0 JUMPDEST DUP4 DUP2 LT ISZERO PUSH2 0x32BB JUMPI DUP2 MLOAD DUP8 MSTORE SWAP6 DUP3 ADD SWAP6 SWAP1 DUP3 ADD SWAP1 PUSH1 0x1 ADD PUSH2 0x329F JUMP JUMPDEST POP SWAP5 SWAP6 SWAP5 POP POP POP POP POP JUMP JUMPDEST PUSH1 0x60 DUP2 MSTORE PUSH1 0x0 PUSH2 0x32D9 PUSH1 0x60 DUP4 ADD DUP7 PUSH2 0x328B JUMP JUMPDEST DUP3 DUP2 SUB PUSH1 0x20 DUP5 ADD MSTORE PUSH2 0x32EB DUP2 DUP7 PUSH2 0x328B JUMP JUMPDEST SWAP1 POP DUP3 DUP2 SUB PUSH1 0x40 DUP5 ADD MSTORE PUSH2 0x32FF DUP2 DUP6 PUSH2 0x328B JUMP JUMPDEST SWAP7 SWAP6 POP POP POP POP POP POP JUMP JUMPDEST PUSH1 0x0 DUP1 PUSH1 0x40 DUP4 DUP6 SUB SLT ISZERO PUSH2 0x331C JUMPI PUSH1 0x0 DUP1 REVERT JUMPDEST POP POP DUP1 CALLDATALOAD SWAP3 PUSH1 0x20 SWAP1 SWAP2 ADD CALLDATALOAD SWAP2 POP JUMP JUMPDEST PUSH1 0x0 PUSH1 0x20 DUP3 DUP5 SUB SLT ISZERO PUSH2 0x333D JUMPI PUSH1 0x0 DUP1 REVERT JUMPDEST POP CALLDATALOAD SWAP2 SWAP1 POP JUMP JUMPDEST PUSH1 0x0 DUP1 PUSH1 0x0 PUSH1 0x60 DUP5 DUP7 SUB SLT ISZERO PUSH2 0x3359 JUMPI PUSH1 0x0 DUP1 REVERT JUMPDEST PUSH2 0x3362 DUP5 PUSH2 0x3254 JUMP JUMPDEST SWAP3 POP PUSH2 0x3370 PUSH1 0x20 DUP6 ADD PUSH2 0x3254 JUMP JUMPDEST SWAP2 POP PUSH1 0x40 DUP5 ADD CALLDATALOAD SWAP1 POP SWAP3 POP SWAP3 POP SWAP3 JUMP JUMPDEST PUSH1 0x0 JUMPDEST DUP4 DUP2 LT ISZERO PUSH2 0x339B JUMPI DUP2 DUP2 ADD MLOAD DUP4 DUP3 ADD MSTORE PUSH1 0x20 ADD PUSH2 0x3383 JUMP JUMPDEST POP POP PUSH1 0x0 SWAP2 ADD MSTORE JUMP JUMPDEST PUSH1 0x0 DUP2 MLOAD DUP1 DUP5 MSTORE PUSH2 0x33BC DUP2 PUSH1 0x20 DUP7 ADD PUSH1 0x20 DUP7 ADD PUSH2 0x3380 JUMP JUMPDEST PUSH1 0x1F ADD PUSH1 0x1F NOT AND SWAP3 SWAP1 SWAP3 ADD PUSH1 0x20 ADD SWAP3 SWAP2 POP POP JUMP JUMPDEST PUSH1 0x20 DUP2 MSTORE PUSH1 0x0 PUSH2 0x21D3 PUSH1 0x20 DUP4 ADD DUP5 PUSH2 0x33A4 JUMP JUMPDEST PUSH1 0x0 DUP1 PUSH1 0x40 DUP4 DUP6 SUB SLT ISZERO PUSH2 0x33F6 JUMPI PUSH1 0x0 DUP1 REVERT JUMPDEST DUP3 CALLDATALOAD SWAP2 POP PUSH2 0x3406 PUSH1 0x20 DUP5 ADD PUSH2 0x3254 JUMP JUMPDEST SWAP1 POP SWAP3 POP SWAP3 SWAP1 POP JUMP JUMPDEST PUSH1 0x20 DUP2 MSTORE PUSH1 0x0 PUSH2 0x21D3 PUSH1 0x20 DUP4 ADD DUP5 PUSH2 0x328B JUMP JUMPDEST PUSH1 0x0 DUP1 PUSH1 0x40 DUP4 DUP6 SUB SLT ISZERO PUSH2 0x3435 JUMPI PUSH1 0x0 DUP1 REVERT JUMPDEST DUP3 CALLDATALOAD PUSH8 0xFFFFFFFFFFFFFFFF DUP2 GT ISZERO PUSH2 0x344C JUMPI PUSH1 0x0 DUP1 REVERT JUMPDEST PUSH2 0x3458 DUP6 DUP3 DUP7 ADD PUSH2 0x3179 JUMP JUMPDEST SWAP6 PUSH1 0x20 SWAP5 SWAP1 SWAP5 ADD CALLDATALOAD SWAP5 POP POP POP POP JUMP JUMPDEST PUSH1 0x20 DUP1 DUP3 MSTORE PUSH1 0x11 SWAP1 DUP3 ADD MSTORE PUSH17 0x736F7272792068756D616E73206F6E6C79 PUSH1 0x78 SHL PUSH1 0x40 DUP3 ADD MSTORE PUSH1 0x60 ADD SWAP1 JUMP JUMPDEST PUSH1 0x1 PUSH1 0x1 PUSH1 0xA0 SHL SUB SWAP4 DUP5 AND DUP2 MSTORE SWAP2 SWAP1 SWAP3 AND PUSH1 0x20 DUP3 ADD MSTORE PUSH1 0x40 DUP2 ADD SWAP2 SWAP1 SWAP2 MSTORE PUSH1 0x60 ADD SWAP1 JUMP JUMPDEST PUSH1 0x0 PUSH1 0x20 DUP3 DUP5 SUB SLT ISZERO PUSH2 0x34C8 JUMPI PUSH1 0x0 DUP1 REVERT JUMPDEST DUP2 MLOAD DUP1 ISZERO ISZERO DUP2 EQ PUSH2 0x21D3 JUMPI PUSH1 0x0 DUP1 REVERT JUMPDEST PUSH32 0x6372656174655461736B4665652073686F756C64206265206C61726765207468 DUP2 MSTORE PUSH3 0x30B71 PUSH1 0xED SHL PUSH1 0x20 DUP3 ADD MSTORE PUSH1 0x0 DUP3 MLOAD PUSH2 0x351C DUP2 PUSH1 0x23 DUP6 ADD PUSH1 0x20 DUP8 ADD PUSH2 0x3380 JUMP JUMPDEST SWAP2 SWAP1 SWAP2 ADD PUSH1 0x23 ADD SWAP3 SWAP2 POP POP JUMP JUMPDEST PUSH1 0x1 DUP2 DUP2 SHR SWAP1 DUP3 AND DUP1 PUSH2 0x353D JUMPI PUSH1 0x7F DUP3 AND SWAP2 POP JUMPDEST PUSH1 0x20 DUP3 LT DUP2 SUB PUSH2 0x355D JUMPI PUSH4 0x4E487B71 PUSH1 0xE0 SHL PUSH1 0x0 MSTORE PUSH1 0x22 PUSH1 0x4 MSTORE PUSH1 0x24 PUSH1 0x0 REVERT JUMPDEST POP SWAP2 SWAP1 POP JUMP JUMPDEST PUSH1 0x0 PUSH1 0x20 DUP3 DUP5 SUB SLT ISZERO PUSH2 0x3575 JUMPI PUSH1 0x0 DUP1 REVERT JUMPDEST POP MLOAD SWAP2 SWAP1 POP JUMP JUMPDEST PUSH1 0x1F DUP3 GT ISZERO PUSH2 0x2155 JUMPI PUSH1 0x0 DUP2 DUP2 MSTORE PUSH1 0x20 DUP2 KECCAK256 PUSH1 0x1F DUP6 ADD PUSH1 0x5 SHR DUP2 ADD PUSH1 0x20 DUP7 LT ISZERO PUSH2 0x35A3 JUMPI POP DUP1 JUMPDEST PUSH1 0x1F DUP6 ADD PUSH1 0x5 SHR DUP3 ADD SWAP2 POP JUMPDEST DUP2 DUP2 LT ISZERO PUSH2 0x35C2 JUMPI DUP3 DUP2 SSTORE PUSH1 0x1 ADD PUSH2 0x35AF JUMP JUMPDEST POP POP POP POP POP POP JUMP JUMPDEST DUP2 MLOAD PUSH8 0xFFFFFFFFFFFFFFFF DUP2 GT ISZERO PUSH2 0x35E4 JUMPI PUSH2 0x35E4 PUSH2 0x3163 JUMP JUMPDEST PUSH2 0x35F8 DUP2 PUSH2 0x35F2 DUP5 SLOAD PUSH2 0x3529 JUMP JUMPDEST DUP5 PUSH2 0x357C JUMP JUMPDEST PUSH1 0x20 DUP1 PUSH1 0x1F DUP4 GT PUSH1 0x1 DUP2 EQ PUSH2 0x362D JUMPI PUSH1 0x0 DUP5 ISZERO PUSH2 0x3615 JUMPI POP DUP6 DUP4 ADD MLOAD JUMPDEST PUSH1 0x0 NOT PUSH1 0x3 DUP7 SWAP1 SHL SHR NOT AND PUSH1 0x1 DUP6 SWAP1 SHL OR DUP6 SSTORE PUSH2 0x35C2 JUMP JUMPDEST PUSH1 0x0 DUP6 DUP2 MSTORE PUSH1 0x20 DUP2 KECCAK256 PUSH1 0x1F NOT DUP7 AND SWAP2 JUMPDEST DUP3 DUP2 LT ISZERO PUSH2 0x365C JUMPI DUP9 DUP7 ADD MLOAD DUP3 SSTORE SWAP5 DUP5 ADD SWAP5 PUSH1 0x1 SWAP1 SWAP2 ADD SWAP1 DUP5 ADD PUSH2 0x363D JUMP JUMPDEST POP DUP6 DUP3 LT ISZERO PUSH2 0x367A JUMPI DUP8 DUP6 ADD MLOAD PUSH1 0x0 NOT PUSH1 0x3 DUP9 SWAP1 SHL PUSH1 0xF8 AND SHR NOT AND DUP2 SSTORE JUMPDEST POP POP POP POP POP PUSH1 0x1 SWAP1 DUP2 SHL ADD SWAP1 SSTORE POP JUMP JUMPDEST PUSH1 0x0 DUP3 MLOAD PUSH2 0x369C DUP2 DUP5 PUSH1 0x20 DUP8 ADD PUSH2 0x3380 JUMP JUMPDEST SWAP2 SWAP1 SWAP2 ADD SWAP3 SWAP2 POP POP JUMP JUMPDEST PUSH4 0x4E487B71 PUSH1 0xE0 SHL PUSH1 0x0 MSTORE PUSH1 0x32 PUSH1 0x4 MSTORE PUSH1 0x24 PUSH1 0x0 REVERT JUMPDEST PUSH4 0x4E487B71 PUSH1 0xE0 SHL PUSH1 0x0 MSTORE PUSH1 0x11 PUSH1 0x4 MSTORE PUSH1 0x24 PUSH1 0x0 REVERT JUMPDEST PUSH1 0x0 PUSH1 0x1 DUP3 ADD PUSH2 0x36E4 JUMPI PUSH2 0x36E4 PUSH2 0x36BC JUMP JUMPDEST POP PUSH1 0x1 ADD SWAP1 JUMP JUMPDEST DUP1 DUP3 ADD DUP1 DUP3 GT ISZERO PUSH2 0x1562 JUMPI PUSH2 0x1562 PUSH2 0x36BC JUMP JUMPDEST PUSH32 0x486F6C64204E4654206E756D626572206973206C61726765207468616E200000 DUP2 MSTORE PUSH1 0x0 DUP4 MLOAD PUSH2 0x3736 DUP2 PUSH1 0x1E DUP6 ADD PUSH1 0x20 DUP9 ADD PUSH2 0x3380 JUMP JUMPDEST PUSH11 0x1034B7103A30B9B5A4B21 PUSH1 0xAD SHL PUSH1 0x1E SWAP2 DUP5 ADD SWAP2 DUP3 ADD MSTORE DUP4 MLOAD PUSH2 0x3761 DUP2 PUSH1 0x29 DUP5 ADD PUSH1 0x20 DUP9 ADD PUSH2 0x3380 JUMP JUMPDEST ADD PUSH1 0x29 ADD SWAP5 SWAP4 POP POP POP POP JUMP JUMPDEST PUSH1 0x20 DUP1 DUP3 MSTORE PUSH1 0x14 SWAP1 DUP3 ADD MSTORE PUSH20 0x67726F7570206D75737420626520616374697665 PUSH1 0x60 SHL PUSH1 0x40 DUP3 ADD MSTORE PUSH1 0x60 ADD SWAP1 JUMP JUMPDEST PUSH32 0x6A6F696E47726F75704665652073686F756C64206265206C6172676520746861 DUP2 MSTORE PUSH2 0x371 PUSH1 0xF5 SHL PUSH1 0x20 DUP3 ADD MSTORE PUSH1 0x0 DUP3 MLOAD PUSH2 0x37DE DUP2 PUSH1 0x22 DUP6 ADD PUSH1 0x20 DUP8 ADD PUSH2 0x3380 JUMP JUMPDEST SWAP2 SWAP1 SWAP2 ADD PUSH1 0x22 ADD SWAP3 SWAP2 POP POP JUMP JUMPDEST PUSH32 0x6A6F696E47726F75704E46544D696E744665652073686F756C64206265206C61 DUP2 MSTORE PUSH9 0x3933B2903A3430B71 PUSH1 0xBD SHL PUSH1 0x20 DUP3 ADD MSTORE PUSH1 0x0 DUP3 MLOAD PUSH2 0x3835 DUP2 PUSH1 0x29 DUP6 ADD PUSH1 0x20 DUP8 ADD PUSH2 0x3380 JUMP JUMPDEST SWAP2 SWAP1 SWAP2 ADD PUSH1 0x29 ADD SWAP3 SWAP2 POP POP JUMP JUMPDEST DUP2 DUP2 SUB DUP2 DUP2 GT ISZERO PUSH2 0x1562 JUMPI PUSH2 0x1562 PUSH2 0x36BC JUMP JUMPDEST PUSH1 0x1 DUP1 PUSH1 0xA0 SHL SUB DUP6 AND DUP2 MSTORE PUSH1 0x0 PUSH1 0x20 PUSH1 0x80 DUP2 DUP5 ADD MSTORE PUSH1 0x0 DUP7 SLOAD PUSH2 0x3877 DUP2 PUSH2 0x3529 JUMP JUMPDEST DUP1 PUSH1 0x80 DUP8 ADD MSTORE PUSH1 0xA0 PUSH1 0x1 DUP1 DUP5 AND PUSH1 0x0 DUP2 EQ PUSH2 0x3899 JUMPI PUSH1 0x1 DUP2 EQ PUSH2 0x38B3 JUMPI PUSH2 0x38E1 JUMP JUMPDEST PUSH1 0xFF NOT DUP6 AND DUP10 DUP5 ADD MSTORE DUP4 ISZERO ISZERO PUSH1 0x5 SHL DUP10 ADD DUP4 ADD SWAP6 POP PUSH2 0x38E1 JUMP JUMPDEST DUP12 PUSH1 0x0 MSTORE DUP7 PUSH1 0x0 KECCAK256 PUSH1 0x0 JUMPDEST DUP6 DUP2 LT ISZERO PUSH2 0x38D9 JUMPI DUP2 SLOAD DUP12 DUP3 ADD DUP7 ADD MSTORE SWAP1 DUP4 ADD SWAP1 DUP9 ADD PUSH2 0x38BE JUMP JUMPDEST DUP11 ADD DUP5 ADD SWAP7 POP POP JUMPDEST POP POP POP POP POP PUSH1 0x40 DUP5 ADD SWAP6 SWAP1 SWAP6 MSTORE POP POP PUSH1 0x60 ADD MSTORE SWAP3 SWAP2 POP POP JUMP JUMPDEST PUSH4 0x4E487B71 PUSH1 0xE0 SHL PUSH1 0x0 MSTORE PUSH1 0x31 PUSH1 0x4 MSTORE PUSH1 0x24 PUSH1 0x0 REVERT JUMPDEST DUP2 DUP2 SUB PUSH2 0x391B JUMPI POP POP JUMP JUMPDEST PUSH2 0x3925 DUP3 SLOAD PUSH2 0x3529 JUMP JUMPDEST PUSH8 0xFFFFFFFFFFFFFFFF DUP2 GT ISZERO PUSH2 0x393D JUMPI PUSH2 0x393D PUSH2 0x3163 JUMP JUMPDEST PUSH2 0x394B DUP2 PUSH2 0x35F2 DUP5 SLOAD PUSH2 0x3529 JUMP JUMPDEST PUSH1 0x0 PUSH1 0x1F DUP3 GT PUSH1 0x1 DUP2 EQ PUSH2 0x397F JUMPI PUSH1 0x0 DUP4 ISZERO PUSH2 0x3967 JUMPI POP DUP5 DUP3 ADD SLOAD JUMPDEST PUSH1 0x0 NOT PUSH1 0x3 DUP6 SWAP1 SHL SHR NOT AND PUSH1 0x1 DUP5 SWAP1 SHL OR DUP5 SSTORE PUSH2 0x39E4 JUMP JUMPDEST PUSH1 0x0 DUP6 DUP2 MSTORE PUSH1 0x20 SWAP1 KECCAK256 PUSH1 0x1F NOT DUP5 AND SWAP1 PUSH1 0x0 DUP7 DUP2 MSTORE PUSH1 0x20 SWAP1 KECCAK256 DUP5 JUMPDEST DUP4 DUP2 LT ISZERO PUSH2 0x39B9 JUMPI DUP3 DUP7 ADD SLOAD DUP3 SSTORE PUSH1 0x1 SWAP6 DUP7 ADD SWAP6 SWAP1 SWAP2 ADD SWAP1 PUSH1 0x20 ADD PUSH2 0x3999 JUMP JUMPDEST POP DUP6 DUP4 LT ISZERO PUSH2 0x39D7 JUMPI DUP2 DUP6 ADD SLOAD PUSH1 0x0 NOT PUSH1 0x3 DUP9 SWAP1 SHL PUSH1 0xF8 AND SHR NOT AND DUP2 SSTORE JUMPDEST POP POP POP PUSH1 0x1 DUP4 PUSH1 0x1 SHL ADD DUP5 SSTORE JUMPDEST POP POP POP POP POP JUMP JUMPDEST PUSH32 0x63726561746547726F75704665652073686F756C64206265206C617267652074 DUP2 MSTORE PUSH4 0x3430B71 PUSH1 0xE5 SHL PUSH1 0x20 DUP3 ADD MSTORE PUSH1 0x0 DUP3 MLOAD PUSH2 0x3A30 DUP2 PUSH1 0x24 DUP6 ADD PUSH1 0x20 DUP8 ADD PUSH2 0x3380 JUMP JUMPDEST SWAP2 SWAP1 SWAP2 ADD PUSH1 0x24 ADD SWAP3 SWAP2 POP POP JUMP JUMPDEST PUSH32 0x63726561746547726F75704E46544D696E744665652073686F756C6420626520 DUP2 MSTORE PUSH11 0x3630B933B2903A3430B71 PUSH1 0xAD SHL PUSH1 0x20 DUP3 ADD MSTORE PUSH1 0x0 DUP3 MLOAD PUSH2 0x3A89 DUP2 PUSH1 0x2B DUP6 ADD PUSH1 0x20 DUP8 ADD PUSH2 0x3380 JUMP JUMPDEST SWAP2 SWAP1 SWAP2 ADD PUSH1 0x2B ADD SWAP3 SWAP2 POP POP JUMP JUMPDEST PUSH1 0x1 PUSH1 0x1 PUSH1 0xA0 SHL SUB DUP6 AND DUP2 MSTORE PUSH1 0x80 PUSH1 0x20 DUP3 ADD DUP2 SWAP1 MSTORE PUSH1 0x0 SWAP1 PUSH2 0x3ABA SWAP1 DUP4 ADD DUP7 PUSH2 0x33A4 JUMP JUMPDEST DUP3 DUP2 SUB PUSH1 0x40 DUP5 ADD MSTORE PUSH2 0x3ACC DUP2 DUP7 PUSH2 0x33A4 JUMP JUMPDEST SWAP2 POP POP DUP3 PUSH1 0x60 DUP4 ADD MSTORE SWAP6 SWAP5 POP POP POP POP POP JUMP INVALID LOG2 PUSH5 0x6970667358 0x22 SLT KECCAK256 PUSH32 0xDD56CFF0884C5C88B05F7ECC429217B3E075CEAF23DEBB141667BDF644F0E764 PUSH20 0x6F6C63430008120033610160604052602E610100 DUP2 DUP2 MSTORE PUSH1 0x80 SWAP2 DUP3 SWAP2 SWAP1 PUSH3 0x1AF1 PUSH2 0x120 CODECOPY DUP2 MSTORE PUSH1 0x20 ADD PUSH1 0x40 MLOAD DUP1 PUSH1 0x60 ADD PUSH1 0x40 MSTORE DUP1 PUSH1 0x2E DUP2 MSTORE PUSH1 0x20 ADD PUSH3 0x1B4D PUSH1 0x2E SWAP2 CODECOPY DUP2 MSTORE PUSH1 0x20 ADD PUSH1 0x40 MLOAD DUP1 PUSH1 0x60 ADD PUSH1 0x40 MSTORE DUP1 PUSH1 0x2E DUP2 MSTORE PUSH1 0x20 ADD PUSH3 0x1B7B PUSH1 0x2E SWAP2 CODECOPY DUP2 MSTORE PUSH1 0x20 ADD PUSH1 0x40 MLOAD DUP1 PUSH1 0x60 ADD PUSH1 0x40 MSTORE DUP1 PUSH1 0x2E DUP2 MSTORE PUSH1 0x20 ADD PUSH3 0x1B1F PUSH1 0x2E SWAP2 CODECOPY SWAP1 MSTORE PUSH3 0x8A SWAP1 PUSH1 0x6 SWAP1 PUSH1 0x4 PUSH3 0x107 JUMP JUMPDEST POP CALLVALUE DUP1 ISZERO PUSH3 0x98 JUMPI PUSH1 0x0 DUP1 REVERT JUMPDEST POP PUSH1 0x40 MLOAD PUSH3 0x1BA9 CODESIZE SUB DUP1 PUSH3 0x1BA9 DUP4 CODECOPY DUP2 ADD PUSH1 0x40 DUP2 SWAP1 MSTORE PUSH3 0xBB SWAP2 PUSH3 0x2A3 JUMP JUMPDEST DUP3 DUP3 PUSH1 0x0 PUSH3 0xCB DUP4 DUP3 PUSH3 0x3BF JUMP JUMPDEST POP PUSH1 0x1 PUSH3 0xDA DUP3 DUP3 PUSH3 0x3BF JUMP JUMPDEST POP POP PUSH1 0x9 DUP1 SLOAD PUSH1 0x1 PUSH1 0x1 PUSH1 0xA0 SHL SUB NOT AND PUSH1 0x1 PUSH1 0x1 PUSH1 0xA0 SHL SUB SWAP4 SWAP1 SWAP4 AND SWAP3 SWAP1 SWAP3 OR SWAP1 SWAP2 SSTORE POP PUSH3 0x48B SWAP2 POP POP JUMP JUMPDEST DUP3 DUP1 SLOAD DUP3 DUP3 SSTORE SWAP1 PUSH1 0x0 MSTORE PUSH1 0x20 PUSH1 0x0 KECCAK256 SWAP1 DUP2 ADD SWAP3 DUP3 ISZERO PUSH3 0x152 JUMPI SWAP2 PUSH1 0x20 MUL DUP3 ADD JUMPDEST DUP3 DUP2 GT ISZERO PUSH3 0x152 JUMPI DUP3 MLOAD DUP3 SWAP1 PUSH3 0x141 SWAP1 DUP3 PUSH3 0x3BF JUMP JUMPDEST POP SWAP2 PUSH1 0x20 ADD SWAP2 SWAP1 PUSH1 0x1 ADD SWAP1 PUSH3 0x128 JUMP JUMPDEST POP PUSH3 0x160 SWAP3 SWAP2 POP PUSH3 0x164 JUMP JUMPDEST POP SWAP1 JUMP JUMPDEST DUP1 DUP3 GT ISZERO PUSH3 0x160 JUMPI PUSH1 0x0 PUSH3 0x17B DUP3 DUP3 PUSH3 0x185 JUMP JUMPDEST POP PUSH1 0x1 ADD PUSH3 0x164 JUMP JUMPDEST POP DUP1 SLOAD PUSH3 0x193 SWAP1 PUSH3 0x330 JUMP JUMPDEST PUSH1 0x0 DUP3 SSTORE DUP1 PUSH1 0x1F LT PUSH3 0x1A4 JUMPI POP POP JUMP JUMPDEST PUSH1 0x1F ADD PUSH1 0x20 SWAP1 DIV SWAP1 PUSH1 0x0 MSTORE PUSH1 0x20 PUSH1 0x0 KECCAK256 SWAP1 DUP2 ADD SWAP1 PUSH3 0x1C4 SWAP2 SWAP1 PUSH3 0x1C7 JUMP JUMPDEST POP JUMP JUMPDEST JUMPDEST DUP1 DUP3 GT ISZERO PUSH3 0x160 JUMPI PUSH1 0x0 DUP2 SSTORE PUSH1 0x1 ADD PUSH3 0x1C8 JUMP JUMPDEST PUSH4 0x4E487B71 PUSH1 0xE0 SHL PUSH1 0x0 MSTORE PUSH1 0x41 PUSH1 0x4 MSTORE PUSH1 0x24 PUSH1 0x0 REVERT JUMPDEST PUSH1 0x0 DUP3 PUSH1 0x1F DUP4 ADD SLT PUSH3 0x206 JUMPI PUSH1 0x0 DUP1 REVERT JUMPDEST DUP2 MLOAD PUSH1 0x1 PUSH1 0x1 PUSH1 0x40 SHL SUB DUP1 DUP3 GT ISZERO PUSH3 0x223 JUMPI PUSH3 0x223 PUSH3 0x1DE JUMP JUMPDEST PUSH1 0x40 MLOAD PUSH1 0x1F DUP4 ADD PUSH1 0x1F NOT SWAP1 DUP2 AND PUSH1 0x3F ADD AND DUP2 ADD SWAP1 DUP3 DUP3 GT DUP2 DUP4 LT OR ISZERO PUSH3 0x24E JUMPI PUSH3 0x24E PUSH3 0x1DE JUMP JUMPDEST DUP2 PUSH1 0x40 MSTORE DUP4 DUP2 MSTORE PUSH1 0x20 SWAP3 POP DUP7 DUP4 DUP6 DUP9 ADD ADD GT ISZERO PUSH3 0x26B JUMPI PUSH1 0x0 DUP1 REVERT JUMPDEST PUSH1 0x0 SWAP2 POP JUMPDEST DUP4 DUP3 LT ISZERO PUSH3 0x28F JUMPI DUP6 DUP3 ADD DUP4 ADD MLOAD DUP2 DUP4 ADD DUP5 ADD MSTORE SWAP1 DUP3 ADD SWAP1 PUSH3 0x270 JUMP JUMPDEST PUSH1 0x0 SWAP4 DUP2 ADD SWAP1 SWAP3 ADD SWAP3 SWAP1 SWAP3 MSTORE SWAP5 SWAP4 POP POP POP POP JUMP JUMPDEST PUSH1 0x0 DUP1 PUSH1 0x0 PUSH1 0x60 DUP5 DUP7 SUB SLT ISZERO PUSH3 0x2B9 JUMPI PUSH1 0x0 DUP1 REVERT JUMPDEST DUP4 MLOAD PUSH1 0x1 PUSH1 0x1 PUSH1 0x40 SHL SUB DUP1 DUP3 GT ISZERO PUSH3 0x2D1 JUMPI PUSH1 0x0 DUP1 REVERT JUMPDEST PUSH3 0x2DF DUP8 DUP4 DUP9 ADD PUSH3 0x1F4 JUMP JUMPDEST SWAP5 POP PUSH1 0x20 DUP7 ADD MLOAD SWAP2 POP DUP1 DUP3 GT ISZERO PUSH3 0x2F6 JUMPI PUSH1 0x0 DUP1 REVERT JUMPDEST POP PUSH3 0x305 DUP7 DUP3 DUP8 ADD PUSH3 0x1F4 JUMP JUMPDEST PUSH1 0x40 DUP7 ADD MLOAD SWAP1 SWAP4 POP SWAP1 POP PUSH1 0x1 PUSH1 0x1 PUSH1 0xA0 SHL SUB DUP2 AND DUP2 EQ PUSH3 0x325 JUMPI PUSH1 0x0 DUP1 REVERT JUMPDEST DUP1 SWAP2 POP POP SWAP3 POP SWAP3 POP SWAP3 JUMP JUMPDEST PUSH1 0x1 DUP2 DUP2 SHR SWAP1 DUP3 AND DUP1 PUSH3 0x345 JUMPI PUSH1 0x7F DUP3 AND SWAP2 POP JUMPDEST PUSH1 0x20 DUP3 LT DUP2 SUB PUSH3 0x366 JUMPI PUSH4 0x4E487B71 PUSH1 0xE0 SHL PUSH1 0x0 MSTORE PUSH1 0x22 PUSH1 0x4 MSTORE PUSH1 0x24 PUSH1 0x0 REVERT JUMPDEST POP SWAP2 SWAP1 POP JUMP JUMPDEST PUSH1 0x1F DUP3 GT ISZERO PUSH3 0x3BA JUMPI PUSH1 0x0 DUP2 DUP2 MSTORE PUSH1 0x20 DUP2 KECCAK256 PUSH1 0x1F DUP6 ADD PUSH1 0x5 SHR DUP2 ADD PUSH1 0x20 DUP7 LT ISZERO PUSH3 0x395 JUMPI POP DUP1 JUMPDEST PUSH1 0x1F DUP6 ADD PUSH1 0x5 SHR DUP3 ADD SWAP2 POP JUMPDEST DUP2 DUP2 LT ISZERO PUSH3 0x3B6 JUMPI DUP3 DUP2 SSTORE PUSH1 0x1 ADD PUSH3 0x3A1 JUMP JUMPDEST POP POP POP JUMPDEST POP POP POP JUMP JUMPDEST DUP2 MLOAD PUSH1 0x1 PUSH1 0x1 PUSH1 0x40 SHL SUB DUP2 GT ISZERO PUSH3 0x3DB JUMPI PUSH3 0x3DB PUSH3 0x1DE JUMP JUMPDEST PUSH3 0x3F3 DUP2 PUSH3 0x3EC DUP5 SLOAD PUSH3 0x330 JUMP JUMPDEST DUP5 PUSH3 0x36C JUMP JUMPDEST PUSH1 0x20 DUP1 PUSH1 0x1F DUP4 GT PUSH1 0x1 DUP2 EQ PUSH3 0x42B JUMPI PUSH1 0x0 DUP5 ISZERO PUSH3 0x412 JUMPI POP DUP6 DUP4 ADD MLOAD JUMPDEST PUSH1 0x0 NOT PUSH1 0x3 DUP7 SWAP1 SHL SHR NOT AND PUSH1 0x1 DUP6 SWAP1 SHL OR DUP6 SSTORE PUSH3 0x3B6 JUMP JUMPDEST PUSH1 0x0 DUP6 DUP2 MSTORE PUSH1 0x20 DUP2 KECCAK256 PUSH1 0x1F NOT DUP7 AND SWAP2 JUMPDEST DUP3 DUP2 LT ISZERO PUSH3 0x45C JUMPI DUP9 DUP7 ADD MLOAD DUP3 SSTORE SWAP5 DUP5 ADD SWAP5 PUSH1 0x1 SWAP1 SWAP2 ADD SWAP1 DUP5 ADD PUSH3 0x43B JUMP JUMPDEST POP DUP6 DUP3 LT ISZERO PUSH3 0x47B JUMPI DUP8 DUP6 ADD MLOAD PUSH1 0x0 NOT PUSH1 0x3 DUP9 SWAP1 SHL PUSH1 0xF8 AND SHR NOT AND DUP2 SSTORE JUMPDEST POP POP POP POP POP PUSH1 0x1 SWAP1 DUP2 SHL ADD SWAP1 SSTORE POP JUMP JUMPDEST PUSH2 0x1656 DUP1 PUSH3 0x49B PUSH1 0x0 CODECOPY PUSH1 0x0 RETURN INVALID PUSH1 0x80 PUSH1 0x40 MSTORE CALLVALUE DUP1 ISZERO PUSH2 0x10 JUMPI PUSH1 0x0 DUP1 REVERT JUMPDEST POP PUSH1 0x4 CALLDATASIZE LT PUSH2 0x10B JUMPI PUSH1 0x0 CALLDATALOAD PUSH1 0xE0 SHR DUP1 PUSH4 0x6352211E GT PUSH2 0xA2 JUMPI DUP1 PUSH4 0xAEB9326C GT PUSH2 0x71 JUMPI DUP1 PUSH4 0xAEB9326C EQ PUSH2 0x228 JUMPI DUP1 PUSH4 0xB88D4FDE EQ PUSH2 0x23B JUMPI DUP1 PUSH4 0xC87B56DD EQ PUSH2 0x24E JUMPI DUP1 PUSH4 0xD283B5CB EQ PUSH2 0x261 JUMPI DUP1 PUSH4 0xE985E9C5 EQ PUSH2 0x284 JUMPI PUSH1 0x0 DUP1 REVERT JUMPDEST DUP1 PUSH4 0x6352211E EQ PUSH2 0x1E7 JUMPI DUP1 PUSH4 0x70A08231 EQ PUSH2 0x1FA JUMPI DUP1 PUSH4 0x95D89B41 EQ PUSH2 0x20D JUMPI DUP1 PUSH4 0xA22CB465 EQ PUSH2 0x215 JUMPI PUSH1 0x0 DUP1 REVERT JUMPDEST DUP1 PUSH4 0x23B872DD GT PUSH2 0xDE JUMPI DUP1 PUSH4 0x23B872DD EQ PUSH2 0x18D JUMPI DUP1 PUSH4 0x40D097C3 EQ PUSH2 0x1A0 JUMPI DUP1 PUSH4 0x42842E0E EQ PUSH2 0x1C1 JUMPI DUP1 PUSH4 0x42966C68 EQ PUSH2 0x1D4 JUMPI PUSH1 0x0 DUP1 REVERT JUMPDEST DUP1 PUSH4 0x1FFC9A7 EQ PUSH2 0x110 JUMPI DUP1 PUSH4 0x6FDDE03 EQ PUSH2 0x138 JUMPI DUP1 PUSH4 0x81812FC EQ PUSH2 0x14D JUMPI DUP1 PUSH4 0x95EA7B3 EQ PUSH2 0x178 JUMPI JUMPDEST PUSH1 0x0 DUP1 REVERT JUMPDEST PUSH2 0x123 PUSH2 0x11E CALLDATASIZE PUSH1 0x4 PUSH2 0x1161 JUMP JUMPDEST PUSH2 0x2C0 JUMP JUMPDEST PUSH1 0x40 MLOAD SWAP1 ISZERO ISZERO DUP2 MSTORE PUSH1 0x20 ADD JUMPDEST PUSH1 0x40 MLOAD DUP1 SWAP2 SUB SWAP1 RETURN JUMPDEST PUSH2 0x140 PUSH2 0x312 JUMP JUMPDEST PUSH1 0x40 MLOAD PUSH2 0x12F SWAP2 SWAP1 PUSH2 0x11D5 JUMP JUMPDEST PUSH2 0x160 PUSH2 0x15B CALLDATASIZE PUSH1 0x4 PUSH2 0x11E8 JUMP JUMPDEST PUSH2 0x3A4 JUMP JUMPDEST PUSH1 0x40 MLOAD PUSH1 0x1 PUSH1 0x1 PUSH1 0xA0 SHL SUB SWAP1 SWAP2 AND DUP2 MSTORE PUSH1 0x20 ADD PUSH2 0x12F JUMP JUMPDEST PUSH2 0x18B PUSH2 0x186 CALLDATASIZE PUSH1 0x4 PUSH2 0x1218 JUMP JUMPDEST PUSH2 0x3CB JUMP JUMPDEST STOP JUMPDEST PUSH2 0x18B PUSH2 0x19B CALLDATASIZE PUSH1 0x4 PUSH2 0x1242 JUMP JUMPDEST PUSH2 0x4E5 JUMP JUMPDEST PUSH2 0x1B3 PUSH2 0x1AE CALLDATASIZE PUSH1 0x4 PUSH2 0x127E JUMP JUMPDEST PUSH2 0x517 JUMP JUMPDEST PUSH1 0x40 MLOAD SWAP1 DUP2 MSTORE PUSH1 0x20 ADD PUSH2 0x12F JUMP JUMPDEST PUSH2 0x18B PUSH2 0x1CF CALLDATASIZE PUSH1 0x4 PUSH2 0x1242 JUMP JUMPDEST PUSH2 0x571 JUMP JUMPDEST PUSH2 0x18B PUSH2 0x1E2 CALLDATASIZE PUSH1 0x4 PUSH2 0x11E8 JUMP JUMPDEST PUSH2 0x58C JUMP JUMPDEST PUSH2 0x160 PUSH2 0x1F5 CALLDATASIZE PUSH1 0x4 PUSH2 0x11E8 JUMP JUMPDEST PUSH2 0x639 JUMP JUMPDEST PUSH2 0x1B3 PUSH2 0x208 CALLDATASIZE PUSH1 0x4 PUSH2 0x127E JUMP JUMPDEST PUSH2 0x699 JUMP JUMPDEST PUSH2 0x140 PUSH2 0x71F JUMP JUMPDEST PUSH2 0x18B PUSH2 0x223 CALLDATASIZE PUSH1 0x4 PUSH2 0x1299 JUMP JUMPDEST PUSH2 0x72E JUMP JUMPDEST PUSH2 0x18B PUSH2 0x236 CALLDATASIZE PUSH1 0x4 PUSH2 0x11E8 JUMP JUMPDEST PUSH2 0x73D JUMP JUMPDEST PUSH2 0x18B PUSH2 0x249 CALLDATASIZE PUSH1 0x4 PUSH2 0x12EB JUMP JUMPDEST PUSH2 0x782 JUMP JUMPDEST PUSH2 0x140 PUSH2 0x25C CALLDATASIZE PUSH1 0x4 PUSH2 0x11E8 JUMP JUMPDEST PUSH2 0x7BA JUMP JUMPDEST PUSH2 0x123 PUSH2 0x26F CALLDATASIZE PUSH1 0x4 PUSH2 0x11E8 JUMP JUMPDEST PUSH1 0x0 SWAP1 DUP2 MSTORE PUSH1 0x7 PUSH1 0x20 MSTORE PUSH1 0x40 SWAP1 KECCAK256 SLOAD PUSH1 0xFF AND SWAP1 JUMP JUMPDEST PUSH2 0x123 PUSH2 0x292 CALLDATASIZE PUSH1 0x4 PUSH2 0x13C7 JUMP JUMPDEST PUSH1 0x1 PUSH1 0x1 PUSH1 0xA0 SHL SUB SWAP2 DUP3 AND PUSH1 0x0 SWAP1 DUP2 MSTORE PUSH1 0x5 PUSH1 0x20 SWAP1 DUP2 MSTORE PUSH1 0x40 DUP1 DUP4 KECCAK256 SWAP4 SWAP1 SWAP5 AND DUP3 MSTORE SWAP2 SWAP1 SWAP2 MSTORE KECCAK256 SLOAD PUSH1 0xFF AND SWAP1 JUMP JUMPDEST PUSH1 0x0 PUSH1 0x1 PUSH1 0x1 PUSH1 0xE0 SHL SUB NOT DUP3 AND PUSH4 0x80AC58CD PUSH1 0xE0 SHL EQ DUP1 PUSH2 0x2F1 JUMPI POP PUSH1 0x1 PUSH1 0x1 PUSH1 0xE0 SHL SUB NOT DUP3 AND PUSH4 0x5B5E139F PUSH1 0xE0 SHL EQ JUMPDEST DUP1 PUSH2 0x30C JUMPI POP PUSH4 0x1FFC9A7 PUSH1 0xE0 SHL PUSH1 0x1 PUSH1 0x1 PUSH1 0xE0 SHL SUB NOT DUP4 AND EQ JUMPDEST SWAP3 SWAP2 POP POP JUMP JUMPDEST PUSH1 0x60 PUSH1 0x0 DUP1 SLOAD PUSH2 0x321 SWAP1 PUSH2 0x13FA JUMP JUMPDEST DUP1 PUSH1 0x1F ADD PUSH1 0x20 DUP1 SWAP2 DIV MUL PUSH1 0x20 ADD PUSH1 0x40 MLOAD SWAP1 DUP2 ADD PUSH1 0x40 MSTORE DUP1 SWAP3 SWAP2 SWAP1 DUP2 DUP2 MSTORE PUSH1 0x20 ADD DUP3 DUP1 SLOAD PUSH2 0x34D SWAP1 PUSH2 0x13FA JUMP JUMPDEST DUP1 ISZERO PUSH2 0x39A JUMPI DUP1 PUSH1 0x1F LT PUSH2 0x36F JUMPI PUSH2 0x100 DUP1 DUP4 SLOAD DIV MUL DUP4 MSTORE SWAP2 PUSH1 0x20 ADD SWAP2 PUSH2 0x39A JUMP JUMPDEST DUP3 ADD SWAP2 SWAP1 PUSH1 0x0 MSTORE PUSH1 0x20 PUSH1 0x0 KECCAK256 SWAP1 JUMPDEST DUP2 SLOAD DUP2 MSTORE SWAP1 PUSH1 0x1 ADD SWAP1 PUSH1 0x20 ADD DUP1 DUP4 GT PUSH2 0x37D JUMPI DUP3 SWAP1 SUB PUSH1 0x1F AND DUP3 ADD SWAP2 JUMPDEST POP POP POP POP POP SWAP1 POP SWAP1 JUMP JUMPDEST PUSH1 0x0 PUSH2 0x3AF DUP3 PUSH2 0x8ED JUMP JUMPDEST POP PUSH1 0x0 SWAP1 DUP2 MSTORE PUSH1 0x4 PUSH1 0x20 MSTORE PUSH1 0x40 SWAP1 KECCAK256 SLOAD PUSH1 0x1 PUSH1 0x1 PUSH1 0xA0 SHL SUB AND SWAP1 JUMP JUMPDEST PUSH1 0x0 PUSH2 0x3D6 DUP3 PUSH2 0x639 JUMP JUMPDEST SWAP1 POP DUP1 PUSH1 0x1 PUSH1 0x1 PUSH1 0xA0 SHL SUB AND DUP4 PUSH1 0x1 PUSH1 0x1 PUSH1 0xA0 SHL SUB AND SUB PUSH2 0x448 JUMPI PUSH1 0x40 MLOAD PUSH3 0x461BCD PUSH1 0xE5 SHL DUP2 MSTORE PUSH1 0x20 PUSH1 0x4 DUP3 ADD MSTORE PUSH1 0x21 PUSH1 0x24 DUP3 ADD MSTORE PUSH32 0x4552433732313A20617070726F76616C20746F2063757272656E74206F776E65 PUSH1 0x44 DUP3 ADD MSTORE PUSH1 0x39 PUSH1 0xF9 SHL PUSH1 0x64 DUP3 ADD MSTORE PUSH1 0x84 ADD JUMPDEST PUSH1 0x40 MLOAD DUP1 SWAP2 SUB SWAP1 REVERT JUMPDEST CALLER PUSH1 0x1 PUSH1 0x1 PUSH1 0xA0 SHL SUB DUP3 AND EQ DUP1 PUSH2 0x464 JUMPI POP PUSH2 0x464 DUP2 CALLER PUSH2 0x292 JUMP JUMPDEST PUSH2 0x4D6 JUMPI PUSH1 0x40 MLOAD PUSH3 0x461BCD PUSH1 0xE5 SHL DUP2 MSTORE PUSH1 0x20 PUSH1 0x4 DUP3 ADD MSTORE PUSH1 0x3D PUSH1 0x24 DUP3 ADD MSTORE PUSH32 0x4552433732313A20617070726F76652063616C6C6572206973206E6F7420746F PUSH1 0x44 DUP3 ADD MSTORE PUSH32 0x6B656E206F776E6572206F7220617070726F76656420666F7220616C6C000000 PUSH1 0x64 DUP3 ADD MSTORE PUSH1 0x84 ADD PUSH2 0x43F JUMP JUMPDEST PUSH2 0x4E0 DUP4 DUP4 PUSH2 0x94C JUMP JUMPDEST POP POP POP JUMP JUMPDEST PUSH2 0x4F0 CALLER JUMPDEST DUP3 PUSH2 0x9BA JUMP JUMPDEST PUSH2 0x50C JUMPI PUSH1 0x40 MLOAD PUSH3 0x461BCD PUSH1 0xE5 SHL DUP2 MSTORE PUSH1 0x4 ADD PUSH2 0x43F SWAP1 PUSH2 0x1434 JUMP JUMPDEST PUSH2 0x4E0 DUP4 DUP4 DUP4 PUSH2 0xA38 JUMP JUMPDEST PUSH1 0x9 SLOAD PUSH1 0x0 SWAP1 PUSH1 0x1 PUSH1 0x1 PUSH1 0xA0 SHL SUB AND CALLER EQ PUSH2 0x544 JUMPI PUSH1 0x40 MLOAD PUSH3 0x461BCD PUSH1 0xE5 SHL DUP2 MSTORE PUSH1 0x4 ADD PUSH2 0x43F SWAP1 PUSH2 0x1481 JUMP JUMPDEST PUSH1 0x0 PUSH2 0x54F PUSH1 0x8 SLOAD SWAP1 JUMP JUMPDEST SWAP1 POP PUSH2 0x55F PUSH1 0x8 DUP1 SLOAD PUSH1 0x1 ADD SWAP1 SSTORE JUMP JUMPDEST PUSH2 0x569 DUP4 DUP3 PUSH2 0xBA4 JUMP JUMPDEST SWAP1 POP JUMPDEST SWAP2 SWAP1 POP JUMP JUMPDEST PUSH2 0x4E0 DUP4 DUP4 DUP4 PUSH1 0x40 MLOAD DUP1 PUSH1 0x20 ADD PUSH1 0x40 MSTORE DUP1 PUSH1 0x0 DUP2 MSTORE POP PUSH2 0x782 JUMP JUMPDEST PUSH1 0x0 DUP2 DUP2 MSTORE PUSH1 0x7 PUSH1 0x20 MSTORE PUSH1 0x40 SWAP1 KECCAK256 SLOAD PUSH1 0xFF AND PUSH2 0x608 JUMPI PUSH1 0x40 MLOAD PUSH3 0x461BCD PUSH1 0xE5 SHL DUP2 MSTORE PUSH1 0x20 PUSH1 0x4 DUP3 ADD MSTORE PUSH1 0x35 PUSH1 0x24 DUP3 ADD MSTORE PUSH32 0x54686973204E465420646F6573206E6F7420616C6C6F7720746F206275726E2C PUSH1 0x44 DUP3 ADD MSTORE PUSH21 0x81C1B19585CD9481DD85A5D081D185CDAC8195B99 PUSH1 0x5A SHL PUSH1 0x64 DUP3 ADD MSTORE PUSH1 0x84 ADD PUSH2 0x43F JUMP JUMPDEST PUSH2 0x611 CALLER PUSH2 0x4EA JUMP JUMPDEST PUSH2 0x62D JUMPI PUSH1 0x40 MLOAD PUSH3 0x461BCD PUSH1 0xE5 SHL DUP2 MSTORE PUSH1 0x4 ADD PUSH2 0x43F SWAP1 PUSH2 0x1434 JUMP JUMPDEST PUSH2 0x636 DUP2 PUSH2 0xBBE JUMP JUMPDEST POP JUMP JUMPDEST PUSH1 0x0 DUP2 DUP2 MSTORE PUSH1 0x2 PUSH1 0x20 MSTORE PUSH1 0x40 DUP2 KECCAK256 SLOAD PUSH1 0x1 PUSH1 0x1 PUSH1 0xA0 SHL SUB AND DUP1 PUSH2 0x569 JUMPI PUSH1 0x40 MLOAD PUSH3 0x461BCD PUSH1 0xE5 SHL DUP2 MSTORE PUSH1 0x20 PUSH1 0x4 DUP3 ADD MSTORE PUSH1 0x18 PUSH1 0x24 DUP3 ADD MSTORE PUSH24 0x115490CDCC8C4E881A5B9D985B1A59081D1BDAD95B881251 PUSH1 0x42 SHL PUSH1 0x44 DUP3 ADD MSTORE PUSH1 0x64 ADD PUSH2 0x43F JUMP JUMPDEST PUSH1 0x0 PUSH1 0x1 PUSH1 0x1 PUSH1 0xA0 SHL SUB DUP3 AND PUSH2 0x703 JUMPI PUSH1 0x40 MLOAD PUSH3 0x461BCD PUSH1 0xE5 SHL DUP2 MSTORE PUSH1 0x20 PUSH1 0x4 DUP3 ADD MSTORE PUSH1 0x29 PUSH1 0x24 DUP3 ADD MSTORE PUSH32 0x4552433732313A2061646472657373207A65726F206973206E6F742061207661 PUSH1 0x44 DUP3 ADD MSTORE PUSH9 0x3634B21037BBB732B9 PUSH1 0xB9 SHL PUSH1 0x64 DUP3 ADD MSTORE PUSH1 0x84 ADD PUSH2 0x43F JUMP JUMPDEST POP PUSH1 0x1 PUSH1 0x1 PUSH1 0xA0 SHL SUB AND PUSH1 0x0 SWAP1 DUP2 MSTORE PUSH1 0x3 PUSH1 0x20 MSTORE PUSH1 0x40 SWAP1 KECCAK256 SLOAD SWAP1 JUMP JUMPDEST PUSH1 0x60 PUSH1 0x1 DUP1 SLOAD PUSH2 0x321 SWAP1 PUSH2 0x13FA JUMP JUMPDEST PUSH2 0x739 CALLER DUP4 DUP4 PUSH2 0xC5D JUMP JUMPDEST POP POP JUMP JUMPDEST PUSH1 0x9 SLOAD PUSH1 0x1 PUSH1 0x1 PUSH1 0xA0 SHL SUB AND CALLER EQ PUSH2 0x767 JUMPI PUSH1 0x40 MLOAD PUSH3 0x461BCD PUSH1 0xE5 SHL DUP2 MSTORE PUSH1 0x4 ADD PUSH2 0x43F SWAP1 PUSH2 0x1481 JUMP JUMPDEST PUSH1 0x0 SWAP1 DUP2 MSTORE PUSH1 0x7 PUSH1 0x20 MSTORE PUSH1 0x40 SWAP1 KECCAK256 DUP1 SLOAD PUSH1 0xFF NOT AND PUSH1 0x1 OR SWAP1 SSTORE JUMP JUMPDEST PUSH2 0x78C CALLER DUP4 PUSH2 0x9BA JUMP JUMPDEST PUSH2 0x7A8 JUMPI PUSH1 0x40 MLOAD PUSH3 0x461BCD PUSH1 0xE5 SHL DUP2 MSTORE PUSH1 0x4 ADD PUSH2 0x43F SWAP1 PUSH2 0x1434 JUMP JUMPDEST PUSH2 0x7B4 DUP5 DUP5 DUP5 DUP5 PUSH2 0xD2B JUMP JUMPDEST POP POP POP POP JUMP JUMPDEST PUSH1 0x60 PUSH2 0x7C5 DUP3 PUSH2 0x8ED JUMP JUMPDEST PUSH1 0x0 PUSH2 0x7EB PUSH1 0x40 DUP1 MLOAD DUP1 DUP3 ADD SWAP1 SWAP2 MSTORE PUSH1 0x7 DUP2 MSTORE PUSH7 0x697066733A2F2F PUSH1 0xC8 SHL PUSH1 0x20 DUP3 ADD MSTORE SWAP1 JUMP JUMPDEST PUSH1 0x6 DUP1 SLOAD SWAP2 SWAP3 POP PUSH1 0x0 SWAP2 PUSH2 0x7FF SWAP1 DUP7 PUSH2 0x14C8 JUMP JUMPDEST DUP2 SLOAD DUP2 LT PUSH2 0x80F JUMPI PUSH2 0x80F PUSH2 0x14EA JUMP JUMPDEST SWAP1 PUSH1 0x0 MSTORE PUSH1 0x20 PUSH1 0x0 KECCAK256 ADD DUP1 SLOAD PUSH2 0x824 SWAP1 PUSH2 0x13FA JUMP JUMPDEST DUP1 PUSH1 0x1F ADD PUSH1 0x20 DUP1 SWAP2 DIV MUL PUSH1 0x20 ADD PUSH1 0x40 MLOAD SWAP1 DUP2 ADD PUSH1 0x40 MSTORE DUP1 SWAP3 SWAP2 SWAP1 DUP2 DUP2 MSTORE PUSH1 0x20 ADD DUP3 DUP1 SLOAD PUSH2 0x850 SWAP1 PUSH2 0x13FA JUMP JUMPDEST DUP1 ISZERO PUSH2 0x89D JUMPI DUP1 PUSH1 0x1F LT PUSH2 0x872 JUMPI PUSH2 0x100 DUP1 DUP4 SLOAD DIV MUL DUP4 MSTORE SWAP2 PUSH1 0x20 ADD SWAP2 PUSH2 0x89D JUMP JUMPDEST DUP3 ADD SWAP2 SWAP1 PUSH1 0x0 MSTORE PUSH1 0x20 PUSH1 0x0 KECCAK256 SWAP1 JUMPDEST DUP2 SLOAD DUP2 MSTORE SWAP1 PUSH1 0x1 ADD SWAP1 PUSH1 0x20 ADD DUP1 DUP4 GT PUSH2 0x880 JUMPI DUP3 SWAP1 SUB PUSH1 0x1F AND DUP3 ADD SWAP2 JUMPDEST POP POP POP POP POP SWAP1 POP PUSH1 0x0 DUP3 MLOAD GT PUSH2 0x8C2 JUMPI PUSH1 0x40 MLOAD DUP1 PUSH1 0x20 ADD PUSH1 0x40 MSTORE DUP1 PUSH1 0x0 DUP2 MSTORE POP PUSH2 0x8E5 JUMP JUMPDEST DUP2 DUP2 PUSH1 0x40 MLOAD PUSH1 0x20 ADD PUSH2 0x8D5 SWAP3 SWAP2 SWAP1 PUSH2 0x1500 JUMP JUMPDEST PUSH1 0x40 MLOAD PUSH1 0x20 DUP2 DUP4 SUB SUB DUP2 MSTORE SWAP1 PUSH1 0x40 MSTORE JUMPDEST SWAP5 SWAP4 POP POP POP POP JUMP JUMPDEST PUSH1 0x0 DUP2 DUP2 MSTORE PUSH1 0x2 PUSH1 0x20 MSTORE PUSH1 0x40 SWAP1 KECCAK256 SLOAD PUSH1 0x1 PUSH1 0x1 PUSH1 0xA0 SHL SUB AND PUSH2 0x636 JUMPI PUSH1 0x40 MLOAD PUSH3 0x461BCD PUSH1 0xE5 SHL DUP2 MSTORE PUSH1 0x20 PUSH1 0x4 DUP3 ADD MSTORE PUSH1 0x18 PUSH1 0x24 DUP3 ADD MSTORE PUSH24 0x115490CDCC8C4E881A5B9D985B1A59081D1BDAD95B881251 PUSH1 0x42 SHL PUSH1 0x44 DUP3 ADD MSTORE PUSH1 0x64 ADD PUSH2 0x43F JUMP JUMPDEST PUSH1 0x0 DUP2 DUP2 MSTORE PUSH1 0x4 PUSH1 0x20 MSTORE PUSH1 0x40 SWAP1 KECCAK256 DUP1 SLOAD PUSH1 0x1 PUSH1 0x1 PUSH1 0xA0 SHL SUB NOT AND PUSH1 0x1 PUSH1 0x1 PUSH1 0xA0 SHL SUB DUP5 AND SWAP1 DUP2 OR SWAP1 SWAP2 SSTORE DUP2 SWAP1 PUSH2 0x981 DUP3 PUSH2 0x639 JUMP JUMPDEST PUSH1 0x1 PUSH1 0x1 PUSH1 0xA0 SHL SUB AND PUSH32 0x8C5BE1E5EBEC7D5BD14F71427D1E84F3DD0314C0F7B2291E5B200AC8C7C3B925 PUSH1 0x40 MLOAD PUSH1 0x40 MLOAD DUP1 SWAP2 SUB SWAP1 LOG4 POP POP JUMP JUMPDEST PUSH1 0x0 DUP1 PUSH2 0x9C6 DUP4 PUSH2 0x639 JUMP JUMPDEST SWAP1 POP DUP1 PUSH1 0x1 PUSH1 0x1 PUSH1 0xA0 SHL SUB AND DUP5 PUSH1 0x1 PUSH1 0x1 PUSH1 0xA0 SHL SUB AND EQ DUP1 PUSH2 0xA0D JUMPI POP PUSH1 0x1 PUSH1 0x1 PUSH1 0xA0 SHL SUB DUP1 DUP3 AND PUSH1 0x0 SWAP1 DUP2 MSTORE PUSH1 0x5 PUSH1 0x20 SWAP1 DUP2 MSTORE PUSH1 0x40 DUP1 DUP4 KECCAK256 SWAP4 DUP9 AND DUP4 MSTORE SWAP3 SWAP1 MSTORE KECCAK256 SLOAD PUSH1 0xFF AND JUMPDEST DUP1 PUSH2 0x8E5 JUMPI POP DUP4 PUSH1 0x1 PUSH1 0x1 PUSH1 0xA0 SHL SUB AND PUSH2 0xA26 DUP5 PUSH2 0x3A4 JUMP JUMPDEST PUSH1 0x1 PUSH1 0x1 PUSH1 0xA0 SHL SUB AND EQ SWAP5 SWAP4 POP POP POP POP JUMP JUMPDEST DUP3 PUSH1 0x1 PUSH1 0x1 PUSH1 0xA0 SHL SUB AND PUSH2 0xA4B DUP3 PUSH2 0x639 JUMP JUMPDEST PUSH1 0x1 PUSH1 0x1 PUSH1 0xA0 SHL SUB AND EQ PUSH2 0xA71 JUMPI PUSH1 0x40 MLOAD PUSH3 0x461BCD PUSH1 0xE5 SHL DUP2 MSTORE PUSH1 0x4 ADD PUSH2 0x43F SWAP1 PUSH2 0x152F JUMP JUMPDEST PUSH1 0x1 PUSH1 0x1 PUSH1 0xA0 SHL SUB DUP3 AND PUSH2 0xAD3 JUMPI PUSH1 0x40 MLOAD PUSH3 0x461BCD PUSH1 0xE5 SHL DUP2 MSTORE PUSH1 0x20 PUSH1 0x4 DUP3 ADD MSTORE PUSH1 0x24 DUP1 DUP3 ADD MSTORE PUSH32 0x4552433732313A207472616E7366657220746F20746865207A65726F20616464 PUSH1 0x44 DUP3 ADD MSTORE PUSH4 0x72657373 PUSH1 0xE0 SHL PUSH1 0x64 DUP3 ADD MSTORE PUSH1 0x84 ADD PUSH2 0x43F JUMP JUMPDEST DUP3 PUSH1 0x1 PUSH1 0x1 PUSH1 0xA0 SHL SUB AND PUSH2 0xAE6 DUP3 PUSH2 0x639 JUMP JUMPDEST PUSH1 0x1 PUSH1 0x1 PUSH1 0xA0 SHL SUB AND EQ PUSH2 0xB0C JUMPI PUSH1 0x40 MLOAD PUSH3 0x461BCD PUSH1 0xE5 SHL DUP2 MSTORE PUSH1 0x4 ADD PUSH2 0x43F SWAP1 PUSH2 0x152F JUMP JUMPDEST PUSH1 0x0 DUP2 DUP2 MSTORE PUSH1 0x4 PUSH1 0x20 SWAP1 DUP2 MSTORE PUSH1 0x40 DUP1 DUP4 KECCAK256 DUP1 SLOAD PUSH1 0x1 PUSH1 0x1 PUSH1 0xA0 SHL SUB NOT SWAP1 DUP2 AND SWAP1 SWAP2 SSTORE PUSH1 0x1 PUSH1 0x1 PUSH1 0xA0 SHL SUB DUP8 DUP2 AND DUP1 DUP7 MSTORE PUSH1 0x3 DUP6 MSTORE DUP4 DUP7 KECCAK256 DUP1 SLOAD PUSH1 0x0 NOT ADD SWAP1 SSTORE SWAP1 DUP8 AND DUP1 DUP7 MSTORE DUP4 DUP7 KECCAK256 DUP1 SLOAD PUSH1 0x1 ADD SWAP1 SSTORE DUP7 DUP7 MSTORE PUSH1 0x2 SWAP1 SWAP5 MSTORE DUP3 DUP6 KECCAK256 DUP1 SLOAD SWAP1 SWAP3 AND DUP5 OR SWAP1 SWAP2 SSTORE SWAP1 MLOAD DUP5 SWAP4 PUSH32 0xDDF252AD1BE2C89B69C2B068FC378DAA952BA7F163C4A11628F55A4DF523B3EF SWAP2 LOG4 PUSH2 0x4E0 DUP4 DUP4 DUP4 PUSH1 0x1 PUSH2 0xD5E JUMP JUMPDEST PUSH2 0x739 DUP3 DUP3 PUSH1 0x40 MLOAD DUP1 PUSH1 0x20 ADD PUSH1 0x40 MSTORE DUP1 PUSH1 0x0 DUP2 MSTORE POP PUSH2 0xE82 JUMP JUMPDEST PUSH1 0x0 PUSH2 0xBC9 DUP3 PUSH2 0x639 JUMP JUMPDEST SWAP1 POP PUSH2 0xBD4 DUP3 PUSH2 0x639 JUMP JUMPDEST PUSH1 0x0 DUP4 DUP2 MSTORE PUSH1 0x4 PUSH1 0x20 SWAP1 DUP2 MSTORE PUSH1 0x40 DUP1 DUP4 KECCAK256 DUP1 SLOAD PUSH1 0x1 PUSH1 0x1 PUSH1 0xA0 SHL SUB NOT SWAP1 DUP2 AND SWAP1 SWAP2 SSTORE PUSH1 0x1 PUSH1 0x1 PUSH1 0xA0 SHL SUB DUP6 AND DUP1 DUP6 MSTORE PUSH1 0x3 DUP5 MSTORE DUP3 DUP6 KECCAK256 DUP1 SLOAD PUSH1 0x0 NOT ADD SWAP1 SSTORE DUP8 DUP6 MSTORE PUSH1 0x2 SWAP1 SWAP4 MSTORE DUP2 DUP5 KECCAK256 DUP1 SLOAD SWAP1 SWAP2 AND SWAP1 SSTORE MLOAD SWAP3 SWAP4 POP DUP5 SWAP3 PUSH32 0xDDF252AD1BE2C89B69C2B068FC378DAA952BA7F163C4A11628F55A4DF523B3EF SWAP1 DUP4 SWAP1 LOG4 PUSH2 0x739 DUP2 PUSH1 0x0 DUP5 PUSH1 0x1 PUSH2 0xD5E JUMP JUMPDEST DUP2 PUSH1 0x1 PUSH1 0x1 PUSH1 0xA0 SHL SUB AND DUP4 PUSH1 0x1 PUSH1 0x1 PUSH1 0xA0 SHL SUB AND SUB PUSH2 0xCBE JUMPI PUSH1 0x40 MLOAD PUSH3 0x461BCD PUSH1 0xE5 SHL DUP2 MSTORE PUSH1 0x20 PUSH1 0x4 DUP3 ADD MSTORE PUSH1 0x19 PUSH1 0x24 DUP3 ADD MSTORE PUSH32 0x4552433732313A20617070726F766520746F2063616C6C657200000000000000 PUSH1 0x44 DUP3 ADD MSTORE PUSH1 0x64 ADD PUSH2 0x43F JUMP JUMPDEST PUSH1 0x1 PUSH1 0x1 PUSH1 0xA0 SHL SUB DUP4 DUP2 AND PUSH1 0x0 DUP2 DUP2 MSTORE PUSH1 0x5 PUSH1 0x20 SWAP1 DUP2 MSTORE PUSH1 0x40 DUP1 DUP4 KECCAK256 SWAP5 DUP8 AND DUP1 DUP5 MSTORE SWAP5 DUP3 MSTORE SWAP2 DUP3 SWAP1 KECCAK256 DUP1 SLOAD PUSH1 0xFF NOT AND DUP7 ISZERO ISZERO SWAP1 DUP2 OR SWAP1 SWAP2 SSTORE SWAP2 MLOAD SWAP2 DUP3 MSTORE PUSH32 0x17307EAB39AB6107E8899845AD3D59BD9653F200F220920489CA2B5937696C31 SWAP2 ADD PUSH1 0x40 MLOAD DUP1 SWAP2 SUB SWAP1 LOG3 POP POP POP JUMP JUMPDEST PUSH2 0xD36 DUP5 DUP5 DUP5 PUSH2 0xA38 JUMP JUMPDEST PUSH2 0xD42 DUP5 DUP5 DUP5 DUP5 PUSH2 0xEB5 JUMP JUMPDEST PUSH2 0x7B4 JUMPI PUSH1 0x40 MLOAD PUSH3 0x461BCD PUSH1 0xE5 SHL DUP2 MSTORE PUSH1 0x4 ADD PUSH2 0x43F SWAP1 PUSH2 0x1574 JUMP JUMPDEST PUSH1 0x1 PUSH1 0x1 PUSH1 0xA0 SHL SUB DUP5 AND ISZERO DUP1 ISZERO SWAP1 PUSH2 0xD7E JUMPI POP PUSH1 0x1 PUSH1 0x1 PUSH1 0xA0 SHL SUB DUP4 AND ISZERO ISZERO JUMPDEST ISZERO PUSH2 0xDF2 JUMPI PUSH1 0x9 SLOAD PUSH1 0x40 MLOAD PUSH4 0x4965F525 PUSH1 0xE0 SHL DUP2 MSTORE PUSH1 0x1 PUSH1 0x1 PUSH1 0xA0 SHL SUB DUP7 DUP2 AND PUSH1 0x4 DUP4 ADD MSTORE DUP6 DUP2 AND PUSH1 0x24 DUP4 ADD MSTORE PUSH1 0x44 DUP3 ADD DUP6 SWAP1 MSTORE SWAP1 SWAP2 AND SWAP1 PUSH4 0x4965F525 SWAP1 PUSH1 0x64 ADD PUSH1 0x0 PUSH1 0x40 MLOAD DUP1 DUP4 SUB DUP2 PUSH1 0x0 DUP8 DUP1 EXTCODESIZE ISZERO DUP1 ISZERO PUSH2 0xDD9 JUMPI PUSH1 0x0 DUP1 REVERT JUMPDEST POP GAS CALL ISZERO DUP1 ISZERO PUSH2 0xDED JUMPI RETURNDATASIZE PUSH1 0x0 DUP1 RETURNDATACOPY RETURNDATASIZE PUSH1 0x0 REVERT JUMPDEST POP POP POP POP JUMPDEST PUSH1 0x1 PUSH1 0x1 PUSH1 0xA0 SHL SUB DUP5 AND ISZERO DUP1 ISZERO SWAP1 PUSH2 0xE11 JUMPI POP PUSH1 0x1 PUSH1 0x1 PUSH1 0xA0 SHL SUB DUP4 AND ISZERO JUMPDEST ISZERO PUSH2 0x7B4 JUMPI PUSH1 0x9 SLOAD PUSH1 0x40 MLOAD PUSH4 0x6515D6C1 PUSH1 0xE0 SHL DUP2 MSTORE PUSH1 0x4 DUP2 ADD DUP5 SWAP1 MSTORE PUSH1 0x1 PUSH1 0x1 PUSH1 0xA0 SHL SUB DUP7 DUP2 AND PUSH1 0x24 DUP4 ADD MSTORE SWAP1 SWAP2 AND SWAP1 PUSH4 0x6515D6C1 SWAP1 PUSH1 0x44 ADD PUSH1 0x0 PUSH1 0x40 MLOAD DUP1 DUP4 SUB DUP2 PUSH1 0x0 DUP8 DUP1 EXTCODESIZE ISZERO DUP1 ISZERO PUSH2 0xE64 JUMPI PUSH1 0x0 DUP1 REVERT JUMPDEST POP GAS CALL ISZERO DUP1 ISZERO PUSH2 0xE78 JUMPI RETURNDATASIZE PUSH1 0x0 DUP1 RETURNDATACOPY RETURNDATASIZE PUSH1 0x0 REVERT JUMPDEST POP POP POP POP POP POP POP POP JUMP JUMPDEST PUSH2 0xE8C DUP4 DUP4 PUSH2 0xFB6 JUMP JUMPDEST PUSH2 0xE99 PUSH1 0x0 DUP5 DUP5 DUP5 PUSH2 0xEB5 JUMP JUMPDEST PUSH2 0x4E0 JUMPI PUSH1 0x40 MLOAD PUSH3 0x461BCD PUSH1 0xE5 SHL DUP2 MSTORE PUSH1 0x4 ADD PUSH2 0x43F SWAP1 PUSH2 0x1574 JUMP JUMPDEST PUSH1 0x0 PUSH1 0x1 PUSH1 0x1 PUSH1 0xA0 SHL SUB DUP5 AND EXTCODESIZE ISZERO PUSH2 0xFAB JUMPI PUSH1 0x40 MLOAD PUSH4 0xA85BD01 PUSH1 0xE1 SHL DUP2 MSTORE PUSH1 0x1 PUSH1 0x1 PUSH1 0xA0 SHL SUB DUP6 AND SWAP1 PUSH4 0x150B7A02 SWAP1 PUSH2 0xEF9 SWAP1 CALLER SWAP1 DUP10 SWAP1 DUP9 SWAP1 DUP9 SWAP1 PUSH1 0x4 ADD PUSH2 0x15C6 JUMP JUMPDEST PUSH1 0x20 PUSH1 0x40 MLOAD DUP1 DUP4 SUB DUP2 PUSH1 0x0 DUP8 GAS CALL SWAP3 POP POP POP DUP1 ISZERO PUSH2 0xF34 JUMPI POP PUSH1 0x40 DUP1 MLOAD PUSH1 0x1F RETURNDATASIZE SWAP1 DUP2 ADD PUSH1 0x1F NOT AND DUP3 ADD SWAP1 SWAP3 MSTORE PUSH2 0xF31 SWAP2 DUP2 ADD SWAP1 PUSH2 0x1603 JUMP JUMPDEST PUSH1 0x1 JUMPDEST PUSH2 0xF91 JUMPI RETURNDATASIZE DUP1 DUP1 ISZERO PUSH2 0xF62 JUMPI PUSH1 0x40 MLOAD SWAP2 POP PUSH1 0x1F NOT PUSH1 0x3F RETURNDATASIZE ADD AND DUP3 ADD PUSH1 0x40 MSTORE RETURNDATASIZE DUP3 MSTORE RETURNDATASIZE PUSH1 0x0 PUSH1 0x20 DUP5 ADD RETURNDATACOPY PUSH2 0xF67 JUMP JUMPDEST PUSH1 0x60 SWAP2 POP JUMPDEST POP DUP1 MLOAD PUSH1 0x0 SUB PUSH2 0xF89 JUMPI PUSH1 0x40 MLOAD PUSH3 0x461BCD PUSH1 0xE5 SHL DUP2 MSTORE PUSH1 0x4 ADD PUSH2 0x43F SWAP1 PUSH2 0x1574 JUMP JUMPDEST DUP1 MLOAD DUP2 PUSH1 0x20 ADD REVERT JUMPDEST PUSH1 0x1 PUSH1 0x1 PUSH1 0xE0 SHL SUB NOT AND PUSH4 0xA85BD01 PUSH1 0xE1 SHL EQ SWAP1 POP PUSH2 0x8E5 JUMP JUMPDEST POP PUSH1 0x1 SWAP5 SWAP4 POP POP POP POP JUMP JUMPDEST PUSH1 0x1 PUSH1 0x1 PUSH1 0xA0 SHL SUB DUP3 AND PUSH2 0x100C JUMPI PUSH1 0x40 MLOAD PUSH3 0x461BCD PUSH1 0xE5 SHL DUP2 MSTORE PUSH1 0x20 PUSH1 0x4 DUP3 ADD DUP2 SWAP1 MSTORE PUSH1 0x24 DUP3 ADD MSTORE PUSH32 0x4552433732313A206D696E7420746F20746865207A65726F2061646472657373 PUSH1 0x44 DUP3 ADD MSTORE PUSH1 0x64 ADD PUSH2 0x43F JUMP JUMPDEST PUSH1 0x0 DUP2 DUP2 MSTORE PUSH1 0x2 PUSH1 0x20 MSTORE PUSH1 0x40 SWAP1 KECCAK256 SLOAD PUSH1 0x1 PUSH1 0x1 PUSH1 0xA0 SHL SUB AND ISZERO PUSH2 0x1071 JUMPI PUSH1 0x40 MLOAD PUSH3 0x461BCD PUSH1 0xE5 SHL DUP2 MSTORE PUSH1 0x20 PUSH1 0x4 DUP3 ADD MSTORE PUSH1 0x1C PUSH1 0x24 DUP3 ADD MSTORE PUSH32 0x4552433732313A20746F6B656E20616C7265616479206D696E74656400000000 PUSH1 0x44 DUP3 ADD MSTORE PUSH1 0x64 ADD PUSH2 0x43F JUMP JUMPDEST PUSH1 0x0 DUP2 DUP2 MSTORE PUSH1 0x2 PUSH1 0x20 MSTORE PUSH1 0x40 SWAP1 KECCAK256 SLOAD PUSH1 0x1 PUSH1 0x1 PUSH1 0xA0 SHL SUB AND ISZERO PUSH2 0x10D6 JUMPI PUSH1 0x40 MLOAD PUSH3 0x461BCD PUSH1 0xE5 SHL DUP2 MSTORE PUSH1 0x20 PUSH1 0x4 DUP3 ADD MSTORE PUSH1 0x1C PUSH1 0x24 DUP3 ADD MSTORE PUSH32 0x4552433732313A20746F6B656E20616C7265616479206D696E74656400000000 PUSH1 0x44 DUP3 ADD MSTORE PUSH1 0x64 ADD PUSH2 0x43F JUMP JUMPDEST PUSH1 0x1 PUSH1 0x1 PUSH1 0xA0 SHL SUB DUP3 AND PUSH1 0x0 DUP2 DUP2 MSTORE PUSH1 0x3 PUSH1 0x20 SWAP1 DUP2 MSTORE PUSH1 0x40 DUP1 DUP4 KECCAK256 DUP1 SLOAD PUSH1 0x1 ADD SWAP1 SSTORE DUP5 DUP4 MSTORE PUSH1 0x2 SWAP1 SWAP2 MSTORE DUP1 DUP3 KECCAK256 DUP1 SLOAD PUSH1 0x1 PUSH1 0x1 PUSH1 0xA0 SHL SUB NOT AND DUP5 OR SWAP1 SSTORE MLOAD DUP4 SWAP3 SWAP2 SWAP1 PUSH32 0xDDF252AD1BE2C89B69C2B068FC378DAA952BA7F163C4A11628F55A4DF523B3EF SWAP1 DUP3 SWAP1 LOG4 PUSH2 0x739 PUSH1 0x0 DUP4 DUP4 PUSH1 0x1 PUSH2 0xD5E JUMP JUMPDEST PUSH1 0x1 PUSH1 0x1 PUSH1 0xE0 SHL SUB NOT DUP2 AND DUP2 EQ PUSH2 0x636 JUMPI PUSH1 0x0 DUP1 REVERT JUMPDEST PUSH1 0x0 PUSH1 0x20 DUP3 DUP5 SUB SLT ISZERO PUSH2 0x1173 JUMPI PUSH1 0x0 DUP1 REVERT JUMPDEST DUP2 CALLDATALOAD PUSH2 0x117E DUP2 PUSH2 0x114B JUMP JUMPDEST SWAP4 SWAP3 POP POP POP JUMP JUMPDEST PUSH1 0x0 JUMPDEST DUP4 DUP2 LT ISZERO PUSH2 0x11A0 JUMPI DUP2 DUP2 ADD MLOAD DUP4 DUP3 ADD MSTORE PUSH1 0x20 ADD PUSH2 0x1188 JUMP JUMPDEST POP POP PUSH1 0x0 SWAP2 ADD MSTORE JUMP JUMPDEST PUSH1 0x0 DUP2 MLOAD DUP1 DUP5 MSTORE PUSH2 0x11C1 DUP2 PUSH1 0x20 DUP7 ADD PUSH1 0x20 DUP7 ADD PUSH2 0x1185 JUMP JUMPDEST PUSH1 0x1F ADD PUSH1 0x1F NOT AND SWAP3 SWAP1 SWAP3 ADD PUSH1 0x20 ADD SWAP3 SWAP2 POP POP JUMP JUMPDEST PUSH1 0x20 DUP2 MSTORE PUSH1 0x0 PUSH2 0x117E PUSH1 0x20 DUP4 ADD DUP5 PUSH2 0x11A9 JUMP JUMPDEST PUSH1 0x0 PUSH1 0x20 DUP3 DUP5 SUB SLT ISZERO PUSH2 0x11FA JUMPI PUSH1 0x0 DUP1 REVERT JUMPDEST POP CALLDATALOAD SWAP2 SWAP1 POP JUMP JUMPDEST DUP1 CALLDATALOAD PUSH1 0x1 PUSH1 0x1 PUSH1 0xA0 SHL SUB DUP2 AND DUP2 EQ PUSH2 0x56C JUMPI PUSH1 0x0 DUP1 REVERT JUMPDEST PUSH1 0x0 DUP1 PUSH1 0x40 DUP4 DUP6 SUB SLT ISZERO PUSH2 0x122B JUMPI PUSH1 0x0 DUP1 REVERT JUMPDEST PUSH2 0x1234 DUP4 PUSH2 0x1201 JUMP JUMPDEST SWAP5 PUSH1 0x20 SWAP4 SWAP1 SWAP4 ADD CALLDATALOAD SWAP4 POP POP POP JUMP JUMPDEST PUSH1 0x0 DUP1 PUSH1 0x0 PUSH1 0x60 DUP5 DUP7 SUB SLT ISZERO PUSH2 0x1257 JUMPI PUSH1 0x0 DUP1 REVERT JUMPDEST PUSH2 0x1260 DUP5 PUSH2 0x1201 JUMP JUMPDEST SWAP3 POP PUSH2 0x126E PUSH1 0x20 DUP6 ADD PUSH2 0x1201 JUMP JUMPDEST SWAP2 POP PUSH1 0x40 DUP5 ADD CALLDATALOAD SWAP1 POP SWAP3 POP SWAP3 POP SWAP3 JUMP JUMPDEST PUSH1 0x0 PUSH1 0x20 DUP3 DUP5 SUB SLT ISZERO PUSH2 0x1290 JUMPI PUSH1 0x0 DUP1 REVERT JUMPDEST PUSH2 0x117E DUP3 PUSH2 0x1201 JUMP JUMPDEST PUSH1 0x0 DUP1 PUSH1 0x40 DUP4 DUP6 SUB SLT ISZERO PUSH2 0x12AC JUMPI PUSH1 0x0 DUP1 REVERT JUMPDEST PUSH2 0x12B5 DUP4 PUSH2 0x1201 JUMP JUMPDEST SWAP2 POP PUSH1 0x20 DUP4 ADD CALLDATALOAD DUP1 ISZERO ISZERO DUP2 EQ PUSH2 0x12CA JUMPI PUSH1 0x0 DUP1 REVERT JUMPDEST DUP1 SWAP2 POP POP SWAP3 POP SWAP3 SWAP1 POP JUMP JUMPDEST PUSH4 0x4E487B71 PUSH1 0xE0 SHL PUSH1 0x0 MSTORE PUSH1 0x41 PUSH1 0x4 MSTORE PUSH1 0x24 PUSH1 0x0 REVERT JUMPDEST PUSH1 0x0 DUP1 PUSH1 0x0 DUP1 PUSH1 0x80 DUP6 DUP8 SUB SLT ISZERO PUSH2 0x1301 JUMPI PUSH1 0x0 DUP1 REVERT JUMPDEST PUSH2 0x130A DUP6 PUSH2 0x1201 JUMP JUMPDEST SWAP4 POP PUSH2 0x1318 PUSH1 0x20 DUP7 ADD PUSH2 0x1201 JUMP JUMPDEST SWAP3 POP PUSH1 0x40 DUP6 ADD CALLDATALOAD SWAP2 POP PUSH1 0x60 DUP6 ADD CALLDATALOAD PUSH8 0xFFFFFFFFFFFFFFFF DUP1 DUP3 GT ISZERO PUSH2 0x133C JUMPI PUSH1 0x0 DUP1 REVERT JUMPDEST DUP2 DUP8 ADD SWAP2 POP DUP8 PUSH1 0x1F DUP4 ADD SLT PUSH2 0x1350 JUMPI PUSH1 0x0 DUP1 REVERT JUMPDEST DUP2 CALLDATALOAD DUP2 DUP2 GT ISZERO PUSH2 0x1362 JUMPI PUSH2 0x1362 PUSH2 0x12D5 JUMP JUMPDEST PUSH1 0x40 MLOAD PUSH1 0x1F DUP3 ADD PUSH1 0x1F NOT SWAP1 DUP2 AND PUSH1 0x3F ADD AND DUP2 ADD SWAP1 DUP4 DUP3 GT DUP2 DUP4 LT OR ISZERO PUSH2 0x138A JUMPI PUSH2 0x138A PUSH2 0x12D5 JUMP JUMPDEST DUP2 PUSH1 0x40 MSTORE DUP3 DUP2 MSTORE DUP11 PUSH1 0x20 DUP5 DUP8 ADD ADD GT ISZERO PUSH2 0x13A3 JUMPI PUSH1 0x0 DUP1 REVERT JUMPDEST DUP3 PUSH1 0x20 DUP7 ADD PUSH1 0x20 DUP4 ADD CALLDATACOPY PUSH1 0x0 PUSH1 0x20 DUP5 DUP4 ADD ADD MSTORE DUP1 SWAP6 POP POP POP POP POP POP SWAP3 SWAP6 SWAP2 SWAP5 POP SWAP3 POP JUMP JUMPDEST PUSH1 0x0 DUP1 PUSH1 0x40 DUP4 DUP6 SUB SLT ISZERO PUSH2 0x13DA JUMPI PUSH1 0x0 DUP1 REVERT JUMPDEST PUSH2 0x13E3 DUP4 PUSH2 0x1201 JUMP JUMPDEST SWAP2 POP PUSH2 0x13F1 PUSH1 0x20 DUP5 ADD PUSH2 0x1201 JUMP JUMPDEST SWAP1 POP SWAP3 POP SWAP3 SWAP1 POP JUMP JUMPDEST PUSH1 0x1 DUP2 DUP2 SHR SWAP1 DUP3 AND DUP1 PUSH2 0x140E JUMPI PUSH1 0x7F DUP3 AND SWAP2 POP JUMPDEST PUSH1 0x20 DUP3 LT DUP2 SUB PUSH2 0x142E JUMPI PUSH4 0x4E487B71 PUSH1 0xE0 SHL PUSH1 0x0 MSTORE PUSH1 0x22 PUSH1 0x4 MSTORE PUSH1 0x24 PUSH1 0x0 REVERT JUMPDEST POP SWAP2 SWAP1 POP JUMP JUMPDEST PUSH1 0x20 DUP1 DUP3 MSTORE PUSH1 0x2D SWAP1 DUP3 ADD MSTORE PUSH32 0x4552433732313A2063616C6C6572206973206E6F7420746F6B656E206F776E65 PUSH1 0x40 DUP3 ADD MSTORE PUSH13 0x1C881BDC88185C1C1C9BDD9959 PUSH1 0x9A SHL PUSH1 0x60 DUP3 ADD MSTORE PUSH1 0x80 ADD SWAP1 JUMP JUMPDEST PUSH1 0x20 DUP1 DUP3 MSTORE PUSH1 0x27 SWAP1 DUP3 ADD MSTORE PUSH32 0x4F776E61626C653A2063616C6C6572206D757374206265207468652044656765 PUSH1 0x40 DUP3 ADD MSTORE PUSH7 0x3726B0B9BA32B9 PUSH1 0xC9 SHL PUSH1 0x60 DUP3 ADD MSTORE PUSH1 0x80 ADD SWAP1 JUMP JUMPDEST PUSH1 0x0 DUP3 PUSH2 0x14E5 JUMPI PUSH4 0x4E487B71 PUSH1 0xE0 SHL PUSH1 0x0 MSTORE PUSH1 0x12 PUSH1 0x4 MSTORE PUSH1 0x24 PUSH1 0x0 REVERT JUMPDEST POP MOD SWAP1 JUMP JUMPDEST PUSH4 0x4E487B71 PUSH1 0xE0 SHL PUSH1 0x0 MSTORE PUSH1 0x32 PUSH1 0x4 MSTORE PUSH1 0x24 PUSH1 0x0 REVERT JUMPDEST PUSH1 0x0 DUP4 MLOAD PUSH2 0x1512 DUP2 DUP5 PUSH1 0x20 DUP9 ADD PUSH2 0x1185 JUMP JUMPDEST DUP4 MLOAD SWAP1 DUP4 ADD SWAP1 PUSH2 0x1526 DUP2 DUP4 PUSH1 0x20 DUP9 ADD PUSH2 0x1185 JUMP JUMPDEST ADD SWAP5 SWAP4 POP POP POP POP JUMP JUMPDEST PUSH1 0x20 DUP1 DUP3 MSTORE PUSH1 0x25 SWAP1 DUP3 ADD MSTORE PUSH32 0x4552433732313A207472616E736665722066726F6D20696E636F727265637420 PUSH1 0x40 DUP3 ADD MSTORE PUSH5 0x37BBB732B9 PUSH1 0xD9 SHL PUSH1 0x60 DUP3 ADD MSTORE PUSH1 0x80 ADD SWAP1 JUMP JUMPDEST PUSH1 0x20 DUP1 DUP3 MSTORE PUSH1 0x32 SWAP1 DUP3 ADD MSTORE PUSH32 0x4552433732313A207472616E7366657220746F206E6F6E204552433732315265 PUSH1 0x40 DUP3 ADD MSTORE PUSH18 0x31B2B4BB32B91034B6B83632B6B2B73A32B9 PUSH1 0x71 SHL PUSH1 0x60 DUP3 ADD MSTORE PUSH1 0x80 ADD SWAP1 JUMP JUMPDEST PUSH1 0x1 PUSH1 0x1 PUSH1 0xA0 SHL SUB DUP6 DUP2 AND DUP3 MSTORE DUP5 AND PUSH1 0x20 DUP3 ADD MSTORE PUSH1 0x40 DUP2 ADD DUP4 SWAP1 MSTORE PUSH1 0x80 PUSH1 0x60 DUP3 ADD DUP2 SWAP1 MSTORE PUSH1 0x0 SWAP1 PUSH2 0x15F9 SWAP1 DUP4 ADD DUP5 PUSH2 0x11A9 JUMP JUMPDEST SWAP7 SWAP6 POP POP POP POP POP POP JUMP JUMPDEST PUSH1 0x0 PUSH1 0x20 DUP3 DUP5 SUB SLT ISZERO PUSH2 0x1615 JUMPI PUSH1 0x0 DUP1 REVERT JUMPDEST DUP2 MLOAD PUSH2 0x117E DUP2 PUSH2 0x114B JUMP INVALID LOG2 PUSH5 0x6970667358 0x22 SLT KECCAK256 SHR 0xB2 GASPRICE SIGNEXTEND PUSH22 0xB7F85CCEFC8DCE4917C526A20E5323E2AD5328DE6DE1 0xF8 PUSH9 0x9CAF6F64736F6C6343 STOP ADDMOD SLT STOP CALLER MLOAD PUSH14 0x5737376144784E69625173374153 PUSH16 0x44554D4A725545446833426F57595533 COINBASE SLOAD PUSH5 0x7459394377 MLOAD GAS MSIZE PUSH4 0x62516D56 PUSH25 0x44374C4B536E4475673747446B546E6D4E74366A6B5A734137 PUSH27 0x5A50486D684E64695A6473436F6D356E516D586B7942534A514338 ORIGIN PUSH6 0x6D675A596D6E CALLDATALOAD 0x4E PUSH20 0x6F74635732564D39704E6D4359426A4B534B7043 PUSH21 0x46514C516D5265325264716E4C6E564C5933527A50 PUSH8 0x323346504544744D CALLDATALOAD PREVRANDAO PUSH11 0x5A53384C4D6237566B4558 PUSH24 0x594B35580000000000000000000000000000000000000000 "
		},
		"gasEstimates": {
			"creation": {
				"codeDepositCost": "3024800",
				"executionCost": "infinite",
				"totalCost": "infinite"
			},
			"external": {
				"createGroup(string,uint256)": "infinite",
				"createTask(string,uint256,uint256)": "infinite",
				"endTask(uint256)": "infinite",
				"getCurrentJoinGroupIncome(uint256,uint256)": "infinite",
				"getCurrentJoinGroupNFTMintFee(uint256)": "infinite",
				"getCurrentJoinGroupPrice(uint256,uint256)": "infinite",
				"getGroupCreateFee()": "infinite",
				"getGroupCreateNFTMintFee()": "infinite",
				"getGroupCreateTimeStamp(uint256,uint256)": "2572",
				"getGroupLeaderAddr(uint256,uint256)": "2667",
				"getGroupName(uint256,uint256)": "infinite",
				"getGroupPeopleNum(uint256,uint256)": "2633",
				"getNextJoinGroupIncome(uint256,uint256)": "9430",
				"getTaskAllGroupIds(uint256)": "infinite",
				"getTaskCreateFee()": "infinite",
				"getTaskFirstSecondGroup(uint256)": "infinite",
				"getTaskGroupNum(uint256)": "2501",
				"getTaskName(uint256)": "infinite",
				"getTaskNewestGroupId(uint256)": "infinite",
				"getTaskPeopleNum(uint256)": "2472",
				"getTaskRewardPool(uint256)": "2543",
				"getTaskUniquePeopleNum(uint256)": "infinite",
				"getTokenId2Reward(uint256)": "2495",
				"isGroupActive(uint256,uint256)": "9332",
				"isTaskActive(uint256)": "6961",
				"joinGroup(uint256,uint256)": "infinite",
				"nftTransferModifyStatus(address,address,uint256)": "infinite",
				"payReward(uint256,address)": "infinite",
				"playerAddr2TaskIdsGroupIdsTokenIds(address)": "infinite"
			},
			"internal": {
				"groupCompare(uint256,uint256,uint256,uint256)": "113"
			}
		},
		"methodIdentifiers": {
			"createGroup(string,uint256)": "e367fc6a",
			"createTask(string,uint256,uint256)": "059378ea",
			"endTask(uint256)": "6115786d",
			"getCurrentJoinGroupIncome(uint256,uint256)": "df05cb95",
			"getCurrentJoinGroupNFTMintFee(uint256)": "6927718a",
			"getCurrentJoinGroupPrice(uint256,uint256)": "a4ea8cb9",
			"getGroupCreateFee()": "cc9a13d1",
			"getGroupCreateNFTMintFee()": "5de274f6",
			"getGroupCreateTimeStamp(uint256,uint256)": "e55756f4",
			"getGroupLeaderAddr(uint256,uint256)": "65919f62",
			"getGroupName(uint256,uint256)": "7c88b116",
			"getGroupPeopleNum(uint256,uint256)": "ac763f3a",
			"getNextJoinGroupIncome(uint256,uint256)": "3461fa18",
			"getTaskAllGroupIds(uint256)": "a4ed1172",
			"getTaskCreateFee()": "aba67111",
			"getTaskFirstSecondGroup(uint256)": "63141177",
			"getTaskGroupNum(uint256)": "8596206e",
			"getTaskName(uint256)": "56755b13",
			"getTaskNewestGroupId(uint256)": "ef91626f",
			"getTaskPeopleNum(uint256)": "64394496",
			"getTaskRewardPool(uint256)": "f2e99c52",
			"getTaskUniquePeopleNum(uint256)": "8c9463c8",
			"getTokenId2Reward(uint256)": "3fabc760",
			"isGroupActive(uint256,uint256)": "e8779f87",
			"isTaskActive(uint256)": "ce523bb4",
			"joinGroup(uint256,uint256)": "1a0c750c",
			"nftTransferModifyStatus(address,address,uint256)": "4965f525",
			"payReward(uint256,address)": "6515d6c1",
			"playerAddr2TaskIdsGroupIdsTokenIds(address)": "11e3f178"
		}
	},
	"abi": [
		{
			"inputs": [],
			"stateMutability": "nonpayable",
			"type": "constructor"
		},
		{
			"anonymous": false,
			"inputs": [
				{
					"indexed": true,
					"internalType": "address",
					"name": "nftAddr",
					"type": "address"
				}
			],
			"name": "onConstruction",
			"type": "event"
		},
		{
			"anonymous": false,
			"inputs": [
				{
					"indexed": true,
					"internalType": "uint256",
					"name": "affiliateTaskID",
					"type": "uint256"
				},
				{
					"indexed": true,
					"internalType": "uint256",
					"name": "groupId",
					"type": "uint256"
				},
				{
					"indexed": false,
					"internalType": "address",
					"name": "ownerAddress",
					"type": "address"
				},
				{
					"indexed": false,
					"internalType": "string",
					"name": "groupName",
					"type": "string"
				},
				{
					"indexed": false,
					"internalType": "string",
					"name": "ownerName",
					"type": "string"
				},
				{
					"indexed": false,
					"internalType": "uint256",
					"name": "timestamp",
					"type": "uint256"
				}
			],
			"name": "onCreateNewGroup",
			"type": "event"
		},
		{
			"anonymous": false,
			"inputs": [
				{
					"indexed": true,
					"internalType": "uint256",
					"name": "taskId",
					"type": "uint256"
				},
				{
					"indexed": true,
					"internalType": "address",
					"name": "ownerAddress",
					"type": "address"
				},
				{
					"indexed": true,
					"internalType": "string",
					"name": "ownerName",
					"type": "string"
				},
				{
					"indexed": false,
					"internalType": "uint256",
					"name": "amountPaid",
					"type": "uint256"
				},
				{
					"indexed": false,
					"internalType": "uint256",
					"name": "createTimeStamp",
					"type": "uint256"
				},
				{
					"indexed": false,
					"internalType": "uint256",
					"name": "taskStartStamp",
					"type": "uint256"
				},
				{
					"indexed": false,
					"internalType": "uint256",
					"name": "taskEndStamp",
					"type": "uint256"
				}
			],
			"name": "onCreateNewTask",
			"type": "event"
		},
		{
			"anonymous": false,
			"inputs": [
				{
					"indexed": true,
					"internalType": "uint256",
					"name": "affiliateTaskID",
					"type": "uint256"
				},
				{
					"indexed": true,
					"internalType": "uint256",
					"name": "groupId",
					"type": "uint256"
				},
				{
					"indexed": false,
					"internalType": "address",
					"name": "playerAddress",
					"type": "address"
				},
				{
					"indexed": false,
					"internalType": "string",
					"name": "playerName",
					"type": "string"
				},
				{
					"indexed": false,
					"internalType": "uint256",
					"name": "amountPaid",
					"type": "uint256"
				},
				{
					"indexed": false,
					"internalType": "uint256",
					"name": "timestamp",
					"type": "uint256"
				}
			],
			"name": "onJoinGroup",
			"type": "event"
		},
		{
			"anonymous": false,
			"inputs": [
				{
					"indexed": true,
					"internalType": "uint256",
					"name": "affiliateTaskID",
					"type": "uint256"
				},
				{
					"indexed": true,
					"internalType": "uint256",
					"name": "groupId",
					"type": "uint256"
				},
				{
					"indexed": false,
					"internalType": "address",
					"name": "from",
					"type": "address"
				},
				{
					"indexed": false,
					"internalType": "address",
					"name": "to",
					"type": "address"
				},
				{
					"indexed": false,
					"internalType": "uint256",
					"name": "tokenId",
					"type": "uint256"
				},
				{
					"indexed": false,
					"internalType": "uint256",
					"name": "timestamp",
					"type": "uint256"
				}
			],
			"name": "onNFTTraded",
			"type": "event"
		},
		{
			"inputs": [
				{
					"internalType": "string",
					"name": "groupName",
					"type": "string"
				},
				{
					"internalType": "uint256",
					"name": "affiliateTaskID",
					"type": "uint256"
				}
			],
			"name": "createGroup",
			"outputs": [
				{
					"internalType": "uint256",
					"name": "",
					"type": "uint256"
				}
			],
			"stateMutability": "payable",
			"type": "function"
		},
		{
			"inputs": [
				{
					"internalType": "string",
					"name": "taskName",
					"type": "string"
				},
				{
					"internalType": "uint256",
					"name": "taskStartStamp",
					"type": "uint256"
				},
				{
					"internalType": "uint256",
					"name": "taskEndStamp",
					"type": "uint256"
				}
			],
			"name": "createTask",
			"outputs": [
				{
					"internalType": "uint256",
					"name": "",
					"type": "uint256"
				}
			],
			"stateMutability": "payable",
			"type": "function"
		},
		{
			"inputs": [
				{
					"internalType": "uint256",
					"name": "taskId",
					"type": "uint256"
				}
			],
			"name": "endTask",
			"outputs": [],
			"stateMutability": "nonpayable",
			"type": "function"
		},
		{
			"inputs": [
				{
					"internalType": "uint256",
					"name": "taskId",
					"type": "uint256"
				},
				{
					"internalType": "uint256",
					"name": "groupId",
					"type": "uint256"
				}
			],
			"name": "getCurrentJoinGroupIncome",
			"outputs": [
				{
					"internalType": "uint256",
					"name": "",
					"type": "uint256"
				}
			],
			"stateMutability": "view",
			"type": "function"
		},
		{
			"inputs": [
				{
					"internalType": "uint256",
					"name": "ticketPrice",
					"type": "uint256"
				}
			],
			"name": "getCurrentJoinGroupNFTMintFee",
			"outputs": [
				{
					"internalType": "uint256",
					"name": "",
					"type": "uint256"
				}
			],
			"stateMutability": "pure",
			"type": "function"
		},
		{
			"inputs": [
				{
					"internalType": "uint256",
					"name": "taskId",
					"type": "uint256"
				},
				{
					"internalType": "uint256",
					"name": "groupId",
					"type": "uint256"
				}
			],
			"name": "getCurrentJoinGroupPrice",
			"outputs": [
				{
					"internalType": "uint256",
					"name": "",
					"type": "uint256"
				}
			],
			"stateMutability": "view",
			"type": "function"
		},
		{
			"inputs": [],
			"name": "getGroupCreateFee",
			"outputs": [
				{
					"internalType": "uint256",
					"name": "",
					"type": "uint256"
				}
			],
			"stateMutability": "pure",
			"type": "function"
		},
		{
			"inputs": [],
			"name": "getGroupCreateNFTMintFee",
			"outputs": [
				{
					"internalType": "uint256",
					"name": "",
					"type": "uint256"
				}
			],
			"stateMutability": "pure",
			"type": "function"
		},
		{
			"inputs": [
				{
					"internalType": "uint256",
					"name": "taskId",
					"type": "uint256"
				},
				{
					"internalType": "uint256",
					"name": "groupId",
					"type": "uint256"
				}
			],
			"name": "getGroupCreateTimeStamp",
			"outputs": [
				{
					"internalType": "uint256",
					"name": "",
					"type": "uint256"
				}
			],
			"stateMutability": "view",
			"type": "function"
		},
		{
			"inputs": [
				{
					"internalType": "uint256",
					"name": "taskId",
					"type": "uint256"
				},
				{
					"internalType": "uint256",
					"name": "groupId",
					"type": "uint256"
				}
			],
			"name": "getGroupLeaderAddr",
			"outputs": [
				{
					"internalType": "address",
					"name": "",
					"type": "address"
				}
			],
			"stateMutability": "view",
			"type": "function"
		},
		{
			"inputs": [
				{
					"internalType": "uint256",
					"name": "taskId",
					"type": "uint256"
				},
				{
					"internalType": "uint256",
					"name": "groupId",
					"type": "uint256"
				}
			],
			"name": "getGroupName",
			"outputs": [
				{
					"internalType": "string",
					"name": "",
					"type": "string"
				}
			],
			"stateMutability": "view",
			"type": "function"
		},
		{
			"inputs": [
				{
					"internalType": "uint256",
					"name": "taskId",
					"type": "uint256"
				},
				{
					"internalType": "uint256",
					"name": "groupId",
					"type": "uint256"
				}
			],
			"name": "getGroupPeopleNum",
			"outputs": [
				{
					"internalType": "uint256",
					"name": "num",
					"type": "uint256"
				}
			],
			"stateMutability": "view",
			"type": "function"
		},
		{
			"inputs": [
				{
					"internalType": "uint256",
					"name": "taskId",
					"type": "uint256"
				},
				{
					"internalType": "uint256",
					"name": "groupId",
					"type": "uint256"
				}
			],
			"name": "getNextJoinGroupIncome",
			"outputs": [
				{
					"internalType": "uint256",
					"name": "",
					"type": "uint256"
				}
			],
			"stateMutability": "view",
			"type": "function"
		},
		{
			"inputs": [
				{
					"internalType": "uint256",
					"name": "taskId",
					"type": "uint256"
				}
			],
			"name": "getTaskAllGroupIds",
			"outputs": [
				{
					"internalType": "uint256[]",
					"name": "",
					"type": "uint256[]"
				}
			],
			"stateMutability": "view",
			"type": "function"
		},
		{
			"inputs": [],
			"name": "getTaskCreateFee",
			"outputs": [
				{
					"internalType": "uint256",
					"name": "",
					"type": "uint256"
				}
			],
			"stateMutability": "pure",
			"type": "function"
		},
		{
			"inputs": [
				{
					"internalType": "uint256",
					"name": "taskId",
					"type": "uint256"
				}
			],
			"name": "getTaskFirstSecondGroup",
			"outputs": [
				{
					"internalType": "int256",
					"name": "firstGrpId",
					"type": "int256"
				},
				{
					"internalType": "int256",
					"name": "secondGrpId",
					"type": "int256"
				},
				{
					"internalType": "uint256",
					"name": "firstGrpPeopleNum",
					"type": "uint256"
				},
				{
					"internalType": "uint256",
					"name": "secondGrpPeopleNum",
					"type": "uint256"
				}
			],
			"stateMutability": "view",
			"type": "function"
		},
		{
			"inputs": [
				{
					"internalType": "uint256",
					"name": "taskId",
					"type": "uint256"
				}
			],
			"name": "getTaskGroupNum",
			"outputs": [
				{
					"internalType": "uint256",
					"name": "num",
					"type": "uint256"
				}
			],
			"stateMutability": "view",
			"type": "function"
		},
		{
			"inputs": [
				{
					"internalType": "uint256",
					"name": "taskId",
					"type": "uint256"
				}
			],
			"name": "getTaskName",
			"outputs": [
				{
					"internalType": "string",
					"name": "",
					"type": "string"
				}
			],
			"stateMutability": "view",
			"type": "function"
		},
		{
			"inputs": [
				{
					"internalType": "uint256",
					"name": "taskId",
					"type": "uint256"
				}
			],
			"name": "getTaskNewestGroupId",
			"outputs": [
				{
					"internalType": "uint256",
					"name": "",
					"type": "uint256"
				}
			],
			"stateMutability": "view",
			"type": "function"
		},
		{
			"inputs": [
				{
					"internalType": "uint256",
					"name": "taskId",
					"type": "uint256"
				}
			],
			"name": "getTaskPeopleNum",
			"outputs": [
				{
					"internalType": "uint256",
					"name": "num",
					"type": "uint256"
				}
			],
			"stateMutability": "view",
			"type": "function"
		},
		{
			"inputs": [
				{
					"internalType": "uint256",
					"name": "taskId",
					"type": "uint256"
				}
			],
			"name": "getTaskRewardPool",
			"outputs": [
				{
					"internalType": "uint256",
					"name": "totalReward",
					"type": "uint256"
				}
			],
			"stateMutability": "view",
			"type": "function"
		},
		{
			"inputs": [
				{
					"internalType": "uint256",
					"name": "taskId",
					"type": "uint256"
				}
			],
			"name": "getTaskUniquePeopleNum",
			"outputs": [
				{
					"internalType": "uint256",
					"name": "num",
					"type": "uint256"
				}
			],
			"stateMutability": "nonpayable",
			"type": "function"
		},
		{
			"inputs": [
				{
					"internalType": "uint256",
					"name": "tokenId",
					"type": "uint256"
				}
			],
			"name": "getTokenId2Reward",
			"outputs": [
				{
					"internalType": "uint256",
					"name": "reward",
					"type": "uint256"
				}
			],
			"stateMutability": "view",
			"type": "function"
		},
		{
			"inputs": [
				{
					"internalType": "uint256",
					"name": "taskId",
					"type": "uint256"
				},
				{
					"internalType": "uint256",
					"name": "groupId",
					"type": "uint256"
				}
			],
			"name": "isGroupActive",
			"outputs": [
				{
					"internalType": "bool",
					"name": "",
					"type": "bool"
				}
			],
			"stateMutability": "view",
			"type": "function"
		},
		{
			"inputs": [
				{
					"internalType": "uint256",
					"name": "taskId",
					"type": "uint256"
				}
			],
			"name": "isTaskActive",
			"outputs": [
				{
					"internalType": "bool",
					"name": "isAct",
					"type": "bool"
				}
			],
			"stateMutability": "view",
			"type": "function"
		},
		{
			"inputs": [
				{
					"internalType": "uint256",
					"name": "groupId",
					"type": "uint256"
				},
				{
					"internalType": "uint256",
					"name": "affiliateTaskID",
					"type": "uint256"
				}
			],
			"name": "joinGroup",
			"outputs": [
				{
					"internalType": "uint256",
					"name": "",
					"type": "uint256"
				}
			],
			"stateMutability": "payable",
			"type": "function"
		},
		{
			"inputs": [
				{
					"internalType": "address",
					"name": "from",
					"type": "address"
				},
				{
					"internalType": "address",
					"name": "to",
					"type": "address"
				},
				{
					"internalType": "uint256",
					"name": "tokenId",
					"type": "uint256"
				}
			],
			"name": "nftTransferModifyStatus",
			"outputs": [],
			"stateMutability": "nonpayable",
			"type": "function"
		},
		{
			"inputs": [
				{
					"internalType": "uint256",
					"name": "tokenId",
					"type": "uint256"
				},
				{
					"internalType": "address",
					"name": "player",
					"type": "address"
				}
			],
			"name": "payReward",
			"outputs": [],
			"stateMutability": "nonpayable",
			"type": "function"
		},
		{
			"inputs": [
				{
					"internalType": "address",
					"name": "playerAddr",
					"type": "address"
				}
			],
			"name": "playerAddr2TaskIdsGroupIdsTokenIds",
			"outputs": [
				{
					"internalType": "uint256[]",
					"name": "",
					"type": "uint256[]"
				},
				{
					"internalType": "uint256[]",
					"name": "",
					"type": "uint256[]"
				},
				{
					"internalType": "uint256[]",
					"name": "",
					"type": "uint256[]"
				}
			],
			"stateMutability": "view",
			"type": "function"
		}
	]
}