{
	"data": {
		"bytecode": {
			"linkReferences": {},
			"object": "610c6161003a600b82828239805160001a60731461002d57634e487b7160e01b600052600060045260246000fd5b30600052607381538281f3fe73000000000000000000000000000000000000000030146080604052600436106100925760003560e01c806391096a3c1161006557806391096a3c146100e85780639b49380b146100f2578063beb19a2114610105578063e6ca2a8d1461011857600080fd5b806326d0a334146100975780632e26fb4a146100af5780633ed12ab7146100c257806384105419146100d5575b600080fd5b6302faf0805b60405190815260200160405180910390f35b61009d6100bd3660046109e6565b61012b565b61009d6100d03660046109ff565b61019a565b61009d6100e33660046109ff565b61025f565b633b9aca0061009d565b61009d610100366004610a21565b610347565b61009d6101133660046109e6565b61086c565b61009d6101263660046109e6565b6108cb565b6000808061013a84601e61092b565b9092509050816101655760405162461bcd60e51b815260040161015c90610a64565b60405180910390fd5b610171816103e8610976565b9092509050816101935760405162461bcd60e51b815260040161015c90610a64565b9392505050565b60008080806101ac6103e860c86109a9565b9093509050826101ce5760405162461bcd60e51b815260040161015c90610aa8565b6101d8868261092b565b9093509150826101fa5760405162461bcd60e51b815260040161015c90610aa8565b610206826103e8610976565b9093509150826102285760405162461bcd60e51b815260040161015c90610aa8565b6102328286610976565b9093509150826102545760405162461bcd60e51b815260040161015c90610aa8565b509150505b92915050565b60008080806102716103e8601e6109a9565b9093509050826102935760405162461bcd60e51b815260040161015c90610aea565b61029f816102586109a9565b9093509050826102c15760405162461bcd60e51b815260040161015c90610aea565b6102cb868261092b565b9093509150826102ed5760405162461bcd60e51b815260040161015c90610aea565b6102f9826103e8610976565b90935091508261031b5760405162461bcd60e51b815260040161015c90610aea565b6103258286610976565b9093509150826102545760405162461bcd60e51b815260040161015c90610aea565b600060018060005b60028110156103dc57610362828b61092b565b9093509150826103ca576040805162461bcd60e51b8152602060048201526024810191909152600080516020610c0c83398151915260448201527f756c617465207469636b657420707269636520696e20692a2a5f616c7068612e606482015260840161015c565b806103d481610b44565b91505061034f565b506103e881600a61092b565b90925090508161045d5760405162461bcd60e51b81526020600482015260466024820152600080516020610c0c83398151915260448201527f756c617465207469636b657420707269636520696e205f626574612a692a2a5f60648201526530b63834309760d11b608482015260a40161015c565b61046a81620f424061092b565b9092509050816104f65760405162461bcd60e51b815260206004820152605e6024820152600080516020610c0c83398151915260448201527f756c617465207469636b657420707269636520696e20285f626574612f5f646560648201527f6e6f6d696e61746f722a692a2a5f616c706861292a5f646563696d616c2e0000608482015260a40161015c565b610502816103e8610976565b9092509050816105845760405162461bcd60e51b81526020600482015260536024820152600080516020610c0c83398151915260448201527f756c617465207469636b657420707269636520696e205f626574612f5f64656e60648201527237b6b4b730ba37b9153495152fb0b63834309760691b608482015260a40161015c565b61059181624c4b406109cb565b90925090508161061d5760405162461bcd60e51b815260206004820152605b6024820152600080516020610c0c83398151915260448201527f756c617465207469636b657420707269636520696e205f626574612f5f64656e60648201527f6f6d696e61746f722a692a2a5f616c706861202b2067616d6d612e0000000000608482015260a40161015c565b6000808812158015610630575060008712155b1561065757600a6106418688610b5d565b111561064f57506001610682565b506000610682565b600088121580156106685750600087125b1561067e57600a86111561064f57506001610682565b5060005b801561085f5760006106958a606461092b565b9094509050836107295760405162461bcd60e51b815260206004820152605360248201527f4e756d626572206f766572666c6f77206f6363757273207768656e2028666c6160448201527f672c20657874726146656529203d20536166654d6174682e7472794d756c28746064820152726f74616c526577617264506f6f6c2c205f702960681b608482015260a40161015c565b610735816103e8610976565b9094509050836107cc5760405162461bcd60e51b815260206004820152605660248201527f4e756d626572206f766572666c6f77206f6363757273207768656e2028666c6160448201527f672c20657874726146656529203d20536166654d6174682e7472794469762865606482015275787472614665652c205f64656e6f6d696e61746f722960501b608482015260a40161015c565b6107d683826109cb565b90945092508361085d5760405162461bcd60e51b815260206004820152604660248201527f4e756d626572206f766572666c6f77206f6363757273207768656e2028666c6160448201527f672c20747029203d20536166654d6174682e7472794164642874702c2065787460648201526572614665652960d01b608482015260a40161015c565b505b5098975050505050505050565b6000808061087b8460c861092b565b90925090508161089d5760405162461bcd60e51b815260040161015c90610b70565b6108a9816103e8610976565b9092509050816101935760405162461bcd60e51b815260040161015c90610b70565b600080806108db8461025861092b565b9092509050816108fd5760405162461bcd60e51b815260040161015c90610bb2565b610909816103e8610976565b9092509050816101935760405162461bcd60e51b815260040161015c90610bb2565b60008083600003610942575060019050600061096f565b8383028385828161095557610955610bf5565b041461096857600080925092505061096f565b6001925090505b9250929050565b6000808260000361098c5750600090508061096f565b600183858161099d5761099d610bf5565b04915091509250929050565b600080838311156109bf5750600090508061096f565b50600193919092039150565b6000808383018481101561096857600080925092505061096f565b6000602082840312156109f857600080fd5b5035919050565b60008060408385031215610a1257600080fd5b50508035926020909101359150565b60008060008060008060c08789031215610a3a57600080fd5b505084359660208601359650604086013595606081013595506080810135945060a0013592509050565b60208082526024908201527f5b7469636b6574496e636f6d653247726f75704c65616465725d206f766572666040820152633637bb9760e11b606082015260800190565b60208082526022908201527f5b726577617264506f6f6c3247726f75704d656d6265725d206f766572666c6f6040820152613b9760f11b606082015260800190565b60208082526024908201527f5b7469636b6574496e636f6d653247726f75704d656d6265725d206f766572666040820152633637bb9760e11b606082015260800190565b634e487b7160e01b600052601160045260246000fd5b600060018201610b5657610b56610b2e565b5060010190565b8181038181111561025957610259610b2e565b60208082526022908201527f5b726577617264506f6f6c3247726f75704c65616465725d206f766572666c6f6040820152613b9760f11b606082015260800190565b60208082526023908201527f5b7469636b6574496e636f6d6532526577617264506f6f6c5d206f766572666c60408201526237bb9760e91b606082015260800190565b634e487b7160e01b600052601260045260246000fdfe4e756d626572206f766572666c6f77206f6363757273207768656e2063616c63a2646970667358221220035a0fdc8382abd79f5a5fa86c255ffcb01ef6f3952e1d11ab0c25195284782364736f6c63430008120033",
			"opcodes": "PUSH2 0xC61 PUSH2 0x3A PUSH1 0xB DUP3 DUP3 DUP3 CODECOPY DUP1 MLOAD PUSH1 0x0 BYTE PUSH1 0x73 EQ PUSH2 0x2D JUMPI PUSH4 0x4E487B71 PUSH1 0xE0 SHL PUSH1 0x0 MSTORE PUSH1 0x0 PUSH1 0x4 MSTORE PUSH1 0x24 PUSH1 0x0 REVERT JUMPDEST ADDRESS PUSH1 0x0 MSTORE PUSH1 0x73 DUP2 MSTORE8 DUP3 DUP2 RETURN INVALID PUSH20 0x0 ADDRESS EQ PUSH1 0x80 PUSH1 0x40 MSTORE PUSH1 0x4 CALLDATASIZE LT PUSH2 0x92 JUMPI PUSH1 0x0 CALLDATALOAD PUSH1 0xE0 SHR DUP1 PUSH4 0x91096A3C GT PUSH2 0x65 JUMPI DUP1 PUSH4 0x91096A3C EQ PUSH2 0xE8 JUMPI DUP1 PUSH4 0x9B49380B EQ PUSH2 0xF2 JUMPI DUP1 PUSH4 0xBEB19A21 EQ PUSH2 0x105 JUMPI DUP1 PUSH4 0xE6CA2A8D EQ PUSH2 0x118 JUMPI PUSH1 0x0 DUP1 REVERT JUMPDEST DUP1 PUSH4 0x26D0A334 EQ PUSH2 0x97 JUMPI DUP1 PUSH4 0x2E26FB4A EQ PUSH2 0xAF JUMPI DUP1 PUSH4 0x3ED12AB7 EQ PUSH2 0xC2 JUMPI DUP1 PUSH4 0x84105419 EQ PUSH2 0xD5 JUMPI JUMPDEST PUSH1 0x0 DUP1 REVERT JUMPDEST PUSH4 0x2FAF080 JUMPDEST PUSH1 0x40 MLOAD SWAP1 DUP2 MSTORE PUSH1 0x20 ADD PUSH1 0x40 MLOAD DUP1 SWAP2 SUB SWAP1 RETURN JUMPDEST PUSH2 0x9D PUSH2 0xBD CALLDATASIZE PUSH1 0x4 PUSH2 0x9E6 JUMP JUMPDEST PUSH2 0x12B JUMP JUMPDEST PUSH2 0x9D PUSH2 0xD0 CALLDATASIZE PUSH1 0x4 PUSH2 0x9FF JUMP JUMPDEST PUSH2 0x19A JUMP JUMPDEST PUSH2 0x9D PUSH2 0xE3 CALLDATASIZE PUSH1 0x4 PUSH2 0x9FF JUMP JUMPDEST PUSH2 0x25F JUMP JUMPDEST PUSH4 0x3B9ACA00 PUSH2 0x9D JUMP JUMPDEST PUSH2 0x9D PUSH2 0x100 CALLDATASIZE PUSH1 0x4 PUSH2 0xA21 JUMP JUMPDEST PUSH2 0x347 JUMP JUMPDEST PUSH2 0x9D PUSH2 0x113 CALLDATASIZE PUSH1 0x4 PUSH2 0x9E6 JUMP JUMPDEST PUSH2 0x86C JUMP JUMPDEST PUSH2 0x9D PUSH2 0x126 CALLDATASIZE PUSH1 0x4 PUSH2 0x9E6 JUMP JUMPDEST PUSH2 0x8CB JUMP JUMPDEST PUSH1 0x0 DUP1 DUP1 PUSH2 0x13A DUP5 PUSH1 0x1E PUSH2 0x92B JUMP JUMPDEST SWAP1 SWAP3 POP SWAP1 POP DUP2 PUSH2 0x165 JUMPI PUSH1 0x40 MLOAD PUSH3 0x461BCD PUSH1 0xE5 SHL DUP2 MSTORE PUSH1 0x4 ADD PUSH2 0x15C SWAP1 PUSH2 0xA64 JUMP JUMPDEST PUSH1 0x40 MLOAD DUP1 SWAP2 SUB SWAP1 REVERT JUMPDEST PUSH2 0x171 DUP2 PUSH2 0x3E8 PUSH2 0x976 JUMP JUMPDEST SWAP1 SWAP3 POP SWAP1 POP DUP2 PUSH2 0x193 JUMPI PUSH1 0x40 MLOAD PUSH3 0x461BCD PUSH1 0xE5 SHL DUP2 MSTORE PUSH1 0x4 ADD PUSH2 0x15C SWAP1 PUSH2 0xA64 JUMP JUMPDEST SWAP4 SWAP3 POP POP POP JUMP JUMPDEST PUSH1 0x0 DUP1 DUP1 DUP1 PUSH2 0x1AC PUSH2 0x3E8 PUSH1 0xC8 PUSH2 0x9A9 JUMP JUMPDEST SWAP1 SWAP4 POP SWAP1 POP DUP3 PUSH2 0x1CE JUMPI PUSH1 0x40 MLOAD PUSH3 0x461BCD PUSH1 0xE5 SHL DUP2 MSTORE PUSH1 0x4 ADD PUSH2 0x15C SWAP1 PUSH2 0xAA8 JUMP JUMPDEST PUSH2 0x1D8 DUP7 DUP3 PUSH2 0x92B JUMP JUMPDEST SWAP1 SWAP4 POP SWAP2 POP DUP3 PUSH2 0x1FA JUMPI PUSH1 0x40 MLOAD PUSH3 0x461BCD PUSH1 0xE5 SHL DUP2 MSTORE PUSH1 0x4 ADD PUSH2 0x15C SWAP1 PUSH2 0xAA8 JUMP JUMPDEST PUSH2 0x206 DUP3 PUSH2 0x3E8 PUSH2 0x976 JUMP JUMPDEST SWAP1 SWAP4 POP SWAP2 POP DUP3 PUSH2 0x228 JUMPI PUSH1 0x40 MLOAD PUSH3 0x461BCD PUSH1 0xE5 SHL DUP2 MSTORE PUSH1 0x4 ADD PUSH2 0x15C SWAP1 PUSH2 0xAA8 JUMP JUMPDEST PUSH2 0x232 DUP3 DUP7 PUSH2 0x976 JUMP JUMPDEST SWAP1 SWAP4 POP SWAP2 POP DUP3 PUSH2 0x254 JUMPI PUSH1 0x40 MLOAD PUSH3 0x461BCD PUSH1 0xE5 SHL DUP2 MSTORE PUSH1 0x4 ADD PUSH2 0x15C SWAP1 PUSH2 0xAA8 JUMP JUMPDEST POP SWAP2 POP POP JUMPDEST SWAP3 SWAP2 POP POP JUMP JUMPDEST PUSH1 0x0 DUP1 DUP1 DUP1 PUSH2 0x271 PUSH2 0x3E8 PUSH1 0x1E PUSH2 0x9A9 JUMP JUMPDEST SWAP1 SWAP4 POP SWAP1 POP DUP3 PUSH2 0x293 JUMPI PUSH1 0x40 MLOAD PUSH3 0x461BCD PUSH1 0xE5 SHL DUP2 MSTORE PUSH1 0x4 ADD PUSH2 0x15C SWAP1 PUSH2 0xAEA JUMP JUMPDEST PUSH2 0x29F DUP2 PUSH2 0x258 PUSH2 0x9A9 JUMP JUMPDEST SWAP1 SWAP4 POP SWAP1 POP DUP3 PUSH2 0x2C1 JUMPI PUSH1 0x40 MLOAD PUSH3 0x461BCD PUSH1 0xE5 SHL DUP2 MSTORE PUSH1 0x4 ADD PUSH2 0x15C SWAP1 PUSH2 0xAEA JUMP JUMPDEST PUSH2 0x2CB DUP7 DUP3 PUSH2 0x92B JUMP JUMPDEST SWAP1 SWAP4 POP SWAP2 POP DUP3 PUSH2 0x2ED JUMPI PUSH1 0x40 MLOAD PUSH3 0x461BCD PUSH1 0xE5 SHL DUP2 MSTORE PUSH1 0x4 ADD PUSH2 0x15C SWAP1 PUSH2 0xAEA JUMP JUMPDEST PUSH2 0x2F9 DUP3 PUSH2 0x3E8 PUSH2 0x976 JUMP JUMPDEST SWAP1 SWAP4 POP SWAP2 POP DUP3 PUSH2 0x31B JUMPI PUSH1 0x40 MLOAD PUSH3 0x461BCD PUSH1 0xE5 SHL DUP2 MSTORE PUSH1 0x4 ADD PUSH2 0x15C SWAP1 PUSH2 0xAEA JUMP JUMPDEST PUSH2 0x325 DUP3 DUP7 PUSH2 0x976 JUMP JUMPDEST SWAP1 SWAP4 POP SWAP2 POP DUP3 PUSH2 0x254 JUMPI PUSH1 0x40 MLOAD PUSH3 0x461BCD PUSH1 0xE5 SHL DUP2 MSTORE PUSH1 0x4 ADD PUSH2 0x15C SWAP1 PUSH2 0xAEA JUMP JUMPDEST PUSH1 0x0 PUSH1 0x1 DUP1 PUSH1 0x0 JUMPDEST PUSH1 0x2 DUP2 LT ISZERO PUSH2 0x3DC JUMPI PUSH2 0x362 DUP3 DUP12 PUSH2 0x92B JUMP JUMPDEST SWAP1 SWAP4 POP SWAP2 POP DUP3 PUSH2 0x3CA JUMPI PUSH1 0x40 DUP1 MLOAD PUSH3 0x461BCD PUSH1 0xE5 SHL DUP2 MSTORE PUSH1 0x20 PUSH1 0x4 DUP3 ADD MSTORE PUSH1 0x24 DUP2 ADD SWAP2 SWAP1 SWAP2 MSTORE PUSH1 0x0 DUP1 MLOAD PUSH1 0x20 PUSH2 0xC0C DUP4 CODECOPY DUP2 MLOAD SWAP2 MSTORE PUSH1 0x44 DUP3 ADD MSTORE PUSH32 0x756C617465207469636B657420707269636520696E20692A2A5F616C7068612E PUSH1 0x64 DUP3 ADD MSTORE PUSH1 0x84 ADD PUSH2 0x15C JUMP JUMPDEST DUP1 PUSH2 0x3D4 DUP2 PUSH2 0xB44 JUMP JUMPDEST SWAP2 POP POP PUSH2 0x34F JUMP JUMPDEST POP PUSH2 0x3E8 DUP2 PUSH1 0xA PUSH2 0x92B JUMP JUMPDEST SWAP1 SWAP3 POP SWAP1 POP DUP2 PUSH2 0x45D JUMPI PUSH1 0x40 MLOAD PUSH3 0x461BCD PUSH1 0xE5 SHL DUP2 MSTORE PUSH1 0x20 PUSH1 0x4 DUP3 ADD MSTORE PUSH1 0x46 PUSH1 0x24 DUP3 ADD MSTORE PUSH1 0x0 DUP1 MLOAD PUSH1 0x20 PUSH2 0xC0C DUP4 CODECOPY DUP2 MLOAD SWAP2 MSTORE PUSH1 0x44 DUP3 ADD MSTORE PUSH32 0x756C617465207469636B657420707269636520696E205F626574612A692A2A5F PUSH1 0x64 DUP3 ADD MSTORE PUSH6 0x30B638343097 PUSH1 0xD1 SHL PUSH1 0x84 DUP3 ADD MSTORE PUSH1 0xA4 ADD PUSH2 0x15C JUMP JUMPDEST PUSH2 0x46A DUP2 PUSH3 0xF4240 PUSH2 0x92B JUMP JUMPDEST SWAP1 SWAP3 POP SWAP1 POP DUP2 PUSH2 0x4F6 JUMPI PUSH1 0x40 MLOAD PUSH3 0x461BCD PUSH1 0xE5 SHL DUP2 MSTORE PUSH1 0x20 PUSH1 0x4 DUP3 ADD MSTORE PUSH1 0x5E PUSH1 0x24 DUP3 ADD MSTORE PUSH1 0x0 DUP1 MLOAD PUSH1 0x20 PUSH2 0xC0C DUP4 CODECOPY DUP2 MLOAD SWAP2 MSTORE PUSH1 0x44 DUP3 ADD MSTORE PUSH32 0x756C617465207469636B657420707269636520696E20285F626574612F5F6465 PUSH1 0x64 DUP3 ADD MSTORE PUSH32 0x6E6F6D696E61746F722A692A2A5F616C706861292A5F646563696D616C2E0000 PUSH1 0x84 DUP3 ADD MSTORE PUSH1 0xA4 ADD PUSH2 0x15C JUMP JUMPDEST PUSH2 0x502 DUP2 PUSH2 0x3E8 PUSH2 0x976 JUMP JUMPDEST SWAP1 SWAP3 POP SWAP1 POP DUP2 PUSH2 0x584 JUMPI PUSH1 0x40 MLOAD PUSH3 0x461BCD PUSH1 0xE5 SHL DUP2 MSTORE PUSH1 0x20 PUSH1 0x4 DUP3 ADD MSTORE PUSH1 0x53 PUSH1 0x24 DUP3 ADD MSTORE PUSH1 0x0 DUP1 MLOAD PUSH1 0x20 PUSH2 0xC0C DUP4 CODECOPY DUP2 MLOAD SWAP2 MSTORE PUSH1 0x44 DUP3 ADD MSTORE PUSH32 0x756C617465207469636B657420707269636520696E205F626574612F5F64656E PUSH1 0x64 DUP3 ADD MSTORE PUSH19 0x37B6B4B730BA37B9153495152FB0B638343097 PUSH1 0x69 SHL PUSH1 0x84 DUP3 ADD MSTORE PUSH1 0xA4 ADD PUSH2 0x15C JUMP JUMPDEST PUSH2 0x591 DUP2 PUSH3 0x4C4B40 PUSH2 0x9CB JUMP JUMPDEST SWAP1 SWAP3 POP SWAP1 POP DUP2 PUSH2 0x61D JUMPI PUSH1 0x40 MLOAD PUSH3 0x461BCD PUSH1 0xE5 SHL DUP2 MSTORE PUSH1 0x20 PUSH1 0x4 DUP3 ADD MSTORE PUSH1 0x5B PUSH1 0x24 DUP3 ADD MSTORE PUSH1 0x0 DUP1 MLOAD PUSH1 0x20 PUSH2 0xC0C DUP4 CODECOPY DUP2 MLOAD SWAP2 MSTORE PUSH1 0x44 DUP3 ADD MSTORE PUSH32 0x756C617465207469636B657420707269636520696E205F626574612F5F64656E PUSH1 0x64 DUP3 ADD MSTORE PUSH32 0x6F6D696E61746F722A692A2A5F616C706861202B2067616D6D612E0000000000 PUSH1 0x84 DUP3 ADD MSTORE PUSH1 0xA4 ADD PUSH2 0x15C JUMP JUMPDEST PUSH1 0x0 DUP1 DUP9 SLT ISZERO DUP1 ISZERO PUSH2 0x630 JUMPI POP PUSH1 0x0 DUP8 SLT ISZERO JUMPDEST ISZERO PUSH2 0x657 JUMPI PUSH1 0xA PUSH2 0x641 DUP7 DUP9 PUSH2 0xB5D JUMP JUMPDEST GT ISZERO PUSH2 0x64F JUMPI POP PUSH1 0x1 PUSH2 0x682 JUMP JUMPDEST POP PUSH1 0x0 PUSH2 0x682 JUMP JUMPDEST PUSH1 0x0 DUP9 SLT ISZERO DUP1 ISZERO PUSH2 0x668 JUMPI POP PUSH1 0x0 DUP8 SLT JUMPDEST ISZERO PUSH2 0x67E JUMPI PUSH1 0xA DUP7 GT ISZERO PUSH2 0x64F JUMPI POP PUSH1 0x1 PUSH2 0x682 JUMP JUMPDEST POP PUSH1 0x0 JUMPDEST DUP1 ISZERO PUSH2 0x85F JUMPI PUSH1 0x0 PUSH2 0x695 DUP11 PUSH1 0x64 PUSH2 0x92B JUMP JUMPDEST SWAP1 SWAP5 POP SWAP1 POP DUP4 PUSH2 0x729 JUMPI PUSH1 0x40 MLOAD PUSH3 0x461BCD PUSH1 0xE5 SHL DUP2 MSTORE PUSH1 0x20 PUSH1 0x4 DUP3 ADD MSTORE PUSH1 0x53 PUSH1 0x24 DUP3 ADD MSTORE PUSH32 0x4E756D626572206F766572666C6F77206F6363757273207768656E2028666C61 PUSH1 0x44 DUP3 ADD MSTORE PUSH32 0x672C20657874726146656529203D20536166654D6174682E7472794D756C2874 PUSH1 0x64 DUP3 ADD MSTORE PUSH19 0x6F74616C526577617264506F6F6C2C205F7029 PUSH1 0x68 SHL PUSH1 0x84 DUP3 ADD MSTORE PUSH1 0xA4 ADD PUSH2 0x15C JUMP JUMPDEST PUSH2 0x735 DUP2 PUSH2 0x3E8 PUSH2 0x976 JUMP JUMPDEST SWAP1 SWAP5 POP SWAP1 POP DUP4 PUSH2 0x7CC JUMPI PUSH1 0x40 MLOAD PUSH3 0x461BCD PUSH1 0xE5 SHL DUP2 MSTORE PUSH1 0x20 PUSH1 0x4 DUP3 ADD MSTORE PUSH1 0x56 PUSH1 0x24 DUP3 ADD MSTORE PUSH32 0x4E756D626572206F766572666C6F77206F6363757273207768656E2028666C61 PUSH1 0x44 DUP3 ADD MSTORE PUSH32 0x672C20657874726146656529203D20536166654D6174682E7472794469762865 PUSH1 0x64 DUP3 ADD MSTORE PUSH22 0x787472614665652C205F64656E6F6D696E61746F7229 PUSH1 0x50 SHL PUSH1 0x84 DUP3 ADD MSTORE PUSH1 0xA4 ADD PUSH2 0x15C JUMP JUMPDEST PUSH2 0x7D6 DUP4 DUP3 PUSH2 0x9CB JUMP JUMPDEST SWAP1 SWAP5 POP SWAP3 POP DUP4 PUSH2 0x85D JUMPI PUSH1 0x40 MLOAD PUSH3 0x461BCD PUSH1 0xE5 SHL DUP2 MSTORE PUSH1 0x20 PUSH1 0x4 DUP3 ADD MSTORE PUSH1 0x46 PUSH1 0x24 DUP3 ADD MSTORE PUSH32 0x4E756D626572206F766572666C6F77206F6363757273207768656E2028666C61 PUSH1 0x44 DUP3 ADD MSTORE PUSH32 0x672C20747029203D20536166654D6174682E7472794164642874702C20657874 PUSH1 0x64 DUP3 ADD MSTORE PUSH6 0x726146656529 PUSH1 0xD0 SHL PUSH1 0x84 DUP3 ADD MSTORE PUSH1 0xA4 ADD PUSH2 0x15C JUMP JUMPDEST POP JUMPDEST POP SWAP9 SWAP8 POP POP POP POP POP POP POP POP JUMP JUMPDEST PUSH1 0x0 DUP1 DUP1 PUSH2 0x87B DUP5 PUSH1 0xC8 PUSH2 0x92B JUMP JUMPDEST SWAP1 SWAP3 POP SWAP1 POP DUP2 PUSH2 0x89D JUMPI PUSH1 0x40 MLOAD PUSH3 0x461BCD PUSH1 0xE5 SHL DUP2 MSTORE PUSH1 0x4 ADD PUSH2 0x15C SWAP1 PUSH2 0xB70 JUMP JUMPDEST PUSH2 0x8A9 DUP2 PUSH2 0x3E8 PUSH2 0x976 JUMP JUMPDEST SWAP1 SWAP3 POP SWAP1 POP DUP2 PUSH2 0x193 JUMPI PUSH1 0x40 MLOAD PUSH3 0x461BCD PUSH1 0xE5 SHL DUP2 MSTORE PUSH1 0x4 ADD PUSH2 0x15C SWAP1 PUSH2 0xB70 JUMP JUMPDEST PUSH1 0x0 DUP1 DUP1 PUSH2 0x8DB DUP5 PUSH2 0x258 PUSH2 0x92B JUMP JUMPDEST SWAP1 SWAP3 POP SWAP1 POP DUP2 PUSH2 0x8FD JUMPI PUSH1 0x40 MLOAD PUSH3 0x461BCD PUSH1 0xE5 SHL DUP2 MSTORE PUSH1 0x4 ADD PUSH2 0x15C SWAP1 PUSH2 0xBB2 JUMP JUMPDEST PUSH2 0x909 DUP2 PUSH2 0x3E8 PUSH2 0x976 JUMP JUMPDEST SWAP1 SWAP3 POP SWAP1 POP DUP2 PUSH2 0x193 JUMPI PUSH1 0x40 MLOAD PUSH3 0x461BCD PUSH1 0xE5 SHL DUP2 MSTORE PUSH1 0x4 ADD PUSH2 0x15C SWAP1 PUSH2 0xBB2 JUMP JUMPDEST PUSH1 0x0 DUP1 DUP4 PUSH1 0x0 SUB PUSH2 0x942 JUMPI POP PUSH1 0x1 SWAP1 POP PUSH1 0x0 PUSH2 0x96F JUMP JUMPDEST DUP4 DUP4 MUL DUP4 DUP6 DUP3 DUP2 PUSH2 0x955 JUMPI PUSH2 0x955 PUSH2 0xBF5 JUMP JUMPDEST DIV EQ PUSH2 0x968 JUMPI PUSH1 0x0 DUP1 SWAP3 POP SWAP3 POP POP PUSH2 0x96F JUMP JUMPDEST PUSH1 0x1 SWAP3 POP SWAP1 POP JUMPDEST SWAP3 POP SWAP3 SWAP1 POP JUMP JUMPDEST PUSH1 0x0 DUP1 DUP3 PUSH1 0x0 SUB PUSH2 0x98C JUMPI POP PUSH1 0x0 SWAP1 POP DUP1 PUSH2 0x96F JUMP JUMPDEST PUSH1 0x1 DUP4 DUP6 DUP2 PUSH2 0x99D JUMPI PUSH2 0x99D PUSH2 0xBF5 JUMP JUMPDEST DIV SWAP2 POP SWAP2 POP SWAP3 POP SWAP3 SWAP1 POP JUMP JUMPDEST PUSH1 0x0 DUP1 DUP4 DUP4 GT ISZERO PUSH2 0x9BF JUMPI POP PUSH1 0x0 SWAP1 POP DUP1 PUSH2 0x96F JUMP JUMPDEST POP PUSH1 0x1 SWAP4 SWAP2 SWAP1 SWAP3 SUB SWAP2 POP JUMP JUMPDEST PUSH1 0x0 DUP1 DUP4 DUP4 ADD DUP5 DUP2 LT ISZERO PUSH2 0x968 JUMPI PUSH1 0x0 DUP1 SWAP3 POP SWAP3 POP POP PUSH2 0x96F JUMP JUMPDEST PUSH1 0x0 PUSH1 0x20 DUP3 DUP5 SUB SLT ISZERO PUSH2 0x9F8 JUMPI PUSH1 0x0 DUP1 REVERT JUMPDEST POP CALLDATALOAD SWAP2 SWAP1 POP JUMP JUMPDEST PUSH1 0x0 DUP1 PUSH1 0x40 DUP4 DUP6 SUB SLT ISZERO PUSH2 0xA12 JUMPI PUSH1 0x0 DUP1 REVERT JUMPDEST POP POP DUP1 CALLDATALOAD SWAP3 PUSH1 0x20 SWAP1 SWAP2 ADD CALLDATALOAD SWAP2 POP JUMP JUMPDEST PUSH1 0x0 DUP1 PUSH1 0x0 DUP1 PUSH1 0x0 DUP1 PUSH1 0xC0 DUP8 DUP10 SUB SLT ISZERO PUSH2 0xA3A JUMPI PUSH1 0x0 DUP1 REVERT JUMPDEST POP POP DUP5 CALLDATALOAD SWAP7 PUSH1 0x20 DUP7 ADD CALLDATALOAD SWAP7 POP PUSH1 0x40 DUP7 ADD CALLDATALOAD SWAP6 PUSH1 0x60 DUP2 ADD CALLDATALOAD SWAP6 POP PUSH1 0x80 DUP2 ADD CALLDATALOAD SWAP5 POP PUSH1 0xA0 ADD CALLDATALOAD SWAP3 POP SWAP1 POP JUMP JUMPDEST PUSH1 0x20 DUP1 DUP3 MSTORE PUSH1 0x24 SWAP1 DUP3 ADD MSTORE PUSH32 0x5B7469636B6574496E636F6D653247726F75704C65616465725D206F76657266 PUSH1 0x40 DUP3 ADD MSTORE PUSH4 0x3637BB97 PUSH1 0xE1 SHL PUSH1 0x60 DUP3 ADD MSTORE PUSH1 0x80 ADD SWAP1 JUMP JUMPDEST PUSH1 0x20 DUP1 DUP3 MSTORE PUSH1 0x22 SWAP1 DUP3 ADD MSTORE PUSH32 0x5B726577617264506F6F6C3247726F75704D656D6265725D206F766572666C6F PUSH1 0x40 DUP3 ADD MSTORE PUSH2 0x3B97 PUSH1 0xF1 SHL PUSH1 0x60 DUP3 ADD MSTORE PUSH1 0x80 ADD SWAP1 JUMP JUMPDEST PUSH1 0x20 DUP1 DUP3 MSTORE PUSH1 0x24 SWAP1 DUP3 ADD MSTORE PUSH32 0x5B7469636B6574496E636F6D653247726F75704D656D6265725D206F76657266 PUSH1 0x40 DUP3 ADD MSTORE PUSH4 0x3637BB97 PUSH1 0xE1 SHL PUSH1 0x60 DUP3 ADD MSTORE PUSH1 0x80 ADD SWAP1 JUMP JUMPDEST PUSH4 0x4E487B71 PUSH1 0xE0 SHL PUSH1 0x0 MSTORE PUSH1 0x11 PUSH1 0x4 MSTORE PUSH1 0x24 PUSH1 0x0 REVERT JUMPDEST PUSH1 0x0 PUSH1 0x1 DUP3 ADD PUSH2 0xB56 JUMPI PUSH2 0xB56 PUSH2 0xB2E JUMP JUMPDEST POP PUSH1 0x1 ADD SWAP1 JUMP JUMPDEST DUP2 DUP2 SUB DUP2 DUP2 GT ISZERO PUSH2 0x259 JUMPI PUSH2 0x259 PUSH2 0xB2E JUMP JUMPDEST PUSH1 0x20 DUP1 DUP3 MSTORE PUSH1 0x22 SWAP1 DUP3 ADD MSTORE PUSH32 0x5B726577617264506F6F6C3247726F75704C65616465725D206F766572666C6F PUSH1 0x40 DUP3 ADD MSTORE PUSH2 0x3B97 PUSH1 0xF1 SHL PUSH1 0x60 DUP3 ADD MSTORE PUSH1 0x80 ADD SWAP1 JUMP JUMPDEST PUSH1 0x20 DUP1 DUP3 MSTORE PUSH1 0x23 SWAP1 DUP3 ADD MSTORE PUSH32 0x5B7469636B6574496E636F6D6532526577617264506F6F6C5D206F766572666C PUSH1 0x40 DUP3 ADD MSTORE PUSH3 0x37BB97 PUSH1 0xE9 SHL PUSH1 0x60 DUP3 ADD MSTORE PUSH1 0x80 ADD SWAP1 JUMP JUMPDEST PUSH4 0x4E487B71 PUSH1 0xE0 SHL PUSH1 0x0 MSTORE PUSH1 0x12 PUSH1 0x4 MSTORE PUSH1 0x24 PUSH1 0x0 REVERT INVALID 0x4E PUSH22 0x6D626572206F766572666C6F77206F63637572732077 PUSH9 0x656E2063616C63A264 PUSH10 0x70667358221220035A0F 0xDC DUP4 DUP3 0xAB 0xD7 SWAP16 GAS 0x5F 0xA8 PUSH13 0x255FFCB01EF6F3952E1D11AB0C 0x25 NOT MSTORE DUP5 PUSH25 0x2364736F6C6343000812003300000000000000000000000000 "
		},
		"gasEstimates": {
			"creation": {
				"codeDepositCost": "633800",
				"executionCost": "701",
				"totalCost": "634501"
			},
			"external": {
				"groupCreateMinFee()": "154",
				"rewardPool2GroupLeader(uint256)": "600",
				"rewardPool2GroupMember(uint256,uint256)": "744",
				"taskCreateMinFee()": "164",
				"ticketIncome2GroupLeader(uint256)": "579",
				"ticketIncome2GroupMember(uint256,uint256)": "infinite",
				"ticketIncome2RewardPool(uint256)": "622",
				"ticketPrice(uint256,uint256,int256,int256,uint256,uint256)": "infinite"
			}
		},
		"methodIdentifiers": {
			"groupCreateMinFee()": "26d0a334",
			"rewardPool2GroupLeader(uint256)": "beb19a21",
			"rewardPool2GroupMember(uint256,uint256)": "3ed12ab7",
			"taskCreateMinFee()": "91096a3c",
			"ticketIncome2GroupLeader(uint256)": "2e26fb4a",
			"ticketIncome2GroupMember(uint256,uint256)": "84105419",
			"ticketIncome2RewardPool(uint256)": "e6ca2a8d",
			"ticketPrice(uint256,uint256,int256,int256,uint256,uint256)": "9b49380b"
		}
	},
	"abi": [
		{
			"anonymous": false,
			"inputs": [
				{
					"indexed": false,
					"internalType": "string",
					"name": "",
					"type": "string"
				},
				{
					"indexed": false,
					"internalType": "uint256",
					"name": "",
					"type": "uint256"
				}
			],
			"name": "LogUint256",
			"type": "event"
		},
		{
			"inputs": [],
			"name": "groupCreateMinFee",
			"outputs": [
				{
					"internalType": "uint256",
					"name": "money",
					"type": "uint256"
				}
			],
			"stateMutability": "pure",
			"type": "function"
		},
		{
			"inputs": [
				{
					"internalType": "uint256",
					"name": "totalReward",
					"type": "uint256"
				}
			],
			"name": "rewardPool2GroupLeader",
			"outputs": [
				{
					"internalType": "uint256",
					"name": "money",
					"type": "uint256"
				}
			],
			"stateMutability": "pure",
			"type": "function"
		},
		{
			"inputs": [
				{
					"internalType": "uint256",
					"name": "totalReward",
					"type": "uint256"
				},
				{
					"internalType": "uint256",
					"name": "memNum",
					"type": "uint256"
				}
			],
			"name": "rewardPool2GroupMember",
			"outputs": [
				{
					"internalType": "uint256",
					"name": "money",
					"type": "uint256"
				}
			],
			"stateMutability": "pure",
			"type": "function"
		},
		{
			"inputs": [],
			"name": "taskCreateMinFee",
			"outputs": [
				{
					"internalType": "uint256",
					"name": "money",
					"type": "uint256"
				}
			],
			"stateMutability": "pure",
			"type": "function"
		},
		{
			"inputs": [
				{
					"internalType": "uint256",
					"name": "ticketIncome",
					"type": "uint256"
				}
			],
			"name": "ticketIncome2GroupLeader",
			"outputs": [
				{
					"internalType": "uint256",
					"name": "money",
					"type": "uint256"
				}
			],
			"stateMutability": "pure",
			"type": "function"
		},
		{
			"inputs": [
				{
					"internalType": "uint256",
					"name": "ticketIncome",
					"type": "uint256"
				},
				{
					"internalType": "uint256",
					"name": "memNum",
					"type": "uint256"
				}
			],
			"name": "ticketIncome2GroupMember",
			"outputs": [
				{
					"internalType": "uint256",
					"name": "money",
					"type": "uint256"
				}
			],
			"stateMutability": "pure",
			"type": "function"
		},
		{
			"inputs": [
				{
					"internalType": "uint256",
					"name": "ticketIncome",
					"type": "uint256"
				}
			],
			"name": "ticketIncome2RewardPool",
			"outputs": [
				{
					"internalType": "uint256",
					"name": "money",
					"type": "uint256"
				}
			],
			"stateMutability": "pure",
			"type": "function"
		},
		{
			"inputs": [
				{
					"internalType": "uint256",
					"name": "ith",
					"type": "uint256"
				},
				{
					"internalType": "uint256",
					"name": "totalRewardPool",
					"type": "uint256"
				},
				{
					"internalType": "int256",
					"name": "firstGrpId",
					"type": "int256"
				},
				{
					"internalType": "int256",
					"name": "SecondGrpId",
					"type": "int256"
				},
				{
					"internalType": "uint256",
					"name": "firstGrpPeopleNum",
					"type": "uint256"
				},
				{
					"internalType": "uint256",
					"name": "secondGrpPeopleNum",
					"type": "uint256"
				}
			],
			"name": "ticketPrice",
			"outputs": [
				{
					"internalType": "uint256",
					"name": "price",
					"type": "uint256"
				}
			],
			"stateMutability": "pure",
			"type": "function"
		}
	]
}