{
	"data": {
		"bytecode": {
			"linkReferences": {},
			"object": "610a2461003a600b82828239805160001a60731461002d57634e487b7160e01b600052600060045260246000fd5b30600052607381538281f3fe730000000000000000000000000000000000000000301460806040526004361061006c5760003560e01c806326d0a334146100715780632e26fb4a1461008c578063841054191461009f57806391096a3c146100b25780639b49380b146100bf578063e6ca2a8d146100d2575b600080fd5b66038d7ea4c680005b60405190815260200160405180910390f35b61007a61009a36600461082d565b6100e5565b61007a6100ad366004610846565b610154565b662386f26fc1000061007a565b61007a6100cd366004610868565b610207565b61007a6100e036600461082d565b610734565b600080806100f484601e610794565b90925090508161011f5760405162461bcd60e51b8152600401610116906108ab565b60405180910390fd5b61012b816103e86107df565b90925090508161014d5760405162461bcd60e51b8152600401610116906108ab565b9392505050565b6000806101f4610167601e6103e8610905565b6101719190610905565b90506000806101808684610794565b9092509050816101a25760405162461bcd60e51b815260040161011690610918565b6101ae816103e86107df565b9092509050816101d05760405162461bcd60e51b815260040161011690610918565b6101da81866107df565b9092509050816101fc5760405162461bcd60e51b815260040161011690610918565b925050505b92915050565b600060018060005b600281101561029c57610222828b610794565b90935091508261028a576040805162461bcd60e51b81526020600482015260248101919091526000805160206109cf83398151915260448201527f756c617465207469636b657420707269636520696e20692a2a5f616c7068612e6064820152608401610116565b806102948161095c565b91505061020f565b506102a8816001610794565b90925090508161031d5760405162461bcd60e51b815260206004820152604660248201526000805160206109cf83398151915260448201527f756c617465207469636b657420707269636520696e205f626574612a692a2a5f60648201526530b63834309760d11b608482015260a401610116565b61032f81670de0b6b3a7640000610794565b9092509050816103bb5760405162461bcd60e51b815260206004820152605c60248201526000805160206109cf83398151915260448201527f756c617465207469636b657420707269636520696e20285f626574612f5f646560648201527f6e6f6d696e61746f722a692a2a5f616c706861292a31302a2a31382e00000000608482015260a401610116565b6103c7816103e86107df565b9092509050816104495760405162461bcd60e51b815260206004820152605360248201526000805160206109cf83398151915260448201527f756c617465207469636b657420707269636520696e205f626574612f5f64656e60648201527237b6b4b730ba37b9153495152fb0b63834309760691b608482015260a401610116565b61045981655af3107a4000610812565b9092509050816104e55760405162461bcd60e51b815260206004820152605b60248201526000805160206109cf83398151915260448201527f756c617465207469636b657420707269636520696e205f626574612f5f64656e60648201527f6f6d696e61746f722a692a2a5f616c706861202b2067616d6d612e0000000000608482015260a401610116565b60008088121580156104f8575060008712155b1561051f57600a6105098688610905565b11156105175750600161054a565b50600061054a565b600088121580156105305750600087125b1561054657600a8611156105175750600161054a565b5060005b801561072757600061055d8a6064610794565b9094509050836105f15760405162461bcd60e51b815260206004820152605360248201527f4e756d626572206f766572666c6f77206f6363757273207768656e2028666c6160448201527f672c20657874726146656529203d20536166654d6174682e7472794d756c28746064820152726f74616c526577617264506f6f6c2c205f702960681b608482015260a401610116565b6105fd816103e86107df565b9094509050836106945760405162461bcd60e51b815260206004820152605660248201527f4e756d626572206f766572666c6f77206f6363757273207768656e2028666c6160448201527f672c20657874726146656529203d20536166654d6174682e7472794469762865606482015275787472614665652c205f64656e6f6d696e61746f722960501b608482015260a401610116565b61069e8382610812565b9094509250836107255760405162461bcd60e51b815260206004820152604660248201527f4e756d626572206f766572666c6f77206f6363757273207768656e2028666c6160448201527f672c20747029203d20536166654d6174682e7472794164642874702c2065787460648201526572614665652960d01b608482015260a401610116565b505b5098975050505050505050565b60008080610744846101f4610794565b9092509050816107665760405162461bcd60e51b815260040161011690610975565b610772816103e86107df565b90925090508161014d5760405162461bcd60e51b815260040161011690610975565b600080836000036107ab57506001905060006107d8565b838302838582816107be576107be6109b8565b04146107d15760008092509250506107d8565b6001925090505b9250929050565b600080826000036107f5575060009050806107d8565b6001838581610806576108066109b8565b04915091509250929050565b600080838301848110156107d15760008092509250506107d8565b60006020828403121561083f57600080fd5b5035919050565b6000806040838503121561085957600080fd5b50508035926020909101359150565b60008060008060008060c0878903121561088157600080fd5b505084359660208601359650604086013595606081013595506080810135945060a0013592509050565b60208082526024908201527f5b7469636b6574496e636f6d653247726f75704c65616465725d206f766572666040820152633637bb9760e11b606082015260800190565b634e487b7160e01b600052601160045260246000fd5b81810381811115610201576102016108ef565b60208082526024908201527f5b7469636b6574496e636f6d653247726f75704d656d6265725d206f766572666040820152633637bb9760e11b606082015260800190565b60006001820161096e5761096e6108ef565b5060010190565b60208082526023908201527f5b7469636b6574496e636f6d6532526577617264506f6f6c5d206f766572666c60408201526237bb9760e91b606082015260800190565b634e487b7160e01b600052601260045260246000fdfe4e756d626572206f766572666c6f77206f6363757273207768656e2063616c63a26469706673582212209f2a01331957a58acb37c53929999a86b51d3a217dbfeba60c684089e2bfb27964736f6c63430008120033",
			"opcodes": "PUSH2 0xA24 PUSH2 0x3A PUSH1 0xB DUP3 DUP3 DUP3 CODECOPY DUP1 MLOAD PUSH1 0x0 BYTE PUSH1 0x73 EQ PUSH2 0x2D JUMPI PUSH4 0x4E487B71 PUSH1 0xE0 SHL PUSH1 0x0 MSTORE PUSH1 0x0 PUSH1 0x4 MSTORE PUSH1 0x24 PUSH1 0x0 REVERT JUMPDEST ADDRESS PUSH1 0x0 MSTORE PUSH1 0x73 DUP2 MSTORE8 DUP3 DUP2 RETURN INVALID PUSH20 0x0 ADDRESS EQ PUSH1 0x80 PUSH1 0x40 MSTORE PUSH1 0x4 CALLDATASIZE LT PUSH2 0x6C JUMPI PUSH1 0x0 CALLDATALOAD PUSH1 0xE0 SHR DUP1 PUSH4 0x26D0A334 EQ PUSH2 0x71 JUMPI DUP1 PUSH4 0x2E26FB4A EQ PUSH2 0x8C JUMPI DUP1 PUSH4 0x84105419 EQ PUSH2 0x9F JUMPI DUP1 PUSH4 0x91096A3C EQ PUSH2 0xB2 JUMPI DUP1 PUSH4 0x9B49380B EQ PUSH2 0xBF JUMPI DUP1 PUSH4 0xE6CA2A8D EQ PUSH2 0xD2 JUMPI JUMPDEST PUSH1 0x0 DUP1 REVERT JUMPDEST PUSH7 0x38D7EA4C68000 JUMPDEST PUSH1 0x40 MLOAD SWAP1 DUP2 MSTORE PUSH1 0x20 ADD PUSH1 0x40 MLOAD DUP1 SWAP2 SUB SWAP1 RETURN JUMPDEST PUSH2 0x7A PUSH2 0x9A CALLDATASIZE PUSH1 0x4 PUSH2 0x82D JUMP JUMPDEST PUSH2 0xE5 JUMP JUMPDEST PUSH2 0x7A PUSH2 0xAD CALLDATASIZE PUSH1 0x4 PUSH2 0x846 JUMP JUMPDEST PUSH2 0x154 JUMP JUMPDEST PUSH7 0x2386F26FC10000 PUSH2 0x7A JUMP JUMPDEST PUSH2 0x7A PUSH2 0xCD CALLDATASIZE PUSH1 0x4 PUSH2 0x868 JUMP JUMPDEST PUSH2 0x207 JUMP JUMPDEST PUSH2 0x7A PUSH2 0xE0 CALLDATASIZE PUSH1 0x4 PUSH2 0x82D JUMP JUMPDEST PUSH2 0x734 JUMP JUMPDEST PUSH1 0x0 DUP1 DUP1 PUSH2 0xF4 DUP5 PUSH1 0x1E PUSH2 0x794 JUMP JUMPDEST SWAP1 SWAP3 POP SWAP1 POP DUP2 PUSH2 0x11F JUMPI PUSH1 0x40 MLOAD PUSH3 0x461BCD PUSH1 0xE5 SHL DUP2 MSTORE PUSH1 0x4 ADD PUSH2 0x116 SWAP1 PUSH2 0x8AB JUMP JUMPDEST PUSH1 0x40 MLOAD DUP1 SWAP2 SUB SWAP1 REVERT JUMPDEST PUSH2 0x12B DUP2 PUSH2 0x3E8 PUSH2 0x7DF JUMP JUMPDEST SWAP1 SWAP3 POP SWAP1 POP DUP2 PUSH2 0x14D JUMPI PUSH1 0x40 MLOAD PUSH3 0x461BCD PUSH1 0xE5 SHL DUP2 MSTORE PUSH1 0x4 ADD PUSH2 0x116 SWAP1 PUSH2 0x8AB JUMP JUMPDEST SWAP4 SWAP3 POP POP POP JUMP JUMPDEST PUSH1 0x0 DUP1 PUSH2 0x1F4 PUSH2 0x167 PUSH1 0x1E PUSH2 0x3E8 PUSH2 0x905 JUMP JUMPDEST PUSH2 0x171 SWAP2 SWAP1 PUSH2 0x905 JUMP JUMPDEST SWAP1 POP PUSH1 0x0 DUP1 PUSH2 0x180 DUP7 DUP5 PUSH2 0x794 JUMP JUMPDEST SWAP1 SWAP3 POP SWAP1 POP DUP2 PUSH2 0x1A2 JUMPI PUSH1 0x40 MLOAD PUSH3 0x461BCD PUSH1 0xE5 SHL DUP2 MSTORE PUSH1 0x4 ADD PUSH2 0x116 SWAP1 PUSH2 0x918 JUMP JUMPDEST PUSH2 0x1AE DUP2 PUSH2 0x3E8 PUSH2 0x7DF JUMP JUMPDEST SWAP1 SWAP3 POP SWAP1 POP DUP2 PUSH2 0x1D0 JUMPI PUSH1 0x40 MLOAD PUSH3 0x461BCD PUSH1 0xE5 SHL DUP2 MSTORE PUSH1 0x4 ADD PUSH2 0x116 SWAP1 PUSH2 0x918 JUMP JUMPDEST PUSH2 0x1DA DUP2 DUP7 PUSH2 0x7DF JUMP JUMPDEST SWAP1 SWAP3 POP SWAP1 POP DUP2 PUSH2 0x1FC JUMPI PUSH1 0x40 MLOAD PUSH3 0x461BCD PUSH1 0xE5 SHL DUP2 MSTORE PUSH1 0x4 ADD PUSH2 0x116 SWAP1 PUSH2 0x918 JUMP JUMPDEST SWAP3 POP POP POP JUMPDEST SWAP3 SWAP2 POP POP JUMP JUMPDEST PUSH1 0x0 PUSH1 0x1 DUP1 PUSH1 0x0 JUMPDEST PUSH1 0x2 DUP2 LT ISZERO PUSH2 0x29C JUMPI PUSH2 0x222 DUP3 DUP12 PUSH2 0x794 JUMP JUMPDEST SWAP1 SWAP4 POP SWAP2 POP DUP3 PUSH2 0x28A JUMPI PUSH1 0x40 DUP1 MLOAD PUSH3 0x461BCD PUSH1 0xE5 SHL DUP2 MSTORE PUSH1 0x20 PUSH1 0x4 DUP3 ADD MSTORE PUSH1 0x24 DUP2 ADD SWAP2 SWAP1 SWAP2 MSTORE PUSH1 0x0 DUP1 MLOAD PUSH1 0x20 PUSH2 0x9CF DUP4 CODECOPY DUP2 MLOAD SWAP2 MSTORE PUSH1 0x44 DUP3 ADD MSTORE PUSH32 0x756C617465207469636B657420707269636520696E20692A2A5F616C7068612E PUSH1 0x64 DUP3 ADD MSTORE PUSH1 0x84 ADD PUSH2 0x116 JUMP JUMPDEST DUP1 PUSH2 0x294 DUP2 PUSH2 0x95C JUMP JUMPDEST SWAP2 POP POP PUSH2 0x20F JUMP JUMPDEST POP PUSH2 0x2A8 DUP2 PUSH1 0x1 PUSH2 0x794 JUMP JUMPDEST SWAP1 SWAP3 POP SWAP1 POP DUP2 PUSH2 0x31D JUMPI PUSH1 0x40 MLOAD PUSH3 0x461BCD PUSH1 0xE5 SHL DUP2 MSTORE PUSH1 0x20 PUSH1 0x4 DUP3 ADD MSTORE PUSH1 0x46 PUSH1 0x24 DUP3 ADD MSTORE PUSH1 0x0 DUP1 MLOAD PUSH1 0x20 PUSH2 0x9CF DUP4 CODECOPY DUP2 MLOAD SWAP2 MSTORE PUSH1 0x44 DUP3 ADD MSTORE PUSH32 0x756C617465207469636B657420707269636520696E205F626574612A692A2A5F PUSH1 0x64 DUP3 ADD MSTORE PUSH6 0x30B638343097 PUSH1 0xD1 SHL PUSH1 0x84 DUP3 ADD MSTORE PUSH1 0xA4 ADD PUSH2 0x116 JUMP JUMPDEST PUSH2 0x32F DUP2 PUSH8 0xDE0B6B3A7640000 PUSH2 0x794 JUMP JUMPDEST SWAP1 SWAP3 POP SWAP1 POP DUP2 PUSH2 0x3BB JUMPI PUSH1 0x40 MLOAD PUSH3 0x461BCD PUSH1 0xE5 SHL DUP2 MSTORE PUSH1 0x20 PUSH1 0x4 DUP3 ADD MSTORE PUSH1 0x5C PUSH1 0x24 DUP3 ADD MSTORE PUSH1 0x0 DUP1 MLOAD PUSH1 0x20 PUSH2 0x9CF DUP4 CODECOPY DUP2 MLOAD SWAP2 MSTORE PUSH1 0x44 DUP3 ADD MSTORE PUSH32 0x756C617465207469636B657420707269636520696E20285F626574612F5F6465 PUSH1 0x64 DUP3 ADD MSTORE PUSH32 0x6E6F6D696E61746F722A692A2A5F616C706861292A31302A2A31382E00000000 PUSH1 0x84 DUP3 ADD MSTORE PUSH1 0xA4 ADD PUSH2 0x116 JUMP JUMPDEST PUSH2 0x3C7 DUP2 PUSH2 0x3E8 PUSH2 0x7DF JUMP JUMPDEST SWAP1 SWAP3 POP SWAP1 POP DUP2 PUSH2 0x449 JUMPI PUSH1 0x40 MLOAD PUSH3 0x461BCD PUSH1 0xE5 SHL DUP2 MSTORE PUSH1 0x20 PUSH1 0x4 DUP3 ADD MSTORE PUSH1 0x53 PUSH1 0x24 DUP3 ADD MSTORE PUSH1 0x0 DUP1 MLOAD PUSH1 0x20 PUSH2 0x9CF DUP4 CODECOPY DUP2 MLOAD SWAP2 MSTORE PUSH1 0x44 DUP3 ADD MSTORE PUSH32 0x756C617465207469636B657420707269636520696E205F626574612F5F64656E PUSH1 0x64 DUP3 ADD MSTORE PUSH19 0x37B6B4B730BA37B9153495152FB0B638343097 PUSH1 0x69 SHL PUSH1 0x84 DUP3 ADD MSTORE PUSH1 0xA4 ADD PUSH2 0x116 JUMP JUMPDEST PUSH2 0x459 DUP2 PUSH6 0x5AF3107A4000 PUSH2 0x812 JUMP JUMPDEST SWAP1 SWAP3 POP SWAP1 POP DUP2 PUSH2 0x4E5 JUMPI PUSH1 0x40 MLOAD PUSH3 0x461BCD PUSH1 0xE5 SHL DUP2 MSTORE PUSH1 0x20 PUSH1 0x4 DUP3 ADD MSTORE PUSH1 0x5B PUSH1 0x24 DUP3 ADD MSTORE PUSH1 0x0 DUP1 MLOAD PUSH1 0x20 PUSH2 0x9CF DUP4 CODECOPY DUP2 MLOAD SWAP2 MSTORE PUSH1 0x44 DUP3 ADD MSTORE PUSH32 0x756C617465207469636B657420707269636520696E205F626574612F5F64656E PUSH1 0x64 DUP3 ADD MSTORE PUSH32 0x6F6D696E61746F722A692A2A5F616C706861202B2067616D6D612E0000000000 PUSH1 0x84 DUP3 ADD MSTORE PUSH1 0xA4 ADD PUSH2 0x116 JUMP JUMPDEST PUSH1 0x0 DUP1 DUP9 SLT ISZERO DUP1 ISZERO PUSH2 0x4F8 JUMPI POP PUSH1 0x0 DUP8 SLT ISZERO JUMPDEST ISZERO PUSH2 0x51F JUMPI PUSH1 0xA PUSH2 0x509 DUP7 DUP9 PUSH2 0x905 JUMP JUMPDEST GT ISZERO PUSH2 0x517 JUMPI POP PUSH1 0x1 PUSH2 0x54A JUMP JUMPDEST POP PUSH1 0x0 PUSH2 0x54A JUMP JUMPDEST PUSH1 0x0 DUP9 SLT ISZERO DUP1 ISZERO PUSH2 0x530 JUMPI POP PUSH1 0x0 DUP8 SLT JUMPDEST ISZERO PUSH2 0x546 JUMPI PUSH1 0xA DUP7 GT ISZERO PUSH2 0x517 JUMPI POP PUSH1 0x1 PUSH2 0x54A JUMP JUMPDEST POP PUSH1 0x0 JUMPDEST DUP1 ISZERO PUSH2 0x727 JUMPI PUSH1 0x0 PUSH2 0x55D DUP11 PUSH1 0x64 PUSH2 0x794 JUMP JUMPDEST SWAP1 SWAP5 POP SWAP1 POP DUP4 PUSH2 0x5F1 JUMPI PUSH1 0x40 MLOAD PUSH3 0x461BCD PUSH1 0xE5 SHL DUP2 MSTORE PUSH1 0x20 PUSH1 0x4 DUP3 ADD MSTORE PUSH1 0x53 PUSH1 0x24 DUP3 ADD MSTORE PUSH32 0x4E756D626572206F766572666C6F77206F6363757273207768656E2028666C61 PUSH1 0x44 DUP3 ADD MSTORE PUSH32 0x672C20657874726146656529203D20536166654D6174682E7472794D756C2874 PUSH1 0x64 DUP3 ADD MSTORE PUSH19 0x6F74616C526577617264506F6F6C2C205F7029 PUSH1 0x68 SHL PUSH1 0x84 DUP3 ADD MSTORE PUSH1 0xA4 ADD PUSH2 0x116 JUMP JUMPDEST PUSH2 0x5FD DUP2 PUSH2 0x3E8 PUSH2 0x7DF JUMP JUMPDEST SWAP1 SWAP5 POP SWAP1 POP DUP4 PUSH2 0x694 JUMPI PUSH1 0x40 MLOAD PUSH3 0x461BCD PUSH1 0xE5 SHL DUP2 MSTORE PUSH1 0x20 PUSH1 0x4 DUP3 ADD MSTORE PUSH1 0x56 PUSH1 0x24 DUP3 ADD MSTORE PUSH32 0x4E756D626572206F766572666C6F77206F6363757273207768656E2028666C61 PUSH1 0x44 DUP3 ADD MSTORE PUSH32 0x672C20657874726146656529203D20536166654D6174682E7472794469762865 PUSH1 0x64 DUP3 ADD MSTORE PUSH22 0x787472614665652C205F64656E6F6D696E61746F7229 PUSH1 0x50 SHL PUSH1 0x84 DUP3 ADD MSTORE PUSH1 0xA4 ADD PUSH2 0x116 JUMP JUMPDEST PUSH2 0x69E DUP4 DUP3 PUSH2 0x812 JUMP JUMPDEST SWAP1 SWAP5 POP SWAP3 POP DUP4 PUSH2 0x725 JUMPI PUSH1 0x40 MLOAD PUSH3 0x461BCD PUSH1 0xE5 SHL DUP2 MSTORE PUSH1 0x20 PUSH1 0x4 DUP3 ADD MSTORE PUSH1 0x46 PUSH1 0x24 DUP3 ADD MSTORE PUSH32 0x4E756D626572206F766572666C6F77206F6363757273207768656E2028666C61 PUSH1 0x44 DUP3 ADD MSTORE PUSH32 0x672C20747029203D20536166654D6174682E7472794164642874702C20657874 PUSH1 0x64 DUP3 ADD MSTORE PUSH6 0x726146656529 PUSH1 0xD0 SHL PUSH1 0x84 DUP3 ADD MSTORE PUSH1 0xA4 ADD PUSH2 0x116 JUMP JUMPDEST POP JUMPDEST POP SWAP9 SWAP8 POP POP POP POP POP POP POP POP JUMP JUMPDEST PUSH1 0x0 DUP1 DUP1 PUSH2 0x744 DUP5 PUSH2 0x1F4 PUSH2 0x794 JUMP JUMPDEST SWAP1 SWAP3 POP SWAP1 POP DUP2 PUSH2 0x766 JUMPI PUSH1 0x40 MLOAD PUSH3 0x461BCD PUSH1 0xE5 SHL DUP2 MSTORE PUSH1 0x4 ADD PUSH2 0x116 SWAP1 PUSH2 0x975 JUMP JUMPDEST PUSH2 0x772 DUP2 PUSH2 0x3E8 PUSH2 0x7DF JUMP JUMPDEST SWAP1 SWAP3 POP SWAP1 POP DUP2 PUSH2 0x14D JUMPI PUSH1 0x40 MLOAD PUSH3 0x461BCD PUSH1 0xE5 SHL DUP2 MSTORE PUSH1 0x4 ADD PUSH2 0x116 SWAP1 PUSH2 0x975 JUMP JUMPDEST PUSH1 0x0 DUP1 DUP4 PUSH1 0x0 SUB PUSH2 0x7AB JUMPI POP PUSH1 0x1 SWAP1 POP PUSH1 0x0 PUSH2 0x7D8 JUMP JUMPDEST DUP4 DUP4 MUL DUP4 DUP6 DUP3 DUP2 PUSH2 0x7BE JUMPI PUSH2 0x7BE PUSH2 0x9B8 JUMP JUMPDEST DIV EQ PUSH2 0x7D1 JUMPI PUSH1 0x0 DUP1 SWAP3 POP SWAP3 POP POP PUSH2 0x7D8 JUMP JUMPDEST PUSH1 0x1 SWAP3 POP SWAP1 POP JUMPDEST SWAP3 POP SWAP3 SWAP1 POP JUMP JUMPDEST PUSH1 0x0 DUP1 DUP3 PUSH1 0x0 SUB PUSH2 0x7F5 JUMPI POP PUSH1 0x0 SWAP1 POP DUP1 PUSH2 0x7D8 JUMP JUMPDEST PUSH1 0x1 DUP4 DUP6 DUP2 PUSH2 0x806 JUMPI PUSH2 0x806 PUSH2 0x9B8 JUMP JUMPDEST DIV SWAP2 POP SWAP2 POP SWAP3 POP SWAP3 SWAP1 POP JUMP JUMPDEST PUSH1 0x0 DUP1 DUP4 DUP4 ADD DUP5 DUP2 LT ISZERO PUSH2 0x7D1 JUMPI PUSH1 0x0 DUP1 SWAP3 POP SWAP3 POP POP PUSH2 0x7D8 JUMP JUMPDEST PUSH1 0x0 PUSH1 0x20 DUP3 DUP5 SUB SLT ISZERO PUSH2 0x83F JUMPI PUSH1 0x0 DUP1 REVERT JUMPDEST POP CALLDATALOAD SWAP2 SWAP1 POP JUMP JUMPDEST PUSH1 0x0 DUP1 PUSH1 0x40 DUP4 DUP6 SUB SLT ISZERO PUSH2 0x859 JUMPI PUSH1 0x0 DUP1 REVERT JUMPDEST POP POP DUP1 CALLDATALOAD SWAP3 PUSH1 0x20 SWAP1 SWAP2 ADD CALLDATALOAD SWAP2 POP JUMP JUMPDEST PUSH1 0x0 DUP1 PUSH1 0x0 DUP1 PUSH1 0x0 DUP1 PUSH1 0xC0 DUP8 DUP10 SUB SLT ISZERO PUSH2 0x881 JUMPI PUSH1 0x0 DUP1 REVERT JUMPDEST POP POP DUP5 CALLDATALOAD SWAP7 PUSH1 0x20 DUP7 ADD CALLDATALOAD SWAP7 POP PUSH1 0x40 DUP7 ADD CALLDATALOAD SWAP6 PUSH1 0x60 DUP2 ADD CALLDATALOAD SWAP6 POP PUSH1 0x80 DUP2 ADD CALLDATALOAD SWAP5 POP PUSH1 0xA0 ADD CALLDATALOAD SWAP3 POP SWAP1 POP JUMP JUMPDEST PUSH1 0x20 DUP1 DUP3 MSTORE PUSH1 0x24 SWAP1 DUP3 ADD MSTORE PUSH32 0x5B7469636B6574496E636F6D653247726F75704C65616465725D206F76657266 PUSH1 0x40 DUP3 ADD MSTORE PUSH4 0x3637BB97 PUSH1 0xE1 SHL PUSH1 0x60 DUP3 ADD MSTORE PUSH1 0x80 ADD SWAP1 JUMP JUMPDEST PUSH4 0x4E487B71 PUSH1 0xE0 SHL PUSH1 0x0 MSTORE PUSH1 0x11 PUSH1 0x4 MSTORE PUSH1 0x24 PUSH1 0x0 REVERT JUMPDEST DUP2 DUP2 SUB DUP2 DUP2 GT ISZERO PUSH2 0x201 JUMPI PUSH2 0x201 PUSH2 0x8EF JUMP JUMPDEST PUSH1 0x20 DUP1 DUP3 MSTORE PUSH1 0x24 SWAP1 DUP3 ADD MSTORE PUSH32 0x5B7469636B6574496E636F6D653247726F75704D656D6265725D206F76657266 PUSH1 0x40 DUP3 ADD MSTORE PUSH4 0x3637BB97 PUSH1 0xE1 SHL PUSH1 0x60 DUP3 ADD MSTORE PUSH1 0x80 ADD SWAP1 JUMP JUMPDEST PUSH1 0x0 PUSH1 0x1 DUP3 ADD PUSH2 0x96E JUMPI PUSH2 0x96E PUSH2 0x8EF JUMP JUMPDEST POP PUSH1 0x1 ADD SWAP1 JUMP JUMPDEST PUSH1 0x20 DUP1 DUP3 MSTORE PUSH1 0x23 SWAP1 DUP3 ADD MSTORE PUSH32 0x5B7469636B6574496E636F6D6532526577617264506F6F6C5D206F766572666C PUSH1 0x40 DUP3 ADD MSTORE PUSH3 0x37BB97 PUSH1 0xE9 SHL PUSH1 0x60 DUP3 ADD MSTORE PUSH1 0x80 ADD SWAP1 JUMP JUMPDEST PUSH4 0x4E487B71 PUSH1 0xE0 SHL PUSH1 0x0 MSTORE PUSH1 0x12 PUSH1 0x4 MSTORE PUSH1 0x24 PUSH1 0x0 REVERT INVALID 0x4E PUSH22 0x6D626572206F766572666C6F77206F63637572732077 PUSH9 0x656E2063616C63A264 PUSH10 0x706673582212209F2A01 CALLER NOT JUMPI 0xA5 DUP11 0xCB CALLDATACOPY 0xC5 CODECOPY 0x29 SWAP10 SWAP11 DUP7 0xB5 SAR GASPRICE 0x21 PUSH30 0xBFEBA60C684089E2BFB27964736F6C634300081200330000000000000000 "
		},
		"gasEstimates": {
			"creation": {
				"codeDepositCost": "519200",
				"executionCost": "587",
				"totalCost": "519787"
			},
			"external": {
				"groupCreateMinFee()": "131",
				"taskCreateMinFee()": "208",
				"ticketIncome2GroupLeader(uint256)": "556",
				"ticketIncome2GroupMember(uint256,uint256)": "infinite",
				"ticketIncome2RewardPool(uint256)": "644",
				"ticketPrice(uint256,uint256,int256,int256,uint256,uint256)": "infinite"
			}
		},
		"methodIdentifiers": {
			"groupCreateMinFee()": "26d0a334",
			"taskCreateMinFee()": "91096a3c",
			"ticketIncome2GroupLeader(uint256)": "2e26fb4a",
			"ticketIncome2GroupMember(uint256,uint256)": "84105419",
			"ticketIncome2RewardPool(uint256)": "e6ca2a8d",
			"ticketPrice(uint256,uint256,int256,int256,uint256,uint256)": "9b49380b"
		}
	},
	"abi": [
		{
			"anonymous": false,
			"inputs": [
				{
					"indexed": false,
					"internalType": "string",
					"name": "",
					"type": "string"
				},
				{
					"indexed": false,
					"internalType": "uint256",
					"name": "",
					"type": "uint256"
				}
			],
			"name": "LogUint256",
			"type": "event"
		},
		{
			"inputs": [],
			"name": "groupCreateMinFee",
			"outputs": [
				{
					"internalType": "uint256",
					"name": "money",
					"type": "uint256"
				}
			],
			"stateMutability": "pure",
			"type": "function"
		},
		{
			"inputs": [],
			"name": "taskCreateMinFee",
			"outputs": [
				{
					"internalType": "uint256",
					"name": "money",
					"type": "uint256"
				}
			],
			"stateMutability": "pure",
			"type": "function"
		},
		{
			"inputs": [
				{
					"internalType": "uint256",
					"name": "ticketIncome",
					"type": "uint256"
				}
			],
			"name": "ticketIncome2GroupLeader",
			"outputs": [
				{
					"internalType": "uint256",
					"name": "money",
					"type": "uint256"
				}
			],
			"stateMutability": "pure",
			"type": "function"
		},
		{
			"inputs": [
				{
					"internalType": "uint256",
					"name": "ticketIncome",
					"type": "uint256"
				},
				{
					"internalType": "uint256",
					"name": "memNum",
					"type": "uint256"
				}
			],
			"name": "ticketIncome2GroupMember",
			"outputs": [
				{
					"internalType": "uint256",
					"name": "money",
					"type": "uint256"
				}
			],
			"stateMutability": "pure",
			"type": "function"
		},
		{
			"inputs": [
				{
					"internalType": "uint256",
					"name": "ticketIncome",
					"type": "uint256"
				}
			],
			"name": "ticketIncome2RewardPool",
			"outputs": [
				{
					"internalType": "uint256",
					"name": "money",
					"type": "uint256"
				}
			],
			"stateMutability": "pure",
			"type": "function"
		},
		{
			"inputs": [
				{
					"internalType": "uint256",
					"name": "ith",
					"type": "uint256"
				},
				{
					"internalType": "uint256",
					"name": "totalRewardPool",
					"type": "uint256"
				},
				{
					"internalType": "int256",
					"name": "firstGrpId",
					"type": "int256"
				},
				{
					"internalType": "int256",
					"name": "SecondGrpId",
					"type": "int256"
				},
				{
					"internalType": "uint256",
					"name": "firstGrpPeopleNum",
					"type": "uint256"
				},
				{
					"internalType": "uint256",
					"name": "secondGrpPeopleNum",
					"type": "uint256"
				}
			],
			"name": "ticketPrice",
			"outputs": [
				{
					"internalType": "uint256",
					"name": "price",
					"type": "uint256"
				}
			],
			"stateMutability": "pure",
			"type": "function"
		}
	]
}