{
	"utils/debug.sol": {
		"Console": {
			"abi": [
				{
					"anonymous": false,
					"inputs": [
						{
							"indexed": false,
							"internalType": "string",
							"name": "",
							"type": "string"
						},
						{
							"indexed": false,
							"internalType": "address",
							"name": "",
							"type": "address"
						}
					],
					"name": "LogAddress",
					"type": "event"
				},
				{
					"anonymous": false,
					"inputs": [
						{
							"indexed": false,
							"internalType": "string",
							"name": "",
							"type": "string"
						},
						{
							"indexed": false,
							"internalType": "bool",
							"name": "",
							"type": "bool"
						}
					],
					"name": "LogBool",
					"type": "event"
				},
				{
					"anonymous": false,
					"inputs": [
						{
							"indexed": false,
							"internalType": "string",
							"name": "",
							"type": "string"
						},
						{
							"indexed": false,
							"internalType": "bytes",
							"name": "",
							"type": "bytes"
						}
					],
					"name": "LogBytes",
					"type": "event"
				},
				{
					"anonymous": false,
					"inputs": [
						{
							"indexed": false,
							"internalType": "string",
							"name": "",
							"type": "string"
						},
						{
							"indexed": false,
							"internalType": "bytes32",
							"name": "",
							"type": "bytes32"
						}
					],
					"name": "LogBytes32",
					"type": "event"
				},
				{
					"anonymous": false,
					"inputs": [
						{
							"indexed": false,
							"internalType": "string",
							"name": "",
							"type": "string"
						},
						{
							"indexed": false,
							"internalType": "int256",
							"name": "",
							"type": "int256"
						}
					],
					"name": "LogInt",
					"type": "event"
				},
				{
					"anonymous": false,
					"inputs": [
						{
							"indexed": false,
							"internalType": "string",
							"name": "",
							"type": "string"
						},
						{
							"indexed": false,
							"internalType": "uint256",
							"name": "",
							"type": "uint256"
						}
					],
					"name": "LogUint",
					"type": "event"
				},
				{
					"inputs": [
						{
							"internalType": "string",
							"name": "s",
							"type": "string"
						},
						{
							"internalType": "bytes",
							"name": "x",
							"type": "bytes"
						}
					],
					"name": "log",
					"outputs": [],
					"stateMutability": "nonpayable",
					"type": "function"
				},
				{
					"inputs": [
						{
							"internalType": "string",
							"name": "s",
							"type": "string"
						},
						{
							"internalType": "address",
							"name": "x",
							"type": "address"
						}
					],
					"name": "log",
					"outputs": [],
					"stateMutability": "nonpayable",
					"type": "function"
				},
				{
					"inputs": [
						{
							"internalType": "string",
							"name": "s",
							"type": "string"
						},
						{
							"internalType": "bytes32",
							"name": "x",
							"type": "bytes32"
						}
					],
					"name": "log",
					"outputs": [],
					"stateMutability": "nonpayable",
					"type": "function"
				},
				{
					"inputs": [
						{
							"internalType": "string",
							"name": "s",
							"type": "string"
						},
						{
							"internalType": "int256",
							"name": "x",
							"type": "int256"
						}
					],
					"name": "log",
					"outputs": [],
					"stateMutability": "nonpayable",
					"type": "function"
				},
				{
					"inputs": [
						{
							"internalType": "string",
							"name": "s",
							"type": "string"
						},
						{
							"internalType": "uint256",
							"name": "x",
							"type": "uint256"
						}
					],
					"name": "log",
					"outputs": [],
					"stateMutability": "nonpayable",
					"type": "function"
				},
				{
					"inputs": [
						{
							"internalType": "string",
							"name": "s",
							"type": "string"
						},
						{
							"internalType": "bool",
							"name": "x",
							"type": "bool"
						}
					],
					"name": "log",
					"outputs": [],
					"stateMutability": "nonpayable",
					"type": "function"
				}
			],
			"devdoc": {
				"kind": "dev",
				"methods": {},
				"version": 1
			},
			"evm": {
				"assembly": "    /* \"utils/debug.sol\":57:853  contract Console {... */\n  mstore(0x40, 0x80)\n  callvalue\n  dup1\n  iszero\n  tag_1\n  jumpi\n  0x00\n  dup1\n  revert\ntag_1:\n  pop\n  dataSize(sub_0)\n  dup1\n  dataOffset(sub_0)\n  0x00\n  codecopy\n  0x00\n  return\nstop\n\nsub_0: assembly {\n        /* \"utils/debug.sol\":57:853  contract Console {... */\n      mstore(0x40, 0x80)\n      callvalue\n      dup1\n      iszero\n      tag_1\n      jumpi\n      0x00\n      dup1\n      revert\n    tag_1:\n      pop\n      jumpi(tag_2, lt(calldatasize, 0x04))\n      shr(0xe0, calldataload(0x00))\n      dup1\n      0x23cdd8e8\n      eq\n      tag_3\n      jumpi\n      dup1\n      0x319af333\n      eq\n      tag_4\n      jumpi\n      dup1\n      0x3692d61a\n      eq\n      tag_5\n      jumpi\n      dup1\n      0x3ca6268e\n      eq\n      tag_6\n      jumpi\n      dup1\n      0xb60e72cc\n      eq\n      tag_7\n      jumpi\n      dup1\n      0xc3b55635\n      eq\n      tag_8\n      jumpi\n    tag_2:\n      0x00\n      dup1\n      revert\n        /* \"utils/debug.sol\":368:461  function log(string calldata s, bytes calldata x) public {... */\n    tag_3:\n      tag_9\n      0x04\n      dup1\n      calldatasize\n      sub\n      dup2\n      add\n      swap1\n      tag_10\n      swap2\n      swap1\n      tag_11\n      jump\t// in\n    tag_10:\n      tag_12\n      jump\t// in\n    tag_9:\n      stop\n        /* \"utils/debug.sol\":641:729  function log(string calldata s, address x) public {... */\n    tag_4:\n      tag_13\n      0x04\n      dup1\n      calldatasize\n      sub\n      dup2\n      add\n      swap1\n      tag_14\n      swap2\n      swap1\n      tag_15\n      jump\t// in\n    tag_14:\n      tag_16\n      jump\t// in\n    tag_13:\n      stop\n        /* \"utils/debug.sol\":507:595  function log(string calldata s, bytes32 x) public {... */\n    tag_5:\n      tag_17\n      0x04\n      dup1\n      calldatasize\n      sub\n      dup2\n      add\n      swap1\n      tag_18\n      swap2\n      swap1\n      tag_19\n      jump\t// in\n    tag_18:\n      tag_20\n      jump\t// in\n    tag_17:\n      stop\n        /* \"utils/debug.sol\":243:326  function log(string calldata s, int256 x) public {... */\n    tag_6:\n      tag_21\n      0x04\n      dup1\n      calldatasize\n      sub\n      dup2\n      add\n      swap1\n      tag_22\n      swap2\n      swap1\n      tag_23\n      jump\t// in\n    tag_22:\n      tag_24\n      jump\t// in\n    tag_21:\n      stop\n        /* \"utils/debug.sol\":117:202  function log(string calldata s, uint256 x) public {... */\n    tag_7:\n      tag_25\n      0x04\n      dup1\n      calldatasize\n      sub\n      dup2\n      add\n      swap1\n      tag_26\n      swap2\n      swap1\n      tag_27\n      jump\t// in\n    tag_26:\n      tag_28\n      jump\t// in\n    tag_25:\n      stop\n        /* \"utils/debug.sol\":769:851  function log(string calldata s, bool x) public {... */\n    tag_8:\n      tag_29\n      0x04\n      dup1\n      calldatasize\n      sub\n      dup2\n      add\n      swap1\n      tag_30\n      swap2\n      swap1\n      tag_31\n      jump\t// in\n    tag_30:\n      tag_32\n      jump\t// in\n    tag_29:\n      stop\n        /* \"utils/debug.sol\":368:461  function log(string calldata s, bytes calldata x) public {... */\n    tag_12:\n        /* \"utils/debug.sol\":440:454  LogBytes(s, x) */\n      0xe8407a0209fa99ec3a7228aff140c3d3e68bd279391739c7e0b65cd406cc93b5\n        /* \"utils/debug.sol\":449:450  s */\n      dup5\n      dup5\n        /* \"utils/debug.sol\":452:453  x */\n      dup5\n      dup5\n        /* \"utils/debug.sol\":440:454  LogBytes(s, x) */\n      mload(0x40)\n      tag_34\n      swap5\n      swap4\n      swap3\n      swap2\n      swap1\n      tag_35\n      jump\t// in\n    tag_34:\n      mload(0x40)\n      dup1\n      swap2\n      sub\n      swap1\n      log1\n        /* \"utils/debug.sol\":368:461  function log(string calldata s, bytes calldata x) public {... */\n      pop\n      pop\n      pop\n      pop\n      jump\t// out\n        /* \"utils/debug.sol\":641:729  function log(string calldata s, address x) public {... */\n    tag_16:\n        /* \"utils/debug.sol\":706:722  LogAddress(s, x) */\n      0x62ddffe5b5108385f7a590f100e1ee414ad9551a31f089e64e82998440785e1e\n        /* \"utils/debug.sol\":717:718  s */\n      dup4\n      dup4\n        /* \"utils/debug.sol\":720:721  x */\n      dup4\n        /* \"utils/debug.sol\":706:722  LogAddress(s, x) */\n      mload(0x40)\n      tag_37\n      swap4\n      swap3\n      swap2\n      swap1\n      tag_38\n      jump\t// in\n    tag_37:\n      mload(0x40)\n      dup1\n      swap2\n      sub\n      swap1\n      log1\n        /* \"utils/debug.sol\":641:729  function log(string calldata s, address x) public {... */\n      pop\n      pop\n      pop\n      jump\t// out\n        /* \"utils/debug.sol\":507:595  function log(string calldata s, bytes32 x) public {... */\n    tag_20:\n        /* \"utils/debug.sol\":572:588  LogBytes32(s, x) */\n      0x02d93529bba9d141e5e06733c52c7e6fbcb1149586adb5c24064b522ab26f1d7\n        /* \"utils/debug.sol\":583:584  s */\n      dup4\n      dup4\n        /* \"utils/debug.sol\":586:587  x */\n      dup4\n        /* \"utils/debug.sol\":572:588  LogBytes32(s, x) */\n      mload(0x40)\n      tag_40\n      swap4\n      swap3\n      swap2\n      swap1\n      tag_41\n      jump\t// in\n    tag_40:\n      mload(0x40)\n      dup1\n      swap2\n      sub\n      swap1\n      log1\n        /* \"utils/debug.sol\":507:595  function log(string calldata s, bytes32 x) public {... */\n      pop\n      pop\n      pop\n      jump\t// out\n        /* \"utils/debug.sol\":243:326  function log(string calldata s, int256 x) public {... */\n    tag_24:\n        /* \"utils/debug.sol\":307:319  LogInt(s, x) */\n      0x6a837ff3973aa4181e7b9f07756f8b7ee366dd85a36655d2cb42cd47f10b9638\n        /* \"utils/debug.sol\":314:315  s */\n      dup4\n      dup4\n        /* \"utils/debug.sol\":317:318  x */\n      dup4\n        /* \"utils/debug.sol\":307:319  LogInt(s, x) */\n      mload(0x40)\n      tag_43\n      swap4\n      swap3\n      swap2\n      swap1\n      tag_44\n      jump\t// in\n    tag_43:\n      mload(0x40)\n      dup1\n      swap2\n      sub\n      swap1\n      log1\n        /* \"utils/debug.sol\":243:326  function log(string calldata s, int256 x) public {... */\n      pop\n      pop\n      pop\n      jump\t// out\n        /* \"utils/debug.sol\":117:202  function log(string calldata s, uint256 x) public {... */\n    tag_28:\n        /* \"utils/debug.sol\":182:195  LogUint(s, x) */\n      0x941296a39ea107bde685522318a4b6c2b544904a5dd82a512748ca2cf839bef7\n        /* \"utils/debug.sol\":190:191  s */\n      dup4\n      dup4\n        /* \"utils/debug.sol\":193:194  x */\n      dup4\n        /* \"utils/debug.sol\":182:195  LogUint(s, x) */\n      mload(0x40)\n      tag_46\n      swap4\n      swap3\n      swap2\n      swap1\n      tag_47\n      jump\t// in\n    tag_46:\n      mload(0x40)\n      dup1\n      swap2\n      sub\n      swap1\n      log1\n        /* \"utils/debug.sol\":117:202  function log(string calldata s, uint256 x) public {... */\n      pop\n      pop\n      pop\n      jump\t// out\n        /* \"utils/debug.sol\":769:851  function log(string calldata s, bool x) public {... */\n    tag_32:\n        /* \"utils/debug.sol\":831:844  LogBool(s, x) */\n      0x4c34c2f9a78632f29fa59aaed5514cb742fd9fbcfd7ccc2c03c85f2bbc621c47\n        /* \"utils/debug.sol\":839:840  s */\n      dup4\n      dup4\n        /* \"utils/debug.sol\":842:843  x */\n      dup4\n        /* \"utils/debug.sol\":831:844  LogBool(s, x) */\n      mload(0x40)\n      tag_49\n      swap4\n      swap3\n      swap2\n      swap1\n      tag_50\n      jump\t// in\n    tag_49:\n      mload(0x40)\n      dup1\n      swap2\n      sub\n      swap1\n      log1\n        /* \"utils/debug.sol\":769:851  function log(string calldata s, bool x) public {... */\n      pop\n      pop\n      pop\n      jump\t// out\n        /* \"#utility.yul\":88:205   */\n    tag_52:\n        /* \"#utility.yul\":197:198   */\n      0x00\n        /* \"#utility.yul\":194:195   */\n      dup1\n        /* \"#utility.yul\":187:199   */\n      revert\n        /* \"#utility.yul\":211:328   */\n    tag_53:\n        /* \"#utility.yul\":320:321   */\n      0x00\n        /* \"#utility.yul\":317:318   */\n      dup1\n        /* \"#utility.yul\":310:322   */\n      revert\n        /* \"#utility.yul\":334:451   */\n    tag_54:\n        /* \"#utility.yul\":443:444   */\n      0x00\n        /* \"#utility.yul\":440:441   */\n      dup1\n        /* \"#utility.yul\":433:445   */\n      revert\n        /* \"#utility.yul\":457:574   */\n    tag_55:\n        /* \"#utility.yul\":566:567   */\n      0x00\n        /* \"#utility.yul\":563:564   */\n      dup1\n        /* \"#utility.yul\":556:568   */\n      revert\n        /* \"#utility.yul\":580:697   */\n    tag_56:\n        /* \"#utility.yul\":689:690   */\n      0x00\n        /* \"#utility.yul\":686:687   */\n      dup1\n        /* \"#utility.yul\":679:691   */\n      revert\n        /* \"#utility.yul\":717:1270   */\n    tag_57:\n        /* \"#utility.yul\":775:783   */\n      0x00\n        /* \"#utility.yul\":785:791   */\n      dup1\n        /* \"#utility.yul\":835:838   */\n      dup4\n        /* \"#utility.yul\":828:832   */\n      0x1f\n        /* \"#utility.yul\":820:826   */\n      dup5\n        /* \"#utility.yul\":816:833   */\n      add\n        /* \"#utility.yul\":812:839   */\n      slt\n        /* \"#utility.yul\":802:924   */\n      tag_94\n      jumpi\n        /* \"#utility.yul\":843:922   */\n      tag_95\n      tag_54\n      jump\t// in\n    tag_95:\n        /* \"#utility.yul\":802:924   */\n    tag_94:\n        /* \"#utility.yul\":956:962   */\n      dup3\n        /* \"#utility.yul\":943:963   */\n      calldataload\n        /* \"#utility.yul\":933:963   */\n      swap1\n      pop\n        /* \"#utility.yul\":986:1004   */\n      0xffffffffffffffff\n        /* \"#utility.yul\":978:984   */\n      dup2\n        /* \"#utility.yul\":975:1005   */\n      gt\n        /* \"#utility.yul\":972:1089   */\n      iszero\n      tag_96\n      jumpi\n        /* \"#utility.yul\":1008:1087   */\n      tag_97\n      tag_55\n      jump\t// in\n    tag_97:\n        /* \"#utility.yul\":972:1089   */\n    tag_96:\n        /* \"#utility.yul\":1122:1126   */\n      0x20\n        /* \"#utility.yul\":1114:1120   */\n      dup4\n        /* \"#utility.yul\":1110:1127   */\n      add\n        /* \"#utility.yul\":1098:1127   */\n      swap2\n      pop\n        /* \"#utility.yul\":1176:1179   */\n      dup4\n        /* \"#utility.yul\":1168:1172   */\n      0x01\n        /* \"#utility.yul\":1160:1166   */\n      dup3\n        /* \"#utility.yul\":1156:1173   */\n      mul\n        /* \"#utility.yul\":1146:1154   */\n      dup4\n        /* \"#utility.yul\":1142:1174   */\n      add\n        /* \"#utility.yul\":1139:1180   */\n      gt\n        /* \"#utility.yul\":1136:1264   */\n      iszero\n      tag_98\n      jumpi\n        /* \"#utility.yul\":1183:1262   */\n      tag_99\n      tag_56\n      jump\t// in\n    tag_99:\n        /* \"#utility.yul\":1136:1264   */\n    tag_98:\n        /* \"#utility.yul\":717:1270   */\n      swap3\n      pop\n      swap3\n      swap1\n      pop\n      jump\t// out\n        /* \"#utility.yul\":1289:1841   */\n    tag_58:\n        /* \"#utility.yul\":1346:1354   */\n      0x00\n        /* \"#utility.yul\":1356:1362   */\n      dup1\n        /* \"#utility.yul\":1406:1409   */\n      dup4\n        /* \"#utility.yul\":1399:1403   */\n      0x1f\n        /* \"#utility.yul\":1391:1397   */\n      dup5\n        /* \"#utility.yul\":1387:1404   */\n      add\n        /* \"#utility.yul\":1383:1410   */\n      slt\n        /* \"#utility.yul\":1373:1495   */\n      tag_101\n      jumpi\n        /* \"#utility.yul\":1414:1493   */\n      tag_102\n      tag_54\n      jump\t// in\n    tag_102:\n        /* \"#utility.yul\":1373:1495   */\n    tag_101:\n        /* \"#utility.yul\":1527:1533   */\n      dup3\n        /* \"#utility.yul\":1514:1534   */\n      calldataload\n        /* \"#utility.yul\":1504:1534   */\n      swap1\n      pop\n        /* \"#utility.yul\":1557:1575   */\n      0xffffffffffffffff\n        /* \"#utility.yul\":1549:1555   */\n      dup2\n        /* \"#utility.yul\":1546:1576   */\n      gt\n        /* \"#utility.yul\":1543:1660   */\n      iszero\n      tag_103\n      jumpi\n        /* \"#utility.yul\":1579:1658   */\n      tag_104\n      tag_55\n      jump\t// in\n    tag_104:\n        /* \"#utility.yul\":1543:1660   */\n    tag_103:\n        /* \"#utility.yul\":1693:1697   */\n      0x20\n        /* \"#utility.yul\":1685:1691   */\n      dup4\n        /* \"#utility.yul\":1681:1698   */\n      add\n        /* \"#utility.yul\":1669:1698   */\n      swap2\n      pop\n        /* \"#utility.yul\":1747:1750   */\n      dup4\n        /* \"#utility.yul\":1739:1743   */\n      0x01\n        /* \"#utility.yul\":1731:1737   */\n      dup3\n        /* \"#utility.yul\":1727:1744   */\n      mul\n        /* \"#utility.yul\":1717:1725   */\n      dup4\n        /* \"#utility.yul\":1713:1745   */\n      add\n        /* \"#utility.yul\":1710:1751   */\n      gt\n        /* \"#utility.yul\":1707:1835   */\n      iszero\n      tag_105\n      jumpi\n        /* \"#utility.yul\":1754:1833   */\n      tag_106\n      tag_56\n      jump\t// in\n    tag_106:\n        /* \"#utility.yul\":1707:1835   */\n    tag_105:\n        /* \"#utility.yul\":1289:1841   */\n      swap3\n      pop\n      swap3\n      swap1\n      pop\n      jump\t// out\n        /* \"#utility.yul\":1847:2719   */\n    tag_11:\n        /* \"#utility.yul\":1938:1944   */\n      0x00\n        /* \"#utility.yul\":1946:1952   */\n      dup1\n        /* \"#utility.yul\":1954:1960   */\n      0x00\n        /* \"#utility.yul\":1962:1968   */\n      dup1\n        /* \"#utility.yul\":2011:2013   */\n      0x40\n        /* \"#utility.yul\":1999:2008   */\n      dup6\n        /* \"#utility.yul\":1990:1997   */\n      dup8\n        /* \"#utility.yul\":1986:2009   */\n      sub\n        /* \"#utility.yul\":1982:2014   */\n      slt\n        /* \"#utility.yul\":1979:2098   */\n      iszero\n      tag_108\n      jumpi\n        /* \"#utility.yul\":2017:2096   */\n      tag_109\n      tag_52\n      jump\t// in\n    tag_109:\n        /* \"#utility.yul\":1979:2098   */\n    tag_108:\n        /* \"#utility.yul\":2165:2166   */\n      0x00\n        /* \"#utility.yul\":2154:2163   */\n      dup6\n        /* \"#utility.yul\":2150:2167   */\n      add\n        /* \"#utility.yul\":2137:2168   */\n      calldataload\n        /* \"#utility.yul\":2195:2213   */\n      0xffffffffffffffff\n        /* \"#utility.yul\":2187:2193   */\n      dup2\n        /* \"#utility.yul\":2184:2214   */\n      gt\n        /* \"#utility.yul\":2181:2298   */\n      iszero\n      tag_110\n      jumpi\n        /* \"#utility.yul\":2217:2296   */\n      tag_111\n      tag_53\n      jump\t// in\n    tag_111:\n        /* \"#utility.yul\":2181:2298   */\n    tag_110:\n        /* \"#utility.yul\":2330:2395   */\n      tag_112\n        /* \"#utility.yul\":2387:2394   */\n      dup8\n        /* \"#utility.yul\":2378:2384   */\n      dup3\n        /* \"#utility.yul\":2367:2376   */\n      dup9\n        /* \"#utility.yul\":2363:2385   */\n      add\n        /* \"#utility.yul\":2330:2395   */\n      tag_57\n      jump\t// in\n    tag_112:\n        /* \"#utility.yul\":2312:2395   */\n      swap5\n      pop\n      swap5\n      pop\n        /* \"#utility.yul\":2108:2405   */\n      pop\n        /* \"#utility.yul\":2472:2474   */\n      0x20\n        /* \"#utility.yul\":2461:2470   */\n      dup6\n        /* \"#utility.yul\":2457:2475   */\n      add\n        /* \"#utility.yul\":2444:2476   */\n      calldataload\n        /* \"#utility.yul\":2503:2521   */\n      0xffffffffffffffff\n        /* \"#utility.yul\":2495:2501   */\n      dup2\n        /* \"#utility.yul\":2492:2522   */\n      gt\n        /* \"#utility.yul\":2489:2606   */\n      iszero\n      tag_113\n      jumpi\n        /* \"#utility.yul\":2525:2604   */\n      tag_114\n      tag_53\n      jump\t// in\n    tag_114:\n        /* \"#utility.yul\":2489:2606   */\n    tag_113:\n        /* \"#utility.yul\":2638:2702   */\n      tag_115\n        /* \"#utility.yul\":2694:2701   */\n      dup8\n        /* \"#utility.yul\":2685:2691   */\n      dup3\n        /* \"#utility.yul\":2674:2683   */\n      dup9\n        /* \"#utility.yul\":2670:2692   */\n      add\n        /* \"#utility.yul\":2638:2702   */\n      tag_58\n      jump\t// in\n    tag_115:\n        /* \"#utility.yul\":2620:2702   */\n      swap3\n      pop\n      swap3\n      pop\n        /* \"#utility.yul\":2415:2712   */\n      pop\n        /* \"#utility.yul\":1847:2719   */\n      swap3\n      swap6\n      swap2\n      swap5\n      pop\n      swap3\n      pop\n      jump\t// out\n        /* \"#utility.yul\":2725:2851   */\n    tag_59:\n        /* \"#utility.yul\":2762:2769   */\n      0x00\n        /* \"#utility.yul\":2802:2844   */\n      0xffffffffffffffffffffffffffffffffffffffff\n        /* \"#utility.yul\":2795:2800   */\n      dup3\n        /* \"#utility.yul\":2791:2845   */\n      and\n        /* \"#utility.yul\":2780:2845   */\n      swap1\n      pop\n        /* \"#utility.yul\":2725:2851   */\n      swap2\n      swap1\n      pop\n      jump\t// out\n        /* \"#utility.yul\":2857:2953   */\n    tag_60:\n        /* \"#utility.yul\":2894:2901   */\n      0x00\n        /* \"#utility.yul\":2923:2947   */\n      tag_118\n        /* \"#utility.yul\":2941:2946   */\n      dup3\n        /* \"#utility.yul\":2923:2947   */\n      tag_59\n      jump\t// in\n    tag_118:\n        /* \"#utility.yul\":2912:2947   */\n      swap1\n      pop\n        /* \"#utility.yul\":2857:2953   */\n      swap2\n      swap1\n      pop\n      jump\t// out\n        /* \"#utility.yul\":2959:3081   */\n    tag_61:\n        /* \"#utility.yul\":3032:3056   */\n      tag_120\n        /* \"#utility.yul\":3050:3055   */\n      dup2\n        /* \"#utility.yul\":3032:3056   */\n      tag_60\n      jump\t// in\n    tag_120:\n        /* \"#utility.yul\":3025:3030   */\n      dup2\n        /* \"#utility.yul\":3022:3057   */\n      eq\n        /* \"#utility.yul\":3012:3075   */\n      tag_121\n      jumpi\n        /* \"#utility.yul\":3071:3072   */\n      0x00\n        /* \"#utility.yul\":3068:3069   */\n      dup1\n        /* \"#utility.yul\":3061:3073   */\n      revert\n        /* \"#utility.yul\":3012:3075   */\n    tag_121:\n        /* \"#utility.yul\":2959:3081   */\n      pop\n      jump\t// out\n        /* \"#utility.yul\":3087:3226   */\n    tag_62:\n        /* \"#utility.yul\":3133:3138   */\n      0x00\n        /* \"#utility.yul\":3171:3177   */\n      dup2\n        /* \"#utility.yul\":3158:3178   */\n      calldataload\n        /* \"#utility.yul\":3149:3178   */\n      swap1\n      pop\n        /* \"#utility.yul\":3187:3220   */\n      tag_123\n        /* \"#utility.yul\":3214:3219   */\n      dup2\n        /* \"#utility.yul\":3187:3220   */\n      tag_61\n      jump\t// in\n    tag_123:\n        /* \"#utility.yul\":3087:3226   */\n      swap3\n      swap2\n      pop\n      pop\n      jump\t// out\n        /* \"#utility.yul\":3232:3906   */\n    tag_15:\n        /* \"#utility.yul\":3312:3318   */\n      0x00\n        /* \"#utility.yul\":3320:3326   */\n      dup1\n        /* \"#utility.yul\":3328:3334   */\n      0x00\n        /* \"#utility.yul\":3377:3379   */\n      0x40\n        /* \"#utility.yul\":3365:3374   */\n      dup5\n        /* \"#utility.yul\":3356:3363   */\n      dup7\n        /* \"#utility.yul\":3352:3375   */\n      sub\n        /* \"#utility.yul\":3348:3380   */\n      slt\n        /* \"#utility.yul\":3345:3464   */\n      iszero\n      tag_125\n      jumpi\n        /* \"#utility.yul\":3383:3462   */\n      tag_126\n      tag_52\n      jump\t// in\n    tag_126:\n        /* \"#utility.yul\":3345:3464   */\n    tag_125:\n        /* \"#utility.yul\":3531:3532   */\n      0x00\n        /* \"#utility.yul\":3520:3529   */\n      dup5\n        /* \"#utility.yul\":3516:3533   */\n      add\n        /* \"#utility.yul\":3503:3534   */\n      calldataload\n        /* \"#utility.yul\":3561:3579   */\n      0xffffffffffffffff\n        /* \"#utility.yul\":3553:3559   */\n      dup2\n        /* \"#utility.yul\":3550:3580   */\n      gt\n        /* \"#utility.yul\":3547:3664   */\n      iszero\n      tag_127\n      jumpi\n        /* \"#utility.yul\":3583:3662   */\n      tag_128\n      tag_53\n      jump\t// in\n    tag_128:\n        /* \"#utility.yul\":3547:3664   */\n    tag_127:\n        /* \"#utility.yul\":3696:3761   */\n      tag_129\n        /* \"#utility.yul\":3753:3760   */\n      dup7\n        /* \"#utility.yul\":3744:3750   */\n      dup3\n        /* \"#utility.yul\":3733:3742   */\n      dup8\n        /* \"#utility.yul\":3729:3751   */\n      add\n        /* \"#utility.yul\":3696:3761   */\n      tag_57\n      jump\t// in\n    tag_129:\n        /* \"#utility.yul\":3678:3761   */\n      swap4\n      pop\n      swap4\n      pop\n        /* \"#utility.yul\":3474:3771   */\n      pop\n        /* \"#utility.yul\":3810:3812   */\n      0x20\n        /* \"#utility.yul\":3836:3889   */\n      tag_130\n        /* \"#utility.yul\":3881:3888   */\n      dup7\n        /* \"#utility.yul\":3872:3878   */\n      dup3\n        /* \"#utility.yul\":3861:3870   */\n      dup8\n        /* \"#utility.yul\":3857:3879   */\n      add\n        /* \"#utility.yul\":3836:3889   */\n      tag_62\n      jump\t// in\n    tag_130:\n        /* \"#utility.yul\":3826:3889   */\n      swap2\n      pop\n        /* \"#utility.yul\":3781:3899   */\n      pop\n        /* \"#utility.yul\":3232:3906   */\n      swap3\n      pop\n      swap3\n      pop\n      swap3\n      jump\t// out\n        /* \"#utility.yul\":3912:3989   */\n    tag_63:\n        /* \"#utility.yul\":3949:3956   */\n      0x00\n        /* \"#utility.yul\":3978:3983   */\n      dup2\n        /* \"#utility.yul\":3967:3983   */\n      swap1\n      pop\n        /* \"#utility.yul\":3912:3989   */\n      swap2\n      swap1\n      pop\n      jump\t// out\n        /* \"#utility.yul\":3995:4117   */\n    tag_64:\n        /* \"#utility.yul\":4068:4092   */\n      tag_133\n        /* \"#utility.yul\":4086:4091   */\n      dup2\n        /* \"#utility.yul\":4068:4092   */\n      tag_63\n      jump\t// in\n    tag_133:\n        /* \"#utility.yul\":4061:4066   */\n      dup2\n        /* \"#utility.yul\":4058:4093   */\n      eq\n        /* \"#utility.yul\":4048:4111   */\n      tag_134\n      jumpi\n        /* \"#utility.yul\":4107:4108   */\n      0x00\n        /* \"#utility.yul\":4104:4105   */\n      dup1\n        /* \"#utility.yul\":4097:4109   */\n      revert\n        /* \"#utility.yul\":4048:4111   */\n    tag_134:\n        /* \"#utility.yul\":3995:4117   */\n      pop\n      jump\t// out\n        /* \"#utility.yul\":4123:4262   */\n    tag_65:\n        /* \"#utility.yul\":4169:4174   */\n      0x00\n        /* \"#utility.yul\":4207:4213   */\n      dup2\n        /* \"#utility.yul\":4194:4214   */\n      calldataload\n        /* \"#utility.yul\":4185:4214   */\n      swap1\n      pop\n        /* \"#utility.yul\":4223:4256   */\n      tag_136\n        /* \"#utility.yul\":4250:4255   */\n      dup2\n        /* \"#utility.yul\":4223:4256   */\n      tag_64\n      jump\t// in\n    tag_136:\n        /* \"#utility.yul\":4123:4262   */\n      swap3\n      swap2\n      pop\n      pop\n      jump\t// out\n        /* \"#utility.yul\":4268:4942   */\n    tag_19:\n        /* \"#utility.yul\":4348:4354   */\n      0x00\n        /* \"#utility.yul\":4356:4362   */\n      dup1\n        /* \"#utility.yul\":4364:4370   */\n      0x00\n        /* \"#utility.yul\":4413:4415   */\n      0x40\n        /* \"#utility.yul\":4401:4410   */\n      dup5\n        /* \"#utility.yul\":4392:4399   */\n      dup7\n        /* \"#utility.yul\":4388:4411   */\n      sub\n        /* \"#utility.yul\":4384:4416   */\n      slt\n        /* \"#utility.yul\":4381:4500   */\n      iszero\n      tag_138\n      jumpi\n        /* \"#utility.yul\":4419:4498   */\n      tag_139\n      tag_52\n      jump\t// in\n    tag_139:\n        /* \"#utility.yul\":4381:4500   */\n    tag_138:\n        /* \"#utility.yul\":4567:4568   */\n      0x00\n        /* \"#utility.yul\":4556:4565   */\n      dup5\n        /* \"#utility.yul\":4552:4569   */\n      add\n        /* \"#utility.yul\":4539:4570   */\n      calldataload\n        /* \"#utility.yul\":4597:4615   */\n      0xffffffffffffffff\n        /* \"#utility.yul\":4589:4595   */\n      dup2\n        /* \"#utility.yul\":4586:4616   */\n      gt\n        /* \"#utility.yul\":4583:4700   */\n      iszero\n      tag_140\n      jumpi\n        /* \"#utility.yul\":4619:4698   */\n      tag_141\n      tag_53\n      jump\t// in\n    tag_141:\n        /* \"#utility.yul\":4583:4700   */\n    tag_140:\n        /* \"#utility.yul\":4732:4797   */\n      tag_142\n        /* \"#utility.yul\":4789:4796   */\n      dup7\n        /* \"#utility.yul\":4780:4786   */\n      dup3\n        /* \"#utility.yul\":4769:4778   */\n      dup8\n        /* \"#utility.yul\":4765:4787   */\n      add\n        /* \"#utility.yul\":4732:4797   */\n      tag_57\n      jump\t// in\n    tag_142:\n        /* \"#utility.yul\":4714:4797   */\n      swap4\n      pop\n      swap4\n      pop\n        /* \"#utility.yul\":4510:4807   */\n      pop\n        /* \"#utility.yul\":4846:4848   */\n      0x20\n        /* \"#utility.yul\":4872:4925   */\n      tag_143\n        /* \"#utility.yul\":4917:4924   */\n      dup7\n        /* \"#utility.yul\":4908:4914   */\n      dup3\n        /* \"#utility.yul\":4897:4906   */\n      dup8\n        /* \"#utility.yul\":4893:4915   */\n      add\n        /* \"#utility.yul\":4872:4925   */\n      tag_65\n      jump\t// in\n    tag_143:\n        /* \"#utility.yul\":4862:4925   */\n      swap2\n      pop\n        /* \"#utility.yul\":4817:4935   */\n      pop\n        /* \"#utility.yul\":4268:4942   */\n      swap3\n      pop\n      swap3\n      pop\n      swap3\n      jump\t// out\n        /* \"#utility.yul\":4948:5024   */\n    tag_66:\n        /* \"#utility.yul\":4984:4991   */\n      0x00\n        /* \"#utility.yul\":5013:5018   */\n      dup2\n        /* \"#utility.yul\":5002:5018   */\n      swap1\n      pop\n        /* \"#utility.yul\":4948:5024   */\n      swap2\n      swap1\n      pop\n      jump\t// out\n        /* \"#utility.yul\":5030:5150   */\n    tag_67:\n        /* \"#utility.yul\":5102:5125   */\n      tag_146\n        /* \"#utility.yul\":5119:5124   */\n      dup2\n        /* \"#utility.yul\":5102:5125   */\n      tag_66\n      jump\t// in\n    tag_146:\n        /* \"#utility.yul\":5095:5100   */\n      dup2\n        /* \"#utility.yul\":5092:5126   */\n      eq\n        /* \"#utility.yul\":5082:5144   */\n      tag_147\n      jumpi\n        /* \"#utility.yul\":5140:5141   */\n      0x00\n        /* \"#utility.yul\":5137:5138   */\n      dup1\n        /* \"#utility.yul\":5130:5142   */\n      revert\n        /* \"#utility.yul\":5082:5144   */\n    tag_147:\n        /* \"#utility.yul\":5030:5150   */\n      pop\n      jump\t// out\n        /* \"#utility.yul\":5156:5293   */\n    tag_68:\n        /* \"#utility.yul\":5201:5206   */\n      0x00\n        /* \"#utility.yul\":5239:5245   */\n      dup2\n        /* \"#utility.yul\":5226:5246   */\n      calldataload\n        /* \"#utility.yul\":5217:5246   */\n      swap1\n      pop\n        /* \"#utility.yul\":5255:5287   */\n      tag_149\n        /* \"#utility.yul\":5281:5286   */\n      dup2\n        /* \"#utility.yul\":5255:5287   */\n      tag_67\n      jump\t// in\n    tag_149:\n        /* \"#utility.yul\":5156:5293   */\n      swap3\n      swap2\n      pop\n      pop\n      jump\t// out\n        /* \"#utility.yul\":5299:5971   */\n    tag_23:\n        /* \"#utility.yul\":5378:5384   */\n      0x00\n        /* \"#utility.yul\":5386:5392   */\n      dup1\n        /* \"#utility.yul\":5394:5400   */\n      0x00\n        /* \"#utility.yul\":5443:5445   */\n      0x40\n        /* \"#utility.yul\":5431:5440   */\n      dup5\n        /* \"#utility.yul\":5422:5429   */\n      dup7\n        /* \"#utility.yul\":5418:5441   */\n      sub\n        /* \"#utility.yul\":5414:5446   */\n      slt\n        /* \"#utility.yul\":5411:5530   */\n      iszero\n      tag_151\n      jumpi\n        /* \"#utility.yul\":5449:5528   */\n      tag_152\n      tag_52\n      jump\t// in\n    tag_152:\n        /* \"#utility.yul\":5411:5530   */\n    tag_151:\n        /* \"#utility.yul\":5597:5598   */\n      0x00\n        /* \"#utility.yul\":5586:5595   */\n      dup5\n        /* \"#utility.yul\":5582:5599   */\n      add\n        /* \"#utility.yul\":5569:5600   */\n      calldataload\n        /* \"#utility.yul\":5627:5645   */\n      0xffffffffffffffff\n        /* \"#utility.yul\":5619:5625   */\n      dup2\n        /* \"#utility.yul\":5616:5646   */\n      gt\n        /* \"#utility.yul\":5613:5730   */\n      iszero\n      tag_153\n      jumpi\n        /* \"#utility.yul\":5649:5728   */\n      tag_154\n      tag_53\n      jump\t// in\n    tag_154:\n        /* \"#utility.yul\":5613:5730   */\n    tag_153:\n        /* \"#utility.yul\":5762:5827   */\n      tag_155\n        /* \"#utility.yul\":5819:5826   */\n      dup7\n        /* \"#utility.yul\":5810:5816   */\n      dup3\n        /* \"#utility.yul\":5799:5808   */\n      dup8\n        /* \"#utility.yul\":5795:5817   */\n      add\n        /* \"#utility.yul\":5762:5827   */\n      tag_57\n      jump\t// in\n    tag_155:\n        /* \"#utility.yul\":5744:5827   */\n      swap4\n      pop\n      swap4\n      pop\n        /* \"#utility.yul\":5540:5837   */\n      pop\n        /* \"#utility.yul\":5876:5878   */\n      0x20\n        /* \"#utility.yul\":5902:5954   */\n      tag_156\n        /* \"#utility.yul\":5946:5953   */\n      dup7\n        /* \"#utility.yul\":5937:5943   */\n      dup3\n        /* \"#utility.yul\":5926:5935   */\n      dup8\n        /* \"#utility.yul\":5922:5944   */\n      add\n        /* \"#utility.yul\":5902:5954   */\n      tag_68\n      jump\t// in\n    tag_156:\n        /* \"#utility.yul\":5892:5954   */\n      swap2\n      pop\n        /* \"#utility.yul\":5847:5964   */\n      pop\n        /* \"#utility.yul\":5299:5971   */\n      swap3\n      pop\n      swap3\n      pop\n      swap3\n      jump\t// out\n        /* \"#utility.yul\":5977:6054   */\n    tag_69:\n        /* \"#utility.yul\":6014:6021   */\n      0x00\n        /* \"#utility.yul\":6043:6048   */\n      dup2\n        /* \"#utility.yul\":6032:6048   */\n      swap1\n      pop\n        /* \"#utility.yul\":5977:6054   */\n      swap2\n      swap1\n      pop\n      jump\t// out\n        /* \"#utility.yul\":6060:6182   */\n    tag_70:\n        /* \"#utility.yul\":6133:6157   */\n      tag_159\n        /* \"#utility.yul\":6151:6156   */\n      dup2\n        /* \"#utility.yul\":6133:6157   */\n      tag_69\n      jump\t// in\n    tag_159:\n        /* \"#utility.yul\":6126:6131   */\n      dup2\n        /* \"#utility.yul\":6123:6158   */\n      eq\n        /* \"#utility.yul\":6113:6176   */\n      tag_160\n      jumpi\n        /* \"#utility.yul\":6172:6173   */\n      0x00\n        /* \"#utility.yul\":6169:6170   */\n      dup1\n        /* \"#utility.yul\":6162:6174   */\n      revert\n        /* \"#utility.yul\":6113:6176   */\n    tag_160:\n        /* \"#utility.yul\":6060:6182   */\n      pop\n      jump\t// out\n        /* \"#utility.yul\":6188:6327   */\n    tag_71:\n        /* \"#utility.yul\":6234:6239   */\n      0x00\n        /* \"#utility.yul\":6272:6278   */\n      dup2\n        /* \"#utility.yul\":6259:6279   */\n      calldataload\n        /* \"#utility.yul\":6250:6279   */\n      swap1\n      pop\n        /* \"#utility.yul\":6288:6321   */\n      tag_162\n        /* \"#utility.yul\":6315:6320   */\n      dup2\n        /* \"#utility.yul\":6288:6321   */\n      tag_70\n      jump\t// in\n    tag_162:\n        /* \"#utility.yul\":6188:6327   */\n      swap3\n      swap2\n      pop\n      pop\n      jump\t// out\n        /* \"#utility.yul\":6333:7007   */\n    tag_27:\n        /* \"#utility.yul\":6413:6419   */\n      0x00\n        /* \"#utility.yul\":6421:6427   */\n      dup1\n        /* \"#utility.yul\":6429:6435   */\n      0x00\n        /* \"#utility.yul\":6478:6480   */\n      0x40\n        /* \"#utility.yul\":6466:6475   */\n      dup5\n        /* \"#utility.yul\":6457:6464   */\n      dup7\n        /* \"#utility.yul\":6453:6476   */\n      sub\n        /* \"#utility.yul\":6449:6481   */\n      slt\n        /* \"#utility.yul\":6446:6565   */\n      iszero\n      tag_164\n      jumpi\n        /* \"#utility.yul\":6484:6563   */\n      tag_165\n      tag_52\n      jump\t// in\n    tag_165:\n        /* \"#utility.yul\":6446:6565   */\n    tag_164:\n        /* \"#utility.yul\":6632:6633   */\n      0x00\n        /* \"#utility.yul\":6621:6630   */\n      dup5\n        /* \"#utility.yul\":6617:6634   */\n      add\n        /* \"#utility.yul\":6604:6635   */\n      calldataload\n        /* \"#utility.yul\":6662:6680   */\n      0xffffffffffffffff\n        /* \"#utility.yul\":6654:6660   */\n      dup2\n        /* \"#utility.yul\":6651:6681   */\n      gt\n        /* \"#utility.yul\":6648:6765   */\n      iszero\n      tag_166\n      jumpi\n        /* \"#utility.yul\":6684:6763   */\n      tag_167\n      tag_53\n      jump\t// in\n    tag_167:\n        /* \"#utility.yul\":6648:6765   */\n    tag_166:\n        /* \"#utility.yul\":6797:6862   */\n      tag_168\n        /* \"#utility.yul\":6854:6861   */\n      dup7\n        /* \"#utility.yul\":6845:6851   */\n      dup3\n        /* \"#utility.yul\":6834:6843   */\n      dup8\n        /* \"#utility.yul\":6830:6852   */\n      add\n        /* \"#utility.yul\":6797:6862   */\n      tag_57\n      jump\t// in\n    tag_168:\n        /* \"#utility.yul\":6779:6862   */\n      swap4\n      pop\n      swap4\n      pop\n        /* \"#utility.yul\":6575:6872   */\n      pop\n        /* \"#utility.yul\":6911:6913   */\n      0x20\n        /* \"#utility.yul\":6937:6990   */\n      tag_169\n        /* \"#utility.yul\":6982:6989   */\n      dup7\n        /* \"#utility.yul\":6973:6979   */\n      dup3\n        /* \"#utility.yul\":6962:6971   */\n      dup8\n        /* \"#utility.yul\":6958:6980   */\n      add\n        /* \"#utility.yul\":6937:6990   */\n      tag_71\n      jump\t// in\n    tag_169:\n        /* \"#utility.yul\":6927:6990   */\n      swap2\n      pop\n        /* \"#utility.yul\":6882:7000   */\n      pop\n        /* \"#utility.yul\":6333:7007   */\n      swap3\n      pop\n      swap3\n      pop\n      swap3\n      jump\t// out\n        /* \"#utility.yul\":7013:7103   */\n    tag_72:\n        /* \"#utility.yul\":7047:7054   */\n      0x00\n        /* \"#utility.yul\":7090:7095   */\n      dup2\n        /* \"#utility.yul\":7083:7096   */\n      iszero\n        /* \"#utility.yul\":7076:7097   */\n      iszero\n        /* \"#utility.yul\":7065:7097   */\n      swap1\n      pop\n        /* \"#utility.yul\":7013:7103   */\n      swap2\n      swap1\n      pop\n      jump\t// out\n        /* \"#utility.yul\":7109:7225   */\n    tag_73:\n        /* \"#utility.yul\":7179:7200   */\n      tag_172\n        /* \"#utility.yul\":7194:7199   */\n      dup2\n        /* \"#utility.yul\":7179:7200   */\n      tag_72\n      jump\t// in\n    tag_172:\n        /* \"#utility.yul\":7172:7177   */\n      dup2\n        /* \"#utility.yul\":7169:7201   */\n      eq\n        /* \"#utility.yul\":7159:7219   */\n      tag_173\n      jumpi\n        /* \"#utility.yul\":7215:7216   */\n      0x00\n        /* \"#utility.yul\":7212:7213   */\n      dup1\n        /* \"#utility.yul\":7205:7217   */\n      revert\n        /* \"#utility.yul\":7159:7219   */\n    tag_173:\n        /* \"#utility.yul\":7109:7225   */\n      pop\n      jump\t// out\n        /* \"#utility.yul\":7231:7364   */\n    tag_74:\n        /* \"#utility.yul\":7274:7279   */\n      0x00\n        /* \"#utility.yul\":7312:7318   */\n      dup2\n        /* \"#utility.yul\":7299:7319   */\n      calldataload\n        /* \"#utility.yul\":7290:7319   */\n      swap1\n      pop\n        /* \"#utility.yul\":7328:7358   */\n      tag_175\n        /* \"#utility.yul\":7352:7357   */\n      dup2\n        /* \"#utility.yul\":7328:7358   */\n      tag_73\n      jump\t// in\n    tag_175:\n        /* \"#utility.yul\":7231:7364   */\n      swap3\n      swap2\n      pop\n      pop\n      jump\t// out\n        /* \"#utility.yul\":7370:8038   */\n    tag_31:\n        /* \"#utility.yul\":7447:7453   */\n      0x00\n        /* \"#utility.yul\":7455:7461   */\n      dup1\n        /* \"#utility.yul\":7463:7469   */\n      0x00\n        /* \"#utility.yul\":7512:7514   */\n      0x40\n        /* \"#utility.yul\":7500:7509   */\n      dup5\n        /* \"#utility.yul\":7491:7498   */\n      dup7\n        /* \"#utility.yul\":7487:7510   */\n      sub\n        /* \"#utility.yul\":7483:7515   */\n      slt\n        /* \"#utility.yul\":7480:7599   */\n      iszero\n      tag_177\n      jumpi\n        /* \"#utility.yul\":7518:7597   */\n      tag_178\n      tag_52\n      jump\t// in\n    tag_178:\n        /* \"#utility.yul\":7480:7599   */\n    tag_177:\n        /* \"#utility.yul\":7666:7667   */\n      0x00\n        /* \"#utility.yul\":7655:7664   */\n      dup5\n        /* \"#utility.yul\":7651:7668   */\n      add\n        /* \"#utility.yul\":7638:7669   */\n      calldataload\n        /* \"#utility.yul\":7696:7714   */\n      0xffffffffffffffff\n        /* \"#utility.yul\":7688:7694   */\n      dup2\n        /* \"#utility.yul\":7685:7715   */\n      gt\n        /* \"#utility.yul\":7682:7799   */\n      iszero\n      tag_179\n      jumpi\n        /* \"#utility.yul\":7718:7797   */\n      tag_180\n      tag_53\n      jump\t// in\n    tag_180:\n        /* \"#utility.yul\":7682:7799   */\n    tag_179:\n        /* \"#utility.yul\":7831:7896   */\n      tag_181\n        /* \"#utility.yul\":7888:7895   */\n      dup7\n        /* \"#utility.yul\":7879:7885   */\n      dup3\n        /* \"#utility.yul\":7868:7877   */\n      dup8\n        /* \"#utility.yul\":7864:7886   */\n      add\n        /* \"#utility.yul\":7831:7896   */\n      tag_57\n      jump\t// in\n    tag_181:\n        /* \"#utility.yul\":7813:7896   */\n      swap4\n      pop\n      swap4\n      pop\n        /* \"#utility.yul\":7609:7906   */\n      pop\n        /* \"#utility.yul\":7945:7947   */\n      0x20\n        /* \"#utility.yul\":7971:8021   */\n      tag_182\n        /* \"#utility.yul\":8013:8020   */\n      dup7\n        /* \"#utility.yul\":8004:8010   */\n      dup3\n        /* \"#utility.yul\":7993:8002   */\n      dup8\n        /* \"#utility.yul\":7989:8011   */\n      add\n        /* \"#utility.yul\":7971:8021   */\n      tag_74\n      jump\t// in\n    tag_182:\n        /* \"#utility.yul\":7961:8021   */\n      swap2\n      pop\n        /* \"#utility.yul\":7916:8031   */\n      pop\n        /* \"#utility.yul\":7370:8038   */\n      swap3\n      pop\n      swap3\n      pop\n      swap3\n      jump\t// out\n        /* \"#utility.yul\":8044:8213   */\n    tag_75:\n        /* \"#utility.yul\":8128:8139   */\n      0x00\n        /* \"#utility.yul\":8162:8168   */\n      dup3\n        /* \"#utility.yul\":8157:8160   */\n      dup3\n        /* \"#utility.yul\":8150:8169   */\n      mstore\n        /* \"#utility.yul\":8202:8206   */\n      0x20\n        /* \"#utility.yul\":8197:8200   */\n      dup3\n        /* \"#utility.yul\":8193:8207   */\n      add\n        /* \"#utility.yul\":8178:8207   */\n      swap1\n      pop\n        /* \"#utility.yul\":8044:8213   */\n      swap3\n      swap2\n      pop\n      pop\n      jump\t// out\n        /* \"#utility.yul\":8219:8365   */\n    tag_76:\n        /* \"#utility.yul\":8316:8322   */\n      dup3\n        /* \"#utility.yul\":8311:8314   */\n      dup2\n        /* \"#utility.yul\":8306:8309   */\n      dup4\n        /* \"#utility.yul\":8293:8323   */\n      calldatacopy\n        /* \"#utility.yul\":8357:8358   */\n      0x00\n        /* \"#utility.yul\":8348:8354   */\n      dup4\n        /* \"#utility.yul\":8343:8346   */\n      dup4\n        /* \"#utility.yul\":8339:8355   */\n      add\n        /* \"#utility.yul\":8332:8359   */\n      mstore\n        /* \"#utility.yul\":8219:8365   */\n      pop\n      pop\n      pop\n      jump\t// out\n        /* \"#utility.yul\":8371:8473   */\n    tag_77:\n        /* \"#utility.yul\":8412:8418   */\n      0x00\n        /* \"#utility.yul\":8463:8465   */\n      0x1f\n        /* \"#utility.yul\":8459:8466   */\n      not\n        /* \"#utility.yul\":8454:8456   */\n      0x1f\n        /* \"#utility.yul\":8447:8452   */\n      dup4\n        /* \"#utility.yul\":8443:8457   */\n      add\n        /* \"#utility.yul\":8439:8467   */\n      and\n        /* \"#utility.yul\":8429:8467   */\n      swap1\n      pop\n        /* \"#utility.yul\":8371:8473   */\n      swap2\n      swap1\n      pop\n      jump\t// out\n        /* \"#utility.yul\":8503:8820   */\n    tag_78:\n        /* \"#utility.yul\":8601:8604   */\n      0x00\n        /* \"#utility.yul\":8622:8693   */\n      tag_187\n        /* \"#utility.yul\":8686:8692   */\n      dup4\n        /* \"#utility.yul\":8681:8684   */\n      dup6\n        /* \"#utility.yul\":8622:8693   */\n      tag_75\n      jump\t// in\n    tag_187:\n        /* \"#utility.yul\":8615:8693   */\n      swap4\n      pop\n        /* \"#utility.yul\":8703:8759   */\n      tag_188\n        /* \"#utility.yul\":8752:8758   */\n      dup4\n        /* \"#utility.yul\":8747:8750   */\n      dup6\n        /* \"#utility.yul\":8740:8745   */\n      dup5\n        /* \"#utility.yul\":8703:8759   */\n      tag_76\n      jump\t// in\n    tag_188:\n        /* \"#utility.yul\":8784:8813   */\n      tag_189\n        /* \"#utility.yul\":8806:8812   */\n      dup4\n        /* \"#utility.yul\":8784:8813   */\n      tag_77\n      jump\t// in\n    tag_189:\n        /* \"#utility.yul\":8779:8782   */\n      dup5\n        /* \"#utility.yul\":8775:8814   */\n      add\n        /* \"#utility.yul\":8768:8814   */\n      swap1\n      pop\n        /* \"#utility.yul\":8503:8820   */\n      swap4\n      swap3\n      pop\n      pop\n      pop\n      jump\t// out\n        /* \"#utility.yul\":8826:8994   */\n    tag_79:\n        /* \"#utility.yul\":8909:8920   */\n      0x00\n        /* \"#utility.yul\":8943:8949   */\n      dup3\n        /* \"#utility.yul\":8938:8941   */\n      dup3\n        /* \"#utility.yul\":8931:8950   */\n      mstore\n        /* \"#utility.yul\":8983:8987   */\n      0x20\n        /* \"#utility.yul\":8978:8981   */\n      dup3\n        /* \"#utility.yul\":8974:8988   */\n      add\n        /* \"#utility.yul\":8959:8988   */\n      swap1\n      pop\n        /* \"#utility.yul\":8826:8994   */\n      swap3\n      swap2\n      pop\n      pop\n      jump\t// out\n        /* \"#utility.yul\":9022:9336   */\n    tag_80:\n        /* \"#utility.yul\":9118:9121   */\n      0x00\n        /* \"#utility.yul\":9139:9209   */\n      tag_192\n        /* \"#utility.yul\":9202:9208   */\n      dup4\n        /* \"#utility.yul\":9197:9200   */\n      dup6\n        /* \"#utility.yul\":9139:9209   */\n      tag_79\n      jump\t// in\n    tag_192:\n        /* \"#utility.yul\":9132:9209   */\n      swap4\n      pop\n        /* \"#utility.yul\":9219:9275   */\n      tag_193\n        /* \"#utility.yul\":9268:9274   */\n      dup4\n        /* \"#utility.yul\":9263:9266   */\n      dup6\n        /* \"#utility.yul\":9256:9261   */\n      dup5\n        /* \"#utility.yul\":9219:9275   */\n      tag_76\n      jump\t// in\n    tag_193:\n        /* \"#utility.yul\":9300:9329   */\n      tag_194\n        /* \"#utility.yul\":9322:9328   */\n      dup4\n        /* \"#utility.yul\":9300:9329   */\n      tag_77\n      jump\t// in\n    tag_194:\n        /* \"#utility.yul\":9295:9298   */\n      dup5\n        /* \"#utility.yul\":9291:9330   */\n      add\n        /* \"#utility.yul\":9284:9330   */\n      swap1\n      pop\n        /* \"#utility.yul\":9022:9336   */\n      swap4\n      swap3\n      pop\n      pop\n      pop\n      jump\t// out\n        /* \"#utility.yul\":9342:9892   */\n    tag_35:\n        /* \"#utility.yul\":9521:9525   */\n      0x00\n        /* \"#utility.yul\":9559:9561   */\n      0x40\n        /* \"#utility.yul\":9548:9557   */\n      dup3\n        /* \"#utility.yul\":9544:9562   */\n      add\n        /* \"#utility.yul\":9536:9562   */\n      swap1\n      pop\n        /* \"#utility.yul\":9608:9617   */\n      dup2\n        /* \"#utility.yul\":9602:9606   */\n      dup2\n        /* \"#utility.yul\":9598:9618   */\n      sub\n        /* \"#utility.yul\":9594:9595   */\n      0x00\n        /* \"#utility.yul\":9583:9592   */\n      dup4\n        /* \"#utility.yul\":9579:9596   */\n      add\n        /* \"#utility.yul\":9572:9619   */\n      mstore\n        /* \"#utility.yul\":9636:9724   */\n      tag_196\n        /* \"#utility.yul\":9719:9723   */\n      dup2\n        /* \"#utility.yul\":9710:9716   */\n      dup7\n        /* \"#utility.yul\":9702:9708   */\n      dup9\n        /* \"#utility.yul\":9636:9724   */\n      tag_78\n      jump\t// in\n    tag_196:\n        /* \"#utility.yul\":9628:9724   */\n      swap1\n      pop\n        /* \"#utility.yul\":9771:9780   */\n      dup2\n        /* \"#utility.yul\":9765:9769   */\n      dup2\n        /* \"#utility.yul\":9761:9781   */\n      sub\n        /* \"#utility.yul\":9756:9758   */\n      0x20\n        /* \"#utility.yul\":9745:9754   */\n      dup4\n        /* \"#utility.yul\":9741:9759   */\n      add\n        /* \"#utility.yul\":9734:9782   */\n      mstore\n        /* \"#utility.yul\":9799:9885   */\n      tag_197\n        /* \"#utility.yul\":9880:9884   */\n      dup2\n        /* \"#utility.yul\":9871:9877   */\n      dup5\n        /* \"#utility.yul\":9863:9869   */\n      dup7\n        /* \"#utility.yul\":9799:9885   */\n      tag_80\n      jump\t// in\n    tag_197:\n        /* \"#utility.yul\":9791:9885   */\n      swap1\n      pop\n        /* \"#utility.yul\":9342:9892   */\n      swap6\n      swap5\n      pop\n      pop\n      pop\n      pop\n      pop\n      jump\t// out\n        /* \"#utility.yul\":9898:10016   */\n    tag_81:\n        /* \"#utility.yul\":9985:10009   */\n      tag_199\n        /* \"#utility.yul\":10003:10008   */\n      dup2\n        /* \"#utility.yul\":9985:10009   */\n      tag_60\n      jump\t// in\n    tag_199:\n        /* \"#utility.yul\":9980:9983   */\n      dup3\n        /* \"#utility.yul\":9973:10010   */\n      mstore\n        /* \"#utility.yul\":9898:10016   */\n      pop\n      pop\n      jump\t// out\n        /* \"#utility.yul\":10022:10465   */\n    tag_38:\n        /* \"#utility.yul\":10173:10177   */\n      0x00\n        /* \"#utility.yul\":10211:10213   */\n      0x40\n        /* \"#utility.yul\":10200:10209   */\n      dup3\n        /* \"#utility.yul\":10196:10214   */\n      add\n        /* \"#utility.yul\":10188:10214   */\n      swap1\n      pop\n        /* \"#utility.yul\":10260:10269   */\n      dup2\n        /* \"#utility.yul\":10254:10258   */\n      dup2\n        /* \"#utility.yul\":10250:10270   */\n      sub\n        /* \"#utility.yul\":10246:10247   */\n      0x00\n        /* \"#utility.yul\":10235:10244   */\n      dup4\n        /* \"#utility.yul\":10231:10248   */\n      add\n        /* \"#utility.yul\":10224:10271   */\n      mstore\n        /* \"#utility.yul\":10288:10376   */\n      tag_201\n        /* \"#utility.yul\":10371:10375   */\n      dup2\n        /* \"#utility.yul\":10362:10368   */\n      dup6\n        /* \"#utility.yul\":10354:10360   */\n      dup8\n        /* \"#utility.yul\":10288:10376   */\n      tag_78\n      jump\t// in\n    tag_201:\n        /* \"#utility.yul\":10280:10376   */\n      swap1\n      pop\n        /* \"#utility.yul\":10386:10458   */\n      tag_202\n        /* \"#utility.yul\":10454:10456   */\n      0x20\n        /* \"#utility.yul\":10443:10452   */\n      dup4\n        /* \"#utility.yul\":10439:10457   */\n      add\n        /* \"#utility.yul\":10430:10436   */\n      dup5\n        /* \"#utility.yul\":10386:10458   */\n      tag_81\n      jump\t// in\n    tag_202:\n        /* \"#utility.yul\":10022:10465   */\n      swap5\n      swap4\n      pop\n      pop\n      pop\n      pop\n      jump\t// out\n        /* \"#utility.yul\":10471:10589   */\n    tag_82:\n        /* \"#utility.yul\":10558:10582   */\n      tag_204\n        /* \"#utility.yul\":10576:10581   */\n      dup2\n        /* \"#utility.yul\":10558:10582   */\n      tag_63\n      jump\t// in\n    tag_204:\n        /* \"#utility.yul\":10553:10556   */\n      dup3\n        /* \"#utility.yul\":10546:10583   */\n      mstore\n        /* \"#utility.yul\":10471:10589   */\n      pop\n      pop\n      jump\t// out\n        /* \"#utility.yul\":10595:11038   */\n    tag_41:\n        /* \"#utility.yul\":10746:10750   */\n      0x00\n        /* \"#utility.yul\":10784:10786   */\n      0x40\n        /* \"#utility.yul\":10773:10782   */\n      dup3\n        /* \"#utility.yul\":10769:10787   */\n      add\n        /* \"#utility.yul\":10761:10787   */\n      swap1\n      pop\n        /* \"#utility.yul\":10833:10842   */\n      dup2\n        /* \"#utility.yul\":10827:10831   */\n      dup2\n        /* \"#utility.yul\":10823:10843   */\n      sub\n        /* \"#utility.yul\":10819:10820   */\n      0x00\n        /* \"#utility.yul\":10808:10817   */\n      dup4\n        /* \"#utility.yul\":10804:10821   */\n      add\n        /* \"#utility.yul\":10797:10844   */\n      mstore\n        /* \"#utility.yul\":10861:10949   */\n      tag_206\n        /* \"#utility.yul\":10944:10948   */\n      dup2\n        /* \"#utility.yul\":10935:10941   */\n      dup6\n        /* \"#utility.yul\":10927:10933   */\n      dup8\n        /* \"#utility.yul\":10861:10949   */\n      tag_78\n      jump\t// in\n    tag_206:\n        /* \"#utility.yul\":10853:10949   */\n      swap1\n      pop\n        /* \"#utility.yul\":10959:11031   */\n      tag_207\n        /* \"#utility.yul\":11027:11029   */\n      0x20\n        /* \"#utility.yul\":11016:11025   */\n      dup4\n        /* \"#utility.yul\":11012:11030   */\n      add\n        /* \"#utility.yul\":11003:11009   */\n      dup5\n        /* \"#utility.yul\":10959:11031   */\n      tag_82\n      jump\t// in\n    tag_207:\n        /* \"#utility.yul\":10595:11038   */\n      swap5\n      swap4\n      pop\n      pop\n      pop\n      pop\n      jump\t// out\n        /* \"#utility.yul\":11044:11159   */\n    tag_83:\n        /* \"#utility.yul\":11129:11152   */\n      tag_209\n        /* \"#utility.yul\":11146:11151   */\n      dup2\n        /* \"#utility.yul\":11129:11152   */\n      tag_66\n      jump\t// in\n    tag_209:\n        /* \"#utility.yul\":11124:11127   */\n      dup3\n        /* \"#utility.yul\":11117:11153   */\n      mstore\n        /* \"#utility.yul\":11044:11159   */\n      pop\n      pop\n      jump\t// out\n        /* \"#utility.yul\":11165:11604   */\n    tag_44:\n        /* \"#utility.yul\":11314:11318   */\n      0x00\n        /* \"#utility.yul\":11352:11354   */\n      0x40\n        /* \"#utility.yul\":11341:11350   */\n      dup3\n        /* \"#utility.yul\":11337:11355   */\n      add\n        /* \"#utility.yul\":11329:11355   */\n      swap1\n      pop\n        /* \"#utility.yul\":11401:11410   */\n      dup2\n        /* \"#utility.yul\":11395:11399   */\n      dup2\n        /* \"#utility.yul\":11391:11411   */\n      sub\n        /* \"#utility.yul\":11387:11388   */\n      0x00\n        /* \"#utility.yul\":11376:11385   */\n      dup4\n        /* \"#utility.yul\":11372:11389   */\n      add\n        /* \"#utility.yul\":11365:11412   */\n      mstore\n        /* \"#utility.yul\":11429:11517   */\n      tag_211\n        /* \"#utility.yul\":11512:11516   */\n      dup2\n        /* \"#utility.yul\":11503:11509   */\n      dup6\n        /* \"#utility.yul\":11495:11501   */\n      dup8\n        /* \"#utility.yul\":11429:11517   */\n      tag_78\n      jump\t// in\n    tag_211:\n        /* \"#utility.yul\":11421:11517   */\n      swap1\n      pop\n        /* \"#utility.yul\":11527:11597   */\n      tag_212\n        /* \"#utility.yul\":11593:11595   */\n      0x20\n        /* \"#utility.yul\":11582:11591   */\n      dup4\n        /* \"#utility.yul\":11578:11596   */\n      add\n        /* \"#utility.yul\":11569:11575   */\n      dup5\n        /* \"#utility.yul\":11527:11597   */\n      tag_83\n      jump\t// in\n    tag_212:\n        /* \"#utility.yul\":11165:11604   */\n      swap5\n      swap4\n      pop\n      pop\n      pop\n      pop\n      jump\t// out\n        /* \"#utility.yul\":11610:11728   */\n    tag_84:\n        /* \"#utility.yul\":11697:11721   */\n      tag_214\n        /* \"#utility.yul\":11715:11720   */\n      dup2\n        /* \"#utility.yul\":11697:11721   */\n      tag_69\n      jump\t// in\n    tag_214:\n        /* \"#utility.yul\":11692:11695   */\n      dup3\n        /* \"#utility.yul\":11685:11722   */\n      mstore\n        /* \"#utility.yul\":11610:11728   */\n      pop\n      pop\n      jump\t// out\n        /* \"#utility.yul\":11734:12177   */\n    tag_47:\n        /* \"#utility.yul\":11885:11889   */\n      0x00\n        /* \"#utility.yul\":11923:11925   */\n      0x40\n        /* \"#utility.yul\":11912:11921   */\n      dup3\n        /* \"#utility.yul\":11908:11926   */\n      add\n        /* \"#utility.yul\":11900:11926   */\n      swap1\n      pop\n        /* \"#utility.yul\":11972:11981   */\n      dup2\n        /* \"#utility.yul\":11966:11970   */\n      dup2\n        /* \"#utility.yul\":11962:11982   */\n      sub\n        /* \"#utility.yul\":11958:11959   */\n      0x00\n        /* \"#utility.yul\":11947:11956   */\n      dup4\n        /* \"#utility.yul\":11943:11960   */\n      add\n        /* \"#utility.yul\":11936:11983   */\n      mstore\n        /* \"#utility.yul\":12000:12088   */\n      tag_216\n        /* \"#utility.yul\":12083:12087   */\n      dup2\n        /* \"#utility.yul\":12074:12080   */\n      dup6\n        /* \"#utility.yul\":12066:12072   */\n      dup8\n        /* \"#utility.yul\":12000:12088   */\n      tag_78\n      jump\t// in\n    tag_216:\n        /* \"#utility.yul\":11992:12088   */\n      swap1\n      pop\n        /* \"#utility.yul\":12098:12170   */\n      tag_217\n        /* \"#utility.yul\":12166:12168   */\n      0x20\n        /* \"#utility.yul\":12155:12164   */\n      dup4\n        /* \"#utility.yul\":12151:12169   */\n      add\n        /* \"#utility.yul\":12142:12148   */\n      dup5\n        /* \"#utility.yul\":12098:12170   */\n      tag_84\n      jump\t// in\n    tag_217:\n        /* \"#utility.yul\":11734:12177   */\n      swap5\n      swap4\n      pop\n      pop\n      pop\n      pop\n      jump\t// out\n        /* \"#utility.yul\":12183:12292   */\n    tag_85:\n        /* \"#utility.yul\":12264:12285   */\n      tag_219\n        /* \"#utility.yul\":12279:12284   */\n      dup2\n        /* \"#utility.yul\":12264:12285   */\n      tag_72\n      jump\t// in\n    tag_219:\n        /* \"#utility.yul\":12259:12262   */\n      dup3\n        /* \"#utility.yul\":12252:12286   */\n      mstore\n        /* \"#utility.yul\":12183:12292   */\n      pop\n      pop\n      jump\t// out\n        /* \"#utility.yul\":12298:12729   */\n    tag_50:\n        /* \"#utility.yul\":12443:12447   */\n      0x00\n        /* \"#utility.yul\":12481:12483   */\n      0x40\n        /* \"#utility.yul\":12470:12479   */\n      dup3\n        /* \"#utility.yul\":12466:12484   */\n      add\n        /* \"#utility.yul\":12458:12484   */\n      swap1\n      pop\n        /* \"#utility.yul\":12530:12539   */\n      dup2\n        /* \"#utility.yul\":12524:12528   */\n      dup2\n        /* \"#utility.yul\":12520:12540   */\n      sub\n        /* \"#utility.yul\":12516:12517   */\n      0x00\n        /* \"#utility.yul\":12505:12514   */\n      dup4\n        /* \"#utility.yul\":12501:12518   */\n      add\n        /* \"#utility.yul\":12494:12541   */\n      mstore\n        /* \"#utility.yul\":12558:12646   */\n      tag_221\n        /* \"#utility.yul\":12641:12645   */\n      dup2\n        /* \"#utility.yul\":12632:12638   */\n      dup6\n        /* \"#utility.yul\":12624:12630   */\n      dup8\n        /* \"#utility.yul\":12558:12646   */\n      tag_78\n      jump\t// in\n    tag_221:\n        /* \"#utility.yul\":12550:12646   */\n      swap1\n      pop\n        /* \"#utility.yul\":12656:12722   */\n      tag_222\n        /* \"#utility.yul\":12718:12720   */\n      0x20\n        /* \"#utility.yul\":12707:12716   */\n      dup4\n        /* \"#utility.yul\":12703:12721   */\n      add\n        /* \"#utility.yul\":12694:12700   */\n      dup5\n        /* \"#utility.yul\":12656:12722   */\n      tag_85\n      jump\t// in\n    tag_222:\n        /* \"#utility.yul\":12298:12729   */\n      swap5\n      swap4\n      pop\n      pop\n      pop\n      pop\n      jump\t// out\n\n    auxdata: 0xa26469706673582212202d4d6d9d36e57628c3e2f43797893c98d489cf06268066ffce646a71c08515ff64736f6c63430008120033\n}\n",
				"bytecode": {
					"linkReferences": {},
					"object": "608060405234801561001057600080fd5b50610942806100206000396000f3fe608060405234801561001057600080fd5b50600436106100625760003560e01c806323cdd8e814610067578063319af333146100835780633692d61a1461009f5780633ca6268e146100bb578063b60e72cc146100d7578063c3b55635146100f3575b600080fd5b610081600480360381019061007c9190610357565b61010f565b005b61009d60048036038101906100989190610436565b610152565b005b6100b960048036038101906100b491906104cc565b610192565b005b6100d560048036038101906100d09190610562565b6101d2565b005b6100f160048036038101906100ec91906105f8565b610212565b005b61010d60048036038101906101089190610690565b610252565b005b7fe8407a0209fa99ec3a7228aff140c3d3e68bd279391739c7e0b65cd406cc93b584848484604051610144949392919061078c565b60405180910390a150505050565b7f62ddffe5b5108385f7a590f100e1ee414ad9551a31f089e64e82998440785e1e838383604051610185939291906107d6565b60405180910390a1505050565b7f02d93529bba9d141e5e06733c52c7e6fbcb1149586adb5c24064b522ab26f1d78383836040516101c593929190610817565b60405180910390a1505050565b7f6a837ff3973aa4181e7b9f07756f8b7ee366dd85a36655d2cb42cd47f10b963883838360405161020593929190610858565b60405180910390a1505050565b7f941296a39ea107bde685522318a4b6c2b544904a5dd82a512748ca2cf839bef783838360405161024593929190610899565b60405180910390a1505050565b7f4c34c2f9a78632f29fa59aaed5514cb742fd9fbcfd7ccc2c03c85f2bbc621c47838383604051610285939291906108da565b60405180910390a1505050565b600080fd5b600080fd5b600080fd5b600080fd5b600080fd5b60008083601f8401126102c1576102c061029c565b5b8235905067ffffffffffffffff8111156102de576102dd6102a1565b5b6020830191508360018202830111156102fa576102f96102a6565b5b9250929050565b60008083601f8401126103175761031661029c565b5b8235905067ffffffffffffffff811115610334576103336102a1565b5b6020830191508360018202830111156103505761034f6102a6565b5b9250929050565b6000806000806040858703121561037157610370610292565b5b600085013567ffffffffffffffff81111561038f5761038e610297565b5b61039b878288016102ab565b9450945050602085013567ffffffffffffffff8111156103be576103bd610297565b5b6103ca87828801610301565b925092505092959194509250565b600073ffffffffffffffffffffffffffffffffffffffff82169050919050565b6000610403826103d8565b9050919050565b610413816103f8565b811461041e57600080fd5b50565b6000813590506104308161040a565b92915050565b60008060006040848603121561044f5761044e610292565b5b600084013567ffffffffffffffff81111561046d5761046c610297565b5b610479868287016102ab565b9350935050602061048c86828701610421565b9150509250925092565b6000819050919050565b6104a981610496565b81146104b457600080fd5b50565b6000813590506104c6816104a0565b92915050565b6000806000604084860312156104e5576104e4610292565b5b600084013567ffffffffffffffff81111561050357610502610297565b5b61050f868287016102ab565b93509350506020610522868287016104b7565b9150509250925092565b6000819050919050565b61053f8161052c565b811461054a57600080fd5b50565b60008135905061055c81610536565b92915050565b60008060006040848603121561057b5761057a610292565b5b600084013567ffffffffffffffff81111561059957610598610297565b5b6105a5868287016102ab565b935093505060206105b88682870161054d565b9150509250925092565b6000819050919050565b6105d5816105c2565b81146105e057600080fd5b50565b6000813590506105f2816105cc565b92915050565b60008060006040848603121561061157610610610292565b5b600084013567ffffffffffffffff81111561062f5761062e610297565b5b61063b868287016102ab565b9350935050602061064e868287016105e3565b9150509250925092565b60008115159050919050565b61066d81610658565b811461067857600080fd5b50565b60008135905061068a81610664565b92915050565b6000806000604084860312156106a9576106a8610292565b5b600084013567ffffffffffffffff8111156106c7576106c6610297565b5b6106d3868287016102ab565b935093505060206106e68682870161067b565b9150509250925092565b600082825260208201905092915050565b82818337600083830152505050565b6000601f19601f8301169050919050565b600061072d83856106f0565b935061073a838584610701565b61074383610710565b840190509392505050565b600082825260208201905092915050565b600061076b838561074e565b9350610778838584610701565b61078183610710565b840190509392505050565b600060408201905081810360008301526107a7818688610721565b905081810360208301526107bc81848661075f565b905095945050505050565b6107d0816103f8565b82525050565b600060408201905081810360008301526107f1818587610721565b905061080060208301846107c7565b949350505050565b61081181610496565b82525050565b60006040820190508181036000830152610832818587610721565b90506108416020830184610808565b949350505050565b6108528161052c565b82525050565b60006040820190508181036000830152610873818587610721565b90506108826020830184610849565b949350505050565b610893816105c2565b82525050565b600060408201905081810360008301526108b4818587610721565b90506108c3602083018461088a565b949350505050565b6108d481610658565b82525050565b600060408201905081810360008301526108f5818587610721565b905061090460208301846108cb565b94935050505056fea26469706673582212202d4d6d9d36e57628c3e2f43797893c98d489cf06268066ffce646a71c08515ff64736f6c63430008120033",
					"opcodes": "PUSH1 0x80 PUSH1 0x40 MSTORE CALLVALUE DUP1 ISZERO PUSH2 0x10 JUMPI PUSH1 0x0 DUP1 REVERT JUMPDEST POP PUSH2 0x942 DUP1 PUSH2 0x20 PUSH1 0x0 CODECOPY PUSH1 0x0 RETURN INVALID PUSH1 0x80 PUSH1 0x40 MSTORE CALLVALUE DUP1 ISZERO PUSH2 0x10 JUMPI PUSH1 0x0 DUP1 REVERT JUMPDEST POP PUSH1 0x4 CALLDATASIZE LT PUSH2 0x62 JUMPI PUSH1 0x0 CALLDATALOAD PUSH1 0xE0 SHR DUP1 PUSH4 0x23CDD8E8 EQ PUSH2 0x67 JUMPI DUP1 PUSH4 0x319AF333 EQ PUSH2 0x83 JUMPI DUP1 PUSH4 0x3692D61A EQ PUSH2 0x9F JUMPI DUP1 PUSH4 0x3CA6268E EQ PUSH2 0xBB JUMPI DUP1 PUSH4 0xB60E72CC EQ PUSH2 0xD7 JUMPI DUP1 PUSH4 0xC3B55635 EQ PUSH2 0xF3 JUMPI JUMPDEST PUSH1 0x0 DUP1 REVERT JUMPDEST PUSH2 0x81 PUSH1 0x4 DUP1 CALLDATASIZE SUB DUP2 ADD SWAP1 PUSH2 0x7C SWAP2 SWAP1 PUSH2 0x357 JUMP JUMPDEST PUSH2 0x10F JUMP JUMPDEST STOP JUMPDEST PUSH2 0x9D PUSH1 0x4 DUP1 CALLDATASIZE SUB DUP2 ADD SWAP1 PUSH2 0x98 SWAP2 SWAP1 PUSH2 0x436 JUMP JUMPDEST PUSH2 0x152 JUMP JUMPDEST STOP JUMPDEST PUSH2 0xB9 PUSH1 0x4 DUP1 CALLDATASIZE SUB DUP2 ADD SWAP1 PUSH2 0xB4 SWAP2 SWAP1 PUSH2 0x4CC JUMP JUMPDEST PUSH2 0x192 JUMP JUMPDEST STOP JUMPDEST PUSH2 0xD5 PUSH1 0x4 DUP1 CALLDATASIZE SUB DUP2 ADD SWAP1 PUSH2 0xD0 SWAP2 SWAP1 PUSH2 0x562 JUMP JUMPDEST PUSH2 0x1D2 JUMP JUMPDEST STOP JUMPDEST PUSH2 0xF1 PUSH1 0x4 DUP1 CALLDATASIZE SUB DUP2 ADD SWAP1 PUSH2 0xEC SWAP2 SWAP1 PUSH2 0x5F8 JUMP JUMPDEST PUSH2 0x212 JUMP JUMPDEST STOP JUMPDEST PUSH2 0x10D PUSH1 0x4 DUP1 CALLDATASIZE SUB DUP2 ADD SWAP1 PUSH2 0x108 SWAP2 SWAP1 PUSH2 0x690 JUMP JUMPDEST PUSH2 0x252 JUMP JUMPDEST STOP JUMPDEST PUSH32 0xE8407A0209FA99EC3A7228AFF140C3D3E68BD279391739C7E0B65CD406CC93B5 DUP5 DUP5 DUP5 DUP5 PUSH1 0x40 MLOAD PUSH2 0x144 SWAP5 SWAP4 SWAP3 SWAP2 SWAP1 PUSH2 0x78C JUMP JUMPDEST PUSH1 0x40 MLOAD DUP1 SWAP2 SUB SWAP1 LOG1 POP POP POP POP JUMP JUMPDEST PUSH32 0x62DDFFE5B5108385F7A590F100E1EE414AD9551A31F089E64E82998440785E1E DUP4 DUP4 DUP4 PUSH1 0x40 MLOAD PUSH2 0x185 SWAP4 SWAP3 SWAP2 SWAP1 PUSH2 0x7D6 JUMP JUMPDEST PUSH1 0x40 MLOAD DUP1 SWAP2 SUB SWAP1 LOG1 POP POP POP JUMP JUMPDEST PUSH32 0x2D93529BBA9D141E5E06733C52C7E6FBCB1149586ADB5C24064B522AB26F1D7 DUP4 DUP4 DUP4 PUSH1 0x40 MLOAD PUSH2 0x1C5 SWAP4 SWAP3 SWAP2 SWAP1 PUSH2 0x817 JUMP JUMPDEST PUSH1 0x40 MLOAD DUP1 SWAP2 SUB SWAP1 LOG1 POP POP POP JUMP JUMPDEST PUSH32 0x6A837FF3973AA4181E7B9F07756F8B7EE366DD85A36655D2CB42CD47F10B9638 DUP4 DUP4 DUP4 PUSH1 0x40 MLOAD PUSH2 0x205 SWAP4 SWAP3 SWAP2 SWAP1 PUSH2 0x858 JUMP JUMPDEST PUSH1 0x40 MLOAD DUP1 SWAP2 SUB SWAP1 LOG1 POP POP POP JUMP JUMPDEST PUSH32 0x941296A39EA107BDE685522318A4B6C2B544904A5DD82A512748CA2CF839BEF7 DUP4 DUP4 DUP4 PUSH1 0x40 MLOAD PUSH2 0x245 SWAP4 SWAP3 SWAP2 SWAP1 PUSH2 0x899 JUMP JUMPDEST PUSH1 0x40 MLOAD DUP1 SWAP2 SUB SWAP1 LOG1 POP POP POP JUMP JUMPDEST PUSH32 0x4C34C2F9A78632F29FA59AAED5514CB742FD9FBCFD7CCC2C03C85F2BBC621C47 DUP4 DUP4 DUP4 PUSH1 0x40 MLOAD PUSH2 0x285 SWAP4 SWAP3 SWAP2 SWAP1 PUSH2 0x8DA JUMP JUMPDEST PUSH1 0x40 MLOAD DUP1 SWAP2 SUB SWAP1 LOG1 POP POP POP JUMP JUMPDEST PUSH1 0x0 DUP1 REVERT JUMPDEST PUSH1 0x0 DUP1 REVERT JUMPDEST PUSH1 0x0 DUP1 REVERT JUMPDEST PUSH1 0x0 DUP1 REVERT JUMPDEST PUSH1 0x0 DUP1 REVERT JUMPDEST PUSH1 0x0 DUP1 DUP4 PUSH1 0x1F DUP5 ADD SLT PUSH2 0x2C1 JUMPI PUSH2 0x2C0 PUSH2 0x29C JUMP JUMPDEST JUMPDEST DUP3 CALLDATALOAD SWAP1 POP PUSH8 0xFFFFFFFFFFFFFFFF DUP2 GT ISZERO PUSH2 0x2DE JUMPI PUSH2 0x2DD PUSH2 0x2A1 JUMP JUMPDEST JUMPDEST PUSH1 0x20 DUP4 ADD SWAP2 POP DUP4 PUSH1 0x1 DUP3 MUL DUP4 ADD GT ISZERO PUSH2 0x2FA JUMPI PUSH2 0x2F9 PUSH2 0x2A6 JUMP JUMPDEST JUMPDEST SWAP3 POP SWAP3 SWAP1 POP JUMP JUMPDEST PUSH1 0x0 DUP1 DUP4 PUSH1 0x1F DUP5 ADD SLT PUSH2 0x317 JUMPI PUSH2 0x316 PUSH2 0x29C JUMP JUMPDEST JUMPDEST DUP3 CALLDATALOAD SWAP1 POP PUSH8 0xFFFFFFFFFFFFFFFF DUP2 GT ISZERO PUSH2 0x334 JUMPI PUSH2 0x333 PUSH2 0x2A1 JUMP JUMPDEST JUMPDEST PUSH1 0x20 DUP4 ADD SWAP2 POP DUP4 PUSH1 0x1 DUP3 MUL DUP4 ADD GT ISZERO PUSH2 0x350 JUMPI PUSH2 0x34F PUSH2 0x2A6 JUMP JUMPDEST JUMPDEST SWAP3 POP SWAP3 SWAP1 POP JUMP JUMPDEST PUSH1 0x0 DUP1 PUSH1 0x0 DUP1 PUSH1 0x40 DUP6 DUP8 SUB SLT ISZERO PUSH2 0x371 JUMPI PUSH2 0x370 PUSH2 0x292 JUMP JUMPDEST JUMPDEST PUSH1 0x0 DUP6 ADD CALLDATALOAD PUSH8 0xFFFFFFFFFFFFFFFF DUP2 GT ISZERO PUSH2 0x38F JUMPI PUSH2 0x38E PUSH2 0x297 JUMP JUMPDEST JUMPDEST PUSH2 0x39B DUP8 DUP3 DUP9 ADD PUSH2 0x2AB JUMP JUMPDEST SWAP5 POP SWAP5 POP POP PUSH1 0x20 DUP6 ADD CALLDATALOAD PUSH8 0xFFFFFFFFFFFFFFFF DUP2 GT ISZERO PUSH2 0x3BE JUMPI PUSH2 0x3BD PUSH2 0x297 JUMP JUMPDEST JUMPDEST PUSH2 0x3CA DUP8 DUP3 DUP9 ADD PUSH2 0x301 JUMP JUMPDEST SWAP3 POP SWAP3 POP POP SWAP3 SWAP6 SWAP2 SWAP5 POP SWAP3 POP JUMP JUMPDEST PUSH1 0x0 PUSH20 0xFFFFFFFFFFFFFFFFFFFFFFFFFFFFFFFFFFFFFFFF DUP3 AND SWAP1 POP SWAP2 SWAP1 POP JUMP JUMPDEST PUSH1 0x0 PUSH2 0x403 DUP3 PUSH2 0x3D8 JUMP JUMPDEST SWAP1 POP SWAP2 SWAP1 POP JUMP JUMPDEST PUSH2 0x413 DUP2 PUSH2 0x3F8 JUMP JUMPDEST DUP2 EQ PUSH2 0x41E JUMPI PUSH1 0x0 DUP1 REVERT JUMPDEST POP JUMP JUMPDEST PUSH1 0x0 DUP2 CALLDATALOAD SWAP1 POP PUSH2 0x430 DUP2 PUSH2 0x40A JUMP JUMPDEST SWAP3 SWAP2 POP POP JUMP JUMPDEST PUSH1 0x0 DUP1 PUSH1 0x0 PUSH1 0x40 DUP5 DUP7 SUB SLT ISZERO PUSH2 0x44F JUMPI PUSH2 0x44E PUSH2 0x292 JUMP JUMPDEST JUMPDEST PUSH1 0x0 DUP5 ADD CALLDATALOAD PUSH8 0xFFFFFFFFFFFFFFFF DUP2 GT ISZERO PUSH2 0x46D JUMPI PUSH2 0x46C PUSH2 0x297 JUMP JUMPDEST JUMPDEST PUSH2 0x479 DUP7 DUP3 DUP8 ADD PUSH2 0x2AB JUMP JUMPDEST SWAP4 POP SWAP4 POP POP PUSH1 0x20 PUSH2 0x48C DUP7 DUP3 DUP8 ADD PUSH2 0x421 JUMP JUMPDEST SWAP2 POP POP SWAP3 POP SWAP3 POP SWAP3 JUMP JUMPDEST PUSH1 0x0 DUP2 SWAP1 POP SWAP2 SWAP1 POP JUMP JUMPDEST PUSH2 0x4A9 DUP2 PUSH2 0x496 JUMP JUMPDEST DUP2 EQ PUSH2 0x4B4 JUMPI PUSH1 0x0 DUP1 REVERT JUMPDEST POP JUMP JUMPDEST PUSH1 0x0 DUP2 CALLDATALOAD SWAP1 POP PUSH2 0x4C6 DUP2 PUSH2 0x4A0 JUMP JUMPDEST SWAP3 SWAP2 POP POP JUMP JUMPDEST PUSH1 0x0 DUP1 PUSH1 0x0 PUSH1 0x40 DUP5 DUP7 SUB SLT ISZERO PUSH2 0x4E5 JUMPI PUSH2 0x4E4 PUSH2 0x292 JUMP JUMPDEST JUMPDEST PUSH1 0x0 DUP5 ADD CALLDATALOAD PUSH8 0xFFFFFFFFFFFFFFFF DUP2 GT ISZERO PUSH2 0x503 JUMPI PUSH2 0x502 PUSH2 0x297 JUMP JUMPDEST JUMPDEST PUSH2 0x50F DUP7 DUP3 DUP8 ADD PUSH2 0x2AB JUMP JUMPDEST SWAP4 POP SWAP4 POP POP PUSH1 0x20 PUSH2 0x522 DUP7 DUP3 DUP8 ADD PUSH2 0x4B7 JUMP JUMPDEST SWAP2 POP POP SWAP3 POP SWAP3 POP SWAP3 JUMP JUMPDEST PUSH1 0x0 DUP2 SWAP1 POP SWAP2 SWAP1 POP JUMP JUMPDEST PUSH2 0x53F DUP2 PUSH2 0x52C JUMP JUMPDEST DUP2 EQ PUSH2 0x54A JUMPI PUSH1 0x0 DUP1 REVERT JUMPDEST POP JUMP JUMPDEST PUSH1 0x0 DUP2 CALLDATALOAD SWAP1 POP PUSH2 0x55C DUP2 PUSH2 0x536 JUMP JUMPDEST SWAP3 SWAP2 POP POP JUMP JUMPDEST PUSH1 0x0 DUP1 PUSH1 0x0 PUSH1 0x40 DUP5 DUP7 SUB SLT ISZERO PUSH2 0x57B JUMPI PUSH2 0x57A PUSH2 0x292 JUMP JUMPDEST JUMPDEST PUSH1 0x0 DUP5 ADD CALLDATALOAD PUSH8 0xFFFFFFFFFFFFFFFF DUP2 GT ISZERO PUSH2 0x599 JUMPI PUSH2 0x598 PUSH2 0x297 JUMP JUMPDEST JUMPDEST PUSH2 0x5A5 DUP7 DUP3 DUP8 ADD PUSH2 0x2AB JUMP JUMPDEST SWAP4 POP SWAP4 POP POP PUSH1 0x20 PUSH2 0x5B8 DUP7 DUP3 DUP8 ADD PUSH2 0x54D JUMP JUMPDEST SWAP2 POP POP SWAP3 POP SWAP3 POP SWAP3 JUMP JUMPDEST PUSH1 0x0 DUP2 SWAP1 POP SWAP2 SWAP1 POP JUMP JUMPDEST PUSH2 0x5D5 DUP2 PUSH2 0x5C2 JUMP JUMPDEST DUP2 EQ PUSH2 0x5E0 JUMPI PUSH1 0x0 DUP1 REVERT JUMPDEST POP JUMP JUMPDEST PUSH1 0x0 DUP2 CALLDATALOAD SWAP1 POP PUSH2 0x5F2 DUP2 PUSH2 0x5CC JUMP JUMPDEST SWAP3 SWAP2 POP POP JUMP JUMPDEST PUSH1 0x0 DUP1 PUSH1 0x0 PUSH1 0x40 DUP5 DUP7 SUB SLT ISZERO PUSH2 0x611 JUMPI PUSH2 0x610 PUSH2 0x292 JUMP JUMPDEST JUMPDEST PUSH1 0x0 DUP5 ADD CALLDATALOAD PUSH8 0xFFFFFFFFFFFFFFFF DUP2 GT ISZERO PUSH2 0x62F JUMPI PUSH2 0x62E PUSH2 0x297 JUMP JUMPDEST JUMPDEST PUSH2 0x63B DUP7 DUP3 DUP8 ADD PUSH2 0x2AB JUMP JUMPDEST SWAP4 POP SWAP4 POP POP PUSH1 0x20 PUSH2 0x64E DUP7 DUP3 DUP8 ADD PUSH2 0x5E3 JUMP JUMPDEST SWAP2 POP POP SWAP3 POP SWAP3 POP SWAP3 JUMP JUMPDEST PUSH1 0x0 DUP2 ISZERO ISZERO SWAP1 POP SWAP2 SWAP1 POP JUMP JUMPDEST PUSH2 0x66D DUP2 PUSH2 0x658 JUMP JUMPDEST DUP2 EQ PUSH2 0x678 JUMPI PUSH1 0x0 DUP1 REVERT JUMPDEST POP JUMP JUMPDEST PUSH1 0x0 DUP2 CALLDATALOAD SWAP1 POP PUSH2 0x68A DUP2 PUSH2 0x664 JUMP JUMPDEST SWAP3 SWAP2 POP POP JUMP JUMPDEST PUSH1 0x0 DUP1 PUSH1 0x0 PUSH1 0x40 DUP5 DUP7 SUB SLT ISZERO PUSH2 0x6A9 JUMPI PUSH2 0x6A8 PUSH2 0x292 JUMP JUMPDEST JUMPDEST PUSH1 0x0 DUP5 ADD CALLDATALOAD PUSH8 0xFFFFFFFFFFFFFFFF DUP2 GT ISZERO PUSH2 0x6C7 JUMPI PUSH2 0x6C6 PUSH2 0x297 JUMP JUMPDEST JUMPDEST PUSH2 0x6D3 DUP7 DUP3 DUP8 ADD PUSH2 0x2AB JUMP JUMPDEST SWAP4 POP SWAP4 POP POP PUSH1 0x20 PUSH2 0x6E6 DUP7 DUP3 DUP8 ADD PUSH2 0x67B JUMP JUMPDEST SWAP2 POP POP SWAP3 POP SWAP3 POP SWAP3 JUMP JUMPDEST PUSH1 0x0 DUP3 DUP3 MSTORE PUSH1 0x20 DUP3 ADD SWAP1 POP SWAP3 SWAP2 POP POP JUMP JUMPDEST DUP3 DUP2 DUP4 CALLDATACOPY PUSH1 0x0 DUP4 DUP4 ADD MSTORE POP POP POP JUMP JUMPDEST PUSH1 0x0 PUSH1 0x1F NOT PUSH1 0x1F DUP4 ADD AND SWAP1 POP SWAP2 SWAP1 POP JUMP JUMPDEST PUSH1 0x0 PUSH2 0x72D DUP4 DUP6 PUSH2 0x6F0 JUMP JUMPDEST SWAP4 POP PUSH2 0x73A DUP4 DUP6 DUP5 PUSH2 0x701 JUMP JUMPDEST PUSH2 0x743 DUP4 PUSH2 0x710 JUMP JUMPDEST DUP5 ADD SWAP1 POP SWAP4 SWAP3 POP POP POP JUMP JUMPDEST PUSH1 0x0 DUP3 DUP3 MSTORE PUSH1 0x20 DUP3 ADD SWAP1 POP SWAP3 SWAP2 POP POP JUMP JUMPDEST PUSH1 0x0 PUSH2 0x76B DUP4 DUP6 PUSH2 0x74E JUMP JUMPDEST SWAP4 POP PUSH2 0x778 DUP4 DUP6 DUP5 PUSH2 0x701 JUMP JUMPDEST PUSH2 0x781 DUP4 PUSH2 0x710 JUMP JUMPDEST DUP5 ADD SWAP1 POP SWAP4 SWAP3 POP POP POP JUMP JUMPDEST PUSH1 0x0 PUSH1 0x40 DUP3 ADD SWAP1 POP DUP2 DUP2 SUB PUSH1 0x0 DUP4 ADD MSTORE PUSH2 0x7A7 DUP2 DUP7 DUP9 PUSH2 0x721 JUMP JUMPDEST SWAP1 POP DUP2 DUP2 SUB PUSH1 0x20 DUP4 ADD MSTORE PUSH2 0x7BC DUP2 DUP5 DUP7 PUSH2 0x75F JUMP JUMPDEST SWAP1 POP SWAP6 SWAP5 POP POP POP POP POP JUMP JUMPDEST PUSH2 0x7D0 DUP2 PUSH2 0x3F8 JUMP JUMPDEST DUP3 MSTORE POP POP JUMP JUMPDEST PUSH1 0x0 PUSH1 0x40 DUP3 ADD SWAP1 POP DUP2 DUP2 SUB PUSH1 0x0 DUP4 ADD MSTORE PUSH2 0x7F1 DUP2 DUP6 DUP8 PUSH2 0x721 JUMP JUMPDEST SWAP1 POP PUSH2 0x800 PUSH1 0x20 DUP4 ADD DUP5 PUSH2 0x7C7 JUMP JUMPDEST SWAP5 SWAP4 POP POP POP POP JUMP JUMPDEST PUSH2 0x811 DUP2 PUSH2 0x496 JUMP JUMPDEST DUP3 MSTORE POP POP JUMP JUMPDEST PUSH1 0x0 PUSH1 0x40 DUP3 ADD SWAP1 POP DUP2 DUP2 SUB PUSH1 0x0 DUP4 ADD MSTORE PUSH2 0x832 DUP2 DUP6 DUP8 PUSH2 0x721 JUMP JUMPDEST SWAP1 POP PUSH2 0x841 PUSH1 0x20 DUP4 ADD DUP5 PUSH2 0x808 JUMP JUMPDEST SWAP5 SWAP4 POP POP POP POP JUMP JUMPDEST PUSH2 0x852 DUP2 PUSH2 0x52C JUMP JUMPDEST DUP3 MSTORE POP POP JUMP JUMPDEST PUSH1 0x0 PUSH1 0x40 DUP3 ADD SWAP1 POP DUP2 DUP2 SUB PUSH1 0x0 DUP4 ADD MSTORE PUSH2 0x873 DUP2 DUP6 DUP8 PUSH2 0x721 JUMP JUMPDEST SWAP1 POP PUSH2 0x882 PUSH1 0x20 DUP4 ADD DUP5 PUSH2 0x849 JUMP JUMPDEST SWAP5 SWAP4 POP POP POP POP JUMP JUMPDEST PUSH2 0x893 DUP2 PUSH2 0x5C2 JUMP JUMPDEST DUP3 MSTORE POP POP JUMP JUMPDEST PUSH1 0x0 PUSH1 0x40 DUP3 ADD SWAP1 POP DUP2 DUP2 SUB PUSH1 0x0 DUP4 ADD MSTORE PUSH2 0x8B4 DUP2 DUP6 DUP8 PUSH2 0x721 JUMP JUMPDEST SWAP1 POP PUSH2 0x8C3 PUSH1 0x20 DUP4 ADD DUP5 PUSH2 0x88A JUMP JUMPDEST SWAP5 SWAP4 POP POP POP POP JUMP JUMPDEST PUSH2 0x8D4 DUP2 PUSH2 0x658 JUMP JUMPDEST DUP3 MSTORE POP POP JUMP JUMPDEST PUSH1 0x0 PUSH1 0x40 DUP3 ADD SWAP1 POP DUP2 DUP2 SUB PUSH1 0x0 DUP4 ADD MSTORE PUSH2 0x8F5 DUP2 DUP6 DUP8 PUSH2 0x721 JUMP JUMPDEST SWAP1 POP PUSH2 0x904 PUSH1 0x20 DUP4 ADD DUP5 PUSH2 0x8CB JUMP JUMPDEST SWAP5 SWAP4 POP POP POP POP JUMP INVALID LOG2 PUSH5 0x6970667358 0x22 SLT KECCAK256 0x2D 0x4D PUSH14 0x9D36E57628C3E2F43797893C98D4 DUP10 0xCF MOD 0x26 DUP1 PUSH7 0xFFCE646A71C085 ISZERO SELFDESTRUCT PUSH5 0x736F6C6343 STOP ADDMOD SLT STOP CALLER "
				},
				"gasEstimates": {
					"creation": {
						"codeDepositCost": "474000",
						"executionCost": "511",
						"totalCost": "474511"
					},
					"external": {
						"log(string,address)": "infinite",
						"log(string,bool)": "infinite",
						"log(string,bytes)": "infinite",
						"log(string,bytes32)": "infinite",
						"log(string,int256)": "infinite",
						"log(string,uint256)": "infinite"
					}
				},
				"methodIdentifiers": {
					"log(string,address)": "319af333",
					"log(string,bool)": "c3b55635",
					"log(string,bytes)": "23cdd8e8",
					"log(string,bytes32)": "3692d61a",
					"log(string,int256)": "3ca6268e",
					"log(string,uint256)": "b60e72cc"
				}
			},
			"storageLayout": {
				"storage": [],
				"types": null
			},
			"userdoc": {
				"kind": "user",
				"methods": {},
				"version": 1
			}
		}
	}
}